{
	"knowledgeSystemContract.sol": {
		"KnowledgeSystem": {
			"abi": [
				{
					"inputs": [
						{
							"internalType": "address",
							"name": "_nftContractAddress",
							"type": "address"
						},
						{
							"internalType": "address",
							"name": "_tokenContractAddress",
							"type": "address"
						}
					],
					"stateMutability": "nonpayable",
					"type": "constructor"
				},
				{
					"inputs": [
						{
							"internalType": "string",
							"name": "knowledge",
							"type": "string"
						}
					],
					"name": "createKnowledge",
					"outputs": [],
					"stateMutability": "nonpayable",
					"type": "function"
				},
				{
					"inputs": [
						{
							"internalType": "uint256",
							"name": "tokenId",
							"type": "uint256"
						}
					],
					"name": "getKnowledge",
					"outputs": [
						{
							"internalType": "string",
							"name": "",
							"type": "string"
						}
					],
					"stateMutability": "view",
					"type": "function"
				},
				{
					"inputs": [
						{
							"internalType": "uint256",
							"name": "tokenId",
							"type": "uint256"
						}
					],
					"name": "getKnowledgeOwner",
					"outputs": [
						{
							"internalType": "address",
							"name": "",
							"type": "address"
						}
					],
					"stateMutability": "view",
					"type": "function"
				},
				{
					"inputs": [],
					"name": "getNftContractAddress",
					"outputs": [
						{
							"internalType": "address",
							"name": "",
							"type": "address"
						}
					],
					"stateMutability": "view",
					"type": "function"
				},
				{
					"inputs": [],
					"name": "getTokenContract",
					"outputs": [
						{
							"internalType": "address",
							"name": "",
							"type": "address"
						}
					],
					"stateMutability": "view",
					"type": "function"
				},
				{
					"inputs": [
						{
							"internalType": "uint256",
							"name": "tokenId",
							"type": "uint256"
						}
					],
					"name": "rewardAtViewing",
					"outputs": [],
					"stateMutability": "nonpayable",
					"type": "function"
				},
				{
					"inputs": [
						{
							"internalType": "uint256",
							"name": "tokenId",
							"type": "uint256"
						},
						{
							"internalType": "uint256",
							"name": "amount",
							"type": "uint256"
						}
					],
					"name": "rewardForKnowledge",
					"outputs": [],
					"stateMutability": "nonpayable",
					"type": "function"
				}
			],
			"devdoc": {
				"kind": "dev",
				"methods": {},
				"version": 1
			},
			"evm": {
				"assembly": "    /* \"knowledgeSystemContract.sol\":663:3269  contract KnowledgeSystem {... */\n  mstore(0x40, 0x80)\n    /* \"knowledgeSystemContract.sol\":1079:1662  constructor(address _nftContractAddress, address _tokenContractAddress) {... */\n  callvalue\n  dup1\n  iszero\n  tag_1\n  jumpi\n  0x00\n  dup1\n  revert\ntag_1:\n  pop\n  mload(0x40)\n  sub(codesize, bytecodeSize)\n  dup1\n  bytecodeSize\n  dup4\n  codecopy\n  dup2\n  dup2\n  add\n  0x40\n  mstore\n  dup2\n  add\n  swap1\n  tag_2\n  swap2\n  swap1\n  tag_3\n  jump\t// in\ntag_2:\n    /* \"knowledgeSystemContract.sol\":1278:1297  _nftContractAddress */\n  dup2\n    /* \"knowledgeSystemContract.sol\":1257:1275  nftContractAddress */\n  0x00\n  dup1\n    /* \"knowledgeSystemContract.sol\":1257:1297  nftContractAddress = _nftContractAddress */\n  0x0100\n  exp\n  dup2\n  sload\n  dup2\n  0xffffffffffffffffffffffffffffffffffffffff\n  mul\n  not\n  and\n  swap1\n  dup4\n  0xffffffffffffffffffffffffffffffffffffffff\n  and\n  mul\n  or\n  swap1\n  sstore\n  pop\n    /* \"knowledgeSystemContract.sol\":1330:1351  _tokenContractAddress */\n  dup1\n    /* \"knowledgeSystemContract.sol\":1307:1327  tokenContractAddress */\n  0x01\n  0x00\n    /* \"knowledgeSystemContract.sol\":1307:1351  tokenContractAddress = _tokenContractAddress */\n  0x0100\n  exp\n  dup2\n  sload\n  dup2\n  0xffffffffffffffffffffffffffffffffffffffff\n  mul\n  not\n  and\n  swap1\n  dup4\n  0xffffffffffffffffffffffffffffffffffffffff\n  and\n  mul\n  or\n  swap1\n  sstore\n  pop\n    /* \"knowledgeSystemContract.sol\":1389:1407  nftContractAddress */\n  0x00\n  dup1\n  sload\n  swap1\n  0x0100\n  exp\n  swap1\n  div\n  0xffffffffffffffffffffffffffffffffffffffff\n  and\n    /* \"knowledgeSystemContract.sol\":1361:1372  nftContract */\n  0x02\n  0x00\n    /* \"knowledgeSystemContract.sol\":1361:1408  nftContract = IKnowledgeNFT(nftContractAddress) */\n  0x0100\n  exp\n  dup2\n  sload\n  dup2\n  0xffffffffffffffffffffffffffffffffffffffff\n  mul\n  not\n  and\n  swap1\n  dup4\n  0xffffffffffffffffffffffffffffffffffffffff\n  and\n  mul\n  or\n  swap1\n  sstore\n  pop\n    /* \"knowledgeSystemContract.sol\":1450:1470  tokenContractAddress */\n  0x01\n  0x00\n  swap1\n  sload\n  swap1\n  0x0100\n  exp\n  swap1\n  div\n  0xffffffffffffffffffffffffffffffffffffffff\n  and\n    /* \"knowledgeSystemContract.sol\":1418:1431  tokenContract */\n  0x03\n  0x00\n    /* \"knowledgeSystemContract.sol\":1418:1471  tokenContract = IKnowledgeToken(tokenContractAddress) */\n  0x0100\n  exp\n  dup2\n  sload\n  dup2\n  0xffffffffffffffffffffffffffffffffffffffff\n  mul\n  not\n  and\n  swap1\n  dup4\n  0xffffffffffffffffffffffffffffffffffffffff\n  and\n  mul\n  or\n  swap1\n  sstore\n  pop\n    /* \"knowledgeSystemContract.sol\":1575:1577  20 */\n  0x14\n    /* \"knowledgeSystemContract.sol\":1548:1572  amountForCreateKnowledge */\n  0x04\n    /* \"knowledgeSystemContract.sol\":1548:1577  amountForCreateKnowledge = 20 */\n  dup2\n  swap1\n  sstore\n  pop\n    /* \"knowledgeSystemContract.sol\":1614:1615  5 */\n  0x05\n    /* \"knowledgeSystemContract.sol\":1587:1611  amountForViewerAtViewing */\n  dup1\n    /* \"knowledgeSystemContract.sol\":1587:1615  amountForViewerAtViewing = 5 */\n  dup2\n  swap1\n  sstore\n  pop\n    /* \"knowledgeSystemContract.sol\":1653:1655  10 */\n  0x0a\n    /* \"knowledgeSystemContract.sol\":1625:1650  amountForCreaterAtViewing */\n  0x06\n    /* \"knowledgeSystemContract.sol\":1625:1655  amountForCreaterAtViewing = 10 */\n  dup2\n  swap1\n  sstore\n  pop\n    /* \"knowledgeSystemContract.sol\":1079:1662  constructor(address _nftContractAddress, address _tokenContractAddress) {... */\n  pop\n  pop\n    /* \"knowledgeSystemContract.sol\":663:3269  contract KnowledgeSystem {... */\n  jump(tag_6)\n    /* \"#utility.yul\":88:205   */\ntag_8:\n    /* \"#utility.yul\":197:198   */\n  0x00\n    /* \"#utility.yul\":194:195   */\n  dup1\n    /* \"#utility.yul\":187:199   */\n  revert\n    /* \"#utility.yul\":334:460   */\ntag_10:\n    /* \"#utility.yul\":371:378   */\n  0x00\n    /* \"#utility.yul\":411:453   */\n  0xffffffffffffffffffffffffffffffffffffffff\n    /* \"#utility.yul\":404:409   */\n  dup3\n    /* \"#utility.yul\":400:454   */\n  and\n    /* \"#utility.yul\":389:454   */\n  swap1\n  pop\n    /* \"#utility.yul\":334:460   */\n  swap2\n  swap1\n  pop\n  jump\t// out\n    /* \"#utility.yul\":466:562   */\ntag_11:\n    /* \"#utility.yul\":503:510   */\n  0x00\n    /* \"#utility.yul\":532:556   */\n  tag_20\n    /* \"#utility.yul\":550:555   */\n  dup3\n    /* \"#utility.yul\":532:556   */\n  tag_10\n  jump\t// in\ntag_20:\n    /* \"#utility.yul\":521:556   */\n  swap1\n  pop\n    /* \"#utility.yul\":466:562   */\n  swap2\n  swap1\n  pop\n  jump\t// out\n    /* \"#utility.yul\":568:690   */\ntag_12:\n    /* \"#utility.yul\":641:665   */\n  tag_22\n    /* \"#utility.yul\":659:664   */\n  dup2\n    /* \"#utility.yul\":641:665   */\n  tag_11\n  jump\t// in\ntag_22:\n    /* \"#utility.yul\":634:639   */\n  dup2\n    /* \"#utility.yul\":631:666   */\n  eq\n    /* \"#utility.yul\":621:684   */\n  tag_23\n  jumpi\n    /* \"#utility.yul\":680:681   */\n  0x00\n    /* \"#utility.yul\":677:678   */\n  dup1\n    /* \"#utility.yul\":670:682   */\n  revert\n    /* \"#utility.yul\":621:684   */\ntag_23:\n    /* \"#utility.yul\":568:690   */\n  pop\n  jump\t// out\n    /* \"#utility.yul\":696:839   */\ntag_13:\n    /* \"#utility.yul\":753:758   */\n  0x00\n    /* \"#utility.yul\":784:790   */\n  dup2\n    /* \"#utility.yul\":778:791   */\n  mload\n    /* \"#utility.yul\":769:791   */\n  swap1\n  pop\n    /* \"#utility.yul\":800:833   */\n  tag_25\n    /* \"#utility.yul\":827:832   */\n  dup2\n    /* \"#utility.yul\":800:833   */\n  tag_12\n  jump\t// in\ntag_25:\n    /* \"#utility.yul\":696:839   */\n  swap3\n  swap2\n  pop\n  pop\n  jump\t// out\n    /* \"#utility.yul\":845:1352   */\ntag_3:\n    /* \"#utility.yul\":924:930   */\n  0x00\n    /* \"#utility.yul\":932:938   */\n  dup1\n    /* \"#utility.yul\":981:983   */\n  0x40\n    /* \"#utility.yul\":969:978   */\n  dup4\n    /* \"#utility.yul\":960:967   */\n  dup6\n    /* \"#utility.yul\":956:979   */\n  sub\n    /* \"#utility.yul\":952:984   */\n  slt\n    /* \"#utility.yul\":949:1068   */\n  iszero\n  tag_27\n  jumpi\n    /* \"#utility.yul\":987:1066   */\n  tag_28\n  tag_8\n  jump\t// in\ntag_28:\n    /* \"#utility.yul\":949:1068   */\ntag_27:\n    /* \"#utility.yul\":1107:1108   */\n  0x00\n    /* \"#utility.yul\":1132:1196   */\n  tag_29\n    /* \"#utility.yul\":1188:1195   */\n  dup6\n    /* \"#utility.yul\":1179:1185   */\n  dup3\n    /* \"#utility.yul\":1168:1177   */\n  dup7\n    /* \"#utility.yul\":1164:1186   */\n  add\n    /* \"#utility.yul\":1132:1196   */\n  tag_13\n  jump\t// in\ntag_29:\n    /* \"#utility.yul\":1122:1196   */\n  swap3\n  pop\n    /* \"#utility.yul\":1078:1206   */\n  pop\n    /* \"#utility.yul\":1245:1247   */\n  0x20\n    /* \"#utility.yul\":1271:1335   */\n  tag_30\n    /* \"#utility.yul\":1327:1334   */\n  dup6\n    /* \"#utility.yul\":1318:1324   */\n  dup3\n    /* \"#utility.yul\":1307:1316   */\n  dup7\n    /* \"#utility.yul\":1303:1325   */\n  add\n    /* \"#utility.yul\":1271:1335   */\n  tag_13\n  jump\t// in\ntag_30:\n    /* \"#utility.yul\":1261:1335   */\n  swap2\n  pop\n    /* \"#utility.yul\":1216:1345   */\n  pop\n    /* \"#utility.yul\":845:1352   */\n  swap3\n  pop\n  swap3\n  swap1\n  pop\n  jump\t// out\n    /* \"knowledgeSystemContract.sol\":663:3269  contract KnowledgeSystem {... */\ntag_6:\n  dataSize(sub_0)\n  dup1\n  dataOffset(sub_0)\n  0x00\n  codecopy\n  0x00\n  return\nstop\n\nsub_0: assembly {\n        /* \"knowledgeSystemContract.sol\":663:3269  contract KnowledgeSystem {... */\n      mstore(0x40, 0x80)\n      callvalue\n      dup1\n      iszero\n      tag_1\n      jumpi\n      0x00\n      dup1\n      revert\n    tag_1:\n      pop\n      jumpi(tag_2, lt(calldatasize, 0x04))\n      shr(0xe0, calldataload(0x00))\n      dup1\n      0x6dc32bba\n      gt\n      tag_10\n      jumpi\n      dup1\n      0x6dc32bba\n      eq\n      tag_6\n      jumpi\n      dup1\n      0xb8959a8b\n      eq\n      tag_7\n      jumpi\n      dup1\n      0xee79c9e2\n      eq\n      tag_8\n      jumpi\n      dup1\n      0xf20fa822\n      eq\n      tag_9\n      jumpi\n      jump(tag_2)\n    tag_10:\n      dup1\n      0x28b7bede\n      eq\n      tag_3\n      jumpi\n      dup1\n      0x28e7b2a6\n      eq\n      tag_4\n      jumpi\n      dup1\n      0x4ccadb69\n      eq\n      tag_5\n      jumpi\n    tag_2:\n      0x00\n      dup1\n      revert\n        /* \"knowledgeSystemContract.sol\":3165:3267  function getTokenContract() public view returns (address) {... */\n    tag_3:\n      tag_11\n      tag_12\n      jump\t// in\n    tag_11:\n      mload(0x40)\n      tag_13\n      swap2\n      swap1\n      tag_14\n      jump\t// in\n    tag_13:\n      mload(0x40)\n      dup1\n      swap2\n      sub\n      swap1\n      return\n        /* \"knowledgeSystemContract.sol\":1990:2122  function getKnowledge(uint256 tokenId) public view returns (string memory) {... */\n    tag_4:\n      tag_15\n      0x04\n      dup1\n      calldatasize\n      sub\n      dup2\n      add\n      swap1\n      tag_16\n      swap2\n      swap1\n      tag_17\n      jump\t// in\n    tag_16:\n      tag_18\n      jump\t// in\n    tag_15:\n      mload(0x40)\n      tag_19\n      swap2\n      swap1\n      tag_20\n      jump\t// in\n    tag_19:\n      mload(0x40)\n      dup1\n      swap2\n      sub\n      swap1\n      return\n        /* \"knowledgeSystemContract.sol\":2676:2897  function rewardForKnowledge(uint256 tokenId, uint256 amount) public {... */\n    tag_5:\n      tag_21\n      0x04\n      dup1\n      calldatasize\n      sub\n      dup2\n      add\n      swap1\n      tag_22\n      swap2\n      swap1\n      tag_23\n      jump\t// in\n    tag_22:\n      tag_24\n      jump\t// in\n    tag_21:\n      stop\n        /* \"knowledgeSystemContract.sol\":1697:1955  function createKnowledge(string memory knowledge) public {... */\n    tag_6:\n      tag_25\n      0x04\n      dup1\n      calldatasize\n      sub\n      dup2\n      add\n      swap1\n      tag_26\n      swap2\n      swap1\n      tag_27\n      jump\t// in\n    tag_26:\n      tag_28\n      jump\t// in\n    tag_25:\n      stop\n        /* \"knowledgeSystemContract.sol\":2980:3085  function getNftContractAddress() public view returns (address) {... */\n    tag_7:\n      tag_29\n      tag_30\n      jump\t// in\n    tag_29:\n      mload(0x40)\n      tag_31\n      swap2\n      swap1\n      tag_14\n      jump\t// in\n    tag_31:\n      mload(0x40)\n      dup1\n      swap2\n      sub\n      swap1\n      return\n        /* \"knowledgeSystemContract.sol\":2187:2313  function getKnowledgeOwner(uint256 tokenId) public view returns (address) {... */\n    tag_8:\n      tag_32\n      0x04\n      dup1\n      calldatasize\n      sub\n      dup2\n      add\n      swap1\n      tag_33\n      swap2\n      swap1\n      tag_17\n      jump\t// in\n    tag_33:\n      tag_34\n      jump\t// in\n    tag_32:\n      mload(0x40)\n      tag_35\n      swap2\n      swap1\n      tag_14\n      jump\t// in\n    tag_35:\n      mload(0x40)\n      dup1\n      swap2\n      sub\n      swap1\n      return\n        /* \"knowledgeSystemContract.sol\":2384:2605  function rewardAtViewing(uint256 tokenId) public {... */\n    tag_9:\n      tag_36\n      0x04\n      dup1\n      calldatasize\n      sub\n      dup2\n      add\n      swap1\n      tag_37\n      swap2\n      swap1\n      tag_17\n      jump\t// in\n    tag_37:\n      tag_38\n      jump\t// in\n    tag_36:\n      stop\n        /* \"knowledgeSystemContract.sol\":3165:3267  function getTokenContract() public view returns (address) {... */\n    tag_12:\n        /* \"knowledgeSystemContract.sol\":3214:3221  address */\n      0x00\n        /* \"knowledgeSystemContract.sol\":3240:3260  tokenContractAddress */\n      0x01\n      0x00\n      swap1\n      sload\n      swap1\n      0x0100\n      exp\n      swap1\n      div\n      0xffffffffffffffffffffffffffffffffffffffff\n      and\n        /* \"knowledgeSystemContract.sol\":3233:3260  return tokenContractAddress */\n      swap1\n      pop\n        /* \"knowledgeSystemContract.sol\":3165:3267  function getTokenContract() public view returns (address) {... */\n      swap1\n      jump\t// out\n        /* \"knowledgeSystemContract.sol\":1990:2122  function getKnowledge(uint256 tokenId) public view returns (string memory) {... */\n    tag_18:\n        /* \"knowledgeSystemContract.sol\":2050:2063  string memory */\n      0x60\n        /* \"knowledgeSystemContract.sol\":2082:2093  nftContract */\n      0x02\n      0x00\n      swap1\n      sload\n      swap1\n      0x0100\n      exp\n      swap1\n      div\n      0xffffffffffffffffffffffffffffffffffffffff\n      and\n        /* \"knowledgeSystemContract.sol\":2082:2106  nftContract.getKnowledge */\n      0xffffffffffffffffffffffffffffffffffffffff\n      and\n      0x28e7b2a6\n        /* \"knowledgeSystemContract.sol\":2107:2114  tokenId */\n      dup4\n        /* \"knowledgeSystemContract.sol\":2082:2115  nftContract.getKnowledge(tokenId) */\n      mload(0x40)\n      dup3\n      0xffffffff\n      and\n      0xe0\n      shl\n      dup2\n      mstore\n      0x04\n      add\n      tag_41\n      swap2\n      swap1\n      tag_42\n      jump\t// in\n    tag_41:\n      0x00\n      mload(0x40)\n      dup1\n      dup4\n      sub\n      dup2\n      dup7\n      gas\n      staticcall\n      iszero\n      dup1\n      iszero\n      tag_44\n      jumpi\n      returndatasize\n      0x00\n      dup1\n      returndatacopy\n      revert(0x00, returndatasize)\n    tag_44:\n      pop\n      pop\n      pop\n      pop\n      mload(0x40)\n      returndatasize\n      0x00\n      dup3\n      returndatacopy\n      returndatasize\n      not(0x1f)\n      0x1f\n      dup3\n      add\n      and\n      dup3\n      add\n      dup1\n      0x40\n      mstore\n      pop\n      dup2\n      add\n      swap1\n      tag_45\n      swap2\n      swap1\n      tag_46\n      jump\t// in\n    tag_45:\n        /* \"knowledgeSystemContract.sol\":2075:2115  return nftContract.getKnowledge(tokenId) */\n      swap1\n      pop\n        /* \"knowledgeSystemContract.sol\":1990:2122  function getKnowledge(uint256 tokenId) public view returns (string memory) {... */\n      swap2\n      swap1\n      pop\n      jump\t// out\n        /* \"knowledgeSystemContract.sol\":2676:2897  function rewardForKnowledge(uint256 tokenId, uint256 amount) public {... */\n    tag_24:\n        /* \"knowledgeSystemContract.sol\":2754:2774  address ownerAddress */\n      0x00\n        /* \"knowledgeSystemContract.sol\":2777:2788  nftContract */\n      0x02\n      0x00\n      swap1\n      sload\n      swap1\n      0x0100\n      exp\n      swap1\n      div\n      0xffffffffffffffffffffffffffffffffffffffff\n      and\n        /* \"knowledgeSystemContract.sol\":2777:2796  nftContract.ownerOf */\n      0xffffffffffffffffffffffffffffffffffffffff\n      and\n      0x6352211e\n        /* \"knowledgeSystemContract.sol\":2797:2804  tokenId */\n      dup5\n        /* \"knowledgeSystemContract.sol\":2777:2805  nftContract.ownerOf(tokenId) */\n      mload(0x40)\n      dup3\n      0xffffffff\n      and\n      0xe0\n      shl\n      dup2\n      mstore\n      0x04\n      add\n      tag_48\n      swap2\n      swap1\n      tag_42\n      jump\t// in\n    tag_48:\n      0x20\n      mload(0x40)\n      dup1\n      dup4\n      sub\n      dup2\n      dup7\n      gas\n      staticcall\n      iszero\n      dup1\n      iszero\n      tag_50\n      jumpi\n      returndatasize\n      0x00\n      dup1\n      returndatacopy\n      revert(0x00, returndatasize)\n    tag_50:\n      pop\n      pop\n      pop\n      pop\n      mload(0x40)\n      returndatasize\n      not(0x1f)\n      0x1f\n      dup3\n      add\n      and\n      dup3\n      add\n      dup1\n      0x40\n      mstore\n      pop\n      dup2\n      add\n      swap1\n      tag_51\n      swap2\n      swap1\n      tag_52\n      jump\t// in\n    tag_51:\n        /* \"knowledgeSystemContract.sol\":2754:2805  address ownerAddress = nftContract.ownerOf(tokenId) */\n      swap1\n      pop\n        /* \"knowledgeSystemContract.sol\":2815:2828  tokenContract */\n      0x03\n      0x00\n      swap1\n      sload\n      swap1\n      0x0100\n      exp\n      swap1\n      div\n      0xffffffffffffffffffffffffffffffffffffffff\n      and\n        /* \"knowledgeSystemContract.sol\":2815:2835  tokenContract.reward */\n      0xffffffffffffffffffffffffffffffffffffffff\n      and\n      0x21670f22\n        /* \"knowledgeSystemContract.sol\":2836:2848  ownerAddress */\n      dup3\n        /* \"knowledgeSystemContract.sol\":2865:2878  tokenContract */\n      0x03\n      0x00\n      swap1\n      sload\n      swap1\n      0x0100\n      exp\n      swap1\n      div\n      0xffffffffffffffffffffffffffffffffffffffff\n      and\n        /* \"knowledgeSystemContract.sol\":2865:2887  tokenContract.decimals */\n      0xffffffffffffffffffffffffffffffffffffffff\n      and\n      0x313ce567\n        /* \"knowledgeSystemContract.sol\":2865:2889  tokenContract.decimals() */\n      mload(0x40)\n      dup2\n      0xffffffff\n      and\n      0xe0\n      shl\n      dup2\n      mstore\n      0x04\n      add\n      0x20\n      mload(0x40)\n      dup1\n      dup4\n      sub\n      dup2\n      dup7\n      gas\n      staticcall\n      iszero\n      dup1\n      iszero\n      tag_54\n      jumpi\n      returndatasize\n      0x00\n      dup1\n      returndatacopy\n      revert(0x00, returndatasize)\n    tag_54:\n      pop\n      pop\n      pop\n      pop\n      mload(0x40)\n      returndatasize\n      not(0x1f)\n      0x1f\n      dup3\n      add\n      and\n      dup3\n      add\n      dup1\n      0x40\n      mstore\n      pop\n      dup2\n      add\n      swap1\n      tag_55\n      swap2\n      swap1\n      tag_56\n      jump\t// in\n    tag_55:\n        /* \"knowledgeSystemContract.sol\":2859:2861  10 */\n      0x0a\n        /* \"knowledgeSystemContract.sol\":2859:2889  10 ** tokenContract.decimals() */\n      tag_57\n      swap2\n      swap1\n      tag_58\n      jump\t// in\n    tag_57:\n        /* \"knowledgeSystemContract.sol\":2850:2856  amount */\n      dup6\n        /* \"knowledgeSystemContract.sol\":2850:2889  amount * 10 ** tokenContract.decimals() */\n      tag_59\n      swap2\n      swap1\n      tag_60\n      jump\t// in\n    tag_59:\n        /* \"knowledgeSystemContract.sol\":2815:2890  tokenContract.reward(ownerAddress, amount * 10 ** tokenContract.decimals()) */\n      mload(0x40)\n      dup4\n      0xffffffff\n      and\n      0xe0\n      shl\n      dup2\n      mstore\n      0x04\n      add\n      tag_61\n      swap3\n      swap2\n      swap1\n      tag_62\n      jump\t// in\n    tag_61:\n      0x00\n      mload(0x40)\n      dup1\n      dup4\n      sub\n      dup2\n      0x00\n      dup8\n      dup1\n      extcodesize\n      iszero\n      dup1\n      iszero\n      tag_63\n      jumpi\n      0x00\n      dup1\n      revert\n    tag_63:\n      pop\n      gas\n      call\n      iszero\n      dup1\n      iszero\n      tag_65\n      jumpi\n      returndatasize\n      0x00\n      dup1\n      returndatacopy\n      revert(0x00, returndatasize)\n    tag_65:\n      pop\n      pop\n      pop\n      pop\n        /* \"knowledgeSystemContract.sol\":2744:2897  {... */\n      pop\n        /* \"knowledgeSystemContract.sol\":2676:2897  function rewardForKnowledge(uint256 tokenId, uint256 amount) public {... */\n      pop\n      pop\n      jump\t// out\n        /* \"knowledgeSystemContract.sol\":1697:1955  function createKnowledge(string memory knowledge) public {... */\n    tag_28:\n        /* \"knowledgeSystemContract.sol\":1764:1778  uint256 amount */\n      0x00\n        /* \"knowledgeSystemContract.sol\":1814:1827  tokenContract */\n      0x03\n      0x00\n      swap1\n      sload\n      swap1\n      0x0100\n      exp\n      swap1\n      div\n      0xffffffffffffffffffffffffffffffffffffffff\n      and\n        /* \"knowledgeSystemContract.sol\":1814:1836  tokenContract.decimals */\n      0xffffffffffffffffffffffffffffffffffffffff\n      and\n      0x313ce567\n        /* \"knowledgeSystemContract.sol\":1814:1838  tokenContract.decimals() */\n      mload(0x40)\n      dup2\n      0xffffffff\n      and\n      0xe0\n      shl\n      dup2\n      mstore\n      0x04\n      add\n      0x20\n      mload(0x40)\n      dup1\n      dup4\n      sub\n      dup2\n      dup7\n      gas\n      staticcall\n      iszero\n      dup1\n      iszero\n      tag_68\n      jumpi\n      returndatasize\n      0x00\n      dup1\n      returndatacopy\n      revert(0x00, returndatasize)\n    tag_68:\n      pop\n      pop\n      pop\n      pop\n      mload(0x40)\n      returndatasize\n      not(0x1f)\n      0x1f\n      dup3\n      add\n      and\n      dup3\n      add\n      dup1\n      0x40\n      mstore\n      pop\n      dup2\n      add\n      swap1\n      tag_69\n      swap2\n      swap1\n      tag_56\n      jump\t// in\n    tag_69:\n        /* \"knowledgeSystemContract.sol\":1808:1810  10 */\n      0x0a\n        /* \"knowledgeSystemContract.sol\":1808:1838  10 ** tokenContract.decimals() */\n      tag_70\n      swap2\n      swap1\n      tag_58\n      jump\t// in\n    tag_70:\n        /* \"knowledgeSystemContract.sol\":1781:1805  amountForCreateKnowledge */\n      sload(0x04)\n        /* \"knowledgeSystemContract.sol\":1781:1838  amountForCreateKnowledge * 10 ** tokenContract.decimals() */\n      tag_71\n      swap2\n      swap1\n      tag_60\n      jump\t// in\n    tag_71:\n        /* \"knowledgeSystemContract.sol\":1764:1838  uint256 amount = amountForCreateKnowledge * 10 ** tokenContract.decimals() */\n      swap1\n      pop\n        /* \"knowledgeSystemContract.sol\":1848:1859  nftContract */\n      0x02\n      0x00\n      swap1\n      sload\n      swap1\n      0x0100\n      exp\n      swap1\n      div\n      0xffffffffffffffffffffffffffffffffffffffff\n      and\n        /* \"knowledgeSystemContract.sol\":1848:1875  nftContract.createKnowlegde */\n      0xffffffffffffffffffffffffffffffffffffffff\n      and\n      0xd15aecd3\n        /* \"knowledgeSystemContract.sol\":1876:1886  msg.sender */\n      caller\n        /* \"knowledgeSystemContract.sol\":1888:1897  knowledge */\n      dup5\n        /* \"knowledgeSystemContract.sol\":1848:1898  nftContract.createKnowlegde(msg.sender, knowledge) */\n      mload(0x40)\n      dup4\n      0xffffffff\n      and\n      0xe0\n      shl\n      dup2\n      mstore\n      0x04\n      add\n      tag_72\n      swap3\n      swap2\n      swap1\n      tag_73\n      jump\t// in\n    tag_72:\n      0x00\n      mload(0x40)\n      dup1\n      dup4\n      sub\n      dup2\n      0x00\n      dup8\n      dup1\n      extcodesize\n      iszero\n      dup1\n      iszero\n      tag_74\n      jumpi\n      0x00\n      dup1\n      revert\n    tag_74:\n      pop\n      gas\n      call\n      iszero\n      dup1\n      iszero\n      tag_76\n      jumpi\n      returndatasize\n      0x00\n      dup1\n      returndatacopy\n      revert(0x00, returndatasize)\n    tag_76:\n      pop\n      pop\n      pop\n      pop\n        /* \"knowledgeSystemContract.sol\":1908:1921  tokenContract */\n      0x03\n      0x00\n      swap1\n      sload\n      swap1\n      0x0100\n      exp\n      swap1\n      div\n      0xffffffffffffffffffffffffffffffffffffffff\n      and\n        /* \"knowledgeSystemContract.sol\":1908:1928  tokenContract.reward */\n      0xffffffffffffffffffffffffffffffffffffffff\n      and\n      0x21670f22\n        /* \"knowledgeSystemContract.sol\":1929:1939  msg.sender */\n      caller\n        /* \"knowledgeSystemContract.sol\":1941:1947  amount */\n      dup4\n        /* \"knowledgeSystemContract.sol\":1908:1948  tokenContract.reward(msg.sender, amount) */\n      mload(0x40)\n      dup4\n      0xffffffff\n      and\n      0xe0\n      shl\n      dup2\n      mstore\n      0x04\n      add\n      tag_77\n      swap3\n      swap2\n      swap1\n      tag_62\n      jump\t// in\n    tag_77:\n      0x00\n      mload(0x40)\n      dup1\n      dup4\n      sub\n      dup2\n      0x00\n      dup8\n      dup1\n      extcodesize\n      iszero\n      dup1\n      iszero\n      tag_78\n      jumpi\n      0x00\n      dup1\n      revert\n    tag_78:\n      pop\n      gas\n      call\n      iszero\n      dup1\n      iszero\n      tag_80\n      jumpi\n      returndatasize\n      0x00\n      dup1\n      returndatacopy\n      revert(0x00, returndatasize)\n    tag_80:\n      pop\n      pop\n      pop\n      pop\n        /* \"knowledgeSystemContract.sol\":1754:1955  {... */\n      pop\n        /* \"knowledgeSystemContract.sol\":1697:1955  function createKnowledge(string memory knowledge) public {... */\n      pop\n      jump\t// out\n        /* \"knowledgeSystemContract.sol\":2980:3085  function getNftContractAddress() public view returns (address) {... */\n    tag_30:\n        /* \"knowledgeSystemContract.sol\":3034:3041  address */\n      0x00\n        /* \"knowledgeSystemContract.sol\":3060:3078  nftContractAddress */\n      dup1\n      0x00\n      swap1\n      sload\n      swap1\n      0x0100\n      exp\n      swap1\n      div\n      0xffffffffffffffffffffffffffffffffffffffff\n      and\n        /* \"knowledgeSystemContract.sol\":3053:3078  return nftContractAddress */\n      swap1\n      pop\n        /* \"knowledgeSystemContract.sol\":2980:3085  function getNftContractAddress() public view returns (address) {... */\n      swap1\n      jump\t// out\n        /* \"knowledgeSystemContract.sol\":2187:2313  function getKnowledgeOwner(uint256 tokenId) public view returns (address) {... */\n    tag_34:\n        /* \"knowledgeSystemContract.sol\":2252:2259  address */\n      0x00\n        /* \"knowledgeSystemContract.sol\":2278:2289  nftContract */\n      0x02\n      0x00\n      swap1\n      sload\n      swap1\n      0x0100\n      exp\n      swap1\n      div\n      0xffffffffffffffffffffffffffffffffffffffff\n      and\n        /* \"knowledgeSystemContract.sol\":2278:2297  nftContract.ownerOf */\n      0xffffffffffffffffffffffffffffffffffffffff\n      and\n      0x6352211e\n        /* \"knowledgeSystemContract.sol\":2298:2305  tokenId */\n      dup4\n        /* \"knowledgeSystemContract.sol\":2278:2306  nftContract.ownerOf(tokenId) */\n      mload(0x40)\n      dup3\n      0xffffffff\n      and\n      0xe0\n      shl\n      dup2\n      mstore\n      0x04\n      add\n      tag_83\n      swap2\n      swap1\n      tag_42\n      jump\t// in\n    tag_83:\n      0x20\n      mload(0x40)\n      dup1\n      dup4\n      sub\n      dup2\n      dup7\n      gas\n      staticcall\n      iszero\n      dup1\n      iszero\n      tag_85\n      jumpi\n      returndatasize\n      0x00\n      dup1\n      returndatacopy\n      revert(0x00, returndatasize)\n    tag_85:\n      pop\n      pop\n      pop\n      pop\n      mload(0x40)\n      returndatasize\n      not(0x1f)\n      0x1f\n      dup3\n      add\n      and\n      dup3\n      add\n      dup1\n      0x40\n      mstore\n      pop\n      dup2\n      add\n      swap1\n      tag_86\n      swap2\n      swap1\n      tag_52\n      jump\t// in\n    tag_86:\n        /* \"knowledgeSystemContract.sol\":2271:2306  return nftContract.ownerOf(tokenId) */\n      swap1\n      pop\n        /* \"knowledgeSystemContract.sol\":2187:2313  function getKnowledgeOwner(uint256 tokenId) public view returns (address) {... */\n      swap2\n      swap1\n      pop\n      jump\t// out\n        /* \"knowledgeSystemContract.sol\":2384:2605  function rewardAtViewing(uint256 tokenId) public {... */\n    tag_38:\n        /* \"knowledgeSystemContract.sol\":2443:2456  tokenContract */\n      0x03\n      0x00\n      swap1\n      sload\n      swap1\n      0x0100\n      exp\n      swap1\n      div\n      0xffffffffffffffffffffffffffffffffffffffff\n      and\n        /* \"knowledgeSystemContract.sol\":2443:2463  tokenContract.reward */\n      0xffffffffffffffffffffffffffffffffffffffff\n      and\n      0x21670f22\n        /* \"knowledgeSystemContract.sol\":2464:2474  msg.sender */\n      caller\n        /* \"knowledgeSystemContract.sol\":2509:2522  tokenContract */\n      0x03\n      0x00\n      swap1\n      sload\n      swap1\n      0x0100\n      exp\n      swap1\n      div\n      0xffffffffffffffffffffffffffffffffffffffff\n      and\n        /* \"knowledgeSystemContract.sol\":2509:2531  tokenContract.decimals */\n      0xffffffffffffffffffffffffffffffffffffffff\n      and\n      0x313ce567\n        /* \"knowledgeSystemContract.sol\":2509:2533  tokenContract.decimals() */\n      mload(0x40)\n      dup2\n      0xffffffff\n      and\n      0xe0\n      shl\n      dup2\n      mstore\n      0x04\n      add\n      0x20\n      mload(0x40)\n      dup1\n      dup4\n      sub\n      dup2\n      dup7\n      gas\n      staticcall\n      iszero\n      dup1\n      iszero\n      tag_89\n      jumpi\n      returndatasize\n      0x00\n      dup1\n      returndatacopy\n      revert(0x00, returndatasize)\n    tag_89:\n      pop\n      pop\n      pop\n      pop\n      mload(0x40)\n      returndatasize\n      not(0x1f)\n      0x1f\n      dup3\n      add\n      and\n      dup3\n      add\n      dup1\n      0x40\n      mstore\n      pop\n      dup2\n      add\n      swap1\n      tag_90\n      swap2\n      swap1\n      tag_56\n      jump\t// in\n    tag_90:\n        /* \"knowledgeSystemContract.sol\":2503:2505  10 */\n      0x0a\n        /* \"knowledgeSystemContract.sol\":2503:2533  10 ** tokenContract.decimals() */\n      tag_91\n      swap2\n      swap1\n      tag_58\n      jump\t// in\n    tag_91:\n        /* \"knowledgeSystemContract.sol\":2476:2500  amountForViewerAtViewing */\n      sload(0x05)\n        /* \"knowledgeSystemContract.sol\":2476:2533  amountForViewerAtViewing * 10 ** tokenContract.decimals() */\n      tag_92\n      swap2\n      swap1\n      tag_60\n      jump\t// in\n    tag_92:\n        /* \"knowledgeSystemContract.sol\":2443:2534  tokenContract.reward(msg.sender, amountForViewerAtViewing * 10 ** tokenContract.decimals()) */\n      mload(0x40)\n      dup4\n      0xffffffff\n      and\n      0xe0\n      shl\n      dup2\n      mstore\n      0x04\n      add\n      tag_93\n      swap3\n      swap2\n      swap1\n      tag_62\n      jump\t// in\n    tag_93:\n      0x00\n      mload(0x40)\n      dup1\n      dup4\n      sub\n      dup2\n      0x00\n      dup8\n      dup1\n      extcodesize\n      iszero\n      dup1\n      iszero\n      tag_94\n      jumpi\n      0x00\n      dup1\n      revert\n    tag_94:\n      pop\n      gas\n      call\n      iszero\n      dup1\n      iszero\n      tag_96\n      jumpi\n      returndatasize\n      0x00\n      dup1\n      returndatacopy\n      revert(0x00, returndatasize)\n    tag_96:\n      pop\n      pop\n      pop\n      pop\n        /* \"knowledgeSystemContract.sol\":2544:2598  rewardForKnowledge(tokenId, amountForCreaterAtViewing) */\n      tag_97\n        /* \"knowledgeSystemContract.sol\":2563:2570  tokenId */\n      dup2\n        /* \"knowledgeSystemContract.sol\":2572:2597  amountForCreaterAtViewing */\n      sload(0x06)\n        /* \"knowledgeSystemContract.sol\":2544:2562  rewardForKnowledge */\n      tag_24\n        /* \"knowledgeSystemContract.sol\":2544:2598  rewardForKnowledge(tokenId, amountForCreaterAtViewing) */\n      jump\t// in\n    tag_97:\n        /* \"knowledgeSystemContract.sol\":2384:2605  function rewardAtViewing(uint256 tokenId) public {... */\n      pop\n      jump\t// out\n        /* \"#utility.yul\":7:133   */\n    tag_98:\n        /* \"#utility.yul\":44:51   */\n      0x00\n        /* \"#utility.yul\":84:126   */\n      0xffffffffffffffffffffffffffffffffffffffff\n        /* \"#utility.yul\":77:82   */\n      dup3\n        /* \"#utility.yul\":73:127   */\n      and\n        /* \"#utility.yul\":62:127   */\n      swap1\n      pop\n        /* \"#utility.yul\":7:133   */\n      swap2\n      swap1\n      pop\n      jump\t// out\n        /* \"#utility.yul\":139:235   */\n    tag_99:\n        /* \"#utility.yul\":176:183   */\n      0x00\n        /* \"#utility.yul\":205:229   */\n      tag_134\n        /* \"#utility.yul\":223:228   */\n      dup3\n        /* \"#utility.yul\":205:229   */\n      tag_98\n      jump\t// in\n    tag_134:\n        /* \"#utility.yul\":194:229   */\n      swap1\n      pop\n        /* \"#utility.yul\":139:235   */\n      swap2\n      swap1\n      pop\n      jump\t// out\n        /* \"#utility.yul\":241:359   */\n    tag_100:\n        /* \"#utility.yul\":328:352   */\n      tag_136\n        /* \"#utility.yul\":346:351   */\n      dup2\n        /* \"#utility.yul\":328:352   */\n      tag_99\n      jump\t// in\n    tag_136:\n        /* \"#utility.yul\":323:326   */\n      dup3\n        /* \"#utility.yul\":316:353   */\n      mstore\n        /* \"#utility.yul\":241:359   */\n      pop\n      pop\n      jump\t// out\n        /* \"#utility.yul\":365:587   */\n    tag_14:\n        /* \"#utility.yul\":458:462   */\n      0x00\n        /* \"#utility.yul\":496:498   */\n      0x20\n        /* \"#utility.yul\":485:494   */\n      dup3\n        /* \"#utility.yul\":481:499   */\n      add\n        /* \"#utility.yul\":473:499   */\n      swap1\n      pop\n        /* \"#utility.yul\":509:580   */\n      tag_138\n        /* \"#utility.yul\":577:578   */\n      0x00\n        /* \"#utility.yul\":566:575   */\n      dup4\n        /* \"#utility.yul\":562:579   */\n      add\n        /* \"#utility.yul\":553:559   */\n      dup5\n        /* \"#utility.yul\":509:580   */\n      tag_100\n      jump\t// in\n    tag_138:\n        /* \"#utility.yul\":365:587   */\n      swap3\n      swap2\n      pop\n      pop\n      jump\t// out\n        /* \"#utility.yul\":593:668   */\n    tag_101:\n        /* \"#utility.yul\":626:632   */\n      0x00\n        /* \"#utility.yul\":659:661   */\n      0x40\n        /* \"#utility.yul\":653:662   */\n      mload\n        /* \"#utility.yul\":643:662   */\n      swap1\n      pop\n        /* \"#utility.yul\":593:668   */\n      swap1\n      jump\t// out\n        /* \"#utility.yul\":674:791   */\n    tag_102:\n        /* \"#utility.yul\":783:784   */\n      0x00\n        /* \"#utility.yul\":780:781   */\n      dup1\n        /* \"#utility.yul\":773:785   */\n      revert\n        /* \"#utility.yul\":797:914   */\n    tag_103:\n        /* \"#utility.yul\":906:907   */\n      0x00\n        /* \"#utility.yul\":903:904   */\n      dup1\n        /* \"#utility.yul\":896:908   */\n      revert\n        /* \"#utility.yul\":920:997   */\n    tag_104:\n        /* \"#utility.yul\":957:964   */\n      0x00\n        /* \"#utility.yul\":986:991   */\n      dup2\n        /* \"#utility.yul\":975:991   */\n      swap1\n      pop\n        /* \"#utility.yul\":920:997   */\n      swap2\n      swap1\n      pop\n      jump\t// out\n        /* \"#utility.yul\":1003:1125   */\n    tag_105:\n        /* \"#utility.yul\":1076:1100   */\n      tag_144\n        /* \"#utility.yul\":1094:1099   */\n      dup2\n        /* \"#utility.yul\":1076:1100   */\n      tag_104\n      jump\t// in\n    tag_144:\n        /* \"#utility.yul\":1069:1074   */\n      dup2\n        /* \"#utility.yul\":1066:1101   */\n      eq\n        /* \"#utility.yul\":1056:1119   */\n      tag_145\n      jumpi\n        /* \"#utility.yul\":1115:1116   */\n      0x00\n        /* \"#utility.yul\":1112:1113   */\n      dup1\n        /* \"#utility.yul\":1105:1117   */\n      revert\n        /* \"#utility.yul\":1056:1119   */\n    tag_145:\n        /* \"#utility.yul\":1003:1125   */\n      pop\n      jump\t// out\n        /* \"#utility.yul\":1131:1270   */\n    tag_106:\n        /* \"#utility.yul\":1177:1182   */\n      0x00\n        /* \"#utility.yul\":1215:1221   */\n      dup2\n        /* \"#utility.yul\":1202:1222   */\n      calldataload\n        /* \"#utility.yul\":1193:1222   */\n      swap1\n      pop\n        /* \"#utility.yul\":1231:1264   */\n      tag_147\n        /* \"#utility.yul\":1258:1263   */\n      dup2\n        /* \"#utility.yul\":1231:1264   */\n      tag_105\n      jump\t// in\n    tag_147:\n        /* \"#utility.yul\":1131:1270   */\n      swap3\n      swap2\n      pop\n      pop\n      jump\t// out\n        /* \"#utility.yul\":1276:1605   */\n    tag_17:\n        /* \"#utility.yul\":1335:1341   */\n      0x00\n        /* \"#utility.yul\":1384:1386   */\n      0x20\n        /* \"#utility.yul\":1372:1381   */\n      dup3\n        /* \"#utility.yul\":1363:1370   */\n      dup5\n        /* \"#utility.yul\":1359:1382   */\n      sub\n        /* \"#utility.yul\":1355:1387   */\n      slt\n        /* \"#utility.yul\":1352:1471   */\n      iszero\n      tag_149\n      jumpi\n        /* \"#utility.yul\":1390:1469   */\n      tag_150\n      tag_102\n      jump\t// in\n    tag_150:\n        /* \"#utility.yul\":1352:1471   */\n    tag_149:\n        /* \"#utility.yul\":1510:1511   */\n      0x00\n        /* \"#utility.yul\":1535:1588   */\n      tag_151\n        /* \"#utility.yul\":1580:1587   */\n      dup5\n        /* \"#utility.yul\":1571:1577   */\n      dup3\n        /* \"#utility.yul\":1560:1569   */\n      dup6\n        /* \"#utility.yul\":1556:1578   */\n      add\n        /* \"#utility.yul\":1535:1588   */\n      tag_106\n      jump\t// in\n    tag_151:\n        /* \"#utility.yul\":1525:1588   */\n      swap2\n      pop\n        /* \"#utility.yul\":1481:1598   */\n      pop\n        /* \"#utility.yul\":1276:1605   */\n      swap3\n      swap2\n      pop\n      pop\n      jump\t// out\n        /* \"#utility.yul\":1611:1710   */\n    tag_107:\n        /* \"#utility.yul\":1663:1669   */\n      0x00\n        /* \"#utility.yul\":1697:1702   */\n      dup2\n        /* \"#utility.yul\":1691:1703   */\n      mload\n        /* \"#utility.yul\":1681:1703   */\n      swap1\n      pop\n        /* \"#utility.yul\":1611:1710   */\n      swap2\n      swap1\n      pop\n      jump\t// out\n        /* \"#utility.yul\":1716:1885   */\n    tag_108:\n        /* \"#utility.yul\":1800:1811   */\n      0x00\n        /* \"#utility.yul\":1834:1840   */\n      dup3\n        /* \"#utility.yul\":1829:1832   */\n      dup3\n        /* \"#utility.yul\":1822:1841   */\n      mstore\n        /* \"#utility.yul\":1874:1878   */\n      0x20\n        /* \"#utility.yul\":1869:1872   */\n      dup3\n        /* \"#utility.yul\":1865:1879   */\n      add\n        /* \"#utility.yul\":1850:1879   */\n      swap1\n      pop\n        /* \"#utility.yul\":1716:1885   */\n      swap3\n      swap2\n      pop\n      pop\n      jump\t// out\n        /* \"#utility.yul\":1891:2137   */\n    tag_109:\n        /* \"#utility.yul\":1972:1973   */\n      0x00\n        /* \"#utility.yul\":1982:2095   */\n    tag_155:\n        /* \"#utility.yul\":1996:2002   */\n      dup4\n        /* \"#utility.yul\":1993:1994   */\n      dup2\n        /* \"#utility.yul\":1990:2003   */\n      lt\n        /* \"#utility.yul\":1982:2095   */\n      iszero\n      tag_157\n      jumpi\n        /* \"#utility.yul\":2081:2082   */\n      dup1\n        /* \"#utility.yul\":2076:2079   */\n      dup3\n        /* \"#utility.yul\":2072:2083   */\n      add\n        /* \"#utility.yul\":2066:2084   */\n      mload\n        /* \"#utility.yul\":2062:2063   */\n      dup2\n        /* \"#utility.yul\":2057:2060   */\n      dup5\n        /* \"#utility.yul\":2053:2064   */\n      add\n        /* \"#utility.yul\":2046:2085   */\n      mstore\n        /* \"#utility.yul\":2018:2020   */\n      0x20\n        /* \"#utility.yul\":2015:2016   */\n      dup2\n        /* \"#utility.yul\":2011:2021   */\n      add\n        /* \"#utility.yul\":2006:2021   */\n      swap1\n      pop\n        /* \"#utility.yul\":1982:2095   */\n      jump(tag_155)\n    tag_157:\n        /* \"#utility.yul\":2129:2130   */\n      0x00\n        /* \"#utility.yul\":2120:2126   */\n      dup5\n        /* \"#utility.yul\":2115:2118   */\n      dup5\n        /* \"#utility.yul\":2111:2127   */\n      add\n        /* \"#utility.yul\":2104:2131   */\n      mstore\n        /* \"#utility.yul\":1953:2137   */\n      pop\n        /* \"#utility.yul\":1891:2137   */\n      pop\n      pop\n      pop\n      jump\t// out\n        /* \"#utility.yul\":2143:2245   */\n    tag_110:\n        /* \"#utility.yul\":2184:2190   */\n      0x00\n        /* \"#utility.yul\":2235:2237   */\n      0x1f\n        /* \"#utility.yul\":2231:2238   */\n      not\n        /* \"#utility.yul\":2226:2228   */\n      0x1f\n        /* \"#utility.yul\":2219:2224   */\n      dup4\n        /* \"#utility.yul\":2215:2229   */\n      add\n        /* \"#utility.yul\":2211:2239   */\n      and\n        /* \"#utility.yul\":2201:2239   */\n      swap1\n      pop\n        /* \"#utility.yul\":2143:2245   */\n      swap2\n      swap1\n      pop\n      jump\t// out\n        /* \"#utility.yul\":2251:2628   */\n    tag_111:\n        /* \"#utility.yul\":2339:2342   */\n      0x00\n        /* \"#utility.yul\":2367:2406   */\n      tag_160\n        /* \"#utility.yul\":2400:2405   */\n      dup3\n        /* \"#utility.yul\":2367:2406   */\n      tag_107\n      jump\t// in\n    tag_160:\n        /* \"#utility.yul\":2422:2493   */\n      tag_161\n        /* \"#utility.yul\":2486:2492   */\n      dup2\n        /* \"#utility.yul\":2481:2484   */\n      dup6\n        /* \"#utility.yul\":2422:2493   */\n      tag_108\n      jump\t// in\n    tag_161:\n        /* \"#utility.yul\":2415:2493   */\n      swap4\n      pop\n        /* \"#utility.yul\":2502:2567   */\n      tag_162\n        /* \"#utility.yul\":2560:2566   */\n      dup2\n        /* \"#utility.yul\":2555:2558   */\n      dup6\n        /* \"#utility.yul\":2548:2552   */\n      0x20\n        /* \"#utility.yul\":2541:2546   */\n      dup7\n        /* \"#utility.yul\":2537:2553   */\n      add\n        /* \"#utility.yul\":2502:2567   */\n      tag_109\n      jump\t// in\n    tag_162:\n        /* \"#utility.yul\":2592:2621   */\n      tag_163\n        /* \"#utility.yul\":2614:2620   */\n      dup2\n        /* \"#utility.yul\":2592:2621   */\n      tag_110\n      jump\t// in\n    tag_163:\n        /* \"#utility.yul\":2587:2590   */\n      dup5\n        /* \"#utility.yul\":2583:2622   */\n      add\n        /* \"#utility.yul\":2576:2622   */\n      swap2\n      pop\n        /* \"#utility.yul\":2343:2628   */\n      pop\n        /* \"#utility.yul\":2251:2628   */\n      swap3\n      swap2\n      pop\n      pop\n      jump\t// out\n        /* \"#utility.yul\":2634:2947   */\n    tag_20:\n        /* \"#utility.yul\":2747:2751   */\n      0x00\n        /* \"#utility.yul\":2785:2787   */\n      0x20\n        /* \"#utility.yul\":2774:2783   */\n      dup3\n        /* \"#utility.yul\":2770:2788   */\n      add\n        /* \"#utility.yul\":2762:2788   */\n      swap1\n      pop\n        /* \"#utility.yul\":2834:2843   */\n      dup2\n        /* \"#utility.yul\":2828:2832   */\n      dup2\n        /* \"#utility.yul\":2824:2844   */\n      sub\n        /* \"#utility.yul\":2820:2821   */\n      0x00\n        /* \"#utility.yul\":2809:2818   */\n      dup4\n        /* \"#utility.yul\":2805:2822   */\n      add\n        /* \"#utility.yul\":2798:2845   */\n      mstore\n        /* \"#utility.yul\":2862:2940   */\n      tag_165\n        /* \"#utility.yul\":2935:2939   */\n      dup2\n        /* \"#utility.yul\":2926:2932   */\n      dup5\n        /* \"#utility.yul\":2862:2940   */\n      tag_111\n      jump\t// in\n    tag_165:\n        /* \"#utility.yul\":2854:2940   */\n      swap1\n      pop\n        /* \"#utility.yul\":2634:2947   */\n      swap3\n      swap2\n      pop\n      pop\n      jump\t// out\n        /* \"#utility.yul\":2953:3427   */\n    tag_23:\n        /* \"#utility.yul\":3021:3027   */\n      0x00\n        /* \"#utility.yul\":3029:3035   */\n      dup1\n        /* \"#utility.yul\":3078:3080   */\n      0x40\n        /* \"#utility.yul\":3066:3075   */\n      dup4\n        /* \"#utility.yul\":3057:3064   */\n      dup6\n        /* \"#utility.yul\":3053:3076   */\n      sub\n        /* \"#utility.yul\":3049:3081   */\n      slt\n        /* \"#utility.yul\":3046:3165   */\n      iszero\n      tag_167\n      jumpi\n        /* \"#utility.yul\":3084:3163   */\n      tag_168\n      tag_102\n      jump\t// in\n    tag_168:\n        /* \"#utility.yul\":3046:3165   */\n    tag_167:\n        /* \"#utility.yul\":3204:3205   */\n      0x00\n        /* \"#utility.yul\":3229:3282   */\n      tag_169\n        /* \"#utility.yul\":3274:3281   */\n      dup6\n        /* \"#utility.yul\":3265:3271   */\n      dup3\n        /* \"#utility.yul\":3254:3263   */\n      dup7\n        /* \"#utility.yul\":3250:3272   */\n      add\n        /* \"#utility.yul\":3229:3282   */\n      tag_106\n      jump\t// in\n    tag_169:\n        /* \"#utility.yul\":3219:3282   */\n      swap3\n      pop\n        /* \"#utility.yul\":3175:3292   */\n      pop\n        /* \"#utility.yul\":3331:3333   */\n      0x20\n        /* \"#utility.yul\":3357:3410   */\n      tag_170\n        /* \"#utility.yul\":3402:3409   */\n      dup6\n        /* \"#utility.yul\":3393:3399   */\n      dup3\n        /* \"#utility.yul\":3382:3391   */\n      dup7\n        /* \"#utility.yul\":3378:3400   */\n      add\n        /* \"#utility.yul\":3357:3410   */\n      tag_106\n      jump\t// in\n    tag_170:\n        /* \"#utility.yul\":3347:3410   */\n      swap2\n      pop\n        /* \"#utility.yul\":3302:3420   */\n      pop\n        /* \"#utility.yul\":2953:3427   */\n      swap3\n      pop\n      swap3\n      swap1\n      pop\n      jump\t// out\n        /* \"#utility.yul\":3433:3550   */\n    tag_112:\n        /* \"#utility.yul\":3542:3543   */\n      0x00\n        /* \"#utility.yul\":3539:3540   */\n      dup1\n        /* \"#utility.yul\":3532:3544   */\n      revert\n        /* \"#utility.yul\":3556:3673   */\n    tag_113:\n        /* \"#utility.yul\":3665:3666   */\n      0x00\n        /* \"#utility.yul\":3662:3663   */\n      dup1\n        /* \"#utility.yul\":3655:3667   */\n      revert\n        /* \"#utility.yul\":3679:3859   */\n    tag_114:\n        /* \"#utility.yul\":3727:3804   */\n      0x4e487b7100000000000000000000000000000000000000000000000000000000\n        /* \"#utility.yul\":3724:3725   */\n      0x00\n        /* \"#utility.yul\":3717:3805   */\n      mstore\n        /* \"#utility.yul\":3824:3828   */\n      0x41\n        /* \"#utility.yul\":3821:3822   */\n      0x04\n        /* \"#utility.yul\":3814:3829   */\n      mstore\n        /* \"#utility.yul\":3848:3852   */\n      0x24\n        /* \"#utility.yul\":3845:3846   */\n      0x00\n        /* \"#utility.yul\":3838:3853   */\n      revert\n        /* \"#utility.yul\":3865:4146   */\n    tag_115:\n        /* \"#utility.yul\":3948:3975   */\n      tag_175\n        /* \"#utility.yul\":3970:3974   */\n      dup3\n        /* \"#utility.yul\":3948:3975   */\n      tag_110\n      jump\t// in\n    tag_175:\n        /* \"#utility.yul\":3940:3946   */\n      dup2\n        /* \"#utility.yul\":3936:3976   */\n      add\n        /* \"#utility.yul\":4078:4084   */\n      dup2\n        /* \"#utility.yul\":4066:4076   */\n      dup2\n        /* \"#utility.yul\":4063:4085   */\n      lt\n        /* \"#utility.yul\":4042:4060   */\n      0xffffffffffffffff\n        /* \"#utility.yul\":4030:4040   */\n      dup3\n        /* \"#utility.yul\":4027:4061   */\n      gt\n        /* \"#utility.yul\":4024:4086   */\n      or\n        /* \"#utility.yul\":4021:4109   */\n      iszero\n      tag_176\n      jumpi\n        /* \"#utility.yul\":4089:4107   */\n      tag_177\n      tag_114\n      jump\t// in\n    tag_177:\n        /* \"#utility.yul\":4021:4109   */\n    tag_176:\n        /* \"#utility.yul\":4129:4139   */\n      dup1\n        /* \"#utility.yul\":4125:4127   */\n      0x40\n        /* \"#utility.yul\":4118:4140   */\n      mstore\n        /* \"#utility.yul\":3908:4146   */\n      pop\n        /* \"#utility.yul\":3865:4146   */\n      pop\n      pop\n      jump\t// out\n        /* \"#utility.yul\":4152:4281   */\n    tag_116:\n        /* \"#utility.yul\":4186:4192   */\n      0x00\n        /* \"#utility.yul\":4213:4233   */\n      tag_179\n      tag_101\n      jump\t// in\n    tag_179:\n        /* \"#utility.yul\":4203:4233   */\n      swap1\n      pop\n        /* \"#utility.yul\":4242:4275   */\n      tag_180\n        /* \"#utility.yul\":4270:4274   */\n      dup3\n        /* \"#utility.yul\":4262:4268   */\n      dup3\n        /* \"#utility.yul\":4242:4275   */\n      tag_115\n      jump\t// in\n    tag_180:\n        /* \"#utility.yul\":4152:4281   */\n      swap2\n      swap1\n      pop\n      jump\t// out\n        /* \"#utility.yul\":4287:4595   */\n    tag_117:\n        /* \"#utility.yul\":4349:4353   */\n      0x00\n        /* \"#utility.yul\":4439:4457   */\n      0xffffffffffffffff\n        /* \"#utility.yul\":4431:4437   */\n      dup3\n        /* \"#utility.yul\":4428:4458   */\n      gt\n        /* \"#utility.yul\":4425:4481   */\n      iszero\n      tag_182\n      jumpi\n        /* \"#utility.yul\":4461:4479   */\n      tag_183\n      tag_114\n      jump\t// in\n    tag_183:\n        /* \"#utility.yul\":4425:4481   */\n    tag_182:\n        /* \"#utility.yul\":4499:4528   */\n      tag_184\n        /* \"#utility.yul\":4521:4527   */\n      dup3\n        /* \"#utility.yul\":4499:4528   */\n      tag_110\n      jump\t// in\n    tag_184:\n        /* \"#utility.yul\":4491:4528   */\n      swap1\n      pop\n        /* \"#utility.yul\":4583:4587   */\n      0x20\n        /* \"#utility.yul\":4577:4581   */\n      dup2\n        /* \"#utility.yul\":4573:4588   */\n      add\n        /* \"#utility.yul\":4565:4588   */\n      swap1\n      pop\n        /* \"#utility.yul\":4287:4595   */\n      swap2\n      swap1\n      pop\n      jump\t// out\n        /* \"#utility.yul\":4601:4747   */\n    tag_118:\n        /* \"#utility.yul\":4698:4704   */\n      dup3\n        /* \"#utility.yul\":4693:4696   */\n      dup2\n        /* \"#utility.yul\":4688:4691   */\n      dup4\n        /* \"#utility.yul\":4675:4705   */\n      calldatacopy\n        /* \"#utility.yul\":4739:4740   */\n      0x00\n        /* \"#utility.yul\":4730:4736   */\n      dup4\n        /* \"#utility.yul\":4725:4728   */\n      dup4\n        /* \"#utility.yul\":4721:4737   */\n      add\n        /* \"#utility.yul\":4714:4741   */\n      mstore\n        /* \"#utility.yul\":4601:4747   */\n      pop\n      pop\n      pop\n      jump\t// out\n        /* \"#utility.yul\":4753:5178   */\n    tag_119:\n        /* \"#utility.yul\":4831:4836   */\n      0x00\n        /* \"#utility.yul\":4856:4922   */\n      tag_187\n        /* \"#utility.yul\":4872:4921   */\n      tag_188\n        /* \"#utility.yul\":4914:4920   */\n      dup5\n        /* \"#utility.yul\":4872:4921   */\n      tag_117\n      jump\t// in\n    tag_188:\n        /* \"#utility.yul\":4856:4922   */\n      tag_116\n      jump\t// in\n    tag_187:\n        /* \"#utility.yul\":4847:4922   */\n      swap1\n      pop\n        /* \"#utility.yul\":4945:4951   */\n      dup3\n        /* \"#utility.yul\":4938:4943   */\n      dup2\n        /* \"#utility.yul\":4931:4952   */\n      mstore\n        /* \"#utility.yul\":4983:4987   */\n      0x20\n        /* \"#utility.yul\":4976:4981   */\n      dup2\n        /* \"#utility.yul\":4972:4988   */\n      add\n        /* \"#utility.yul\":5021:5024   */\n      dup5\n        /* \"#utility.yul\":5012:5018   */\n      dup5\n        /* \"#utility.yul\":5007:5010   */\n      dup5\n        /* \"#utility.yul\":5003:5019   */\n      add\n        /* \"#utility.yul\":5000:5025   */\n      gt\n        /* \"#utility.yul\":4997:5109   */\n      iszero\n      tag_189\n      jumpi\n        /* \"#utility.yul\":5028:5107   */\n      tag_190\n      tag_113\n      jump\t// in\n    tag_190:\n        /* \"#utility.yul\":4997:5109   */\n    tag_189:\n        /* \"#utility.yul\":5118:5172   */\n      tag_191\n        /* \"#utility.yul\":5165:5171   */\n      dup5\n        /* \"#utility.yul\":5160:5163   */\n      dup3\n        /* \"#utility.yul\":5155:5158   */\n      dup6\n        /* \"#utility.yul\":5118:5172   */\n      tag_118\n      jump\t// in\n    tag_191:\n        /* \"#utility.yul\":4837:5178   */\n      pop\n        /* \"#utility.yul\":4753:5178   */\n      swap4\n      swap3\n      pop\n      pop\n      pop\n      jump\t// out\n        /* \"#utility.yul\":5198:5538   */\n    tag_120:\n        /* \"#utility.yul\":5254:5259   */\n      0x00\n        /* \"#utility.yul\":5303:5306   */\n      dup3\n        /* \"#utility.yul\":5296:5300   */\n      0x1f\n        /* \"#utility.yul\":5288:5294   */\n      dup4\n        /* \"#utility.yul\":5284:5301   */\n      add\n        /* \"#utility.yul\":5280:5307   */\n      slt\n        /* \"#utility.yul\":5270:5392   */\n      tag_193\n      jumpi\n        /* \"#utility.yul\":5311:5390   */\n      tag_194\n      tag_112\n      jump\t// in\n    tag_194:\n        /* \"#utility.yul\":5270:5392   */\n    tag_193:\n        /* \"#utility.yul\":5428:5434   */\n      dup2\n        /* \"#utility.yul\":5415:5435   */\n      calldataload\n        /* \"#utility.yul\":5453:5532   */\n      tag_195\n        /* \"#utility.yul\":5528:5531   */\n      dup5\n        /* \"#utility.yul\":5520:5526   */\n      dup3\n        /* \"#utility.yul\":5513:5517   */\n      0x20\n        /* \"#utility.yul\":5505:5511   */\n      dup7\n        /* \"#utility.yul\":5501:5518   */\n      add\n        /* \"#utility.yul\":5453:5532   */\n      tag_119\n      jump\t// in\n    tag_195:\n        /* \"#utility.yul\":5444:5532   */\n      swap2\n      pop\n        /* \"#utility.yul\":5260:5538   */\n      pop\n        /* \"#utility.yul\":5198:5538   */\n      swap3\n      swap2\n      pop\n      pop\n      jump\t// out\n        /* \"#utility.yul\":5544:6053   */\n    tag_27:\n        /* \"#utility.yul\":5613:5619   */\n      0x00\n        /* \"#utility.yul\":5662:5664   */\n      0x20\n        /* \"#utility.yul\":5650:5659   */\n      dup3\n        /* \"#utility.yul\":5641:5648   */\n      dup5\n        /* \"#utility.yul\":5637:5660   */\n      sub\n        /* \"#utility.yul\":5633:5665   */\n      slt\n        /* \"#utility.yul\":5630:5749   */\n      iszero\n      tag_197\n      jumpi\n        /* \"#utility.yul\":5668:5747   */\n      tag_198\n      tag_102\n      jump\t// in\n    tag_198:\n        /* \"#utility.yul\":5630:5749   */\n    tag_197:\n        /* \"#utility.yul\":5816:5817   */\n      0x00\n        /* \"#utility.yul\":5805:5814   */\n      dup3\n        /* \"#utility.yul\":5801:5818   */\n      add\n        /* \"#utility.yul\":5788:5819   */\n      calldataload\n        /* \"#utility.yul\":5846:5864   */\n      0xffffffffffffffff\n        /* \"#utility.yul\":5838:5844   */\n      dup2\n        /* \"#utility.yul\":5835:5865   */\n      gt\n        /* \"#utility.yul\":5832:5949   */\n      iszero\n      tag_199\n      jumpi\n        /* \"#utility.yul\":5868:5947   */\n      tag_200\n      tag_103\n      jump\t// in\n    tag_200:\n        /* \"#utility.yul\":5832:5949   */\n    tag_199:\n        /* \"#utility.yul\":5973:6036   */\n      tag_201\n        /* \"#utility.yul\":6028:6035   */\n      dup5\n        /* \"#utility.yul\":6019:6025   */\n      dup3\n        /* \"#utility.yul\":6008:6017   */\n      dup6\n        /* \"#utility.yul\":6004:6026   */\n      add\n        /* \"#utility.yul\":5973:6036   */\n      tag_120\n      jump\t// in\n    tag_201:\n        /* \"#utility.yul\":5963:6036   */\n      swap2\n      pop\n        /* \"#utility.yul\":5759:6046   */\n      pop\n        /* \"#utility.yul\":5544:6053   */\n      swap3\n      swap2\n      pop\n      pop\n      jump\t// out\n        /* \"#utility.yul\":6059:6177   */\n    tag_121:\n        /* \"#utility.yul\":6146:6170   */\n      tag_203\n        /* \"#utility.yul\":6164:6169   */\n      dup2\n        /* \"#utility.yul\":6146:6170   */\n      tag_104\n      jump\t// in\n    tag_203:\n        /* \"#utility.yul\":6141:6144   */\n      dup3\n        /* \"#utility.yul\":6134:6171   */\n      mstore\n        /* \"#utility.yul\":6059:6177   */\n      pop\n      pop\n      jump\t// out\n        /* \"#utility.yul\":6183:6405   */\n    tag_42:\n        /* \"#utility.yul\":6276:6280   */\n      0x00\n        /* \"#utility.yul\":6314:6316   */\n      0x20\n        /* \"#utility.yul\":6303:6312   */\n      dup3\n        /* \"#utility.yul\":6299:6317   */\n      add\n        /* \"#utility.yul\":6291:6317   */\n      swap1\n      pop\n        /* \"#utility.yul\":6327:6398   */\n      tag_205\n        /* \"#utility.yul\":6395:6396   */\n      0x00\n        /* \"#utility.yul\":6384:6393   */\n      dup4\n        /* \"#utility.yul\":6380:6397   */\n      add\n        /* \"#utility.yul\":6371:6377   */\n      dup5\n        /* \"#utility.yul\":6327:6398   */\n      tag_121\n      jump\t// in\n    tag_205:\n        /* \"#utility.yul\":6183:6405   */\n      swap3\n      swap2\n      pop\n      pop\n      jump\t// out\n        /* \"#utility.yul\":6411:6845   */\n    tag_122:\n        /* \"#utility.yul\":6500:6505   */\n      0x00\n        /* \"#utility.yul\":6525:6591   */\n      tag_207\n        /* \"#utility.yul\":6541:6590   */\n      tag_208\n        /* \"#utility.yul\":6583:6589   */\n      dup5\n        /* \"#utility.yul\":6541:6590   */\n      tag_117\n      jump\t// in\n    tag_208:\n        /* \"#utility.yul\":6525:6591   */\n      tag_116\n      jump\t// in\n    tag_207:\n        /* \"#utility.yul\":6516:6591   */\n      swap1\n      pop\n        /* \"#utility.yul\":6614:6620   */\n      dup3\n        /* \"#utility.yul\":6607:6612   */\n      dup2\n        /* \"#utility.yul\":6600:6621   */\n      mstore\n        /* \"#utility.yul\":6652:6656   */\n      0x20\n        /* \"#utility.yul\":6645:6650   */\n      dup2\n        /* \"#utility.yul\":6641:6657   */\n      add\n        /* \"#utility.yul\":6690:6693   */\n      dup5\n        /* \"#utility.yul\":6681:6687   */\n      dup5\n        /* \"#utility.yul\":6676:6679   */\n      dup5\n        /* \"#utility.yul\":6672:6688   */\n      add\n        /* \"#utility.yul\":6669:6694   */\n      gt\n        /* \"#utility.yul\":6666:6778   */\n      iszero\n      tag_209\n      jumpi\n        /* \"#utility.yul\":6697:6776   */\n      tag_210\n      tag_113\n      jump\t// in\n    tag_210:\n        /* \"#utility.yul\":6666:6778   */\n    tag_209:\n        /* \"#utility.yul\":6787:6839   */\n      tag_211\n        /* \"#utility.yul\":6832:6838   */\n      dup5\n        /* \"#utility.yul\":6827:6830   */\n      dup3\n        /* \"#utility.yul\":6822:6825   */\n      dup6\n        /* \"#utility.yul\":6787:6839   */\n      tag_109\n      jump\t// in\n    tag_211:\n        /* \"#utility.yul\":6506:6845   */\n      pop\n        /* \"#utility.yul\":6411:6845   */\n      swap4\n      swap3\n      pop\n      pop\n      pop\n      jump\t// out\n        /* \"#utility.yul\":6865:7220   */\n    tag_123:\n        /* \"#utility.yul\":6932:6937   */\n      0x00\n        /* \"#utility.yul\":6981:6984   */\n      dup3\n        /* \"#utility.yul\":6974:6978   */\n      0x1f\n        /* \"#utility.yul\":6966:6972   */\n      dup4\n        /* \"#utility.yul\":6962:6979   */\n      add\n        /* \"#utility.yul\":6958:6985   */\n      slt\n        /* \"#utility.yul\":6948:7070   */\n      tag_213\n      jumpi\n        /* \"#utility.yul\":6989:7068   */\n      tag_214\n      tag_112\n      jump\t// in\n    tag_214:\n        /* \"#utility.yul\":6948:7070   */\n    tag_213:\n        /* \"#utility.yul\":7099:7105   */\n      dup2\n        /* \"#utility.yul\":7093:7106   */\n      mload\n        /* \"#utility.yul\":7124:7214   */\n      tag_215\n        /* \"#utility.yul\":7210:7213   */\n      dup5\n        /* \"#utility.yul\":7202:7208   */\n      dup3\n        /* \"#utility.yul\":7195:7199   */\n      0x20\n        /* \"#utility.yul\":7187:7193   */\n      dup7\n        /* \"#utility.yul\":7183:7200   */\n      add\n        /* \"#utility.yul\":7124:7214   */\n      tag_122\n      jump\t// in\n    tag_215:\n        /* \"#utility.yul\":7115:7214   */\n      swap2\n      pop\n        /* \"#utility.yul\":6938:7220   */\n      pop\n        /* \"#utility.yul\":6865:7220   */\n      swap3\n      swap2\n      pop\n      pop\n      jump\t// out\n        /* \"#utility.yul\":7226:7750   */\n    tag_46:\n        /* \"#utility.yul\":7306:7312   */\n      0x00\n        /* \"#utility.yul\":7355:7357   */\n      0x20\n        /* \"#utility.yul\":7343:7352   */\n      dup3\n        /* \"#utility.yul\":7334:7341   */\n      dup5\n        /* \"#utility.yul\":7330:7353   */\n      sub\n        /* \"#utility.yul\":7326:7358   */\n      slt\n        /* \"#utility.yul\":7323:7442   */\n      iszero\n      tag_217\n      jumpi\n        /* \"#utility.yul\":7361:7440   */\n      tag_218\n      tag_102\n      jump\t// in\n    tag_218:\n        /* \"#utility.yul\":7323:7442   */\n    tag_217:\n        /* \"#utility.yul\":7502:7503   */\n      0x00\n        /* \"#utility.yul\":7491:7500   */\n      dup3\n        /* \"#utility.yul\":7487:7504   */\n      add\n        /* \"#utility.yul\":7481:7505   */\n      mload\n        /* \"#utility.yul\":7532:7550   */\n      0xffffffffffffffff\n        /* \"#utility.yul\":7524:7530   */\n      dup2\n        /* \"#utility.yul\":7521:7551   */\n      gt\n        /* \"#utility.yul\":7518:7635   */\n      iszero\n      tag_219\n      jumpi\n        /* \"#utility.yul\":7554:7633   */\n      tag_220\n      tag_103\n      jump\t// in\n    tag_220:\n        /* \"#utility.yul\":7518:7635   */\n    tag_219:\n        /* \"#utility.yul\":7659:7733   */\n      tag_221\n        /* \"#utility.yul\":7725:7732   */\n      dup5\n        /* \"#utility.yul\":7716:7722   */\n      dup3\n        /* \"#utility.yul\":7705:7714   */\n      dup6\n        /* \"#utility.yul\":7701:7723   */\n      add\n        /* \"#utility.yul\":7659:7733   */\n      tag_123\n      jump\t// in\n    tag_221:\n        /* \"#utility.yul\":7649:7733   */\n      swap2\n      pop\n        /* \"#utility.yul\":7452:7743   */\n      pop\n        /* \"#utility.yul\":7226:7750   */\n      swap3\n      swap2\n      pop\n      pop\n      jump\t// out\n        /* \"#utility.yul\":7756:7878   */\n    tag_124:\n        /* \"#utility.yul\":7829:7853   */\n      tag_223\n        /* \"#utility.yul\":7847:7852   */\n      dup2\n        /* \"#utility.yul\":7829:7853   */\n      tag_99\n      jump\t// in\n    tag_223:\n        /* \"#utility.yul\":7822:7827   */\n      dup2\n        /* \"#utility.yul\":7819:7854   */\n      eq\n        /* \"#utility.yul\":7809:7872   */\n      tag_224\n      jumpi\n        /* \"#utility.yul\":7868:7869   */\n      0x00\n        /* \"#utility.yul\":7865:7866   */\n      dup1\n        /* \"#utility.yul\":7858:7870   */\n      revert\n        /* \"#utility.yul\":7809:7872   */\n    tag_224:\n        /* \"#utility.yul\":7756:7878   */\n      pop\n      jump\t// out\n        /* \"#utility.yul\":7884:8027   */\n    tag_125:\n        /* \"#utility.yul\":7941:7946   */\n      0x00\n        /* \"#utility.yul\":7972:7978   */\n      dup2\n        /* \"#utility.yul\":7966:7979   */\n      mload\n        /* \"#utility.yul\":7957:7979   */\n      swap1\n      pop\n        /* \"#utility.yul\":7988:8021   */\n      tag_226\n        /* \"#utility.yul\":8015:8020   */\n      dup2\n        /* \"#utility.yul\":7988:8021   */\n      tag_124\n      jump\t// in\n    tag_226:\n        /* \"#utility.yul\":7884:8027   */\n      swap3\n      swap2\n      pop\n      pop\n      jump\t// out\n        /* \"#utility.yul\":8033:8384   */\n    tag_52:\n        /* \"#utility.yul\":8103:8109   */\n      0x00\n        /* \"#utility.yul\":8152:8154   */\n      0x20\n        /* \"#utility.yul\":8140:8149   */\n      dup3\n        /* \"#utility.yul\":8131:8138   */\n      dup5\n        /* \"#utility.yul\":8127:8150   */\n      sub\n        /* \"#utility.yul\":8123:8155   */\n      slt\n        /* \"#utility.yul\":8120:8239   */\n      iszero\n      tag_228\n      jumpi\n        /* \"#utility.yul\":8158:8237   */\n      tag_229\n      tag_102\n      jump\t// in\n    tag_229:\n        /* \"#utility.yul\":8120:8239   */\n    tag_228:\n        /* \"#utility.yul\":8278:8279   */\n      0x00\n        /* \"#utility.yul\":8303:8367   */\n      tag_230\n        /* \"#utility.yul\":8359:8366   */\n      dup5\n        /* \"#utility.yul\":8350:8356   */\n      dup3\n        /* \"#utility.yul\":8339:8348   */\n      dup6\n        /* \"#utility.yul\":8335:8357   */\n      add\n        /* \"#utility.yul\":8303:8367   */\n      tag_125\n      jump\t// in\n    tag_230:\n        /* \"#utility.yul\":8293:8367   */\n      swap2\n      pop\n        /* \"#utility.yul\":8249:8377   */\n      pop\n        /* \"#utility.yul\":8033:8384   */\n      swap3\n      swap2\n      pop\n      pop\n      jump\t// out\n        /* \"#utility.yul\":8390:8533   */\n    tag_126:\n        /* \"#utility.yul\":8447:8452   */\n      0x00\n        /* \"#utility.yul\":8478:8484   */\n      dup2\n        /* \"#utility.yul\":8472:8485   */\n      mload\n        /* \"#utility.yul\":8463:8485   */\n      swap1\n      pop\n        /* \"#utility.yul\":8494:8527   */\n      tag_232\n        /* \"#utility.yul\":8521:8526   */\n      dup2\n        /* \"#utility.yul\":8494:8527   */\n      tag_105\n      jump\t// in\n    tag_232:\n        /* \"#utility.yul\":8390:8533   */\n      swap3\n      swap2\n      pop\n      pop\n      jump\t// out\n        /* \"#utility.yul\":8539:8890   */\n    tag_56:\n        /* \"#utility.yul\":8609:8615   */\n      0x00\n        /* \"#utility.yul\":8658:8660   */\n      0x20\n        /* \"#utility.yul\":8646:8655   */\n      dup3\n        /* \"#utility.yul\":8637:8644   */\n      dup5\n        /* \"#utility.yul\":8633:8656   */\n      sub\n        /* \"#utility.yul\":8629:8661   */\n      slt\n        /* \"#utility.yul\":8626:8745   */\n      iszero\n      tag_234\n      jumpi\n        /* \"#utility.yul\":8664:8743   */\n      tag_235\n      tag_102\n      jump\t// in\n    tag_235:\n        /* \"#utility.yul\":8626:8745   */\n    tag_234:\n        /* \"#utility.yul\":8784:8785   */\n      0x00\n        /* \"#utility.yul\":8809:8873   */\n      tag_236\n        /* \"#utility.yul\":8865:8872   */\n      dup5\n        /* \"#utility.yul\":8856:8862   */\n      dup3\n        /* \"#utility.yul\":8845:8854   */\n      dup6\n        /* \"#utility.yul\":8841:8863   */\n      add\n        /* \"#utility.yul\":8809:8873   */\n      tag_126\n      jump\t// in\n    tag_236:\n        /* \"#utility.yul\":8799:8873   */\n      swap2\n      pop\n        /* \"#utility.yul\":8755:8883   */\n      pop\n        /* \"#utility.yul\":8539:8890   */\n      swap3\n      swap2\n      pop\n      pop\n      jump\t// out\n        /* \"#utility.yul\":8896:9076   */\n    tag_127:\n        /* \"#utility.yul\":8944:9021   */\n      0x4e487b7100000000000000000000000000000000000000000000000000000000\n        /* \"#utility.yul\":8941:8942   */\n      0x00\n        /* \"#utility.yul\":8934:9022   */\n      mstore\n        /* \"#utility.yul\":9041:9045   */\n      0x11\n        /* \"#utility.yul\":9038:9039   */\n      0x04\n        /* \"#utility.yul\":9031:9046   */\n      mstore\n        /* \"#utility.yul\":9065:9069   */\n      0x24\n        /* \"#utility.yul\":9062:9063   */\n      0x00\n        /* \"#utility.yul\":9055:9070   */\n      revert\n        /* \"#utility.yul\":9082:9184   */\n    tag_128:\n        /* \"#utility.yul\":9124:9132   */\n      0x00\n        /* \"#utility.yul\":9171:9176   */\n      dup2\n        /* \"#utility.yul\":9168:9169   */\n      0x01\n        /* \"#utility.yul\":9164:9177   */\n      shr\n        /* \"#utility.yul\":9143:9177   */\n      swap1\n      pop\n        /* \"#utility.yul\":9082:9184   */\n      swap2\n      swap1\n      pop\n      jump\t// out\n        /* \"#utility.yul\":9190:10038   */\n    tag_129:\n        /* \"#utility.yul\":9251:9256   */\n      0x00\n        /* \"#utility.yul\":9258:9262   */\n      dup1\n        /* \"#utility.yul\":9282:9288   */\n      dup3\n        /* \"#utility.yul\":9273:9288   */\n      swap2\n      pop\n        /* \"#utility.yul\":9306:9311   */\n      dup4\n        /* \"#utility.yul\":9297:9311   */\n      swap1\n      pop\n        /* \"#utility.yul\":9320:10032   */\n    tag_240:\n        /* \"#utility.yul\":9341:9342   */\n      0x01\n        /* \"#utility.yul\":9331:9339   */\n      dup6\n        /* \"#utility.yul\":9328:9343   */\n      gt\n        /* \"#utility.yul\":9320:10032   */\n      iszero\n      tag_242\n      jumpi\n        /* \"#utility.yul\":9436:9440   */\n      dup1\n        /* \"#utility.yul\":9431:9434   */\n      dup7\n        /* \"#utility.yul\":9427:9441   */\n      div\n        /* \"#utility.yul\":9421:9425   */\n      dup2\n        /* \"#utility.yul\":9418:9442   */\n      gt\n        /* \"#utility.yul\":9415:9465   */\n      iszero\n      tag_243\n      jumpi\n        /* \"#utility.yul\":9445:9463   */\n      tag_244\n      tag_127\n      jump\t// in\n    tag_244:\n        /* \"#utility.yul\":9415:9465   */\n    tag_243:\n        /* \"#utility.yul\":9495:9496   */\n      0x01\n        /* \"#utility.yul\":9485:9493   */\n      dup6\n        /* \"#utility.yul\":9481:9497   */\n      and\n        /* \"#utility.yul\":9478:9929   */\n      iszero\n      tag_245\n      jumpi\n        /* \"#utility.yul\":9910:9914   */\n      dup1\n        /* \"#utility.yul\":9903:9908   */\n      dup3\n        /* \"#utility.yul\":9899:9915   */\n      mul\n        /* \"#utility.yul\":9890:9915   */\n      swap2\n      pop\n        /* \"#utility.yul\":9478:9929   */\n    tag_245:\n        /* \"#utility.yul\":9960:9964   */\n      dup1\n        /* \"#utility.yul\":9954:9958   */\n      dup2\n        /* \"#utility.yul\":9950:9965   */\n      mul\n        /* \"#utility.yul\":9942:9965   */\n      swap1\n      pop\n        /* \"#utility.yul\":9990:10022   */\n      tag_246\n        /* \"#utility.yul\":10013:10021   */\n      dup6\n        /* \"#utility.yul\":9990:10022   */\n      tag_128\n      jump\t// in\n    tag_246:\n        /* \"#utility.yul\":9978:10022   */\n      swap5\n      pop\n        /* \"#utility.yul\":9320:10032   */\n      jump(tag_240)\n    tag_242:\n        /* \"#utility.yul\":9190:10038   */\n      swap5\n      pop\n      swap5\n      swap3\n      pop\n      pop\n      pop\n      jump\t// out\n        /* \"#utility.yul\":10044:11117   */\n    tag_130:\n        /* \"#utility.yul\":10098:10103   */\n      0x00\n        /* \"#utility.yul\":10289:10297   */\n      dup3\n        /* \"#utility.yul\":10279:10319   */\n      tag_248\n      jumpi\n        /* \"#utility.yul\":10310:10311   */\n      0x01\n        /* \"#utility.yul\":10301:10311   */\n      swap1\n      pop\n        /* \"#utility.yul\":10312:10317   */\n      jump(tag_247)\n        /* \"#utility.yul\":10279:10319   */\n    tag_248:\n        /* \"#utility.yul\":10338:10342   */\n      dup2\n        /* \"#utility.yul\":10328:10364   */\n      tag_249\n      jumpi\n        /* \"#utility.yul\":10355:10356   */\n      0x00\n        /* \"#utility.yul\":10346:10356   */\n      swap1\n      pop\n        /* \"#utility.yul\":10357:10362   */\n      jump(tag_247)\n        /* \"#utility.yul\":10328:10364   */\n    tag_249:\n        /* \"#utility.yul\":10424:10428   */\n      dup2\n        /* \"#utility.yul\":10472:10473   */\n      0x01\n        /* \"#utility.yul\":10467:10494   */\n      dup2\n      eq\n      tag_251\n      jumpi\n        /* \"#utility.yul\":10508:10509   */\n      0x02\n        /* \"#utility.yul\":10503:10694   */\n      dup2\n      eq\n      tag_252\n      jumpi\n        /* \"#utility.yul\":10417:10694   */\n      jump(tag_250)\n        /* \"#utility.yul\":10467:10494   */\n    tag_251:\n        /* \"#utility.yul\":10485:10486   */\n      0x01\n        /* \"#utility.yul\":10476:10486   */\n      swap2\n      pop\n        /* \"#utility.yul\":10487:10492   */\n      pop\n      jump(tag_247)\n        /* \"#utility.yul\":10503:10694   */\n    tag_252:\n        /* \"#utility.yul\":10548:10551   */\n      0xff\n        /* \"#utility.yul\":10538:10546   */\n      dup5\n        /* \"#utility.yul\":10535:10552   */\n      gt\n        /* \"#utility.yul\":10532:10575   */\n      iszero\n      tag_253\n      jumpi\n        /* \"#utility.yul\":10555:10573   */\n      tag_254\n      tag_127\n      jump\t// in\n    tag_254:\n        /* \"#utility.yul\":10532:10575   */\n    tag_253:\n        /* \"#utility.yul\":10604:10612   */\n      dup4\n        /* \"#utility.yul\":10601:10602   */\n      0x02\n        /* \"#utility.yul\":10597:10613   */\n      exp\n        /* \"#utility.yul\":10588:10613   */\n      swap2\n      pop\n        /* \"#utility.yul\":10639:10642   */\n      dup5\n        /* \"#utility.yul\":10632:10637   */\n      dup3\n        /* \"#utility.yul\":10629:10643   */\n      gt\n        /* \"#utility.yul\":10626:10666   */\n      iszero\n      tag_255\n      jumpi\n        /* \"#utility.yul\":10646:10664   */\n      tag_256\n      tag_127\n      jump\t// in\n    tag_256:\n        /* \"#utility.yul\":10626:10666   */\n    tag_255:\n        /* \"#utility.yul\":10679:10684   */\n      pop\n      jump(tag_247)\n        /* \"#utility.yul\":10417:10694   */\n    tag_250:\n      pop\n        /* \"#utility.yul\":10803:10805   */\n      0x20\n        /* \"#utility.yul\":10793:10801   */\n      dup4\n        /* \"#utility.yul\":10790:10806   */\n      lt\n        /* \"#utility.yul\":10784:10787   */\n      0x0133\n        /* \"#utility.yul\":10778:10782   */\n      dup4\n        /* \"#utility.yul\":10775:10788   */\n      lt\n        /* \"#utility.yul\":10771:10807   */\n      and\n        /* \"#utility.yul\":10753:10755   */\n      0x4e\n        /* \"#utility.yul\":10743:10751   */\n      dup5\n        /* \"#utility.yul\":10740:10756   */\n      lt\n        /* \"#utility.yul\":10735:10737   */\n      0x0b\n        /* \"#utility.yul\":10729:10733   */\n      dup5\n        /* \"#utility.yul\":10726:10738   */\n      lt\n        /* \"#utility.yul\":10722:10757   */\n      and\n        /* \"#utility.yul\":10706:10817   */\n      or\n        /* \"#utility.yul\":10703:10949   */\n      iszero\n      tag_257\n      jumpi\n        /* \"#utility.yul\":10859:10867   */\n      dup3\n        /* \"#utility.yul\":10853:10857   */\n      dup3\n        /* \"#utility.yul\":10849:10868   */\n      exp\n        /* \"#utility.yul\":10840:10868   */\n      swap1\n      pop\n        /* \"#utility.yul\":10894:10897   */\n      dup4\n        /* \"#utility.yul\":10887:10892   */\n      dup2\n        /* \"#utility.yul\":10884:10898   */\n      gt\n        /* \"#utility.yul\":10881:10921   */\n      iszero\n      tag_258\n      jumpi\n        /* \"#utility.yul\":10901:10919   */\n      tag_259\n      tag_127\n      jump\t// in\n    tag_259:\n        /* \"#utility.yul\":10881:10921   */\n    tag_258:\n        /* \"#utility.yul\":10934:10939   */\n      jump(tag_247)\n        /* \"#utility.yul\":10703:10949   */\n    tag_257:\n        /* \"#utility.yul\":10974:11016   */\n      tag_260\n        /* \"#utility.yul\":11012:11015   */\n      dup5\n        /* \"#utility.yul\":11002:11010   */\n      dup5\n        /* \"#utility.yul\":10996:11000   */\n      dup5\n        /* \"#utility.yul\":10993:10994   */\n      0x01\n        /* \"#utility.yul\":10974:11016   */\n      tag_129\n      jump\t// in\n    tag_260:\n        /* \"#utility.yul\":10959:11016   */\n      swap3\n      pop\n      swap1\n      pop\n        /* \"#utility.yul\":11048:11052   */\n      dup2\n        /* \"#utility.yul\":11043:11046   */\n      dup5\n        /* \"#utility.yul\":11039:11053   */\n      div\n        /* \"#utility.yul\":11032:11037   */\n      dup2\n        /* \"#utility.yul\":11029:11054   */\n      gt\n        /* \"#utility.yul\":11026:11077   */\n      iszero\n      tag_261\n      jumpi\n        /* \"#utility.yul\":11057:11075   */\n      tag_262\n      tag_127\n      jump\t// in\n    tag_262:\n        /* \"#utility.yul\":11026:11077   */\n    tag_261:\n        /* \"#utility.yul\":11106:11110   */\n      dup2\n        /* \"#utility.yul\":11099:11104   */\n      dup2\n        /* \"#utility.yul\":11095:11111   */\n      mul\n        /* \"#utility.yul\":11086:11111   */\n      swap1\n      pop\n        /* \"#utility.yul\":10044:11117   */\n    tag_247:\n      swap4\n      swap3\n      pop\n      pop\n      pop\n      jump\t// out\n        /* \"#utility.yul\":11123:11408   */\n    tag_58:\n        /* \"#utility.yul\":11183:11188   */\n      0x00\n        /* \"#utility.yul\":11207:11230   */\n      tag_264\n        /* \"#utility.yul\":11225:11229   */\n      dup3\n        /* \"#utility.yul\":11207:11230   */\n      tag_104\n      jump\t// in\n    tag_264:\n        /* \"#utility.yul\":11199:11230   */\n      swap2\n      pop\n        /* \"#utility.yul\":11251:11278   */\n      tag_265\n        /* \"#utility.yul\":11269:11277   */\n      dup4\n        /* \"#utility.yul\":11251:11278   */\n      tag_104\n      jump\t// in\n    tag_265:\n        /* \"#utility.yul\":11239:11278   */\n      swap3\n      pop\n        /* \"#utility.yul\":11297:11401   */\n      tag_266\n        /* \"#utility.yul\":11334:11400   */\n      0xffffffffffffffffffffffffffffffffffffffffffffffffffffffffffffffff\n        /* \"#utility.yul\":11324:11332   */\n      dup5\n        /* \"#utility.yul\":11318:11322   */\n      dup5\n        /* \"#utility.yul\":11297:11401   */\n      tag_130\n      jump\t// in\n    tag_266:\n        /* \"#utility.yul\":11288:11401   */\n      swap1\n      pop\n        /* \"#utility.yul\":11123:11408   */\n      swap3\n      swap2\n      pop\n      pop\n      jump\t// out\n        /* \"#utility.yul\":11414:11824   */\n    tag_60:\n        /* \"#utility.yul\":11454:11461   */\n      0x00\n        /* \"#utility.yul\":11477:11497   */\n      tag_268\n        /* \"#utility.yul\":11495:11496   */\n      dup3\n        /* \"#utility.yul\":11477:11497   */\n      tag_104\n      jump\t// in\n    tag_268:\n        /* \"#utility.yul\":11472:11497   */\n      swap2\n      pop\n        /* \"#utility.yul\":11511:11531   */\n      tag_269\n        /* \"#utility.yul\":11529:11530   */\n      dup4\n        /* \"#utility.yul\":11511:11531   */\n      tag_104\n      jump\t// in\n    tag_269:\n        /* \"#utility.yul\":11506:11531   */\n      swap3\n      pop\n        /* \"#utility.yul\":11566:11567   */\n      dup3\n        /* \"#utility.yul\":11563:11564   */\n      dup3\n        /* \"#utility.yul\":11559:11568   */\n      mul\n        /* \"#utility.yul\":11588:11618   */\n      tag_270\n        /* \"#utility.yul\":11606:11617   */\n      dup2\n        /* \"#utility.yul\":11588:11618   */\n      tag_104\n      jump\t// in\n    tag_270:\n        /* \"#utility.yul\":11577:11618   */\n      swap2\n      pop\n        /* \"#utility.yul\":11767:11768   */\n      dup3\n        /* \"#utility.yul\":11758:11765   */\n      dup3\n        /* \"#utility.yul\":11754:11769   */\n      div\n        /* \"#utility.yul\":11751:11752   */\n      dup5\n        /* \"#utility.yul\":11748:11770   */\n      eq\n        /* \"#utility.yul\":11728:11729   */\n      dup4\n        /* \"#utility.yul\":11721:11730   */\n      iszero\n        /* \"#utility.yul\":11701:11784   */\n      or\n        /* \"#utility.yul\":11678:11817   */\n      tag_271\n      jumpi\n        /* \"#utility.yul\":11797:11815   */\n      tag_272\n      tag_127\n      jump\t// in\n    tag_272:\n        /* \"#utility.yul\":11678:11817   */\n    tag_271:\n        /* \"#utility.yul\":11462:11824   */\n      pop\n        /* \"#utility.yul\":11414:11824   */\n      swap3\n      swap2\n      pop\n      pop\n      jump\t// out\n        /* \"#utility.yul\":11830:12162   */\n    tag_62:\n        /* \"#utility.yul\":11951:11955   */\n      0x00\n        /* \"#utility.yul\":11989:11991   */\n      0x40\n        /* \"#utility.yul\":11978:11987   */\n      dup3\n        /* \"#utility.yul\":11974:11992   */\n      add\n        /* \"#utility.yul\":11966:11992   */\n      swap1\n      pop\n        /* \"#utility.yul\":12002:12073   */\n      tag_274\n        /* \"#utility.yul\":12070:12071   */\n      0x00\n        /* \"#utility.yul\":12059:12068   */\n      dup4\n        /* \"#utility.yul\":12055:12072   */\n      add\n        /* \"#utility.yul\":12046:12052   */\n      dup6\n        /* \"#utility.yul\":12002:12073   */\n      tag_100\n      jump\t// in\n    tag_274:\n        /* \"#utility.yul\":12083:12155   */\n      tag_275\n        /* \"#utility.yul\":12151:12153   */\n      0x20\n        /* \"#utility.yul\":12140:12149   */\n      dup4\n        /* \"#utility.yul\":12136:12154   */\n      add\n        /* \"#utility.yul\":12127:12133   */\n      dup5\n        /* \"#utility.yul\":12083:12155   */\n      tag_121\n      jump\t// in\n    tag_275:\n        /* \"#utility.yul\":11830:12162   */\n      swap4\n      swap3\n      pop\n      pop\n      pop\n      jump\t// out\n        /* \"#utility.yul\":12168:12591   */\n    tag_73:\n        /* \"#utility.yul\":12309:12313   */\n      0x00\n        /* \"#utility.yul\":12347:12349   */\n      0x40\n        /* \"#utility.yul\":12336:12345   */\n      dup3\n        /* \"#utility.yul\":12332:12350   */\n      add\n        /* \"#utility.yul\":12324:12350   */\n      swap1\n      pop\n        /* \"#utility.yul\":12360:12431   */\n      tag_277\n        /* \"#utility.yul\":12428:12429   */\n      0x00\n        /* \"#utility.yul\":12417:12426   */\n      dup4\n        /* \"#utility.yul\":12413:12430   */\n      add\n        /* \"#utility.yul\":12404:12410   */\n      dup6\n        /* \"#utility.yul\":12360:12431   */\n      tag_100\n      jump\t// in\n    tag_277:\n        /* \"#utility.yul\":12478:12487   */\n      dup2\n        /* \"#utility.yul\":12472:12476   */\n      dup2\n        /* \"#utility.yul\":12468:12488   */\n      sub\n        /* \"#utility.yul\":12463:12465   */\n      0x20\n        /* \"#utility.yul\":12452:12461   */\n      dup4\n        /* \"#utility.yul\":12448:12466   */\n      add\n        /* \"#utility.yul\":12441:12489   */\n      mstore\n        /* \"#utility.yul\":12506:12584   */\n      tag_278\n        /* \"#utility.yul\":12579:12583   */\n      dup2\n        /* \"#utility.yul\":12570:12576   */\n      dup5\n        /* \"#utility.yul\":12506:12584   */\n      tag_111\n      jump\t// in\n    tag_278:\n        /* \"#utility.yul\":12498:12584   */\n      swap1\n      pop\n        /* \"#utility.yul\":12168:12591   */\n      swap4\n      swap3\n      pop\n      pop\n      pop\n      jump\t// out\n\n    auxdata: 0xa26469706673582212207d2e5c57214d6261f37520323173bccfe4fae87ed666a5a156848ed0bb7ac98d64736f6c63430008160033\n}\n",
				"bytecode": {
					"linkReferences": {},
					"object": "608060405234801562000010575f80fd5b5060405162001121380380620011218339818101604052810190620000369190620001f9565b815f806101000a81548173ffffffffffffffffffffffffffffffffffffffff021916908373ffffffffffffffffffffffffffffffffffffffff1602179055508060015f6101000a81548173ffffffffffffffffffffffffffffffffffffffff021916908373ffffffffffffffffffffffffffffffffffffffff1602179055505f8054906101000a900473ffffffffffffffffffffffffffffffffffffffff1660025f6101000a81548173ffffffffffffffffffffffffffffffffffffffff021916908373ffffffffffffffffffffffffffffffffffffffff16021790555060015f9054906101000a900473ffffffffffffffffffffffffffffffffffffffff1660035f6101000a81548173ffffffffffffffffffffffffffffffffffffffff021916908373ffffffffffffffffffffffffffffffffffffffff160217905550601460048190555060058081905550600a60068190555050506200023e565b5f80fd5b5f73ffffffffffffffffffffffffffffffffffffffff82169050919050565b5f620001c38262000198565b9050919050565b620001d581620001b7565b8114620001e0575f80fd5b50565b5f81519050620001f381620001ca565b92915050565b5f806040838503121562000212576200021162000194565b5b5f6200022185828601620001e3565b92505060206200023485828601620001e3565b9150509250929050565b610ed5806200024c5f395ff3fe608060405234801561000f575f80fd5b506004361061007b575f3560e01c80636dc32bba116100595780636dc32bba146100e9578063b8959a8b14610105578063ee79c9e214610123578063f20fa822146101535761007b565b806328b7bede1461007f57806328e7b2a61461009d5780634ccadb69146100cd575b5f80fd5b61008761016f565b604051610094919061080f565b60405180910390f35b6100b760048036038101906100b2919061086c565b610197565b6040516100c49190610921565b60405180910390f35b6100e760048036038101906100e29190610941565b61023c565b005b61010360048036038101906100fe9190610aab565b61040a565b005b61010d6105ca565b60405161011a919061080f565b60405180910390f35b61013d6004803603810190610138919061086c565b6105f1565b60405161014a919061080f565b60405180910390f35b61016d6004803603810190610168919061086c565b610692565b005b5f60015f9054906101000a900473ffffffffffffffffffffffffffffffffffffffff16905090565b606060025f9054906101000a900473ffffffffffffffffffffffffffffffffffffffff1673ffffffffffffffffffffffffffffffffffffffff166328e7b2a6836040518263ffffffff1660e01b81526004016101f39190610b01565b5f60405180830381865afa15801561020d573d5f803e3d5ffd5b505050506040513d5f823e3d601f19601f820116820180604052508101906102359190610b88565b9050919050565b5f60025f9054906101000a900473ffffffffffffffffffffffffffffffffffffffff1673ffffffffffffffffffffffffffffffffffffffff16636352211e846040518263ffffffff1660e01b81526004016102979190610b01565b602060405180830381865afa1580156102b2573d5f803e3d5ffd5b505050506040513d601f19601f820116820180604052508101906102d69190610bf9565b905060035f9054906101000a900473ffffffffffffffffffffffffffffffffffffffff1673ffffffffffffffffffffffffffffffffffffffff166321670f228260035f9054906101000a900473ffffffffffffffffffffffffffffffffffffffff1673ffffffffffffffffffffffffffffffffffffffff1663313ce5676040518163ffffffff1660e01b8152600401602060405180830381865afa158015610380573d5f803e3d5ffd5b505050506040513d601f19601f820116820180604052508101906103a49190610c38565b600a6103b09190610dbf565b856103bb9190610e09565b6040518363ffffffff1660e01b81526004016103d8929190610e4a565b5f604051808303815f87803b1580156103ef575f80fd5b505af1158015610401573d5f803e3d5ffd5b50505050505050565b5f60035f9054906101000a900473ffffffffffffffffffffffffffffffffffffffff1673ffffffffffffffffffffffffffffffffffffffff1663313ce5676040518163ffffffff1660e01b8152600401602060405180830381865afa158015610475573d5f803e3d5ffd5b505050506040513d601f19601f820116820180604052508101906104999190610c38565b600a6104a59190610dbf565b6004546104b29190610e09565b905060025f9054906101000a900473ffffffffffffffffffffffffffffffffffffffff1673ffffffffffffffffffffffffffffffffffffffff1663d15aecd333846040518363ffffffff1660e01b8152600401610510929190610e71565b5f604051808303815f87803b158015610527575f80fd5b505af1158015610539573d5f803e3d5ffd5b5050505060035f9054906101000a900473ffffffffffffffffffffffffffffffffffffffff1673ffffffffffffffffffffffffffffffffffffffff166321670f2233836040518363ffffffff1660e01b8152600401610599929190610e4a565b5f604051808303815f87803b1580156105b0575f80fd5b505af11580156105c2573d5f803e3d5ffd5b505050505050565b5f805f9054906101000a900473ffffffffffffffffffffffffffffffffffffffff16905090565b5f60025f9054906101000a900473ffffffffffffffffffffffffffffffffffffffff1673ffffffffffffffffffffffffffffffffffffffff16636352211e836040518263ffffffff1660e01b815260040161064c9190610b01565b602060405180830381865afa158015610667573d5f803e3d5ffd5b505050506040513d601f19601f8201168201806040525081019061068b9190610bf9565b9050919050565b60035f9054906101000a900473ffffffffffffffffffffffffffffffffffffffff1673ffffffffffffffffffffffffffffffffffffffff166321670f223360035f9054906101000a900473ffffffffffffffffffffffffffffffffffffffff1673ffffffffffffffffffffffffffffffffffffffff1663313ce5676040518163ffffffff1660e01b8152600401602060405180830381865afa15801561073a573d5f803e3d5ffd5b505050506040513d601f19601f8201168201806040525081019061075e9190610c38565b600a61076a9190610dbf565b6005546107779190610e09565b6040518363ffffffff1660e01b8152600401610794929190610e4a565b5f604051808303815f87803b1580156107ab575f80fd5b505af11580156107bd573d5f803e3d5ffd5b505050506107cd8160065461023c565b50565b5f73ffffffffffffffffffffffffffffffffffffffff82169050919050565b5f6107f9826107d0565b9050919050565b610809816107ef565b82525050565b5f6020820190506108225f830184610800565b92915050565b5f604051905090565b5f80fd5b5f80fd5b5f819050919050565b61084b81610839565b8114610855575f80fd5b50565b5f8135905061086681610842565b92915050565b5f6020828403121561088157610880610831565b5b5f61088e84828501610858565b91505092915050565b5f81519050919050565b5f82825260208201905092915050565b5f5b838110156108ce5780820151818401526020810190506108b3565b5f8484015250505050565b5f601f19601f8301169050919050565b5f6108f382610897565b6108fd81856108a1565b935061090d8185602086016108b1565b610916816108d9565b840191505092915050565b5f6020820190508181035f83015261093981846108e9565b905092915050565b5f806040838503121561095757610956610831565b5b5f61096485828601610858565b925050602061097585828601610858565b9150509250929050565b5f80fd5b5f80fd5b7f4e487b71000000000000000000000000000000000000000000000000000000005f52604160045260245ffd5b6109bd826108d9565b810181811067ffffffffffffffff821117156109dc576109db610987565b5b80604052505050565b5f6109ee610828565b90506109fa82826109b4565b919050565b5f67ffffffffffffffff821115610a1957610a18610987565b5b610a22826108d9565b9050602081019050919050565b828183375f83830152505050565b5f610a4f610a4a846109ff565b6109e5565b905082815260208101848484011115610a6b57610a6a610983565b5b610a76848285610a2f565b509392505050565b5f82601f830112610a9257610a9161097f565b5b8135610aa2848260208601610a3d565b91505092915050565b5f60208284031215610ac057610abf610831565b5b5f82013567ffffffffffffffff811115610add57610adc610835565b5b610ae984828501610a7e565b91505092915050565b610afb81610839565b82525050565b5f602082019050610b145f830184610af2565b92915050565b5f610b2c610b27846109ff565b6109e5565b905082815260208101848484011115610b4857610b47610983565b5b610b538482856108b1565b509392505050565b5f82601f830112610b6f57610b6e61097f565b5b8151610b7f848260208601610b1a565b91505092915050565b5f60208284031215610b9d57610b9c610831565b5b5f82015167ffffffffffffffff811115610bba57610bb9610835565b5b610bc684828501610b5b565b91505092915050565b610bd8816107ef565b8114610be2575f80fd5b50565b5f81519050610bf381610bcf565b92915050565b5f60208284031215610c0e57610c0d610831565b5b5f610c1b84828501610be5565b91505092915050565b5f81519050610c3281610842565b92915050565b5f60208284031215610c4d57610c4c610831565b5b5f610c5a84828501610c24565b91505092915050565b7f4e487b71000000000000000000000000000000000000000000000000000000005f52601160045260245ffd5b5f8160011c9050919050565b5f808291508390505b6001851115610ce557808604811115610cc157610cc0610c63565b5b6001851615610cd05780820291505b8081029050610cde85610c90565b9450610ca5565b94509492505050565b5f82610cfd5760019050610db8565b81610d0a575f9050610db8565b8160018114610d205760028114610d2a57610d59565b6001915050610db8565b60ff841115610d3c57610d3b610c63565b5b8360020a915084821115610d5357610d52610c63565b5b50610db8565b5060208310610133831016604e8410600b8410161715610d8e5782820a905083811115610d8957610d88610c63565b5b610db8565b610d9b8484846001610c9c565b92509050818404811115610db257610db1610c63565b5b81810290505b9392505050565b5f610dc982610839565b9150610dd483610839565b9250610e017fffffffffffffffffffffffffffffffffffffffffffffffffffffffffffffffff8484610cee565b905092915050565b5f610e1382610839565b9150610e1e83610839565b9250828202610e2c81610839565b91508282048414831517610e4357610e42610c63565b5b5092915050565b5f604082019050610e5d5f830185610800565b610e6a6020830184610af2565b9392505050565b5f604082019050610e845f830185610800565b8181036020830152610e9681846108e9565b9050939250505056fea26469706673582212207d2e5c57214d6261f37520323173bccfe4fae87ed666a5a156848ed0bb7ac98d64736f6c63430008160033",
					"opcodes": "PUSH1 0x80 PUSH1 0x40 MSTORE CALLVALUE DUP1 ISZERO PUSH3 0x10 JUMPI PUSH0 DUP1 REVERT JUMPDEST POP PUSH1 0x40 MLOAD PUSH3 0x1121 CODESIZE SUB DUP1 PUSH3 0x1121 DUP4 CODECOPY DUP2 DUP2 ADD PUSH1 0x40 MSTORE DUP2 ADD SWAP1 PUSH3 0x36 SWAP2 SWAP1 PUSH3 0x1F9 JUMP JUMPDEST DUP2 PUSH0 DUP1 PUSH2 0x100 EXP DUP2 SLOAD DUP2 PUSH20 0xFFFFFFFFFFFFFFFFFFFFFFFFFFFFFFFFFFFFFFFF MUL NOT AND SWAP1 DUP4 PUSH20 0xFFFFFFFFFFFFFFFFFFFFFFFFFFFFFFFFFFFFFFFF AND MUL OR SWAP1 SSTORE POP DUP1 PUSH1 0x1 PUSH0 PUSH2 0x100 EXP DUP2 SLOAD DUP2 PUSH20 0xFFFFFFFFFFFFFFFFFFFFFFFFFFFFFFFFFFFFFFFF MUL NOT AND SWAP1 DUP4 PUSH20 0xFFFFFFFFFFFFFFFFFFFFFFFFFFFFFFFFFFFFFFFF AND MUL OR SWAP1 SSTORE POP PUSH0 DUP1 SLOAD SWAP1 PUSH2 0x100 EXP SWAP1 DIV PUSH20 0xFFFFFFFFFFFFFFFFFFFFFFFFFFFFFFFFFFFFFFFF AND PUSH1 0x2 PUSH0 PUSH2 0x100 EXP DUP2 SLOAD DUP2 PUSH20 0xFFFFFFFFFFFFFFFFFFFFFFFFFFFFFFFFFFFFFFFF MUL NOT AND SWAP1 DUP4 PUSH20 0xFFFFFFFFFFFFFFFFFFFFFFFFFFFFFFFFFFFFFFFF AND MUL OR SWAP1 SSTORE POP PUSH1 0x1 PUSH0 SWAP1 SLOAD SWAP1 PUSH2 0x100 EXP SWAP1 DIV PUSH20 0xFFFFFFFFFFFFFFFFFFFFFFFFFFFFFFFFFFFFFFFF AND PUSH1 0x3 PUSH0 PUSH2 0x100 EXP DUP2 SLOAD DUP2 PUSH20 0xFFFFFFFFFFFFFFFFFFFFFFFFFFFFFFFFFFFFFFFF MUL NOT AND SWAP1 DUP4 PUSH20 0xFFFFFFFFFFFFFFFFFFFFFFFFFFFFFFFFFFFFFFFF AND MUL OR SWAP1 SSTORE POP PUSH1 0x14 PUSH1 0x4 DUP2 SWAP1 SSTORE POP PUSH1 0x5 DUP1 DUP2 SWAP1 SSTORE POP PUSH1 0xA PUSH1 0x6 DUP2 SWAP1 SSTORE POP POP POP PUSH3 0x23E JUMP JUMPDEST PUSH0 DUP1 REVERT JUMPDEST PUSH0 PUSH20 0xFFFFFFFFFFFFFFFFFFFFFFFFFFFFFFFFFFFFFFFF DUP3 AND SWAP1 POP SWAP2 SWAP1 POP JUMP JUMPDEST PUSH0 PUSH3 0x1C3 DUP3 PUSH3 0x198 JUMP JUMPDEST SWAP1 POP SWAP2 SWAP1 POP JUMP JUMPDEST PUSH3 0x1D5 DUP2 PUSH3 0x1B7 JUMP JUMPDEST DUP2 EQ PUSH3 0x1E0 JUMPI PUSH0 DUP1 REVERT JUMPDEST POP JUMP JUMPDEST PUSH0 DUP2 MLOAD SWAP1 POP PUSH3 0x1F3 DUP2 PUSH3 0x1CA JUMP JUMPDEST SWAP3 SWAP2 POP POP JUMP JUMPDEST PUSH0 DUP1 PUSH1 0x40 DUP4 DUP6 SUB SLT ISZERO PUSH3 0x212 JUMPI PUSH3 0x211 PUSH3 0x194 JUMP JUMPDEST JUMPDEST PUSH0 PUSH3 0x221 DUP6 DUP3 DUP7 ADD PUSH3 0x1E3 JUMP JUMPDEST SWAP3 POP POP PUSH1 0x20 PUSH3 0x234 DUP6 DUP3 DUP7 ADD PUSH3 0x1E3 JUMP JUMPDEST SWAP2 POP POP SWAP3 POP SWAP3 SWAP1 POP JUMP JUMPDEST PUSH2 0xED5 DUP1 PUSH3 0x24C PUSH0 CODECOPY PUSH0 RETURN INVALID PUSH1 0x80 PUSH1 0x40 MSTORE CALLVALUE DUP1 ISZERO PUSH2 0xF JUMPI PUSH0 DUP1 REVERT JUMPDEST POP PUSH1 0x4 CALLDATASIZE LT PUSH2 0x7B JUMPI PUSH0 CALLDATALOAD PUSH1 0xE0 SHR DUP1 PUSH4 0x6DC32BBA GT PUSH2 0x59 JUMPI DUP1 PUSH4 0x6DC32BBA EQ PUSH2 0xE9 JUMPI DUP1 PUSH4 0xB8959A8B EQ PUSH2 0x105 JUMPI DUP1 PUSH4 0xEE79C9E2 EQ PUSH2 0x123 JUMPI DUP1 PUSH4 0xF20FA822 EQ PUSH2 0x153 JUMPI PUSH2 0x7B JUMP JUMPDEST DUP1 PUSH4 0x28B7BEDE EQ PUSH2 0x7F JUMPI DUP1 PUSH4 0x28E7B2A6 EQ PUSH2 0x9D JUMPI DUP1 PUSH4 0x4CCADB69 EQ PUSH2 0xCD JUMPI JUMPDEST PUSH0 DUP1 REVERT JUMPDEST PUSH2 0x87 PUSH2 0x16F JUMP JUMPDEST PUSH1 0x40 MLOAD PUSH2 0x94 SWAP2 SWAP1 PUSH2 0x80F JUMP JUMPDEST PUSH1 0x40 MLOAD DUP1 SWAP2 SUB SWAP1 RETURN JUMPDEST PUSH2 0xB7 PUSH1 0x4 DUP1 CALLDATASIZE SUB DUP2 ADD SWAP1 PUSH2 0xB2 SWAP2 SWAP1 PUSH2 0x86C JUMP JUMPDEST PUSH2 0x197 JUMP JUMPDEST PUSH1 0x40 MLOAD PUSH2 0xC4 SWAP2 SWAP1 PUSH2 0x921 JUMP JUMPDEST PUSH1 0x40 MLOAD DUP1 SWAP2 SUB SWAP1 RETURN JUMPDEST PUSH2 0xE7 PUSH1 0x4 DUP1 CALLDATASIZE SUB DUP2 ADD SWAP1 PUSH2 0xE2 SWAP2 SWAP1 PUSH2 0x941 JUMP JUMPDEST PUSH2 0x23C JUMP JUMPDEST STOP JUMPDEST PUSH2 0x103 PUSH1 0x4 DUP1 CALLDATASIZE SUB DUP2 ADD SWAP1 PUSH2 0xFE SWAP2 SWAP1 PUSH2 0xAAB JUMP JUMPDEST PUSH2 0x40A JUMP JUMPDEST STOP JUMPDEST PUSH2 0x10D PUSH2 0x5CA JUMP JUMPDEST PUSH1 0x40 MLOAD PUSH2 0x11A SWAP2 SWAP1 PUSH2 0x80F JUMP JUMPDEST PUSH1 0x40 MLOAD DUP1 SWAP2 SUB SWAP1 RETURN JUMPDEST PUSH2 0x13D PUSH1 0x4 DUP1 CALLDATASIZE SUB DUP2 ADD SWAP1 PUSH2 0x138 SWAP2 SWAP1 PUSH2 0x86C JUMP JUMPDEST PUSH2 0x5F1 JUMP JUMPDEST PUSH1 0x40 MLOAD PUSH2 0x14A SWAP2 SWAP1 PUSH2 0x80F JUMP JUMPDEST PUSH1 0x40 MLOAD DUP1 SWAP2 SUB SWAP1 RETURN JUMPDEST PUSH2 0x16D PUSH1 0x4 DUP1 CALLDATASIZE SUB DUP2 ADD SWAP1 PUSH2 0x168 SWAP2 SWAP1 PUSH2 0x86C JUMP JUMPDEST PUSH2 0x692 JUMP JUMPDEST STOP JUMPDEST PUSH0 PUSH1 0x1 PUSH0 SWAP1 SLOAD SWAP1 PUSH2 0x100 EXP SWAP1 DIV PUSH20 0xFFFFFFFFFFFFFFFFFFFFFFFFFFFFFFFFFFFFFFFF AND SWAP1 POP SWAP1 JUMP JUMPDEST PUSH1 0x60 PUSH1 0x2 PUSH0 SWAP1 SLOAD SWAP1 PUSH2 0x100 EXP SWAP1 DIV PUSH20 0xFFFFFFFFFFFFFFFFFFFFFFFFFFFFFFFFFFFFFFFF AND PUSH20 0xFFFFFFFFFFFFFFFFFFFFFFFFFFFFFFFFFFFFFFFF AND PUSH4 0x28E7B2A6 DUP4 PUSH1 0x40 MLOAD DUP3 PUSH4 0xFFFFFFFF AND PUSH1 0xE0 SHL DUP2 MSTORE PUSH1 0x4 ADD PUSH2 0x1F3 SWAP2 SWAP1 PUSH2 0xB01 JUMP JUMPDEST PUSH0 PUSH1 0x40 MLOAD DUP1 DUP4 SUB DUP2 DUP7 GAS STATICCALL ISZERO DUP1 ISZERO PUSH2 0x20D JUMPI RETURNDATASIZE PUSH0 DUP1 RETURNDATACOPY RETURNDATASIZE PUSH0 REVERT JUMPDEST POP POP POP POP PUSH1 0x40 MLOAD RETURNDATASIZE PUSH0 DUP3 RETURNDATACOPY RETURNDATASIZE PUSH1 0x1F NOT PUSH1 0x1F DUP3 ADD AND DUP3 ADD DUP1 PUSH1 0x40 MSTORE POP DUP2 ADD SWAP1 PUSH2 0x235 SWAP2 SWAP1 PUSH2 0xB88 JUMP JUMPDEST SWAP1 POP SWAP2 SWAP1 POP JUMP JUMPDEST PUSH0 PUSH1 0x2 PUSH0 SWAP1 SLOAD SWAP1 PUSH2 0x100 EXP SWAP1 DIV PUSH20 0xFFFFFFFFFFFFFFFFFFFFFFFFFFFFFFFFFFFFFFFF AND PUSH20 0xFFFFFFFFFFFFFFFFFFFFFFFFFFFFFFFFFFFFFFFF AND PUSH4 0x6352211E DUP5 PUSH1 0x40 MLOAD DUP3 PUSH4 0xFFFFFFFF AND PUSH1 0xE0 SHL DUP2 MSTORE PUSH1 0x4 ADD PUSH2 0x297 SWAP2 SWAP1 PUSH2 0xB01 JUMP JUMPDEST PUSH1 0x20 PUSH1 0x40 MLOAD DUP1 DUP4 SUB DUP2 DUP7 GAS STATICCALL ISZERO DUP1 ISZERO PUSH2 0x2B2 JUMPI RETURNDATASIZE PUSH0 DUP1 RETURNDATACOPY RETURNDATASIZE PUSH0 REVERT JUMPDEST POP POP POP POP PUSH1 0x40 MLOAD RETURNDATASIZE PUSH1 0x1F NOT PUSH1 0x1F DUP3 ADD AND DUP3 ADD DUP1 PUSH1 0x40 MSTORE POP DUP2 ADD SWAP1 PUSH2 0x2D6 SWAP2 SWAP1 PUSH2 0xBF9 JUMP JUMPDEST SWAP1 POP PUSH1 0x3 PUSH0 SWAP1 SLOAD SWAP1 PUSH2 0x100 EXP SWAP1 DIV PUSH20 0xFFFFFFFFFFFFFFFFFFFFFFFFFFFFFFFFFFFFFFFF AND PUSH20 0xFFFFFFFFFFFFFFFFFFFFFFFFFFFFFFFFFFFFFFFF AND PUSH4 0x21670F22 DUP3 PUSH1 0x3 PUSH0 SWAP1 SLOAD SWAP1 PUSH2 0x100 EXP SWAP1 DIV PUSH20 0xFFFFFFFFFFFFFFFFFFFFFFFFFFFFFFFFFFFFFFFF AND PUSH20 0xFFFFFFFFFFFFFFFFFFFFFFFFFFFFFFFFFFFFFFFF AND PUSH4 0x313CE567 PUSH1 0x40 MLOAD DUP2 PUSH4 0xFFFFFFFF AND PUSH1 0xE0 SHL DUP2 MSTORE PUSH1 0x4 ADD PUSH1 0x20 PUSH1 0x40 MLOAD DUP1 DUP4 SUB DUP2 DUP7 GAS STATICCALL ISZERO DUP1 ISZERO PUSH2 0x380 JUMPI RETURNDATASIZE PUSH0 DUP1 RETURNDATACOPY RETURNDATASIZE PUSH0 REVERT JUMPDEST POP POP POP POP PUSH1 0x40 MLOAD RETURNDATASIZE PUSH1 0x1F NOT PUSH1 0x1F DUP3 ADD AND DUP3 ADD DUP1 PUSH1 0x40 MSTORE POP DUP2 ADD SWAP1 PUSH2 0x3A4 SWAP2 SWAP1 PUSH2 0xC38 JUMP JUMPDEST PUSH1 0xA PUSH2 0x3B0 SWAP2 SWAP1 PUSH2 0xDBF JUMP JUMPDEST DUP6 PUSH2 0x3BB SWAP2 SWAP1 PUSH2 0xE09 JUMP JUMPDEST PUSH1 0x40 MLOAD DUP4 PUSH4 0xFFFFFFFF AND PUSH1 0xE0 SHL DUP2 MSTORE PUSH1 0x4 ADD PUSH2 0x3D8 SWAP3 SWAP2 SWAP1 PUSH2 0xE4A JUMP JUMPDEST PUSH0 PUSH1 0x40 MLOAD DUP1 DUP4 SUB DUP2 PUSH0 DUP8 DUP1 EXTCODESIZE ISZERO DUP1 ISZERO PUSH2 0x3EF JUMPI PUSH0 DUP1 REVERT JUMPDEST POP GAS CALL ISZERO DUP1 ISZERO PUSH2 0x401 JUMPI RETURNDATASIZE PUSH0 DUP1 RETURNDATACOPY RETURNDATASIZE PUSH0 REVERT JUMPDEST POP POP POP POP POP POP POP JUMP JUMPDEST PUSH0 PUSH1 0x3 PUSH0 SWAP1 SLOAD SWAP1 PUSH2 0x100 EXP SWAP1 DIV PUSH20 0xFFFFFFFFFFFFFFFFFFFFFFFFFFFFFFFFFFFFFFFF AND PUSH20 0xFFFFFFFFFFFFFFFFFFFFFFFFFFFFFFFFFFFFFFFF AND PUSH4 0x313CE567 PUSH1 0x40 MLOAD DUP2 PUSH4 0xFFFFFFFF AND PUSH1 0xE0 SHL DUP2 MSTORE PUSH1 0x4 ADD PUSH1 0x20 PUSH1 0x40 MLOAD DUP1 DUP4 SUB DUP2 DUP7 GAS STATICCALL ISZERO DUP1 ISZERO PUSH2 0x475 JUMPI RETURNDATASIZE PUSH0 DUP1 RETURNDATACOPY RETURNDATASIZE PUSH0 REVERT JUMPDEST POP POP POP POP PUSH1 0x40 MLOAD RETURNDATASIZE PUSH1 0x1F NOT PUSH1 0x1F DUP3 ADD AND DUP3 ADD DUP1 PUSH1 0x40 MSTORE POP DUP2 ADD SWAP1 PUSH2 0x499 SWAP2 SWAP1 PUSH2 0xC38 JUMP JUMPDEST PUSH1 0xA PUSH2 0x4A5 SWAP2 SWAP1 PUSH2 0xDBF JUMP JUMPDEST PUSH1 0x4 SLOAD PUSH2 0x4B2 SWAP2 SWAP1 PUSH2 0xE09 JUMP JUMPDEST SWAP1 POP PUSH1 0x2 PUSH0 SWAP1 SLOAD SWAP1 PUSH2 0x100 EXP SWAP1 DIV PUSH20 0xFFFFFFFFFFFFFFFFFFFFFFFFFFFFFFFFFFFFFFFF AND PUSH20 0xFFFFFFFFFFFFFFFFFFFFFFFFFFFFFFFFFFFFFFFF AND PUSH4 0xD15AECD3 CALLER DUP5 PUSH1 0x40 MLOAD DUP4 PUSH4 0xFFFFFFFF AND PUSH1 0xE0 SHL DUP2 MSTORE PUSH1 0x4 ADD PUSH2 0x510 SWAP3 SWAP2 SWAP1 PUSH2 0xE71 JUMP JUMPDEST PUSH0 PUSH1 0x40 MLOAD DUP1 DUP4 SUB DUP2 PUSH0 DUP8 DUP1 EXTCODESIZE ISZERO DUP1 ISZERO PUSH2 0x527 JUMPI PUSH0 DUP1 REVERT JUMPDEST POP GAS CALL ISZERO DUP1 ISZERO PUSH2 0x539 JUMPI RETURNDATASIZE PUSH0 DUP1 RETURNDATACOPY RETURNDATASIZE PUSH0 REVERT JUMPDEST POP POP POP POP PUSH1 0x3 PUSH0 SWAP1 SLOAD SWAP1 PUSH2 0x100 EXP SWAP1 DIV PUSH20 0xFFFFFFFFFFFFFFFFFFFFFFFFFFFFFFFFFFFFFFFF AND PUSH20 0xFFFFFFFFFFFFFFFFFFFFFFFFFFFFFFFFFFFFFFFF AND PUSH4 0x21670F22 CALLER DUP4 PUSH1 0x40 MLOAD DUP4 PUSH4 0xFFFFFFFF AND PUSH1 0xE0 SHL DUP2 MSTORE PUSH1 0x4 ADD PUSH2 0x599 SWAP3 SWAP2 SWAP1 PUSH2 0xE4A JUMP JUMPDEST PUSH0 PUSH1 0x40 MLOAD DUP1 DUP4 SUB DUP2 PUSH0 DUP8 DUP1 EXTCODESIZE ISZERO DUP1 ISZERO PUSH2 0x5B0 JUMPI PUSH0 DUP1 REVERT JUMPDEST POP GAS CALL ISZERO DUP1 ISZERO PUSH2 0x5C2 JUMPI RETURNDATASIZE PUSH0 DUP1 RETURNDATACOPY RETURNDATASIZE PUSH0 REVERT JUMPDEST POP POP POP POP POP POP JUMP JUMPDEST PUSH0 DUP1 PUSH0 SWAP1 SLOAD SWAP1 PUSH2 0x100 EXP SWAP1 DIV PUSH20 0xFFFFFFFFFFFFFFFFFFFFFFFFFFFFFFFFFFFFFFFF AND SWAP1 POP SWAP1 JUMP JUMPDEST PUSH0 PUSH1 0x2 PUSH0 SWAP1 SLOAD SWAP1 PUSH2 0x100 EXP SWAP1 DIV PUSH20 0xFFFFFFFFFFFFFFFFFFFFFFFFFFFFFFFFFFFFFFFF AND PUSH20 0xFFFFFFFFFFFFFFFFFFFFFFFFFFFFFFFFFFFFFFFF AND PUSH4 0x6352211E DUP4 PUSH1 0x40 MLOAD DUP3 PUSH4 0xFFFFFFFF AND PUSH1 0xE0 SHL DUP2 MSTORE PUSH1 0x4 ADD PUSH2 0x64C SWAP2 SWAP1 PUSH2 0xB01 JUMP JUMPDEST PUSH1 0x20 PUSH1 0x40 MLOAD DUP1 DUP4 SUB DUP2 DUP7 GAS STATICCALL ISZERO DUP1 ISZERO PUSH2 0x667 JUMPI RETURNDATASIZE PUSH0 DUP1 RETURNDATACOPY RETURNDATASIZE PUSH0 REVERT JUMPDEST POP POP POP POP PUSH1 0x40 MLOAD RETURNDATASIZE PUSH1 0x1F NOT PUSH1 0x1F DUP3 ADD AND DUP3 ADD DUP1 PUSH1 0x40 MSTORE POP DUP2 ADD SWAP1 PUSH2 0x68B SWAP2 SWAP1 PUSH2 0xBF9 JUMP JUMPDEST SWAP1 POP SWAP2 SWAP1 POP JUMP JUMPDEST PUSH1 0x3 PUSH0 SWAP1 SLOAD SWAP1 PUSH2 0x100 EXP SWAP1 DIV PUSH20 0xFFFFFFFFFFFFFFFFFFFFFFFFFFFFFFFFFFFFFFFF AND PUSH20 0xFFFFFFFFFFFFFFFFFFFFFFFFFFFFFFFFFFFFFFFF AND PUSH4 0x21670F22 CALLER PUSH1 0x3 PUSH0 SWAP1 SLOAD SWAP1 PUSH2 0x100 EXP SWAP1 DIV PUSH20 0xFFFFFFFFFFFFFFFFFFFFFFFFFFFFFFFFFFFFFFFF AND PUSH20 0xFFFFFFFFFFFFFFFFFFFFFFFFFFFFFFFFFFFFFFFF AND PUSH4 0x313CE567 PUSH1 0x40 MLOAD DUP2 PUSH4 0xFFFFFFFF AND PUSH1 0xE0 SHL DUP2 MSTORE PUSH1 0x4 ADD PUSH1 0x20 PUSH1 0x40 MLOAD DUP1 DUP4 SUB DUP2 DUP7 GAS STATICCALL ISZERO DUP1 ISZERO PUSH2 0x73A JUMPI RETURNDATASIZE PUSH0 DUP1 RETURNDATACOPY RETURNDATASIZE PUSH0 REVERT JUMPDEST POP POP POP POP PUSH1 0x40 MLOAD RETURNDATASIZE PUSH1 0x1F NOT PUSH1 0x1F DUP3 ADD AND DUP3 ADD DUP1 PUSH1 0x40 MSTORE POP DUP2 ADD SWAP1 PUSH2 0x75E SWAP2 SWAP1 PUSH2 0xC38 JUMP JUMPDEST PUSH1 0xA PUSH2 0x76A SWAP2 SWAP1 PUSH2 0xDBF JUMP JUMPDEST PUSH1 0x5 SLOAD PUSH2 0x777 SWAP2 SWAP1 PUSH2 0xE09 JUMP JUMPDEST PUSH1 0x40 MLOAD DUP4 PUSH4 0xFFFFFFFF AND PUSH1 0xE0 SHL DUP2 MSTORE PUSH1 0x4 ADD PUSH2 0x794 SWAP3 SWAP2 SWAP1 PUSH2 0xE4A JUMP JUMPDEST PUSH0 PUSH1 0x40 MLOAD DUP1 DUP4 SUB DUP2 PUSH0 DUP8 DUP1 EXTCODESIZE ISZERO DUP1 ISZERO PUSH2 0x7AB JUMPI PUSH0 DUP1 REVERT JUMPDEST POP GAS CALL ISZERO DUP1 ISZERO PUSH2 0x7BD JUMPI RETURNDATASIZE PUSH0 DUP1 RETURNDATACOPY RETURNDATASIZE PUSH0 REVERT JUMPDEST POP POP POP POP PUSH2 0x7CD DUP2 PUSH1 0x6 SLOAD PUSH2 0x23C JUMP JUMPDEST POP JUMP JUMPDEST PUSH0 PUSH20 0xFFFFFFFFFFFFFFFFFFFFFFFFFFFFFFFFFFFFFFFF DUP3 AND SWAP1 POP SWAP2 SWAP1 POP JUMP JUMPDEST PUSH0 PUSH2 0x7F9 DUP3 PUSH2 0x7D0 JUMP JUMPDEST SWAP1 POP SWAP2 SWAP1 POP JUMP JUMPDEST PUSH2 0x809 DUP2 PUSH2 0x7EF JUMP JUMPDEST DUP3 MSTORE POP POP JUMP JUMPDEST PUSH0 PUSH1 0x20 DUP3 ADD SWAP1 POP PUSH2 0x822 PUSH0 DUP4 ADD DUP5 PUSH2 0x800 JUMP JUMPDEST SWAP3 SWAP2 POP POP JUMP JUMPDEST PUSH0 PUSH1 0x40 MLOAD SWAP1 POP SWAP1 JUMP JUMPDEST PUSH0 DUP1 REVERT JUMPDEST PUSH0 DUP1 REVERT JUMPDEST PUSH0 DUP2 SWAP1 POP SWAP2 SWAP1 POP JUMP JUMPDEST PUSH2 0x84B DUP2 PUSH2 0x839 JUMP JUMPDEST DUP2 EQ PUSH2 0x855 JUMPI PUSH0 DUP1 REVERT JUMPDEST POP JUMP JUMPDEST PUSH0 DUP2 CALLDATALOAD SWAP1 POP PUSH2 0x866 DUP2 PUSH2 0x842 JUMP JUMPDEST SWAP3 SWAP2 POP POP JUMP JUMPDEST PUSH0 PUSH1 0x20 DUP3 DUP5 SUB SLT ISZERO PUSH2 0x881 JUMPI PUSH2 0x880 PUSH2 0x831 JUMP JUMPDEST JUMPDEST PUSH0 PUSH2 0x88E DUP5 DUP3 DUP6 ADD PUSH2 0x858 JUMP JUMPDEST SWAP2 POP POP SWAP3 SWAP2 POP POP JUMP JUMPDEST PUSH0 DUP2 MLOAD SWAP1 POP SWAP2 SWAP1 POP JUMP JUMPDEST PUSH0 DUP3 DUP3 MSTORE PUSH1 0x20 DUP3 ADD SWAP1 POP SWAP3 SWAP2 POP POP JUMP JUMPDEST PUSH0 JUMPDEST DUP4 DUP2 LT ISZERO PUSH2 0x8CE JUMPI DUP1 DUP3 ADD MLOAD DUP2 DUP5 ADD MSTORE PUSH1 0x20 DUP2 ADD SWAP1 POP PUSH2 0x8B3 JUMP JUMPDEST PUSH0 DUP5 DUP5 ADD MSTORE POP POP POP POP JUMP JUMPDEST PUSH0 PUSH1 0x1F NOT PUSH1 0x1F DUP4 ADD AND SWAP1 POP SWAP2 SWAP1 POP JUMP JUMPDEST PUSH0 PUSH2 0x8F3 DUP3 PUSH2 0x897 JUMP JUMPDEST PUSH2 0x8FD DUP2 DUP6 PUSH2 0x8A1 JUMP JUMPDEST SWAP4 POP PUSH2 0x90D DUP2 DUP6 PUSH1 0x20 DUP7 ADD PUSH2 0x8B1 JUMP JUMPDEST PUSH2 0x916 DUP2 PUSH2 0x8D9 JUMP JUMPDEST DUP5 ADD SWAP2 POP POP SWAP3 SWAP2 POP POP JUMP JUMPDEST PUSH0 PUSH1 0x20 DUP3 ADD SWAP1 POP DUP2 DUP2 SUB PUSH0 DUP4 ADD MSTORE PUSH2 0x939 DUP2 DUP5 PUSH2 0x8E9 JUMP JUMPDEST SWAP1 POP SWAP3 SWAP2 POP POP JUMP JUMPDEST PUSH0 DUP1 PUSH1 0x40 DUP4 DUP6 SUB SLT ISZERO PUSH2 0x957 JUMPI PUSH2 0x956 PUSH2 0x831 JUMP JUMPDEST JUMPDEST PUSH0 PUSH2 0x964 DUP6 DUP3 DUP7 ADD PUSH2 0x858 JUMP JUMPDEST SWAP3 POP POP PUSH1 0x20 PUSH2 0x975 DUP6 DUP3 DUP7 ADD PUSH2 0x858 JUMP JUMPDEST SWAP2 POP POP SWAP3 POP SWAP3 SWAP1 POP JUMP JUMPDEST PUSH0 DUP1 REVERT JUMPDEST PUSH0 DUP1 REVERT JUMPDEST PUSH32 0x4E487B7100000000000000000000000000000000000000000000000000000000 PUSH0 MSTORE PUSH1 0x41 PUSH1 0x4 MSTORE PUSH1 0x24 PUSH0 REVERT JUMPDEST PUSH2 0x9BD DUP3 PUSH2 0x8D9 JUMP JUMPDEST DUP2 ADD DUP2 DUP2 LT PUSH8 0xFFFFFFFFFFFFFFFF DUP3 GT OR ISZERO PUSH2 0x9DC JUMPI PUSH2 0x9DB PUSH2 0x987 JUMP JUMPDEST JUMPDEST DUP1 PUSH1 0x40 MSTORE POP POP POP JUMP JUMPDEST PUSH0 PUSH2 0x9EE PUSH2 0x828 JUMP JUMPDEST SWAP1 POP PUSH2 0x9FA DUP3 DUP3 PUSH2 0x9B4 JUMP JUMPDEST SWAP2 SWAP1 POP JUMP JUMPDEST PUSH0 PUSH8 0xFFFFFFFFFFFFFFFF DUP3 GT ISZERO PUSH2 0xA19 JUMPI PUSH2 0xA18 PUSH2 0x987 JUMP JUMPDEST JUMPDEST PUSH2 0xA22 DUP3 PUSH2 0x8D9 JUMP JUMPDEST SWAP1 POP PUSH1 0x20 DUP2 ADD SWAP1 POP SWAP2 SWAP1 POP JUMP JUMPDEST DUP3 DUP2 DUP4 CALLDATACOPY PUSH0 DUP4 DUP4 ADD MSTORE POP POP POP JUMP JUMPDEST PUSH0 PUSH2 0xA4F PUSH2 0xA4A DUP5 PUSH2 0x9FF JUMP JUMPDEST PUSH2 0x9E5 JUMP JUMPDEST SWAP1 POP DUP3 DUP2 MSTORE PUSH1 0x20 DUP2 ADD DUP5 DUP5 DUP5 ADD GT ISZERO PUSH2 0xA6B JUMPI PUSH2 0xA6A PUSH2 0x983 JUMP JUMPDEST JUMPDEST PUSH2 0xA76 DUP5 DUP3 DUP6 PUSH2 0xA2F JUMP JUMPDEST POP SWAP4 SWAP3 POP POP POP JUMP JUMPDEST PUSH0 DUP3 PUSH1 0x1F DUP4 ADD SLT PUSH2 0xA92 JUMPI PUSH2 0xA91 PUSH2 0x97F JUMP JUMPDEST JUMPDEST DUP2 CALLDATALOAD PUSH2 0xAA2 DUP5 DUP3 PUSH1 0x20 DUP7 ADD PUSH2 0xA3D JUMP JUMPDEST SWAP2 POP POP SWAP3 SWAP2 POP POP JUMP JUMPDEST PUSH0 PUSH1 0x20 DUP3 DUP5 SUB SLT ISZERO PUSH2 0xAC0 JUMPI PUSH2 0xABF PUSH2 0x831 JUMP JUMPDEST JUMPDEST PUSH0 DUP3 ADD CALLDATALOAD PUSH8 0xFFFFFFFFFFFFFFFF DUP2 GT ISZERO PUSH2 0xADD JUMPI PUSH2 0xADC PUSH2 0x835 JUMP JUMPDEST JUMPDEST PUSH2 0xAE9 DUP5 DUP3 DUP6 ADD PUSH2 0xA7E JUMP JUMPDEST SWAP2 POP POP SWAP3 SWAP2 POP POP JUMP JUMPDEST PUSH2 0xAFB DUP2 PUSH2 0x839 JUMP JUMPDEST DUP3 MSTORE POP POP JUMP JUMPDEST PUSH0 PUSH1 0x20 DUP3 ADD SWAP1 POP PUSH2 0xB14 PUSH0 DUP4 ADD DUP5 PUSH2 0xAF2 JUMP JUMPDEST SWAP3 SWAP2 POP POP JUMP JUMPDEST PUSH0 PUSH2 0xB2C PUSH2 0xB27 DUP5 PUSH2 0x9FF JUMP JUMPDEST PUSH2 0x9E5 JUMP JUMPDEST SWAP1 POP DUP3 DUP2 MSTORE PUSH1 0x20 DUP2 ADD DUP5 DUP5 DUP5 ADD GT ISZERO PUSH2 0xB48 JUMPI PUSH2 0xB47 PUSH2 0x983 JUMP JUMPDEST JUMPDEST PUSH2 0xB53 DUP5 DUP3 DUP6 PUSH2 0x8B1 JUMP JUMPDEST POP SWAP4 SWAP3 POP POP POP JUMP JUMPDEST PUSH0 DUP3 PUSH1 0x1F DUP4 ADD SLT PUSH2 0xB6F JUMPI PUSH2 0xB6E PUSH2 0x97F JUMP JUMPDEST JUMPDEST DUP2 MLOAD PUSH2 0xB7F DUP5 DUP3 PUSH1 0x20 DUP7 ADD PUSH2 0xB1A JUMP JUMPDEST SWAP2 POP POP SWAP3 SWAP2 POP POP JUMP JUMPDEST PUSH0 PUSH1 0x20 DUP3 DUP5 SUB SLT ISZERO PUSH2 0xB9D JUMPI PUSH2 0xB9C PUSH2 0x831 JUMP JUMPDEST JUMPDEST PUSH0 DUP3 ADD MLOAD PUSH8 0xFFFFFFFFFFFFFFFF DUP2 GT ISZERO PUSH2 0xBBA JUMPI PUSH2 0xBB9 PUSH2 0x835 JUMP JUMPDEST JUMPDEST PUSH2 0xBC6 DUP5 DUP3 DUP6 ADD PUSH2 0xB5B JUMP JUMPDEST SWAP2 POP POP SWAP3 SWAP2 POP POP JUMP JUMPDEST PUSH2 0xBD8 DUP2 PUSH2 0x7EF JUMP JUMPDEST DUP2 EQ PUSH2 0xBE2 JUMPI PUSH0 DUP1 REVERT JUMPDEST POP JUMP JUMPDEST PUSH0 DUP2 MLOAD SWAP1 POP PUSH2 0xBF3 DUP2 PUSH2 0xBCF JUMP JUMPDEST SWAP3 SWAP2 POP POP JUMP JUMPDEST PUSH0 PUSH1 0x20 DUP3 DUP5 SUB SLT ISZERO PUSH2 0xC0E JUMPI PUSH2 0xC0D PUSH2 0x831 JUMP JUMPDEST JUMPDEST PUSH0 PUSH2 0xC1B DUP5 DUP3 DUP6 ADD PUSH2 0xBE5 JUMP JUMPDEST SWAP2 POP POP SWAP3 SWAP2 POP POP JUMP JUMPDEST PUSH0 DUP2 MLOAD SWAP1 POP PUSH2 0xC32 DUP2 PUSH2 0x842 JUMP JUMPDEST SWAP3 SWAP2 POP POP JUMP JUMPDEST PUSH0 PUSH1 0x20 DUP3 DUP5 SUB SLT ISZERO PUSH2 0xC4D JUMPI PUSH2 0xC4C PUSH2 0x831 JUMP JUMPDEST JUMPDEST PUSH0 PUSH2 0xC5A DUP5 DUP3 DUP6 ADD PUSH2 0xC24 JUMP JUMPDEST SWAP2 POP POP SWAP3 SWAP2 POP POP JUMP JUMPDEST PUSH32 0x4E487B7100000000000000000000000000000000000000000000000000000000 PUSH0 MSTORE PUSH1 0x11 PUSH1 0x4 MSTORE PUSH1 0x24 PUSH0 REVERT JUMPDEST PUSH0 DUP2 PUSH1 0x1 SHR SWAP1 POP SWAP2 SWAP1 POP JUMP JUMPDEST PUSH0 DUP1 DUP3 SWAP2 POP DUP4 SWAP1 POP JUMPDEST PUSH1 0x1 DUP6 GT ISZERO PUSH2 0xCE5 JUMPI DUP1 DUP7 DIV DUP2 GT ISZERO PUSH2 0xCC1 JUMPI PUSH2 0xCC0 PUSH2 0xC63 JUMP JUMPDEST JUMPDEST PUSH1 0x1 DUP6 AND ISZERO PUSH2 0xCD0 JUMPI DUP1 DUP3 MUL SWAP2 POP JUMPDEST DUP1 DUP2 MUL SWAP1 POP PUSH2 0xCDE DUP6 PUSH2 0xC90 JUMP JUMPDEST SWAP5 POP PUSH2 0xCA5 JUMP JUMPDEST SWAP5 POP SWAP5 SWAP3 POP POP POP JUMP JUMPDEST PUSH0 DUP3 PUSH2 0xCFD JUMPI PUSH1 0x1 SWAP1 POP PUSH2 0xDB8 JUMP JUMPDEST DUP2 PUSH2 0xD0A JUMPI PUSH0 SWAP1 POP PUSH2 0xDB8 JUMP JUMPDEST DUP2 PUSH1 0x1 DUP2 EQ PUSH2 0xD20 JUMPI PUSH1 0x2 DUP2 EQ PUSH2 0xD2A JUMPI PUSH2 0xD59 JUMP JUMPDEST PUSH1 0x1 SWAP2 POP POP PUSH2 0xDB8 JUMP JUMPDEST PUSH1 0xFF DUP5 GT ISZERO PUSH2 0xD3C JUMPI PUSH2 0xD3B PUSH2 0xC63 JUMP JUMPDEST JUMPDEST DUP4 PUSH1 0x2 EXP SWAP2 POP DUP5 DUP3 GT ISZERO PUSH2 0xD53 JUMPI PUSH2 0xD52 PUSH2 0xC63 JUMP JUMPDEST JUMPDEST POP PUSH2 0xDB8 JUMP JUMPDEST POP PUSH1 0x20 DUP4 LT PUSH2 0x133 DUP4 LT AND PUSH1 0x4E DUP5 LT PUSH1 0xB DUP5 LT AND OR ISZERO PUSH2 0xD8E JUMPI DUP3 DUP3 EXP SWAP1 POP DUP4 DUP2 GT ISZERO PUSH2 0xD89 JUMPI PUSH2 0xD88 PUSH2 0xC63 JUMP JUMPDEST JUMPDEST PUSH2 0xDB8 JUMP JUMPDEST PUSH2 0xD9B DUP5 DUP5 DUP5 PUSH1 0x1 PUSH2 0xC9C JUMP JUMPDEST SWAP3 POP SWAP1 POP DUP2 DUP5 DIV DUP2 GT ISZERO PUSH2 0xDB2 JUMPI PUSH2 0xDB1 PUSH2 0xC63 JUMP JUMPDEST JUMPDEST DUP2 DUP2 MUL SWAP1 POP JUMPDEST SWAP4 SWAP3 POP POP POP JUMP JUMPDEST PUSH0 PUSH2 0xDC9 DUP3 PUSH2 0x839 JUMP JUMPDEST SWAP2 POP PUSH2 0xDD4 DUP4 PUSH2 0x839 JUMP JUMPDEST SWAP3 POP PUSH2 0xE01 PUSH32 0xFFFFFFFFFFFFFFFFFFFFFFFFFFFFFFFFFFFFFFFFFFFFFFFFFFFFFFFFFFFFFFFF DUP5 DUP5 PUSH2 0xCEE JUMP JUMPDEST SWAP1 POP SWAP3 SWAP2 POP POP JUMP JUMPDEST PUSH0 PUSH2 0xE13 DUP3 PUSH2 0x839 JUMP JUMPDEST SWAP2 POP PUSH2 0xE1E DUP4 PUSH2 0x839 JUMP JUMPDEST SWAP3 POP DUP3 DUP3 MUL PUSH2 0xE2C DUP2 PUSH2 0x839 JUMP JUMPDEST SWAP2 POP DUP3 DUP3 DIV DUP5 EQ DUP4 ISZERO OR PUSH2 0xE43 JUMPI PUSH2 0xE42 PUSH2 0xC63 JUMP JUMPDEST JUMPDEST POP SWAP3 SWAP2 POP POP JUMP JUMPDEST PUSH0 PUSH1 0x40 DUP3 ADD SWAP1 POP PUSH2 0xE5D PUSH0 DUP4 ADD DUP6 PUSH2 0x800 JUMP JUMPDEST PUSH2 0xE6A PUSH1 0x20 DUP4 ADD DUP5 PUSH2 0xAF2 JUMP JUMPDEST SWAP4 SWAP3 POP POP POP JUMP JUMPDEST PUSH0 PUSH1 0x40 DUP3 ADD SWAP1 POP PUSH2 0xE84 PUSH0 DUP4 ADD DUP6 PUSH2 0x800 JUMP JUMPDEST DUP2 DUP2 SUB PUSH1 0x20 DUP4 ADD MSTORE PUSH2 0xE96 DUP2 DUP5 PUSH2 0x8E9 JUMP JUMPDEST SWAP1 POP SWAP4 SWAP3 POP POP POP JUMP INVALID LOG2 PUSH5 0x6970667358 0x22 SLT KECCAK256 PUSH30 0x2E5C57214D6261F37520323173BCCFE4FAE87ED666A5A156848ED0BB7AC9 DUP14 PUSH5 0x736F6C6343 STOP ADDMOD AND STOP CALLER "
				},
				"gasEstimates": {
					"creation": {
						"codeDepositCost": "759400",
						"executionCost": "infinite",
						"totalCost": "infinite"
					},
					"external": {
						"createKnowledge(string)": "infinite",
						"getKnowledge(uint256)": "infinite",
						"getKnowledgeOwner(uint256)": "infinite",
						"getNftContractAddress()": "2537",
						"getTokenContract()": "2516",
						"rewardAtViewing(uint256)": "infinite",
						"rewardForKnowledge(uint256,uint256)": "infinite"
					}
				},
				"methodIdentifiers": {
					"createKnowledge(string)": "6dc32bba",
					"getKnowledge(uint256)": "28e7b2a6",
					"getKnowledgeOwner(uint256)": "ee79c9e2",
					"getNftContractAddress()": "b8959a8b",
					"getTokenContract()": "28b7bede",
					"rewardAtViewing(uint256)": "f20fa822",
					"rewardForKnowledge(uint256,uint256)": "4ccadb69"
				}
			},
			"storageLayout": {
				"storage": [
					{
						"astId": 38,
						"contract": "knowledgeSystemContract.sol:KnowledgeSystem",
						"label": "nftContractAddress",
						"offset": 0,
						"slot": "0",
						"type": "t_address"
					},
					{
						"astId": 40,
						"contract": "knowledgeSystemContract.sol:KnowledgeSystem",
						"label": "tokenContractAddress",
						"offset": 0,
						"slot": "1",
						"type": "t_address"
					},
					{
						"astId": 43,
						"contract": "knowledgeSystemContract.sol:KnowledgeSystem",
						"label": "nftContract",
						"offset": 0,
						"slot": "2",
						"type": "t_contract(IKnowledgeNFT)23"
					},
					{
						"astId": 46,
						"contract": "knowledgeSystemContract.sol:KnowledgeSystem",
						"label": "tokenContract",
						"offset": 0,
						"slot": "3",
						"type": "t_contract(IKnowledgeToken)36"
					},
					{
						"astId": 48,
						"contract": "knowledgeSystemContract.sol:KnowledgeSystem",
						"label": "amountForCreateKnowledge",
						"offset": 0,
						"slot": "4",
						"type": "t_uint256"
					},
					{
						"astId": 50,
						"contract": "knowledgeSystemContract.sol:KnowledgeSystem",
						"label": "amountForViewerAtViewing",
						"offset": 0,
						"slot": "5",
						"type": "t_uint256"
					},
					{
						"astId": 52,
						"contract": "knowledgeSystemContract.sol:KnowledgeSystem",
						"label": "amountForCreaterAtViewing",
						"offset": 0,
						"slot": "6",
						"type": "t_uint256"
					}
				],
				"types": {
					"t_address": {
						"encoding": "inplace",
						"label": "address",
						"numberOfBytes": "20"
					},
					"t_contract(IKnowledgeNFT)23": {
						"encoding": "inplace",
						"label": "contract IKnowledgeNFT",
						"numberOfBytes": "20"
					},
					"t_contract(IKnowledgeToken)36": {
						"encoding": "inplace",
						"label": "contract IKnowledgeToken",
						"numberOfBytes": "20"
					},
					"t_uint256": {
						"encoding": "inplace",
						"label": "uint256",
						"numberOfBytes": "32"
					}
				}
			},
			"userdoc": {
				"kind": "user",
				"methods": {},
				"version": 1
			}
		}
	}
}