{
	"knowledgeSystemContract.sol": {
		"KnowledgeSystem": {
			"abi": [
				{
					"inputs": [
						{
							"internalType": "address",
							"name": "_nftContractAddress",
							"type": "address"
						},
						{
							"internalType": "address",
							"name": "_tokenContractAddress",
							"type": "address"
						}
					],
					"stateMutability": "nonpayable",
					"type": "constructor"
				},
				{
					"inputs": [
						{
							"internalType": "string",
							"name": "knowledge",
							"type": "string"
						}
					],
					"name": "createKnowledge",
					"outputs": [],
					"stateMutability": "nonpayable",
					"type": "function"
				},
				{
					"inputs": [
						{
							"internalType": "uint256",
							"name": "tokenId",
							"type": "uint256"
						}
					],
					"name": "getKnowledge",
					"outputs": [
						{
							"internalType": "string",
							"name": "",
							"type": "string"
						}
					],
					"stateMutability": "view",
					"type": "function"
				},
				{
					"inputs": [
						{
							"internalType": "uint256",
							"name": "tokenId",
							"type": "uint256"
						}
					],
					"name": "getKnowledgeOwner",
					"outputs": [
						{
							"internalType": "address",
							"name": "",
							"type": "address"
						}
					],
					"stateMutability": "view",
					"type": "function"
				},
				{
					"inputs": [
						{
							"internalType": "uint256",
							"name": "tokenId",
							"type": "uint256"
						}
					],
					"name": "rewardAtViewing",
					"outputs": [],
					"stateMutability": "nonpayable",
					"type": "function"
				},
				{
					"inputs": [
						{
							"internalType": "uint256",
							"name": "tokenId",
							"type": "uint256"
						},
						{
							"internalType": "uint256",
							"name": "amount",
							"type": "uint256"
						}
					],
					"name": "rewardForKnowledge",
					"outputs": [],
					"stateMutability": "nonpayable",
					"type": "function"
				}
			],
			"devdoc": {
				"kind": "dev",
				"methods": {},
				"version": 1
			},
			"evm": {
				"assembly": "    /* \"knowledgeSystemContract.sol\":663:2899  contract KnowledgeSystem {... */\n  mstore(0x40, 0x80)\n    /* \"knowledgeSystemContract.sol\":1079:1662  constructor(address _nftContractAddress, address _tokenContractAddress) {... */\n  callvalue\n  dup1\n  iszero\n  tag_1\n  jumpi\n  0x00\n  dup1\n  revert\ntag_1:\n  pop\n  mload(0x40)\n  sub(codesize, bytecodeSize)\n  dup1\n  bytecodeSize\n  dup4\n  codecopy\n  dup2\n  dup2\n  add\n  0x40\n  mstore\n  dup2\n  add\n  swap1\n  tag_2\n  swap2\n  swap1\n  tag_3\n  jump\t// in\ntag_2:\n    /* \"knowledgeSystemContract.sol\":1278:1297  _nftContractAddress */\n  dup2\n    /* \"knowledgeSystemContract.sol\":1257:1275  nftContractAddress */\n  0x00\n  dup1\n    /* \"knowledgeSystemContract.sol\":1257:1297  nftContractAddress = _nftContractAddress */\n  0x0100\n  exp\n  dup2\n  sload\n  dup2\n  0xffffffffffffffffffffffffffffffffffffffff\n  mul\n  not\n  and\n  swap1\n  dup4\n  0xffffffffffffffffffffffffffffffffffffffff\n  and\n  mul\n  or\n  swap1\n  sstore\n  pop\n    /* \"knowledgeSystemContract.sol\":1330:1351  _tokenContractAddress */\n  dup1\n    /* \"knowledgeSystemContract.sol\":1307:1327  tokenContractAddress */\n  0x01\n  0x00\n    /* \"knowledgeSystemContract.sol\":1307:1351  tokenContractAddress = _tokenContractAddress */\n  0x0100\n  exp\n  dup2\n  sload\n  dup2\n  0xffffffffffffffffffffffffffffffffffffffff\n  mul\n  not\n  and\n  swap1\n  dup4\n  0xffffffffffffffffffffffffffffffffffffffff\n  and\n  mul\n  or\n  swap1\n  sstore\n  pop\n    /* \"knowledgeSystemContract.sol\":1389:1407  nftContractAddress */\n  0x00\n  dup1\n  sload\n  swap1\n  0x0100\n  exp\n  swap1\n  div\n  0xffffffffffffffffffffffffffffffffffffffff\n  and\n    /* \"knowledgeSystemContract.sol\":1361:1372  nftContract */\n  0x02\n  0x00\n    /* \"knowledgeSystemContract.sol\":1361:1408  nftContract = IKnowledgeNFT(nftContractAddress) */\n  0x0100\n  exp\n  dup2\n  sload\n  dup2\n  0xffffffffffffffffffffffffffffffffffffffff\n  mul\n  not\n  and\n  swap1\n  dup4\n  0xffffffffffffffffffffffffffffffffffffffff\n  and\n  mul\n  or\n  swap1\n  sstore\n  pop\n    /* \"knowledgeSystemContract.sol\":1450:1470  tokenContractAddress */\n  0x01\n  0x00\n  swap1\n  sload\n  swap1\n  0x0100\n  exp\n  swap1\n  div\n  0xffffffffffffffffffffffffffffffffffffffff\n  and\n    /* \"knowledgeSystemContract.sol\":1418:1431  tokenContract */\n  0x03\n  0x00\n    /* \"knowledgeSystemContract.sol\":1418:1471  tokenContract = IKnowledgeToken(tokenContractAddress) */\n  0x0100\n  exp\n  dup2\n  sload\n  dup2\n  0xffffffffffffffffffffffffffffffffffffffff\n  mul\n  not\n  and\n  swap1\n  dup4\n  0xffffffffffffffffffffffffffffffffffffffff\n  and\n  mul\n  or\n  swap1\n  sstore\n  pop\n    /* \"knowledgeSystemContract.sol\":1575:1577  20 */\n  0x14\n    /* \"knowledgeSystemContract.sol\":1548:1572  amountForCreateKnowledge */\n  0x04\n    /* \"knowledgeSystemContract.sol\":1548:1577  amountForCreateKnowledge = 20 */\n  dup2\n  swap1\n  sstore\n  pop\n    /* \"knowledgeSystemContract.sol\":1614:1615  5 */\n  0x05\n    /* \"knowledgeSystemContract.sol\":1587:1611  amountForViewerAtViewing */\n  dup1\n    /* \"knowledgeSystemContract.sol\":1587:1615  amountForViewerAtViewing = 5 */\n  dup2\n  swap1\n  sstore\n  pop\n    /* \"knowledgeSystemContract.sol\":1653:1655  10 */\n  0x0a\n    /* \"knowledgeSystemContract.sol\":1625:1650  amountForCreaterAtViewing */\n  0x06\n    /* \"knowledgeSystemContract.sol\":1625:1655  amountForCreaterAtViewing = 10 */\n  dup2\n  swap1\n  sstore\n  pop\n    /* \"knowledgeSystemContract.sol\":1079:1662  constructor(address _nftContractAddress, address _tokenContractAddress) {... */\n  pop\n  pop\n    /* \"knowledgeSystemContract.sol\":663:2899  contract KnowledgeSystem {... */\n  jump(tag_6)\n    /* \"#utility.yul\":88:205   */\ntag_8:\n    /* \"#utility.yul\":197:198   */\n  0x00\n    /* \"#utility.yul\":194:195   */\n  dup1\n    /* \"#utility.yul\":187:199   */\n  revert\n    /* \"#utility.yul\":334:460   */\ntag_10:\n    /* \"#utility.yul\":371:378   */\n  0x00\n    /* \"#utility.yul\":411:453   */\n  0xffffffffffffffffffffffffffffffffffffffff\n    /* \"#utility.yul\":404:409   */\n  dup3\n    /* \"#utility.yul\":400:454   */\n  and\n    /* \"#utility.yul\":389:454   */\n  swap1\n  pop\n    /* \"#utility.yul\":334:460   */\n  swap2\n  swap1\n  pop\n  jump\t// out\n    /* \"#utility.yul\":466:562   */\ntag_11:\n    /* \"#utility.yul\":503:510   */\n  0x00\n    /* \"#utility.yul\":532:556   */\n  tag_20\n    /* \"#utility.yul\":550:555   */\n  dup3\n    /* \"#utility.yul\":532:556   */\n  tag_10\n  jump\t// in\ntag_20:\n    /* \"#utility.yul\":521:556   */\n  swap1\n  pop\n    /* \"#utility.yul\":466:562   */\n  swap2\n  swap1\n  pop\n  jump\t// out\n    /* \"#utility.yul\":568:690   */\ntag_12:\n    /* \"#utility.yul\":641:665   */\n  tag_22\n    /* \"#utility.yul\":659:664   */\n  dup2\n    /* \"#utility.yul\":641:665   */\n  tag_11\n  jump\t// in\ntag_22:\n    /* \"#utility.yul\":634:639   */\n  dup2\n    /* \"#utility.yul\":631:666   */\n  eq\n    /* \"#utility.yul\":621:684   */\n  tag_23\n  jumpi\n    /* \"#utility.yul\":680:681   */\n  0x00\n    /* \"#utility.yul\":677:678   */\n  dup1\n    /* \"#utility.yul\":670:682   */\n  revert\n    /* \"#utility.yul\":621:684   */\ntag_23:\n    /* \"#utility.yul\":568:690   */\n  pop\n  jump\t// out\n    /* \"#utility.yul\":696:839   */\ntag_13:\n    /* \"#utility.yul\":753:758   */\n  0x00\n    /* \"#utility.yul\":784:790   */\n  dup2\n    /* \"#utility.yul\":778:791   */\n  mload\n    /* \"#utility.yul\":769:791   */\n  swap1\n  pop\n    /* \"#utility.yul\":800:833   */\n  tag_25\n    /* \"#utility.yul\":827:832   */\n  dup2\n    /* \"#utility.yul\":800:833   */\n  tag_12\n  jump\t// in\ntag_25:\n    /* \"#utility.yul\":696:839   */\n  swap3\n  swap2\n  pop\n  pop\n  jump\t// out\n    /* \"#utility.yul\":845:1352   */\ntag_3:\n    /* \"#utility.yul\":924:930   */\n  0x00\n    /* \"#utility.yul\":932:938   */\n  dup1\n    /* \"#utility.yul\":981:983   */\n  0x40\n    /* \"#utility.yul\":969:978   */\n  dup4\n    /* \"#utility.yul\":960:967   */\n  dup6\n    /* \"#utility.yul\":956:979   */\n  sub\n    /* \"#utility.yul\":952:984   */\n  slt\n    /* \"#utility.yul\":949:1068   */\n  iszero\n  tag_27\n  jumpi\n    /* \"#utility.yul\":987:1066   */\n  tag_28\n  tag_8\n  jump\t// in\ntag_28:\n    /* \"#utility.yul\":949:1068   */\ntag_27:\n    /* \"#utility.yul\":1107:1108   */\n  0x00\n    /* \"#utility.yul\":1132:1196   */\n  tag_29\n    /* \"#utility.yul\":1188:1195   */\n  dup6\n    /* \"#utility.yul\":1179:1185   */\n  dup3\n    /* \"#utility.yul\":1168:1177   */\n  dup7\n    /* \"#utility.yul\":1164:1186   */\n  add\n    /* \"#utility.yul\":1132:1196   */\n  tag_13\n  jump\t// in\ntag_29:\n    /* \"#utility.yul\":1122:1196   */\n  swap3\n  pop\n    /* \"#utility.yul\":1078:1206   */\n  pop\n    /* \"#utility.yul\":1245:1247   */\n  0x20\n    /* \"#utility.yul\":1271:1335   */\n  tag_30\n    /* \"#utility.yul\":1327:1334   */\n  dup6\n    /* \"#utility.yul\":1318:1324   */\n  dup3\n    /* \"#utility.yul\":1307:1316   */\n  dup7\n    /* \"#utility.yul\":1303:1325   */\n  add\n    /* \"#utility.yul\":1271:1335   */\n  tag_13\n  jump\t// in\ntag_30:\n    /* \"#utility.yul\":1261:1335   */\n  swap2\n  pop\n    /* \"#utility.yul\":1216:1345   */\n  pop\n    /* \"#utility.yul\":845:1352   */\n  swap3\n  pop\n  swap3\n  swap1\n  pop\n  jump\t// out\n    /* \"knowledgeSystemContract.sol\":663:2899  contract KnowledgeSystem {... */\ntag_6:\n  dataSize(sub_0)\n  dup1\n  dataOffset(sub_0)\n  0x00\n  codecopy\n  0x00\n  return\nstop\n\nsub_0: assembly {\n        /* \"knowledgeSystemContract.sol\":663:2899  contract KnowledgeSystem {... */\n      mstore(0x40, 0x80)\n      callvalue\n      dup1\n      iszero\n      tag_1\n      jumpi\n      0x00\n      dup1\n      revert\n    tag_1:\n      pop\n      jumpi(tag_2, lt(calldatasize, 0x04))\n      shr(0xe0, calldataload(0x00))\n      dup1\n      0x28e7b2a6\n      eq\n      tag_3\n      jumpi\n      dup1\n      0x4ccadb69\n      eq\n      tag_4\n      jumpi\n      dup1\n      0x6dc32bba\n      eq\n      tag_5\n      jumpi\n      dup1\n      0xee79c9e2\n      eq\n      tag_6\n      jumpi\n      dup1\n      0xf20fa822\n      eq\n      tag_7\n      jumpi\n    tag_2:\n      0x00\n      dup1\n      revert\n        /* \"knowledgeSystemContract.sol\":1990:2122  function getKnowledge(uint256 tokenId) public view returns (string memory) {... */\n    tag_3:\n      tag_8\n      0x04\n      dup1\n      calldatasize\n      sub\n      dup2\n      add\n      swap1\n      tag_9\n      swap2\n      swap1\n      tag_10\n      jump\t// in\n    tag_9:\n      tag_11\n      jump\t// in\n    tag_8:\n      mload(0x40)\n      tag_12\n      swap2\n      swap1\n      tag_13\n      jump\t// in\n    tag_12:\n      mload(0x40)\n      dup1\n      swap2\n      sub\n      swap1\n      return\n        /* \"knowledgeSystemContract.sol\":2676:2897  function rewardForKnowledge(uint256 tokenId, uint256 amount) public {... */\n    tag_4:\n      tag_14\n      0x04\n      dup1\n      calldatasize\n      sub\n      dup2\n      add\n      swap1\n      tag_15\n      swap2\n      swap1\n      tag_16\n      jump\t// in\n    tag_15:\n      tag_17\n      jump\t// in\n    tag_14:\n      stop\n        /* \"knowledgeSystemContract.sol\":1697:1955  function createKnowledge(string memory knowledge) public {... */\n    tag_5:\n      tag_18\n      0x04\n      dup1\n      calldatasize\n      sub\n      dup2\n      add\n      swap1\n      tag_19\n      swap2\n      swap1\n      tag_20\n      jump\t// in\n    tag_19:\n      tag_21\n      jump\t// in\n    tag_18:\n      stop\n        /* \"knowledgeSystemContract.sol\":2187:2313  function getKnowledgeOwner(uint256 tokenId) public view returns (address) {... */\n    tag_6:\n      tag_22\n      0x04\n      dup1\n      calldatasize\n      sub\n      dup2\n      add\n      swap1\n      tag_23\n      swap2\n      swap1\n      tag_10\n      jump\t// in\n    tag_23:\n      tag_24\n      jump\t// in\n    tag_22:\n      mload(0x40)\n      tag_25\n      swap2\n      swap1\n      tag_26\n      jump\t// in\n    tag_25:\n      mload(0x40)\n      dup1\n      swap2\n      sub\n      swap1\n      return\n        /* \"knowledgeSystemContract.sol\":2384:2605  function rewardAtViewing(uint256 tokenId) public {... */\n    tag_7:\n      tag_27\n      0x04\n      dup1\n      calldatasize\n      sub\n      dup2\n      add\n      swap1\n      tag_28\n      swap2\n      swap1\n      tag_10\n      jump\t// in\n    tag_28:\n      tag_29\n      jump\t// in\n    tag_27:\n      stop\n        /* \"knowledgeSystemContract.sol\":1990:2122  function getKnowledge(uint256 tokenId) public view returns (string memory) {... */\n    tag_11:\n        /* \"knowledgeSystemContract.sol\":2050:2063  string memory */\n      0x60\n        /* \"knowledgeSystemContract.sol\":2082:2093  nftContract */\n      0x02\n      0x00\n      swap1\n      sload\n      swap1\n      0x0100\n      exp\n      swap1\n      div\n      0xffffffffffffffffffffffffffffffffffffffff\n      and\n        /* \"knowledgeSystemContract.sol\":2082:2106  nftContract.getKnowledge */\n      0xffffffffffffffffffffffffffffffffffffffff\n      and\n      0x28e7b2a6\n        /* \"knowledgeSystemContract.sol\":2107:2114  tokenId */\n      dup4\n        /* \"knowledgeSystemContract.sol\":2082:2115  nftContract.getKnowledge(tokenId) */\n      mload(0x40)\n      dup3\n      0xffffffff\n      and\n      0xe0\n      shl\n      dup2\n      mstore\n      0x04\n      add\n      tag_31\n      swap2\n      swap1\n      tag_32\n      jump\t// in\n    tag_31:\n      0x00\n      mload(0x40)\n      dup1\n      dup4\n      sub\n      dup2\n      dup7\n      gas\n      staticcall\n      iszero\n      dup1\n      iszero\n      tag_34\n      jumpi\n      returndatasize\n      0x00\n      dup1\n      returndatacopy\n      revert(0x00, returndatasize)\n    tag_34:\n      pop\n      pop\n      pop\n      pop\n      mload(0x40)\n      returndatasize\n      0x00\n      dup3\n      returndatacopy\n      returndatasize\n      not(0x1f)\n      0x1f\n      dup3\n      add\n      and\n      dup3\n      add\n      dup1\n      0x40\n      mstore\n      pop\n      dup2\n      add\n      swap1\n      tag_35\n      swap2\n      swap1\n      tag_36\n      jump\t// in\n    tag_35:\n        /* \"knowledgeSystemContract.sol\":2075:2115  return nftContract.getKnowledge(tokenId) */\n      swap1\n      pop\n        /* \"knowledgeSystemContract.sol\":1990:2122  function getKnowledge(uint256 tokenId) public view returns (string memory) {... */\n      swap2\n      swap1\n      pop\n      jump\t// out\n        /* \"knowledgeSystemContract.sol\":2676:2897  function rewardForKnowledge(uint256 tokenId, uint256 amount) public {... */\n    tag_17:\n        /* \"knowledgeSystemContract.sol\":2754:2774  address ownerAddress */\n      0x00\n        /* \"knowledgeSystemContract.sol\":2777:2788  nftContract */\n      0x02\n      0x00\n      swap1\n      sload\n      swap1\n      0x0100\n      exp\n      swap1\n      div\n      0xffffffffffffffffffffffffffffffffffffffff\n      and\n        /* \"knowledgeSystemContract.sol\":2777:2796  nftContract.ownerOf */\n      0xffffffffffffffffffffffffffffffffffffffff\n      and\n      0x6352211e\n        /* \"knowledgeSystemContract.sol\":2797:2804  tokenId */\n      dup5\n        /* \"knowledgeSystemContract.sol\":2777:2805  nftContract.ownerOf(tokenId) */\n      mload(0x40)\n      dup3\n      0xffffffff\n      and\n      0xe0\n      shl\n      dup2\n      mstore\n      0x04\n      add\n      tag_38\n      swap2\n      swap1\n      tag_32\n      jump\t// in\n    tag_38:\n      0x20\n      mload(0x40)\n      dup1\n      dup4\n      sub\n      dup2\n      dup7\n      gas\n      staticcall\n      iszero\n      dup1\n      iszero\n      tag_40\n      jumpi\n      returndatasize\n      0x00\n      dup1\n      returndatacopy\n      revert(0x00, returndatasize)\n    tag_40:\n      pop\n      pop\n      pop\n      pop\n      mload(0x40)\n      returndatasize\n      not(0x1f)\n      0x1f\n      dup3\n      add\n      and\n      dup3\n      add\n      dup1\n      0x40\n      mstore\n      pop\n      dup2\n      add\n      swap1\n      tag_41\n      swap2\n      swap1\n      tag_42\n      jump\t// in\n    tag_41:\n        /* \"knowledgeSystemContract.sol\":2754:2805  address ownerAddress = nftContract.ownerOf(tokenId) */\n      swap1\n      pop\n        /* \"knowledgeSystemContract.sol\":2815:2828  tokenContract */\n      0x03\n      0x00\n      swap1\n      sload\n      swap1\n      0x0100\n      exp\n      swap1\n      div\n      0xffffffffffffffffffffffffffffffffffffffff\n      and\n        /* \"knowledgeSystemContract.sol\":2815:2835  tokenContract.reward */\n      0xffffffffffffffffffffffffffffffffffffffff\n      and\n      0x21670f22\n        /* \"knowledgeSystemContract.sol\":2836:2848  ownerAddress */\n      dup3\n        /* \"knowledgeSystemContract.sol\":2865:2878  tokenContract */\n      0x03\n      0x00\n      swap1\n      sload\n      swap1\n      0x0100\n      exp\n      swap1\n      div\n      0xffffffffffffffffffffffffffffffffffffffff\n      and\n        /* \"knowledgeSystemContract.sol\":2865:2887  tokenContract.decimals */\n      0xffffffffffffffffffffffffffffffffffffffff\n      and\n      0x313ce567\n        /* \"knowledgeSystemContract.sol\":2865:2889  tokenContract.decimals() */\n      mload(0x40)\n      dup2\n      0xffffffff\n      and\n      0xe0\n      shl\n      dup2\n      mstore\n      0x04\n      add\n      0x20\n      mload(0x40)\n      dup1\n      dup4\n      sub\n      dup2\n      dup7\n      gas\n      staticcall\n      iszero\n      dup1\n      iszero\n      tag_44\n      jumpi\n      returndatasize\n      0x00\n      dup1\n      returndatacopy\n      revert(0x00, returndatasize)\n    tag_44:\n      pop\n      pop\n      pop\n      pop\n      mload(0x40)\n      returndatasize\n      not(0x1f)\n      0x1f\n      dup3\n      add\n      and\n      dup3\n      add\n      dup1\n      0x40\n      mstore\n      pop\n      dup2\n      add\n      swap1\n      tag_45\n      swap2\n      swap1\n      tag_46\n      jump\t// in\n    tag_45:\n        /* \"knowledgeSystemContract.sol\":2859:2861  10 */\n      0x0a\n        /* \"knowledgeSystemContract.sol\":2859:2889  10 ** tokenContract.decimals() */\n      tag_47\n      swap2\n      swap1\n      tag_48\n      jump\t// in\n    tag_47:\n        /* \"knowledgeSystemContract.sol\":2850:2856  amount */\n      dup6\n        /* \"knowledgeSystemContract.sol\":2850:2889  amount * 10 ** tokenContract.decimals() */\n      tag_49\n      swap2\n      swap1\n      tag_50\n      jump\t// in\n    tag_49:\n        /* \"knowledgeSystemContract.sol\":2815:2890  tokenContract.reward(ownerAddress, amount * 10 ** tokenContract.decimals()) */\n      mload(0x40)\n      dup4\n      0xffffffff\n      and\n      0xe0\n      shl\n      dup2\n      mstore\n      0x04\n      add\n      tag_51\n      swap3\n      swap2\n      swap1\n      tag_52\n      jump\t// in\n    tag_51:\n      0x00\n      mload(0x40)\n      dup1\n      dup4\n      sub\n      dup2\n      0x00\n      dup8\n      dup1\n      extcodesize\n      iszero\n      dup1\n      iszero\n      tag_53\n      jumpi\n      0x00\n      dup1\n      revert\n    tag_53:\n      pop\n      gas\n      call\n      iszero\n      dup1\n      iszero\n      tag_55\n      jumpi\n      returndatasize\n      0x00\n      dup1\n      returndatacopy\n      revert(0x00, returndatasize)\n    tag_55:\n      pop\n      pop\n      pop\n      pop\n        /* \"knowledgeSystemContract.sol\":2744:2897  {... */\n      pop\n        /* \"knowledgeSystemContract.sol\":2676:2897  function rewardForKnowledge(uint256 tokenId, uint256 amount) public {... */\n      pop\n      pop\n      jump\t// out\n        /* \"knowledgeSystemContract.sol\":1697:1955  function createKnowledge(string memory knowledge) public {... */\n    tag_21:\n        /* \"knowledgeSystemContract.sol\":1764:1778  uint256 amount */\n      0x00\n        /* \"knowledgeSystemContract.sol\":1814:1827  tokenContract */\n      0x03\n      0x00\n      swap1\n      sload\n      swap1\n      0x0100\n      exp\n      swap1\n      div\n      0xffffffffffffffffffffffffffffffffffffffff\n      and\n        /* \"knowledgeSystemContract.sol\":1814:1836  tokenContract.decimals */\n      0xffffffffffffffffffffffffffffffffffffffff\n      and\n      0x313ce567\n        /* \"knowledgeSystemContract.sol\":1814:1838  tokenContract.decimals() */\n      mload(0x40)\n      dup2\n      0xffffffff\n      and\n      0xe0\n      shl\n      dup2\n      mstore\n      0x04\n      add\n      0x20\n      mload(0x40)\n      dup1\n      dup4\n      sub\n      dup2\n      dup7\n      gas\n      staticcall\n      iszero\n      dup1\n      iszero\n      tag_58\n      jumpi\n      returndatasize\n      0x00\n      dup1\n      returndatacopy\n      revert(0x00, returndatasize)\n    tag_58:\n      pop\n      pop\n      pop\n      pop\n      mload(0x40)\n      returndatasize\n      not(0x1f)\n      0x1f\n      dup3\n      add\n      and\n      dup3\n      add\n      dup1\n      0x40\n      mstore\n      pop\n      dup2\n      add\n      swap1\n      tag_59\n      swap2\n      swap1\n      tag_46\n      jump\t// in\n    tag_59:\n        /* \"knowledgeSystemContract.sol\":1808:1810  10 */\n      0x0a\n        /* \"knowledgeSystemContract.sol\":1808:1838  10 ** tokenContract.decimals() */\n      tag_60\n      swap2\n      swap1\n      tag_48\n      jump\t// in\n    tag_60:\n        /* \"knowledgeSystemContract.sol\":1781:1805  amountForCreateKnowledge */\n      sload(0x04)\n        /* \"knowledgeSystemContract.sol\":1781:1838  amountForCreateKnowledge * 10 ** tokenContract.decimals() */\n      tag_61\n      swap2\n      swap1\n      tag_50\n      jump\t// in\n    tag_61:\n        /* \"knowledgeSystemContract.sol\":1764:1838  uint256 amount = amountForCreateKnowledge * 10 ** tokenContract.decimals() */\n      swap1\n      pop\n        /* \"knowledgeSystemContract.sol\":1848:1859  nftContract */\n      0x02\n      0x00\n      swap1\n      sload\n      swap1\n      0x0100\n      exp\n      swap1\n      div\n      0xffffffffffffffffffffffffffffffffffffffff\n      and\n        /* \"knowledgeSystemContract.sol\":1848:1875  nftContract.createKnowlegde */\n      0xffffffffffffffffffffffffffffffffffffffff\n      and\n      0xd15aecd3\n        /* \"knowledgeSystemContract.sol\":1876:1886  msg.sender */\n      caller\n        /* \"knowledgeSystemContract.sol\":1888:1897  knowledge */\n      dup5\n        /* \"knowledgeSystemContract.sol\":1848:1898  nftContract.createKnowlegde(msg.sender, knowledge) */\n      mload(0x40)\n      dup4\n      0xffffffff\n      and\n      0xe0\n      shl\n      dup2\n      mstore\n      0x04\n      add\n      tag_62\n      swap3\n      swap2\n      swap1\n      tag_63\n      jump\t// in\n    tag_62:\n      0x00\n      mload(0x40)\n      dup1\n      dup4\n      sub\n      dup2\n      0x00\n      dup8\n      dup1\n      extcodesize\n      iszero\n      dup1\n      iszero\n      tag_64\n      jumpi\n      0x00\n      dup1\n      revert\n    tag_64:\n      pop\n      gas\n      call\n      iszero\n      dup1\n      iszero\n      tag_66\n      jumpi\n      returndatasize\n      0x00\n      dup1\n      returndatacopy\n      revert(0x00, returndatasize)\n    tag_66:\n      pop\n      pop\n      pop\n      pop\n        /* \"knowledgeSystemContract.sol\":1908:1921  tokenContract */\n      0x03\n      0x00\n      swap1\n      sload\n      swap1\n      0x0100\n      exp\n      swap1\n      div\n      0xffffffffffffffffffffffffffffffffffffffff\n      and\n        /* \"knowledgeSystemContract.sol\":1908:1928  tokenContract.reward */\n      0xffffffffffffffffffffffffffffffffffffffff\n      and\n      0x21670f22\n        /* \"knowledgeSystemContract.sol\":1929:1939  msg.sender */\n      caller\n        /* \"knowledgeSystemContract.sol\":1941:1947  amount */\n      dup4\n        /* \"knowledgeSystemContract.sol\":1908:1948  tokenContract.reward(msg.sender, amount) */\n      mload(0x40)\n      dup4\n      0xffffffff\n      and\n      0xe0\n      shl\n      dup2\n      mstore\n      0x04\n      add\n      tag_67\n      swap3\n      swap2\n      swap1\n      tag_52\n      jump\t// in\n    tag_67:\n      0x00\n      mload(0x40)\n      dup1\n      dup4\n      sub\n      dup2\n      0x00\n      dup8\n      dup1\n      extcodesize\n      iszero\n      dup1\n      iszero\n      tag_68\n      jumpi\n      0x00\n      dup1\n      revert\n    tag_68:\n      pop\n      gas\n      call\n      iszero\n      dup1\n      iszero\n      tag_70\n      jumpi\n      returndatasize\n      0x00\n      dup1\n      returndatacopy\n      revert(0x00, returndatasize)\n    tag_70:\n      pop\n      pop\n      pop\n      pop\n        /* \"knowledgeSystemContract.sol\":1754:1955  {... */\n      pop\n        /* \"knowledgeSystemContract.sol\":1697:1955  function createKnowledge(string memory knowledge) public {... */\n      pop\n      jump\t// out\n        /* \"knowledgeSystemContract.sol\":2187:2313  function getKnowledgeOwner(uint256 tokenId) public view returns (address) {... */\n    tag_24:\n        /* \"knowledgeSystemContract.sol\":2252:2259  address */\n      0x00\n        /* \"knowledgeSystemContract.sol\":2278:2289  nftContract */\n      0x02\n      0x00\n      swap1\n      sload\n      swap1\n      0x0100\n      exp\n      swap1\n      div\n      0xffffffffffffffffffffffffffffffffffffffff\n      and\n        /* \"knowledgeSystemContract.sol\":2278:2297  nftContract.ownerOf */\n      0xffffffffffffffffffffffffffffffffffffffff\n      and\n      0x6352211e\n        /* \"knowledgeSystemContract.sol\":2298:2305  tokenId */\n      dup4\n        /* \"knowledgeSystemContract.sol\":2278:2306  nftContract.ownerOf(tokenId) */\n      mload(0x40)\n      dup3\n      0xffffffff\n      and\n      0xe0\n      shl\n      dup2\n      mstore\n      0x04\n      add\n      tag_72\n      swap2\n      swap1\n      tag_32\n      jump\t// in\n    tag_72:\n      0x20\n      mload(0x40)\n      dup1\n      dup4\n      sub\n      dup2\n      dup7\n      gas\n      staticcall\n      iszero\n      dup1\n      iszero\n      tag_74\n      jumpi\n      returndatasize\n      0x00\n      dup1\n      returndatacopy\n      revert(0x00, returndatasize)\n    tag_74:\n      pop\n      pop\n      pop\n      pop\n      mload(0x40)\n      returndatasize\n      not(0x1f)\n      0x1f\n      dup3\n      add\n      and\n      dup3\n      add\n      dup1\n      0x40\n      mstore\n      pop\n      dup2\n      add\n      swap1\n      tag_75\n      swap2\n      swap1\n      tag_42\n      jump\t// in\n    tag_75:\n        /* \"knowledgeSystemContract.sol\":2271:2306  return nftContract.ownerOf(tokenId) */\n      swap1\n      pop\n        /* \"knowledgeSystemContract.sol\":2187:2313  function getKnowledgeOwner(uint256 tokenId) public view returns (address) {... */\n      swap2\n      swap1\n      pop\n      jump\t// out\n        /* \"knowledgeSystemContract.sol\":2384:2605  function rewardAtViewing(uint256 tokenId) public {... */\n    tag_29:\n        /* \"knowledgeSystemContract.sol\":2443:2456  tokenContract */\n      0x03\n      0x00\n      swap1\n      sload\n      swap1\n      0x0100\n      exp\n      swap1\n      div\n      0xffffffffffffffffffffffffffffffffffffffff\n      and\n        /* \"knowledgeSystemContract.sol\":2443:2463  tokenContract.reward */\n      0xffffffffffffffffffffffffffffffffffffffff\n      and\n      0x21670f22\n        /* \"knowledgeSystemContract.sol\":2464:2474  msg.sender */\n      caller\n        /* \"knowledgeSystemContract.sol\":2509:2522  tokenContract */\n      0x03\n      0x00\n      swap1\n      sload\n      swap1\n      0x0100\n      exp\n      swap1\n      div\n      0xffffffffffffffffffffffffffffffffffffffff\n      and\n        /* \"knowledgeSystemContract.sol\":2509:2531  tokenContract.decimals */\n      0xffffffffffffffffffffffffffffffffffffffff\n      and\n      0x313ce567\n        /* \"knowledgeSystemContract.sol\":2509:2533  tokenContract.decimals() */\n      mload(0x40)\n      dup2\n      0xffffffff\n      and\n      0xe0\n      shl\n      dup2\n      mstore\n      0x04\n      add\n      0x20\n      mload(0x40)\n      dup1\n      dup4\n      sub\n      dup2\n      dup7\n      gas\n      staticcall\n      iszero\n      dup1\n      iszero\n      tag_78\n      jumpi\n      returndatasize\n      0x00\n      dup1\n      returndatacopy\n      revert(0x00, returndatasize)\n    tag_78:\n      pop\n      pop\n      pop\n      pop\n      mload(0x40)\n      returndatasize\n      not(0x1f)\n      0x1f\n      dup3\n      add\n      and\n      dup3\n      add\n      dup1\n      0x40\n      mstore\n      pop\n      dup2\n      add\n      swap1\n      tag_79\n      swap2\n      swap1\n      tag_46\n      jump\t// in\n    tag_79:\n        /* \"knowledgeSystemContract.sol\":2503:2505  10 */\n      0x0a\n        /* \"knowledgeSystemContract.sol\":2503:2533  10 ** tokenContract.decimals() */\n      tag_80\n      swap2\n      swap1\n      tag_48\n      jump\t// in\n    tag_80:\n        /* \"knowledgeSystemContract.sol\":2476:2500  amountForViewerAtViewing */\n      sload(0x05)\n        /* \"knowledgeSystemContract.sol\":2476:2533  amountForViewerAtViewing * 10 ** tokenContract.decimals() */\n      tag_81\n      swap2\n      swap1\n      tag_50\n      jump\t// in\n    tag_81:\n        /* \"knowledgeSystemContract.sol\":2443:2534  tokenContract.reward(msg.sender, amountForViewerAtViewing * 10 ** tokenContract.decimals()) */\n      mload(0x40)\n      dup4\n      0xffffffff\n      and\n      0xe0\n      shl\n      dup2\n      mstore\n      0x04\n      add\n      tag_82\n      swap3\n      swap2\n      swap1\n      tag_52\n      jump\t// in\n    tag_82:\n      0x00\n      mload(0x40)\n      dup1\n      dup4\n      sub\n      dup2\n      0x00\n      dup8\n      dup1\n      extcodesize\n      iszero\n      dup1\n      iszero\n      tag_83\n      jumpi\n      0x00\n      dup1\n      revert\n    tag_83:\n      pop\n      gas\n      call\n      iszero\n      dup1\n      iszero\n      tag_85\n      jumpi\n      returndatasize\n      0x00\n      dup1\n      returndatacopy\n      revert(0x00, returndatasize)\n    tag_85:\n      pop\n      pop\n      pop\n      pop\n        /* \"knowledgeSystemContract.sol\":2544:2598  rewardForKnowledge(tokenId, amountForCreaterAtViewing) */\n      tag_86\n        /* \"knowledgeSystemContract.sol\":2563:2570  tokenId */\n      dup2\n        /* \"knowledgeSystemContract.sol\":2572:2597  amountForCreaterAtViewing */\n      sload(0x06)\n        /* \"knowledgeSystemContract.sol\":2544:2562  rewardForKnowledge */\n      tag_17\n        /* \"knowledgeSystemContract.sol\":2544:2598  rewardForKnowledge(tokenId, amountForCreaterAtViewing) */\n      jump\t// in\n    tag_86:\n        /* \"knowledgeSystemContract.sol\":2384:2605  function rewardAtViewing(uint256 tokenId) public {... */\n      pop\n      jump\t// out\n        /* \"#utility.yul\":7:82   */\n    tag_87:\n        /* \"#utility.yul\":40:46   */\n      0x00\n        /* \"#utility.yul\":73:75   */\n      0x40\n        /* \"#utility.yul\":67:76   */\n      mload\n        /* \"#utility.yul\":57:76   */\n      swap1\n      pop\n        /* \"#utility.yul\":7:82   */\n      swap1\n      jump\t// out\n        /* \"#utility.yul\":88:205   */\n    tag_88:\n        /* \"#utility.yul\":197:198   */\n      0x00\n        /* \"#utility.yul\":194:195   */\n      dup1\n        /* \"#utility.yul\":187:199   */\n      revert\n        /* \"#utility.yul\":211:328   */\n    tag_89:\n        /* \"#utility.yul\":320:321   */\n      0x00\n        /* \"#utility.yul\":317:318   */\n      dup1\n        /* \"#utility.yul\":310:322   */\n      revert\n        /* \"#utility.yul\":334:411   */\n    tag_90:\n        /* \"#utility.yul\":371:378   */\n      0x00\n        /* \"#utility.yul\":400:405   */\n      dup2\n        /* \"#utility.yul\":389:405   */\n      swap1\n      pop\n        /* \"#utility.yul\":334:411   */\n      swap2\n      swap1\n      pop\n      jump\t// out\n        /* \"#utility.yul\":417:539   */\n    tag_91:\n        /* \"#utility.yul\":490:514   */\n      tag_126\n        /* \"#utility.yul\":508:513   */\n      dup2\n        /* \"#utility.yul\":490:514   */\n      tag_90\n      jump\t// in\n    tag_126:\n        /* \"#utility.yul\":483:488   */\n      dup2\n        /* \"#utility.yul\":480:515   */\n      eq\n        /* \"#utility.yul\":470:533   */\n      tag_127\n      jumpi\n        /* \"#utility.yul\":529:530   */\n      0x00\n        /* \"#utility.yul\":526:527   */\n      dup1\n        /* \"#utility.yul\":519:531   */\n      revert\n        /* \"#utility.yul\":470:533   */\n    tag_127:\n        /* \"#utility.yul\":417:539   */\n      pop\n      jump\t// out\n        /* \"#utility.yul\":545:684   */\n    tag_92:\n        /* \"#utility.yul\":591:596   */\n      0x00\n        /* \"#utility.yul\":629:635   */\n      dup2\n        /* \"#utility.yul\":616:636   */\n      calldataload\n        /* \"#utility.yul\":607:636   */\n      swap1\n      pop\n        /* \"#utility.yul\":645:678   */\n      tag_129\n        /* \"#utility.yul\":672:677   */\n      dup2\n        /* \"#utility.yul\":645:678   */\n      tag_91\n      jump\t// in\n    tag_129:\n        /* \"#utility.yul\":545:684   */\n      swap3\n      swap2\n      pop\n      pop\n      jump\t// out\n        /* \"#utility.yul\":690:1019   */\n    tag_10:\n        /* \"#utility.yul\":749:755   */\n      0x00\n        /* \"#utility.yul\":798:800   */\n      0x20\n        /* \"#utility.yul\":786:795   */\n      dup3\n        /* \"#utility.yul\":777:784   */\n      dup5\n        /* \"#utility.yul\":773:796   */\n      sub\n        /* \"#utility.yul\":769:801   */\n      slt\n        /* \"#utility.yul\":766:885   */\n      iszero\n      tag_131\n      jumpi\n        /* \"#utility.yul\":804:883   */\n      tag_132\n      tag_88\n      jump\t// in\n    tag_132:\n        /* \"#utility.yul\":766:885   */\n    tag_131:\n        /* \"#utility.yul\":924:925   */\n      0x00\n        /* \"#utility.yul\":949:1002   */\n      tag_133\n        /* \"#utility.yul\":994:1001   */\n      dup5\n        /* \"#utility.yul\":985:991   */\n      dup3\n        /* \"#utility.yul\":974:983   */\n      dup6\n        /* \"#utility.yul\":970:992   */\n      add\n        /* \"#utility.yul\":949:1002   */\n      tag_92\n      jump\t// in\n    tag_133:\n        /* \"#utility.yul\":939:1002   */\n      swap2\n      pop\n        /* \"#utility.yul\":895:1012   */\n      pop\n        /* \"#utility.yul\":690:1019   */\n      swap3\n      swap2\n      pop\n      pop\n      jump\t// out\n        /* \"#utility.yul\":1025:1124   */\n    tag_93:\n        /* \"#utility.yul\":1077:1083   */\n      0x00\n        /* \"#utility.yul\":1111:1116   */\n      dup2\n        /* \"#utility.yul\":1105:1117   */\n      mload\n        /* \"#utility.yul\":1095:1117   */\n      swap1\n      pop\n        /* \"#utility.yul\":1025:1124   */\n      swap2\n      swap1\n      pop\n      jump\t// out\n        /* \"#utility.yul\":1130:1299   */\n    tag_94:\n        /* \"#utility.yul\":1214:1225   */\n      0x00\n        /* \"#utility.yul\":1248:1254   */\n      dup3\n        /* \"#utility.yul\":1243:1246   */\n      dup3\n        /* \"#utility.yul\":1236:1255   */\n      mstore\n        /* \"#utility.yul\":1288:1292   */\n      0x20\n        /* \"#utility.yul\":1283:1286   */\n      dup3\n        /* \"#utility.yul\":1279:1293   */\n      add\n        /* \"#utility.yul\":1264:1293   */\n      swap1\n      pop\n        /* \"#utility.yul\":1130:1299   */\n      swap3\n      swap2\n      pop\n      pop\n      jump\t// out\n        /* \"#utility.yul\":1305:1551   */\n    tag_95:\n        /* \"#utility.yul\":1386:1387   */\n      0x00\n        /* \"#utility.yul\":1396:1509   */\n    tag_137:\n        /* \"#utility.yul\":1410:1416   */\n      dup4\n        /* \"#utility.yul\":1407:1408   */\n      dup2\n        /* \"#utility.yul\":1404:1417   */\n      lt\n        /* \"#utility.yul\":1396:1509   */\n      iszero\n      tag_139\n      jumpi\n        /* \"#utility.yul\":1495:1496   */\n      dup1\n        /* \"#utility.yul\":1490:1493   */\n      dup3\n        /* \"#utility.yul\":1486:1497   */\n      add\n        /* \"#utility.yul\":1480:1498   */\n      mload\n        /* \"#utility.yul\":1476:1477   */\n      dup2\n        /* \"#utility.yul\":1471:1474   */\n      dup5\n        /* \"#utility.yul\":1467:1478   */\n      add\n        /* \"#utility.yul\":1460:1499   */\n      mstore\n        /* \"#utility.yul\":1432:1434   */\n      0x20\n        /* \"#utility.yul\":1429:1430   */\n      dup2\n        /* \"#utility.yul\":1425:1435   */\n      add\n        /* \"#utility.yul\":1420:1435   */\n      swap1\n      pop\n        /* \"#utility.yul\":1396:1509   */\n      jump(tag_137)\n    tag_139:\n        /* \"#utility.yul\":1543:1544   */\n      0x00\n        /* \"#utility.yul\":1534:1540   */\n      dup5\n        /* \"#utility.yul\":1529:1532   */\n      dup5\n        /* \"#utility.yul\":1525:1541   */\n      add\n        /* \"#utility.yul\":1518:1545   */\n      mstore\n        /* \"#utility.yul\":1367:1551   */\n      pop\n        /* \"#utility.yul\":1305:1551   */\n      pop\n      pop\n      pop\n      jump\t// out\n        /* \"#utility.yul\":1557:1659   */\n    tag_96:\n        /* \"#utility.yul\":1598:1604   */\n      0x00\n        /* \"#utility.yul\":1649:1651   */\n      0x1f\n        /* \"#utility.yul\":1645:1652   */\n      not\n        /* \"#utility.yul\":1640:1642   */\n      0x1f\n        /* \"#utility.yul\":1633:1638   */\n      dup4\n        /* \"#utility.yul\":1629:1643   */\n      add\n        /* \"#utility.yul\":1625:1653   */\n      and\n        /* \"#utility.yul\":1615:1653   */\n      swap1\n      pop\n        /* \"#utility.yul\":1557:1659   */\n      swap2\n      swap1\n      pop\n      jump\t// out\n        /* \"#utility.yul\":1665:2042   */\n    tag_97:\n        /* \"#utility.yul\":1753:1756   */\n      0x00\n        /* \"#utility.yul\":1781:1820   */\n      tag_142\n        /* \"#utility.yul\":1814:1819   */\n      dup3\n        /* \"#utility.yul\":1781:1820   */\n      tag_93\n      jump\t// in\n    tag_142:\n        /* \"#utility.yul\":1836:1907   */\n      tag_143\n        /* \"#utility.yul\":1900:1906   */\n      dup2\n        /* \"#utility.yul\":1895:1898   */\n      dup6\n        /* \"#utility.yul\":1836:1907   */\n      tag_94\n      jump\t// in\n    tag_143:\n        /* \"#utility.yul\":1829:1907   */\n      swap4\n      pop\n        /* \"#utility.yul\":1916:1981   */\n      tag_144\n        /* \"#utility.yul\":1974:1980   */\n      dup2\n        /* \"#utility.yul\":1969:1972   */\n      dup6\n        /* \"#utility.yul\":1962:1966   */\n      0x20\n        /* \"#utility.yul\":1955:1960   */\n      dup7\n        /* \"#utility.yul\":1951:1967   */\n      add\n        /* \"#utility.yul\":1916:1981   */\n      tag_95\n      jump\t// in\n    tag_144:\n        /* \"#utility.yul\":2006:2035   */\n      tag_145\n        /* \"#utility.yul\":2028:2034   */\n      dup2\n        /* \"#utility.yul\":2006:2035   */\n      tag_96\n      jump\t// in\n    tag_145:\n        /* \"#utility.yul\":2001:2004   */\n      dup5\n        /* \"#utility.yul\":1997:2036   */\n      add\n        /* \"#utility.yul\":1990:2036   */\n      swap2\n      pop\n        /* \"#utility.yul\":1757:2042   */\n      pop\n        /* \"#utility.yul\":1665:2042   */\n      swap3\n      swap2\n      pop\n      pop\n      jump\t// out\n        /* \"#utility.yul\":2048:2361   */\n    tag_13:\n        /* \"#utility.yul\":2161:2165   */\n      0x00\n        /* \"#utility.yul\":2199:2201   */\n      0x20\n        /* \"#utility.yul\":2188:2197   */\n      dup3\n        /* \"#utility.yul\":2184:2202   */\n      add\n        /* \"#utility.yul\":2176:2202   */\n      swap1\n      pop\n        /* \"#utility.yul\":2248:2257   */\n      dup2\n        /* \"#utility.yul\":2242:2246   */\n      dup2\n        /* \"#utility.yul\":2238:2258   */\n      sub\n        /* \"#utility.yul\":2234:2235   */\n      0x00\n        /* \"#utility.yul\":2223:2232   */\n      dup4\n        /* \"#utility.yul\":2219:2236   */\n      add\n        /* \"#utility.yul\":2212:2259   */\n      mstore\n        /* \"#utility.yul\":2276:2354   */\n      tag_147\n        /* \"#utility.yul\":2349:2353   */\n      dup2\n        /* \"#utility.yul\":2340:2346   */\n      dup5\n        /* \"#utility.yul\":2276:2354   */\n      tag_97\n      jump\t// in\n    tag_147:\n        /* \"#utility.yul\":2268:2354   */\n      swap1\n      pop\n        /* \"#utility.yul\":2048:2361   */\n      swap3\n      swap2\n      pop\n      pop\n      jump\t// out\n        /* \"#utility.yul\":2367:2841   */\n    tag_16:\n        /* \"#utility.yul\":2435:2441   */\n      0x00\n        /* \"#utility.yul\":2443:2449   */\n      dup1\n        /* \"#utility.yul\":2492:2494   */\n      0x40\n        /* \"#utility.yul\":2480:2489   */\n      dup4\n        /* \"#utility.yul\":2471:2478   */\n      dup6\n        /* \"#utility.yul\":2467:2490   */\n      sub\n        /* \"#utility.yul\":2463:2495   */\n      slt\n        /* \"#utility.yul\":2460:2579   */\n      iszero\n      tag_149\n      jumpi\n        /* \"#utility.yul\":2498:2577   */\n      tag_150\n      tag_88\n      jump\t// in\n    tag_150:\n        /* \"#utility.yul\":2460:2579   */\n    tag_149:\n        /* \"#utility.yul\":2618:2619   */\n      0x00\n        /* \"#utility.yul\":2643:2696   */\n      tag_151\n        /* \"#utility.yul\":2688:2695   */\n      dup6\n        /* \"#utility.yul\":2679:2685   */\n      dup3\n        /* \"#utility.yul\":2668:2677   */\n      dup7\n        /* \"#utility.yul\":2664:2686   */\n      add\n        /* \"#utility.yul\":2643:2696   */\n      tag_92\n      jump\t// in\n    tag_151:\n        /* \"#utility.yul\":2633:2696   */\n      swap3\n      pop\n        /* \"#utility.yul\":2589:2706   */\n      pop\n        /* \"#utility.yul\":2745:2747   */\n      0x20\n        /* \"#utility.yul\":2771:2824   */\n      tag_152\n        /* \"#utility.yul\":2816:2823   */\n      dup6\n        /* \"#utility.yul\":2807:2813   */\n      dup3\n        /* \"#utility.yul\":2796:2805   */\n      dup7\n        /* \"#utility.yul\":2792:2814   */\n      add\n        /* \"#utility.yul\":2771:2824   */\n      tag_92\n      jump\t// in\n    tag_152:\n        /* \"#utility.yul\":2761:2824   */\n      swap2\n      pop\n        /* \"#utility.yul\":2716:2834   */\n      pop\n        /* \"#utility.yul\":2367:2841   */\n      swap3\n      pop\n      swap3\n      swap1\n      pop\n      jump\t// out\n        /* \"#utility.yul\":2847:2964   */\n    tag_98:\n        /* \"#utility.yul\":2956:2957   */\n      0x00\n        /* \"#utility.yul\":2953:2954   */\n      dup1\n        /* \"#utility.yul\":2946:2958   */\n      revert\n        /* \"#utility.yul\":2970:3087   */\n    tag_99:\n        /* \"#utility.yul\":3079:3080   */\n      0x00\n        /* \"#utility.yul\":3076:3077   */\n      dup1\n        /* \"#utility.yul\":3069:3081   */\n      revert\n        /* \"#utility.yul\":3093:3273   */\n    tag_100:\n        /* \"#utility.yul\":3141:3218   */\n      0x4e487b7100000000000000000000000000000000000000000000000000000000\n        /* \"#utility.yul\":3138:3139   */\n      0x00\n        /* \"#utility.yul\":3131:3219   */\n      mstore\n        /* \"#utility.yul\":3238:3242   */\n      0x41\n        /* \"#utility.yul\":3235:3236   */\n      0x04\n        /* \"#utility.yul\":3228:3243   */\n      mstore\n        /* \"#utility.yul\":3262:3266   */\n      0x24\n        /* \"#utility.yul\":3259:3260   */\n      0x00\n        /* \"#utility.yul\":3252:3267   */\n      revert\n        /* \"#utility.yul\":3279:3560   */\n    tag_101:\n        /* \"#utility.yul\":3362:3389   */\n      tag_157\n        /* \"#utility.yul\":3384:3388   */\n      dup3\n        /* \"#utility.yul\":3362:3389   */\n      tag_96\n      jump\t// in\n    tag_157:\n        /* \"#utility.yul\":3354:3360   */\n      dup2\n        /* \"#utility.yul\":3350:3390   */\n      add\n        /* \"#utility.yul\":3492:3498   */\n      dup2\n        /* \"#utility.yul\":3480:3490   */\n      dup2\n        /* \"#utility.yul\":3477:3499   */\n      lt\n        /* \"#utility.yul\":3456:3474   */\n      0xffffffffffffffff\n        /* \"#utility.yul\":3444:3454   */\n      dup3\n        /* \"#utility.yul\":3441:3475   */\n      gt\n        /* \"#utility.yul\":3438:3500   */\n      or\n        /* \"#utility.yul\":3435:3523   */\n      iszero\n      tag_158\n      jumpi\n        /* \"#utility.yul\":3503:3521   */\n      tag_159\n      tag_100\n      jump\t// in\n    tag_159:\n        /* \"#utility.yul\":3435:3523   */\n    tag_158:\n        /* \"#utility.yul\":3543:3553   */\n      dup1\n        /* \"#utility.yul\":3539:3541   */\n      0x40\n        /* \"#utility.yul\":3532:3554   */\n      mstore\n        /* \"#utility.yul\":3322:3560   */\n      pop\n        /* \"#utility.yul\":3279:3560   */\n      pop\n      pop\n      jump\t// out\n        /* \"#utility.yul\":3566:3695   */\n    tag_102:\n        /* \"#utility.yul\":3600:3606   */\n      0x00\n        /* \"#utility.yul\":3627:3647   */\n      tag_161\n      tag_87\n      jump\t// in\n    tag_161:\n        /* \"#utility.yul\":3617:3647   */\n      swap1\n      pop\n        /* \"#utility.yul\":3656:3689   */\n      tag_162\n        /* \"#utility.yul\":3684:3688   */\n      dup3\n        /* \"#utility.yul\":3676:3682   */\n      dup3\n        /* \"#utility.yul\":3656:3689   */\n      tag_101\n      jump\t// in\n    tag_162:\n        /* \"#utility.yul\":3566:3695   */\n      swap2\n      swap1\n      pop\n      jump\t// out\n        /* \"#utility.yul\":3701:4009   */\n    tag_103:\n        /* \"#utility.yul\":3763:3767   */\n      0x00\n        /* \"#utility.yul\":3853:3871   */\n      0xffffffffffffffff\n        /* \"#utility.yul\":3845:3851   */\n      dup3\n        /* \"#utility.yul\":3842:3872   */\n      gt\n        /* \"#utility.yul\":3839:3895   */\n      iszero\n      tag_164\n      jumpi\n        /* \"#utility.yul\":3875:3893   */\n      tag_165\n      tag_100\n      jump\t// in\n    tag_165:\n        /* \"#utility.yul\":3839:3895   */\n    tag_164:\n        /* \"#utility.yul\":3913:3942   */\n      tag_166\n        /* \"#utility.yul\":3935:3941   */\n      dup3\n        /* \"#utility.yul\":3913:3942   */\n      tag_96\n      jump\t// in\n    tag_166:\n        /* \"#utility.yul\":3905:3942   */\n      swap1\n      pop\n        /* \"#utility.yul\":3997:4001   */\n      0x20\n        /* \"#utility.yul\":3991:3995   */\n      dup2\n        /* \"#utility.yul\":3987:4002   */\n      add\n        /* \"#utility.yul\":3979:4002   */\n      swap1\n      pop\n        /* \"#utility.yul\":3701:4009   */\n      swap2\n      swap1\n      pop\n      jump\t// out\n        /* \"#utility.yul\":4015:4161   */\n    tag_104:\n        /* \"#utility.yul\":4112:4118   */\n      dup3\n        /* \"#utility.yul\":4107:4110   */\n      dup2\n        /* \"#utility.yul\":4102:4105   */\n      dup4\n        /* \"#utility.yul\":4089:4119   */\n      calldatacopy\n        /* \"#utility.yul\":4153:4154   */\n      0x00\n        /* \"#utility.yul\":4144:4150   */\n      dup4\n        /* \"#utility.yul\":4139:4142   */\n      dup4\n        /* \"#utility.yul\":4135:4151   */\n      add\n        /* \"#utility.yul\":4128:4155   */\n      mstore\n        /* \"#utility.yul\":4015:4161   */\n      pop\n      pop\n      pop\n      jump\t// out\n        /* \"#utility.yul\":4167:4592   */\n    tag_105:\n        /* \"#utility.yul\":4245:4250   */\n      0x00\n        /* \"#utility.yul\":4270:4336   */\n      tag_169\n        /* \"#utility.yul\":4286:4335   */\n      tag_170\n        /* \"#utility.yul\":4328:4334   */\n      dup5\n        /* \"#utility.yul\":4286:4335   */\n      tag_103\n      jump\t// in\n    tag_170:\n        /* \"#utility.yul\":4270:4336   */\n      tag_102\n      jump\t// in\n    tag_169:\n        /* \"#utility.yul\":4261:4336   */\n      swap1\n      pop\n        /* \"#utility.yul\":4359:4365   */\n      dup3\n        /* \"#utility.yul\":4352:4357   */\n      dup2\n        /* \"#utility.yul\":4345:4366   */\n      mstore\n        /* \"#utility.yul\":4397:4401   */\n      0x20\n        /* \"#utility.yul\":4390:4395   */\n      dup2\n        /* \"#utility.yul\":4386:4402   */\n      add\n        /* \"#utility.yul\":4435:4438   */\n      dup5\n        /* \"#utility.yul\":4426:4432   */\n      dup5\n        /* \"#utility.yul\":4421:4424   */\n      dup5\n        /* \"#utility.yul\":4417:4433   */\n      add\n        /* \"#utility.yul\":4414:4439   */\n      gt\n        /* \"#utility.yul\":4411:4523   */\n      iszero\n      tag_171\n      jumpi\n        /* \"#utility.yul\":4442:4521   */\n      tag_172\n      tag_99\n      jump\t// in\n    tag_172:\n        /* \"#utility.yul\":4411:4523   */\n    tag_171:\n        /* \"#utility.yul\":4532:4586   */\n      tag_173\n        /* \"#utility.yul\":4579:4585   */\n      dup5\n        /* \"#utility.yul\":4574:4577   */\n      dup3\n        /* \"#utility.yul\":4569:4572   */\n      dup6\n        /* \"#utility.yul\":4532:4586   */\n      tag_104\n      jump\t// in\n    tag_173:\n        /* \"#utility.yul\":4251:4592   */\n      pop\n        /* \"#utility.yul\":4167:4592   */\n      swap4\n      swap3\n      pop\n      pop\n      pop\n      jump\t// out\n        /* \"#utility.yul\":4612:4952   */\n    tag_106:\n        /* \"#utility.yul\":4668:4673   */\n      0x00\n        /* \"#utility.yul\":4717:4720   */\n      dup3\n        /* \"#utility.yul\":4710:4714   */\n      0x1f\n        /* \"#utility.yul\":4702:4708   */\n      dup4\n        /* \"#utility.yul\":4698:4715   */\n      add\n        /* \"#utility.yul\":4694:4721   */\n      slt\n        /* \"#utility.yul\":4684:4806   */\n      tag_175\n      jumpi\n        /* \"#utility.yul\":4725:4804   */\n      tag_176\n      tag_98\n      jump\t// in\n    tag_176:\n        /* \"#utility.yul\":4684:4806   */\n    tag_175:\n        /* \"#utility.yul\":4842:4848   */\n      dup2\n        /* \"#utility.yul\":4829:4849   */\n      calldataload\n        /* \"#utility.yul\":4867:4946   */\n      tag_177\n        /* \"#utility.yul\":4942:4945   */\n      dup5\n        /* \"#utility.yul\":4934:4940   */\n      dup3\n        /* \"#utility.yul\":4927:4931   */\n      0x20\n        /* \"#utility.yul\":4919:4925   */\n      dup7\n        /* \"#utility.yul\":4915:4932   */\n      add\n        /* \"#utility.yul\":4867:4946   */\n      tag_105\n      jump\t// in\n    tag_177:\n        /* \"#utility.yul\":4858:4946   */\n      swap2\n      pop\n        /* \"#utility.yul\":4674:4952   */\n      pop\n        /* \"#utility.yul\":4612:4952   */\n      swap3\n      swap2\n      pop\n      pop\n      jump\t// out\n        /* \"#utility.yul\":4958:5467   */\n    tag_20:\n        /* \"#utility.yul\":5027:5033   */\n      0x00\n        /* \"#utility.yul\":5076:5078   */\n      0x20\n        /* \"#utility.yul\":5064:5073   */\n      dup3\n        /* \"#utility.yul\":5055:5062   */\n      dup5\n        /* \"#utility.yul\":5051:5074   */\n      sub\n        /* \"#utility.yul\":5047:5079   */\n      slt\n        /* \"#utility.yul\":5044:5163   */\n      iszero\n      tag_179\n      jumpi\n        /* \"#utility.yul\":5082:5161   */\n      tag_180\n      tag_88\n      jump\t// in\n    tag_180:\n        /* \"#utility.yul\":5044:5163   */\n    tag_179:\n        /* \"#utility.yul\":5230:5231   */\n      0x00\n        /* \"#utility.yul\":5219:5228   */\n      dup3\n        /* \"#utility.yul\":5215:5232   */\n      add\n        /* \"#utility.yul\":5202:5233   */\n      calldataload\n        /* \"#utility.yul\":5260:5278   */\n      0xffffffffffffffff\n        /* \"#utility.yul\":5252:5258   */\n      dup2\n        /* \"#utility.yul\":5249:5279   */\n      gt\n        /* \"#utility.yul\":5246:5363   */\n      iszero\n      tag_181\n      jumpi\n        /* \"#utility.yul\":5282:5361   */\n      tag_182\n      tag_89\n      jump\t// in\n    tag_182:\n        /* \"#utility.yul\":5246:5363   */\n    tag_181:\n        /* \"#utility.yul\":5387:5450   */\n      tag_183\n        /* \"#utility.yul\":5442:5449   */\n      dup5\n        /* \"#utility.yul\":5433:5439   */\n      dup3\n        /* \"#utility.yul\":5422:5431   */\n      dup6\n        /* \"#utility.yul\":5418:5440   */\n      add\n        /* \"#utility.yul\":5387:5450   */\n      tag_106\n      jump\t// in\n    tag_183:\n        /* \"#utility.yul\":5377:5450   */\n      swap2\n      pop\n        /* \"#utility.yul\":5173:5460   */\n      pop\n        /* \"#utility.yul\":4958:5467   */\n      swap3\n      swap2\n      pop\n      pop\n      jump\t// out\n        /* \"#utility.yul\":5473:5599   */\n    tag_107:\n        /* \"#utility.yul\":5510:5517   */\n      0x00\n        /* \"#utility.yul\":5550:5592   */\n      0xffffffffffffffffffffffffffffffffffffffff\n        /* \"#utility.yul\":5543:5548   */\n      dup3\n        /* \"#utility.yul\":5539:5593   */\n      and\n        /* \"#utility.yul\":5528:5593   */\n      swap1\n      pop\n        /* \"#utility.yul\":5473:5599   */\n      swap2\n      swap1\n      pop\n      jump\t// out\n        /* \"#utility.yul\":5605:5701   */\n    tag_108:\n        /* \"#utility.yul\":5642:5649   */\n      0x00\n        /* \"#utility.yul\":5671:5695   */\n      tag_186\n        /* \"#utility.yul\":5689:5694   */\n      dup3\n        /* \"#utility.yul\":5671:5695   */\n      tag_107\n      jump\t// in\n    tag_186:\n        /* \"#utility.yul\":5660:5695   */\n      swap1\n      pop\n        /* \"#utility.yul\":5605:5701   */\n      swap2\n      swap1\n      pop\n      jump\t// out\n        /* \"#utility.yul\":5707:5825   */\n    tag_109:\n        /* \"#utility.yul\":5794:5818   */\n      tag_188\n        /* \"#utility.yul\":5812:5817   */\n      dup2\n        /* \"#utility.yul\":5794:5818   */\n      tag_108\n      jump\t// in\n    tag_188:\n        /* \"#utility.yul\":5789:5792   */\n      dup3\n        /* \"#utility.yul\":5782:5819   */\n      mstore\n        /* \"#utility.yul\":5707:5825   */\n      pop\n      pop\n      jump\t// out\n        /* \"#utility.yul\":5831:6053   */\n    tag_26:\n        /* \"#utility.yul\":5924:5928   */\n      0x00\n        /* \"#utility.yul\":5962:5964   */\n      0x20\n        /* \"#utility.yul\":5951:5960   */\n      dup3\n        /* \"#utility.yul\":5947:5965   */\n      add\n        /* \"#utility.yul\":5939:5965   */\n      swap1\n      pop\n        /* \"#utility.yul\":5975:6046   */\n      tag_190\n        /* \"#utility.yul\":6043:6044   */\n      0x00\n        /* \"#utility.yul\":6032:6041   */\n      dup4\n        /* \"#utility.yul\":6028:6045   */\n      add\n        /* \"#utility.yul\":6019:6025   */\n      dup5\n        /* \"#utility.yul\":5975:6046   */\n      tag_109\n      jump\t// in\n    tag_190:\n        /* \"#utility.yul\":5831:6053   */\n      swap3\n      swap2\n      pop\n      pop\n      jump\t// out\n        /* \"#utility.yul\":6059:6177   */\n    tag_110:\n        /* \"#utility.yul\":6146:6170   */\n      tag_192\n        /* \"#utility.yul\":6164:6169   */\n      dup2\n        /* \"#utility.yul\":6146:6170   */\n      tag_90\n      jump\t// in\n    tag_192:\n        /* \"#utility.yul\":6141:6144   */\n      dup3\n        /* \"#utility.yul\":6134:6171   */\n      mstore\n        /* \"#utility.yul\":6059:6177   */\n      pop\n      pop\n      jump\t// out\n        /* \"#utility.yul\":6183:6405   */\n    tag_32:\n        /* \"#utility.yul\":6276:6280   */\n      0x00\n        /* \"#utility.yul\":6314:6316   */\n      0x20\n        /* \"#utility.yul\":6303:6312   */\n      dup3\n        /* \"#utility.yul\":6299:6317   */\n      add\n        /* \"#utility.yul\":6291:6317   */\n      swap1\n      pop\n        /* \"#utility.yul\":6327:6398   */\n      tag_194\n        /* \"#utility.yul\":6395:6396   */\n      0x00\n        /* \"#utility.yul\":6384:6393   */\n      dup4\n        /* \"#utility.yul\":6380:6397   */\n      add\n        /* \"#utility.yul\":6371:6377   */\n      dup5\n        /* \"#utility.yul\":6327:6398   */\n      tag_110\n      jump\t// in\n    tag_194:\n        /* \"#utility.yul\":6183:6405   */\n      swap3\n      swap2\n      pop\n      pop\n      jump\t// out\n        /* \"#utility.yul\":6411:6845   */\n    tag_111:\n        /* \"#utility.yul\":6500:6505   */\n      0x00\n        /* \"#utility.yul\":6525:6591   */\n      tag_196\n        /* \"#utility.yul\":6541:6590   */\n      tag_197\n        /* \"#utility.yul\":6583:6589   */\n      dup5\n        /* \"#utility.yul\":6541:6590   */\n      tag_103\n      jump\t// in\n    tag_197:\n        /* \"#utility.yul\":6525:6591   */\n      tag_102\n      jump\t// in\n    tag_196:\n        /* \"#utility.yul\":6516:6591   */\n      swap1\n      pop\n        /* \"#utility.yul\":6614:6620   */\n      dup3\n        /* \"#utility.yul\":6607:6612   */\n      dup2\n        /* \"#utility.yul\":6600:6621   */\n      mstore\n        /* \"#utility.yul\":6652:6656   */\n      0x20\n        /* \"#utility.yul\":6645:6650   */\n      dup2\n        /* \"#utility.yul\":6641:6657   */\n      add\n        /* \"#utility.yul\":6690:6693   */\n      dup5\n        /* \"#utility.yul\":6681:6687   */\n      dup5\n        /* \"#utility.yul\":6676:6679   */\n      dup5\n        /* \"#utility.yul\":6672:6688   */\n      add\n        /* \"#utility.yul\":6669:6694   */\n      gt\n        /* \"#utility.yul\":6666:6778   */\n      iszero\n      tag_198\n      jumpi\n        /* \"#utility.yul\":6697:6776   */\n      tag_199\n      tag_99\n      jump\t// in\n    tag_199:\n        /* \"#utility.yul\":6666:6778   */\n    tag_198:\n        /* \"#utility.yul\":6787:6839   */\n      tag_200\n        /* \"#utility.yul\":6832:6838   */\n      dup5\n        /* \"#utility.yul\":6827:6830   */\n      dup3\n        /* \"#utility.yul\":6822:6825   */\n      dup6\n        /* \"#utility.yul\":6787:6839   */\n      tag_95\n      jump\t// in\n    tag_200:\n        /* \"#utility.yul\":6506:6845   */\n      pop\n        /* \"#utility.yul\":6411:6845   */\n      swap4\n      swap3\n      pop\n      pop\n      pop\n      jump\t// out\n        /* \"#utility.yul\":6865:7220   */\n    tag_112:\n        /* \"#utility.yul\":6932:6937   */\n      0x00\n        /* \"#utility.yul\":6981:6984   */\n      dup3\n        /* \"#utility.yul\":6974:6978   */\n      0x1f\n        /* \"#utility.yul\":6966:6972   */\n      dup4\n        /* \"#utility.yul\":6962:6979   */\n      add\n        /* \"#utility.yul\":6958:6985   */\n      slt\n        /* \"#utility.yul\":6948:7070   */\n      tag_202\n      jumpi\n        /* \"#utility.yul\":6989:7068   */\n      tag_203\n      tag_98\n      jump\t// in\n    tag_203:\n        /* \"#utility.yul\":6948:7070   */\n    tag_202:\n        /* \"#utility.yul\":7099:7105   */\n      dup2\n        /* \"#utility.yul\":7093:7106   */\n      mload\n        /* \"#utility.yul\":7124:7214   */\n      tag_204\n        /* \"#utility.yul\":7210:7213   */\n      dup5\n        /* \"#utility.yul\":7202:7208   */\n      dup3\n        /* \"#utility.yul\":7195:7199   */\n      0x20\n        /* \"#utility.yul\":7187:7193   */\n      dup7\n        /* \"#utility.yul\":7183:7200   */\n      add\n        /* \"#utility.yul\":7124:7214   */\n      tag_111\n      jump\t// in\n    tag_204:\n        /* \"#utility.yul\":7115:7214   */\n      swap2\n      pop\n        /* \"#utility.yul\":6938:7220   */\n      pop\n        /* \"#utility.yul\":6865:7220   */\n      swap3\n      swap2\n      pop\n      pop\n      jump\t// out\n        /* \"#utility.yul\":7226:7750   */\n    tag_36:\n        /* \"#utility.yul\":7306:7312   */\n      0x00\n        /* \"#utility.yul\":7355:7357   */\n      0x20\n        /* \"#utility.yul\":7343:7352   */\n      dup3\n        /* \"#utility.yul\":7334:7341   */\n      dup5\n        /* \"#utility.yul\":7330:7353   */\n      sub\n        /* \"#utility.yul\":7326:7358   */\n      slt\n        /* \"#utility.yul\":7323:7442   */\n      iszero\n      tag_206\n      jumpi\n        /* \"#utility.yul\":7361:7440   */\n      tag_207\n      tag_88\n      jump\t// in\n    tag_207:\n        /* \"#utility.yul\":7323:7442   */\n    tag_206:\n        /* \"#utility.yul\":7502:7503   */\n      0x00\n        /* \"#utility.yul\":7491:7500   */\n      dup3\n        /* \"#utility.yul\":7487:7504   */\n      add\n        /* \"#utility.yul\":7481:7505   */\n      mload\n        /* \"#utility.yul\":7532:7550   */\n      0xffffffffffffffff\n        /* \"#utility.yul\":7524:7530   */\n      dup2\n        /* \"#utility.yul\":7521:7551   */\n      gt\n        /* \"#utility.yul\":7518:7635   */\n      iszero\n      tag_208\n      jumpi\n        /* \"#utility.yul\":7554:7633   */\n      tag_209\n      tag_89\n      jump\t// in\n    tag_209:\n        /* \"#utility.yul\":7518:7635   */\n    tag_208:\n        /* \"#utility.yul\":7659:7733   */\n      tag_210\n        /* \"#utility.yul\":7725:7732   */\n      dup5\n        /* \"#utility.yul\":7716:7722   */\n      dup3\n        /* \"#utility.yul\":7705:7714   */\n      dup6\n        /* \"#utility.yul\":7701:7723   */\n      add\n        /* \"#utility.yul\":7659:7733   */\n      tag_112\n      jump\t// in\n    tag_210:\n        /* \"#utility.yul\":7649:7733   */\n      swap2\n      pop\n        /* \"#utility.yul\":7452:7743   */\n      pop\n        /* \"#utility.yul\":7226:7750   */\n      swap3\n      swap2\n      pop\n      pop\n      jump\t// out\n        /* \"#utility.yul\":7756:7878   */\n    tag_113:\n        /* \"#utility.yul\":7829:7853   */\n      tag_212\n        /* \"#utility.yul\":7847:7852   */\n      dup2\n        /* \"#utility.yul\":7829:7853   */\n      tag_108\n      jump\t// in\n    tag_212:\n        /* \"#utility.yul\":7822:7827   */\n      dup2\n        /* \"#utility.yul\":7819:7854   */\n      eq\n        /* \"#utility.yul\":7809:7872   */\n      tag_213\n      jumpi\n        /* \"#utility.yul\":7868:7869   */\n      0x00\n        /* \"#utility.yul\":7865:7866   */\n      dup1\n        /* \"#utility.yul\":7858:7870   */\n      revert\n        /* \"#utility.yul\":7809:7872   */\n    tag_213:\n        /* \"#utility.yul\":7756:7878   */\n      pop\n      jump\t// out\n        /* \"#utility.yul\":7884:8027   */\n    tag_114:\n        /* \"#utility.yul\":7941:7946   */\n      0x00\n        /* \"#utility.yul\":7972:7978   */\n      dup2\n        /* \"#utility.yul\":7966:7979   */\n      mload\n        /* \"#utility.yul\":7957:7979   */\n      swap1\n      pop\n        /* \"#utility.yul\":7988:8021   */\n      tag_215\n        /* \"#utility.yul\":8015:8020   */\n      dup2\n        /* \"#utility.yul\":7988:8021   */\n      tag_113\n      jump\t// in\n    tag_215:\n        /* \"#utility.yul\":7884:8027   */\n      swap3\n      swap2\n      pop\n      pop\n      jump\t// out\n        /* \"#utility.yul\":8033:8384   */\n    tag_42:\n        /* \"#utility.yul\":8103:8109   */\n      0x00\n        /* \"#utility.yul\":8152:8154   */\n      0x20\n        /* \"#utility.yul\":8140:8149   */\n      dup3\n        /* \"#utility.yul\":8131:8138   */\n      dup5\n        /* \"#utility.yul\":8127:8150   */\n      sub\n        /* \"#utility.yul\":8123:8155   */\n      slt\n        /* \"#utility.yul\":8120:8239   */\n      iszero\n      tag_217\n      jumpi\n        /* \"#utility.yul\":8158:8237   */\n      tag_218\n      tag_88\n      jump\t// in\n    tag_218:\n        /* \"#utility.yul\":8120:8239   */\n    tag_217:\n        /* \"#utility.yul\":8278:8279   */\n      0x00\n        /* \"#utility.yul\":8303:8367   */\n      tag_219\n        /* \"#utility.yul\":8359:8366   */\n      dup5\n        /* \"#utility.yul\":8350:8356   */\n      dup3\n        /* \"#utility.yul\":8339:8348   */\n      dup6\n        /* \"#utility.yul\":8335:8357   */\n      add\n        /* \"#utility.yul\":8303:8367   */\n      tag_114\n      jump\t// in\n    tag_219:\n        /* \"#utility.yul\":8293:8367   */\n      swap2\n      pop\n        /* \"#utility.yul\":8249:8377   */\n      pop\n        /* \"#utility.yul\":8033:8384   */\n      swap3\n      swap2\n      pop\n      pop\n      jump\t// out\n        /* \"#utility.yul\":8390:8533   */\n    tag_115:\n        /* \"#utility.yul\":8447:8452   */\n      0x00\n        /* \"#utility.yul\":8478:8484   */\n      dup2\n        /* \"#utility.yul\":8472:8485   */\n      mload\n        /* \"#utility.yul\":8463:8485   */\n      swap1\n      pop\n        /* \"#utility.yul\":8494:8527   */\n      tag_221\n        /* \"#utility.yul\":8521:8526   */\n      dup2\n        /* \"#utility.yul\":8494:8527   */\n      tag_91\n      jump\t// in\n    tag_221:\n        /* \"#utility.yul\":8390:8533   */\n      swap3\n      swap2\n      pop\n      pop\n      jump\t// out\n        /* \"#utility.yul\":8539:8890   */\n    tag_46:\n        /* \"#utility.yul\":8609:8615   */\n      0x00\n        /* \"#utility.yul\":8658:8660   */\n      0x20\n        /* \"#utility.yul\":8646:8655   */\n      dup3\n        /* \"#utility.yul\":8637:8644   */\n      dup5\n        /* \"#utility.yul\":8633:8656   */\n      sub\n        /* \"#utility.yul\":8629:8661   */\n      slt\n        /* \"#utility.yul\":8626:8745   */\n      iszero\n      tag_223\n      jumpi\n        /* \"#utility.yul\":8664:8743   */\n      tag_224\n      tag_88\n      jump\t// in\n    tag_224:\n        /* \"#utility.yul\":8626:8745   */\n    tag_223:\n        /* \"#utility.yul\":8784:8785   */\n      0x00\n        /* \"#utility.yul\":8809:8873   */\n      tag_225\n        /* \"#utility.yul\":8865:8872   */\n      dup5\n        /* \"#utility.yul\":8856:8862   */\n      dup3\n        /* \"#utility.yul\":8845:8854   */\n      dup6\n        /* \"#utility.yul\":8841:8863   */\n      add\n        /* \"#utility.yul\":8809:8873   */\n      tag_115\n      jump\t// in\n    tag_225:\n        /* \"#utility.yul\":8799:8873   */\n      swap2\n      pop\n        /* \"#utility.yul\":8755:8883   */\n      pop\n        /* \"#utility.yul\":8539:8890   */\n      swap3\n      swap2\n      pop\n      pop\n      jump\t// out\n        /* \"#utility.yul\":8896:9076   */\n    tag_116:\n        /* \"#utility.yul\":8944:9021   */\n      0x4e487b7100000000000000000000000000000000000000000000000000000000\n        /* \"#utility.yul\":8941:8942   */\n      0x00\n        /* \"#utility.yul\":8934:9022   */\n      mstore\n        /* \"#utility.yul\":9041:9045   */\n      0x11\n        /* \"#utility.yul\":9038:9039   */\n      0x04\n        /* \"#utility.yul\":9031:9046   */\n      mstore\n        /* \"#utility.yul\":9065:9069   */\n      0x24\n        /* \"#utility.yul\":9062:9063   */\n      0x00\n        /* \"#utility.yul\":9055:9070   */\n      revert\n        /* \"#utility.yul\":9082:9184   */\n    tag_117:\n        /* \"#utility.yul\":9124:9132   */\n      0x00\n        /* \"#utility.yul\":9171:9176   */\n      dup2\n        /* \"#utility.yul\":9168:9169   */\n      0x01\n        /* \"#utility.yul\":9164:9177   */\n      shr\n        /* \"#utility.yul\":9143:9177   */\n      swap1\n      pop\n        /* \"#utility.yul\":9082:9184   */\n      swap2\n      swap1\n      pop\n      jump\t// out\n        /* \"#utility.yul\":9190:10038   */\n    tag_118:\n        /* \"#utility.yul\":9251:9256   */\n      0x00\n        /* \"#utility.yul\":9258:9262   */\n      dup1\n        /* \"#utility.yul\":9282:9288   */\n      dup3\n        /* \"#utility.yul\":9273:9288   */\n      swap2\n      pop\n        /* \"#utility.yul\":9306:9311   */\n      dup4\n        /* \"#utility.yul\":9297:9311   */\n      swap1\n      pop\n        /* \"#utility.yul\":9320:10032   */\n    tag_229:\n        /* \"#utility.yul\":9341:9342   */\n      0x01\n        /* \"#utility.yul\":9331:9339   */\n      dup6\n        /* \"#utility.yul\":9328:9343   */\n      gt\n        /* \"#utility.yul\":9320:10032   */\n      iszero\n      tag_231\n      jumpi\n        /* \"#utility.yul\":9436:9440   */\n      dup1\n        /* \"#utility.yul\":9431:9434   */\n      dup7\n        /* \"#utility.yul\":9427:9441   */\n      div\n        /* \"#utility.yul\":9421:9425   */\n      dup2\n        /* \"#utility.yul\":9418:9442   */\n      gt\n        /* \"#utility.yul\":9415:9465   */\n      iszero\n      tag_232\n      jumpi\n        /* \"#utility.yul\":9445:9463   */\n      tag_233\n      tag_116\n      jump\t// in\n    tag_233:\n        /* \"#utility.yul\":9415:9465   */\n    tag_232:\n        /* \"#utility.yul\":9495:9496   */\n      0x01\n        /* \"#utility.yul\":9485:9493   */\n      dup6\n        /* \"#utility.yul\":9481:9497   */\n      and\n        /* \"#utility.yul\":9478:9929   */\n      iszero\n      tag_234\n      jumpi\n        /* \"#utility.yul\":9910:9914   */\n      dup1\n        /* \"#utility.yul\":9903:9908   */\n      dup3\n        /* \"#utility.yul\":9899:9915   */\n      mul\n        /* \"#utility.yul\":9890:9915   */\n      swap2\n      pop\n        /* \"#utility.yul\":9478:9929   */\n    tag_234:\n        /* \"#utility.yul\":9960:9964   */\n      dup1\n        /* \"#utility.yul\":9954:9958   */\n      dup2\n        /* \"#utility.yul\":9950:9965   */\n      mul\n        /* \"#utility.yul\":9942:9965   */\n      swap1\n      pop\n        /* \"#utility.yul\":9990:10022   */\n      tag_235\n        /* \"#utility.yul\":10013:10021   */\n      dup6\n        /* \"#utility.yul\":9990:10022   */\n      tag_117\n      jump\t// in\n    tag_235:\n        /* \"#utility.yul\":9978:10022   */\n      swap5\n      pop\n        /* \"#utility.yul\":9320:10032   */\n      jump(tag_229)\n    tag_231:\n        /* \"#utility.yul\":9190:10038   */\n      swap5\n      pop\n      swap5\n      swap3\n      pop\n      pop\n      pop\n      jump\t// out\n        /* \"#utility.yul\":10044:11117   */\n    tag_119:\n        /* \"#utility.yul\":10098:10103   */\n      0x00\n        /* \"#utility.yul\":10289:10297   */\n      dup3\n        /* \"#utility.yul\":10279:10319   */\n      tag_237\n      jumpi\n        /* \"#utility.yul\":10310:10311   */\n      0x01\n        /* \"#utility.yul\":10301:10311   */\n      swap1\n      pop\n        /* \"#utility.yul\":10312:10317   */\n      jump(tag_236)\n        /* \"#utility.yul\":10279:10319   */\n    tag_237:\n        /* \"#utility.yul\":10338:10342   */\n      dup2\n        /* \"#utility.yul\":10328:10364   */\n      tag_238\n      jumpi\n        /* \"#utility.yul\":10355:10356   */\n      0x00\n        /* \"#utility.yul\":10346:10356   */\n      swap1\n      pop\n        /* \"#utility.yul\":10357:10362   */\n      jump(tag_236)\n        /* \"#utility.yul\":10328:10364   */\n    tag_238:\n        /* \"#utility.yul\":10424:10428   */\n      dup2\n        /* \"#utility.yul\":10472:10473   */\n      0x01\n        /* \"#utility.yul\":10467:10494   */\n      dup2\n      eq\n      tag_240\n      jumpi\n        /* \"#utility.yul\":10508:10509   */\n      0x02\n        /* \"#utility.yul\":10503:10694   */\n      dup2\n      eq\n      tag_241\n      jumpi\n        /* \"#utility.yul\":10417:10694   */\n      jump(tag_239)\n        /* \"#utility.yul\":10467:10494   */\n    tag_240:\n        /* \"#utility.yul\":10485:10486   */\n      0x01\n        /* \"#utility.yul\":10476:10486   */\n      swap2\n      pop\n        /* \"#utility.yul\":10487:10492   */\n      pop\n      jump(tag_236)\n        /* \"#utility.yul\":10503:10694   */\n    tag_241:\n        /* \"#utility.yul\":10548:10551   */\n      0xff\n        /* \"#utility.yul\":10538:10546   */\n      dup5\n        /* \"#utility.yul\":10535:10552   */\n      gt\n        /* \"#utility.yul\":10532:10575   */\n      iszero\n      tag_242\n      jumpi\n        /* \"#utility.yul\":10555:10573   */\n      tag_243\n      tag_116\n      jump\t// in\n    tag_243:\n        /* \"#utility.yul\":10532:10575   */\n    tag_242:\n        /* \"#utility.yul\":10604:10612   */\n      dup4\n        /* \"#utility.yul\":10601:10602   */\n      0x02\n        /* \"#utility.yul\":10597:10613   */\n      exp\n        /* \"#utility.yul\":10588:10613   */\n      swap2\n      pop\n        /* \"#utility.yul\":10639:10642   */\n      dup5\n        /* \"#utility.yul\":10632:10637   */\n      dup3\n        /* \"#utility.yul\":10629:10643   */\n      gt\n        /* \"#utility.yul\":10626:10666   */\n      iszero\n      tag_244\n      jumpi\n        /* \"#utility.yul\":10646:10664   */\n      tag_245\n      tag_116\n      jump\t// in\n    tag_245:\n        /* \"#utility.yul\":10626:10666   */\n    tag_244:\n        /* \"#utility.yul\":10679:10684   */\n      pop\n      jump(tag_236)\n        /* \"#utility.yul\":10417:10694   */\n    tag_239:\n      pop\n        /* \"#utility.yul\":10803:10805   */\n      0x20\n        /* \"#utility.yul\":10793:10801   */\n      dup4\n        /* \"#utility.yul\":10790:10806   */\n      lt\n        /* \"#utility.yul\":10784:10787   */\n      0x0133\n        /* \"#utility.yul\":10778:10782   */\n      dup4\n        /* \"#utility.yul\":10775:10788   */\n      lt\n        /* \"#utility.yul\":10771:10807   */\n      and\n        /* \"#utility.yul\":10753:10755   */\n      0x4e\n        /* \"#utility.yul\":10743:10751   */\n      dup5\n        /* \"#utility.yul\":10740:10756   */\n      lt\n        /* \"#utility.yul\":10735:10737   */\n      0x0b\n        /* \"#utility.yul\":10729:10733   */\n      dup5\n        /* \"#utility.yul\":10726:10738   */\n      lt\n        /* \"#utility.yul\":10722:10757   */\n      and\n        /* \"#utility.yul\":10706:10817   */\n      or\n        /* \"#utility.yul\":10703:10949   */\n      iszero\n      tag_246\n      jumpi\n        /* \"#utility.yul\":10859:10867   */\n      dup3\n        /* \"#utility.yul\":10853:10857   */\n      dup3\n        /* \"#utility.yul\":10849:10868   */\n      exp\n        /* \"#utility.yul\":10840:10868   */\n      swap1\n      pop\n        /* \"#utility.yul\":10894:10897   */\n      dup4\n        /* \"#utility.yul\":10887:10892   */\n      dup2\n        /* \"#utility.yul\":10884:10898   */\n      gt\n        /* \"#utility.yul\":10881:10921   */\n      iszero\n      tag_247\n      jumpi\n        /* \"#utility.yul\":10901:10919   */\n      tag_248\n      tag_116\n      jump\t// in\n    tag_248:\n        /* \"#utility.yul\":10881:10921   */\n    tag_247:\n        /* \"#utility.yul\":10934:10939   */\n      jump(tag_236)\n        /* \"#utility.yul\":10703:10949   */\n    tag_246:\n        /* \"#utility.yul\":10974:11016   */\n      tag_249\n        /* \"#utility.yul\":11012:11015   */\n      dup5\n        /* \"#utility.yul\":11002:11010   */\n      dup5\n        /* \"#utility.yul\":10996:11000   */\n      dup5\n        /* \"#utility.yul\":10993:10994   */\n      0x01\n        /* \"#utility.yul\":10974:11016   */\n      tag_118\n      jump\t// in\n    tag_249:\n        /* \"#utility.yul\":10959:11016   */\n      swap3\n      pop\n      swap1\n      pop\n        /* \"#utility.yul\":11048:11052   */\n      dup2\n        /* \"#utility.yul\":11043:11046   */\n      dup5\n        /* \"#utility.yul\":11039:11053   */\n      div\n        /* \"#utility.yul\":11032:11037   */\n      dup2\n        /* \"#utility.yul\":11029:11054   */\n      gt\n        /* \"#utility.yul\":11026:11077   */\n      iszero\n      tag_250\n      jumpi\n        /* \"#utility.yul\":11057:11075   */\n      tag_251\n      tag_116\n      jump\t// in\n    tag_251:\n        /* \"#utility.yul\":11026:11077   */\n    tag_250:\n        /* \"#utility.yul\":11106:11110   */\n      dup2\n        /* \"#utility.yul\":11099:11104   */\n      dup2\n        /* \"#utility.yul\":11095:11111   */\n      mul\n        /* \"#utility.yul\":11086:11111   */\n      swap1\n      pop\n        /* \"#utility.yul\":10044:11117   */\n    tag_236:\n      swap4\n      swap3\n      pop\n      pop\n      pop\n      jump\t// out\n        /* \"#utility.yul\":11123:11408   */\n    tag_48:\n        /* \"#utility.yul\":11183:11188   */\n      0x00\n        /* \"#utility.yul\":11207:11230   */\n      tag_253\n        /* \"#utility.yul\":11225:11229   */\n      dup3\n        /* \"#utility.yul\":11207:11230   */\n      tag_90\n      jump\t// in\n    tag_253:\n        /* \"#utility.yul\":11199:11230   */\n      swap2\n      pop\n        /* \"#utility.yul\":11251:11278   */\n      tag_254\n        /* \"#utility.yul\":11269:11277   */\n      dup4\n        /* \"#utility.yul\":11251:11278   */\n      tag_90\n      jump\t// in\n    tag_254:\n        /* \"#utility.yul\":11239:11278   */\n      swap3\n      pop\n        /* \"#utility.yul\":11297:11401   */\n      tag_255\n        /* \"#utility.yul\":11334:11400   */\n      0xffffffffffffffffffffffffffffffffffffffffffffffffffffffffffffffff\n        /* \"#utility.yul\":11324:11332   */\n      dup5\n        /* \"#utility.yul\":11318:11322   */\n      dup5\n        /* \"#utility.yul\":11297:11401   */\n      tag_119\n      jump\t// in\n    tag_255:\n        /* \"#utility.yul\":11288:11401   */\n      swap1\n      pop\n        /* \"#utility.yul\":11123:11408   */\n      swap3\n      swap2\n      pop\n      pop\n      jump\t// out\n        /* \"#utility.yul\":11414:11824   */\n    tag_50:\n        /* \"#utility.yul\":11454:11461   */\n      0x00\n        /* \"#utility.yul\":11477:11497   */\n      tag_257\n        /* \"#utility.yul\":11495:11496   */\n      dup3\n        /* \"#utility.yul\":11477:11497   */\n      tag_90\n      jump\t// in\n    tag_257:\n        /* \"#utility.yul\":11472:11497   */\n      swap2\n      pop\n        /* \"#utility.yul\":11511:11531   */\n      tag_258\n        /* \"#utility.yul\":11529:11530   */\n      dup4\n        /* \"#utility.yul\":11511:11531   */\n      tag_90\n      jump\t// in\n    tag_258:\n        /* \"#utility.yul\":11506:11531   */\n      swap3\n      pop\n        /* \"#utility.yul\":11566:11567   */\n      dup3\n        /* \"#utility.yul\":11563:11564   */\n      dup3\n        /* \"#utility.yul\":11559:11568   */\n      mul\n        /* \"#utility.yul\":11588:11618   */\n      tag_259\n        /* \"#utility.yul\":11606:11617   */\n      dup2\n        /* \"#utility.yul\":11588:11618   */\n      tag_90\n      jump\t// in\n    tag_259:\n        /* \"#utility.yul\":11577:11618   */\n      swap2\n      pop\n        /* \"#utility.yul\":11767:11768   */\n      dup3\n        /* \"#utility.yul\":11758:11765   */\n      dup3\n        /* \"#utility.yul\":11754:11769   */\n      div\n        /* \"#utility.yul\":11751:11752   */\n      dup5\n        /* \"#utility.yul\":11748:11770   */\n      eq\n        /* \"#utility.yul\":11728:11729   */\n      dup4\n        /* \"#utility.yul\":11721:11730   */\n      iszero\n        /* \"#utility.yul\":11701:11784   */\n      or\n        /* \"#utility.yul\":11678:11817   */\n      tag_260\n      jumpi\n        /* \"#utility.yul\":11797:11815   */\n      tag_261\n      tag_116\n      jump\t// in\n    tag_261:\n        /* \"#utility.yul\":11678:11817   */\n    tag_260:\n        /* \"#utility.yul\":11462:11824   */\n      pop\n        /* \"#utility.yul\":11414:11824   */\n      swap3\n      swap2\n      pop\n      pop\n      jump\t// out\n        /* \"#utility.yul\":11830:12162   */\n    tag_52:\n        /* \"#utility.yul\":11951:11955   */\n      0x00\n        /* \"#utility.yul\":11989:11991   */\n      0x40\n        /* \"#utility.yul\":11978:11987   */\n      dup3\n        /* \"#utility.yul\":11974:11992   */\n      add\n        /* \"#utility.yul\":11966:11992   */\n      swap1\n      pop\n        /* \"#utility.yul\":12002:12073   */\n      tag_263\n        /* \"#utility.yul\":12070:12071   */\n      0x00\n        /* \"#utility.yul\":12059:12068   */\n      dup4\n        /* \"#utility.yul\":12055:12072   */\n      add\n        /* \"#utility.yul\":12046:12052   */\n      dup6\n        /* \"#utility.yul\":12002:12073   */\n      tag_109\n      jump\t// in\n    tag_263:\n        /* \"#utility.yul\":12083:12155   */\n      tag_264\n        /* \"#utility.yul\":12151:12153   */\n      0x20\n        /* \"#utility.yul\":12140:12149   */\n      dup4\n        /* \"#utility.yul\":12136:12154   */\n      add\n        /* \"#utility.yul\":12127:12133   */\n      dup5\n        /* \"#utility.yul\":12083:12155   */\n      tag_110\n      jump\t// in\n    tag_264:\n        /* \"#utility.yul\":11830:12162   */\n      swap4\n      swap3\n      pop\n      pop\n      pop\n      jump\t// out\n        /* \"#utility.yul\":12168:12591   */\n    tag_63:\n        /* \"#utility.yul\":12309:12313   */\n      0x00\n        /* \"#utility.yul\":12347:12349   */\n      0x40\n        /* \"#utility.yul\":12336:12345   */\n      dup3\n        /* \"#utility.yul\":12332:12350   */\n      add\n        /* \"#utility.yul\":12324:12350   */\n      swap1\n      pop\n        /* \"#utility.yul\":12360:12431   */\n      tag_266\n        /* \"#utility.yul\":12428:12429   */\n      0x00\n        /* \"#utility.yul\":12417:12426   */\n      dup4\n        /* \"#utility.yul\":12413:12430   */\n      add\n        /* \"#utility.yul\":12404:12410   */\n      dup6\n        /* \"#utility.yul\":12360:12431   */\n      tag_109\n      jump\t// in\n    tag_266:\n        /* \"#utility.yul\":12478:12487   */\n      dup2\n        /* \"#utility.yul\":12472:12476   */\n      dup2\n        /* \"#utility.yul\":12468:12488   */\n      sub\n        /* \"#utility.yul\":12463:12465   */\n      0x20\n        /* \"#utility.yul\":12452:12461   */\n      dup4\n        /* \"#utility.yul\":12448:12466   */\n      add\n        /* \"#utility.yul\":12441:12489   */\n      mstore\n        /* \"#utility.yul\":12506:12584   */\n      tag_267\n        /* \"#utility.yul\":12579:12583   */\n      dup2\n        /* \"#utility.yul\":12570:12576   */\n      dup5\n        /* \"#utility.yul\":12506:12584   */\n      tag_97\n      jump\t// in\n    tag_267:\n        /* \"#utility.yul\":12498:12584   */\n      swap1\n      pop\n        /* \"#utility.yul\":12168:12591   */\n      swap4\n      swap3\n      pop\n      pop\n      pop\n      jump\t// out\n\n    auxdata: 0xa26469706673582212204532bef060620eeb0e626965b4ae239b011c684674c40642add9fb140bb94fd564736f6c63430008160033\n}\n",
				"bytecode": {
					"linkReferences": {},
					"object": "608060405234801562000010575f80fd5b5060405162001070380380620010708339818101604052810190620000369190620001f9565b815f806101000a81548173ffffffffffffffffffffffffffffffffffffffff021916908373ffffffffffffffffffffffffffffffffffffffff1602179055508060015f6101000a81548173ffffffffffffffffffffffffffffffffffffffff021916908373ffffffffffffffffffffffffffffffffffffffff1602179055505f8054906101000a900473ffffffffffffffffffffffffffffffffffffffff1660025f6101000a81548173ffffffffffffffffffffffffffffffffffffffff021916908373ffffffffffffffffffffffffffffffffffffffff16021790555060015f9054906101000a900473ffffffffffffffffffffffffffffffffffffffff1660035f6101000a81548173ffffffffffffffffffffffffffffffffffffffff021916908373ffffffffffffffffffffffffffffffffffffffff160217905550601460048190555060058081905550600a60068190555050506200023e565b5f80fd5b5f73ffffffffffffffffffffffffffffffffffffffff82169050919050565b5f620001c38262000198565b9050919050565b620001d581620001b7565b8114620001e0575f80fd5b50565b5f81519050620001f381620001ca565b92915050565b5f806040838503121562000212576200021162000194565b5b5f6200022185828601620001e3565b92505060206200023485828601620001e3565b9150509250929050565b610e24806200024c5f395ff3fe608060405234801561000f575f80fd5b5060043610610055575f3560e01c806328e7b2a6146100595780634ccadb69146100895780636dc32bba146100a5578063ee79c9e2146100c1578063f20fa822146100f1575b5f80fd5b610073600480360381019061006e9190610763565b61010d565b6040516100809190610818565b60405180910390f35b6100a3600480360381019061009e9190610838565b6101b2565b005b6100bf60048036038101906100ba91906109a2565b610380565b005b6100db60048036038101906100d69190610763565b610540565b6040516100e89190610a28565b60405180910390f35b61010b60048036038101906101069190610763565b6105e1565b005b606060025f9054906101000a900473ffffffffffffffffffffffffffffffffffffffff1673ffffffffffffffffffffffffffffffffffffffff166328e7b2a6836040518263ffffffff1660e01b81526004016101699190610a50565b5f60405180830381865afa158015610183573d5f803e3d5ffd5b505050506040513d5f823e3d601f19601f820116820180604052508101906101ab9190610ad7565b9050919050565b5f60025f9054906101000a900473ffffffffffffffffffffffffffffffffffffffff1673ffffffffffffffffffffffffffffffffffffffff16636352211e846040518263ffffffff1660e01b815260040161020d9190610a50565b602060405180830381865afa158015610228573d5f803e3d5ffd5b505050506040513d601f19601f8201168201806040525081019061024c9190610b48565b905060035f9054906101000a900473ffffffffffffffffffffffffffffffffffffffff1673ffffffffffffffffffffffffffffffffffffffff166321670f228260035f9054906101000a900473ffffffffffffffffffffffffffffffffffffffff1673ffffffffffffffffffffffffffffffffffffffff1663313ce5676040518163ffffffff1660e01b8152600401602060405180830381865afa1580156102f6573d5f803e3d5ffd5b505050506040513d601f19601f8201168201806040525081019061031a9190610b87565b600a6103269190610d0e565b856103319190610d58565b6040518363ffffffff1660e01b815260040161034e929190610d99565b5f604051808303815f87803b158015610365575f80fd5b505af1158015610377573d5f803e3d5ffd5b50505050505050565b5f60035f9054906101000a900473ffffffffffffffffffffffffffffffffffffffff1673ffffffffffffffffffffffffffffffffffffffff1663313ce5676040518163ffffffff1660e01b8152600401602060405180830381865afa1580156103eb573d5f803e3d5ffd5b505050506040513d601f19601f8201168201806040525081019061040f9190610b87565b600a61041b9190610d0e565b6004546104289190610d58565b905060025f9054906101000a900473ffffffffffffffffffffffffffffffffffffffff1673ffffffffffffffffffffffffffffffffffffffff1663d15aecd333846040518363ffffffff1660e01b8152600401610486929190610dc0565b5f604051808303815f87803b15801561049d575f80fd5b505af11580156104af573d5f803e3d5ffd5b5050505060035f9054906101000a900473ffffffffffffffffffffffffffffffffffffffff1673ffffffffffffffffffffffffffffffffffffffff166321670f2233836040518363ffffffff1660e01b815260040161050f929190610d99565b5f604051808303815f87803b158015610526575f80fd5b505af1158015610538573d5f803e3d5ffd5b505050505050565b5f60025f9054906101000a900473ffffffffffffffffffffffffffffffffffffffff1673ffffffffffffffffffffffffffffffffffffffff16636352211e836040518263ffffffff1660e01b815260040161059b9190610a50565b602060405180830381865afa1580156105b6573d5f803e3d5ffd5b505050506040513d601f19601f820116820180604052508101906105da9190610b48565b9050919050565b60035f9054906101000a900473ffffffffffffffffffffffffffffffffffffffff1673ffffffffffffffffffffffffffffffffffffffff166321670f223360035f9054906101000a900473ffffffffffffffffffffffffffffffffffffffff1673ffffffffffffffffffffffffffffffffffffffff1663313ce5676040518163ffffffff1660e01b8152600401602060405180830381865afa158015610689573d5f803e3d5ffd5b505050506040513d601f19601f820116820180604052508101906106ad9190610b87565b600a6106b99190610d0e565b6005546106c69190610d58565b6040518363ffffffff1660e01b81526004016106e3929190610d99565b5f604051808303815f87803b1580156106fa575f80fd5b505af115801561070c573d5f803e3d5ffd5b5050505061071c816006546101b2565b50565b5f604051905090565b5f80fd5b5f80fd5b5f819050919050565b61074281610730565b811461074c575f80fd5b50565b5f8135905061075d81610739565b92915050565b5f6020828403121561077857610777610728565b5b5f6107858482850161074f565b91505092915050565b5f81519050919050565b5f82825260208201905092915050565b5f5b838110156107c55780820151818401526020810190506107aa565b5f8484015250505050565b5f601f19601f8301169050919050565b5f6107ea8261078e565b6107f48185610798565b93506108048185602086016107a8565b61080d816107d0565b840191505092915050565b5f6020820190508181035f83015261083081846107e0565b905092915050565b5f806040838503121561084e5761084d610728565b5b5f61085b8582860161074f565b925050602061086c8582860161074f565b9150509250929050565b5f80fd5b5f80fd5b7f4e487b71000000000000000000000000000000000000000000000000000000005f52604160045260245ffd5b6108b4826107d0565b810181811067ffffffffffffffff821117156108d3576108d261087e565b5b80604052505050565b5f6108e561071f565b90506108f182826108ab565b919050565b5f67ffffffffffffffff8211156109105761090f61087e565b5b610919826107d0565b9050602081019050919050565b828183375f83830152505050565b5f610946610941846108f6565b6108dc565b9050828152602081018484840111156109625761096161087a565b5b61096d848285610926565b509392505050565b5f82601f83011261098957610988610876565b5b8135610999848260208601610934565b91505092915050565b5f602082840312156109b7576109b6610728565b5b5f82013567ffffffffffffffff8111156109d4576109d361072c565b5b6109e084828501610975565b91505092915050565b5f73ffffffffffffffffffffffffffffffffffffffff82169050919050565b5f610a12826109e9565b9050919050565b610a2281610a08565b82525050565b5f602082019050610a3b5f830184610a19565b92915050565b610a4a81610730565b82525050565b5f602082019050610a635f830184610a41565b92915050565b5f610a7b610a76846108f6565b6108dc565b905082815260208101848484011115610a9757610a9661087a565b5b610aa28482856107a8565b509392505050565b5f82601f830112610abe57610abd610876565b5b8151610ace848260208601610a69565b91505092915050565b5f60208284031215610aec57610aeb610728565b5b5f82015167ffffffffffffffff811115610b0957610b0861072c565b5b610b1584828501610aaa565b91505092915050565b610b2781610a08565b8114610b31575f80fd5b50565b5f81519050610b4281610b1e565b92915050565b5f60208284031215610b5d57610b5c610728565b5b5f610b6a84828501610b34565b91505092915050565b5f81519050610b8181610739565b92915050565b5f60208284031215610b9c57610b9b610728565b5b5f610ba984828501610b73565b91505092915050565b7f4e487b71000000000000000000000000000000000000000000000000000000005f52601160045260245ffd5b5f8160011c9050919050565b5f808291508390505b6001851115610c3457808604811115610c1057610c0f610bb2565b5b6001851615610c1f5780820291505b8081029050610c2d85610bdf565b9450610bf4565b94509492505050565b5f82610c4c5760019050610d07565b81610c59575f9050610d07565b8160018114610c6f5760028114610c7957610ca8565b6001915050610d07565b60ff841115610c8b57610c8a610bb2565b5b8360020a915084821115610ca257610ca1610bb2565b5b50610d07565b5060208310610133831016604e8410600b8410161715610cdd5782820a905083811115610cd857610cd7610bb2565b5b610d07565b610cea8484846001610beb565b92509050818404811115610d0157610d00610bb2565b5b81810290505b9392505050565b5f610d1882610730565b9150610d2383610730565b9250610d507fffffffffffffffffffffffffffffffffffffffffffffffffffffffffffffffff8484610c3d565b905092915050565b5f610d6282610730565b9150610d6d83610730565b9250828202610d7b81610730565b91508282048414831517610d9257610d91610bb2565b5b5092915050565b5f604082019050610dac5f830185610a19565b610db96020830184610a41565b9392505050565b5f604082019050610dd35f830185610a19565b8181036020830152610de581846107e0565b9050939250505056fea26469706673582212204532bef060620eeb0e626965b4ae239b011c684674c40642add9fb140bb94fd564736f6c63430008160033",
					"opcodes": "PUSH1 0x80 PUSH1 0x40 MSTORE CALLVALUE DUP1 ISZERO PUSH3 0x10 JUMPI PUSH0 DUP1 REVERT JUMPDEST POP PUSH1 0x40 MLOAD PUSH3 0x1070 CODESIZE SUB DUP1 PUSH3 0x1070 DUP4 CODECOPY DUP2 DUP2 ADD PUSH1 0x40 MSTORE DUP2 ADD SWAP1 PUSH3 0x36 SWAP2 SWAP1 PUSH3 0x1F9 JUMP JUMPDEST DUP2 PUSH0 DUP1 PUSH2 0x100 EXP DUP2 SLOAD DUP2 PUSH20 0xFFFFFFFFFFFFFFFFFFFFFFFFFFFFFFFFFFFFFFFF MUL NOT AND SWAP1 DUP4 PUSH20 0xFFFFFFFFFFFFFFFFFFFFFFFFFFFFFFFFFFFFFFFF AND MUL OR SWAP1 SSTORE POP DUP1 PUSH1 0x1 PUSH0 PUSH2 0x100 EXP DUP2 SLOAD DUP2 PUSH20 0xFFFFFFFFFFFFFFFFFFFFFFFFFFFFFFFFFFFFFFFF MUL NOT AND SWAP1 DUP4 PUSH20 0xFFFFFFFFFFFFFFFFFFFFFFFFFFFFFFFFFFFFFFFF AND MUL OR SWAP1 SSTORE POP PUSH0 DUP1 SLOAD SWAP1 PUSH2 0x100 EXP SWAP1 DIV PUSH20 0xFFFFFFFFFFFFFFFFFFFFFFFFFFFFFFFFFFFFFFFF AND PUSH1 0x2 PUSH0 PUSH2 0x100 EXP DUP2 SLOAD DUP2 PUSH20 0xFFFFFFFFFFFFFFFFFFFFFFFFFFFFFFFFFFFFFFFF MUL NOT AND SWAP1 DUP4 PUSH20 0xFFFFFFFFFFFFFFFFFFFFFFFFFFFFFFFFFFFFFFFF AND MUL OR SWAP1 SSTORE POP PUSH1 0x1 PUSH0 SWAP1 SLOAD SWAP1 PUSH2 0x100 EXP SWAP1 DIV PUSH20 0xFFFFFFFFFFFFFFFFFFFFFFFFFFFFFFFFFFFFFFFF AND PUSH1 0x3 PUSH0 PUSH2 0x100 EXP DUP2 SLOAD DUP2 PUSH20 0xFFFFFFFFFFFFFFFFFFFFFFFFFFFFFFFFFFFFFFFF MUL NOT AND SWAP1 DUP4 PUSH20 0xFFFFFFFFFFFFFFFFFFFFFFFFFFFFFFFFFFFFFFFF AND MUL OR SWAP1 SSTORE POP PUSH1 0x14 PUSH1 0x4 DUP2 SWAP1 SSTORE POP PUSH1 0x5 DUP1 DUP2 SWAP1 SSTORE POP PUSH1 0xA PUSH1 0x6 DUP2 SWAP1 SSTORE POP POP POP PUSH3 0x23E JUMP JUMPDEST PUSH0 DUP1 REVERT JUMPDEST PUSH0 PUSH20 0xFFFFFFFFFFFFFFFFFFFFFFFFFFFFFFFFFFFFFFFF DUP3 AND SWAP1 POP SWAP2 SWAP1 POP JUMP JUMPDEST PUSH0 PUSH3 0x1C3 DUP3 PUSH3 0x198 JUMP JUMPDEST SWAP1 POP SWAP2 SWAP1 POP JUMP JUMPDEST PUSH3 0x1D5 DUP2 PUSH3 0x1B7 JUMP JUMPDEST DUP2 EQ PUSH3 0x1E0 JUMPI PUSH0 DUP1 REVERT JUMPDEST POP JUMP JUMPDEST PUSH0 DUP2 MLOAD SWAP1 POP PUSH3 0x1F3 DUP2 PUSH3 0x1CA JUMP JUMPDEST SWAP3 SWAP2 POP POP JUMP JUMPDEST PUSH0 DUP1 PUSH1 0x40 DUP4 DUP6 SUB SLT ISZERO PUSH3 0x212 JUMPI PUSH3 0x211 PUSH3 0x194 JUMP JUMPDEST JUMPDEST PUSH0 PUSH3 0x221 DUP6 DUP3 DUP7 ADD PUSH3 0x1E3 JUMP JUMPDEST SWAP3 POP POP PUSH1 0x20 PUSH3 0x234 DUP6 DUP3 DUP7 ADD PUSH3 0x1E3 JUMP JUMPDEST SWAP2 POP POP SWAP3 POP SWAP3 SWAP1 POP JUMP JUMPDEST PUSH2 0xE24 DUP1 PUSH3 0x24C PUSH0 CODECOPY PUSH0 RETURN INVALID PUSH1 0x80 PUSH1 0x40 MSTORE CALLVALUE DUP1 ISZERO PUSH2 0xF JUMPI PUSH0 DUP1 REVERT JUMPDEST POP PUSH1 0x4 CALLDATASIZE LT PUSH2 0x55 JUMPI PUSH0 CALLDATALOAD PUSH1 0xE0 SHR DUP1 PUSH4 0x28E7B2A6 EQ PUSH2 0x59 JUMPI DUP1 PUSH4 0x4CCADB69 EQ PUSH2 0x89 JUMPI DUP1 PUSH4 0x6DC32BBA EQ PUSH2 0xA5 JUMPI DUP1 PUSH4 0xEE79C9E2 EQ PUSH2 0xC1 JUMPI DUP1 PUSH4 0xF20FA822 EQ PUSH2 0xF1 JUMPI JUMPDEST PUSH0 DUP1 REVERT JUMPDEST PUSH2 0x73 PUSH1 0x4 DUP1 CALLDATASIZE SUB DUP2 ADD SWAP1 PUSH2 0x6E SWAP2 SWAP1 PUSH2 0x763 JUMP JUMPDEST PUSH2 0x10D JUMP JUMPDEST PUSH1 0x40 MLOAD PUSH2 0x80 SWAP2 SWAP1 PUSH2 0x818 JUMP JUMPDEST PUSH1 0x40 MLOAD DUP1 SWAP2 SUB SWAP1 RETURN JUMPDEST PUSH2 0xA3 PUSH1 0x4 DUP1 CALLDATASIZE SUB DUP2 ADD SWAP1 PUSH2 0x9E SWAP2 SWAP1 PUSH2 0x838 JUMP JUMPDEST PUSH2 0x1B2 JUMP JUMPDEST STOP JUMPDEST PUSH2 0xBF PUSH1 0x4 DUP1 CALLDATASIZE SUB DUP2 ADD SWAP1 PUSH2 0xBA SWAP2 SWAP1 PUSH2 0x9A2 JUMP JUMPDEST PUSH2 0x380 JUMP JUMPDEST STOP JUMPDEST PUSH2 0xDB PUSH1 0x4 DUP1 CALLDATASIZE SUB DUP2 ADD SWAP1 PUSH2 0xD6 SWAP2 SWAP1 PUSH2 0x763 JUMP JUMPDEST PUSH2 0x540 JUMP JUMPDEST PUSH1 0x40 MLOAD PUSH2 0xE8 SWAP2 SWAP1 PUSH2 0xA28 JUMP JUMPDEST PUSH1 0x40 MLOAD DUP1 SWAP2 SUB SWAP1 RETURN JUMPDEST PUSH2 0x10B PUSH1 0x4 DUP1 CALLDATASIZE SUB DUP2 ADD SWAP1 PUSH2 0x106 SWAP2 SWAP1 PUSH2 0x763 JUMP JUMPDEST PUSH2 0x5E1 JUMP JUMPDEST STOP JUMPDEST PUSH1 0x60 PUSH1 0x2 PUSH0 SWAP1 SLOAD SWAP1 PUSH2 0x100 EXP SWAP1 DIV PUSH20 0xFFFFFFFFFFFFFFFFFFFFFFFFFFFFFFFFFFFFFFFF AND PUSH20 0xFFFFFFFFFFFFFFFFFFFFFFFFFFFFFFFFFFFFFFFF AND PUSH4 0x28E7B2A6 DUP4 PUSH1 0x40 MLOAD DUP3 PUSH4 0xFFFFFFFF AND PUSH1 0xE0 SHL DUP2 MSTORE PUSH1 0x4 ADD PUSH2 0x169 SWAP2 SWAP1 PUSH2 0xA50 JUMP JUMPDEST PUSH0 PUSH1 0x40 MLOAD DUP1 DUP4 SUB DUP2 DUP7 GAS STATICCALL ISZERO DUP1 ISZERO PUSH2 0x183 JUMPI RETURNDATASIZE PUSH0 DUP1 RETURNDATACOPY RETURNDATASIZE PUSH0 REVERT JUMPDEST POP POP POP POP PUSH1 0x40 MLOAD RETURNDATASIZE PUSH0 DUP3 RETURNDATACOPY RETURNDATASIZE PUSH1 0x1F NOT PUSH1 0x1F DUP3 ADD AND DUP3 ADD DUP1 PUSH1 0x40 MSTORE POP DUP2 ADD SWAP1 PUSH2 0x1AB SWAP2 SWAP1 PUSH2 0xAD7 JUMP JUMPDEST SWAP1 POP SWAP2 SWAP1 POP JUMP JUMPDEST PUSH0 PUSH1 0x2 PUSH0 SWAP1 SLOAD SWAP1 PUSH2 0x100 EXP SWAP1 DIV PUSH20 0xFFFFFFFFFFFFFFFFFFFFFFFFFFFFFFFFFFFFFFFF AND PUSH20 0xFFFFFFFFFFFFFFFFFFFFFFFFFFFFFFFFFFFFFFFF AND PUSH4 0x6352211E DUP5 PUSH1 0x40 MLOAD DUP3 PUSH4 0xFFFFFFFF AND PUSH1 0xE0 SHL DUP2 MSTORE PUSH1 0x4 ADD PUSH2 0x20D SWAP2 SWAP1 PUSH2 0xA50 JUMP JUMPDEST PUSH1 0x20 PUSH1 0x40 MLOAD DUP1 DUP4 SUB DUP2 DUP7 GAS STATICCALL ISZERO DUP1 ISZERO PUSH2 0x228 JUMPI RETURNDATASIZE PUSH0 DUP1 RETURNDATACOPY RETURNDATASIZE PUSH0 REVERT JUMPDEST POP POP POP POP PUSH1 0x40 MLOAD RETURNDATASIZE PUSH1 0x1F NOT PUSH1 0x1F DUP3 ADD AND DUP3 ADD DUP1 PUSH1 0x40 MSTORE POP DUP2 ADD SWAP1 PUSH2 0x24C SWAP2 SWAP1 PUSH2 0xB48 JUMP JUMPDEST SWAP1 POP PUSH1 0x3 PUSH0 SWAP1 SLOAD SWAP1 PUSH2 0x100 EXP SWAP1 DIV PUSH20 0xFFFFFFFFFFFFFFFFFFFFFFFFFFFFFFFFFFFFFFFF AND PUSH20 0xFFFFFFFFFFFFFFFFFFFFFFFFFFFFFFFFFFFFFFFF AND PUSH4 0x21670F22 DUP3 PUSH1 0x3 PUSH0 SWAP1 SLOAD SWAP1 PUSH2 0x100 EXP SWAP1 DIV PUSH20 0xFFFFFFFFFFFFFFFFFFFFFFFFFFFFFFFFFFFFFFFF AND PUSH20 0xFFFFFFFFFFFFFFFFFFFFFFFFFFFFFFFFFFFFFFFF AND PUSH4 0x313CE567 PUSH1 0x40 MLOAD DUP2 PUSH4 0xFFFFFFFF AND PUSH1 0xE0 SHL DUP2 MSTORE PUSH1 0x4 ADD PUSH1 0x20 PUSH1 0x40 MLOAD DUP1 DUP4 SUB DUP2 DUP7 GAS STATICCALL ISZERO DUP1 ISZERO PUSH2 0x2F6 JUMPI RETURNDATASIZE PUSH0 DUP1 RETURNDATACOPY RETURNDATASIZE PUSH0 REVERT JUMPDEST POP POP POP POP PUSH1 0x40 MLOAD RETURNDATASIZE PUSH1 0x1F NOT PUSH1 0x1F DUP3 ADD AND DUP3 ADD DUP1 PUSH1 0x40 MSTORE POP DUP2 ADD SWAP1 PUSH2 0x31A SWAP2 SWAP1 PUSH2 0xB87 JUMP JUMPDEST PUSH1 0xA PUSH2 0x326 SWAP2 SWAP1 PUSH2 0xD0E JUMP JUMPDEST DUP6 PUSH2 0x331 SWAP2 SWAP1 PUSH2 0xD58 JUMP JUMPDEST PUSH1 0x40 MLOAD DUP4 PUSH4 0xFFFFFFFF AND PUSH1 0xE0 SHL DUP2 MSTORE PUSH1 0x4 ADD PUSH2 0x34E SWAP3 SWAP2 SWAP1 PUSH2 0xD99 JUMP JUMPDEST PUSH0 PUSH1 0x40 MLOAD DUP1 DUP4 SUB DUP2 PUSH0 DUP8 DUP1 EXTCODESIZE ISZERO DUP1 ISZERO PUSH2 0x365 JUMPI PUSH0 DUP1 REVERT JUMPDEST POP GAS CALL ISZERO DUP1 ISZERO PUSH2 0x377 JUMPI RETURNDATASIZE PUSH0 DUP1 RETURNDATACOPY RETURNDATASIZE PUSH0 REVERT JUMPDEST POP POP POP POP POP POP POP JUMP JUMPDEST PUSH0 PUSH1 0x3 PUSH0 SWAP1 SLOAD SWAP1 PUSH2 0x100 EXP SWAP1 DIV PUSH20 0xFFFFFFFFFFFFFFFFFFFFFFFFFFFFFFFFFFFFFFFF AND PUSH20 0xFFFFFFFFFFFFFFFFFFFFFFFFFFFFFFFFFFFFFFFF AND PUSH4 0x313CE567 PUSH1 0x40 MLOAD DUP2 PUSH4 0xFFFFFFFF AND PUSH1 0xE0 SHL DUP2 MSTORE PUSH1 0x4 ADD PUSH1 0x20 PUSH1 0x40 MLOAD DUP1 DUP4 SUB DUP2 DUP7 GAS STATICCALL ISZERO DUP1 ISZERO PUSH2 0x3EB JUMPI RETURNDATASIZE PUSH0 DUP1 RETURNDATACOPY RETURNDATASIZE PUSH0 REVERT JUMPDEST POP POP POP POP PUSH1 0x40 MLOAD RETURNDATASIZE PUSH1 0x1F NOT PUSH1 0x1F DUP3 ADD AND DUP3 ADD DUP1 PUSH1 0x40 MSTORE POP DUP2 ADD SWAP1 PUSH2 0x40F SWAP2 SWAP1 PUSH2 0xB87 JUMP JUMPDEST PUSH1 0xA PUSH2 0x41B SWAP2 SWAP1 PUSH2 0xD0E JUMP JUMPDEST PUSH1 0x4 SLOAD PUSH2 0x428 SWAP2 SWAP1 PUSH2 0xD58 JUMP JUMPDEST SWAP1 POP PUSH1 0x2 PUSH0 SWAP1 SLOAD SWAP1 PUSH2 0x100 EXP SWAP1 DIV PUSH20 0xFFFFFFFFFFFFFFFFFFFFFFFFFFFFFFFFFFFFFFFF AND PUSH20 0xFFFFFFFFFFFFFFFFFFFFFFFFFFFFFFFFFFFFFFFF AND PUSH4 0xD15AECD3 CALLER DUP5 PUSH1 0x40 MLOAD DUP4 PUSH4 0xFFFFFFFF AND PUSH1 0xE0 SHL DUP2 MSTORE PUSH1 0x4 ADD PUSH2 0x486 SWAP3 SWAP2 SWAP1 PUSH2 0xDC0 JUMP JUMPDEST PUSH0 PUSH1 0x40 MLOAD DUP1 DUP4 SUB DUP2 PUSH0 DUP8 DUP1 EXTCODESIZE ISZERO DUP1 ISZERO PUSH2 0x49D JUMPI PUSH0 DUP1 REVERT JUMPDEST POP GAS CALL ISZERO DUP1 ISZERO PUSH2 0x4AF JUMPI RETURNDATASIZE PUSH0 DUP1 RETURNDATACOPY RETURNDATASIZE PUSH0 REVERT JUMPDEST POP POP POP POP PUSH1 0x3 PUSH0 SWAP1 SLOAD SWAP1 PUSH2 0x100 EXP SWAP1 DIV PUSH20 0xFFFFFFFFFFFFFFFFFFFFFFFFFFFFFFFFFFFFFFFF AND PUSH20 0xFFFFFFFFFFFFFFFFFFFFFFFFFFFFFFFFFFFFFFFF AND PUSH4 0x21670F22 CALLER DUP4 PUSH1 0x40 MLOAD DUP4 PUSH4 0xFFFFFFFF AND PUSH1 0xE0 SHL DUP2 MSTORE PUSH1 0x4 ADD PUSH2 0x50F SWAP3 SWAP2 SWAP1 PUSH2 0xD99 JUMP JUMPDEST PUSH0 PUSH1 0x40 MLOAD DUP1 DUP4 SUB DUP2 PUSH0 DUP8 DUP1 EXTCODESIZE ISZERO DUP1 ISZERO PUSH2 0x526 JUMPI PUSH0 DUP1 REVERT JUMPDEST POP GAS CALL ISZERO DUP1 ISZERO PUSH2 0x538 JUMPI RETURNDATASIZE PUSH0 DUP1 RETURNDATACOPY RETURNDATASIZE PUSH0 REVERT JUMPDEST POP POP POP POP POP POP JUMP JUMPDEST PUSH0 PUSH1 0x2 PUSH0 SWAP1 SLOAD SWAP1 PUSH2 0x100 EXP SWAP1 DIV PUSH20 0xFFFFFFFFFFFFFFFFFFFFFFFFFFFFFFFFFFFFFFFF AND PUSH20 0xFFFFFFFFFFFFFFFFFFFFFFFFFFFFFFFFFFFFFFFF AND PUSH4 0x6352211E DUP4 PUSH1 0x40 MLOAD DUP3 PUSH4 0xFFFFFFFF AND PUSH1 0xE0 SHL DUP2 MSTORE PUSH1 0x4 ADD PUSH2 0x59B SWAP2 SWAP1 PUSH2 0xA50 JUMP JUMPDEST PUSH1 0x20 PUSH1 0x40 MLOAD DUP1 DUP4 SUB DUP2 DUP7 GAS STATICCALL ISZERO DUP1 ISZERO PUSH2 0x5B6 JUMPI RETURNDATASIZE PUSH0 DUP1 RETURNDATACOPY RETURNDATASIZE PUSH0 REVERT JUMPDEST POP POP POP POP PUSH1 0x40 MLOAD RETURNDATASIZE PUSH1 0x1F NOT PUSH1 0x1F DUP3 ADD AND DUP3 ADD DUP1 PUSH1 0x40 MSTORE POP DUP2 ADD SWAP1 PUSH2 0x5DA SWAP2 SWAP1 PUSH2 0xB48 JUMP JUMPDEST SWAP1 POP SWAP2 SWAP1 POP JUMP JUMPDEST PUSH1 0x3 PUSH0 SWAP1 SLOAD SWAP1 PUSH2 0x100 EXP SWAP1 DIV PUSH20 0xFFFFFFFFFFFFFFFFFFFFFFFFFFFFFFFFFFFFFFFF AND PUSH20 0xFFFFFFFFFFFFFFFFFFFFFFFFFFFFFFFFFFFFFFFF AND PUSH4 0x21670F22 CALLER PUSH1 0x3 PUSH0 SWAP1 SLOAD SWAP1 PUSH2 0x100 EXP SWAP1 DIV PUSH20 0xFFFFFFFFFFFFFFFFFFFFFFFFFFFFFFFFFFFFFFFF AND PUSH20 0xFFFFFFFFFFFFFFFFFFFFFFFFFFFFFFFFFFFFFFFF AND PUSH4 0x313CE567 PUSH1 0x40 MLOAD DUP2 PUSH4 0xFFFFFFFF AND PUSH1 0xE0 SHL DUP2 MSTORE PUSH1 0x4 ADD PUSH1 0x20 PUSH1 0x40 MLOAD DUP1 DUP4 SUB DUP2 DUP7 GAS STATICCALL ISZERO DUP1 ISZERO PUSH2 0x689 JUMPI RETURNDATASIZE PUSH0 DUP1 RETURNDATACOPY RETURNDATASIZE PUSH0 REVERT JUMPDEST POP POP POP POP PUSH1 0x40 MLOAD RETURNDATASIZE PUSH1 0x1F NOT PUSH1 0x1F DUP3 ADD AND DUP3 ADD DUP1 PUSH1 0x40 MSTORE POP DUP2 ADD SWAP1 PUSH2 0x6AD SWAP2 SWAP1 PUSH2 0xB87 JUMP JUMPDEST PUSH1 0xA PUSH2 0x6B9 SWAP2 SWAP1 PUSH2 0xD0E JUMP JUMPDEST PUSH1 0x5 SLOAD PUSH2 0x6C6 SWAP2 SWAP1 PUSH2 0xD58 JUMP JUMPDEST PUSH1 0x40 MLOAD DUP4 PUSH4 0xFFFFFFFF AND PUSH1 0xE0 SHL DUP2 MSTORE PUSH1 0x4 ADD PUSH2 0x6E3 SWAP3 SWAP2 SWAP1 PUSH2 0xD99 JUMP JUMPDEST PUSH0 PUSH1 0x40 MLOAD DUP1 DUP4 SUB DUP2 PUSH0 DUP8 DUP1 EXTCODESIZE ISZERO DUP1 ISZERO PUSH2 0x6FA JUMPI PUSH0 DUP1 REVERT JUMPDEST POP GAS CALL ISZERO DUP1 ISZERO PUSH2 0x70C JUMPI RETURNDATASIZE PUSH0 DUP1 RETURNDATACOPY RETURNDATASIZE PUSH0 REVERT JUMPDEST POP POP POP POP PUSH2 0x71C DUP2 PUSH1 0x6 SLOAD PUSH2 0x1B2 JUMP JUMPDEST POP JUMP JUMPDEST PUSH0 PUSH1 0x40 MLOAD SWAP1 POP SWAP1 JUMP JUMPDEST PUSH0 DUP1 REVERT JUMPDEST PUSH0 DUP1 REVERT JUMPDEST PUSH0 DUP2 SWAP1 POP SWAP2 SWAP1 POP JUMP JUMPDEST PUSH2 0x742 DUP2 PUSH2 0x730 JUMP JUMPDEST DUP2 EQ PUSH2 0x74C JUMPI PUSH0 DUP1 REVERT JUMPDEST POP JUMP JUMPDEST PUSH0 DUP2 CALLDATALOAD SWAP1 POP PUSH2 0x75D DUP2 PUSH2 0x739 JUMP JUMPDEST SWAP3 SWAP2 POP POP JUMP JUMPDEST PUSH0 PUSH1 0x20 DUP3 DUP5 SUB SLT ISZERO PUSH2 0x778 JUMPI PUSH2 0x777 PUSH2 0x728 JUMP JUMPDEST JUMPDEST PUSH0 PUSH2 0x785 DUP5 DUP3 DUP6 ADD PUSH2 0x74F JUMP JUMPDEST SWAP2 POP POP SWAP3 SWAP2 POP POP JUMP JUMPDEST PUSH0 DUP2 MLOAD SWAP1 POP SWAP2 SWAP1 POP JUMP JUMPDEST PUSH0 DUP3 DUP3 MSTORE PUSH1 0x20 DUP3 ADD SWAP1 POP SWAP3 SWAP2 POP POP JUMP JUMPDEST PUSH0 JUMPDEST DUP4 DUP2 LT ISZERO PUSH2 0x7C5 JUMPI DUP1 DUP3 ADD MLOAD DUP2 DUP5 ADD MSTORE PUSH1 0x20 DUP2 ADD SWAP1 POP PUSH2 0x7AA JUMP JUMPDEST PUSH0 DUP5 DUP5 ADD MSTORE POP POP POP POP JUMP JUMPDEST PUSH0 PUSH1 0x1F NOT PUSH1 0x1F DUP4 ADD AND SWAP1 POP SWAP2 SWAP1 POP JUMP JUMPDEST PUSH0 PUSH2 0x7EA DUP3 PUSH2 0x78E JUMP JUMPDEST PUSH2 0x7F4 DUP2 DUP6 PUSH2 0x798 JUMP JUMPDEST SWAP4 POP PUSH2 0x804 DUP2 DUP6 PUSH1 0x20 DUP7 ADD PUSH2 0x7A8 JUMP JUMPDEST PUSH2 0x80D DUP2 PUSH2 0x7D0 JUMP JUMPDEST DUP5 ADD SWAP2 POP POP SWAP3 SWAP2 POP POP JUMP JUMPDEST PUSH0 PUSH1 0x20 DUP3 ADD SWAP1 POP DUP2 DUP2 SUB PUSH0 DUP4 ADD MSTORE PUSH2 0x830 DUP2 DUP5 PUSH2 0x7E0 JUMP JUMPDEST SWAP1 POP SWAP3 SWAP2 POP POP JUMP JUMPDEST PUSH0 DUP1 PUSH1 0x40 DUP4 DUP6 SUB SLT ISZERO PUSH2 0x84E JUMPI PUSH2 0x84D PUSH2 0x728 JUMP JUMPDEST JUMPDEST PUSH0 PUSH2 0x85B DUP6 DUP3 DUP7 ADD PUSH2 0x74F JUMP JUMPDEST SWAP3 POP POP PUSH1 0x20 PUSH2 0x86C DUP6 DUP3 DUP7 ADD PUSH2 0x74F JUMP JUMPDEST SWAP2 POP POP SWAP3 POP SWAP3 SWAP1 POP JUMP JUMPDEST PUSH0 DUP1 REVERT JUMPDEST PUSH0 DUP1 REVERT JUMPDEST PUSH32 0x4E487B7100000000000000000000000000000000000000000000000000000000 PUSH0 MSTORE PUSH1 0x41 PUSH1 0x4 MSTORE PUSH1 0x24 PUSH0 REVERT JUMPDEST PUSH2 0x8B4 DUP3 PUSH2 0x7D0 JUMP JUMPDEST DUP2 ADD DUP2 DUP2 LT PUSH8 0xFFFFFFFFFFFFFFFF DUP3 GT OR ISZERO PUSH2 0x8D3 JUMPI PUSH2 0x8D2 PUSH2 0x87E JUMP JUMPDEST JUMPDEST DUP1 PUSH1 0x40 MSTORE POP POP POP JUMP JUMPDEST PUSH0 PUSH2 0x8E5 PUSH2 0x71F JUMP JUMPDEST SWAP1 POP PUSH2 0x8F1 DUP3 DUP3 PUSH2 0x8AB JUMP JUMPDEST SWAP2 SWAP1 POP JUMP JUMPDEST PUSH0 PUSH8 0xFFFFFFFFFFFFFFFF DUP3 GT ISZERO PUSH2 0x910 JUMPI PUSH2 0x90F PUSH2 0x87E JUMP JUMPDEST JUMPDEST PUSH2 0x919 DUP3 PUSH2 0x7D0 JUMP JUMPDEST SWAP1 POP PUSH1 0x20 DUP2 ADD SWAP1 POP SWAP2 SWAP1 POP JUMP JUMPDEST DUP3 DUP2 DUP4 CALLDATACOPY PUSH0 DUP4 DUP4 ADD MSTORE POP POP POP JUMP JUMPDEST PUSH0 PUSH2 0x946 PUSH2 0x941 DUP5 PUSH2 0x8F6 JUMP JUMPDEST PUSH2 0x8DC JUMP JUMPDEST SWAP1 POP DUP3 DUP2 MSTORE PUSH1 0x20 DUP2 ADD DUP5 DUP5 DUP5 ADD GT ISZERO PUSH2 0x962 JUMPI PUSH2 0x961 PUSH2 0x87A JUMP JUMPDEST JUMPDEST PUSH2 0x96D DUP5 DUP3 DUP6 PUSH2 0x926 JUMP JUMPDEST POP SWAP4 SWAP3 POP POP POP JUMP JUMPDEST PUSH0 DUP3 PUSH1 0x1F DUP4 ADD SLT PUSH2 0x989 JUMPI PUSH2 0x988 PUSH2 0x876 JUMP JUMPDEST JUMPDEST DUP2 CALLDATALOAD PUSH2 0x999 DUP5 DUP3 PUSH1 0x20 DUP7 ADD PUSH2 0x934 JUMP JUMPDEST SWAP2 POP POP SWAP3 SWAP2 POP POP JUMP JUMPDEST PUSH0 PUSH1 0x20 DUP3 DUP5 SUB SLT ISZERO PUSH2 0x9B7 JUMPI PUSH2 0x9B6 PUSH2 0x728 JUMP JUMPDEST JUMPDEST PUSH0 DUP3 ADD CALLDATALOAD PUSH8 0xFFFFFFFFFFFFFFFF DUP2 GT ISZERO PUSH2 0x9D4 JUMPI PUSH2 0x9D3 PUSH2 0x72C JUMP JUMPDEST JUMPDEST PUSH2 0x9E0 DUP5 DUP3 DUP6 ADD PUSH2 0x975 JUMP JUMPDEST SWAP2 POP POP SWAP3 SWAP2 POP POP JUMP JUMPDEST PUSH0 PUSH20 0xFFFFFFFFFFFFFFFFFFFFFFFFFFFFFFFFFFFFFFFF DUP3 AND SWAP1 POP SWAP2 SWAP1 POP JUMP JUMPDEST PUSH0 PUSH2 0xA12 DUP3 PUSH2 0x9E9 JUMP JUMPDEST SWAP1 POP SWAP2 SWAP1 POP JUMP JUMPDEST PUSH2 0xA22 DUP2 PUSH2 0xA08 JUMP JUMPDEST DUP3 MSTORE POP POP JUMP JUMPDEST PUSH0 PUSH1 0x20 DUP3 ADD SWAP1 POP PUSH2 0xA3B PUSH0 DUP4 ADD DUP5 PUSH2 0xA19 JUMP JUMPDEST SWAP3 SWAP2 POP POP JUMP JUMPDEST PUSH2 0xA4A DUP2 PUSH2 0x730 JUMP JUMPDEST DUP3 MSTORE POP POP JUMP JUMPDEST PUSH0 PUSH1 0x20 DUP3 ADD SWAP1 POP PUSH2 0xA63 PUSH0 DUP4 ADD DUP5 PUSH2 0xA41 JUMP JUMPDEST SWAP3 SWAP2 POP POP JUMP JUMPDEST PUSH0 PUSH2 0xA7B PUSH2 0xA76 DUP5 PUSH2 0x8F6 JUMP JUMPDEST PUSH2 0x8DC JUMP JUMPDEST SWAP1 POP DUP3 DUP2 MSTORE PUSH1 0x20 DUP2 ADD DUP5 DUP5 DUP5 ADD GT ISZERO PUSH2 0xA97 JUMPI PUSH2 0xA96 PUSH2 0x87A JUMP JUMPDEST JUMPDEST PUSH2 0xAA2 DUP5 DUP3 DUP6 PUSH2 0x7A8 JUMP JUMPDEST POP SWAP4 SWAP3 POP POP POP JUMP JUMPDEST PUSH0 DUP3 PUSH1 0x1F DUP4 ADD SLT PUSH2 0xABE JUMPI PUSH2 0xABD PUSH2 0x876 JUMP JUMPDEST JUMPDEST DUP2 MLOAD PUSH2 0xACE DUP5 DUP3 PUSH1 0x20 DUP7 ADD PUSH2 0xA69 JUMP JUMPDEST SWAP2 POP POP SWAP3 SWAP2 POP POP JUMP JUMPDEST PUSH0 PUSH1 0x20 DUP3 DUP5 SUB SLT ISZERO PUSH2 0xAEC JUMPI PUSH2 0xAEB PUSH2 0x728 JUMP JUMPDEST JUMPDEST PUSH0 DUP3 ADD MLOAD PUSH8 0xFFFFFFFFFFFFFFFF DUP2 GT ISZERO PUSH2 0xB09 JUMPI PUSH2 0xB08 PUSH2 0x72C JUMP JUMPDEST JUMPDEST PUSH2 0xB15 DUP5 DUP3 DUP6 ADD PUSH2 0xAAA JUMP JUMPDEST SWAP2 POP POP SWAP3 SWAP2 POP POP JUMP JUMPDEST PUSH2 0xB27 DUP2 PUSH2 0xA08 JUMP JUMPDEST DUP2 EQ PUSH2 0xB31 JUMPI PUSH0 DUP1 REVERT JUMPDEST POP JUMP JUMPDEST PUSH0 DUP2 MLOAD SWAP1 POP PUSH2 0xB42 DUP2 PUSH2 0xB1E JUMP JUMPDEST SWAP3 SWAP2 POP POP JUMP JUMPDEST PUSH0 PUSH1 0x20 DUP3 DUP5 SUB SLT ISZERO PUSH2 0xB5D JUMPI PUSH2 0xB5C PUSH2 0x728 JUMP JUMPDEST JUMPDEST PUSH0 PUSH2 0xB6A DUP5 DUP3 DUP6 ADD PUSH2 0xB34 JUMP JUMPDEST SWAP2 POP POP SWAP3 SWAP2 POP POP JUMP JUMPDEST PUSH0 DUP2 MLOAD SWAP1 POP PUSH2 0xB81 DUP2 PUSH2 0x739 JUMP JUMPDEST SWAP3 SWAP2 POP POP JUMP JUMPDEST PUSH0 PUSH1 0x20 DUP3 DUP5 SUB SLT ISZERO PUSH2 0xB9C JUMPI PUSH2 0xB9B PUSH2 0x728 JUMP JUMPDEST JUMPDEST PUSH0 PUSH2 0xBA9 DUP5 DUP3 DUP6 ADD PUSH2 0xB73 JUMP JUMPDEST SWAP2 POP POP SWAP3 SWAP2 POP POP JUMP JUMPDEST PUSH32 0x4E487B7100000000000000000000000000000000000000000000000000000000 PUSH0 MSTORE PUSH1 0x11 PUSH1 0x4 MSTORE PUSH1 0x24 PUSH0 REVERT JUMPDEST PUSH0 DUP2 PUSH1 0x1 SHR SWAP1 POP SWAP2 SWAP1 POP JUMP JUMPDEST PUSH0 DUP1 DUP3 SWAP2 POP DUP4 SWAP1 POP JUMPDEST PUSH1 0x1 DUP6 GT ISZERO PUSH2 0xC34 JUMPI DUP1 DUP7 DIV DUP2 GT ISZERO PUSH2 0xC10 JUMPI PUSH2 0xC0F PUSH2 0xBB2 JUMP JUMPDEST JUMPDEST PUSH1 0x1 DUP6 AND ISZERO PUSH2 0xC1F JUMPI DUP1 DUP3 MUL SWAP2 POP JUMPDEST DUP1 DUP2 MUL SWAP1 POP PUSH2 0xC2D DUP6 PUSH2 0xBDF JUMP JUMPDEST SWAP5 POP PUSH2 0xBF4 JUMP JUMPDEST SWAP5 POP SWAP5 SWAP3 POP POP POP JUMP JUMPDEST PUSH0 DUP3 PUSH2 0xC4C JUMPI PUSH1 0x1 SWAP1 POP PUSH2 0xD07 JUMP JUMPDEST DUP2 PUSH2 0xC59 JUMPI PUSH0 SWAP1 POP PUSH2 0xD07 JUMP JUMPDEST DUP2 PUSH1 0x1 DUP2 EQ PUSH2 0xC6F JUMPI PUSH1 0x2 DUP2 EQ PUSH2 0xC79 JUMPI PUSH2 0xCA8 JUMP JUMPDEST PUSH1 0x1 SWAP2 POP POP PUSH2 0xD07 JUMP JUMPDEST PUSH1 0xFF DUP5 GT ISZERO PUSH2 0xC8B JUMPI PUSH2 0xC8A PUSH2 0xBB2 JUMP JUMPDEST JUMPDEST DUP4 PUSH1 0x2 EXP SWAP2 POP DUP5 DUP3 GT ISZERO PUSH2 0xCA2 JUMPI PUSH2 0xCA1 PUSH2 0xBB2 JUMP JUMPDEST JUMPDEST POP PUSH2 0xD07 JUMP JUMPDEST POP PUSH1 0x20 DUP4 LT PUSH2 0x133 DUP4 LT AND PUSH1 0x4E DUP5 LT PUSH1 0xB DUP5 LT AND OR ISZERO PUSH2 0xCDD JUMPI DUP3 DUP3 EXP SWAP1 POP DUP4 DUP2 GT ISZERO PUSH2 0xCD8 JUMPI PUSH2 0xCD7 PUSH2 0xBB2 JUMP JUMPDEST JUMPDEST PUSH2 0xD07 JUMP JUMPDEST PUSH2 0xCEA DUP5 DUP5 DUP5 PUSH1 0x1 PUSH2 0xBEB JUMP JUMPDEST SWAP3 POP SWAP1 POP DUP2 DUP5 DIV DUP2 GT ISZERO PUSH2 0xD01 JUMPI PUSH2 0xD00 PUSH2 0xBB2 JUMP JUMPDEST JUMPDEST DUP2 DUP2 MUL SWAP1 POP JUMPDEST SWAP4 SWAP3 POP POP POP JUMP JUMPDEST PUSH0 PUSH2 0xD18 DUP3 PUSH2 0x730 JUMP JUMPDEST SWAP2 POP PUSH2 0xD23 DUP4 PUSH2 0x730 JUMP JUMPDEST SWAP3 POP PUSH2 0xD50 PUSH32 0xFFFFFFFFFFFFFFFFFFFFFFFFFFFFFFFFFFFFFFFFFFFFFFFFFFFFFFFFFFFFFFFF DUP5 DUP5 PUSH2 0xC3D JUMP JUMPDEST SWAP1 POP SWAP3 SWAP2 POP POP JUMP JUMPDEST PUSH0 PUSH2 0xD62 DUP3 PUSH2 0x730 JUMP JUMPDEST SWAP2 POP PUSH2 0xD6D DUP4 PUSH2 0x730 JUMP JUMPDEST SWAP3 POP DUP3 DUP3 MUL PUSH2 0xD7B DUP2 PUSH2 0x730 JUMP JUMPDEST SWAP2 POP DUP3 DUP3 DIV DUP5 EQ DUP4 ISZERO OR PUSH2 0xD92 JUMPI PUSH2 0xD91 PUSH2 0xBB2 JUMP JUMPDEST JUMPDEST POP SWAP3 SWAP2 POP POP JUMP JUMPDEST PUSH0 PUSH1 0x40 DUP3 ADD SWAP1 POP PUSH2 0xDAC PUSH0 DUP4 ADD DUP6 PUSH2 0xA19 JUMP JUMPDEST PUSH2 0xDB9 PUSH1 0x20 DUP4 ADD DUP5 PUSH2 0xA41 JUMP JUMPDEST SWAP4 SWAP3 POP POP POP JUMP JUMPDEST PUSH0 PUSH1 0x40 DUP3 ADD SWAP1 POP PUSH2 0xDD3 PUSH0 DUP4 ADD DUP6 PUSH2 0xA19 JUMP JUMPDEST DUP2 DUP2 SUB PUSH1 0x20 DUP4 ADD MSTORE PUSH2 0xDE5 DUP2 DUP5 PUSH2 0x7E0 JUMP JUMPDEST SWAP1 POP SWAP4 SWAP3 POP POP POP JUMP INVALID LOG2 PUSH5 0x6970667358 0x22 SLT KECCAK256 GASLIMIT ORIGIN 0xBE CREATE PUSH1 0x62 0xE 0xEB 0xE PUSH3 0x6965B4 0xAE 0x23 SWAP12 ADD SHR PUSH9 0x4674C40642ADD9FB14 SIGNEXTEND 0xB9 0x4F 0xD5 PUSH5 0x736F6C6343 STOP ADDMOD AND STOP CALLER "
				},
				"gasEstimates": {
					"creation": {
						"codeDepositCost": "724000",
						"executionCost": "infinite",
						"totalCost": "infinite"
					},
					"external": {
						"createKnowledge(string)": "infinite",
						"getKnowledge(uint256)": "infinite",
						"getKnowledgeOwner(uint256)": "infinite",
						"rewardAtViewing(uint256)": "infinite",
						"rewardForKnowledge(uint256,uint256)": "infinite"
					}
				},
				"methodIdentifiers": {
					"createKnowledge(string)": "6dc32bba",
					"getKnowledge(uint256)": "28e7b2a6",
					"getKnowledgeOwner(uint256)": "ee79c9e2",
					"rewardAtViewing(uint256)": "f20fa822",
					"rewardForKnowledge(uint256,uint256)": "4ccadb69"
				}
			},
			"storageLayout": {
				"storage": [
					{
						"astId": 38,
						"contract": "knowledgeSystemContract.sol:KnowledgeSystem",
						"label": "nftContractAddress",
						"offset": 0,
						"slot": "0",
						"type": "t_address"
					},
					{
						"astId": 40,
						"contract": "knowledgeSystemContract.sol:KnowledgeSystem",
						"label": "tokenContractAddress",
						"offset": 0,
						"slot": "1",
						"type": "t_address"
					},
					{
						"astId": 43,
						"contract": "knowledgeSystemContract.sol:KnowledgeSystem",
						"label": "nftContract",
						"offset": 0,
						"slot": "2",
						"type": "t_contract(IKnowledgeNFT)23"
					},
					{
						"astId": 46,
						"contract": "knowledgeSystemContract.sol:KnowledgeSystem",
						"label": "tokenContract",
						"offset": 0,
						"slot": "3",
						"type": "t_contract(IKnowledgeToken)36"
					},
					{
						"astId": 48,
						"contract": "knowledgeSystemContract.sol:KnowledgeSystem",
						"label": "amountForCreateKnowledge",
						"offset": 0,
						"slot": "4",
						"type": "t_uint256"
					},
					{
						"astId": 50,
						"contract": "knowledgeSystemContract.sol:KnowledgeSystem",
						"label": "amountForViewerAtViewing",
						"offset": 0,
						"slot": "5",
						"type": "t_uint256"
					},
					{
						"astId": 52,
						"contract": "knowledgeSystemContract.sol:KnowledgeSystem",
						"label": "amountForCreaterAtViewing",
						"offset": 0,
						"slot": "6",
						"type": "t_uint256"
					}
				],
				"types": {
					"t_address": {
						"encoding": "inplace",
						"label": "address",
						"numberOfBytes": "20"
					},
					"t_contract(IKnowledgeNFT)23": {
						"encoding": "inplace",
						"label": "contract IKnowledgeNFT",
						"numberOfBytes": "20"
					},
					"t_contract(IKnowledgeToken)36": {
						"encoding": "inplace",
						"label": "contract IKnowledgeToken",
						"numberOfBytes": "20"
					},
					"t_uint256": {
						"encoding": "inplace",
						"label": "uint256",
						"numberOfBytes": "32"
					}
				}
			},
			"userdoc": {
				"kind": "user",
				"methods": {},
				"version": 1
			}
		}
	}
}