{
	"contracts/PalToken.sol": {
		"PalToken": {
			"abi": [
				{
					"inputs": [
						{
							"internalType": "address",
							"name": "initialOwner",
							"type": "address"
						}
					],
					"stateMutability": "nonpayable",
					"type": "constructor"
				},
				{
					"inputs": [],
					"name": "ECDSAInvalidSignature",
					"type": "error"
				},
				{
					"inputs": [
						{
							"internalType": "uint256",
							"name": "length",
							"type": "uint256"
						}
					],
					"name": "ECDSAInvalidSignatureLength",
					"type": "error"
				},
				{
					"inputs": [
						{
							"internalType": "bytes32",
							"name": "s",
							"type": "bytes32"
						}
					],
					"name": "ECDSAInvalidSignatureS",
					"type": "error"
				},
				{
					"inputs": [
						{
							"internalType": "address",
							"name": "spender",
							"type": "address"
						},
						{
							"internalType": "uint256",
							"name": "allowance",
							"type": "uint256"
						},
						{
							"internalType": "uint256",
							"name": "needed",
							"type": "uint256"
						}
					],
					"name": "ERC20InsufficientAllowance",
					"type": "error"
				},
				{
					"inputs": [
						{
							"internalType": "address",
							"name": "sender",
							"type": "address"
						},
						{
							"internalType": "uint256",
							"name": "balance",
							"type": "uint256"
						},
						{
							"internalType": "uint256",
							"name": "needed",
							"type": "uint256"
						}
					],
					"name": "ERC20InsufficientBalance",
					"type": "error"
				},
				{
					"inputs": [
						{
							"internalType": "address",
							"name": "approver",
							"type": "address"
						}
					],
					"name": "ERC20InvalidApprover",
					"type": "error"
				},
				{
					"inputs": [
						{
							"internalType": "address",
							"name": "receiver",
							"type": "address"
						}
					],
					"name": "ERC20InvalidReceiver",
					"type": "error"
				},
				{
					"inputs": [
						{
							"internalType": "address",
							"name": "sender",
							"type": "address"
						}
					],
					"name": "ERC20InvalidSender",
					"type": "error"
				},
				{
					"inputs": [
						{
							"internalType": "address",
							"name": "spender",
							"type": "address"
						}
					],
					"name": "ERC20InvalidSpender",
					"type": "error"
				},
				{
					"inputs": [
						{
							"internalType": "uint256",
							"name": "deadline",
							"type": "uint256"
						}
					],
					"name": "ERC2612ExpiredSignature",
					"type": "error"
				},
				{
					"inputs": [
						{
							"internalType": "address",
							"name": "signer",
							"type": "address"
						},
						{
							"internalType": "address",
							"name": "owner",
							"type": "address"
						}
					],
					"name": "ERC2612InvalidSigner",
					"type": "error"
				},
				{
					"inputs": [],
					"name": "EnforcedPause",
					"type": "error"
				},
				{
					"inputs": [],
					"name": "ExpectedPause",
					"type": "error"
				},
				{
					"inputs": [
						{
							"internalType": "address",
							"name": "account",
							"type": "address"
						},
						{
							"internalType": "uint256",
							"name": "currentNonce",
							"type": "uint256"
						}
					],
					"name": "InvalidAccountNonce",
					"type": "error"
				},
				{
					"inputs": [],
					"name": "InvalidShortString",
					"type": "error"
				},
				{
					"inputs": [
						{
							"internalType": "address",
							"name": "owner",
							"type": "address"
						}
					],
					"name": "OwnableInvalidOwner",
					"type": "error"
				},
				{
					"inputs": [
						{
							"internalType": "address",
							"name": "account",
							"type": "address"
						}
					],
					"name": "OwnableUnauthorizedAccount",
					"type": "error"
				},
				{
					"inputs": [
						{
							"internalType": "string",
							"name": "str",
							"type": "string"
						}
					],
					"name": "StringTooLong",
					"type": "error"
				},
				{
					"anonymous": false,
					"inputs": [
						{
							"indexed": true,
							"internalType": "address",
							"name": "owner",
							"type": "address"
						},
						{
							"indexed": true,
							"internalType": "address",
							"name": "spender",
							"type": "address"
						},
						{
							"indexed": false,
							"internalType": "uint256",
							"name": "value",
							"type": "uint256"
						}
					],
					"name": "Approval",
					"type": "event"
				},
				{
					"anonymous": false,
					"inputs": [],
					"name": "EIP712DomainChanged",
					"type": "event"
				},
				{
					"anonymous": false,
					"inputs": [
						{
							"indexed": true,
							"internalType": "address",
							"name": "previousOwner",
							"type": "address"
						},
						{
							"indexed": true,
							"internalType": "address",
							"name": "newOwner",
							"type": "address"
						}
					],
					"name": "OwnershipTransferred",
					"type": "event"
				},
				{
					"anonymous": false,
					"inputs": [
						{
							"indexed": false,
							"internalType": "address",
							"name": "account",
							"type": "address"
						}
					],
					"name": "Paused",
					"type": "event"
				},
				{
					"anonymous": false,
					"inputs": [
						{
							"indexed": true,
							"internalType": "address",
							"name": "from",
							"type": "address"
						},
						{
							"indexed": true,
							"internalType": "address",
							"name": "to",
							"type": "address"
						},
						{
							"indexed": false,
							"internalType": "uint256",
							"name": "value",
							"type": "uint256"
						}
					],
					"name": "Transfer",
					"type": "event"
				},
				{
					"anonymous": false,
					"inputs": [
						{
							"indexed": false,
							"internalType": "address",
							"name": "account",
							"type": "address"
						}
					],
					"name": "Unpaused",
					"type": "event"
				},
				{
					"inputs": [],
					"name": "DOMAIN_SEPARATOR",
					"outputs": [
						{
							"internalType": "bytes32",
							"name": "",
							"type": "bytes32"
						}
					],
					"stateMutability": "view",
					"type": "function"
				},
				{
					"inputs": [
						{
							"internalType": "address",
							"name": "owner",
							"type": "address"
						},
						{
							"internalType": "address",
							"name": "spender",
							"type": "address"
						}
					],
					"name": "allowance",
					"outputs": [
						{
							"internalType": "uint256",
							"name": "",
							"type": "uint256"
						}
					],
					"stateMutability": "view",
					"type": "function"
				},
				{
					"inputs": [
						{
							"internalType": "address",
							"name": "spender",
							"type": "address"
						},
						{
							"internalType": "uint256",
							"name": "value",
							"type": "uint256"
						}
					],
					"name": "approve",
					"outputs": [
						{
							"internalType": "bool",
							"name": "",
							"type": "bool"
						}
					],
					"stateMutability": "nonpayable",
					"type": "function"
				},
				{
					"inputs": [
						{
							"internalType": "address",
							"name": "account",
							"type": "address"
						}
					],
					"name": "balanceOf",
					"outputs": [
						{
							"internalType": "uint256",
							"name": "",
							"type": "uint256"
						}
					],
					"stateMutability": "view",
					"type": "function"
				},
				{
					"inputs": [],
					"name": "decimals",
					"outputs": [
						{
							"internalType": "uint8",
							"name": "",
							"type": "uint8"
						}
					],
					"stateMutability": "view",
					"type": "function"
				},
				{
					"inputs": [],
					"name": "eip712Domain",
					"outputs": [
						{
							"internalType": "bytes1",
							"name": "fields",
							"type": "bytes1"
						},
						{
							"internalType": "string",
							"name": "name",
							"type": "string"
						},
						{
							"internalType": "string",
							"name": "version",
							"type": "string"
						},
						{
							"internalType": "uint256",
							"name": "chainId",
							"type": "uint256"
						},
						{
							"internalType": "address",
							"name": "verifyingContract",
							"type": "address"
						},
						{
							"internalType": "bytes32",
							"name": "salt",
							"type": "bytes32"
						},
						{
							"internalType": "uint256[]",
							"name": "extensions",
							"type": "uint256[]"
						}
					],
					"stateMutability": "view",
					"type": "function"
				},
				{
					"inputs": [
						{
							"internalType": "address",
							"name": "to",
							"type": "address"
						},
						{
							"internalType": "uint256",
							"name": "amount",
							"type": "uint256"
						}
					],
					"name": "mint",
					"outputs": [],
					"stateMutability": "nonpayable",
					"type": "function"
				},
				{
					"inputs": [],
					"name": "name",
					"outputs": [
						{
							"internalType": "string",
							"name": "",
							"type": "string"
						}
					],
					"stateMutability": "view",
					"type": "function"
				},
				{
					"inputs": [
						{
							"internalType": "address",
							"name": "owner",
							"type": "address"
						}
					],
					"name": "nonces",
					"outputs": [
						{
							"internalType": "uint256",
							"name": "",
							"type": "uint256"
						}
					],
					"stateMutability": "view",
					"type": "function"
				},
				{
					"inputs": [],
					"name": "owner",
					"outputs": [
						{
							"internalType": "address",
							"name": "",
							"type": "address"
						}
					],
					"stateMutability": "view",
					"type": "function"
				},
				{
					"inputs": [],
					"name": "pause",
					"outputs": [],
					"stateMutability": "nonpayable",
					"type": "function"
				},
				{
					"inputs": [],
					"name": "paused",
					"outputs": [
						{
							"internalType": "bool",
							"name": "",
							"type": "bool"
						}
					],
					"stateMutability": "view",
					"type": "function"
				},
				{
					"inputs": [
						{
							"internalType": "address",
							"name": "owner",
							"type": "address"
						},
						{
							"internalType": "address",
							"name": "spender",
							"type": "address"
						},
						{
							"internalType": "uint256",
							"name": "value",
							"type": "uint256"
						},
						{
							"internalType": "uint256",
							"name": "deadline",
							"type": "uint256"
						},
						{
							"internalType": "uint8",
							"name": "v",
							"type": "uint8"
						},
						{
							"internalType": "bytes32",
							"name": "r",
							"type": "bytes32"
						},
						{
							"internalType": "bytes32",
							"name": "s",
							"type": "bytes32"
						}
					],
					"name": "permit",
					"outputs": [],
					"stateMutability": "nonpayable",
					"type": "function"
				},
				{
					"inputs": [],
					"name": "renounceOwnership",
					"outputs": [],
					"stateMutability": "nonpayable",
					"type": "function"
				},
				{
					"inputs": [],
					"name": "symbol",
					"outputs": [
						{
							"internalType": "string",
							"name": "",
							"type": "string"
						}
					],
					"stateMutability": "view",
					"type": "function"
				},
				{
					"inputs": [],
					"name": "totalSupply",
					"outputs": [
						{
							"internalType": "uint256",
							"name": "",
							"type": "uint256"
						}
					],
					"stateMutability": "view",
					"type": "function"
				},
				{
					"inputs": [
						{
							"internalType": "address",
							"name": "to",
							"type": "address"
						},
						{
							"internalType": "uint256",
							"name": "value",
							"type": "uint256"
						}
					],
					"name": "transfer",
					"outputs": [
						{
							"internalType": "bool",
							"name": "",
							"type": "bool"
						}
					],
					"stateMutability": "nonpayable",
					"type": "function"
				},
				{
					"inputs": [
						{
							"internalType": "address",
							"name": "from",
							"type": "address"
						},
						{
							"internalType": "address",
							"name": "to",
							"type": "address"
						},
						{
							"internalType": "uint256",
							"name": "value",
							"type": "uint256"
						}
					],
					"name": "transferFrom",
					"outputs": [
						{
							"internalType": "bool",
							"name": "",
							"type": "bool"
						}
					],
					"stateMutability": "nonpayable",
					"type": "function"
				},
				{
					"inputs": [
						{
							"internalType": "address",
							"name": "newOwner",
							"type": "address"
						}
					],
					"name": "transferOwnership",
					"outputs": [],
					"stateMutability": "nonpayable",
					"type": "function"
				},
				{
					"inputs": [],
					"name": "unpause",
					"outputs": [],
					"stateMutability": "nonpayable",
					"type": "function"
				}
			],
			"devdoc": {
				"errors": {
					"ECDSAInvalidSignature()": [
						{
							"details": "The signature derives the `address(0)`."
						}
					],
					"ECDSAInvalidSignatureLength(uint256)": [
						{
							"details": "The signature has an invalid length."
						}
					],
					"ECDSAInvalidSignatureS(bytes32)": [
						{
							"details": "The signature has an S value that is in the upper half order."
						}
					],
					"ERC20InsufficientAllowance(address,uint256,uint256)": [
						{
							"details": "Indicates a failure with the `spender`’s `allowance`. Used in transfers.",
							"params": {
								"allowance": "Amount of tokens a `spender` is allowed to operate with.",
								"needed": "Minimum amount required to perform a transfer.",
								"spender": "Address that may be allowed to operate on tokens without being their owner."
							}
						}
					],
					"ERC20InsufficientBalance(address,uint256,uint256)": [
						{
							"details": "Indicates an error related to the current `balance` of a `sender`. Used in transfers.",
							"params": {
								"balance": "Current balance for the interacting account.",
								"needed": "Minimum amount required to perform a transfer.",
								"sender": "Address whose tokens are being transferred."
							}
						}
					],
					"ERC20InvalidApprover(address)": [
						{
							"details": "Indicates a failure with the `approver` of a token to be approved. Used in approvals.",
							"params": {
								"approver": "Address initiating an approval operation."
							}
						}
					],
					"ERC20InvalidReceiver(address)": [
						{
							"details": "Indicates a failure with the token `receiver`. Used in transfers.",
							"params": {
								"receiver": "Address to which tokens are being transferred."
							}
						}
					],
					"ERC20InvalidSender(address)": [
						{
							"details": "Indicates a failure with the token `sender`. Used in transfers.",
							"params": {
								"sender": "Address whose tokens are being transferred."
							}
						}
					],
					"ERC20InvalidSpender(address)": [
						{
							"details": "Indicates a failure with the `spender` to be approved. Used in approvals.",
							"params": {
								"spender": "Address that may be allowed to operate on tokens without being their owner."
							}
						}
					],
					"ERC2612ExpiredSignature(uint256)": [
						{
							"details": "Permit deadline has expired."
						}
					],
					"ERC2612InvalidSigner(address,address)": [
						{
							"details": "Mismatched signature."
						}
					],
					"EnforcedPause()": [
						{
							"details": "The operation failed because the contract is paused."
						}
					],
					"ExpectedPause()": [
						{
							"details": "The operation failed because the contract is not paused."
						}
					],
					"InvalidAccountNonce(address,uint256)": [
						{
							"details": "The nonce used for an `account` is not the expected current nonce."
						}
					],
					"OwnableInvalidOwner(address)": [
						{
							"details": "The owner is not a valid owner account. (eg. `address(0)`)"
						}
					],
					"OwnableUnauthorizedAccount(address)": [
						{
							"details": "The caller account is not authorized to perform an operation."
						}
					]
				},
				"events": {
					"Approval(address,address,uint256)": {
						"details": "Emitted when the allowance of a `spender` for an `owner` is set by a call to {approve}. `value` is the new allowance."
					},
					"EIP712DomainChanged()": {
						"details": "MAY be emitted to signal that the domain could have changed."
					},
					"Paused(address)": {
						"details": "Emitted when the pause is triggered by `account`."
					},
					"Transfer(address,address,uint256)": {
						"details": "Emitted when `value` tokens are moved from one account (`from`) to another (`to`). Note that `value` may be zero."
					},
					"Unpaused(address)": {
						"details": "Emitted when the pause is lifted by `account`."
					}
				},
				"kind": "dev",
				"methods": {
					"DOMAIN_SEPARATOR()": {
						"details": "Returns the domain separator used in the encoding of the signature for {permit}, as defined by {EIP712}."
					},
					"allowance(address,address)": {
						"details": "See {IERC20-allowance}."
					},
					"approve(address,uint256)": {
						"details": "See {IERC20-approve}. NOTE: If `value` is the maximum `uint256`, the allowance is not updated on `transferFrom`. This is semantically equivalent to an infinite approval. Requirements: - `spender` cannot be the zero address."
					},
					"balanceOf(address)": {
						"details": "See {IERC20-balanceOf}."
					},
					"decimals()": {
						"details": "Returns the number of decimals used to get its user representation. For example, if `decimals` equals `2`, a balance of `505` tokens should be displayed to a user as `5.05` (`505 / 10 ** 2`). Tokens usually opt for a value of 18, imitating the relationship between Ether and Wei. This is the default value returned by this function, unless it's overridden. NOTE: This information is only used for _display_ purposes: it in no way affects any of the arithmetic of the contract, including {IERC20-balanceOf} and {IERC20-transfer}."
					},
					"eip712Domain()": {
						"details": "See {IERC-5267}."
					},
					"name()": {
						"details": "Returns the name of the token."
					},
					"nonces(address)": {
						"details": "Returns the current nonce for `owner`. This value must be included whenever a signature is generated for {permit}. Every successful call to {permit} increases ``owner``'s nonce by one. This prevents a signature from being used multiple times."
					},
					"owner()": {
						"details": "Returns the address of the current owner."
					},
					"paused()": {
						"details": "Returns true if the contract is paused, and false otherwise."
					},
					"permit(address,address,uint256,uint256,uint8,bytes32,bytes32)": {
						"details": "Sets `value` as the allowance of `spender` over ``owner``'s tokens, given ``owner``'s signed approval. IMPORTANT: The same issues {IERC20-approve} has related to transaction ordering also apply here. Emits an {Approval} event. Requirements: - `spender` cannot be the zero address. - `deadline` must be a timestamp in the future. - `v`, `r` and `s` must be a valid `secp256k1` signature from `owner` over the EIP712-formatted function arguments. - the signature must use ``owner``'s current nonce (see {nonces}). For more information on the signature format, see the https://eips.ethereum.org/EIPS/eip-2612#specification[relevant EIP section]. CAUTION: See Security Considerations above."
					},
					"renounceOwnership()": {
						"details": "Leaves the contract without owner. It will not be possible to call `onlyOwner` functions. Can only be called by the current owner. NOTE: Renouncing ownership will leave the contract without an owner, thereby disabling any functionality that is only available to the owner."
					},
					"symbol()": {
						"details": "Returns the symbol of the token, usually a shorter version of the name."
					},
					"totalSupply()": {
						"details": "See {IERC20-totalSupply}."
					},
					"transfer(address,uint256)": {
						"details": "See {IERC20-transfer}. Requirements: - `to` cannot be the zero address. - the caller must have a balance of at least `value`."
					},
					"transferFrom(address,address,uint256)": {
						"details": "See {IERC20-transferFrom}. Emits an {Approval} event indicating the updated allowance. This is not required by the EIP. See the note at the beginning of {ERC20}. NOTE: Does not update the allowance if the current allowance is the maximum `uint256`. Requirements: - `from` and `to` cannot be the zero address. - `from` must have a balance of at least `value`. - the caller must have allowance for ``from``'s tokens of at least `value`."
					},
					"transferOwnership(address)": {
						"details": "Transfers ownership of the contract to a new account (`newOwner`). Can only be called by the current owner."
					}
				},
				"version": 1
			},
			"evm": {
				"assembly": "    /* \"contracts/PalToken.sol\":316:1048  contract PalToken is ERC20, ERC20Pausable, Ownable, ERC20Permit {... */\n  mstore(0x40, 0x0160)\n    /* \"contracts/PalToken.sol\":386:574  constructor(address initialOwner)... */\n  callvalue\n  dup1\n  iszero\n  tag_1\n  jumpi\n  0x00\n  dup1\n  revert\ntag_1:\n  pop\n  mload(0x40)\n  sub(codesize, bytecodeSize)\n  dup1\n  bytecodeSize\n  dup4\n  codecopy\n  dup2\n  dup2\n  add\n  0x40\n  mstore\n  dup2\n  add\n  swap1\n  tag_2\n  swap2\n  swap1\n  tag_3\n  jump\t// in\ntag_2:\n    /* \"@openzeppelin/contracts/token/ERC20/extensions/ERC20Permit.sol\":1574:1626  constructor(string memory name) EIP712(name, \"1\") {} */\n  mload(0x40)\n  dup1\n  0x40\n  add\n  0x40\n  mstore\n  dup1\n  0x08\n  dup2\n  mstore\n  0x20\n  add\n  0x50616c546f6b656e000000000000000000000000000000000000000000000000\n  dup2\n  mstore\n  pop\n    /* \"@openzeppelin/contracts/token/ERC20/extensions/ERC20Permit.sol\":1613:1617  name */\n  dup1\n    /* \"@openzeppelin/contracts/utils/cryptography/EIP712.sol\":3328:3759  constructor(string memory name, string memory version) {... */\n  mload(0x40)\n  dup1\n  0x40\n  add\n  0x40\n  mstore\n  dup1\n  0x01\n  dup2\n  mstore\n  0x20\n  add\n  0x3100000000000000000000000000000000000000000000000000000000000000\n  dup2\n  mstore\n  pop\n    /* \"contracts/PalToken.sol\":469:481  initialOwner */\n  dup4\n    /* \"@openzeppelin/contracts/token/ERC20/ERC20.sol\":1896:2009  constructor(string memory name_, string memory symbol_) {... */\n  mload(0x40)\n  dup1\n  0x40\n  add\n  0x40\n  mstore\n  dup1\n  0x08\n  dup2\n  mstore\n  0x20\n  add\n  0x50616c546f6b656e000000000000000000000000000000000000000000000000\n  dup2\n  mstore\n  pop\n  mload(0x40)\n  dup1\n  0x40\n  add\n  0x40\n  mstore\n  dup1\n  0x03\n  dup2\n  mstore\n  0x20\n  add\n  0x50544b0000000000000000000000000000000000000000000000000000000000\n  dup2\n  mstore\n  pop\n    /* \"@openzeppelin/contracts/token/ERC20/ERC20.sol\":1970:1975  name_ */\n  dup2\n    /* \"@openzeppelin/contracts/token/ERC20/ERC20.sol\":1962:1967  _name */\n  0x03\n    /* \"@openzeppelin/contracts/token/ERC20/ERC20.sol\":1962:1975  _name = name_ */\n  swap1\n  dup2\n  tag_11\n  swap2\n  swap1\n  tag_12\n  jump\t// in\ntag_11:\n  pop\n    /* \"@openzeppelin/contracts/token/ERC20/ERC20.sol\":1995:2002  symbol_ */\n  dup1\n    /* \"@openzeppelin/contracts/token/ERC20/ERC20.sol\":1985:1992  _symbol */\n  0x04\n    /* \"@openzeppelin/contracts/token/ERC20/ERC20.sol\":1985:2002  _symbol = symbol_ */\n  swap1\n  dup2\n  tag_13\n  swap2\n  swap1\n  tag_12\n  jump\t// in\ntag_13:\n  pop\n    /* \"@openzeppelin/contracts/token/ERC20/ERC20.sol\":1896:2009  constructor(string memory name_, string memory symbol_) {... */\n  pop\n  pop\n    /* \"@openzeppelin/contracts/utils/Pausable.sol\":1241:1246  false */\n  0x00\n    /* \"@openzeppelin/contracts/utils/Pausable.sol\":1231:1238  _paused */\n  0x05\n  0x00\n    /* \"@openzeppelin/contracts/utils/Pausable.sol\":1231:1246  _paused = false */\n  0x0100\n  exp\n  dup2\n  sload\n  dup2\n  0xff\n  mul\n  not\n  and\n  swap1\n  dup4\n  iszero\n  iszero\n  mul\n  or\n  swap1\n  sstore\n  pop\n    /* \"@openzeppelin/contracts/access/Ownable.sol\":1297:1298  0 */\n  0x00\n    /* \"@openzeppelin/contracts/access/Ownable.sol\":1273:1299  initialOwner == address(0) */\n  0xffffffffffffffffffffffffffffffffffffffff\n  and\n    /* \"@openzeppelin/contracts/access/Ownable.sol\":1273:1285  initialOwner */\n  dup2\n    /* \"@openzeppelin/contracts/access/Ownable.sol\":1273:1299  initialOwner == address(0) */\n  0xffffffffffffffffffffffffffffffffffffffff\n  and\n  sub\n    /* \"@openzeppelin/contracts/access/Ownable.sol\":1269:1364  if (initialOwner == address(0)) {... */\n  tag_16\n  jumpi\n    /* \"@openzeppelin/contracts/access/Ownable.sol\":1350:1351  0 */\n  0x00\n    /* \"@openzeppelin/contracts/access/Ownable.sol\":1322:1353  OwnableInvalidOwner(address(0)) */\n  mload(0x40)\n  0x1e4fbdf700000000000000000000000000000000000000000000000000000000\n  dup2\n  mstore\n  0x04\n  add\n  tag_17\n  swap2\n  swap1\n  tag_18\n  jump\t// in\ntag_17:\n  mload(0x40)\n  dup1\n  swap2\n  sub\n  swap1\n  revert\n    /* \"@openzeppelin/contracts/access/Ownable.sol\":1269:1364  if (initialOwner == address(0)) {... */\ntag_16:\n    /* \"@openzeppelin/contracts/access/Ownable.sol\":1373:1405  _transferOwnership(initialOwner) */\n  tag_19\n    /* \"@openzeppelin/contracts/access/Ownable.sol\":1392:1404  initialOwner */\n  dup2\n    /* \"@openzeppelin/contracts/access/Ownable.sol\":1373:1391  _transferOwnership */\n  shl(0x20, tag_20)\n    /* \"@openzeppelin/contracts/access/Ownable.sol\":1373:1405  _transferOwnership(initialOwner) */\n  0x20\n  shr\n  jump\t// in\ntag_19:\n    /* \"@openzeppelin/contracts/access/Ownable.sol\":1225:1412  constructor(address initialOwner) {... */\n  pop\n    /* \"@openzeppelin/contracts/utils/cryptography/EIP712.sol\":3401:3446  name.toShortStringWithFallback(_nameFallback) */\n  tag_22\n    /* \"@openzeppelin/contracts/utils/cryptography/EIP712.sol\":3432:3445  _nameFallback */\n  0x06\n    /* \"@openzeppelin/contracts/utils/cryptography/EIP712.sol\":3401:3405  name */\n  dup4\n    /* \"@openzeppelin/contracts/utils/cryptography/EIP712.sol\":3401:3431  name.toShortStringWithFallback */\n  shl(0x20, tag_23)\n  swap1\n    /* \"@openzeppelin/contracts/utils/cryptography/EIP712.sol\":3401:3446  name.toShortStringWithFallback(_nameFallback) */\n  swap2\n  swap1\n  0x20\n  shr\n  jump\t// in\ntag_22:\n    /* \"@openzeppelin/contracts/utils/cryptography/EIP712.sol\":3393:3446  _name = name.toShortStringWithFallback(_nameFallback) */\n  0x0120\n  dup2\n  dup2\n  mstore\n  pop\n  pop\n    /* \"@openzeppelin/contracts/utils/cryptography/EIP712.sol\":3467:3518  version.toShortStringWithFallback(_versionFallback) */\n  tag_24\n    /* \"@openzeppelin/contracts/utils/cryptography/EIP712.sol\":3501:3517  _versionFallback */\n  0x07\n    /* \"@openzeppelin/contracts/utils/cryptography/EIP712.sol\":3467:3474  version */\n  dup3\n    /* \"@openzeppelin/contracts/utils/cryptography/EIP712.sol\":3467:3500  version.toShortStringWithFallback */\n  shl(0x20, tag_23)\n  swap1\n    /* \"@openzeppelin/contracts/utils/cryptography/EIP712.sol\":3467:3518  version.toShortStringWithFallback(_versionFallback) */\n  swap2\n  swap1\n  0x20\n  shr\n  jump\t// in\ntag_24:\n    /* \"@openzeppelin/contracts/utils/cryptography/EIP712.sol\":3456:3518  _version = version.toShortStringWithFallback(_versionFallback) */\n  0x0140\n  dup2\n  dup2\n  mstore\n  pop\n  pop\n    /* \"@openzeppelin/contracts/utils/cryptography/EIP712.sol\":3558:3562  name */\n  dup2\n    /* \"@openzeppelin/contracts/utils/cryptography/EIP712.sol\":3542:3564  keccak256(bytes(name)) */\n  dup1\n  mload\n  swap1\n  0x20\n  add\n  keccak256\n    /* \"@openzeppelin/contracts/utils/cryptography/EIP712.sol\":3528:3564  _hashedName = keccak256(bytes(name)) */\n  0xe0\n  dup2\n  dup2\n  mstore\n  pop\n  pop\n    /* \"@openzeppelin/contracts/utils/cryptography/EIP712.sol\":3607:3614  version */\n  dup1\n    /* \"@openzeppelin/contracts/utils/cryptography/EIP712.sol\":3591:3616  keccak256(bytes(version)) */\n  dup1\n  mload\n  swap1\n  0x20\n  add\n  keccak256\n    /* \"@openzeppelin/contracts/utils/cryptography/EIP712.sol\":3574:3616  _hashedVersion = keccak256(bytes(version)) */\n  0x0100\n  dup2\n  dup2\n  mstore\n  pop\n  pop\n    /* \"@openzeppelin/contracts/utils/cryptography/EIP712.sol\":3644:3657  block.chainid */\n  chainid\n    /* \"@openzeppelin/contracts/utils/cryptography/EIP712.sol\":3627:3657  _cachedChainId = block.chainid */\n  0xa0\n  dup2\n  dup2\n  mstore\n  pop\n  pop\n    /* \"@openzeppelin/contracts/utils/cryptography/EIP712.sol\":3692:3715  _buildDomainSeparator() */\n  tag_25\n    /* \"@openzeppelin/contracts/utils/cryptography/EIP712.sol\":3692:3713  _buildDomainSeparator */\n  shl(0x20, tag_26)\n    /* \"@openzeppelin/contracts/utils/cryptography/EIP712.sol\":3692:3715  _buildDomainSeparator() */\n  0x20\n  shr\n  jump\t// in\ntag_25:\n    /* \"@openzeppelin/contracts/utils/cryptography/EIP712.sol\":3667:3715  _cachedDomainSeparator = _buildDomainSeparator() */\n  0x80\n  dup2\n  dup2\n  mstore\n  pop\n  pop\n    /* \"@openzeppelin/contracts/utils/cryptography/EIP712.sol\":3747:3751  this */\n  address\n    /* \"@openzeppelin/contracts/utils/cryptography/EIP712.sol\":3725:3752  _cachedThis = address(this) */\n  0xffffffffffffffffffffffffffffffffffffffff\n  and\n  0xc0\n  dup2\n  0xffffffffffffffffffffffffffffffffffffffff\n  and\n  dup2\n  mstore\n  pop\n  pop\n    /* \"@openzeppelin/contracts/utils/cryptography/EIP712.sol\":3328:3759  constructor(string memory name, string memory version) {... */\n  pop\n  pop\n    /* \"@openzeppelin/contracts/token/ERC20/extensions/ERC20Permit.sol\":1574:1626  constructor(string memory name) EIP712(name, \"1\") {} */\n  pop\n    /* \"contracts/PalToken.sol\":529:567  _mint(msg.sender, 1000*10**decimals()) */\n  tag_29\n    /* \"contracts/PalToken.sol\":535:545  msg.sender */\n  caller\n    /* \"contracts/PalToken.sol\":556:566  decimals() */\n  tag_30\n    /* \"contracts/PalToken.sol\":556:564  decimals */\n  shl(0x20, tag_31)\n    /* \"contracts/PalToken.sol\":556:566  decimals() */\n  0x20\n  shr\n  jump\t// in\ntag_30:\n    /* \"contracts/PalToken.sol\":552:554  10 */\n  0x0a\n    /* \"contracts/PalToken.sol\":552:566  10**decimals() */\n  tag_32\n  swap2\n  swap1\n  tag_33\n  jump\t// in\ntag_32:\n    /* \"contracts/PalToken.sol\":547:551  1000 */\n  0x03e8\n    /* \"contracts/PalToken.sol\":547:566  1000*10**decimals() */\n  tag_34\n  swap2\n  swap1\n  tag_35\n  jump\t// in\ntag_34:\n    /* \"contracts/PalToken.sol\":529:534  _mint */\n  shl(0x20, tag_36)\n    /* \"contracts/PalToken.sol\":529:567  _mint(msg.sender, 1000*10**decimals()) */\n  0x20\n  shr\n  jump\t// in\ntag_29:\n    /* \"contracts/PalToken.sol\":386:574  constructor(address initialOwner)... */\n  pop\n    /* \"contracts/PalToken.sol\":316:1048  contract PalToken is ERC20, ERC20Pausable, Ownable, ERC20Permit {... */\n  jump(tag_37)\n    /* \"@openzeppelin/contracts/access/Ownable.sol\":2912:3099  function _transferOwnership(address newOwner) internal virtual {... */\ntag_20:\n    /* \"@openzeppelin/contracts/access/Ownable.sol\":2985:3001  address oldOwner */\n  0x00\n    /* \"@openzeppelin/contracts/access/Ownable.sol\":3004:3010  _owner */\n  0x05\n  0x01\n  swap1\n  sload\n  swap1\n  0x0100\n  exp\n  swap1\n  div\n  0xffffffffffffffffffffffffffffffffffffffff\n  and\n    /* \"@openzeppelin/contracts/access/Ownable.sol\":2985:3010  address oldOwner = _owner */\n  swap1\n  pop\n    /* \"@openzeppelin/contracts/access/Ownable.sol\":3029:3037  newOwner */\n  dup2\n    /* \"@openzeppelin/contracts/access/Ownable.sol\":3020:3026  _owner */\n  0x05\n  0x01\n    /* \"@openzeppelin/contracts/access/Ownable.sol\":3020:3037  _owner = newOwner */\n  0x0100\n  exp\n  dup2\n  sload\n  dup2\n  0xffffffffffffffffffffffffffffffffffffffff\n  mul\n  not\n  and\n  swap1\n  dup4\n  0xffffffffffffffffffffffffffffffffffffffff\n  and\n  mul\n  or\n  swap1\n  sstore\n  pop\n    /* \"@openzeppelin/contracts/access/Ownable.sol\":3083:3091  newOwner */\n  dup2\n    /* \"@openzeppelin/contracts/access/Ownable.sol\":3052:3092  OwnershipTransferred(oldOwner, newOwner) */\n  0xffffffffffffffffffffffffffffffffffffffff\n  and\n    /* \"@openzeppelin/contracts/access/Ownable.sol\":3073:3081  oldOwner */\n  dup2\n    /* \"@openzeppelin/contracts/access/Ownable.sol\":3052:3092  OwnershipTransferred(oldOwner, newOwner) */\n  0xffffffffffffffffffffffffffffffffffffffff\n  and\n  0x8be0079c531659141344cd1fd0a4f28419497f9722a3daafe3b4186f6b6457e0\n  mload(0x40)\n  mload(0x40)\n  dup1\n  swap2\n  sub\n  swap1\n  log3\n    /* \"@openzeppelin/contracts/access/Ownable.sol\":2975:3099  {... */\n  pop\n    /* \"@openzeppelin/contracts/access/Ownable.sol\":2912:3099  function _transferOwnership(address newOwner) internal virtual {... */\n  pop\n  jump\t// out\n    /* \"@openzeppelin/contracts/utils/ShortStrings.sol\":2914:3254  function toShortStringWithFallback(string memory value, string storage store) internal returns (ShortString) {... */\ntag_23:\n    /* \"@openzeppelin/contracts/utils/ShortStrings.sol\":3010:3021  ShortString */\n  0x00\n    /* \"@openzeppelin/contracts/utils/ShortStrings.sol\":3059:3061  32 */\n  0x20\n    /* \"@openzeppelin/contracts/utils/ShortStrings.sol\":3043:3048  value */\n  dup4\n    /* \"@openzeppelin/contracts/utils/ShortStrings.sol\":3037:3056  bytes(value).length */\n  mload\n    /* \"@openzeppelin/contracts/utils/ShortStrings.sol\":3037:3061  bytes(value).length < 32 */\n  lt\n    /* \"@openzeppelin/contracts/utils/ShortStrings.sol\":3033:3248  if (bytes(value).length < 32) {... */\n  iszero\n  tag_40\n  jumpi\n    /* \"@openzeppelin/contracts/utils/ShortStrings.sol\":3084:3104  toShortString(value) */\n  tag_41\n    /* \"@openzeppelin/contracts/utils/ShortStrings.sol\":3098:3103  value */\n  dup4\n    /* \"@openzeppelin/contracts/utils/ShortStrings.sol\":3084:3097  toShortString */\n  shl(0x20, tag_42)\n    /* \"@openzeppelin/contracts/utils/ShortStrings.sol\":3084:3104  toShortString(value) */\n  0x20\n  shr\n  jump\t// in\ntag_41:\n    /* \"@openzeppelin/contracts/utils/ShortStrings.sol\":3077:3104  return toShortString(value) */\n  swap1\n  pop\n  jump(tag_39)\n    /* \"@openzeppelin/contracts/utils/ShortStrings.sol\":3033:3248  if (bytes(value).length < 32) {... */\ntag_40:\n    /* \"@openzeppelin/contracts/utils/ShortStrings.sol\":3176:3181  value */\n  dup3\n    /* \"@openzeppelin/contracts/utils/ShortStrings.sol\":3135:3167  StorageSlot.getStringSlot(store) */\n  tag_44\n    /* \"@openzeppelin/contracts/utils/ShortStrings.sol\":3161:3166  store */\n  dup4\n    /* \"@openzeppelin/contracts/utils/ShortStrings.sol\":3135:3160  StorageSlot.getStringSlot */\n  shl(0x20, tag_45)\n    /* \"@openzeppelin/contracts/utils/ShortStrings.sol\":3135:3167  StorageSlot.getStringSlot(store) */\n  0x20\n  shr\n  jump\t// in\ntag_44:\n    /* \"@openzeppelin/contracts/utils/ShortStrings.sol\":3135:3173  StorageSlot.getStringSlot(store).value */\n  0x00\n  add\n    /* \"@openzeppelin/contracts/utils/ShortStrings.sol\":3135:3181  StorageSlot.getStringSlot(store).value = value */\n  swap1\n  dup2\n  tag_46\n  swap2\n  swap1\n  tag_12\n  jump\t// in\ntag_46:\n  pop\n    /* \"@openzeppelin/contracts/utils/ShortStrings.sol\":1390:1456  0x00000000000000000000000000000000000000000000000000000000000000FF */\n  0xff\n    /* \"@openzeppelin/contracts/utils/ShortStrings.sol\":3219:3236  FALLBACK_SENTINEL */\n  0x00\n  shl\n    /* \"@openzeppelin/contracts/utils/ShortStrings.sol\":3195:3237  return ShortString.wrap(FALLBACK_SENTINEL) */\n  swap1\n  pop\n    /* \"@openzeppelin/contracts/utils/ShortStrings.sol\":2914:3254  function toShortStringWithFallback(string memory value, string storage store) internal returns (ShortString) {... */\ntag_39:\n  swap3\n  swap2\n  pop\n  pop\n  jump\t// out\n    /* \"@openzeppelin/contracts/utils/cryptography/EIP712.sol\":4113:4292  function _buildDomainSeparator() private view returns (bytes32) {... */\ntag_26:\n    /* \"@openzeppelin/contracts/utils/cryptography/EIP712.sol\":4168:4175  bytes32 */\n  0x00\n    /* \"@openzeppelin/contracts/utils/cryptography/EIP712.sol\":2079:2174  keccak256(\"EIP712Domain(string name,string version,uint256 chainId,address verifyingContract)\") */\n  0x8b73c3c69bb8fe3d512ecc4cf759cc79239f7b179b0ffacaa9a75d522b39400f\n    /* \"@openzeppelin/contracts/utils/cryptography/EIP712.sol\":4226:4237  _hashedName */\n  mload(0xe0)\n    /* \"@openzeppelin/contracts/utils/cryptography/EIP712.sol\":4239:4253  _hashedVersion */\n  mload(0x0100)\n    /* \"@openzeppelin/contracts/utils/cryptography/EIP712.sol\":4255:4268  block.chainid */\n  chainid\n    /* \"@openzeppelin/contracts/utils/cryptography/EIP712.sol\":4278:4282  this */\n  address\n    /* \"@openzeppelin/contracts/utils/cryptography/EIP712.sol\":4204:4284  abi.encode(TYPE_HASH, _hashedName, _hashedVersion, block.chainid, address(this)) */\n  add(0x20, mload(0x40))\n  tag_48\n  swap6\n  swap5\n  swap4\n  swap3\n  swap2\n  swap1\n  tag_49\n  jump\t// in\ntag_48:\n  mload(0x40)\n  0x20\n  dup2\n  dup4\n  sub\n  sub\n  dup2\n  mstore\n  swap1\n  0x40\n  mstore\n    /* \"@openzeppelin/contracts/utils/cryptography/EIP712.sol\":4194:4285  keccak256(abi.encode(TYPE_HASH, _hashedName, _hashedVersion, block.chainid, address(this))) */\n  dup1\n  mload\n  swap1\n  0x20\n  add\n  keccak256\n    /* \"@openzeppelin/contracts/utils/cryptography/EIP712.sol\":4187:4285  return keccak256(abi.encode(TYPE_HASH, _hashedName, _hashedVersion, block.chainid, address(this))) */\n  swap1\n  pop\n    /* \"@openzeppelin/contracts/utils/cryptography/EIP712.sol\":4113:4292  function _buildDomainSeparator() private view returns (bytes32) {... */\n  swap1\n  jump\t// out\n    /* \"@openzeppelin/contracts/token/ERC20/ERC20.sol\":3002:3084  function decimals() public view virtual returns (uint8) {... */\ntag_31:\n    /* \"@openzeppelin/contracts/token/ERC20/ERC20.sol\":3051:3056  uint8 */\n  0x00\n    /* \"@openzeppelin/contracts/token/ERC20/ERC20.sol\":3075:3077  18 */\n  0x12\n    /* \"@openzeppelin/contracts/token/ERC20/ERC20.sol\":3068:3077  return 18 */\n  swap1\n  pop\n    /* \"@openzeppelin/contracts/token/ERC20/ERC20.sol\":3002:3084  function decimals() public view virtual returns (uint8) {... */\n  swap1\n  jump\t// out\n    /* \"@openzeppelin/contracts/token/ERC20/ERC20.sol\":7721:7929  function _mint(address account, uint256 value) internal {... */\ntag_36:\n    /* \"@openzeppelin/contracts/token/ERC20/ERC20.sol\":7810:7811  0 */\n  0x00\n    /* \"@openzeppelin/contracts/token/ERC20/ERC20.sol\":7791:7812  account == address(0) */\n  0xffffffffffffffffffffffffffffffffffffffff\n  and\n    /* \"@openzeppelin/contracts/token/ERC20/ERC20.sol\":7791:7798  account */\n  dup3\n    /* \"@openzeppelin/contracts/token/ERC20/ERC20.sol\":7791:7812  account == address(0) */\n  0xffffffffffffffffffffffffffffffffffffffff\n  and\n  sub\n    /* \"@openzeppelin/contracts/token/ERC20/ERC20.sol\":7787:7878  if (account == address(0)) {... */\n  tag_52\n  jumpi\n    /* \"@openzeppelin/contracts/token/ERC20/ERC20.sol\":7864:7865  0 */\n  0x00\n    /* \"@openzeppelin/contracts/token/ERC20/ERC20.sol\":7835:7867  ERC20InvalidReceiver(address(0)) */\n  mload(0x40)\n  0xec442f0500000000000000000000000000000000000000000000000000000000\n  dup2\n  mstore\n  0x04\n  add\n  tag_53\n  swap2\n  swap1\n  tag_18\n  jump\t// in\ntag_53:\n  mload(0x40)\n  dup1\n  swap2\n  sub\n  swap1\n  revert\n    /* \"@openzeppelin/contracts/token/ERC20/ERC20.sol\":7787:7878  if (account == address(0)) {... */\ntag_52:\n    /* \"@openzeppelin/contracts/token/ERC20/ERC20.sol\":7887:7922  _update(address(0), account, value) */\n  tag_54\n    /* \"@openzeppelin/contracts/token/ERC20/ERC20.sol\":7903:7904  0 */\n  0x00\n    /* \"@openzeppelin/contracts/token/ERC20/ERC20.sol\":7907:7914  account */\n  dup4\n    /* \"@openzeppelin/contracts/token/ERC20/ERC20.sol\":7916:7921  value */\n  dup4\n    /* \"@openzeppelin/contracts/token/ERC20/ERC20.sol\":7887:7894  _update */\n  shl(0x20, tag_55)\n    /* \"@openzeppelin/contracts/token/ERC20/ERC20.sol\":7887:7922  _update(address(0), account, value) */\n  0x20\n  shr\n  jump\t// in\ntag_54:\n    /* \"@openzeppelin/contracts/token/ERC20/ERC20.sol\":7721:7929  function _mint(address account, uint256 value) internal {... */\n  pop\n  pop\n  jump\t// out\n    /* \"@openzeppelin/contracts/utils/ShortStrings.sol\":1708:1994  function toShortString(string memory str) internal pure returns (ShortString) {... */\ntag_42:\n    /* \"@openzeppelin/contracts/utils/ShortStrings.sol\":1773:1784  ShortString */\n  0x00\n    /* \"@openzeppelin/contracts/utils/ShortStrings.sol\":1796:1813  bytes memory bstr */\n  dup1\n    /* \"@openzeppelin/contracts/utils/ShortStrings.sol\":1822:1825  str */\n  dup3\n    /* \"@openzeppelin/contracts/utils/ShortStrings.sol\":1796:1826  bytes memory bstr = bytes(str) */\n  swap1\n  pop\n    /* \"@openzeppelin/contracts/utils/ShortStrings.sol\":1854:1856  31 */\n  0x1f\n    /* \"@openzeppelin/contracts/utils/ShortStrings.sol\":1840:1844  bstr */\n  dup2\n    /* \"@openzeppelin/contracts/utils/ShortStrings.sol\":1840:1851  bstr.length */\n  mload\n    /* \"@openzeppelin/contracts/utils/ShortStrings.sol\":1840:1856  bstr.length > 31 */\n  gt\n    /* \"@openzeppelin/contracts/utils/ShortStrings.sol\":1836:1908  if (bstr.length > 31) {... */\n  iszero\n  tag_57\n  jumpi\n    /* \"@openzeppelin/contracts/utils/ShortStrings.sol\":1893:1896  str */\n  dup3\n    /* \"@openzeppelin/contracts/utils/ShortStrings.sol\":1879:1897  StringTooLong(str) */\n  mload(0x40)\n  0x305a27a900000000000000000000000000000000000000000000000000000000\n  dup2\n  mstore\n  0x04\n  add\n  tag_58\n  swap2\n  swap1\n  tag_59\n  jump\t// in\ntag_58:\n  mload(0x40)\n  dup1\n  swap2\n  sub\n  swap1\n  revert\n    /* \"@openzeppelin/contracts/utils/ShortStrings.sol\":1836:1908  if (bstr.length > 31) {... */\ntag_57:\n    /* \"@openzeppelin/contracts/utils/ShortStrings.sol\":1974:1978  bstr */\n  dup1\n    /* \"@openzeppelin/contracts/utils/ShortStrings.sol\":1974:1985  bstr.length */\n  mload\n    /* \"@openzeppelin/contracts/utils/ShortStrings.sol\":1965:1969  bstr */\n  dup2\n    /* \"@openzeppelin/contracts/utils/ShortStrings.sol\":1957:1970  bytes32(bstr) */\n  tag_60\n  swap1\n  tag_61\n  jump\t// in\ntag_60:\n    /* \"@openzeppelin/contracts/utils/ShortStrings.sol\":1949:1971  uint256(bytes32(bstr)) */\n  0x00\n  shr\n    /* \"@openzeppelin/contracts/utils/ShortStrings.sol\":1949:1985  uint256(bytes32(bstr)) | bstr.length */\n  or\n    /* \"@openzeppelin/contracts/utils/ShortStrings.sol\":1941:1986  bytes32(uint256(bytes32(bstr)) | bstr.length) */\n  0x00\n  shl\n    /* \"@openzeppelin/contracts/utils/ShortStrings.sol\":1917:1987  return ShortString.wrap(bytes32(uint256(bytes32(bstr)) | bstr.length)) */\n  swap2\n  pop\n  pop\n    /* \"@openzeppelin/contracts/utils/ShortStrings.sol\":1708:1994  function toShortString(string memory str) internal pure returns (ShortString) {... */\n  swap2\n  swap1\n  pop\n  jump\t// out\n    /* \"@openzeppelin/contracts/utils/StorageSlot.sol\":3135:3337  function getStringSlot(string storage store) internal pure returns (StringSlot storage r) {... */\ntag_45:\n    /* \"@openzeppelin/contracts/utils/StorageSlot.sol\":3203:3223  StringSlot storage r */\n  0x00\n    /* \"@openzeppelin/contracts/utils/StorageSlot.sol\":3311:3321  store.slot */\n  dup2\n    /* \"@openzeppelin/contracts/utils/StorageSlot.sol\":3301:3321  r.slot := store.slot */\n  swap1\n  pop\n    /* \"@openzeppelin/contracts/utils/StorageSlot.sol\":3135:3337  function getStringSlot(string storage store) internal pure returns (StringSlot storage r) {... */\n  swap2\n  swap1\n  pop\n  jump\t// out\n    /* \"contracts/PalToken.sol\":881:1046  function _update(address from, address to, uint256 value)... */\ntag_55:\n    /* \"contracts/PalToken.sol\":1009:1039  super._update(from, to, value) */\n  tag_64\n    /* \"contracts/PalToken.sol\":1023:1027  from */\n  dup4\n    /* \"contracts/PalToken.sol\":1029:1031  to */\n  dup4\n    /* \"contracts/PalToken.sol\":1033:1038  value */\n  dup4\n    /* \"contracts/PalToken.sol\":1009:1022  super._update */\n  shl(0x20, tag_65)\n    /* \"contracts/PalToken.sol\":1009:1039  super._update(from, to, value) */\n  0x20\n  shr\n  jump\t// in\ntag_64:\n    /* \"contracts/PalToken.sol\":881:1046  function _update(address from, address to, uint256 value)... */\n  pop\n  pop\n  pop\n  jump\t// out\n    /* \"@openzeppelin/contracts/token/ERC20/extensions/ERC20Pausable.sol\":1112:1257  function _update(address from, address to, uint256 value) internal virtual override whenNotPaused {... */\ntag_65:\n    /* \"@openzeppelin/contracts/utils/Pausable.sol\":1474:1493  _requireNotPaused() */\n  tag_67\n    /* \"@openzeppelin/contracts/utils/Pausable.sol\":1474:1491  _requireNotPaused */\n  shl(0x20, tag_68)\n    /* \"@openzeppelin/contracts/utils/Pausable.sol\":1474:1493  _requireNotPaused() */\n  0x20\n  shr\n  jump\t// in\ntag_67:\n    /* \"@openzeppelin/contracts/token/ERC20/extensions/ERC20Pausable.sol\":1220:1250  super._update(from, to, value) */\n  tag_70\n    /* \"@openzeppelin/contracts/token/ERC20/extensions/ERC20Pausable.sol\":1234:1238  from */\n  dup4\n    /* \"@openzeppelin/contracts/token/ERC20/extensions/ERC20Pausable.sol\":1240:1242  to */\n  dup4\n    /* \"@openzeppelin/contracts/token/ERC20/extensions/ERC20Pausable.sol\":1244:1249  value */\n  dup4\n    /* \"@openzeppelin/contracts/token/ERC20/extensions/ERC20Pausable.sol\":1220:1233  super._update */\n  shl(0x20, tag_71)\n    /* \"@openzeppelin/contracts/token/ERC20/extensions/ERC20Pausable.sol\":1220:1250  super._update(from, to, value) */\n  0x20\n  shr\n  jump\t// in\ntag_70:\n    /* \"@openzeppelin/contracts/token/ERC20/extensions/ERC20Pausable.sol\":1112:1257  function _update(address from, address to, uint256 value) internal virtual override whenNotPaused {... */\n  pop\n  pop\n  pop\n  jump\t// out\n    /* \"@openzeppelin/contracts/utils/Pausable.sol\":2002:2130  function _requireNotPaused() internal view virtual {... */\ntag_68:\n    /* \"@openzeppelin/contracts/utils/Pausable.sol\":2067:2075  paused() */\n  tag_73\n    /* \"@openzeppelin/contracts/utils/Pausable.sol\":2067:2073  paused */\n  shl(0x20, tag_74)\n    /* \"@openzeppelin/contracts/utils/Pausable.sol\":2067:2075  paused() */\n  0x20\n  shr\n  jump\t// in\ntag_73:\n    /* \"@openzeppelin/contracts/utils/Pausable.sol\":2063:2124  if (paused()) {... */\n  iszero\n  tag_75\n  jumpi\n    /* \"@openzeppelin/contracts/utils/Pausable.sol\":2098:2113  EnforcedPause() */\n  mload(0x40)\n  0xd93c066500000000000000000000000000000000000000000000000000000000\n  dup2\n  mstore\n  0x04\n  add\n  mload(0x40)\n  dup1\n  swap2\n  sub\n  swap1\n  revert\n    /* \"@openzeppelin/contracts/utils/Pausable.sol\":2063:2124  if (paused()) {... */\ntag_75:\n    /* \"@openzeppelin/contracts/utils/Pausable.sol\":2002:2130  function _requireNotPaused() internal view virtual {... */\n  jump\t// out\n    /* \"@openzeppelin/contracts/token/ERC20/ERC20.sol\":6271:7378  function _update(address from, address to, uint256 value) internal virtual {... */\ntag_71:\n    /* \"@openzeppelin/contracts/token/ERC20/ERC20.sol\":6376:6377  0 */\n  0x00\n    /* \"@openzeppelin/contracts/token/ERC20/ERC20.sol\":6360:6378  from == address(0) */\n  0xffffffffffffffffffffffffffffffffffffffff\n  and\n    /* \"@openzeppelin/contracts/token/ERC20/ERC20.sol\":6360:6364  from */\n  dup4\n    /* \"@openzeppelin/contracts/token/ERC20/ERC20.sol\":6360:6378  from == address(0) */\n  0xffffffffffffffffffffffffffffffffffffffff\n  and\n  sub\n    /* \"@openzeppelin/contracts/token/ERC20/ERC20.sol\":6356:6896  if (from == address(0)) {... */\n  tag_77\n  jumpi\n    /* \"@openzeppelin/contracts/token/ERC20/ERC20.sol\":6512:6517  value */\n  dup1\n    /* \"@openzeppelin/contracts/token/ERC20/ERC20.sol\":6496:6508  _totalSupply */\n  0x02\n  0x00\n    /* \"@openzeppelin/contracts/token/ERC20/ERC20.sol\":6496:6517  _totalSupply += value */\n  dup3\n  dup3\n  sload\n  tag_78\n  swap2\n  swap1\n  tag_79\n  jump\t// in\ntag_78:\n  swap3\n  pop\n  pop\n  dup2\n  swap1\n  sstore\n  pop\n    /* \"@openzeppelin/contracts/token/ERC20/ERC20.sol\":6356:6896  if (from == address(0)) {... */\n  jump(tag_80)\ntag_77:\n    /* \"@openzeppelin/contracts/token/ERC20/ERC20.sol\":6548:6567  uint256 fromBalance */\n  0x00\n    /* \"@openzeppelin/contracts/token/ERC20/ERC20.sol\":6570:6579  _balances */\n  dup1\n    /* \"@openzeppelin/contracts/token/ERC20/ERC20.sol\":6570:6585  _balances[from] */\n  0x00\n    /* \"@openzeppelin/contracts/token/ERC20/ERC20.sol\":6580:6584  from */\n  dup6\n    /* \"@openzeppelin/contracts/token/ERC20/ERC20.sol\":6570:6585  _balances[from] */\n  0xffffffffffffffffffffffffffffffffffffffff\n  and\n  0xffffffffffffffffffffffffffffffffffffffff\n  and\n  dup2\n  mstore\n  0x20\n  add\n  swap1\n  dup2\n  mstore\n  0x20\n  add\n  0x00\n  keccak256\n  sload\n    /* \"@openzeppelin/contracts/token/ERC20/ERC20.sol\":6548:6585  uint256 fromBalance = _balances[from] */\n  swap1\n  pop\n    /* \"@openzeppelin/contracts/token/ERC20/ERC20.sol\":6617:6622  value */\n  dup2\n    /* \"@openzeppelin/contracts/token/ERC20/ERC20.sol\":6603:6614  fromBalance */\n  dup2\n    /* \"@openzeppelin/contracts/token/ERC20/ERC20.sol\":6603:6622  fromBalance < value */\n  lt\n    /* \"@openzeppelin/contracts/token/ERC20/ERC20.sol\":6599:6714  if (fromBalance < value) {... */\n  iszero\n  tag_81\n  jumpi\n    /* \"@openzeppelin/contracts/token/ERC20/ERC20.sol\":6674:6678  from */\n  dup4\n    /* \"@openzeppelin/contracts/token/ERC20/ERC20.sol\":6680:6691  fromBalance */\n  dup2\n    /* \"@openzeppelin/contracts/token/ERC20/ERC20.sol\":6693:6698  value */\n  dup4\n    /* \"@openzeppelin/contracts/token/ERC20/ERC20.sol\":6649:6699  ERC20InsufficientBalance(from, fromBalance, value) */\n  mload(0x40)\n  0xe450d38c00000000000000000000000000000000000000000000000000000000\n  dup2\n  mstore\n  0x04\n  add\n  tag_82\n  swap4\n  swap3\n  swap2\n  swap1\n  tag_83\n  jump\t// in\ntag_82:\n  mload(0x40)\n  dup1\n  swap2\n  sub\n  swap1\n  revert\n    /* \"@openzeppelin/contracts/token/ERC20/ERC20.sol\":6599:6714  if (fromBalance < value) {... */\ntag_81:\n    /* \"@openzeppelin/contracts/token/ERC20/ERC20.sol\":6866:6871  value */\n  dup2\n    /* \"@openzeppelin/contracts/token/ERC20/ERC20.sol\":6852:6863  fromBalance */\n  dup2\n    /* \"@openzeppelin/contracts/token/ERC20/ERC20.sol\":6852:6871  fromBalance - value */\n  sub\n    /* \"@openzeppelin/contracts/token/ERC20/ERC20.sol\":6834:6843  _balances */\n  0x00\n    /* \"@openzeppelin/contracts/token/ERC20/ERC20.sol\":6834:6849  _balances[from] */\n  dup1\n    /* \"@openzeppelin/contracts/token/ERC20/ERC20.sol\":6844:6848  from */\n  dup7\n    /* \"@openzeppelin/contracts/token/ERC20/ERC20.sol\":6834:6849  _balances[from] */\n  0xffffffffffffffffffffffffffffffffffffffff\n  and\n  0xffffffffffffffffffffffffffffffffffffffff\n  and\n  dup2\n  mstore\n  0x20\n  add\n  swap1\n  dup2\n  mstore\n  0x20\n  add\n  0x00\n  keccak256\n    /* \"@openzeppelin/contracts/token/ERC20/ERC20.sol\":6834:6871  _balances[from] = fromBalance - value */\n  dup2\n  swap1\n  sstore\n  pop\n    /* \"@openzeppelin/contracts/token/ERC20/ERC20.sol\":6534:6896  {... */\n  pop\n    /* \"@openzeppelin/contracts/token/ERC20/ERC20.sol\":6356:6896  if (from == address(0)) {... */\ntag_80:\n    /* \"@openzeppelin/contracts/token/ERC20/ERC20.sol\":6924:6925  0 */\n  0x00\n    /* \"@openzeppelin/contracts/token/ERC20/ERC20.sol\":6910:6926  to == address(0) */\n  0xffffffffffffffffffffffffffffffffffffffff\n  and\n    /* \"@openzeppelin/contracts/token/ERC20/ERC20.sol\":6910:6912  to */\n  dup3\n    /* \"@openzeppelin/contracts/token/ERC20/ERC20.sol\":6910:6926  to == address(0) */\n  0xffffffffffffffffffffffffffffffffffffffff\n  and\n  sub\n    /* \"@openzeppelin/contracts/token/ERC20/ERC20.sol\":6906:7331  if (to == address(0)) {... */\n  tag_84\n  jumpi\n    /* \"@openzeppelin/contracts/token/ERC20/ERC20.sol\":7089:7094  value */\n  dup1\n    /* \"@openzeppelin/contracts/token/ERC20/ERC20.sol\":7073:7085  _totalSupply */\n  0x02\n  0x00\n    /* \"@openzeppelin/contracts/token/ERC20/ERC20.sol\":7073:7094  _totalSupply -= value */\n  dup3\n  dup3\n  sload\n  sub\n  swap3\n  pop\n  pop\n  dup2\n  swap1\n  sstore\n  pop\n    /* \"@openzeppelin/contracts/token/ERC20/ERC20.sol\":6906:7331  if (to == address(0)) {... */\n  jump(tag_85)\ntag_84:\n    /* \"@openzeppelin/contracts/token/ERC20/ERC20.sol\":7301:7306  value */\n  dup1\n    /* \"@openzeppelin/contracts/token/ERC20/ERC20.sol\":7284:7293  _balances */\n  0x00\n    /* \"@openzeppelin/contracts/token/ERC20/ERC20.sol\":7284:7297  _balances[to] */\n  dup1\n    /* \"@openzeppelin/contracts/token/ERC20/ERC20.sol\":7294:7296  to */\n  dup5\n    /* \"@openzeppelin/contracts/token/ERC20/ERC20.sol\":7284:7297  _balances[to] */\n  0xffffffffffffffffffffffffffffffffffffffff\n  and\n  0xffffffffffffffffffffffffffffffffffffffff\n  and\n  dup2\n  mstore\n  0x20\n  add\n  swap1\n  dup2\n  mstore\n  0x20\n  add\n  0x00\n  keccak256\n  0x00\n    /* \"@openzeppelin/contracts/token/ERC20/ERC20.sol\":7284:7306  _balances[to] += value */\n  dup3\n  dup3\n  sload\n  add\n  swap3\n  pop\n  pop\n  dup2\n  swap1\n  sstore\n  pop\n    /* \"@openzeppelin/contracts/token/ERC20/ERC20.sol\":6906:7331  if (to == address(0)) {... */\ntag_85:\n    /* \"@openzeppelin/contracts/token/ERC20/ERC20.sol\":7361:7363  to */\n  dup2\n    /* \"@openzeppelin/contracts/token/ERC20/ERC20.sol\":7346:7371  Transfer(from, to, value) */\n  0xffffffffffffffffffffffffffffffffffffffff\n  and\n    /* \"@openzeppelin/contracts/token/ERC20/ERC20.sol\":7355:7359  from */\n  dup4\n    /* \"@openzeppelin/contracts/token/ERC20/ERC20.sol\":7346:7371  Transfer(from, to, value) */\n  0xffffffffffffffffffffffffffffffffffffffff\n  and\n  0xddf252ad1be2c89b69c2b068fc378daa952ba7f163c4a11628f55a4df523b3ef\n    /* \"@openzeppelin/contracts/token/ERC20/ERC20.sol\":7365:7370  value */\n  dup4\n    /* \"@openzeppelin/contracts/token/ERC20/ERC20.sol\":7346:7371  Transfer(from, to, value) */\n  mload(0x40)\n  tag_86\n  swap2\n  swap1\n  tag_87\n  jump\t// in\ntag_86:\n  mload(0x40)\n  dup1\n  swap2\n  sub\n  swap1\n  log3\n    /* \"@openzeppelin/contracts/token/ERC20/ERC20.sol\":6271:7378  function _update(address from, address to, uint256 value) internal virtual {... */\n  pop\n  pop\n  pop\n  jump\t// out\n    /* \"@openzeppelin/contracts/utils/Pausable.sol\":1850:1934  function paused() public view virtual returns (bool) {... */\ntag_74:\n    /* \"@openzeppelin/contracts/utils/Pausable.sol\":1897:1901  bool */\n  0x00\n    /* \"@openzeppelin/contracts/utils/Pausable.sol\":1920:1927  _paused */\n  0x05\n  0x00\n  swap1\n  sload\n  swap1\n  0x0100\n  exp\n  swap1\n  div\n  0xff\n  and\n    /* \"@openzeppelin/contracts/utils/Pausable.sol\":1913:1927  return _paused */\n  swap1\n  pop\n    /* \"@openzeppelin/contracts/utils/Pausable.sol\":1850:1934  function paused() public view virtual returns (bool) {... */\n  swap1\n  jump\t// out\n    /* \"#utility.yul\":88:205   */\ntag_90:\n    /* \"#utility.yul\":197:198   */\n  0x00\n    /* \"#utility.yul\":194:195   */\n  dup1\n    /* \"#utility.yul\":187:199   */\n  revert\n    /* \"#utility.yul\":334:460   */\ntag_92:\n    /* \"#utility.yul\":371:378   */\n  0x00\n    /* \"#utility.yul\":411:453   */\n  0xffffffffffffffffffffffffffffffffffffffff\n    /* \"#utility.yul\":404:409   */\n  dup3\n    /* \"#utility.yul\":400:454   */\n  and\n    /* \"#utility.yul\":389:454   */\n  swap1\n  pop\n    /* \"#utility.yul\":334:460   */\n  swap2\n  swap1\n  pop\n  jump\t// out\n    /* \"#utility.yul\":466:562   */\ntag_93:\n    /* \"#utility.yul\":503:510   */\n  0x00\n    /* \"#utility.yul\":532:556   */\n  tag_138\n    /* \"#utility.yul\":550:555   */\n  dup3\n    /* \"#utility.yul\":532:556   */\n  tag_92\n  jump\t// in\ntag_138:\n    /* \"#utility.yul\":521:556   */\n  swap1\n  pop\n    /* \"#utility.yul\":466:562   */\n  swap2\n  swap1\n  pop\n  jump\t// out\n    /* \"#utility.yul\":568:690   */\ntag_94:\n    /* \"#utility.yul\":641:665   */\n  tag_140\n    /* \"#utility.yul\":659:664   */\n  dup2\n    /* \"#utility.yul\":641:665   */\n  tag_93\n  jump\t// in\ntag_140:\n    /* \"#utility.yul\":634:639   */\n  dup2\n    /* \"#utility.yul\":631:666   */\n  eq\n    /* \"#utility.yul\":621:684   */\n  tag_141\n  jumpi\n    /* \"#utility.yul\":680:681   */\n  0x00\n    /* \"#utility.yul\":677:678   */\n  dup1\n    /* \"#utility.yul\":670:682   */\n  revert\n    /* \"#utility.yul\":621:684   */\ntag_141:\n    /* \"#utility.yul\":568:690   */\n  pop\n  jump\t// out\n    /* \"#utility.yul\":696:839   */\ntag_95:\n    /* \"#utility.yul\":753:758   */\n  0x00\n    /* \"#utility.yul\":784:790   */\n  dup2\n    /* \"#utility.yul\":778:791   */\n  mload\n    /* \"#utility.yul\":769:791   */\n  swap1\n  pop\n    /* \"#utility.yul\":800:833   */\n  tag_143\n    /* \"#utility.yul\":827:832   */\n  dup2\n    /* \"#utility.yul\":800:833   */\n  tag_94\n  jump\t// in\ntag_143:\n    /* \"#utility.yul\":696:839   */\n  swap3\n  swap2\n  pop\n  pop\n  jump\t// out\n    /* \"#utility.yul\":845:1196   */\ntag_3:\n    /* \"#utility.yul\":915:921   */\n  0x00\n    /* \"#utility.yul\":964:966   */\n  0x20\n    /* \"#utility.yul\":952:961   */\n  dup3\n    /* \"#utility.yul\":943:950   */\n  dup5\n    /* \"#utility.yul\":939:962   */\n  sub\n    /* \"#utility.yul\":935:967   */\n  slt\n    /* \"#utility.yul\":932:1051   */\n  iszero\n  tag_145\n  jumpi\n    /* \"#utility.yul\":970:1049   */\n  tag_146\n  tag_90\n  jump\t// in\ntag_146:\n    /* \"#utility.yul\":932:1051   */\ntag_145:\n    /* \"#utility.yul\":1090:1091   */\n  0x00\n    /* \"#utility.yul\":1115:1179   */\n  tag_147\n    /* \"#utility.yul\":1171:1178   */\n  dup5\n    /* \"#utility.yul\":1162:1168   */\n  dup3\n    /* \"#utility.yul\":1151:1160   */\n  dup6\n    /* \"#utility.yul\":1147:1169   */\n  add\n    /* \"#utility.yul\":1115:1179   */\n  tag_95\n  jump\t// in\ntag_147:\n    /* \"#utility.yul\":1105:1179   */\n  swap2\n  pop\n    /* \"#utility.yul\":1061:1189   */\n  pop\n    /* \"#utility.yul\":845:1196   */\n  swap3\n  swap2\n  pop\n  pop\n  jump\t// out\n    /* \"#utility.yul\":1202:1301   */\ntag_96:\n    /* \"#utility.yul\":1254:1260   */\n  0x00\n    /* \"#utility.yul\":1288:1293   */\n  dup2\n    /* \"#utility.yul\":1282:1294   */\n  mload\n    /* \"#utility.yul\":1272:1294   */\n  swap1\n  pop\n    /* \"#utility.yul\":1202:1301   */\n  swap2\n  swap1\n  pop\n  jump\t// out\n    /* \"#utility.yul\":1307:1487   */\ntag_97:\n    /* \"#utility.yul\":1355:1432   */\n  0x4e487b7100000000000000000000000000000000000000000000000000000000\n    /* \"#utility.yul\":1352:1353   */\n  0x00\n    /* \"#utility.yul\":1345:1433   */\n  mstore\n    /* \"#utility.yul\":1452:1456   */\n  0x41\n    /* \"#utility.yul\":1449:1450   */\n  0x04\n    /* \"#utility.yul\":1442:1457   */\n  mstore\n    /* \"#utility.yul\":1476:1480   */\n  0x24\n    /* \"#utility.yul\":1473:1474   */\n  0x00\n    /* \"#utility.yul\":1466:1481   */\n  revert\n    /* \"#utility.yul\":1493:1673   */\ntag_98:\n    /* \"#utility.yul\":1541:1618   */\n  0x4e487b7100000000000000000000000000000000000000000000000000000000\n    /* \"#utility.yul\":1538:1539   */\n  0x00\n    /* \"#utility.yul\":1531:1619   */\n  mstore\n    /* \"#utility.yul\":1638:1642   */\n  0x22\n    /* \"#utility.yul\":1635:1636   */\n  0x04\n    /* \"#utility.yul\":1628:1643   */\n  mstore\n    /* \"#utility.yul\":1662:1666   */\n  0x24\n    /* \"#utility.yul\":1659:1660   */\n  0x00\n    /* \"#utility.yul\":1652:1667   */\n  revert\n    /* \"#utility.yul\":1679:1999   */\ntag_99:\n    /* \"#utility.yul\":1723:1729   */\n  0x00\n    /* \"#utility.yul\":1760:1761   */\n  0x02\n    /* \"#utility.yul\":1754:1758   */\n  dup3\n    /* \"#utility.yul\":1750:1762   */\n  div\n    /* \"#utility.yul\":1740:1762   */\n  swap1\n  pop\n    /* \"#utility.yul\":1807:1808   */\n  0x01\n    /* \"#utility.yul\":1801:1805   */\n  dup3\n    /* \"#utility.yul\":1797:1809   */\n  and\n    /* \"#utility.yul\":1828:1846   */\n  dup1\n    /* \"#utility.yul\":1818:1899   */\n  tag_152\n  jumpi\n    /* \"#utility.yul\":1884:1888   */\n  0x7f\n    /* \"#utility.yul\":1876:1882   */\n  dup3\n    /* \"#utility.yul\":1872:1889   */\n  and\n    /* \"#utility.yul\":1862:1889   */\n  swap2\n  pop\n    /* \"#utility.yul\":1818:1899   */\ntag_152:\n    /* \"#utility.yul\":1946:1948   */\n  0x20\n    /* \"#utility.yul\":1938:1944   */\n  dup3\n    /* \"#utility.yul\":1935:1949   */\n  lt\n    /* \"#utility.yul\":1915:1933   */\n  dup2\n    /* \"#utility.yul\":1912:1950   */\n  sub\n    /* \"#utility.yul\":1909:1993   */\n  tag_153\n  jumpi\n    /* \"#utility.yul\":1965:1983   */\n  tag_154\n  tag_98\n  jump\t// in\ntag_154:\n    /* \"#utility.yul\":1909:1993   */\ntag_153:\n    /* \"#utility.yul\":1730:1999   */\n  pop\n    /* \"#utility.yul\":1679:1999   */\n  swap2\n  swap1\n  pop\n  jump\t// out\n    /* \"#utility.yul\":2005:2146   */\ntag_100:\n    /* \"#utility.yul\":2054:2058   */\n  0x00\n    /* \"#utility.yul\":2077:2080   */\n  dup2\n    /* \"#utility.yul\":2069:2080   */\n  swap1\n  pop\n    /* \"#utility.yul\":2100:2103   */\n  dup2\n    /* \"#utility.yul\":2097:2098   */\n  0x00\n    /* \"#utility.yul\":2090:2104   */\n  mstore\n    /* \"#utility.yul\":2134:2138   */\n  0x20\n    /* \"#utility.yul\":2131:2132   */\n  0x00\n    /* \"#utility.yul\":2121:2139   */\n  keccak256\n    /* \"#utility.yul\":2113:2139   */\n  swap1\n  pop\n    /* \"#utility.yul\":2005:2146   */\n  swap2\n  swap1\n  pop\n  jump\t// out\n    /* \"#utility.yul\":2152:2245   */\ntag_101:\n    /* \"#utility.yul\":2189:2195   */\n  0x00\n    /* \"#utility.yul\":2236:2238   */\n  0x20\n    /* \"#utility.yul\":2231:2233   */\n  0x1f\n    /* \"#utility.yul\":2224:2229   */\n  dup4\n    /* \"#utility.yul\":2220:2234   */\n  add\n    /* \"#utility.yul\":2216:2239   */\n  div\n    /* \"#utility.yul\":2206:2239   */\n  swap1\n  pop\n    /* \"#utility.yul\":2152:2245   */\n  swap2\n  swap1\n  pop\n  jump\t// out\n    /* \"#utility.yul\":2251:2358   */\ntag_102:\n    /* \"#utility.yul\":2295:2303   */\n  0x00\n    /* \"#utility.yul\":2345:2350   */\n  dup3\n    /* \"#utility.yul\":2339:2343   */\n  dup3\n    /* \"#utility.yul\":2335:2351   */\n  shl\n    /* \"#utility.yul\":2314:2351   */\n  swap1\n  pop\n    /* \"#utility.yul\":2251:2358   */\n  swap3\n  swap2\n  pop\n  pop\n  jump\t// out\n    /* \"#utility.yul\":2364:2757   */\ntag_103:\n    /* \"#utility.yul\":2433:2439   */\n  0x00\n    /* \"#utility.yul\":2483:2484   */\n  0x08\n    /* \"#utility.yul\":2471:2481   */\n  dup4\n    /* \"#utility.yul\":2467:2485   */\n  mul\n    /* \"#utility.yul\":2506:2603   */\n  tag_159\n    /* \"#utility.yul\":2536:2602   */\n  0xffffffffffffffffffffffffffffffffffffffffffffffffffffffffffffffff\n    /* \"#utility.yul\":2525:2534   */\n  dup3\n    /* \"#utility.yul\":2506:2603   */\n  tag_102\n  jump\t// in\ntag_159:\n    /* \"#utility.yul\":2624:2663   */\n  tag_160\n    /* \"#utility.yul\":2654:2662   */\n  dup7\n    /* \"#utility.yul\":2643:2652   */\n  dup4\n    /* \"#utility.yul\":2624:2663   */\n  tag_102\n  jump\t// in\ntag_160:\n    /* \"#utility.yul\":2612:2663   */\n  swap6\n  pop\n    /* \"#utility.yul\":2696:2700   */\n  dup1\n    /* \"#utility.yul\":2692:2701   */\n  not\n    /* \"#utility.yul\":2685:2690   */\n  dup5\n    /* \"#utility.yul\":2681:2702   */\n  and\n    /* \"#utility.yul\":2672:2702   */\n  swap4\n  pop\n    /* \"#utility.yul\":2745:2749   */\n  dup1\n    /* \"#utility.yul\":2735:2743   */\n  dup7\n    /* \"#utility.yul\":2731:2750   */\n  and\n    /* \"#utility.yul\":2724:2729   */\n  dup5\n    /* \"#utility.yul\":2721:2751   */\n  or\n    /* \"#utility.yul\":2711:2751   */\n  swap3\n  pop\n    /* \"#utility.yul\":2440:2757   */\n  pop\n  pop\n    /* \"#utility.yul\":2364:2757   */\n  swap4\n  swap3\n  pop\n  pop\n  pop\n  jump\t// out\n    /* \"#utility.yul\":2763:2840   */\ntag_104:\n    /* \"#utility.yul\":2800:2807   */\n  0x00\n    /* \"#utility.yul\":2829:2834   */\n  dup2\n    /* \"#utility.yul\":2818:2834   */\n  swap1\n  pop\n    /* \"#utility.yul\":2763:2840   */\n  swap2\n  swap1\n  pop\n  jump\t// out\n    /* \"#utility.yul\":2846:2906   */\ntag_105:\n    /* \"#utility.yul\":2874:2877   */\n  0x00\n    /* \"#utility.yul\":2895:2900   */\n  dup2\n    /* \"#utility.yul\":2888:2900   */\n  swap1\n  pop\n    /* \"#utility.yul\":2846:2906   */\n  swap2\n  swap1\n  pop\n  jump\t// out\n    /* \"#utility.yul\":2912:3054   */\ntag_106:\n    /* \"#utility.yul\":2962:2971   */\n  0x00\n    /* \"#utility.yul\":2995:3048   */\n  tag_164\n    /* \"#utility.yul\":3013:3047   */\n  tag_165\n    /* \"#utility.yul\":3022:3046   */\n  tag_166\n    /* \"#utility.yul\":3040:3045   */\n  dup5\n    /* \"#utility.yul\":3022:3046   */\n  tag_104\n  jump\t// in\ntag_166:\n    /* \"#utility.yul\":3013:3047   */\n  tag_105\n  jump\t// in\ntag_165:\n    /* \"#utility.yul\":2995:3048   */\n  tag_104\n  jump\t// in\ntag_164:\n    /* \"#utility.yul\":2982:3048   */\n  swap1\n  pop\n    /* \"#utility.yul\":2912:3054   */\n  swap2\n  swap1\n  pop\n  jump\t// out\n    /* \"#utility.yul\":3060:3135   */\ntag_107:\n    /* \"#utility.yul\":3103:3106   */\n  0x00\n    /* \"#utility.yul\":3124:3129   */\n  dup2\n    /* \"#utility.yul\":3117:3129   */\n  swap1\n  pop\n    /* \"#utility.yul\":3060:3135   */\n  swap2\n  swap1\n  pop\n  jump\t// out\n    /* \"#utility.yul\":3141:3410   */\ntag_108:\n    /* \"#utility.yul\":3251:3290   */\n  tag_169\n    /* \"#utility.yul\":3282:3289   */\n  dup4\n    /* \"#utility.yul\":3251:3290   */\n  tag_106\n  jump\t// in\ntag_169:\n    /* \"#utility.yul\":3312:3403   */\n  tag_170\n    /* \"#utility.yul\":3361:3402   */\n  tag_171\n    /* \"#utility.yul\":3385:3401   */\n  dup3\n    /* \"#utility.yul\":3361:3402   */\n  tag_107\n  jump\t// in\ntag_171:\n    /* \"#utility.yul\":3353:3359   */\n  dup5\n    /* \"#utility.yul\":3346:3350   */\n  dup5\n    /* \"#utility.yul\":3340:3351   */\n  sload\n    /* \"#utility.yul\":3312:3403   */\n  tag_103\n  jump\t// in\ntag_170:\n    /* \"#utility.yul\":3306:3310   */\n  dup3\n    /* \"#utility.yul\":3299:3404   */\n  sstore\n    /* \"#utility.yul\":3217:3410   */\n  pop\n    /* \"#utility.yul\":3141:3410   */\n  pop\n  pop\n  pop\n  jump\t// out\n    /* \"#utility.yul\":3416:3489   */\ntag_109:\n    /* \"#utility.yul\":3461:3464   */\n  0x00\n    /* \"#utility.yul\":3416:3489   */\n  swap1\n  jump\t// out\n    /* \"#utility.yul\":3495:3684   */\ntag_110:\n    /* \"#utility.yul\":3572:3604   */\n  tag_174\n  tag_109\n  jump\t// in\ntag_174:\n    /* \"#utility.yul\":3613:3678   */\n  tag_175\n    /* \"#utility.yul\":3671:3677   */\n  dup2\n    /* \"#utility.yul\":3663:3669   */\n  dup5\n    /* \"#utility.yul\":3657:3661   */\n  dup5\n    /* \"#utility.yul\":3613:3678   */\n  tag_108\n  jump\t// in\ntag_175:\n    /* \"#utility.yul\":3548:3684   */\n  pop\n    /* \"#utility.yul\":3495:3684   */\n  pop\n  pop\n  jump\t// out\n    /* \"#utility.yul\":3690:3876   */\ntag_111:\n    /* \"#utility.yul\":3750:3870   */\ntag_177:\n    /* \"#utility.yul\":3767:3770   */\n  dup2\n    /* \"#utility.yul\":3760:3765   */\n  dup2\n    /* \"#utility.yul\":3757:3771   */\n  lt\n    /* \"#utility.yul\":3750:3870   */\n  iszero\n  tag_179\n  jumpi\n    /* \"#utility.yul\":3821:3860   */\n  tag_180\n    /* \"#utility.yul\":3858:3859   */\n  0x00\n    /* \"#utility.yul\":3851:3856   */\n  dup3\n    /* \"#utility.yul\":3821:3860   */\n  tag_110\n  jump\t// in\ntag_180:\n    /* \"#utility.yul\":3794:3795   */\n  0x01\n    /* \"#utility.yul\":3787:3792   */\n  dup2\n    /* \"#utility.yul\":3783:3796   */\n  add\n    /* \"#utility.yul\":3774:3796   */\n  swap1\n  pop\n    /* \"#utility.yul\":3750:3870   */\n  jump(tag_177)\ntag_179:\n    /* \"#utility.yul\":3690:3876   */\n  pop\n  pop\n  jump\t// out\n    /* \"#utility.yul\":3882:4425   */\ntag_112:\n    /* \"#utility.yul\":3983:3985   */\n  0x1f\n    /* \"#utility.yul\":3978:3981   */\n  dup3\n    /* \"#utility.yul\":3975:3986   */\n  gt\n    /* \"#utility.yul\":3972:4418   */\n  iszero\n  tag_182\n  jumpi\n    /* \"#utility.yul\":4017:4055   */\n  tag_183\n    /* \"#utility.yul\":4049:4054   */\n  dup2\n    /* \"#utility.yul\":4017:4055   */\n  tag_100\n  jump\t// in\ntag_183:\n    /* \"#utility.yul\":4101:4130   */\n  tag_184\n    /* \"#utility.yul\":4119:4129   */\n  dup5\n    /* \"#utility.yul\":4101:4130   */\n  tag_101\n  jump\t// in\ntag_184:\n    /* \"#utility.yul\":4091:4099   */\n  dup2\n    /* \"#utility.yul\":4087:4131   */\n  add\n    /* \"#utility.yul\":4284:4286   */\n  0x20\n    /* \"#utility.yul\":4272:4282   */\n  dup6\n    /* \"#utility.yul\":4269:4287   */\n  lt\n    /* \"#utility.yul\":4266:4315   */\n  iszero\n  tag_185\n  jumpi\n    /* \"#utility.yul\":4305:4313   */\n  dup2\n    /* \"#utility.yul\":4290:4313   */\n  swap1\n  pop\n    /* \"#utility.yul\":4266:4315   */\ntag_185:\n    /* \"#utility.yul\":4328:4408   */\n  tag_186\n    /* \"#utility.yul\":4384:4406   */\n  tag_187\n    /* \"#utility.yul\":4402:4405   */\n  dup6\n    /* \"#utility.yul\":4384:4406   */\n  tag_101\n  jump\t// in\ntag_187:\n    /* \"#utility.yul\":4374:4382   */\n  dup4\n    /* \"#utility.yul\":4370:4407   */\n  add\n    /* \"#utility.yul\":4357:4368   */\n  dup3\n    /* \"#utility.yul\":4328:4408   */\n  tag_111\n  jump\t// in\ntag_186:\n    /* \"#utility.yul\":3987:4418   */\n  pop\n  pop\n    /* \"#utility.yul\":3972:4418   */\ntag_182:\n    /* \"#utility.yul\":3882:4425   */\n  pop\n  pop\n  pop\n  jump\t// out\n    /* \"#utility.yul\":4431:4548   */\ntag_113:\n    /* \"#utility.yul\":4485:4493   */\n  0x00\n    /* \"#utility.yul\":4535:4540   */\n  dup3\n    /* \"#utility.yul\":4529:4533   */\n  dup3\n    /* \"#utility.yul\":4525:4541   */\n  shr\n    /* \"#utility.yul\":4504:4541   */\n  swap1\n  pop\n    /* \"#utility.yul\":4431:4548   */\n  swap3\n  swap2\n  pop\n  pop\n  jump\t// out\n    /* \"#utility.yul\":4554:4723   */\ntag_114:\n    /* \"#utility.yul\":4598:4604   */\n  0x00\n    /* \"#utility.yul\":4631:4682   */\n  tag_190\n    /* \"#utility.yul\":4679:4680   */\n  0x00\n    /* \"#utility.yul\":4675:4681   */\n  not\n    /* \"#utility.yul\":4667:4672   */\n  dup5\n    /* \"#utility.yul\":4664:4665   */\n  0x08\n    /* \"#utility.yul\":4660:4673   */\n  mul\n    /* \"#utility.yul\":4631:4682   */\n  tag_113\n  jump\t// in\ntag_190:\n    /* \"#utility.yul\":4627:4683   */\n  not\n    /* \"#utility.yul\":4712:4716   */\n  dup1\n    /* \"#utility.yul\":4706:4710   */\n  dup4\n    /* \"#utility.yul\":4702:4717   */\n  and\n    /* \"#utility.yul\":4692:4717   */\n  swap2\n  pop\n    /* \"#utility.yul\":4605:4723   */\n  pop\n    /* \"#utility.yul\":4554:4723   */\n  swap3\n  swap2\n  pop\n  pop\n  jump\t// out\n    /* \"#utility.yul\":4728:5023   */\ntag_115:\n    /* \"#utility.yul\":4804:4808   */\n  0x00\n    /* \"#utility.yul\":4950:4979   */\n  tag_192\n    /* \"#utility.yul\":4975:4978   */\n  dup4\n    /* \"#utility.yul\":4969:4973   */\n  dup4\n    /* \"#utility.yul\":4950:4979   */\n  tag_114\n  jump\t// in\ntag_192:\n    /* \"#utility.yul\":4942:4979   */\n  swap2\n  pop\n    /* \"#utility.yul\":5012:5015   */\n  dup3\n    /* \"#utility.yul\":5009:5010   */\n  0x02\n    /* \"#utility.yul\":5005:5016   */\n  mul\n    /* \"#utility.yul\":4999:5003   */\n  dup3\n    /* \"#utility.yul\":4996:5017   */\n  or\n    /* \"#utility.yul\":4988:5017   */\n  swap1\n  pop\n    /* \"#utility.yul\":4728:5023   */\n  swap3\n  swap2\n  pop\n  pop\n  jump\t// out\n    /* \"#utility.yul\":5028:6423   */\ntag_12:\n    /* \"#utility.yul\":5145:5182   */\n  tag_194\n    /* \"#utility.yul\":5178:5181   */\n  dup3\n    /* \"#utility.yul\":5145:5182   */\n  tag_96\n  jump\t// in\ntag_194:\n    /* \"#utility.yul\":5247:5265   */\n  0xffffffffffffffff\n    /* \"#utility.yul\":5239:5245   */\n  dup2\n    /* \"#utility.yul\":5236:5266   */\n  gt\n    /* \"#utility.yul\":5233:5289   */\n  iszero\n  tag_195\n  jumpi\n    /* \"#utility.yul\":5269:5287   */\n  tag_196\n  tag_97\n  jump\t// in\ntag_196:\n    /* \"#utility.yul\":5233:5289   */\ntag_195:\n    /* \"#utility.yul\":5313:5351   */\n  tag_197\n    /* \"#utility.yul\":5345:5349   */\n  dup3\n    /* \"#utility.yul\":5339:5350   */\n  sload\n    /* \"#utility.yul\":5313:5351   */\n  tag_99\n  jump\t// in\ntag_197:\n    /* \"#utility.yul\":5398:5465   */\n  tag_198\n    /* \"#utility.yul\":5458:5464   */\n  dup3\n    /* \"#utility.yul\":5450:5456   */\n  dup3\n    /* \"#utility.yul\":5444:5448   */\n  dup6\n    /* \"#utility.yul\":5398:5465   */\n  tag_112\n  jump\t// in\ntag_198:\n    /* \"#utility.yul\":5492:5493   */\n  0x00\n    /* \"#utility.yul\":5516:5520   */\n  0x20\n    /* \"#utility.yul\":5503:5520   */\n  swap1\n  pop\n    /* \"#utility.yul\":5548:5550   */\n  0x1f\n    /* \"#utility.yul\":5540:5546   */\n  dup4\n    /* \"#utility.yul\":5537:5551   */\n  gt\n    /* \"#utility.yul\":5565:5566   */\n  0x01\n    /* \"#utility.yul\":5560:6178   */\n  dup2\n  eq\n  tag_200\n  jumpi\n    /* \"#utility.yul\":6222:6223   */\n  0x00\n    /* \"#utility.yul\":6239:6245   */\n  dup5\n    /* \"#utility.yul\":6236:6313   */\n  iszero\n  tag_201\n  jumpi\n    /* \"#utility.yul\":6288:6297   */\n  dup3\n    /* \"#utility.yul\":6283:6286   */\n  dup8\n    /* \"#utility.yul\":6279:6298   */\n  add\n    /* \"#utility.yul\":6273:6299   */\n  mload\n    /* \"#utility.yul\":6264:6299   */\n  swap1\n  pop\n    /* \"#utility.yul\":6236:6313   */\ntag_201:\n    /* \"#utility.yul\":6339:6406   */\n  tag_202\n    /* \"#utility.yul\":6399:6405   */\n  dup6\n    /* \"#utility.yul\":6392:6397   */\n  dup3\n    /* \"#utility.yul\":6339:6406   */\n  tag_115\n  jump\t// in\ntag_202:\n    /* \"#utility.yul\":6333:6337   */\n  dup7\n    /* \"#utility.yul\":6326:6407   */\n  sstore\n    /* \"#utility.yul\":6195:6417   */\n  pop\n    /* \"#utility.yul\":5530:6417   */\n  jump(tag_199)\n    /* \"#utility.yul\":5560:6178   */\ntag_200:\n    /* \"#utility.yul\":5612:5616   */\n  0x1f\n    /* \"#utility.yul\":5608:5617   */\n  not\n    /* \"#utility.yul\":5600:5606   */\n  dup5\n    /* \"#utility.yul\":5596:5618   */\n  and\n    /* \"#utility.yul\":5646:5683   */\n  tag_203\n    /* \"#utility.yul\":5678:5682   */\n  dup7\n    /* \"#utility.yul\":5646:5683   */\n  tag_100\n  jump\t// in\ntag_203:\n    /* \"#utility.yul\":5705:5706   */\n  0x00\n    /* \"#utility.yul\":5719:5927   */\ntag_204:\n    /* \"#utility.yul\":5733:5740   */\n  dup3\n    /* \"#utility.yul\":5730:5731   */\n  dup2\n    /* \"#utility.yul\":5727:5741   */\n  lt\n    /* \"#utility.yul\":5719:5927   */\n  iszero\n  tag_206\n  jumpi\n    /* \"#utility.yul\":5812:5821   */\n  dup5\n    /* \"#utility.yul\":5807:5810   */\n  dup10\n    /* \"#utility.yul\":5803:5822   */\n  add\n    /* \"#utility.yul\":5797:5823   */\n  mload\n    /* \"#utility.yul\":5789:5795   */\n  dup3\n    /* \"#utility.yul\":5782:5824   */\n  sstore\n    /* \"#utility.yul\":5863:5864   */\n  0x01\n    /* \"#utility.yul\":5855:5861   */\n  dup3\n    /* \"#utility.yul\":5851:5865   */\n  add\n    /* \"#utility.yul\":5841:5865   */\n  swap2\n  pop\n    /* \"#utility.yul\":5910:5912   */\n  0x20\n    /* \"#utility.yul\":5899:5908   */\n  dup6\n    /* \"#utility.yul\":5895:5913   */\n  add\n    /* \"#utility.yul\":5882:5913   */\n  swap5\n  pop\n    /* \"#utility.yul\":5756:5760   */\n  0x20\n    /* \"#utility.yul\":5753:5754   */\n  dup2\n    /* \"#utility.yul\":5749:5761   */\n  add\n    /* \"#utility.yul\":5744:5761   */\n  swap1\n  pop\n    /* \"#utility.yul\":5719:5927   */\n  jump(tag_204)\ntag_206:\n    /* \"#utility.yul\":5955:5961   */\n  dup7\n    /* \"#utility.yul\":5946:5953   */\n  dup4\n    /* \"#utility.yul\":5943:5962   */\n  lt\n    /* \"#utility.yul\":5940:6119   */\n  iszero\n  tag_207\n  jumpi\n    /* \"#utility.yul\":6013:6022   */\n  dup5\n    /* \"#utility.yul\":6008:6011   */\n  dup10\n    /* \"#utility.yul\":6004:6023   */\n  add\n    /* \"#utility.yul\":5998:6024   */\n  mload\n    /* \"#utility.yul\":6056:6104   */\n  tag_208\n    /* \"#utility.yul\":6098:6102   */\n  0x1f\n    /* \"#utility.yul\":6090:6096   */\n  dup10\n    /* \"#utility.yul\":6086:6103   */\n  and\n    /* \"#utility.yul\":6075:6084   */\n  dup3\n    /* \"#utility.yul\":6056:6104   */\n  tag_114\n  jump\t// in\ntag_208:\n    /* \"#utility.yul\":6048:6054   */\n  dup4\n    /* \"#utility.yul\":6041:6105   */\n  sstore\n    /* \"#utility.yul\":5963:6119   */\n  pop\n    /* \"#utility.yul\":5940:6119   */\ntag_207:\n    /* \"#utility.yul\":6165:6166   */\n  0x01\n    /* \"#utility.yul\":6161:6162   */\n  0x02\n    /* \"#utility.yul\":6153:6159   */\n  dup9\n    /* \"#utility.yul\":6149:6163   */\n  mul\n    /* \"#utility.yul\":6145:6167   */\n  add\n    /* \"#utility.yul\":6139:6143   */\n  dup9\n    /* \"#utility.yul\":6132:6168   */\n  sstore\n    /* \"#utility.yul\":5567:6178   */\n  pop\n  pop\n  pop\n    /* \"#utility.yul\":5530:6417   */\ntag_199:\n  pop\n    /* \"#utility.yul\":5120:6423   */\n  pop\n  pop\n  pop\n    /* \"#utility.yul\":5028:6423   */\n  pop\n  pop\n  jump\t// out\n    /* \"#utility.yul\":6429:6547   */\ntag_116:\n    /* \"#utility.yul\":6516:6540   */\n  tag_210\n    /* \"#utility.yul\":6534:6539   */\n  dup2\n    /* \"#utility.yul\":6516:6540   */\n  tag_93\n  jump\t// in\ntag_210:\n    /* \"#utility.yul\":6511:6514   */\n  dup3\n    /* \"#utility.yul\":6504:6541   */\n  mstore\n    /* \"#utility.yul\":6429:6547   */\n  pop\n  pop\n  jump\t// out\n    /* \"#utility.yul\":6553:6775   */\ntag_18:\n    /* \"#utility.yul\":6646:6650   */\n  0x00\n    /* \"#utility.yul\":6684:6686   */\n  0x20\n    /* \"#utility.yul\":6673:6682   */\n  dup3\n    /* \"#utility.yul\":6669:6687   */\n  add\n    /* \"#utility.yul\":6661:6687   */\n  swap1\n  pop\n    /* \"#utility.yul\":6697:6768   */\n  tag_212\n    /* \"#utility.yul\":6765:6766   */\n  0x00\n    /* \"#utility.yul\":6754:6763   */\n  dup4\n    /* \"#utility.yul\":6750:6767   */\n  add\n    /* \"#utility.yul\":6741:6747   */\n  dup5\n    /* \"#utility.yul\":6697:6768   */\n  tag_116\n  jump\t// in\ntag_212:\n    /* \"#utility.yul\":6553:6775   */\n  swap3\n  swap2\n  pop\n  pop\n  jump\t// out\n    /* \"#utility.yul\":6781:6961   */\ntag_117:\n    /* \"#utility.yul\":6829:6906   */\n  0x4e487b7100000000000000000000000000000000000000000000000000000000\n    /* \"#utility.yul\":6826:6827   */\n  0x00\n    /* \"#utility.yul\":6819:6907   */\n  mstore\n    /* \"#utility.yul\":6926:6930   */\n  0x11\n    /* \"#utility.yul\":6923:6924   */\n  0x04\n    /* \"#utility.yul\":6916:6931   */\n  mstore\n    /* \"#utility.yul\":6950:6954   */\n  0x24\n    /* \"#utility.yul\":6947:6948   */\n  0x00\n    /* \"#utility.yul\":6940:6955   */\n  revert\n    /* \"#utility.yul\":6967:7069   */\ntag_118:\n    /* \"#utility.yul\":7009:7017   */\n  0x00\n    /* \"#utility.yul\":7056:7061   */\n  dup2\n    /* \"#utility.yul\":7053:7054   */\n  0x01\n    /* \"#utility.yul\":7049:7062   */\n  shr\n    /* \"#utility.yul\":7028:7062   */\n  swap1\n  pop\n    /* \"#utility.yul\":6967:7069   */\n  swap2\n  swap1\n  pop\n  jump\t// out\n    /* \"#utility.yul\":7075:7923   */\ntag_119:\n    /* \"#utility.yul\":7136:7141   */\n  0x00\n    /* \"#utility.yul\":7143:7147   */\n  dup1\n    /* \"#utility.yul\":7167:7173   */\n  dup3\n    /* \"#utility.yul\":7158:7173   */\n  swap2\n  pop\n    /* \"#utility.yul\":7191:7196   */\n  dup4\n    /* \"#utility.yul\":7182:7196   */\n  swap1\n  pop\n    /* \"#utility.yul\":7205:7917   */\ntag_216:\n    /* \"#utility.yul\":7226:7227   */\n  0x01\n    /* \"#utility.yul\":7216:7224   */\n  dup6\n    /* \"#utility.yul\":7213:7228   */\n  gt\n    /* \"#utility.yul\":7205:7917   */\n  iszero\n  tag_218\n  jumpi\n    /* \"#utility.yul\":7321:7325   */\n  dup1\n    /* \"#utility.yul\":7316:7319   */\n  dup7\n    /* \"#utility.yul\":7312:7326   */\n  div\n    /* \"#utility.yul\":7306:7310   */\n  dup2\n    /* \"#utility.yul\":7303:7327   */\n  gt\n    /* \"#utility.yul\":7300:7350   */\n  iszero\n  tag_219\n  jumpi\n    /* \"#utility.yul\":7330:7348   */\n  tag_220\n  tag_117\n  jump\t// in\ntag_220:\n    /* \"#utility.yul\":7300:7350   */\ntag_219:\n    /* \"#utility.yul\":7380:7381   */\n  0x01\n    /* \"#utility.yul\":7370:7378   */\n  dup6\n    /* \"#utility.yul\":7366:7382   */\n  and\n    /* \"#utility.yul\":7363:7814   */\n  iszero\n  tag_221\n  jumpi\n    /* \"#utility.yul\":7795:7799   */\n  dup1\n    /* \"#utility.yul\":7788:7793   */\n  dup3\n    /* \"#utility.yul\":7784:7800   */\n  mul\n    /* \"#utility.yul\":7775:7800   */\n  swap2\n  pop\n    /* \"#utility.yul\":7363:7814   */\ntag_221:\n    /* \"#utility.yul\":7845:7849   */\n  dup1\n    /* \"#utility.yul\":7839:7843   */\n  dup2\n    /* \"#utility.yul\":7835:7850   */\n  mul\n    /* \"#utility.yul\":7827:7850   */\n  swap1\n  pop\n    /* \"#utility.yul\":7875:7907   */\n  tag_222\n    /* \"#utility.yul\":7898:7906   */\n  dup6\n    /* \"#utility.yul\":7875:7907   */\n  tag_118\n  jump\t// in\ntag_222:\n    /* \"#utility.yul\":7863:7907   */\n  swap5\n  pop\n    /* \"#utility.yul\":7205:7917   */\n  jump(tag_216)\ntag_218:\n    /* \"#utility.yul\":7075:7923   */\n  swap5\n  pop\n  swap5\n  swap3\n  pop\n  pop\n  pop\n  jump\t// out\n    /* \"#utility.yul\":7929:9002   */\ntag_120:\n    /* \"#utility.yul\":7983:7988   */\n  0x00\n    /* \"#utility.yul\":8174:8182   */\n  dup3\n    /* \"#utility.yul\":8164:8204   */\n  tag_224\n  jumpi\n    /* \"#utility.yul\":8195:8196   */\n  0x01\n    /* \"#utility.yul\":8186:8196   */\n  swap1\n  pop\n    /* \"#utility.yul\":8197:8202   */\n  jump(tag_223)\n    /* \"#utility.yul\":8164:8204   */\ntag_224:\n    /* \"#utility.yul\":8223:8227   */\n  dup2\n    /* \"#utility.yul\":8213:8249   */\n  tag_225\n  jumpi\n    /* \"#utility.yul\":8240:8241   */\n  0x00\n    /* \"#utility.yul\":8231:8241   */\n  swap1\n  pop\n    /* \"#utility.yul\":8242:8247   */\n  jump(tag_223)\n    /* \"#utility.yul\":8213:8249   */\ntag_225:\n    /* \"#utility.yul\":8309:8313   */\n  dup2\n    /* \"#utility.yul\":8357:8358   */\n  0x01\n    /* \"#utility.yul\":8352:8379   */\n  dup2\n  eq\n  tag_227\n  jumpi\n    /* \"#utility.yul\":8393:8394   */\n  0x02\n    /* \"#utility.yul\":8388:8579   */\n  dup2\n  eq\n  tag_228\n  jumpi\n    /* \"#utility.yul\":8302:8579   */\n  jump(tag_226)\n    /* \"#utility.yul\":8352:8379   */\ntag_227:\n    /* \"#utility.yul\":8370:8371   */\n  0x01\n    /* \"#utility.yul\":8361:8371   */\n  swap2\n  pop\n    /* \"#utility.yul\":8372:8377   */\n  pop\n  jump(tag_223)\n    /* \"#utility.yul\":8388:8579   */\ntag_228:\n    /* \"#utility.yul\":8433:8436   */\n  0xff\n    /* \"#utility.yul\":8423:8431   */\n  dup5\n    /* \"#utility.yul\":8420:8437   */\n  gt\n    /* \"#utility.yul\":8417:8460   */\n  iszero\n  tag_229\n  jumpi\n    /* \"#utility.yul\":8440:8458   */\n  tag_230\n  tag_117\n  jump\t// in\ntag_230:\n    /* \"#utility.yul\":8417:8460   */\ntag_229:\n    /* \"#utility.yul\":8489:8497   */\n  dup4\n    /* \"#utility.yul\":8486:8487   */\n  0x02\n    /* \"#utility.yul\":8482:8498   */\n  exp\n    /* \"#utility.yul\":8473:8498   */\n  swap2\n  pop\n    /* \"#utility.yul\":8524:8527   */\n  dup5\n    /* \"#utility.yul\":8517:8522   */\n  dup3\n    /* \"#utility.yul\":8514:8528   */\n  gt\n    /* \"#utility.yul\":8511:8551   */\n  iszero\n  tag_231\n  jumpi\n    /* \"#utility.yul\":8531:8549   */\n  tag_232\n  tag_117\n  jump\t// in\ntag_232:\n    /* \"#utility.yul\":8511:8551   */\ntag_231:\n    /* \"#utility.yul\":8564:8569   */\n  pop\n  jump(tag_223)\n    /* \"#utility.yul\":8302:8579   */\ntag_226:\n  pop\n    /* \"#utility.yul\":8688:8690   */\n  0x20\n    /* \"#utility.yul\":8678:8686   */\n  dup4\n    /* \"#utility.yul\":8675:8691   */\n  lt\n    /* \"#utility.yul\":8669:8672   */\n  0x0133\n    /* \"#utility.yul\":8663:8667   */\n  dup4\n    /* \"#utility.yul\":8660:8673   */\n  lt\n    /* \"#utility.yul\":8656:8692   */\n  and\n    /* \"#utility.yul\":8638:8640   */\n  0x4e\n    /* \"#utility.yul\":8628:8636   */\n  dup5\n    /* \"#utility.yul\":8625:8641   */\n  lt\n    /* \"#utility.yul\":8620:8622   */\n  0x0b\n    /* \"#utility.yul\":8614:8618   */\n  dup5\n    /* \"#utility.yul\":8611:8623   */\n  lt\n    /* \"#utility.yul\":8607:8642   */\n  and\n    /* \"#utility.yul\":8591:8702   */\n  or\n    /* \"#utility.yul\":8588:8834   */\n  iszero\n  tag_233\n  jumpi\n    /* \"#utility.yul\":8744:8752   */\n  dup3\n    /* \"#utility.yul\":8738:8742   */\n  dup3\n    /* \"#utility.yul\":8734:8753   */\n  exp\n    /* \"#utility.yul\":8725:8753   */\n  swap1\n  pop\n    /* \"#utility.yul\":8779:8782   */\n  dup4\n    /* \"#utility.yul\":8772:8777   */\n  dup2\n    /* \"#utility.yul\":8769:8783   */\n  gt\n    /* \"#utility.yul\":8766:8806   */\n  iszero\n  tag_234\n  jumpi\n    /* \"#utility.yul\":8786:8804   */\n  tag_235\n  tag_117\n  jump\t// in\ntag_235:\n    /* \"#utility.yul\":8766:8806   */\ntag_234:\n    /* \"#utility.yul\":8819:8824   */\n  jump(tag_223)\n    /* \"#utility.yul\":8588:8834   */\ntag_233:\n    /* \"#utility.yul\":8859:8901   */\n  tag_236\n    /* \"#utility.yul\":8897:8900   */\n  dup5\n    /* \"#utility.yul\":8887:8895   */\n  dup5\n    /* \"#utility.yul\":8881:8885   */\n  dup5\n    /* \"#utility.yul\":8878:8879   */\n  0x01\n    /* \"#utility.yul\":8859:8901   */\n  tag_119\n  jump\t// in\ntag_236:\n    /* \"#utility.yul\":8844:8901   */\n  swap3\n  pop\n  swap1\n  pop\n    /* \"#utility.yul\":8933:8937   */\n  dup2\n    /* \"#utility.yul\":8928:8931   */\n  dup5\n    /* \"#utility.yul\":8924:8938   */\n  div\n    /* \"#utility.yul\":8917:8922   */\n  dup2\n    /* \"#utility.yul\":8914:8939   */\n  gt\n    /* \"#utility.yul\":8911:8962   */\n  iszero\n  tag_237\n  jumpi\n    /* \"#utility.yul\":8942:8960   */\n  tag_238\n  tag_117\n  jump\t// in\ntag_238:\n    /* \"#utility.yul\":8911:8962   */\ntag_237:\n    /* \"#utility.yul\":8991:8995   */\n  dup2\n    /* \"#utility.yul\":8984:8989   */\n  dup2\n    /* \"#utility.yul\":8980:8996   */\n  mul\n    /* \"#utility.yul\":8971:8996   */\n  swap1\n  pop\n    /* \"#utility.yul\":7929:9002   */\ntag_223:\n  swap4\n  swap3\n  pop\n  pop\n  pop\n  jump\t// out\n    /* \"#utility.yul\":9008:9094   */\ntag_121:\n    /* \"#utility.yul\":9043:9050   */\n  0x00\n    /* \"#utility.yul\":9083:9087   */\n  0xff\n    /* \"#utility.yul\":9076:9081   */\n  dup3\n    /* \"#utility.yul\":9072:9088   */\n  and\n    /* \"#utility.yul\":9061:9088   */\n  swap1\n  pop\n    /* \"#utility.yul\":9008:9094   */\n  swap2\n  swap1\n  pop\n  jump\t// out\n    /* \"#utility.yul\":9100:9381   */\ntag_33:\n    /* \"#utility.yul\":9158:9163   */\n  0x00\n    /* \"#utility.yul\":9182:9205   */\n  tag_241\n    /* \"#utility.yul\":9200:9204   */\n  dup3\n    /* \"#utility.yul\":9182:9205   */\n  tag_104\n  jump\t// in\ntag_241:\n    /* \"#utility.yul\":9174:9205   */\n  swap2\n  pop\n    /* \"#utility.yul\":9226:9251   */\n  tag_242\n    /* \"#utility.yul\":9242:9250   */\n  dup4\n    /* \"#utility.yul\":9226:9251   */\n  tag_121\n  jump\t// in\ntag_242:\n    /* \"#utility.yul\":9214:9251   */\n  swap3\n  pop\n    /* \"#utility.yul\":9270:9374   */\n  tag_243\n    /* \"#utility.yul\":9307:9373   */\n  0xffffffffffffffffffffffffffffffffffffffffffffffffffffffffffffffff\n    /* \"#utility.yul\":9297:9305   */\n  dup5\n    /* \"#utility.yul\":9291:9295   */\n  dup5\n    /* \"#utility.yul\":9270:9374   */\n  tag_120\n  jump\t// in\ntag_243:\n    /* \"#utility.yul\":9261:9374   */\n  swap1\n  pop\n    /* \"#utility.yul\":9100:9381   */\n  swap3\n  swap2\n  pop\n  pop\n  jump\t// out\n    /* \"#utility.yul\":9387:9797   */\ntag_35:\n    /* \"#utility.yul\":9427:9434   */\n  0x00\n    /* \"#utility.yul\":9450:9470   */\n  tag_245\n    /* \"#utility.yul\":9468:9469   */\n  dup3\n    /* \"#utility.yul\":9450:9470   */\n  tag_104\n  jump\t// in\ntag_245:\n    /* \"#utility.yul\":9445:9470   */\n  swap2\n  pop\n    /* \"#utility.yul\":9484:9504   */\n  tag_246\n    /* \"#utility.yul\":9502:9503   */\n  dup4\n    /* \"#utility.yul\":9484:9504   */\n  tag_104\n  jump\t// in\ntag_246:\n    /* \"#utility.yul\":9479:9504   */\n  swap3\n  pop\n    /* \"#utility.yul\":9539:9540   */\n  dup3\n    /* \"#utility.yul\":9536:9537   */\n  dup3\n    /* \"#utility.yul\":9532:9541   */\n  mul\n    /* \"#utility.yul\":9561:9591   */\n  tag_247\n    /* \"#utility.yul\":9579:9590   */\n  dup2\n    /* \"#utility.yul\":9561:9591   */\n  tag_104\n  jump\t// in\ntag_247:\n    /* \"#utility.yul\":9550:9591   */\n  swap2\n  pop\n    /* \"#utility.yul\":9740:9741   */\n  dup3\n    /* \"#utility.yul\":9731:9738   */\n  dup3\n    /* \"#utility.yul\":9727:9742   */\n  div\n    /* \"#utility.yul\":9724:9725   */\n  dup5\n    /* \"#utility.yul\":9721:9743   */\n  eq\n    /* \"#utility.yul\":9701:9702   */\n  dup4\n    /* \"#utility.yul\":9694:9703   */\n  iszero\n    /* \"#utility.yul\":9674:9757   */\n  or\n    /* \"#utility.yul\":9651:9790   */\n  tag_248\n  jumpi\n    /* \"#utility.yul\":9770:9788   */\n  tag_249\n  tag_117\n  jump\t// in\ntag_249:\n    /* \"#utility.yul\":9651:9790   */\ntag_248:\n    /* \"#utility.yul\":9435:9797   */\n  pop\n    /* \"#utility.yul\":9387:9797   */\n  swap3\n  swap2\n  pop\n  pop\n  jump\t// out\n    /* \"#utility.yul\":9803:9880   */\ntag_122:\n    /* \"#utility.yul\":9840:9847   */\n  0x00\n    /* \"#utility.yul\":9869:9874   */\n  dup2\n    /* \"#utility.yul\":9858:9874   */\n  swap1\n  pop\n    /* \"#utility.yul\":9803:9880   */\n  swap2\n  swap1\n  pop\n  jump\t// out\n    /* \"#utility.yul\":9886:10004   */\ntag_123:\n    /* \"#utility.yul\":9973:9997   */\n  tag_252\n    /* \"#utility.yul\":9991:9996   */\n  dup2\n    /* \"#utility.yul\":9973:9997   */\n  tag_122\n  jump\t// in\ntag_252:\n    /* \"#utility.yul\":9968:9971   */\n  dup3\n    /* \"#utility.yul\":9961:9998   */\n  mstore\n    /* \"#utility.yul\":9886:10004   */\n  pop\n  pop\n  jump\t// out\n    /* \"#utility.yul\":10010:10128   */\ntag_124:\n    /* \"#utility.yul\":10097:10121   */\n  tag_254\n    /* \"#utility.yul\":10115:10120   */\n  dup2\n    /* \"#utility.yul\":10097:10121   */\n  tag_104\n  jump\t// in\ntag_254:\n    /* \"#utility.yul\":10092:10095   */\n  dup3\n    /* \"#utility.yul\":10085:10122   */\n  mstore\n    /* \"#utility.yul\":10010:10128   */\n  pop\n  pop\n  jump\t// out\n    /* \"#utility.yul\":10134:10798   */\ntag_49:\n    /* \"#utility.yul\":10339:10343   */\n  0x00\n    /* \"#utility.yul\":10377:10380   */\n  0xa0\n    /* \"#utility.yul\":10366:10375   */\n  dup3\n    /* \"#utility.yul\":10362:10381   */\n  add\n    /* \"#utility.yul\":10354:10381   */\n  swap1\n  pop\n    /* \"#utility.yul\":10391:10462   */\n  tag_256\n    /* \"#utility.yul\":10459:10460   */\n  0x00\n    /* \"#utility.yul\":10448:10457   */\n  dup4\n    /* \"#utility.yul\":10444:10461   */\n  add\n    /* \"#utility.yul\":10435:10441   */\n  dup9\n    /* \"#utility.yul\":10391:10462   */\n  tag_123\n  jump\t// in\ntag_256:\n    /* \"#utility.yul\":10472:10544   */\n  tag_257\n    /* \"#utility.yul\":10540:10542   */\n  0x20\n    /* \"#utility.yul\":10529:10538   */\n  dup4\n    /* \"#utility.yul\":10525:10543   */\n  add\n    /* \"#utility.yul\":10516:10522   */\n  dup8\n    /* \"#utility.yul\":10472:10544   */\n  tag_123\n  jump\t// in\ntag_257:\n    /* \"#utility.yul\":10554:10626   */\n  tag_258\n    /* \"#utility.yul\":10622:10624   */\n  0x40\n    /* \"#utility.yul\":10611:10620   */\n  dup4\n    /* \"#utility.yul\":10607:10625   */\n  add\n    /* \"#utility.yul\":10598:10604   */\n  dup7\n    /* \"#utility.yul\":10554:10626   */\n  tag_123\n  jump\t// in\ntag_258:\n    /* \"#utility.yul\":10636:10708   */\n  tag_259\n    /* \"#utility.yul\":10704:10706   */\n  0x60\n    /* \"#utility.yul\":10693:10702   */\n  dup4\n    /* \"#utility.yul\":10689:10707   */\n  add\n    /* \"#utility.yul\":10680:10686   */\n  dup6\n    /* \"#utility.yul\":10636:10708   */\n  tag_124\n  jump\t// in\ntag_259:\n    /* \"#utility.yul\":10718:10791   */\n  tag_260\n    /* \"#utility.yul\":10786:10789   */\n  0x80\n    /* \"#utility.yul\":10775:10784   */\n  dup4\n    /* \"#utility.yul\":10771:10790   */\n  add\n    /* \"#utility.yul\":10762:10768   */\n  dup5\n    /* \"#utility.yul\":10718:10791   */\n  tag_116\n  jump\t// in\ntag_260:\n    /* \"#utility.yul\":10134:10798   */\n  swap7\n  swap6\n  pop\n  pop\n  pop\n  pop\n  pop\n  pop\n  jump\t// out\n    /* \"#utility.yul\":10804:10973   */\ntag_125:\n    /* \"#utility.yul\":10888:10899   */\n  0x00\n    /* \"#utility.yul\":10922:10928   */\n  dup3\n    /* \"#utility.yul\":10917:10920   */\n  dup3\n    /* \"#utility.yul\":10910:10929   */\n  mstore\n    /* \"#utility.yul\":10962:10966   */\n  0x20\n    /* \"#utility.yul\":10957:10960   */\n  dup3\n    /* \"#utility.yul\":10953:10967   */\n  add\n    /* \"#utility.yul\":10938:10967   */\n  swap1\n  pop\n    /* \"#utility.yul\":10804:10973   */\n  swap3\n  swap2\n  pop\n  pop\n  jump\t// out\n    /* \"#utility.yul\":10979:11225   */\ntag_126:\n    /* \"#utility.yul\":11060:11061   */\n  0x00\n    /* \"#utility.yul\":11070:11183   */\ntag_263:\n    /* \"#utility.yul\":11084:11090   */\n  dup4\n    /* \"#utility.yul\":11081:11082   */\n  dup2\n    /* \"#utility.yul\":11078:11091   */\n  lt\n    /* \"#utility.yul\":11070:11183   */\n  iszero\n  tag_265\n  jumpi\n    /* \"#utility.yul\":11169:11170   */\n  dup1\n    /* \"#utility.yul\":11164:11167   */\n  dup3\n    /* \"#utility.yul\":11160:11171   */\n  add\n    /* \"#utility.yul\":11154:11172   */\n  mload\n    /* \"#utility.yul\":11150:11151   */\n  dup2\n    /* \"#utility.yul\":11145:11148   */\n  dup5\n    /* \"#utility.yul\":11141:11152   */\n  add\n    /* \"#utility.yul\":11134:11173   */\n  mstore\n    /* \"#utility.yul\":11106:11108   */\n  0x20\n    /* \"#utility.yul\":11103:11104   */\n  dup2\n    /* \"#utility.yul\":11099:11109   */\n  add\n    /* \"#utility.yul\":11094:11109   */\n  swap1\n  pop\n    /* \"#utility.yul\":11070:11183   */\n  jump(tag_263)\ntag_265:\n    /* \"#utility.yul\":11217:11218   */\n  0x00\n    /* \"#utility.yul\":11208:11214   */\n  dup5\n    /* \"#utility.yul\":11203:11206   */\n  dup5\n    /* \"#utility.yul\":11199:11215   */\n  add\n    /* \"#utility.yul\":11192:11219   */\n  mstore\n    /* \"#utility.yul\":11041:11225   */\n  pop\n    /* \"#utility.yul\":10979:11225   */\n  pop\n  pop\n  pop\n  jump\t// out\n    /* \"#utility.yul\":11231:11333   */\ntag_127:\n    /* \"#utility.yul\":11272:11278   */\n  0x00\n    /* \"#utility.yul\":11323:11325   */\n  0x1f\n    /* \"#utility.yul\":11319:11326   */\n  not\n    /* \"#utility.yul\":11314:11316   */\n  0x1f\n    /* \"#utility.yul\":11307:11312   */\n  dup4\n    /* \"#utility.yul\":11303:11317   */\n  add\n    /* \"#utility.yul\":11299:11327   */\n  and\n    /* \"#utility.yul\":11289:11327   */\n  swap1\n  pop\n    /* \"#utility.yul\":11231:11333   */\n  swap2\n  swap1\n  pop\n  jump\t// out\n    /* \"#utility.yul\":11339:11716   */\ntag_128:\n    /* \"#utility.yul\":11427:11430   */\n  0x00\n    /* \"#utility.yul\":11455:11494   */\n  tag_268\n    /* \"#utility.yul\":11488:11493   */\n  dup3\n    /* \"#utility.yul\":11455:11494   */\n  tag_96\n  jump\t// in\ntag_268:\n    /* \"#utility.yul\":11510:11581   */\n  tag_269\n    /* \"#utility.yul\":11574:11580   */\n  dup2\n    /* \"#utility.yul\":11569:11572   */\n  dup6\n    /* \"#utility.yul\":11510:11581   */\n  tag_125\n  jump\t// in\ntag_269:\n    /* \"#utility.yul\":11503:11581   */\n  swap4\n  pop\n    /* \"#utility.yul\":11590:11655   */\n  tag_270\n    /* \"#utility.yul\":11648:11654   */\n  dup2\n    /* \"#utility.yul\":11643:11646   */\n  dup6\n    /* \"#utility.yul\":11636:11640   */\n  0x20\n    /* \"#utility.yul\":11629:11634   */\n  dup7\n    /* \"#utility.yul\":11625:11641   */\n  add\n    /* \"#utility.yul\":11590:11655   */\n  tag_126\n  jump\t// in\ntag_270:\n    /* \"#utility.yul\":11680:11709   */\n  tag_271\n    /* \"#utility.yul\":11702:11708   */\n  dup2\n    /* \"#utility.yul\":11680:11709   */\n  tag_127\n  jump\t// in\ntag_271:\n    /* \"#utility.yul\":11675:11678   */\n  dup5\n    /* \"#utility.yul\":11671:11710   */\n  add\n    /* \"#utility.yul\":11664:11710   */\n  swap2\n  pop\n    /* \"#utility.yul\":11431:11716   */\n  pop\n    /* \"#utility.yul\":11339:11716   */\n  swap3\n  swap2\n  pop\n  pop\n  jump\t// out\n    /* \"#utility.yul\":11722:12035   */\ntag_59:\n    /* \"#utility.yul\":11835:11839   */\n  0x00\n    /* \"#utility.yul\":11873:11875   */\n  0x20\n    /* \"#utility.yul\":11862:11871   */\n  dup3\n    /* \"#utility.yul\":11858:11876   */\n  add\n    /* \"#utility.yul\":11850:11876   */\n  swap1\n  pop\n    /* \"#utility.yul\":11922:11931   */\n  dup2\n    /* \"#utility.yul\":11916:11920   */\n  dup2\n    /* \"#utility.yul\":11912:11932   */\n  sub\n    /* \"#utility.yul\":11908:11909   */\n  0x00\n    /* \"#utility.yul\":11897:11906   */\n  dup4\n    /* \"#utility.yul\":11893:11910   */\n  add\n    /* \"#utility.yul\":11886:11933   */\n  mstore\n    /* \"#utility.yul\":11950:12028   */\n  tag_273\n    /* \"#utility.yul\":12023:12027   */\n  dup2\n    /* \"#utility.yul\":12014:12020   */\n  dup5\n    /* \"#utility.yul\":11950:12028   */\n  tag_128\n  jump\t// in\ntag_273:\n    /* \"#utility.yul\":11942:12028   */\n  swap1\n  pop\n    /* \"#utility.yul\":11722:12035   */\n  swap3\n  swap2\n  pop\n  pop\n  jump\t// out\n    /* \"#utility.yul\":12041:12139   */\ntag_129:\n    /* \"#utility.yul\":12092:12098   */\n  0x00\n    /* \"#utility.yul\":12126:12131   */\n  dup2\n    /* \"#utility.yul\":12120:12132   */\n  mload\n    /* \"#utility.yul\":12110:12132   */\n  swap1\n  pop\n    /* \"#utility.yul\":12041:12139   */\n  swap2\n  swap1\n  pop\n  jump\t// out\n    /* \"#utility.yul\":12145:12261   */\ntag_130:\n    /* \"#utility.yul\":12196:12200   */\n  0x00\n    /* \"#utility.yul\":12219:12222   */\n  dup2\n    /* \"#utility.yul\":12211:12222   */\n  swap1\n  pop\n    /* \"#utility.yul\":12249:12253   */\n  0x20\n    /* \"#utility.yul\":12244:12247   */\n  dup3\n    /* \"#utility.yul\":12240:12254   */\n  add\n    /* \"#utility.yul\":12232:12254   */\n  swap1\n  pop\n    /* \"#utility.yul\":12145:12261   */\n  swap2\n  swap1\n  pop\n  jump\t// out\n    /* \"#utility.yul\":12267:12421   */\ntag_131:\n    /* \"#utility.yul\":12310:12321   */\n  0x00\n    /* \"#utility.yul\":12346:12375   */\n  tag_277\n    /* \"#utility.yul\":12370:12373   */\n  dup3\n    /* \"#utility.yul\":12364:12374   */\n  mload\n    /* \"#utility.yul\":12346:12375   */\n  tag_122\n  jump\t// in\ntag_277:\n    /* \"#utility.yul\":12409:12414   */\n  dup1\n    /* \"#utility.yul\":12385:12414   */\n  swap2\n  pop\n    /* \"#utility.yul\":12322:12421   */\n  pop\n    /* \"#utility.yul\":12267:12421   */\n  swap2\n  swap1\n  pop\n  jump\t// out\n    /* \"#utility.yul\":12427:13021   */\ntag_61:\n    /* \"#utility.yul\":12511:12516   */\n  0x00\n    /* \"#utility.yul\":12542:12580   */\n  tag_279\n    /* \"#utility.yul\":12574:12579   */\n  dup3\n    /* \"#utility.yul\":12542:12580   */\n  tag_129\n  jump\t// in\ntag_279:\n    /* \"#utility.yul\":12605:12610   */\n  dup3\n    /* \"#utility.yul\":12632:12672   */\n  tag_280\n    /* \"#utility.yul\":12666:12671   */\n  dup5\n    /* \"#utility.yul\":12632:12672   */\n  tag_130\n  jump\t// in\ntag_280:\n    /* \"#utility.yul\":12620:12672   */\n  swap1\n  pop\n    /* \"#utility.yul\":12691:12726   */\n  tag_281\n    /* \"#utility.yul\":12717:12725   */\n  dup2\n    /* \"#utility.yul\":12691:12726   */\n  tag_131\n  jump\t// in\ntag_281:\n    /* \"#utility.yul\":12682:12726   */\n  swap3\n  pop\n    /* \"#utility.yul\":12750:12752   */\n  0x20\n    /* \"#utility.yul\":12742:12748   */\n  dup3\n    /* \"#utility.yul\":12739:12753   */\n  lt\n    /* \"#utility.yul\":12736:13014   */\n  iszero\n  tag_282\n  jumpi\n    /* \"#utility.yul\":12821:12990   */\n  tag_283\n    /* \"#utility.yul\":12906:12972   */\n  0xffffffffffffffffffffffffffffffffffffffffffffffffffffffffffffffff\n    /* \"#utility.yul\":12876:12882   */\n  dup4\n    /* \"#utility.yul\":12872:12874   */\n  0x20\n    /* \"#utility.yul\":12868:12883   */\n  sub\n    /* \"#utility.yul\":12865:12866   */\n  0x08\n    /* \"#utility.yul\":12861:12884   */\n  mul\n    /* \"#utility.yul\":12821:12990   */\n  tag_102\n  jump\t// in\ntag_283:\n    /* \"#utility.yul\":12798:12803   */\n  dup4\n    /* \"#utility.yul\":12777:13004   */\n  and\n    /* \"#utility.yul\":12768:13004   */\n  swap3\n  pop\n    /* \"#utility.yul\":12736:13014   */\ntag_282:\n    /* \"#utility.yul\":12517:13021   */\n  pop\n  pop\n    /* \"#utility.yul\":12427:13021   */\n  swap2\n  swap1\n  pop\n  jump\t// out\n    /* \"#utility.yul\":13027:13218   */\ntag_79:\n    /* \"#utility.yul\":13067:13070   */\n  0x00\n    /* \"#utility.yul\":13086:13106   */\n  tag_285\n    /* \"#utility.yul\":13104:13105   */\n  dup3\n    /* \"#utility.yul\":13086:13106   */\n  tag_104\n  jump\t// in\ntag_285:\n    /* \"#utility.yul\":13081:13106   */\n  swap2\n  pop\n    /* \"#utility.yul\":13120:13140   */\n  tag_286\n    /* \"#utility.yul\":13138:13139   */\n  dup4\n    /* \"#utility.yul\":13120:13140   */\n  tag_104\n  jump\t// in\ntag_286:\n    /* \"#utility.yul\":13115:13140   */\n  swap3\n  pop\n    /* \"#utility.yul\":13163:13164   */\n  dup3\n    /* \"#utility.yul\":13160:13161   */\n  dup3\n    /* \"#utility.yul\":13156:13165   */\n  add\n    /* \"#utility.yul\":13149:13165   */\n  swap1\n  pop\n    /* \"#utility.yul\":13184:13187   */\n  dup1\n    /* \"#utility.yul\":13181:13182   */\n  dup3\n    /* \"#utility.yul\":13178:13188   */\n  gt\n    /* \"#utility.yul\":13175:13211   */\n  iszero\n  tag_287\n  jumpi\n    /* \"#utility.yul\":13191:13209   */\n  tag_288\n  tag_117\n  jump\t// in\ntag_288:\n    /* \"#utility.yul\":13175:13211   */\ntag_287:\n    /* \"#utility.yul\":13027:13218   */\n  swap3\n  swap2\n  pop\n  pop\n  jump\t// out\n    /* \"#utility.yul\":13224:13666   */\ntag_83:\n    /* \"#utility.yul\":13373:13377   */\n  0x00\n    /* \"#utility.yul\":13411:13413   */\n  0x60\n    /* \"#utility.yul\":13400:13409   */\n  dup3\n    /* \"#utility.yul\":13396:13414   */\n  add\n    /* \"#utility.yul\":13388:13414   */\n  swap1\n  pop\n    /* \"#utility.yul\":13424:13495   */\n  tag_290\n    /* \"#utility.yul\":13492:13493   */\n  0x00\n    /* \"#utility.yul\":13481:13490   */\n  dup4\n    /* \"#utility.yul\":13477:13494   */\n  add\n    /* \"#utility.yul\":13468:13474   */\n  dup7\n    /* \"#utility.yul\":13424:13495   */\n  tag_116\n  jump\t// in\ntag_290:\n    /* \"#utility.yul\":13505:13577   */\n  tag_291\n    /* \"#utility.yul\":13573:13575   */\n  0x20\n    /* \"#utility.yul\":13562:13571   */\n  dup4\n    /* \"#utility.yul\":13558:13576   */\n  add\n    /* \"#utility.yul\":13549:13555   */\n  dup6\n    /* \"#utility.yul\":13505:13577   */\n  tag_124\n  jump\t// in\ntag_291:\n    /* \"#utility.yul\":13587:13659   */\n  tag_292\n    /* \"#utility.yul\":13655:13657   */\n  0x40\n    /* \"#utility.yul\":13644:13653   */\n  dup4\n    /* \"#utility.yul\":13640:13658   */\n  add\n    /* \"#utility.yul\":13631:13637   */\n  dup5\n    /* \"#utility.yul\":13587:13659   */\n  tag_124\n  jump\t// in\ntag_292:\n    /* \"#utility.yul\":13224:13666   */\n  swap5\n  swap4\n  pop\n  pop\n  pop\n  pop\n  jump\t// out\n    /* \"#utility.yul\":13672:13894   */\ntag_87:\n    /* \"#utility.yul\":13765:13769   */\n  0x00\n    /* \"#utility.yul\":13803:13805   */\n  0x20\n    /* \"#utility.yul\":13792:13801   */\n  dup3\n    /* \"#utility.yul\":13788:13806   */\n  add\n    /* \"#utility.yul\":13780:13806   */\n  swap1\n  pop\n    /* \"#utility.yul\":13816:13887   */\n  tag_294\n    /* \"#utility.yul\":13884:13885   */\n  0x00\n    /* \"#utility.yul\":13873:13882   */\n  dup4\n    /* \"#utility.yul\":13869:13886   */\n  add\n    /* \"#utility.yul\":13860:13866   */\n  dup5\n    /* \"#utility.yul\":13816:13887   */\n  tag_124\n  jump\t// in\ntag_294:\n    /* \"#utility.yul\":13672:13894   */\n  swap3\n  swap2\n  pop\n  pop\n  jump\t// out\n    /* \"contracts/PalToken.sol\":316:1048  contract PalToken is ERC20, ERC20Pausable, Ownable, ERC20Permit {... */\ntag_37:\n  mload(0x80)\n  mload(0xa0)\n  mload(0xc0)\n  mload(0xe0)\n  mload(0x0100)\n  mload(0x0120)\n  mload(0x0140)\n  codecopy(0x00, dataOffset(sub_0), dataSize(sub_0))\n  0x00\n  assignImmutable(\"0xdbb0c2eddba6d539cf8b9907d3b61571093d82f2968cb7a5edabc36082864457\")\n  0x00\n  assignImmutable(\"0x2e146e4054721a17b0bcbf76ec43b6f46a05beded7f5d79154519b5b8d21cac9\")\n  0x00\n  assignImmutable(\"0xca73b0fbc7b8eec28132d1f947a137ff021618d4bdd73cb1d46e190b1d537e0f\")\n  0x00\n  assignImmutable(\"0x0d54be3bc4377689e90fa825469f9d33cd9577ac3cb8dec97175feee980cb522\")\n  0x00\n  assignImmutable(\"0xd263227ffbaf7b91a92497c6eb65c453edc9c5358213554d060ed95723c3f7bc\")\n  0x00\n  assignImmutable(\"0xd70d0cf38150f657ec865f17021fc339b11a33e2b797e60de4b866ae0bf147f7\")\n  0x00\n  assignImmutable(\"0xa5cf380b0fdf8a4fa311ecc512aa2c0798fd0dee2c0937be01788e654bba72d8\")\n  return(0x00, dataSize(sub_0))\nstop\n\nsub_0: assembly {\n        /* \"contracts/PalToken.sol\":316:1048  contract PalToken is ERC20, ERC20Pausable, Ownable, ERC20Permit {... */\n      mstore(0x40, 0x80)\n      callvalue\n      dup1\n      iszero\n      tag_1\n      jumpi\n      0x00\n      dup1\n      revert\n    tag_1:\n      pop\n      jumpi(tag_2, lt(calldatasize, 0x04))\n      shr(0xe0, calldataload(0x00))\n      dup1\n      0x715018a6\n      gt\n      tag_23\n      jumpi\n      dup1\n      0x95d89b41\n      gt\n      tag_24\n      jumpi\n      dup1\n      0x95d89b41\n      eq\n      tag_18\n      jumpi\n      dup1\n      0xa9059cbb\n      eq\n      tag_19\n      jumpi\n      dup1\n      0xd505accf\n      eq\n      tag_20\n      jumpi\n      dup1\n      0xdd62ed3e\n      eq\n      tag_21\n      jumpi\n      dup1\n      0xf2fde38b\n      eq\n      tag_22\n      jumpi\n      jump(tag_2)\n    tag_24:\n      dup1\n      0x715018a6\n      eq\n      tag_13\n      jumpi\n      dup1\n      0x7ecebe00\n      eq\n      tag_14\n      jumpi\n      dup1\n      0x8456cb59\n      eq\n      tag_15\n      jumpi\n      dup1\n      0x84b0196e\n      eq\n      tag_16\n      jumpi\n      dup1\n      0x8da5cb5b\n      eq\n      tag_17\n      jumpi\n      jump(tag_2)\n    tag_23:\n      dup1\n      0x3644e515\n      gt\n      tag_25\n      jumpi\n      dup1\n      0x3644e515\n      eq\n      tag_8\n      jumpi\n      dup1\n      0x3f4ba83a\n      eq\n      tag_9\n      jumpi\n      dup1\n      0x40c10f19\n      eq\n      tag_10\n      jumpi\n      dup1\n      0x5c975abb\n      eq\n      tag_11\n      jumpi\n      dup1\n      0x70a08231\n      eq\n      tag_12\n      jumpi\n      jump(tag_2)\n    tag_25:\n      dup1\n      0x06fdde03\n      eq\n      tag_3\n      jumpi\n      dup1\n      0x095ea7b3\n      eq\n      tag_4\n      jumpi\n      dup1\n      0x18160ddd\n      eq\n      tag_5\n      jumpi\n      dup1\n      0x23b872dd\n      eq\n      tag_6\n      jumpi\n      dup1\n      0x313ce567\n      eq\n      tag_7\n      jumpi\n    tag_2:\n      0x00\n      dup1\n      revert\n        /* \"@openzeppelin/contracts/token/ERC20/ERC20.sol\":2074:2163  function name() public view virtual returns (string memory) {... */\n    tag_3:\n      tag_26\n      tag_27\n      jump\t// in\n    tag_26:\n      mload(0x40)\n      tag_28\n      swap2\n      swap1\n      tag_29\n      jump\t// in\n    tag_28:\n      mload(0x40)\n      dup1\n      swap2\n      sub\n      swap1\n      return\n        /* \"@openzeppelin/contracts/token/ERC20/ERC20.sol\":4293:4479  function approve(address spender, uint256 value) public virtual returns (bool) {... */\n    tag_4:\n      tag_30\n      0x04\n      dup1\n      calldatasize\n      sub\n      dup2\n      add\n      swap1\n      tag_31\n      swap2\n      swap1\n      tag_32\n      jump\t// in\n    tag_31:\n      tag_33\n      jump\t// in\n    tag_30:\n      mload(0x40)\n      tag_34\n      swap2\n      swap1\n      tag_35\n      jump\t// in\n    tag_34:\n      mload(0x40)\n      dup1\n      swap2\n      sub\n      swap1\n      return\n        /* \"@openzeppelin/contracts/token/ERC20/ERC20.sol\":3144:3241  function totalSupply() public view virtual returns (uint256) {... */\n    tag_5:\n      tag_36\n      tag_37\n      jump\t// in\n    tag_36:\n      mload(0x40)\n      tag_38\n      swap2\n      swap1\n      tag_39\n      jump\t// in\n    tag_38:\n      mload(0x40)\n      dup1\n      swap2\n      sub\n      swap1\n      return\n        /* \"@openzeppelin/contracts/token/ERC20/ERC20.sol\":5039:5283  function transferFrom(address from, address to, uint256 value) public virtual returns (bool) {... */\n    tag_6:\n      tag_40\n      0x04\n      dup1\n      calldatasize\n      sub\n      dup2\n      add\n      swap1\n      tag_41\n      swap2\n      swap1\n      tag_42\n      jump\t// in\n    tag_41:\n      tag_43\n      jump\t// in\n    tag_40:\n      mload(0x40)\n      tag_44\n      swap2\n      swap1\n      tag_35\n      jump\t// in\n    tag_44:\n      mload(0x40)\n      dup1\n      swap2\n      sub\n      swap1\n      return\n        /* \"@openzeppelin/contracts/token/ERC20/ERC20.sol\":3002:3084  function decimals() public view virtual returns (uint8) {... */\n    tag_7:\n      tag_45\n      tag_46\n      jump\t// in\n    tag_45:\n      mload(0x40)\n      tag_47\n      swap2\n      swap1\n      tag_48\n      jump\t// in\n    tag_47:\n      mload(0x40)\n      dup1\n      swap2\n      sub\n      swap1\n      return\n        /* \"@openzeppelin/contracts/token/ERC20/extensions/ERC20Permit.sol\":2656:2768  function DOMAIN_SEPARATOR() external view virtual returns (bytes32) {... */\n    tag_8:\n      tag_49\n      tag_50\n      jump\t// in\n    tag_49:\n      mload(0x40)\n      tag_51\n      swap2\n      swap1\n      tag_52\n      jump\t// in\n    tag_51:\n      mload(0x40)\n      dup1\n      swap2\n      sub\n      swap1\n      return\n        /* \"contracts/PalToken.sol\":645:708  function unpause() public onlyOwner {... */\n    tag_9:\n      tag_53\n      tag_54\n      jump\t// in\n    tag_53:\n      stop\n        /* \"contracts/PalToken.sol\":714:807  function mint(address to, uint256 amount) public onlyOwner {... */\n    tag_10:\n      tag_55\n      0x04\n      dup1\n      calldatasize\n      sub\n      dup2\n      add\n      swap1\n      tag_56\n      swap2\n      swap1\n      tag_32\n      jump\t// in\n    tag_56:\n      tag_57\n      jump\t// in\n    tag_55:\n      stop\n        /* \"@openzeppelin/contracts/utils/Pausable.sol\":1850:1934  function paused() public view virtual returns (bool) {... */\n    tag_11:\n      tag_58\n      tag_59\n      jump\t// in\n    tag_58:\n      mload(0x40)\n      tag_60\n      swap2\n      swap1\n      tag_35\n      jump\t// in\n    tag_60:\n      mload(0x40)\n      dup1\n      swap2\n      sub\n      swap1\n      return\n        /* \"@openzeppelin/contracts/token/ERC20/ERC20.sol\":3299:3415  function balanceOf(address account) public view virtual returns (uint256) {... */\n    tag_12:\n      tag_61\n      0x04\n      dup1\n      calldatasize\n      sub\n      dup2\n      add\n      swap1\n      tag_62\n      swap2\n      swap1\n      tag_63\n      jump\t// in\n    tag_62:\n      tag_64\n      jump\t// in\n    tag_61:\n      mload(0x40)\n      tag_65\n      swap2\n      swap1\n      tag_39\n      jump\t// in\n    tag_65:\n      mload(0x40)\n      dup1\n      swap2\n      sub\n      swap1\n      return\n        /* \"@openzeppelin/contracts/access/Ownable.sol\":2293:2394  function renounceOwnership() public virtual onlyOwner {... */\n    tag_13:\n      tag_66\n      tag_67\n      jump\t// in\n    tag_66:\n      stop\n        /* \"@openzeppelin/contracts/token/ERC20/extensions/ERC20Permit.sol\":2406:2549  function nonces(address owner) public view virtual override(IERC20Permit, Nonces) returns (uint256) {... */\n    tag_14:\n      tag_68\n      0x04\n      dup1\n      calldatasize\n      sub\n      dup2\n      add\n      swap1\n      tag_69\n      swap2\n      swap1\n      tag_63\n      jump\t// in\n    tag_69:\n      tag_70\n      jump\t// in\n    tag_68:\n      mload(0x40)\n      tag_71\n      swap2\n      swap1\n      tag_39\n      jump\t// in\n    tag_71:\n      mload(0x40)\n      dup1\n      swap2\n      sub\n      swap1\n      return\n        /* \"contracts/PalToken.sol\":580:639  function pause() public onlyOwner {... */\n    tag_15:\n      tag_72\n      tag_73\n      jump\t// in\n    tag_72:\n      stop\n        /* \"@openzeppelin/contracts/utils/cryptography/EIP712.sol\":5144:5701  function eip712Domain()... */\n    tag_16:\n      tag_74\n      tag_75\n      jump\t// in\n    tag_74:\n      mload(0x40)\n      tag_76\n      swap8\n      swap7\n      swap6\n      swap5\n      swap4\n      swap3\n      swap2\n      swap1\n      tag_77\n      jump\t// in\n    tag_76:\n      mload(0x40)\n      dup1\n      swap2\n      sub\n      swap1\n      return\n        /* \"@openzeppelin/contracts/access/Ownable.sol\":1638:1723  function owner() public view virtual returns (address) {... */\n    tag_17:\n      tag_78\n      tag_79\n      jump\t// in\n    tag_78:\n      mload(0x40)\n      tag_80\n      swap2\n      swap1\n      tag_81\n      jump\t// in\n    tag_80:\n      mload(0x40)\n      dup1\n      swap2\n      sub\n      swap1\n      return\n        /* \"@openzeppelin/contracts/token/ERC20/ERC20.sol\":2276:2369  function symbol() public view virtual returns (string memory) {... */\n    tag_18:\n      tag_82\n      tag_83\n      jump\t// in\n    tag_82:\n      mload(0x40)\n      tag_84\n      swap2\n      swap1\n      tag_29\n      jump\t// in\n    tag_84:\n      mload(0x40)\n      dup1\n      swap2\n      sub\n      swap1\n      return\n        /* \"@openzeppelin/contracts/token/ERC20/ERC20.sol\":3610:3788  function transfer(address to, uint256 value) public virtual returns (bool) {... */\n    tag_19:\n      tag_85\n      0x04\n      dup1\n      calldatasize\n      sub\n      dup2\n      add\n      swap1\n      tag_86\n      swap2\n      swap1\n      tag_32\n      jump\t// in\n    tag_86:\n      tag_87\n      jump\t// in\n    tag_85:\n      mload(0x40)\n      tag_88\n      swap2\n      swap1\n      tag_35\n      jump\t// in\n    tag_88:\n      mload(0x40)\n      dup1\n      swap2\n      sub\n      swap1\n      return\n        /* \"@openzeppelin/contracts/token/ERC20/extensions/ERC20Permit.sol\":1680:2352  function permit(... */\n    tag_20:\n      tag_89\n      0x04\n      dup1\n      calldatasize\n      sub\n      dup2\n      add\n      swap1\n      tag_90\n      swap2\n      swap1\n      tag_91\n      jump\t// in\n    tag_90:\n      tag_92\n      jump\t// in\n    tag_89:\n      stop\n        /* \"@openzeppelin/contracts/token/ERC20/ERC20.sol\":3846:3986  function allowance(address owner, address spender) public view virtual returns (uint256) {... */\n    tag_21:\n      tag_93\n      0x04\n      dup1\n      calldatasize\n      sub\n      dup2\n      add\n      swap1\n      tag_94\n      swap2\n      swap1\n      tag_95\n      jump\t// in\n    tag_94:\n      tag_96\n      jump\t// in\n    tag_93:\n      mload(0x40)\n      tag_97\n      swap2\n      swap1\n      tag_39\n      jump\t// in\n    tag_97:\n      mload(0x40)\n      dup1\n      swap2\n      sub\n      swap1\n      return\n        /* \"@openzeppelin/contracts/access/Ownable.sol\":2543:2758  function transferOwnership(address newOwner) public virtual onlyOwner {... */\n    tag_22:\n      tag_98\n      0x04\n      dup1\n      calldatasize\n      sub\n      dup2\n      add\n      swap1\n      tag_99\n      swap2\n      swap1\n      tag_63\n      jump\t// in\n    tag_99:\n      tag_100\n      jump\t// in\n    tag_98:\n      stop\n        /* \"@openzeppelin/contracts/token/ERC20/ERC20.sol\":2074:2163  function name() public view virtual returns (string memory) {... */\n    tag_27:\n        /* \"@openzeppelin/contracts/token/ERC20/ERC20.sol\":2119:2132  string memory */\n      0x60\n        /* \"@openzeppelin/contracts/token/ERC20/ERC20.sol\":2151:2156  _name */\n      0x03\n        /* \"@openzeppelin/contracts/token/ERC20/ERC20.sol\":2144:2156  return _name */\n      dup1\n      sload\n      tag_102\n      swap1\n      tag_103\n      jump\t// in\n    tag_102:\n      dup1\n      0x1f\n      add\n      0x20\n      dup1\n      swap2\n      div\n      mul\n      0x20\n      add\n      mload(0x40)\n      swap1\n      dup2\n      add\n      0x40\n      mstore\n      dup1\n      swap3\n      swap2\n      swap1\n      dup2\n      dup2\n      mstore\n      0x20\n      add\n      dup3\n      dup1\n      sload\n      tag_104\n      swap1\n      tag_103\n      jump\t// in\n    tag_104:\n      dup1\n      iszero\n      tag_105\n      jumpi\n      dup1\n      0x1f\n      lt\n      tag_106\n      jumpi\n      0x0100\n      dup1\n      dup4\n      sload\n      div\n      mul\n      dup4\n      mstore\n      swap2\n      0x20\n      add\n      swap2\n      jump(tag_105)\n    tag_106:\n      dup3\n      add\n      swap2\n      swap1\n      0x00\n      mstore\n      keccak256(0x00, 0x20)\n      swap1\n    tag_107:\n      dup2\n      sload\n      dup2\n      mstore\n      swap1\n      0x01\n      add\n      swap1\n      0x20\n      add\n      dup1\n      dup4\n      gt\n      tag_107\n      jumpi\n      dup3\n      swap1\n      sub\n      0x1f\n      and\n      dup3\n      add\n      swap2\n    tag_105:\n      pop\n      pop\n      pop\n      pop\n      pop\n      swap1\n      pop\n        /* \"@openzeppelin/contracts/token/ERC20/ERC20.sol\":2074:2163  function name() public view virtual returns (string memory) {... */\n      swap1\n      jump\t// out\n        /* \"@openzeppelin/contracts/token/ERC20/ERC20.sol\":4293:4479  function approve(address spender, uint256 value) public virtual returns (bool) {... */\n    tag_33:\n        /* \"@openzeppelin/contracts/token/ERC20/ERC20.sol\":4366:4370  bool */\n      0x00\n        /* \"@openzeppelin/contracts/token/ERC20/ERC20.sol\":4382:4395  address owner */\n      dup1\n        /* \"@openzeppelin/contracts/token/ERC20/ERC20.sol\":4398:4410  _msgSender() */\n      tag_109\n        /* \"@openzeppelin/contracts/token/ERC20/ERC20.sol\":4398:4408  _msgSender */\n      tag_110\n        /* \"@openzeppelin/contracts/token/ERC20/ERC20.sol\":4398:4410  _msgSender() */\n      jump\t// in\n    tag_109:\n        /* \"@openzeppelin/contracts/token/ERC20/ERC20.sol\":4382:4410  address owner = _msgSender() */\n      swap1\n      pop\n        /* \"@openzeppelin/contracts/token/ERC20/ERC20.sol\":4420:4451  _approve(owner, spender, value) */\n      tag_111\n        /* \"@openzeppelin/contracts/token/ERC20/ERC20.sol\":4429:4434  owner */\n      dup2\n        /* \"@openzeppelin/contracts/token/ERC20/ERC20.sol\":4436:4443  spender */\n      dup6\n        /* \"@openzeppelin/contracts/token/ERC20/ERC20.sol\":4445:4450  value */\n      dup6\n        /* \"@openzeppelin/contracts/token/ERC20/ERC20.sol\":4420:4428  _approve */\n      tag_112\n        /* \"@openzeppelin/contracts/token/ERC20/ERC20.sol\":4420:4451  _approve(owner, spender, value) */\n      jump\t// in\n    tag_111:\n        /* \"@openzeppelin/contracts/token/ERC20/ERC20.sol\":4468:4472  true */\n      0x01\n        /* \"@openzeppelin/contracts/token/ERC20/ERC20.sol\":4461:4472  return true */\n      swap2\n      pop\n      pop\n        /* \"@openzeppelin/contracts/token/ERC20/ERC20.sol\":4293:4479  function approve(address spender, uint256 value) public virtual returns (bool) {... */\n      swap3\n      swap2\n      pop\n      pop\n      jump\t// out\n        /* \"@openzeppelin/contracts/token/ERC20/ERC20.sol\":3144:3241  function totalSupply() public view virtual returns (uint256) {... */\n    tag_37:\n        /* \"@openzeppelin/contracts/token/ERC20/ERC20.sol\":3196:3203  uint256 */\n      0x00\n        /* \"@openzeppelin/contracts/token/ERC20/ERC20.sol\":3222:3234  _totalSupply */\n      sload(0x02)\n        /* \"@openzeppelin/contracts/token/ERC20/ERC20.sol\":3215:3234  return _totalSupply */\n      swap1\n      pop\n        /* \"@openzeppelin/contracts/token/ERC20/ERC20.sol\":3144:3241  function totalSupply() public view virtual returns (uint256) {... */\n      swap1\n      jump\t// out\n        /* \"@openzeppelin/contracts/token/ERC20/ERC20.sol\":5039:5283  function transferFrom(address from, address to, uint256 value) public virtual returns (bool) {... */\n    tag_43:\n        /* \"@openzeppelin/contracts/token/ERC20/ERC20.sol\":5126:5130  bool */\n      0x00\n        /* \"@openzeppelin/contracts/token/ERC20/ERC20.sol\":5142:5157  address spender */\n      dup1\n        /* \"@openzeppelin/contracts/token/ERC20/ERC20.sol\":5160:5172  _msgSender() */\n      tag_115\n        /* \"@openzeppelin/contracts/token/ERC20/ERC20.sol\":5160:5170  _msgSender */\n      tag_110\n        /* \"@openzeppelin/contracts/token/ERC20/ERC20.sol\":5160:5172  _msgSender() */\n      jump\t// in\n    tag_115:\n        /* \"@openzeppelin/contracts/token/ERC20/ERC20.sol\":5142:5172  address spender = _msgSender() */\n      swap1\n      pop\n        /* \"@openzeppelin/contracts/token/ERC20/ERC20.sol\":5182:5219  _spendAllowance(from, spender, value) */\n      tag_116\n        /* \"@openzeppelin/contracts/token/ERC20/ERC20.sol\":5198:5202  from */\n      dup6\n        /* \"@openzeppelin/contracts/token/ERC20/ERC20.sol\":5204:5211  spender */\n      dup3\n        /* \"@openzeppelin/contracts/token/ERC20/ERC20.sol\":5213:5218  value */\n      dup6\n        /* \"@openzeppelin/contracts/token/ERC20/ERC20.sol\":5182:5197  _spendAllowance */\n      tag_117\n        /* \"@openzeppelin/contracts/token/ERC20/ERC20.sol\":5182:5219  _spendAllowance(from, spender, value) */\n      jump\t// in\n    tag_116:\n        /* \"@openzeppelin/contracts/token/ERC20/ERC20.sol\":5229:5255  _transfer(from, to, value) */\n      tag_118\n        /* \"@openzeppelin/contracts/token/ERC20/ERC20.sol\":5239:5243  from */\n      dup6\n        /* \"@openzeppelin/contracts/token/ERC20/ERC20.sol\":5245:5247  to */\n      dup6\n        /* \"@openzeppelin/contracts/token/ERC20/ERC20.sol\":5249:5254  value */\n      dup6\n        /* \"@openzeppelin/contracts/token/ERC20/ERC20.sol\":5229:5238  _transfer */\n      tag_119\n        /* \"@openzeppelin/contracts/token/ERC20/ERC20.sol\":5229:5255  _transfer(from, to, value) */\n      jump\t// in\n    tag_118:\n        /* \"@openzeppelin/contracts/token/ERC20/ERC20.sol\":5272:5276  true */\n      0x01\n        /* \"@openzeppelin/contracts/token/ERC20/ERC20.sol\":5265:5276  return true */\n      swap2\n      pop\n      pop\n        /* \"@openzeppelin/contracts/token/ERC20/ERC20.sol\":5039:5283  function transferFrom(address from, address to, uint256 value) public virtual returns (bool) {... */\n      swap4\n      swap3\n      pop\n      pop\n      pop\n      jump\t// out\n        /* \"@openzeppelin/contracts/token/ERC20/ERC20.sol\":3002:3084  function decimals() public view virtual returns (uint8) {... */\n    tag_46:\n        /* \"@openzeppelin/contracts/token/ERC20/ERC20.sol\":3051:3056  uint8 */\n      0x00\n        /* \"@openzeppelin/contracts/token/ERC20/ERC20.sol\":3075:3077  18 */\n      0x12\n        /* \"@openzeppelin/contracts/token/ERC20/ERC20.sol\":3068:3077  return 18 */\n      swap1\n      pop\n        /* \"@openzeppelin/contracts/token/ERC20/ERC20.sol\":3002:3084  function decimals() public view virtual returns (uint8) {... */\n      swap1\n      jump\t// out\n        /* \"@openzeppelin/contracts/token/ERC20/extensions/ERC20Permit.sol\":2656:2768  function DOMAIN_SEPARATOR() external view virtual returns (bytes32) {... */\n    tag_50:\n        /* \"@openzeppelin/contracts/token/ERC20/extensions/ERC20Permit.sol\":2715:2722  bytes32 */\n      0x00\n        /* \"@openzeppelin/contracts/token/ERC20/extensions/ERC20Permit.sol\":2741:2761  _domainSeparatorV4() */\n      tag_122\n        /* \"@openzeppelin/contracts/token/ERC20/extensions/ERC20Permit.sol\":2741:2759  _domainSeparatorV4 */\n      tag_123\n        /* \"@openzeppelin/contracts/token/ERC20/extensions/ERC20Permit.sol\":2741:2761  _domainSeparatorV4() */\n      jump\t// in\n    tag_122:\n        /* \"@openzeppelin/contracts/token/ERC20/extensions/ERC20Permit.sol\":2734:2761  return _domainSeparatorV4() */\n      swap1\n      pop\n        /* \"@openzeppelin/contracts/token/ERC20/extensions/ERC20Permit.sol\":2656:2768  function DOMAIN_SEPARATOR() external view virtual returns (bytes32) {... */\n      swap1\n      jump\t// out\n        /* \"contracts/PalToken.sol\":645:708  function unpause() public onlyOwner {... */\n    tag_54:\n        /* \"@openzeppelin/contracts/access/Ownable.sol\":1531:1544  _checkOwner() */\n      tag_125\n        /* \"@openzeppelin/contracts/access/Ownable.sol\":1531:1542  _checkOwner */\n      tag_126\n        /* \"@openzeppelin/contracts/access/Ownable.sol\":1531:1544  _checkOwner() */\n      jump\t// in\n    tag_125:\n        /* \"contracts/PalToken.sol\":691:701  _unpause() */\n      tag_128\n        /* \"contracts/PalToken.sol\":691:699  _unpause */\n      tag_129\n        /* \"contracts/PalToken.sol\":691:701  _unpause() */\n      jump\t// in\n    tag_128:\n        /* \"contracts/PalToken.sol\":645:708  function unpause() public onlyOwner {... */\n      jump\t// out\n        /* \"contracts/PalToken.sol\":714:807  function mint(address to, uint256 amount) public onlyOwner {... */\n    tag_57:\n        /* \"@openzeppelin/contracts/access/Ownable.sol\":1531:1544  _checkOwner() */\n      tag_131\n        /* \"@openzeppelin/contracts/access/Ownable.sol\":1531:1542  _checkOwner */\n      tag_126\n        /* \"@openzeppelin/contracts/access/Ownable.sol\":1531:1544  _checkOwner() */\n      jump\t// in\n    tag_131:\n        /* \"contracts/PalToken.sol\":783:800  _mint(to, amount) */\n      tag_133\n        /* \"contracts/PalToken.sol\":789:791  to */\n      dup3\n        /* \"contracts/PalToken.sol\":793:799  amount */\n      dup3\n        /* \"contracts/PalToken.sol\":783:788  _mint */\n      tag_134\n        /* \"contracts/PalToken.sol\":783:800  _mint(to, amount) */\n      jump\t// in\n    tag_133:\n        /* \"contracts/PalToken.sol\":714:807  function mint(address to, uint256 amount) public onlyOwner {... */\n      pop\n      pop\n      jump\t// out\n        /* \"@openzeppelin/contracts/utils/Pausable.sol\":1850:1934  function paused() public view virtual returns (bool) {... */\n    tag_59:\n        /* \"@openzeppelin/contracts/utils/Pausable.sol\":1897:1901  bool */\n      0x00\n        /* \"@openzeppelin/contracts/utils/Pausable.sol\":1920:1927  _paused */\n      0x05\n      0x00\n      swap1\n      sload\n      swap1\n      0x0100\n      exp\n      swap1\n      div\n      0xff\n      and\n        /* \"@openzeppelin/contracts/utils/Pausable.sol\":1913:1927  return _paused */\n      swap1\n      pop\n        /* \"@openzeppelin/contracts/utils/Pausable.sol\":1850:1934  function paused() public view virtual returns (bool) {... */\n      swap1\n      jump\t// out\n        /* \"@openzeppelin/contracts/token/ERC20/ERC20.sol\":3299:3415  function balanceOf(address account) public view virtual returns (uint256) {... */\n    tag_64:\n        /* \"@openzeppelin/contracts/token/ERC20/ERC20.sol\":3364:3371  uint256 */\n      0x00\n        /* \"@openzeppelin/contracts/token/ERC20/ERC20.sol\":3390:3399  _balances */\n      dup1\n        /* \"@openzeppelin/contracts/token/ERC20/ERC20.sol\":3390:3408  _balances[account] */\n      0x00\n        /* \"@openzeppelin/contracts/token/ERC20/ERC20.sol\":3400:3407  account */\n      dup4\n        /* \"@openzeppelin/contracts/token/ERC20/ERC20.sol\":3390:3408  _balances[account] */\n      0xffffffffffffffffffffffffffffffffffffffff\n      and\n      0xffffffffffffffffffffffffffffffffffffffff\n      and\n      dup2\n      mstore\n      0x20\n      add\n      swap1\n      dup2\n      mstore\n      0x20\n      add\n      0x00\n      keccak256\n      sload\n        /* \"@openzeppelin/contracts/token/ERC20/ERC20.sol\":3383:3408  return _balances[account] */\n      swap1\n      pop\n        /* \"@openzeppelin/contracts/token/ERC20/ERC20.sol\":3299:3415  function balanceOf(address account) public view virtual returns (uint256) {... */\n      swap2\n      swap1\n      pop\n      jump\t// out\n        /* \"@openzeppelin/contracts/access/Ownable.sol\":2293:2394  function renounceOwnership() public virtual onlyOwner {... */\n    tag_67:\n        /* \"@openzeppelin/contracts/access/Ownable.sol\":1531:1544  _checkOwner() */\n      tag_138\n        /* \"@openzeppelin/contracts/access/Ownable.sol\":1531:1542  _checkOwner */\n      tag_126\n        /* \"@openzeppelin/contracts/access/Ownable.sol\":1531:1544  _checkOwner() */\n      jump\t// in\n    tag_138:\n        /* \"@openzeppelin/contracts/access/Ownable.sol\":2357:2387  _transferOwnership(address(0)) */\n      tag_140\n        /* \"@openzeppelin/contracts/access/Ownable.sol\":2384:2385  0 */\n      0x00\n        /* \"@openzeppelin/contracts/access/Ownable.sol\":2357:2375  _transferOwnership */\n      tag_141\n        /* \"@openzeppelin/contracts/access/Ownable.sol\":2357:2387  _transferOwnership(address(0)) */\n      jump\t// in\n    tag_140:\n        /* \"@openzeppelin/contracts/access/Ownable.sol\":2293:2394  function renounceOwnership() public virtual onlyOwner {... */\n      jump\t// out\n        /* \"@openzeppelin/contracts/token/ERC20/extensions/ERC20Permit.sol\":2406:2549  function nonces(address owner) public view virtual override(IERC20Permit, Nonces) returns (uint256) {... */\n    tag_70:\n        /* \"@openzeppelin/contracts/token/ERC20/extensions/ERC20Permit.sol\":2497:2504  uint256 */\n      0x00\n        /* \"@openzeppelin/contracts/token/ERC20/extensions/ERC20Permit.sol\":2523:2542  super.nonces(owner) */\n      tag_143\n        /* \"@openzeppelin/contracts/token/ERC20/extensions/ERC20Permit.sol\":2536:2541  owner */\n      dup3\n        /* \"@openzeppelin/contracts/token/ERC20/extensions/ERC20Permit.sol\":2523:2535  super.nonces */\n      tag_144\n        /* \"@openzeppelin/contracts/token/ERC20/extensions/ERC20Permit.sol\":2523:2542  super.nonces(owner) */\n      jump\t// in\n    tag_143:\n        /* \"@openzeppelin/contracts/token/ERC20/extensions/ERC20Permit.sol\":2516:2542  return super.nonces(owner) */\n      swap1\n      pop\n        /* \"@openzeppelin/contracts/token/ERC20/extensions/ERC20Permit.sol\":2406:2549  function nonces(address owner) public view virtual override(IERC20Permit, Nonces) returns (uint256) {... */\n      swap2\n      swap1\n      pop\n      jump\t// out\n        /* \"contracts/PalToken.sol\":580:639  function pause() public onlyOwner {... */\n    tag_73:\n        /* \"@openzeppelin/contracts/access/Ownable.sol\":1531:1544  _checkOwner() */\n      tag_146\n        /* \"@openzeppelin/contracts/access/Ownable.sol\":1531:1542  _checkOwner */\n      tag_126\n        /* \"@openzeppelin/contracts/access/Ownable.sol\":1531:1544  _checkOwner() */\n      jump\t// in\n    tag_146:\n        /* \"contracts/PalToken.sol\":624:632  _pause() */\n      tag_148\n        /* \"contracts/PalToken.sol\":624:630  _pause */\n      tag_149\n        /* \"contracts/PalToken.sol\":624:632  _pause() */\n      jump\t// in\n    tag_148:\n        /* \"contracts/PalToken.sol\":580:639  function pause() public onlyOwner {... */\n      jump\t// out\n        /* \"@openzeppelin/contracts/utils/cryptography/EIP712.sol\":5144:5701  function eip712Domain()... */\n    tag_75:\n        /* \"@openzeppelin/contracts/utils/cryptography/EIP712.sol\":5242:5255  bytes1 fields */\n      0x00\n        /* \"@openzeppelin/contracts/utils/cryptography/EIP712.sol\":5269:5287  string memory name */\n      0x60\n        /* \"@openzeppelin/contracts/utils/cryptography/EIP712.sol\":5301:5322  string memory version */\n      dup1\n        /* \"@openzeppelin/contracts/utils/cryptography/EIP712.sol\":5336:5351  uint256 chainId */\n      0x00\n        /* \"@openzeppelin/contracts/utils/cryptography/EIP712.sol\":5365:5390  address verifyingContract */\n      dup1\n        /* \"@openzeppelin/contracts/utils/cryptography/EIP712.sol\":5404:5416  bytes32 salt */\n      0x00\n        /* \"@openzeppelin/contracts/utils/cryptography/EIP712.sol\":5430:5457  uint256[] memory extensions */\n      0x60\n        /* \"@openzeppelin/contracts/utils/cryptography/EIP712.sol\":5533:5546  _EIP712Name() */\n      tag_151\n        /* \"@openzeppelin/contracts/utils/cryptography/EIP712.sol\":5533:5544  _EIP712Name */\n      tag_152\n        /* \"@openzeppelin/contracts/utils/cryptography/EIP712.sol\":5533:5546  _EIP712Name() */\n      jump\t// in\n    tag_151:\n        /* \"@openzeppelin/contracts/utils/cryptography/EIP712.sol\":5560:5576  _EIP712Version() */\n      tag_153\n        /* \"@openzeppelin/contracts/utils/cryptography/EIP712.sol\":5560:5574  _EIP712Version */\n      tag_154\n        /* \"@openzeppelin/contracts/utils/cryptography/EIP712.sol\":5560:5576  _EIP712Version() */\n      jump\t// in\n    tag_153:\n        /* \"@openzeppelin/contracts/utils/cryptography/EIP712.sol\":5590:5603  block.chainid */\n      chainid\n        /* \"@openzeppelin/contracts/utils/cryptography/EIP712.sol\":5625:5629  this */\n      address\n        /* \"@openzeppelin/contracts/utils/cryptography/EIP712.sol\":5652:5653  0 */\n      0x00\n        /* \"@openzeppelin/contracts/utils/cryptography/EIP712.sol\":5644:5654  bytes32(0) */\n      dup1\n      shl\n        /* \"@openzeppelin/contracts/utils/cryptography/EIP712.sol\":5682:5683  0 */\n      0x00\n        /* \"@openzeppelin/contracts/utils/cryptography/EIP712.sol\":5668:5684  new uint256[](0) */\n      0xffffffffffffffff\n      dup2\n      gt\n      iszero\n      tag_155\n      jumpi\n      tag_156\n      tag_157\n      jump\t// in\n    tag_156:\n    tag_155:\n      mload(0x40)\n      swap1\n      dup1\n      dup3\n      mstore\n      dup1\n      0x20\n      mul\n      0x20\n      add\n      dup3\n      add\n      0x40\n      mstore\n      dup1\n      iszero\n      tag_158\n      jumpi\n      dup2\n      0x20\n      add\n      0x20\n      dup3\n      mul\n      dup1\n      calldatasize\n      dup4\n      calldatacopy\n      dup1\n      dup3\n      add\n      swap2\n      pop\n      pop\n      swap1\n      pop\n    tag_158:\n      pop\n        /* \"@openzeppelin/contracts/utils/cryptography/EIP712.sol\":5482:5694  return (... */\n      0x0f00000000000000000000000000000000000000000000000000000000000000\n      swap6\n      swap5\n      swap4\n      swap3\n      swap2\n      swap1\n      swap7\n      pop\n      swap7\n      pop\n      swap7\n      pop\n      swap7\n      pop\n      swap7\n      pop\n      swap7\n      pop\n      swap7\n      pop\n        /* \"@openzeppelin/contracts/utils/cryptography/EIP712.sol\":5144:5701  function eip712Domain()... */\n      swap1\n      swap2\n      swap3\n      swap4\n      swap5\n      swap6\n      swap7\n      jump\t// out\n        /* \"@openzeppelin/contracts/access/Ownable.sol\":1638:1723  function owner() public view virtual returns (address) {... */\n    tag_79:\n        /* \"@openzeppelin/contracts/access/Ownable.sol\":1684:1691  address */\n      0x00\n        /* \"@openzeppelin/contracts/access/Ownable.sol\":1710:1716  _owner */\n      0x05\n      0x01\n      swap1\n      sload\n      swap1\n      0x0100\n      exp\n      swap1\n      div\n      0xffffffffffffffffffffffffffffffffffffffff\n      and\n        /* \"@openzeppelin/contracts/access/Ownable.sol\":1703:1716  return _owner */\n      swap1\n      pop\n        /* \"@openzeppelin/contracts/access/Ownable.sol\":1638:1723  function owner() public view virtual returns (address) {... */\n      swap1\n      jump\t// out\n        /* \"@openzeppelin/contracts/token/ERC20/ERC20.sol\":2276:2369  function symbol() public view virtual returns (string memory) {... */\n    tag_83:\n        /* \"@openzeppelin/contracts/token/ERC20/ERC20.sol\":2323:2336  string memory */\n      0x60\n        /* \"@openzeppelin/contracts/token/ERC20/ERC20.sol\":2355:2362  _symbol */\n      0x04\n        /* \"@openzeppelin/contracts/token/ERC20/ERC20.sol\":2348:2362  return _symbol */\n      dup1\n      sload\n      tag_161\n      swap1\n      tag_103\n      jump\t// in\n    tag_161:\n      dup1\n      0x1f\n      add\n      0x20\n      dup1\n      swap2\n      div\n      mul\n      0x20\n      add\n      mload(0x40)\n      swap1\n      dup2\n      add\n      0x40\n      mstore\n      dup1\n      swap3\n      swap2\n      swap1\n      dup2\n      dup2\n      mstore\n      0x20\n      add\n      dup3\n      dup1\n      sload\n      tag_162\n      swap1\n      tag_103\n      jump\t// in\n    tag_162:\n      dup1\n      iszero\n      tag_163\n      jumpi\n      dup1\n      0x1f\n      lt\n      tag_164\n      jumpi\n      0x0100\n      dup1\n      dup4\n      sload\n      div\n      mul\n      dup4\n      mstore\n      swap2\n      0x20\n      add\n      swap2\n      jump(tag_163)\n    tag_164:\n      dup3\n      add\n      swap2\n      swap1\n      0x00\n      mstore\n      keccak256(0x00, 0x20)\n      swap1\n    tag_165:\n      dup2\n      sload\n      dup2\n      mstore\n      swap1\n      0x01\n      add\n      swap1\n      0x20\n      add\n      dup1\n      dup4\n      gt\n      tag_165\n      jumpi\n      dup3\n      swap1\n      sub\n      0x1f\n      and\n      dup3\n      add\n      swap2\n    tag_163:\n      pop\n      pop\n      pop\n      pop\n      pop\n      swap1\n      pop\n        /* \"@openzeppelin/contracts/token/ERC20/ERC20.sol\":2276:2369  function symbol() public view virtual returns (string memory) {... */\n      swap1\n      jump\t// out\n        /* \"@openzeppelin/contracts/token/ERC20/ERC20.sol\":3610:3788  function transfer(address to, uint256 value) public virtual returns (bool) {... */\n    tag_87:\n        /* \"@openzeppelin/contracts/token/ERC20/ERC20.sol\":3679:3683  bool */\n      0x00\n        /* \"@openzeppelin/contracts/token/ERC20/ERC20.sol\":3695:3708  address owner */\n      dup1\n        /* \"@openzeppelin/contracts/token/ERC20/ERC20.sol\":3711:3723  _msgSender() */\n      tag_167\n        /* \"@openzeppelin/contracts/token/ERC20/ERC20.sol\":3711:3721  _msgSender */\n      tag_110\n        /* \"@openzeppelin/contracts/token/ERC20/ERC20.sol\":3711:3723  _msgSender() */\n      jump\t// in\n    tag_167:\n        /* \"@openzeppelin/contracts/token/ERC20/ERC20.sol\":3695:3723  address owner = _msgSender() */\n      swap1\n      pop\n        /* \"@openzeppelin/contracts/token/ERC20/ERC20.sol\":3733:3760  _transfer(owner, to, value) */\n      tag_168\n        /* \"@openzeppelin/contracts/token/ERC20/ERC20.sol\":3743:3748  owner */\n      dup2\n        /* \"@openzeppelin/contracts/token/ERC20/ERC20.sol\":3750:3752  to */\n      dup6\n        /* \"@openzeppelin/contracts/token/ERC20/ERC20.sol\":3754:3759  value */\n      dup6\n        /* \"@openzeppelin/contracts/token/ERC20/ERC20.sol\":3733:3742  _transfer */\n      tag_119\n        /* \"@openzeppelin/contracts/token/ERC20/ERC20.sol\":3733:3760  _transfer(owner, to, value) */\n      jump\t// in\n    tag_168:\n        /* \"@openzeppelin/contracts/token/ERC20/ERC20.sol\":3777:3781  true */\n      0x01\n        /* \"@openzeppelin/contracts/token/ERC20/ERC20.sol\":3770:3781  return true */\n      swap2\n      pop\n      pop\n        /* \"@openzeppelin/contracts/token/ERC20/ERC20.sol\":3610:3788  function transfer(address to, uint256 value) public virtual returns (bool) {... */\n      swap3\n      swap2\n      pop\n      pop\n      jump\t// out\n        /* \"@openzeppelin/contracts/token/ERC20/extensions/ERC20Permit.sol\":1680:2352  function permit(... */\n    tag_92:\n        /* \"@openzeppelin/contracts/token/ERC20/extensions/ERC20Permit.sol\":1901:1909  deadline */\n      dup4\n        /* \"@openzeppelin/contracts/token/ERC20/extensions/ERC20Permit.sol\":1883:1898  block.timestamp */\n      timestamp\n        /* \"@openzeppelin/contracts/token/ERC20/extensions/ERC20Permit.sol\":1883:1909  block.timestamp > deadline */\n      gt\n        /* \"@openzeppelin/contracts/token/ERC20/extensions/ERC20Permit.sol\":1879:1976  if (block.timestamp > deadline) {... */\n      iszero\n      tag_170\n      jumpi\n        /* \"@openzeppelin/contracts/token/ERC20/extensions/ERC20Permit.sol\":1956:1964  deadline */\n      dup4\n        /* \"@openzeppelin/contracts/token/ERC20/extensions/ERC20Permit.sol\":1932:1965  ERC2612ExpiredSignature(deadline) */\n      mload(0x40)\n      0x6279130200000000000000000000000000000000000000000000000000000000\n      dup2\n      mstore\n      0x04\n      add\n      tag_171\n      swap2\n      swap1\n      tag_39\n      jump\t// in\n    tag_171:\n      mload(0x40)\n      dup1\n      swap2\n      sub\n      swap1\n      revert\n        /* \"@openzeppelin/contracts/token/ERC20/extensions/ERC20Permit.sol\":1879:1976  if (block.timestamp > deadline) {... */\n    tag_170:\n        /* \"@openzeppelin/contracts/token/ERC20/extensions/ERC20Permit.sol\":1986:2004  bytes32 structHash */\n      0x00\n        /* \"@openzeppelin/contracts/token/ERC20/extensions/ERC20Permit.sol\":1022:1117  keccak256(\"Permit(address owner,address spender,uint256 value,uint256 nonce,uint256 deadline)\") */\n      0x6e71edae12b1b97f4d1f60370fef10105fa2faae0126114a169c64845d6126c9\n        /* \"@openzeppelin/contracts/token/ERC20/extensions/ERC20Permit.sol\":2045:2050  owner */\n      dup9\n        /* \"@openzeppelin/contracts/token/ERC20/extensions/ERC20Permit.sol\":2052:2059  spender */\n      dup9\n        /* \"@openzeppelin/contracts/token/ERC20/extensions/ERC20Permit.sol\":2061:2066  value */\n      dup9\n        /* \"@openzeppelin/contracts/token/ERC20/extensions/ERC20Permit.sol\":2068:2084  _useNonce(owner) */\n      tag_172\n        /* \"@openzeppelin/contracts/token/ERC20/extensions/ERC20Permit.sol\":2078:2083  owner */\n      dup13\n        /* \"@openzeppelin/contracts/token/ERC20/extensions/ERC20Permit.sol\":2068:2077  _useNonce */\n      tag_173\n        /* \"@openzeppelin/contracts/token/ERC20/extensions/ERC20Permit.sol\":2068:2084  _useNonce(owner) */\n      jump\t// in\n    tag_172:\n        /* \"@openzeppelin/contracts/token/ERC20/extensions/ERC20Permit.sol\":2086:2094  deadline */\n      dup10\n        /* \"@openzeppelin/contracts/token/ERC20/extensions/ERC20Permit.sol\":2017:2095  abi.encode(PERMIT_TYPEHASH, owner, spender, value, _useNonce(owner), deadline) */\n      add(0x20, mload(0x40))\n      tag_174\n      swap7\n      swap6\n      swap5\n      swap4\n      swap3\n      swap2\n      swap1\n      tag_175\n      jump\t// in\n    tag_174:\n      mload(0x40)\n      0x20\n      dup2\n      dup4\n      sub\n      sub\n      dup2\n      mstore\n      swap1\n      0x40\n      mstore\n        /* \"@openzeppelin/contracts/token/ERC20/extensions/ERC20Permit.sol\":2007:2096  keccak256(abi.encode(PERMIT_TYPEHASH, owner, spender, value, _useNonce(owner), deadline)) */\n      dup1\n      mload\n      swap1\n      0x20\n      add\n      keccak256\n        /* \"@openzeppelin/contracts/token/ERC20/extensions/ERC20Permit.sol\":1986:2096  bytes32 structHash = keccak256(abi.encode(PERMIT_TYPEHASH, owner, spender, value, _useNonce(owner), deadline)) */\n      swap1\n      pop\n        /* \"@openzeppelin/contracts/token/ERC20/extensions/ERC20Permit.sol\":2107:2119  bytes32 hash */\n      0x00\n        /* \"@openzeppelin/contracts/token/ERC20/extensions/ERC20Permit.sol\":2122:2150  _hashTypedDataV4(structHash) */\n      tag_176\n        /* \"@openzeppelin/contracts/token/ERC20/extensions/ERC20Permit.sol\":2139:2149  structHash */\n      dup3\n        /* \"@openzeppelin/contracts/token/ERC20/extensions/ERC20Permit.sol\":2122:2138  _hashTypedDataV4 */\n      tag_177\n        /* \"@openzeppelin/contracts/token/ERC20/extensions/ERC20Permit.sol\":2122:2150  _hashTypedDataV4(structHash) */\n      jump\t// in\n    tag_176:\n        /* \"@openzeppelin/contracts/token/ERC20/extensions/ERC20Permit.sol\":2107:2150  bytes32 hash = _hashTypedDataV4(structHash) */\n      swap1\n      pop\n        /* \"@openzeppelin/contracts/token/ERC20/extensions/ERC20Permit.sol\":2161:2175  address signer */\n      0x00\n        /* \"@openzeppelin/contracts/token/ERC20/extensions/ERC20Permit.sol\":2178:2206  ECDSA.recover(hash, v, r, s) */\n      tag_178\n        /* \"@openzeppelin/contracts/token/ERC20/extensions/ERC20Permit.sol\":2192:2196  hash */\n      dup3\n        /* \"@openzeppelin/contracts/token/ERC20/extensions/ERC20Permit.sol\":2198:2199  v */\n      dup8\n        /* \"@openzeppelin/contracts/token/ERC20/extensions/ERC20Permit.sol\":2201:2202  r */\n      dup8\n        /* \"@openzeppelin/contracts/token/ERC20/extensions/ERC20Permit.sol\":2204:2205  s */\n      dup8\n        /* \"@openzeppelin/contracts/token/ERC20/extensions/ERC20Permit.sol\":2178:2191  ECDSA.recover */\n      tag_179\n        /* \"@openzeppelin/contracts/token/ERC20/extensions/ERC20Permit.sol\":2178:2206  ECDSA.recover(hash, v, r, s) */\n      jump\t// in\n    tag_178:\n        /* \"@openzeppelin/contracts/token/ERC20/extensions/ERC20Permit.sol\":2161:2206  address signer = ECDSA.recover(hash, v, r, s) */\n      swap1\n      pop\n        /* \"@openzeppelin/contracts/token/ERC20/extensions/ERC20Permit.sol\":2230:2235  owner */\n      dup10\n        /* \"@openzeppelin/contracts/token/ERC20/extensions/ERC20Permit.sol\":2220:2235  signer != owner */\n      0xffffffffffffffffffffffffffffffffffffffff\n      and\n        /* \"@openzeppelin/contracts/token/ERC20/extensions/ERC20Permit.sol\":2220:2226  signer */\n      dup2\n        /* \"@openzeppelin/contracts/token/ERC20/extensions/ERC20Permit.sol\":2220:2235  signer != owner */\n      0xffffffffffffffffffffffffffffffffffffffff\n      and\n      eq\n        /* \"@openzeppelin/contracts/token/ERC20/extensions/ERC20Permit.sol\":2216:2304  if (signer != owner) {... */\n      tag_180\n      jumpi\n        /* \"@openzeppelin/contracts/token/ERC20/extensions/ERC20Permit.sol\":2279:2285  signer */\n      dup1\n        /* \"@openzeppelin/contracts/token/ERC20/extensions/ERC20Permit.sol\":2287:2292  owner */\n      dup11\n        /* \"@openzeppelin/contracts/token/ERC20/extensions/ERC20Permit.sol\":2258:2293  ERC2612InvalidSigner(signer, owner) */\n      mload(0x40)\n      0x4b800e4600000000000000000000000000000000000000000000000000000000\n      dup2\n      mstore\n      0x04\n      add\n      tag_181\n      swap3\n      swap2\n      swap1\n      tag_182\n      jump\t// in\n    tag_181:\n      mload(0x40)\n      dup1\n      swap2\n      sub\n      swap1\n      revert\n        /* \"@openzeppelin/contracts/token/ERC20/extensions/ERC20Permit.sol\":2216:2304  if (signer != owner) {... */\n    tag_180:\n        /* \"@openzeppelin/contracts/token/ERC20/extensions/ERC20Permit.sol\":2314:2345  _approve(owner, spender, value) */\n      tag_183\n        /* \"@openzeppelin/contracts/token/ERC20/extensions/ERC20Permit.sol\":2323:2328  owner */\n      dup11\n        /* \"@openzeppelin/contracts/token/ERC20/extensions/ERC20Permit.sol\":2330:2337  spender */\n      dup11\n        /* \"@openzeppelin/contracts/token/ERC20/extensions/ERC20Permit.sol\":2339:2344  value */\n      dup11\n        /* \"@openzeppelin/contracts/token/ERC20/extensions/ERC20Permit.sol\":2314:2322  _approve */\n      tag_112\n        /* \"@openzeppelin/contracts/token/ERC20/extensions/ERC20Permit.sol\":2314:2345  _approve(owner, spender, value) */\n      jump\t// in\n    tag_183:\n        /* \"@openzeppelin/contracts/token/ERC20/extensions/ERC20Permit.sol\":1869:2352  {... */\n      pop\n      pop\n      pop\n        /* \"@openzeppelin/contracts/token/ERC20/extensions/ERC20Permit.sol\":1680:2352  function permit(... */\n      pop\n      pop\n      pop\n      pop\n      pop\n      pop\n      pop\n      jump\t// out\n        /* \"@openzeppelin/contracts/token/ERC20/ERC20.sol\":3846:3986  function allowance(address owner, address spender) public view virtual returns (uint256) {... */\n    tag_96:\n        /* \"@openzeppelin/contracts/token/ERC20/ERC20.sol\":3926:3933  uint256 */\n      0x00\n        /* \"@openzeppelin/contracts/token/ERC20/ERC20.sol\":3952:3963  _allowances */\n      0x01\n        /* \"@openzeppelin/contracts/token/ERC20/ERC20.sol\":3952:3970  _allowances[owner] */\n      0x00\n        /* \"@openzeppelin/contracts/token/ERC20/ERC20.sol\":3964:3969  owner */\n      dup5\n        /* \"@openzeppelin/contracts/token/ERC20/ERC20.sol\":3952:3970  _allowances[owner] */\n      0xffffffffffffffffffffffffffffffffffffffff\n      and\n      0xffffffffffffffffffffffffffffffffffffffff\n      and\n      dup2\n      mstore\n      0x20\n      add\n      swap1\n      dup2\n      mstore\n      0x20\n      add\n      0x00\n      keccak256\n        /* \"@openzeppelin/contracts/token/ERC20/ERC20.sol\":3952:3979  _allowances[owner][spender] */\n      0x00\n        /* \"@openzeppelin/contracts/token/ERC20/ERC20.sol\":3971:3978  spender */\n      dup4\n        /* \"@openzeppelin/contracts/token/ERC20/ERC20.sol\":3952:3979  _allowances[owner][spender] */\n      0xffffffffffffffffffffffffffffffffffffffff\n      and\n      0xffffffffffffffffffffffffffffffffffffffff\n      and\n      dup2\n      mstore\n      0x20\n      add\n      swap1\n      dup2\n      mstore\n      0x20\n      add\n      0x00\n      keccak256\n      sload\n        /* \"@openzeppelin/contracts/token/ERC20/ERC20.sol\":3945:3979  return _allowances[owner][spender] */\n      swap1\n      pop\n        /* \"@openzeppelin/contracts/token/ERC20/ERC20.sol\":3846:3986  function allowance(address owner, address spender) public view virtual returns (uint256) {... */\n      swap3\n      swap2\n      pop\n      pop\n      jump\t// out\n        /* \"@openzeppelin/contracts/access/Ownable.sol\":2543:2758  function transferOwnership(address newOwner) public virtual onlyOwner {... */\n    tag_100:\n        /* \"@openzeppelin/contracts/access/Ownable.sol\":1531:1544  _checkOwner() */\n      tag_186\n        /* \"@openzeppelin/contracts/access/Ownable.sol\":1531:1542  _checkOwner */\n      tag_126\n        /* \"@openzeppelin/contracts/access/Ownable.sol\":1531:1544  _checkOwner() */\n      jump\t// in\n    tag_186:\n        /* \"@openzeppelin/contracts/access/Ownable.sol\":2647:2648  0 */\n      0x00\n        /* \"@openzeppelin/contracts/access/Ownable.sol\":2627:2649  newOwner == address(0) */\n      0xffffffffffffffffffffffffffffffffffffffff\n      and\n        /* \"@openzeppelin/contracts/access/Ownable.sol\":2627:2635  newOwner */\n      dup2\n        /* \"@openzeppelin/contracts/access/Ownable.sol\":2627:2649  newOwner == address(0) */\n      0xffffffffffffffffffffffffffffffffffffffff\n      and\n      sub\n        /* \"@openzeppelin/contracts/access/Ownable.sol\":2623:2714  if (newOwner == address(0)) {... */\n      tag_188\n      jumpi\n        /* \"@openzeppelin/contracts/access/Ownable.sol\":2700:2701  0 */\n      0x00\n        /* \"@openzeppelin/contracts/access/Ownable.sol\":2672:2703  OwnableInvalidOwner(address(0)) */\n      mload(0x40)\n      0x1e4fbdf700000000000000000000000000000000000000000000000000000000\n      dup2\n      mstore\n      0x04\n      add\n      tag_189\n      swap2\n      swap1\n      tag_81\n      jump\t// in\n    tag_189:\n      mload(0x40)\n      dup1\n      swap2\n      sub\n      swap1\n      revert\n        /* \"@openzeppelin/contracts/access/Ownable.sol\":2623:2714  if (newOwner == address(0)) {... */\n    tag_188:\n        /* \"@openzeppelin/contracts/access/Ownable.sol\":2723:2751  _transferOwnership(newOwner) */\n      tag_190\n        /* \"@openzeppelin/contracts/access/Ownable.sol\":2742:2750  newOwner */\n      dup2\n        /* \"@openzeppelin/contracts/access/Ownable.sol\":2723:2741  _transferOwnership */\n      tag_141\n        /* \"@openzeppelin/contracts/access/Ownable.sol\":2723:2751  _transferOwnership(newOwner) */\n      jump\t// in\n    tag_190:\n        /* \"@openzeppelin/contracts/access/Ownable.sol\":2543:2758  function transferOwnership(address newOwner) public virtual onlyOwner {... */\n      pop\n      jump\t// out\n        /* \"@openzeppelin/contracts/utils/Context.sol\":656:752  function _msgSender() internal view virtual returns (address) {... */\n    tag_110:\n        /* \"@openzeppelin/contracts/utils/Context.sol\":709:716  address */\n      0x00\n        /* \"@openzeppelin/contracts/utils/Context.sol\":735:745  msg.sender */\n      caller\n        /* \"@openzeppelin/contracts/utils/Context.sol\":728:745  return msg.sender */\n      swap1\n      pop\n        /* \"@openzeppelin/contracts/utils/Context.sol\":656:752  function _msgSender() internal view virtual returns (address) {... */\n      swap1\n      jump\t// out\n        /* \"@openzeppelin/contracts/token/ERC20/ERC20.sol\":8989:9117  function _approve(address owner, address spender, uint256 value) internal {... */\n    tag_112:\n        /* \"@openzeppelin/contracts/token/ERC20/ERC20.sol\":9073:9110  _approve(owner, spender, value, true) */\n      tag_193\n        /* \"@openzeppelin/contracts/token/ERC20/ERC20.sol\":9082:9087  owner */\n      dup4\n        /* \"@openzeppelin/contracts/token/ERC20/ERC20.sol\":9089:9096  spender */\n      dup4\n        /* \"@openzeppelin/contracts/token/ERC20/ERC20.sol\":9098:9103  value */\n      dup4\n        /* \"@openzeppelin/contracts/token/ERC20/ERC20.sol\":9105:9109  true */\n      0x01\n        /* \"@openzeppelin/contracts/token/ERC20/ERC20.sol\":9073:9081  _approve */\n      tag_194\n        /* \"@openzeppelin/contracts/token/ERC20/ERC20.sol\":9073:9110  _approve(owner, spender, value, true) */\n      jump\t// in\n    tag_193:\n        /* \"@openzeppelin/contracts/token/ERC20/ERC20.sol\":8989:9117  function _approve(address owner, address spender, uint256 value) internal {... */\n      pop\n      pop\n      pop\n      jump\t// out\n        /* \"@openzeppelin/contracts/token/ERC20/ERC20.sol\":10663:11140  function _spendAllowance(address owner, address spender, uint256 value) internal virtual {... */\n    tag_117:\n        /* \"@openzeppelin/contracts/token/ERC20/ERC20.sol\":10762:10786  uint256 currentAllowance */\n      0x00\n        /* \"@openzeppelin/contracts/token/ERC20/ERC20.sol\":10789:10814  allowance(owner, spender) */\n      tag_196\n        /* \"@openzeppelin/contracts/token/ERC20/ERC20.sol\":10799:10804  owner */\n      dup5\n        /* \"@openzeppelin/contracts/token/ERC20/ERC20.sol\":10806:10813  spender */\n      dup5\n        /* \"@openzeppelin/contracts/token/ERC20/ERC20.sol\":10789:10798  allowance */\n      tag_96\n        /* \"@openzeppelin/contracts/token/ERC20/ERC20.sol\":10789:10814  allowance(owner, spender) */\n      jump\t// in\n    tag_196:\n        /* \"@openzeppelin/contracts/token/ERC20/ERC20.sol\":10762:10814  uint256 currentAllowance = allowance(owner, spender) */\n      swap1\n      pop\n        /* \"@openzeppelin/contracts/token/ERC20/ERC20.sol\":10848:10865  type(uint256).max */\n      0xffffffffffffffffffffffffffffffffffffffffffffffffffffffffffffffff\n        /* \"@openzeppelin/contracts/token/ERC20/ERC20.sol\":10828:10844  currentAllowance */\n      dup2\n        /* \"@openzeppelin/contracts/token/ERC20/ERC20.sol\":10828:10865  currentAllowance != type(uint256).max */\n      eq\n        /* \"@openzeppelin/contracts/token/ERC20/ERC20.sol\":10824:11134  if (currentAllowance != type(uint256).max) {... */\n      tag_197\n      jumpi\n        /* \"@openzeppelin/contracts/token/ERC20/ERC20.sol\":10904:10909  value */\n      dup2\n        /* \"@openzeppelin/contracts/token/ERC20/ERC20.sol\":10885:10901  currentAllowance */\n      dup2\n        /* \"@openzeppelin/contracts/token/ERC20/ERC20.sol\":10885:10909  currentAllowance < value */\n      lt\n        /* \"@openzeppelin/contracts/token/ERC20/ERC20.sol\":10881:11011  if (currentAllowance < value) {... */\n      iszero\n      tag_198\n      jumpi\n        /* \"@openzeppelin/contracts/token/ERC20/ERC20.sol\":10963:10970  spender */\n      dup3\n        /* \"@openzeppelin/contracts/token/ERC20/ERC20.sol\":10972:10988  currentAllowance */\n      dup2\n        /* \"@openzeppelin/contracts/token/ERC20/ERC20.sol\":10990:10995  value */\n      dup4\n        /* \"@openzeppelin/contracts/token/ERC20/ERC20.sol\":10936:10996  ERC20InsufficientAllowance(spender, currentAllowance, value) */\n      mload(0x40)\n      0xfb8f41b200000000000000000000000000000000000000000000000000000000\n      dup2\n      mstore\n      0x04\n      add\n      tag_199\n      swap4\n      swap3\n      swap2\n      swap1\n      tag_200\n      jump\t// in\n    tag_199:\n      mload(0x40)\n      dup1\n      swap2\n      sub\n      swap1\n      revert\n        /* \"@openzeppelin/contracts/token/ERC20/ERC20.sol\":10881:11011  if (currentAllowance < value) {... */\n    tag_198:\n        /* \"@openzeppelin/contracts/token/ERC20/ERC20.sol\":11052:11109  _approve(owner, spender, currentAllowance - value, false) */\n      tag_201\n        /* \"@openzeppelin/contracts/token/ERC20/ERC20.sol\":11061:11066  owner */\n      dup5\n        /* \"@openzeppelin/contracts/token/ERC20/ERC20.sol\":11068:11075  spender */\n      dup5\n        /* \"@openzeppelin/contracts/token/ERC20/ERC20.sol\":11096:11101  value */\n      dup5\n        /* \"@openzeppelin/contracts/token/ERC20/ERC20.sol\":11077:11093  currentAllowance */\n      dup5\n        /* \"@openzeppelin/contracts/token/ERC20/ERC20.sol\":11077:11101  currentAllowance - value */\n      sub\n        /* \"@openzeppelin/contracts/token/ERC20/ERC20.sol\":11103:11108  false */\n      0x00\n        /* \"@openzeppelin/contracts/token/ERC20/ERC20.sol\":11052:11060  _approve */\n      tag_194\n        /* \"@openzeppelin/contracts/token/ERC20/ERC20.sol\":11052:11109  _approve(owner, spender, currentAllowance - value, false) */\n      jump\t// in\n    tag_201:\n        /* \"@openzeppelin/contracts/token/ERC20/ERC20.sol\":10824:11134  if (currentAllowance != type(uint256).max) {... */\n    tag_197:\n        /* \"@openzeppelin/contracts/token/ERC20/ERC20.sol\":10752:11140  {... */\n      pop\n        /* \"@openzeppelin/contracts/token/ERC20/ERC20.sol\":10663:11140  function _spendAllowance(address owner, address spender, uint256 value) internal virtual {... */\n      pop\n      pop\n      pop\n      jump\t// out\n        /* \"@openzeppelin/contracts/token/ERC20/ERC20.sol\":5656:5956  function _transfer(address from, address to, uint256 value) internal {... */\n    tag_119:\n        /* \"@openzeppelin/contracts/token/ERC20/ERC20.sol\":5755:5756  0 */\n      0x00\n        /* \"@openzeppelin/contracts/token/ERC20/ERC20.sol\":5739:5757  from == address(0) */\n      0xffffffffffffffffffffffffffffffffffffffff\n      and\n        /* \"@openzeppelin/contracts/token/ERC20/ERC20.sol\":5739:5743  from */\n      dup4\n        /* \"@openzeppelin/contracts/token/ERC20/ERC20.sol\":5739:5757  from == address(0) */\n      0xffffffffffffffffffffffffffffffffffffffff\n      and\n      sub\n        /* \"@openzeppelin/contracts/token/ERC20/ERC20.sol\":5735:5821  if (from == address(0)) {... */\n      tag_203\n      jumpi\n        /* \"@openzeppelin/contracts/token/ERC20/ERC20.sol\":5807:5808  0 */\n      0x00\n        /* \"@openzeppelin/contracts/token/ERC20/ERC20.sol\":5780:5810  ERC20InvalidSender(address(0)) */\n      mload(0x40)\n      0x96c6fd1e00000000000000000000000000000000000000000000000000000000\n      dup2\n      mstore\n      0x04\n      add\n      tag_204\n      swap2\n      swap1\n      tag_81\n      jump\t// in\n    tag_204:\n      mload(0x40)\n      dup1\n      swap2\n      sub\n      swap1\n      revert\n        /* \"@openzeppelin/contracts/token/ERC20/ERC20.sol\":5735:5821  if (from == address(0)) {... */\n    tag_203:\n        /* \"@openzeppelin/contracts/token/ERC20/ERC20.sol\":5848:5849  0 */\n      0x00\n        /* \"@openzeppelin/contracts/token/ERC20/ERC20.sol\":5834:5850  to == address(0) */\n      0xffffffffffffffffffffffffffffffffffffffff\n      and\n        /* \"@openzeppelin/contracts/token/ERC20/ERC20.sol\":5834:5836  to */\n      dup3\n        /* \"@openzeppelin/contracts/token/ERC20/ERC20.sol\":5834:5850  to == address(0) */\n      0xffffffffffffffffffffffffffffffffffffffff\n      and\n      sub\n        /* \"@openzeppelin/contracts/token/ERC20/ERC20.sol\":5830:5916  if (to == address(0)) {... */\n      tag_205\n      jumpi\n        /* \"@openzeppelin/contracts/token/ERC20/ERC20.sol\":5902:5903  0 */\n      0x00\n        /* \"@openzeppelin/contracts/token/ERC20/ERC20.sol\":5873:5905  ERC20InvalidReceiver(address(0)) */\n      mload(0x40)\n      0xec442f0500000000000000000000000000000000000000000000000000000000\n      dup2\n      mstore\n      0x04\n      add\n      tag_206\n      swap2\n      swap1\n      tag_81\n      jump\t// in\n    tag_206:\n      mload(0x40)\n      dup1\n      swap2\n      sub\n      swap1\n      revert\n        /* \"@openzeppelin/contracts/token/ERC20/ERC20.sol\":5830:5916  if (to == address(0)) {... */\n    tag_205:\n        /* \"@openzeppelin/contracts/token/ERC20/ERC20.sol\":5925:5949  _update(from, to, value) */\n      tag_207\n        /* \"@openzeppelin/contracts/token/ERC20/ERC20.sol\":5933:5937  from */\n      dup4\n        /* \"@openzeppelin/contracts/token/ERC20/ERC20.sol\":5939:5941  to */\n      dup4\n        /* \"@openzeppelin/contracts/token/ERC20/ERC20.sol\":5943:5948  value */\n      dup4\n        /* \"@openzeppelin/contracts/token/ERC20/ERC20.sol\":5925:5932  _update */\n      tag_208\n        /* \"@openzeppelin/contracts/token/ERC20/ERC20.sol\":5925:5949  _update(from, to, value) */\n      jump\t// in\n    tag_207:\n        /* \"@openzeppelin/contracts/token/ERC20/ERC20.sol\":5656:5956  function _transfer(address from, address to, uint256 value) internal {... */\n      pop\n      pop\n      pop\n      jump\t// out\n        /* \"@openzeppelin/contracts/utils/cryptography/EIP712.sol\":3845:4107  function _domainSeparatorV4() internal view returns (bytes32) {... */\n    tag_123:\n        /* \"@openzeppelin/contracts/utils/cryptography/EIP712.sol\":3898:3905  bytes32 */\n      0x00\n        /* \"@openzeppelin/contracts/utils/cryptography/EIP712.sol\":3938:3949  _cachedThis */\n      immutable(\"0xd263227ffbaf7b91a92497c6eb65c453edc9c5358213554d060ed95723c3f7bc\")\n        /* \"@openzeppelin/contracts/utils/cryptography/EIP712.sol\":3921:3949  address(this) == _cachedThis */\n      0xffffffffffffffffffffffffffffffffffffffff\n      and\n        /* \"@openzeppelin/contracts/utils/cryptography/EIP712.sol\":3929:3933  this */\n      address\n        /* \"@openzeppelin/contracts/utils/cryptography/EIP712.sol\":3921:3949  address(this) == _cachedThis */\n      0xffffffffffffffffffffffffffffffffffffffff\n      and\n      eq\n        /* \"@openzeppelin/contracts/utils/cryptography/EIP712.sol\":3921:3984  address(this) == _cachedThis && block.chainid == _cachedChainId */\n      dup1\n      iszero\n      tag_210\n      jumpi\n      pop\n        /* \"@openzeppelin/contracts/utils/cryptography/EIP712.sol\":3970:3984  _cachedChainId */\n      immutable(\"0xd70d0cf38150f657ec865f17021fc339b11a33e2b797e60de4b866ae0bf147f7\")\n        /* \"@openzeppelin/contracts/utils/cryptography/EIP712.sol\":3953:3966  block.chainid */\n      chainid\n        /* \"@openzeppelin/contracts/utils/cryptography/EIP712.sol\":3953:3984  block.chainid == _cachedChainId */\n      eq\n        /* \"@openzeppelin/contracts/utils/cryptography/EIP712.sol\":3921:3984  address(this) == _cachedThis && block.chainid == _cachedChainId */\n    tag_210:\n        /* \"@openzeppelin/contracts/utils/cryptography/EIP712.sol\":3917:4101  if (address(this) == _cachedThis && block.chainid == _cachedChainId) {... */\n      iszero\n      tag_211\n      jumpi\n        /* \"@openzeppelin/contracts/utils/cryptography/EIP712.sol\":4007:4029  _cachedDomainSeparator */\n      immutable(\"0xa5cf380b0fdf8a4fa311ecc512aa2c0798fd0dee2c0937be01788e654bba72d8\")\n        /* \"@openzeppelin/contracts/utils/cryptography/EIP712.sol\":4000:4029  return _cachedDomainSeparator */\n      swap1\n      pop\n      jump(tag_209)\n        /* \"@openzeppelin/contracts/utils/cryptography/EIP712.sol\":3917:4101  if (address(this) == _cachedThis && block.chainid == _cachedChainId) {... */\n    tag_211:\n        /* \"@openzeppelin/contracts/utils/cryptography/EIP712.sol\":4067:4090  _buildDomainSeparator() */\n      tag_213\n        /* \"@openzeppelin/contracts/utils/cryptography/EIP712.sol\":4067:4088  _buildDomainSeparator */\n      tag_214\n        /* \"@openzeppelin/contracts/utils/cryptography/EIP712.sol\":4067:4090  _buildDomainSeparator() */\n      jump\t// in\n    tag_213:\n        /* \"@openzeppelin/contracts/utils/cryptography/EIP712.sol\":4060:4090  return _buildDomainSeparator() */\n      swap1\n      pop\n        /* \"@openzeppelin/contracts/utils/cryptography/EIP712.sol\":3845:4107  function _domainSeparatorV4() internal view returns (bytes32) {... */\n    tag_209:\n      swap1\n      jump\t// out\n        /* \"@openzeppelin/contracts/access/Ownable.sol\":1796:1958  function _checkOwner() internal view virtual {... */\n    tag_126:\n        /* \"@openzeppelin/contracts/access/Ownable.sol\":1866:1878  _msgSender() */\n      tag_216\n        /* \"@openzeppelin/contracts/access/Ownable.sol\":1866:1876  _msgSender */\n      tag_110\n        /* \"@openzeppelin/contracts/access/Ownable.sol\":1866:1878  _msgSender() */\n      jump\t// in\n    tag_216:\n        /* \"@openzeppelin/contracts/access/Ownable.sol\":1855:1878  owner() != _msgSender() */\n      0xffffffffffffffffffffffffffffffffffffffff\n      and\n        /* \"@openzeppelin/contracts/access/Ownable.sol\":1855:1862  owner() */\n      tag_217\n        /* \"@openzeppelin/contracts/access/Ownable.sol\":1855:1860  owner */\n      tag_79\n        /* \"@openzeppelin/contracts/access/Ownable.sol\":1855:1862  owner() */\n      jump\t// in\n    tag_217:\n        /* \"@openzeppelin/contracts/access/Ownable.sol\":1855:1878  owner() != _msgSender() */\n      0xffffffffffffffffffffffffffffffffffffffff\n      and\n      eq\n        /* \"@openzeppelin/contracts/access/Ownable.sol\":1851:1952  if (owner() != _msgSender()) {... */\n      tag_218\n      jumpi\n        /* \"@openzeppelin/contracts/access/Ownable.sol\":1928:1940  _msgSender() */\n      tag_219\n        /* \"@openzeppelin/contracts/access/Ownable.sol\":1928:1938  _msgSender */\n      tag_110\n        /* \"@openzeppelin/contracts/access/Ownable.sol\":1928:1940  _msgSender() */\n      jump\t// in\n    tag_219:\n        /* \"@openzeppelin/contracts/access/Ownable.sol\":1901:1941  OwnableUnauthorizedAccount(_msgSender()) */\n      mload(0x40)\n      0x118cdaa700000000000000000000000000000000000000000000000000000000\n      dup2\n      mstore\n      0x04\n      add\n      tag_220\n      swap2\n      swap1\n      tag_81\n      jump\t// in\n    tag_220:\n      mload(0x40)\n      dup1\n      swap2\n      sub\n      swap1\n      revert\n        /* \"@openzeppelin/contracts/access/Ownable.sol\":1851:1952  if (owner() != _msgSender()) {... */\n    tag_218:\n        /* \"@openzeppelin/contracts/access/Ownable.sol\":1796:1958  function _checkOwner() internal view virtual {... */\n      jump\t// out\n        /* \"@openzeppelin/contracts/utils/Pausable.sol\":2710:2827  function _unpause() internal virtual whenPaused {... */\n    tag_129:\n        /* \"@openzeppelin/contracts/utils/Pausable.sol\":1721:1737  _requirePaused() */\n      tag_222\n        /* \"@openzeppelin/contracts/utils/Pausable.sol\":1721:1735  _requirePaused */\n      tag_223\n        /* \"@openzeppelin/contracts/utils/Pausable.sol\":1721:1737  _requirePaused() */\n      jump\t// in\n    tag_222:\n        /* \"@openzeppelin/contracts/utils/Pausable.sol\":2778:2783  false */\n      0x00\n        /* \"@openzeppelin/contracts/utils/Pausable.sol\":2768:2775  _paused */\n      0x05\n      0x00\n        /* \"@openzeppelin/contracts/utils/Pausable.sol\":2768:2783  _paused = false */\n      0x0100\n      exp\n      dup2\n      sload\n      dup2\n      0xff\n      mul\n      not\n      and\n      swap1\n      dup4\n      iszero\n      iszero\n      mul\n      or\n      swap1\n      sstore\n      pop\n        /* \"@openzeppelin/contracts/utils/Pausable.sol\":2798:2820  Unpaused(_msgSender()) */\n      0x5db9ee0a495bf2e6ff9c91a7834c1ba4fdd244a5e8aa4e537bd38aeae4b073aa\n        /* \"@openzeppelin/contracts/utils/Pausable.sol\":2807:2819  _msgSender() */\n      tag_225\n        /* \"@openzeppelin/contracts/utils/Pausable.sol\":2807:2817  _msgSender */\n      tag_110\n        /* \"@openzeppelin/contracts/utils/Pausable.sol\":2807:2819  _msgSender() */\n      jump\t// in\n    tag_225:\n        /* \"@openzeppelin/contracts/utils/Pausable.sol\":2798:2820  Unpaused(_msgSender()) */\n      mload(0x40)\n      tag_226\n      swap2\n      swap1\n      tag_81\n      jump\t// in\n    tag_226:\n      mload(0x40)\n      dup1\n      swap2\n      sub\n      swap1\n      log1\n        /* \"@openzeppelin/contracts/utils/Pausable.sol\":2710:2827  function _unpause() internal virtual whenPaused {... */\n      jump\t// out\n        /* \"@openzeppelin/contracts/token/ERC20/ERC20.sol\":7721:7929  function _mint(address account, uint256 value) internal {... */\n    tag_134:\n        /* \"@openzeppelin/contracts/token/ERC20/ERC20.sol\":7810:7811  0 */\n      0x00\n        /* \"@openzeppelin/contracts/token/ERC20/ERC20.sol\":7791:7812  account == address(0) */\n      0xffffffffffffffffffffffffffffffffffffffff\n      and\n        /* \"@openzeppelin/contracts/token/ERC20/ERC20.sol\":7791:7798  account */\n      dup3\n        /* \"@openzeppelin/contracts/token/ERC20/ERC20.sol\":7791:7812  account == address(0) */\n      0xffffffffffffffffffffffffffffffffffffffff\n      and\n      sub\n        /* \"@openzeppelin/contracts/token/ERC20/ERC20.sol\":7787:7878  if (account == address(0)) {... */\n      tag_228\n      jumpi\n        /* \"@openzeppelin/contracts/token/ERC20/ERC20.sol\":7864:7865  0 */\n      0x00\n        /* \"@openzeppelin/contracts/token/ERC20/ERC20.sol\":7835:7867  ERC20InvalidReceiver(address(0)) */\n      mload(0x40)\n      0xec442f0500000000000000000000000000000000000000000000000000000000\n      dup2\n      mstore\n      0x04\n      add\n      tag_229\n      swap2\n      swap1\n      tag_81\n      jump\t// in\n    tag_229:\n      mload(0x40)\n      dup1\n      swap2\n      sub\n      swap1\n      revert\n        /* \"@openzeppelin/contracts/token/ERC20/ERC20.sol\":7787:7878  if (account == address(0)) {... */\n    tag_228:\n        /* \"@openzeppelin/contracts/token/ERC20/ERC20.sol\":7887:7922  _update(address(0), account, value) */\n      tag_230\n        /* \"@openzeppelin/contracts/token/ERC20/ERC20.sol\":7903:7904  0 */\n      0x00\n        /* \"@openzeppelin/contracts/token/ERC20/ERC20.sol\":7907:7914  account */\n      dup4\n        /* \"@openzeppelin/contracts/token/ERC20/ERC20.sol\":7916:7921  value */\n      dup4\n        /* \"@openzeppelin/contracts/token/ERC20/ERC20.sol\":7887:7894  _update */\n      tag_208\n        /* \"@openzeppelin/contracts/token/ERC20/ERC20.sol\":7887:7922  _update(address(0), account, value) */\n      jump\t// in\n    tag_230:\n        /* \"@openzeppelin/contracts/token/ERC20/ERC20.sol\":7721:7929  function _mint(address account, uint256 value) internal {... */\n      pop\n      pop\n      jump\t// out\n        /* \"@openzeppelin/contracts/access/Ownable.sol\":2912:3099  function _transferOwnership(address newOwner) internal virtual {... */\n    tag_141:\n        /* \"@openzeppelin/contracts/access/Ownable.sol\":2985:3001  address oldOwner */\n      0x00\n        /* \"@openzeppelin/contracts/access/Ownable.sol\":3004:3010  _owner */\n      0x05\n      0x01\n      swap1\n      sload\n      swap1\n      0x0100\n      exp\n      swap1\n      div\n      0xffffffffffffffffffffffffffffffffffffffff\n      and\n        /* \"@openzeppelin/contracts/access/Ownable.sol\":2985:3010  address oldOwner = _owner */\n      swap1\n      pop\n        /* \"@openzeppelin/contracts/access/Ownable.sol\":3029:3037  newOwner */\n      dup2\n        /* \"@openzeppelin/contracts/access/Ownable.sol\":3020:3026  _owner */\n      0x05\n      0x01\n        /* \"@openzeppelin/contracts/access/Ownable.sol\":3020:3037  _owner = newOwner */\n      0x0100\n      exp\n      dup2\n      sload\n      dup2\n      0xffffffffffffffffffffffffffffffffffffffff\n      mul\n      not\n      and\n      swap1\n      dup4\n      0xffffffffffffffffffffffffffffffffffffffff\n      and\n      mul\n      or\n      swap1\n      sstore\n      pop\n        /* \"@openzeppelin/contracts/access/Ownable.sol\":3083:3091  newOwner */\n      dup2\n        /* \"@openzeppelin/contracts/access/Ownable.sol\":3052:3092  OwnershipTransferred(oldOwner, newOwner) */\n      0xffffffffffffffffffffffffffffffffffffffff\n      and\n        /* \"@openzeppelin/contracts/access/Ownable.sol\":3073:3081  oldOwner */\n      dup2\n        /* \"@openzeppelin/contracts/access/Ownable.sol\":3052:3092  OwnershipTransferred(oldOwner, newOwner) */\n      0xffffffffffffffffffffffffffffffffffffffff\n      and\n      0x8be0079c531659141344cd1fd0a4f28419497f9722a3daafe3b4186f6b6457e0\n      mload(0x40)\n      mload(0x40)\n      dup1\n      swap2\n      sub\n      swap1\n      log3\n        /* \"@openzeppelin/contracts/access/Ownable.sol\":2975:3099  {... */\n      pop\n        /* \"@openzeppelin/contracts/access/Ownable.sol\":2912:3099  function _transferOwnership(address newOwner) internal virtual {... */\n      pop\n      jump\t// out\n        /* \"@openzeppelin/contracts/utils/Nonces.sol\":538:645  function nonces(address owner) public view virtual returns (uint256) {... */\n    tag_144:\n        /* \"@openzeppelin/contracts/utils/Nonces.sol\":598:605  uint256 */\n      0x00\n        /* \"@openzeppelin/contracts/utils/Nonces.sol\":624:631  _nonces */\n      0x08\n        /* \"@openzeppelin/contracts/utils/Nonces.sol\":624:638  _nonces[owner] */\n      0x00\n        /* \"@openzeppelin/contracts/utils/Nonces.sol\":632:637  owner */\n      dup4\n        /* \"@openzeppelin/contracts/utils/Nonces.sol\":624:638  _nonces[owner] */\n      0xffffffffffffffffffffffffffffffffffffffff\n      and\n      0xffffffffffffffffffffffffffffffffffffffff\n      and\n      dup2\n      mstore\n      0x20\n      add\n      swap1\n      dup2\n      mstore\n      0x20\n      add\n      0x00\n      keccak256\n      sload\n        /* \"@openzeppelin/contracts/utils/Nonces.sol\":617:638  return _nonces[owner] */\n      swap1\n      pop\n        /* \"@openzeppelin/contracts/utils/Nonces.sol\":538:645  function nonces(address owner) public view virtual returns (uint256) {... */\n      swap2\n      swap1\n      pop\n      jump\t// out\n        /* \"@openzeppelin/contracts/utils/Pausable.sol\":2463:2578  function _pause() internal virtual whenNotPaused {... */\n    tag_149:\n        /* \"@openzeppelin/contracts/utils/Pausable.sol\":1474:1493  _requireNotPaused() */\n      tag_234\n        /* \"@openzeppelin/contracts/utils/Pausable.sol\":1474:1491  _requireNotPaused */\n      tag_235\n        /* \"@openzeppelin/contracts/utils/Pausable.sol\":1474:1493  _requireNotPaused() */\n      jump\t// in\n    tag_234:\n        /* \"@openzeppelin/contracts/utils/Pausable.sol\":2532:2536  true */\n      0x01\n        /* \"@openzeppelin/contracts/utils/Pausable.sol\":2522:2529  _paused */\n      0x05\n      0x00\n        /* \"@openzeppelin/contracts/utils/Pausable.sol\":2522:2536  _paused = true */\n      0x0100\n      exp\n      dup2\n      sload\n      dup2\n      0xff\n      mul\n      not\n      and\n      swap1\n      dup4\n      iszero\n      iszero\n      mul\n      or\n      swap1\n      sstore\n      pop\n        /* \"@openzeppelin/contracts/utils/Pausable.sol\":2551:2571  Paused(_msgSender()) */\n      0x62e78cea01bee320cd4e420270b5ea74000d11b0c9f74754ebdbfc544b05a258\n        /* \"@openzeppelin/contracts/utils/Pausable.sol\":2558:2570  _msgSender() */\n      tag_237\n        /* \"@openzeppelin/contracts/utils/Pausable.sol\":2558:2568  _msgSender */\n      tag_110\n        /* \"@openzeppelin/contracts/utils/Pausable.sol\":2558:2570  _msgSender() */\n      jump\t// in\n    tag_237:\n        /* \"@openzeppelin/contracts/utils/Pausable.sol\":2551:2571  Paused(_msgSender()) */\n      mload(0x40)\n      tag_238\n      swap2\n      swap1\n      tag_81\n      jump\t// in\n    tag_238:\n      mload(0x40)\n      dup1\n      swap2\n      sub\n      swap1\n      log1\n        /* \"@openzeppelin/contracts/utils/Pausable.sol\":2463:2578  function _pause() internal virtual whenNotPaused {... */\n      jump\t// out\n        /* \"@openzeppelin/contracts/utils/cryptography/EIP712.sol\":6021:6147  function _EIP712Name() internal view returns (string memory) {... */\n    tag_152:\n        /* \"@openzeppelin/contracts/utils/cryptography/EIP712.sol\":6067:6080  string memory */\n      0x60\n        /* \"@openzeppelin/contracts/utils/cryptography/EIP712.sol\":6099:6140  _name.toStringWithFallback(_nameFallback) */\n      tag_240\n        /* \"@openzeppelin/contracts/utils/cryptography/EIP712.sol\":6126:6139  _nameFallback */\n      0x06\n        /* \"@openzeppelin/contracts/utils/cryptography/EIP712.sol\":6099:6104  _name */\n      immutable(\"0x2e146e4054721a17b0bcbf76ec43b6f46a05beded7f5d79154519b5b8d21cac9\")\n        /* \"@openzeppelin/contracts/utils/cryptography/EIP712.sol\":6099:6125  _name.toStringWithFallback */\n      tag_241\n      swap1\n        /* \"@openzeppelin/contracts/utils/cryptography/EIP712.sol\":6099:6140  _name.toStringWithFallback(_nameFallback) */\n      swap2\n      swap1\n      0xffffffff\n      and\n      jump\t// in\n    tag_240:\n        /* \"@openzeppelin/contracts/utils/cryptography/EIP712.sol\":6092:6140  return _name.toStringWithFallback(_nameFallback) */\n      swap1\n      pop\n        /* \"@openzeppelin/contracts/utils/cryptography/EIP712.sol\":6021:6147  function _EIP712Name() internal view returns (string memory) {... */\n      swap1\n      jump\t// out\n        /* \"@openzeppelin/contracts/utils/cryptography/EIP712.sol\":6473:6608  function _EIP712Version() internal view returns (string memory) {... */\n    tag_154:\n        /* \"@openzeppelin/contracts/utils/cryptography/EIP712.sol\":6522:6535  string memory */\n      0x60\n        /* \"@openzeppelin/contracts/utils/cryptography/EIP712.sol\":6554:6601  _version.toStringWithFallback(_versionFallback) */\n      tag_243\n        /* \"@openzeppelin/contracts/utils/cryptography/EIP712.sol\":6584:6600  _versionFallback */\n      0x07\n        /* \"@openzeppelin/contracts/utils/cryptography/EIP712.sol\":6554:6562  _version */\n      immutable(\"0xdbb0c2eddba6d539cf8b9907d3b61571093d82f2968cb7a5edabc36082864457\")\n        /* \"@openzeppelin/contracts/utils/cryptography/EIP712.sol\":6554:6583  _version.toStringWithFallback */\n      tag_241\n      swap1\n        /* \"@openzeppelin/contracts/utils/cryptography/EIP712.sol\":6554:6601  _version.toStringWithFallback(_versionFallback) */\n      swap2\n      swap1\n      0xffffffff\n      and\n      jump\t// in\n    tag_243:\n        /* \"@openzeppelin/contracts/utils/cryptography/EIP712.sol\":6547:6601  return _version.toStringWithFallback(_versionFallback) */\n      swap1\n      pop\n        /* \"@openzeppelin/contracts/utils/cryptography/EIP712.sol\":6473:6608  function _EIP712Version() internal view returns (string memory) {... */\n      swap1\n      jump\t// out\n        /* \"@openzeppelin/contracts/utils/Nonces.sol\":759:1154  function _useNonce(address owner) internal virtual returns (uint256) {... */\n    tag_173:\n        /* \"@openzeppelin/contracts/utils/Nonces.sol\":819:826  uint256 */\n      0x00\n        /* \"@openzeppelin/contracts/utils/Nonces.sol\":1121:1128  _nonces */\n      0x08\n        /* \"@openzeppelin/contracts/utils/Nonces.sol\":1121:1135  _nonces[owner] */\n      0x00\n        /* \"@openzeppelin/contracts/utils/Nonces.sol\":1129:1134  owner */\n      dup4\n        /* \"@openzeppelin/contracts/utils/Nonces.sol\":1121:1135  _nonces[owner] */\n      0xffffffffffffffffffffffffffffffffffffffff\n      and\n      0xffffffffffffffffffffffffffffffffffffffff\n      and\n      dup2\n      mstore\n      0x20\n      add\n      swap1\n      dup2\n      mstore\n      0x20\n      add\n      0x00\n      keccak256\n      0x00\n        /* \"@openzeppelin/contracts/utils/Nonces.sol\":1121:1137  _nonces[owner]++ */\n      dup2\n      sload\n      dup1\n      swap3\n      swap2\n      swap1\n      0x01\n      add\n      swap2\n      swap1\n      pop\n      sstore\n        /* \"@openzeppelin/contracts/utils/Nonces.sol\":1114:1137  return _nonces[owner]++ */\n      swap1\n      pop\n        /* \"@openzeppelin/contracts/utils/Nonces.sol\":759:1154  function _useNonce(address owner) internal virtual returns (uint256) {... */\n      swap2\n      swap1\n      pop\n      jump\t// out\n        /* \"@openzeppelin/contracts/utils/cryptography/EIP712.sol\":4917:5093  function _hashTypedDataV4(bytes32 structHash) internal view virtual returns (bytes32) {... */\n    tag_177:\n        /* \"@openzeppelin/contracts/utils/cryptography/EIP712.sol\":4994:5001  bytes32 */\n      0x00\n        /* \"@openzeppelin/contracts/utils/cryptography/EIP712.sol\":5020:5086  MessageHashUtils.toTypedDataHash(_domainSeparatorV4(), structHash) */\n      tag_246\n        /* \"@openzeppelin/contracts/utils/cryptography/EIP712.sol\":5053:5073  _domainSeparatorV4() */\n      tag_247\n        /* \"@openzeppelin/contracts/utils/cryptography/EIP712.sol\":5053:5071  _domainSeparatorV4 */\n      tag_123\n        /* \"@openzeppelin/contracts/utils/cryptography/EIP712.sol\":5053:5073  _domainSeparatorV4() */\n      jump\t// in\n    tag_247:\n        /* \"@openzeppelin/contracts/utils/cryptography/EIP712.sol\":5075:5085  structHash */\n      dup4\n        /* \"@openzeppelin/contracts/utils/cryptography/EIP712.sol\":5020:5052  MessageHashUtils.toTypedDataHash */\n      tag_248\n        /* \"@openzeppelin/contracts/utils/cryptography/EIP712.sol\":5020:5086  MessageHashUtils.toTypedDataHash(_domainSeparatorV4(), structHash) */\n      jump\t// in\n    tag_246:\n        /* \"@openzeppelin/contracts/utils/cryptography/EIP712.sol\":5013:5086  return MessageHashUtils.toTypedDataHash(_domainSeparatorV4(), structHash) */\n      swap1\n      pop\n        /* \"@openzeppelin/contracts/utils/cryptography/EIP712.sol\":4917:5093  function _hashTypedDataV4(bytes32 structHash) internal view virtual returns (bytes32) {... */\n      swap2\n      swap1\n      pop\n      jump\t// out\n        /* \"@openzeppelin/contracts/utils/cryptography/ECDSA.sol\":6803:7063  function recover(bytes32 hash, uint8 v, bytes32 r, bytes32 s) internal pure returns (address) {... */\n    tag_179:\n        /* \"@openzeppelin/contracts/utils/cryptography/ECDSA.sol\":6888:6895  address */\n      0x00\n        /* \"@openzeppelin/contracts/utils/cryptography/ECDSA.sol\":6908:6925  address recovered */\n      dup1\n        /* \"@openzeppelin/contracts/utils/cryptography/ECDSA.sol\":6927:6945  RecoverError error */\n      0x00\n        /* \"@openzeppelin/contracts/utils/cryptography/ECDSA.sol\":6947:6963  bytes32 errorArg */\n      dup1\n        /* \"@openzeppelin/contracts/utils/cryptography/ECDSA.sol\":6967:6992  tryRecover(hash, v, r, s) */\n      tag_250\n        /* \"@openzeppelin/contracts/utils/cryptography/ECDSA.sol\":6978:6982  hash */\n      dup9\n        /* \"@openzeppelin/contracts/utils/cryptography/ECDSA.sol\":6984:6985  v */\n      dup9\n        /* \"@openzeppelin/contracts/utils/cryptography/ECDSA.sol\":6987:6988  r */\n      dup9\n        /* \"@openzeppelin/contracts/utils/cryptography/ECDSA.sol\":6990:6991  s */\n      dup9\n        /* \"@openzeppelin/contracts/utils/cryptography/ECDSA.sol\":6967:6977  tryRecover */\n      tag_251\n        /* \"@openzeppelin/contracts/utils/cryptography/ECDSA.sol\":6967:6992  tryRecover(hash, v, r, s) */\n      jump\t// in\n    tag_250:\n        /* \"@openzeppelin/contracts/utils/cryptography/ECDSA.sol\":6907:6992  (address recovered, RecoverError error, bytes32 errorArg) = tryRecover(hash, v, r, s) */\n      swap3\n      pop\n      swap3\n      pop\n      swap3\n      pop\n        /* \"@openzeppelin/contracts/utils/cryptography/ECDSA.sol\":7002:7030  _throwError(error, errorArg) */\n      tag_252\n        /* \"@openzeppelin/contracts/utils/cryptography/ECDSA.sol\":7014:7019  error */\n      dup3\n        /* \"@openzeppelin/contracts/utils/cryptography/ECDSA.sol\":7021:7029  errorArg */\n      dup3\n        /* \"@openzeppelin/contracts/utils/cryptography/ECDSA.sol\":7002:7013  _throwError */\n      tag_253\n        /* \"@openzeppelin/contracts/utils/cryptography/ECDSA.sol\":7002:7030  _throwError(error, errorArg) */\n      jump\t// in\n    tag_252:\n        /* \"@openzeppelin/contracts/utils/cryptography/ECDSA.sol\":7047:7056  recovered */\n      dup3\n        /* \"@openzeppelin/contracts/utils/cryptography/ECDSA.sol\":7040:7056  return recovered */\n      swap4\n      pop\n      pop\n      pop\n      pop\n        /* \"@openzeppelin/contracts/utils/cryptography/ECDSA.sol\":6803:7063  function recover(bytes32 hash, uint8 v, bytes32 r, bytes32 s) internal pure returns (address) {... */\n      swap5\n      swap4\n      pop\n      pop\n      pop\n      pop\n      jump\t// out\n        /* \"@openzeppelin/contracts/token/ERC20/ERC20.sol\":9949:10381  function _approve(address owner, address spender, uint256 value, bool emitEvent) internal virtual {... */\n    tag_194:\n        /* \"@openzeppelin/contracts/token/ERC20/ERC20.sol\":10078:10079  0 */\n      0x00\n        /* \"@openzeppelin/contracts/token/ERC20/ERC20.sol\":10061:10080  owner == address(0) */\n      0xffffffffffffffffffffffffffffffffffffffff\n      and\n        /* \"@openzeppelin/contracts/token/ERC20/ERC20.sol\":10061:10066  owner */\n      dup5\n        /* \"@openzeppelin/contracts/token/ERC20/ERC20.sol\":10061:10080  owner == address(0) */\n      0xffffffffffffffffffffffffffffffffffffffff\n      and\n      sub\n        /* \"@openzeppelin/contracts/token/ERC20/ERC20.sol\":10057:10146  if (owner == address(0)) {... */\n      tag_255\n      jumpi\n        /* \"@openzeppelin/contracts/token/ERC20/ERC20.sol\":10132:10133  0 */\n      0x00\n        /* \"@openzeppelin/contracts/token/ERC20/ERC20.sol\":10103:10135  ERC20InvalidApprover(address(0)) */\n      mload(0x40)\n      0xe602df0500000000000000000000000000000000000000000000000000000000\n      dup2\n      mstore\n      0x04\n      add\n      tag_256\n      swap2\n      swap1\n      tag_81\n      jump\t// in\n    tag_256:\n      mload(0x40)\n      dup1\n      swap2\n      sub\n      swap1\n      revert\n        /* \"@openzeppelin/contracts/token/ERC20/ERC20.sol\":10057:10146  if (owner == address(0)) {... */\n    tag_255:\n        /* \"@openzeppelin/contracts/token/ERC20/ERC20.sol\":10178:10179  0 */\n      0x00\n        /* \"@openzeppelin/contracts/token/ERC20/ERC20.sol\":10159:10180  spender == address(0) */\n      0xffffffffffffffffffffffffffffffffffffffff\n      and\n        /* \"@openzeppelin/contracts/token/ERC20/ERC20.sol\":10159:10166  spender */\n      dup4\n        /* \"@openzeppelin/contracts/token/ERC20/ERC20.sol\":10159:10180  spender == address(0) */\n      0xffffffffffffffffffffffffffffffffffffffff\n      and\n      sub\n        /* \"@openzeppelin/contracts/token/ERC20/ERC20.sol\":10155:10245  if (spender == address(0)) {... */\n      tag_257\n      jumpi\n        /* \"@openzeppelin/contracts/token/ERC20/ERC20.sol\":10231:10232  0 */\n      0x00\n        /* \"@openzeppelin/contracts/token/ERC20/ERC20.sol\":10203:10234  ERC20InvalidSpender(address(0)) */\n      mload(0x40)\n      0x94280d6200000000000000000000000000000000000000000000000000000000\n      dup2\n      mstore\n      0x04\n      add\n      tag_258\n      swap2\n      swap1\n      tag_81\n      jump\t// in\n    tag_258:\n      mload(0x40)\n      dup1\n      swap2\n      sub\n      swap1\n      revert\n        /* \"@openzeppelin/contracts/token/ERC20/ERC20.sol\":10155:10245  if (spender == address(0)) {... */\n    tag_257:\n        /* \"@openzeppelin/contracts/token/ERC20/ERC20.sol\":10284:10289  value */\n      dup2\n        /* \"@openzeppelin/contracts/token/ERC20/ERC20.sol\":10254:10265  _allowances */\n      0x01\n        /* \"@openzeppelin/contracts/token/ERC20/ERC20.sol\":10254:10272  _allowances[owner] */\n      0x00\n        /* \"@openzeppelin/contracts/token/ERC20/ERC20.sol\":10266:10271  owner */\n      dup7\n        /* \"@openzeppelin/contracts/token/ERC20/ERC20.sol\":10254:10272  _allowances[owner] */\n      0xffffffffffffffffffffffffffffffffffffffff\n      and\n      0xffffffffffffffffffffffffffffffffffffffff\n      and\n      dup2\n      mstore\n      0x20\n      add\n      swap1\n      dup2\n      mstore\n      0x20\n      add\n      0x00\n      keccak256\n        /* \"@openzeppelin/contracts/token/ERC20/ERC20.sol\":10254:10281  _allowances[owner][spender] */\n      0x00\n        /* \"@openzeppelin/contracts/token/ERC20/ERC20.sol\":10273:10280  spender */\n      dup6\n        /* \"@openzeppelin/contracts/token/ERC20/ERC20.sol\":10254:10281  _allowances[owner][spender] */\n      0xffffffffffffffffffffffffffffffffffffffff\n      and\n      0xffffffffffffffffffffffffffffffffffffffff\n      and\n      dup2\n      mstore\n      0x20\n      add\n      swap1\n      dup2\n      mstore\n      0x20\n      add\n      0x00\n      keccak256\n        /* \"@openzeppelin/contracts/token/ERC20/ERC20.sol\":10254:10289  _allowances[owner][spender] = value */\n      dup2\n      swap1\n      sstore\n      pop\n        /* \"@openzeppelin/contracts/token/ERC20/ERC20.sol\":10303:10312  emitEvent */\n      dup1\n        /* \"@openzeppelin/contracts/token/ERC20/ERC20.sol\":10299:10375  if (emitEvent) {... */\n      iszero\n      tag_259\n      jumpi\n        /* \"@openzeppelin/contracts/token/ERC20/ERC20.sol\":10349:10356  spender */\n      dup3\n        /* \"@openzeppelin/contracts/token/ERC20/ERC20.sol\":10333:10364  Approval(owner, spender, value) */\n      0xffffffffffffffffffffffffffffffffffffffff\n      and\n        /* \"@openzeppelin/contracts/token/ERC20/ERC20.sol\":10342:10347  owner */\n      dup5\n        /* \"@openzeppelin/contracts/token/ERC20/ERC20.sol\":10333:10364  Approval(owner, spender, value) */\n      0xffffffffffffffffffffffffffffffffffffffff\n      and\n      0x8c5be1e5ebec7d5bd14f71427d1e84f3dd0314c0f7b2291e5b200ac8c7c3b925\n        /* \"@openzeppelin/contracts/token/ERC20/ERC20.sol\":10358:10363  value */\n      dup5\n        /* \"@openzeppelin/contracts/token/ERC20/ERC20.sol\":10333:10364  Approval(owner, spender, value) */\n      mload(0x40)\n      tag_260\n      swap2\n      swap1\n      tag_39\n      jump\t// in\n    tag_260:\n      mload(0x40)\n      dup1\n      swap2\n      sub\n      swap1\n      log3\n        /* \"@openzeppelin/contracts/token/ERC20/ERC20.sol\":10299:10375  if (emitEvent) {... */\n    tag_259:\n        /* \"@openzeppelin/contracts/token/ERC20/ERC20.sol\":9949:10381  function _approve(address owner, address spender, uint256 value, bool emitEvent) internal virtual {... */\n      pop\n      pop\n      pop\n      pop\n      jump\t// out\n        /* \"contracts/PalToken.sol\":881:1046  function _update(address from, address to, uint256 value)... */\n    tag_208:\n        /* \"contracts/PalToken.sol\":1009:1039  super._update(from, to, value) */\n      tag_262\n        /* \"contracts/PalToken.sol\":1023:1027  from */\n      dup4\n        /* \"contracts/PalToken.sol\":1029:1031  to */\n      dup4\n        /* \"contracts/PalToken.sol\":1033:1038  value */\n      dup4\n        /* \"contracts/PalToken.sol\":1009:1022  super._update */\n      tag_263\n        /* \"contracts/PalToken.sol\":1009:1039  super._update(from, to, value) */\n      jump\t// in\n    tag_262:\n        /* \"contracts/PalToken.sol\":881:1046  function _update(address from, address to, uint256 value)... */\n      pop\n      pop\n      pop\n      jump\t// out\n        /* \"@openzeppelin/contracts/utils/cryptography/EIP712.sol\":4113:4292  function _buildDomainSeparator() private view returns (bytes32) {... */\n    tag_214:\n        /* \"@openzeppelin/contracts/utils/cryptography/EIP712.sol\":4168:4175  bytes32 */\n      0x00\n        /* \"@openzeppelin/contracts/utils/cryptography/EIP712.sol\":2079:2174  keccak256(\"EIP712Domain(string name,string version,uint256 chainId,address verifyingContract)\") */\n      0x8b73c3c69bb8fe3d512ecc4cf759cc79239f7b179b0ffacaa9a75d522b39400f\n        /* \"@openzeppelin/contracts/utils/cryptography/EIP712.sol\":4226:4237  _hashedName */\n      immutable(\"0x0d54be3bc4377689e90fa825469f9d33cd9577ac3cb8dec97175feee980cb522\")\n        /* \"@openzeppelin/contracts/utils/cryptography/EIP712.sol\":4239:4253  _hashedVersion */\n      immutable(\"0xca73b0fbc7b8eec28132d1f947a137ff021618d4bdd73cb1d46e190b1d537e0f\")\n        /* \"@openzeppelin/contracts/utils/cryptography/EIP712.sol\":4255:4268  block.chainid */\n      chainid\n        /* \"@openzeppelin/contracts/utils/cryptography/EIP712.sol\":4278:4282  this */\n      address\n        /* \"@openzeppelin/contracts/utils/cryptography/EIP712.sol\":4204:4284  abi.encode(TYPE_HASH, _hashedName, _hashedVersion, block.chainid, address(this)) */\n      add(0x20, mload(0x40))\n      tag_265\n      swap6\n      swap5\n      swap4\n      swap3\n      swap2\n      swap1\n      tag_266\n      jump\t// in\n    tag_265:\n      mload(0x40)\n      0x20\n      dup2\n      dup4\n      sub\n      sub\n      dup2\n      mstore\n      swap1\n      0x40\n      mstore\n        /* \"@openzeppelin/contracts/utils/cryptography/EIP712.sol\":4194:4285  keccak256(abi.encode(TYPE_HASH, _hashedName, _hashedVersion, block.chainid, address(this))) */\n      dup1\n      mload\n      swap1\n      0x20\n      add\n      keccak256\n        /* \"@openzeppelin/contracts/utils/cryptography/EIP712.sol\":4187:4285  return keccak256(abi.encode(TYPE_HASH, _hashedName, _hashedVersion, block.chainid, address(this))) */\n      swap1\n      pop\n        /* \"@openzeppelin/contracts/utils/cryptography/EIP712.sol\":4113:4292  function _buildDomainSeparator() private view returns (bytes32) {... */\n      swap1\n      jump\t// out\n        /* \"@openzeppelin/contracts/utils/Pausable.sol\":2202:2328  function _requirePaused() internal view virtual {... */\n    tag_223:\n        /* \"@openzeppelin/contracts/utils/Pausable.sol\":2265:2273  paused() */\n      tag_268\n        /* \"@openzeppelin/contracts/utils/Pausable.sol\":2265:2271  paused */\n      tag_59\n        /* \"@openzeppelin/contracts/utils/Pausable.sol\":2265:2273  paused() */\n      jump\t// in\n    tag_268:\n        /* \"@openzeppelin/contracts/utils/Pausable.sol\":2260:2322  if (!paused()) {... */\n      tag_269\n      jumpi\n        /* \"@openzeppelin/contracts/utils/Pausable.sol\":2296:2311  ExpectedPause() */\n      mload(0x40)\n      0x8dfc202b00000000000000000000000000000000000000000000000000000000\n      dup2\n      mstore\n      0x04\n      add\n      mload(0x40)\n      dup1\n      swap2\n      sub\n      swap1\n      revert\n        /* \"@openzeppelin/contracts/utils/Pausable.sol\":2260:2322  if (!paused()) {... */\n    tag_269:\n        /* \"@openzeppelin/contracts/utils/Pausable.sol\":2202:2328  function _requirePaused() internal view virtual {... */\n      jump\t// out\n        /* \"@openzeppelin/contracts/utils/Pausable.sol\":2002:2130  function _requireNotPaused() internal view virtual {... */\n    tag_235:\n        /* \"@openzeppelin/contracts/utils/Pausable.sol\":2067:2075  paused() */\n      tag_271\n        /* \"@openzeppelin/contracts/utils/Pausable.sol\":2067:2073  paused */\n      tag_59\n        /* \"@openzeppelin/contracts/utils/Pausable.sol\":2067:2075  paused() */\n      jump\t// in\n    tag_271:\n        /* \"@openzeppelin/contracts/utils/Pausable.sol\":2063:2124  if (paused()) {... */\n      iszero\n      tag_272\n      jumpi\n        /* \"@openzeppelin/contracts/utils/Pausable.sol\":2098:2113  EnforcedPause() */\n      mload(0x40)\n      0xd93c066500000000000000000000000000000000000000000000000000000000\n      dup2\n      mstore\n      0x04\n      add\n      mload(0x40)\n      dup1\n      swap2\n      sub\n      swap1\n      revert\n        /* \"@openzeppelin/contracts/utils/Pausable.sol\":2063:2124  if (paused()) {... */\n    tag_272:\n        /* \"@openzeppelin/contracts/utils/Pausable.sol\":2002:2130  function _requireNotPaused() internal view virtual {... */\n      jump\t// out\n        /* \"@openzeppelin/contracts/utils/ShortStrings.sol\":3385:3652  function toStringWithFallback(ShortString value, string storage store) internal pure returns (string memory) {... */\n    tag_241:\n        /* \"@openzeppelin/contracts/utils/ShortStrings.sol\":3479:3492  string memory */\n      0x60\n        /* \"@openzeppelin/contracts/utils/ShortStrings.sol\":1390:1456  0x00000000000000000000000000000000000000000000000000000000000000FF */\n      0xff\n        /* \"@openzeppelin/contracts/utils/ShortStrings.sol\":3537:3554  FALLBACK_SENTINEL */\n      0x00\n      shl\n        /* \"@openzeppelin/contracts/utils/ShortStrings.sol\":3527:3532  value */\n      dup4\n        /* \"@openzeppelin/contracts/utils/ShortStrings.sol\":3508:3554  ShortString.unwrap(value) != FALLBACK_SENTINEL */\n      eq\n        /* \"@openzeppelin/contracts/utils/ShortStrings.sol\":3504:3646  if (ShortString.unwrap(value) != FALLBACK_SENTINEL) {... */\n      tag_274\n      jumpi\n        /* \"@openzeppelin/contracts/utils/ShortStrings.sol\":3577:3592  toString(value) */\n      tag_275\n        /* \"@openzeppelin/contracts/utils/ShortStrings.sol\":3586:3591  value */\n      dup4\n        /* \"@openzeppelin/contracts/utils/ShortStrings.sol\":3577:3585  toString */\n      tag_276\n        /* \"@openzeppelin/contracts/utils/ShortStrings.sol\":3577:3592  toString(value) */\n      jump\t// in\n    tag_275:\n        /* \"@openzeppelin/contracts/utils/ShortStrings.sol\":3570:3592  return toString(value) */\n      swap1\n      pop\n      jump(tag_273)\n        /* \"@openzeppelin/contracts/utils/ShortStrings.sol\":3504:3646  if (ShortString.unwrap(value) != FALLBACK_SENTINEL) {... */\n    tag_274:\n        /* \"@openzeppelin/contracts/utils/ShortStrings.sol\":3630:3635  store */\n      dup2\n        /* \"@openzeppelin/contracts/utils/ShortStrings.sol\":3623:3635  return store */\n      dup1\n      sload\n      tag_278\n      swap1\n      tag_103\n      jump\t// in\n    tag_278:\n      dup1\n      0x1f\n      add\n      0x20\n      dup1\n      swap2\n      div\n      mul\n      0x20\n      add\n      mload(0x40)\n      swap1\n      dup2\n      add\n      0x40\n      mstore\n      dup1\n      swap3\n      swap2\n      swap1\n      dup2\n      dup2\n      mstore\n      0x20\n      add\n      dup3\n      dup1\n      sload\n      tag_279\n      swap1\n      tag_103\n      jump\t// in\n    tag_279:\n      dup1\n      iszero\n      tag_280\n      jumpi\n      dup1\n      0x1f\n      lt\n      tag_281\n      jumpi\n      0x0100\n      dup1\n      dup4\n      sload\n      div\n      mul\n      dup4\n      mstore\n      swap2\n      0x20\n      add\n      swap2\n      jump(tag_280)\n    tag_281:\n      dup3\n      add\n      swap2\n      swap1\n      0x00\n      mstore\n      keccak256(0x00, 0x20)\n      swap1\n    tag_282:\n      dup2\n      sload\n      dup2\n      mstore\n      swap1\n      0x01\n      add\n      swap1\n      0x20\n      add\n      dup1\n      dup4\n      gt\n      tag_282\n      jumpi\n      dup3\n      swap1\n      sub\n      0x1f\n      and\n      dup3\n      add\n      swap2\n    tag_280:\n      pop\n      pop\n      pop\n      pop\n      pop\n      swap1\n      pop\n        /* \"@openzeppelin/contracts/utils/ShortStrings.sol\":3385:3652  function toStringWithFallback(ShortString value, string storage store) internal pure returns (string memory) {... */\n    tag_273:\n      swap3\n      swap2\n      pop\n      pop\n      jump\t// out\n        /* \"@openzeppelin/contracts/utils/cryptography/MessageHashUtils.sol\":3353:3754  function toTypedDataHash(bytes32 domainSeparator, bytes32 structHash) internal pure returns (bytes32 digest) {... */\n    tag_248:\n        /* \"@openzeppelin/contracts/utils/cryptography/MessageHashUtils.sol\":3446:3460  bytes32 digest */\n      0x00\n        /* \"@openzeppelin/contracts/utils/cryptography/MessageHashUtils.sol\":3555:3559  0x40 */\n      0x40\n        /* \"@openzeppelin/contracts/utils/cryptography/MessageHashUtils.sol\":3549:3560  mload(0x40) */\n      mload\n        /* \"@openzeppelin/contracts/utils/cryptography/MessageHashUtils.sol\":3585:3595  hex\"19_01\" */\n      0x1901000000000000000000000000000000000000000000000000000000000000\n        /* \"@openzeppelin/contracts/utils/cryptography/MessageHashUtils.sol\":3580:3583  ptr */\n      dup2\n        /* \"@openzeppelin/contracts/utils/cryptography/MessageHashUtils.sol\":3573:3596  mstore(ptr, hex\"19_01\") */\n      mstore\n        /* \"@openzeppelin/contracts/utils/cryptography/MessageHashUtils.sol\":3632:3647  domainSeparator */\n      dup4\n        /* \"@openzeppelin/contracts/utils/cryptography/MessageHashUtils.sol\":3625:3629  0x02 */\n      0x02\n        /* \"@openzeppelin/contracts/utils/cryptography/MessageHashUtils.sol\":3620:3623  ptr */\n      dup3\n        /* \"@openzeppelin/contracts/utils/cryptography/MessageHashUtils.sol\":3616:3630  add(ptr, 0x02) */\n      add\n        /* \"@openzeppelin/contracts/utils/cryptography/MessageHashUtils.sol\":3609:3648  mstore(add(ptr, 0x02), domainSeparator) */\n      mstore\n        /* \"@openzeppelin/contracts/utils/cryptography/MessageHashUtils.sol\":3684:3694  structHash */\n      dup3\n        /* \"@openzeppelin/contracts/utils/cryptography/MessageHashUtils.sol\":3677:3681  0x22 */\n      0x22\n        /* \"@openzeppelin/contracts/utils/cryptography/MessageHashUtils.sol\":3672:3675  ptr */\n      dup3\n        /* \"@openzeppelin/contracts/utils/cryptography/MessageHashUtils.sol\":3668:3682  add(ptr, 0x22) */\n      add\n        /* \"@openzeppelin/contracts/utils/cryptography/MessageHashUtils.sol\":3661:3695  mstore(add(ptr, 0x22), structHash) */\n      mstore\n        /* \"@openzeppelin/contracts/utils/cryptography/MessageHashUtils.sol\":3733:3737  0x42 */\n      0x42\n        /* \"@openzeppelin/contracts/utils/cryptography/MessageHashUtils.sol\":3728:3731  ptr */\n      dup2\n        /* \"@openzeppelin/contracts/utils/cryptography/MessageHashUtils.sol\":3718:3738  keccak256(ptr, 0x42) */\n      keccak256\n        /* \"@openzeppelin/contracts/utils/cryptography/MessageHashUtils.sol\":3708:3738  digest := keccak256(ptr, 0x42) */\n      swap2\n      pop\n        /* \"@openzeppelin/contracts/utils/cryptography/MessageHashUtils.sol\":3524:3748  {... */\n      pop\n        /* \"@openzeppelin/contracts/utils/cryptography/MessageHashUtils.sol\":3353:3754  function toTypedDataHash(bytes32 domainSeparator, bytes32 structHash) internal pure returns (bytes32 digest) {... */\n      swap3\n      swap2\n      pop\n      pop\n      jump\t// out\n        /* \"@openzeppelin/contracts/utils/cryptography/ECDSA.sol\":5140:6670  function tryRecover(... */\n    tag_251:\n        /* \"@openzeppelin/contracts/utils/cryptography/ECDSA.sol\":5266:5273  address */\n      0x00\n        /* \"@openzeppelin/contracts/utils/cryptography/ECDSA.sol\":5275:5287  RecoverError */\n      dup1\n        /* \"@openzeppelin/contracts/utils/cryptography/ECDSA.sol\":5289:5296  bytes32 */\n      0x00\n        /* \"@openzeppelin/contracts/utils/cryptography/ECDSA.sol\":6199:6265  0x7FFFFFFFFFFFFFFFFFFFFFFFFFFFFFFF5D576E7357A4501DDFE92F46681B20A0 */\n      0x7fffffffffffffffffffffffffffffff5d576e7357a4501ddfe92f46681b20a0\n        /* \"@openzeppelin/contracts/utils/cryptography/ECDSA.sol\":6194:6195  s */\n      dup5\n        /* \"@openzeppelin/contracts/utils/cryptography/ECDSA.sol\":6186:6196  uint256(s) */\n      0x00\n      shr\n        /* \"@openzeppelin/contracts/utils/cryptography/ECDSA.sol\":6186:6265  uint256(s) > 0x7FFFFFFFFFFFFFFFFFFFFFFFFFFFFFFF5D576E7357A4501DDFE92F46681B20A0 */\n      gt\n        /* \"@openzeppelin/contracts/utils/cryptography/ECDSA.sol\":6182:6346  if (uint256(s) > 0x7FFFFFFFFFFFFFFFFFFFFFFFFFFFFFFF5D576E7357A4501DDFE92F46681B20A0) {... */\n      iszero\n      tag_285\n      jumpi\n        /* \"@openzeppelin/contracts/utils/cryptography/ECDSA.sol\":6297:6298  0 */\n      0x00\n        /* \"@openzeppelin/contracts/utils/cryptography/ECDSA.sol\":6301:6331  RecoverError.InvalidSignatureS */\n      0x03\n        /* \"@openzeppelin/contracts/utils/cryptography/ECDSA.sol\":6333:6334  s */\n      dup6\n        /* \"@openzeppelin/contracts/utils/cryptography/ECDSA.sol\":6281:6335  return (address(0), RecoverError.InvalidSignatureS, s) */\n      swap3\n      pop\n      swap3\n      pop\n      swap3\n      pop\n      jump(tag_284)\n        /* \"@openzeppelin/contracts/utils/cryptography/ECDSA.sol\":6182:6346  if (uint256(s) > 0x7FFFFFFFFFFFFFFFFFFFFFFFFFFFFFFF5D576E7357A4501DDFE92F46681B20A0) {... */\n    tag_285:\n        /* \"@openzeppelin/contracts/utils/cryptography/ECDSA.sol\":6440:6454  address signer */\n      0x00\n        /* \"@openzeppelin/contracts/utils/cryptography/ECDSA.sol\":6457:6481  ecrecover(hash, v, r, s) */\n      0x01\n        /* \"@openzeppelin/contracts/utils/cryptography/ECDSA.sol\":6467:6471  hash */\n      dup9\n        /* \"@openzeppelin/contracts/utils/cryptography/ECDSA.sol\":6473:6474  v */\n      dup9\n        /* \"@openzeppelin/contracts/utils/cryptography/ECDSA.sol\":6476:6477  r */\n      dup9\n        /* \"@openzeppelin/contracts/utils/cryptography/ECDSA.sol\":6479:6480  s */\n      dup9\n        /* \"@openzeppelin/contracts/utils/cryptography/ECDSA.sol\":6457:6481  ecrecover(hash, v, r, s) */\n      mload(0x40)\n      0x00\n      dup2\n      mstore\n      0x20\n      add\n      0x40\n      mstore\n      mload(0x40)\n      tag_286\n      swap5\n      swap4\n      swap3\n      swap2\n      swap1\n      tag_287\n      jump\t// in\n    tag_286:\n      0x20\n      mload(0x40)\n      0x20\n      dup2\n      sub\n      swap1\n      dup1\n      dup5\n      sub\n      swap1\n      dup6\n      gas\n      staticcall\n      iszero\n      dup1\n      iszero\n      tag_289\n      jumpi\n      returndatasize\n      0x00\n      dup1\n      returndatacopy\n      revert(0x00, returndatasize)\n    tag_289:\n      pop\n      pop\n      pop\n      mload(sub(mload(0x40), 0x20))\n        /* \"@openzeppelin/contracts/utils/cryptography/ECDSA.sol\":6440:6481  address signer = ecrecover(hash, v, r, s) */\n      swap1\n      pop\n        /* \"@openzeppelin/contracts/utils/cryptography/ECDSA.sol\":6513:6514  0 */\n      0x00\n        /* \"@openzeppelin/contracts/utils/cryptography/ECDSA.sol\":6495:6515  signer == address(0) */\n      0xffffffffffffffffffffffffffffffffffffffff\n      and\n        /* \"@openzeppelin/contracts/utils/cryptography/ECDSA.sol\":6495:6501  signer */\n      dup2\n        /* \"@openzeppelin/contracts/utils/cryptography/ECDSA.sol\":6495:6515  signer == address(0) */\n      0xffffffffffffffffffffffffffffffffffffffff\n      and\n      sub\n        /* \"@openzeppelin/contracts/utils/cryptography/ECDSA.sol\":6491:6604  if (signer == address(0)) {... */\n      tag_290\n      jumpi\n        /* \"@openzeppelin/contracts/utils/cryptography/ECDSA.sol\":6547:6548  0 */\n      0x00\n        /* \"@openzeppelin/contracts/utils/cryptography/ECDSA.sol\":6551:6580  RecoverError.InvalidSignature */\n      0x01\n        /* \"@openzeppelin/contracts/utils/cryptography/ECDSA.sol\":6590:6591  0 */\n      0x00\n        /* \"@openzeppelin/contracts/utils/cryptography/ECDSA.sol\":6582:6592  bytes32(0) */\n      dup1\n      shl\n        /* \"@openzeppelin/contracts/utils/cryptography/ECDSA.sol\":6531:6593  return (address(0), RecoverError.InvalidSignature, bytes32(0)) */\n      swap4\n      pop\n      swap4\n      pop\n      swap4\n      pop\n      pop\n      jump(tag_284)\n        /* \"@openzeppelin/contracts/utils/cryptography/ECDSA.sol\":6491:6604  if (signer == address(0)) {... */\n    tag_290:\n        /* \"@openzeppelin/contracts/utils/cryptography/ECDSA.sol\":6622:6628  signer */\n      dup1\n        /* \"@openzeppelin/contracts/utils/cryptography/ECDSA.sol\":6630:6650  RecoverError.NoError */\n      0x00\n        /* \"@openzeppelin/contracts/utils/cryptography/ECDSA.sol\":6660:6661  0 */\n      dup1\n        /* \"@openzeppelin/contracts/utils/cryptography/ECDSA.sol\":6652:6662  bytes32(0) */\n      0x00\n      shl\n        /* \"@openzeppelin/contracts/utils/cryptography/ECDSA.sol\":6614:6663  return (signer, RecoverError.NoError, bytes32(0)) */\n      swap4\n      pop\n      swap4\n      pop\n      swap4\n      pop\n      pop\n        /* \"@openzeppelin/contracts/utils/cryptography/ECDSA.sol\":5140:6670  function tryRecover(... */\n    tag_284:\n      swap5\n      pop\n      swap5\n      pop\n      swap5\n      swap2\n      pop\n      pop\n      jump\t// out\n        /* \"@openzeppelin/contracts/utils/cryptography/ECDSA.sol\":7196:7728  function _throwError(RecoverError error, bytes32 errorArg) private pure {... */\n    tag_253:\n        /* \"@openzeppelin/contracts/utils/cryptography/ECDSA.sol\":7291:7311  RecoverError.NoError */\n      0x00\n        /* \"@openzeppelin/contracts/utils/cryptography/ECDSA.sol\":7282:7311  error == RecoverError.NoError */\n      0x03\n      dup2\n      gt\n      iszero\n      tag_292\n      jumpi\n      tag_293\n      tag_294\n      jump\t// in\n    tag_293:\n    tag_292:\n        /* \"@openzeppelin/contracts/utils/cryptography/ECDSA.sol\":7282:7287  error */\n      dup3\n        /* \"@openzeppelin/contracts/utils/cryptography/ECDSA.sol\":7282:7311  error == RecoverError.NoError */\n      0x03\n      dup2\n      gt\n      iszero\n      tag_295\n      jumpi\n      tag_296\n      tag_294\n      jump\t// in\n    tag_296:\n    tag_295:\n      sub\n        /* \"@openzeppelin/contracts/utils/cryptography/ECDSA.sol\":7278:7722  if (error == RecoverError.NoError) {... */\n      iszero\n        /* \"@openzeppelin/contracts/utils/cryptography/ECDSA.sol\":7327:7334  return; */\n      tag_291\n        /* \"@openzeppelin/contracts/utils/cryptography/ECDSA.sol\":7278:7722  if (error == RecoverError.NoError) {... */\n      jumpi\n        /* \"@openzeppelin/contracts/utils/cryptography/ECDSA.sol\":7387:7416  RecoverError.InvalidSignature */\n      0x01\n        /* \"@openzeppelin/contracts/utils/cryptography/ECDSA.sol\":7378:7416  error == RecoverError.InvalidSignature */\n      0x03\n      dup2\n      gt\n      iszero\n      tag_299\n      jumpi\n      tag_300\n      tag_294\n      jump\t// in\n    tag_300:\n    tag_299:\n        /* \"@openzeppelin/contracts/utils/cryptography/ECDSA.sol\":7378:7383  error */\n      dup3\n        /* \"@openzeppelin/contracts/utils/cryptography/ECDSA.sol\":7378:7416  error == RecoverError.InvalidSignature */\n      0x03\n      dup2\n      gt\n      iszero\n      tag_301\n      jumpi\n      tag_302\n      tag_294\n      jump\t// in\n    tag_302:\n    tag_301:\n      sub\n        /* \"@openzeppelin/contracts/utils/cryptography/ECDSA.sol\":7374:7722  if (error == RecoverError.InvalidSignature) {... */\n      tag_303\n      jumpi\n        /* \"@openzeppelin/contracts/utils/cryptography/ECDSA.sol\":7439:7462  ECDSAInvalidSignature() */\n      mload(0x40)\n      0xf645eedf00000000000000000000000000000000000000000000000000000000\n      dup2\n      mstore\n      0x04\n      add\n      mload(0x40)\n      dup1\n      swap2\n      sub\n      swap1\n      revert\n        /* \"@openzeppelin/contracts/utils/cryptography/ECDSA.sol\":7374:7722  if (error == RecoverError.InvalidSignature) {... */\n    tag_303:\n        /* \"@openzeppelin/contracts/utils/cryptography/ECDSA.sol\":7492:7527  RecoverError.InvalidSignatureLength */\n      0x02\n        /* \"@openzeppelin/contracts/utils/cryptography/ECDSA.sol\":7483:7527  error == RecoverError.InvalidSignatureLength */\n      0x03\n      dup2\n      gt\n      iszero\n      tag_305\n      jumpi\n      tag_306\n      tag_294\n      jump\t// in\n    tag_306:\n    tag_305:\n        /* \"@openzeppelin/contracts/utils/cryptography/ECDSA.sol\":7483:7488  error */\n      dup3\n        /* \"@openzeppelin/contracts/utils/cryptography/ECDSA.sol\":7483:7527  error == RecoverError.InvalidSignatureLength */\n      0x03\n      dup2\n      gt\n      iszero\n      tag_307\n      jumpi\n      tag_308\n      tag_294\n      jump\t// in\n    tag_308:\n    tag_307:\n      sub\n        /* \"@openzeppelin/contracts/utils/cryptography/ECDSA.sol\":7479:7722  if (error == RecoverError.InvalidSignatureLength) {... */\n      tag_309\n      jumpi\n        /* \"@openzeppelin/contracts/utils/cryptography/ECDSA.sol\":7586:7594  errorArg */\n      dup1\n        /* \"@openzeppelin/contracts/utils/cryptography/ECDSA.sol\":7578:7595  uint256(errorArg) */\n      0x00\n      shr\n        /* \"@openzeppelin/contracts/utils/cryptography/ECDSA.sol\":7550:7596  ECDSAInvalidSignatureLength(uint256(errorArg)) */\n      mload(0x40)\n      0xfce698f700000000000000000000000000000000000000000000000000000000\n      dup2\n      mstore\n      0x04\n      add\n      tag_310\n      swap2\n      swap1\n      tag_39\n      jump\t// in\n    tag_310:\n      mload(0x40)\n      dup1\n      swap2\n      sub\n      swap1\n      revert\n        /* \"@openzeppelin/contracts/utils/cryptography/ECDSA.sol\":7479:7722  if (error == RecoverError.InvalidSignatureLength) {... */\n    tag_309:\n        /* \"@openzeppelin/contracts/utils/cryptography/ECDSA.sol\":7626:7656  RecoverError.InvalidSignatureS */\n      0x03\n        /* \"@openzeppelin/contracts/utils/cryptography/ECDSA.sol\":7617:7656  error == RecoverError.InvalidSignatureS */\n      dup1\n      dup2\n      gt\n      iszero\n      tag_312\n      jumpi\n      tag_313\n      tag_294\n      jump\t// in\n    tag_313:\n    tag_312:\n        /* \"@openzeppelin/contracts/utils/cryptography/ECDSA.sol\":7617:7622  error */\n      dup3\n        /* \"@openzeppelin/contracts/utils/cryptography/ECDSA.sol\":7617:7656  error == RecoverError.InvalidSignatureS */\n      0x03\n      dup2\n      gt\n      iszero\n      tag_314\n      jumpi\n      tag_315\n      tag_294\n      jump\t// in\n    tag_315:\n    tag_314:\n      sub\n        /* \"@openzeppelin/contracts/utils/cryptography/ECDSA.sol\":7613:7722  if (error == RecoverError.InvalidSignatureS) {... */\n      tag_316\n      jumpi\n        /* \"@openzeppelin/contracts/utils/cryptography/ECDSA.sol\":7702:7710  errorArg */\n      dup1\n        /* \"@openzeppelin/contracts/utils/cryptography/ECDSA.sol\":7679:7711  ECDSAInvalidSignatureS(errorArg) */\n      mload(0x40)\n      0xd78bce0c00000000000000000000000000000000000000000000000000000000\n      dup2\n      mstore\n      0x04\n      add\n      tag_317\n      swap2\n      swap1\n      tag_52\n      jump\t// in\n    tag_317:\n      mload(0x40)\n      dup1\n      swap2\n      sub\n      swap1\n      revert\n        /* \"@openzeppelin/contracts/utils/cryptography/ECDSA.sol\":7613:7722  if (error == RecoverError.InvalidSignatureS) {... */\n    tag_316:\n        /* \"@openzeppelin/contracts/utils/cryptography/ECDSA.sol\":7196:7728  function _throwError(RecoverError error, bytes32 errorArg) private pure {... */\n    tag_291:\n      pop\n      pop\n      jump\t// out\n        /* \"@openzeppelin/contracts/token/ERC20/extensions/ERC20Pausable.sol\":1112:1257  function _update(address from, address to, uint256 value) internal virtual override whenNotPaused {... */\n    tag_263:\n        /* \"@openzeppelin/contracts/utils/Pausable.sol\":1474:1493  _requireNotPaused() */\n      tag_319\n        /* \"@openzeppelin/contracts/utils/Pausable.sol\":1474:1491  _requireNotPaused */\n      tag_235\n        /* \"@openzeppelin/contracts/utils/Pausable.sol\":1474:1493  _requireNotPaused() */\n      jump\t// in\n    tag_319:\n        /* \"@openzeppelin/contracts/token/ERC20/extensions/ERC20Pausable.sol\":1220:1250  super._update(from, to, value) */\n      tag_321\n        /* \"@openzeppelin/contracts/token/ERC20/extensions/ERC20Pausable.sol\":1234:1238  from */\n      dup4\n        /* \"@openzeppelin/contracts/token/ERC20/extensions/ERC20Pausable.sol\":1240:1242  to */\n      dup4\n        /* \"@openzeppelin/contracts/token/ERC20/extensions/ERC20Pausable.sol\":1244:1249  value */\n      dup4\n        /* \"@openzeppelin/contracts/token/ERC20/extensions/ERC20Pausable.sol\":1220:1233  super._update */\n      tag_322\n        /* \"@openzeppelin/contracts/token/ERC20/extensions/ERC20Pausable.sol\":1220:1250  super._update(from, to, value) */\n      jump\t// in\n    tag_321:\n        /* \"@openzeppelin/contracts/token/ERC20/extensions/ERC20Pausable.sol\":1112:1257  function _update(address from, address to, uint256 value) internal virtual override whenNotPaused {... */\n      pop\n      pop\n      pop\n      jump\t// out\n        /* \"@openzeppelin/contracts/utils/ShortStrings.sol\":2078:2483  function toString(ShortString sstr) internal pure returns (string memory) {... */\n    tag_276:\n        /* \"@openzeppelin/contracts/utils/ShortStrings.sol\":2137:2150  string memory */\n      0x60\n        /* \"@openzeppelin/contracts/utils/ShortStrings.sol\":2162:2173  uint256 len */\n      0x00\n        /* \"@openzeppelin/contracts/utils/ShortStrings.sol\":2176:2192  byteLength(sstr) */\n      tag_324\n        /* \"@openzeppelin/contracts/utils/ShortStrings.sol\":2187:2191  sstr */\n      dup4\n        /* \"@openzeppelin/contracts/utils/ShortStrings.sol\":2176:2186  byteLength */\n      tag_325\n        /* \"@openzeppelin/contracts/utils/ShortStrings.sol\":2176:2192  byteLength(sstr) */\n      jump\t// in\n    tag_324:\n        /* \"@openzeppelin/contracts/utils/ShortStrings.sol\":2162:2192  uint256 len = byteLength(sstr) */\n      swap1\n      pop\n        /* \"@openzeppelin/contracts/utils/ShortStrings.sol\":2280:2297  string memory str */\n      0x00\n        /* \"@openzeppelin/contracts/utils/ShortStrings.sol\":2311:2313  32 */\n      0x20\n        /* \"@openzeppelin/contracts/utils/ShortStrings.sol\":2300:2314  new string(32) */\n      0xffffffffffffffff\n      dup2\n      gt\n      iszero\n      tag_326\n      jumpi\n      tag_327\n      tag_157\n      jump\t// in\n    tag_327:\n    tag_326:\n      mload(0x40)\n      swap1\n      dup1\n      dup3\n      mstore\n      dup1\n      0x1f\n      add\n      not(0x1f)\n      and\n      0x20\n      add\n      dup3\n      add\n      0x40\n      mstore\n      dup1\n      iszero\n      tag_328\n      jumpi\n      dup2\n      0x20\n      add\n      0x01\n      dup3\n      mul\n      dup1\n      calldatasize\n      dup4\n      calldatacopy\n      dup1\n      dup3\n      add\n      swap2\n      pop\n      pop\n      swap1\n      pop\n    tag_328:\n      pop\n        /* \"@openzeppelin/contracts/utils/ShortStrings.sol\":2280:2314  string memory str = new string(32) */\n      swap1\n      pop\n        /* \"@openzeppelin/contracts/utils/ShortStrings.sol\":2402:2405  len */\n      dup2\n        /* \"@openzeppelin/contracts/utils/ShortStrings.sol\":2397:2400  str */\n      dup2\n        /* \"@openzeppelin/contracts/utils/ShortStrings.sol\":2390:2406  mstore(str, len) */\n      mstore\n        /* \"@openzeppelin/contracts/utils/ShortStrings.sol\":2442:2446  sstr */\n      dup4\n        /* \"@openzeppelin/contracts/utils/ShortStrings.sol\":2435:2439  0x20 */\n      0x20\n        /* \"@openzeppelin/contracts/utils/ShortStrings.sol\":2430:2433  str */\n      dup3\n        /* \"@openzeppelin/contracts/utils/ShortStrings.sol\":2426:2440  add(str, 0x20) */\n      add\n        /* \"@openzeppelin/contracts/utils/ShortStrings.sol\":2419:2447  mstore(add(str, 0x20), sstr) */\n      mstore\n        /* \"@openzeppelin/contracts/utils/ShortStrings.sol\":2473:2476  str */\n      dup1\n        /* \"@openzeppelin/contracts/utils/ShortStrings.sol\":2466:2476  return str */\n      swap3\n      pop\n      pop\n      pop\n        /* \"@openzeppelin/contracts/utils/ShortStrings.sol\":2078:2483  function toString(ShortString sstr) internal pure returns (string memory) {... */\n      swap2\n      swap1\n      pop\n      jump\t// out\n        /* \"@openzeppelin/contracts/token/ERC20/ERC20.sol\":6271:7378  function _update(address from, address to, uint256 value) internal virtual {... */\n    tag_322:\n        /* \"@openzeppelin/contracts/token/ERC20/ERC20.sol\":6376:6377  0 */\n      0x00\n        /* \"@openzeppelin/contracts/token/ERC20/ERC20.sol\":6360:6378  from == address(0) */\n      0xffffffffffffffffffffffffffffffffffffffff\n      and\n        /* \"@openzeppelin/contracts/token/ERC20/ERC20.sol\":6360:6364  from */\n      dup4\n        /* \"@openzeppelin/contracts/token/ERC20/ERC20.sol\":6360:6378  from == address(0) */\n      0xffffffffffffffffffffffffffffffffffffffff\n      and\n      sub\n        /* \"@openzeppelin/contracts/token/ERC20/ERC20.sol\":6356:6896  if (from == address(0)) {... */\n      tag_330\n      jumpi\n        /* \"@openzeppelin/contracts/token/ERC20/ERC20.sol\":6512:6517  value */\n      dup1\n        /* \"@openzeppelin/contracts/token/ERC20/ERC20.sol\":6496:6508  _totalSupply */\n      0x02\n      0x00\n        /* \"@openzeppelin/contracts/token/ERC20/ERC20.sol\":6496:6517  _totalSupply += value */\n      dup3\n      dup3\n      sload\n      tag_331\n      swap2\n      swap1\n      tag_332\n      jump\t// in\n    tag_331:\n      swap3\n      pop\n      pop\n      dup2\n      swap1\n      sstore\n      pop\n        /* \"@openzeppelin/contracts/token/ERC20/ERC20.sol\":6356:6896  if (from == address(0)) {... */\n      jump(tag_333)\n    tag_330:\n        /* \"@openzeppelin/contracts/token/ERC20/ERC20.sol\":6548:6567  uint256 fromBalance */\n      0x00\n        /* \"@openzeppelin/contracts/token/ERC20/ERC20.sol\":6570:6579  _balances */\n      dup1\n        /* \"@openzeppelin/contracts/token/ERC20/ERC20.sol\":6570:6585  _balances[from] */\n      0x00\n        /* \"@openzeppelin/contracts/token/ERC20/ERC20.sol\":6580:6584  from */\n      dup6\n        /* \"@openzeppelin/contracts/token/ERC20/ERC20.sol\":6570:6585  _balances[from] */\n      0xffffffffffffffffffffffffffffffffffffffff\n      and\n      0xffffffffffffffffffffffffffffffffffffffff\n      and\n      dup2\n      mstore\n      0x20\n      add\n      swap1\n      dup2\n      mstore\n      0x20\n      add\n      0x00\n      keccak256\n      sload\n        /* \"@openzeppelin/contracts/token/ERC20/ERC20.sol\":6548:6585  uint256 fromBalance = _balances[from] */\n      swap1\n      pop\n        /* \"@openzeppelin/contracts/token/ERC20/ERC20.sol\":6617:6622  value */\n      dup2\n        /* \"@openzeppelin/contracts/token/ERC20/ERC20.sol\":6603:6614  fromBalance */\n      dup2\n        /* \"@openzeppelin/contracts/token/ERC20/ERC20.sol\":6603:6622  fromBalance < value */\n      lt\n        /* \"@openzeppelin/contracts/token/ERC20/ERC20.sol\":6599:6714  if (fromBalance < value) {... */\n      iszero\n      tag_334\n      jumpi\n        /* \"@openzeppelin/contracts/token/ERC20/ERC20.sol\":6674:6678  from */\n      dup4\n        /* \"@openzeppelin/contracts/token/ERC20/ERC20.sol\":6680:6691  fromBalance */\n      dup2\n        /* \"@openzeppelin/contracts/token/ERC20/ERC20.sol\":6693:6698  value */\n      dup4\n        /* \"@openzeppelin/contracts/token/ERC20/ERC20.sol\":6649:6699  ERC20InsufficientBalance(from, fromBalance, value) */\n      mload(0x40)\n      0xe450d38c00000000000000000000000000000000000000000000000000000000\n      dup2\n      mstore\n      0x04\n      add\n      tag_335\n      swap4\n      swap3\n      swap2\n      swap1\n      tag_200\n      jump\t// in\n    tag_335:\n      mload(0x40)\n      dup1\n      swap2\n      sub\n      swap1\n      revert\n        /* \"@openzeppelin/contracts/token/ERC20/ERC20.sol\":6599:6714  if (fromBalance < value) {... */\n    tag_334:\n        /* \"@openzeppelin/contracts/token/ERC20/ERC20.sol\":6866:6871  value */\n      dup2\n        /* \"@openzeppelin/contracts/token/ERC20/ERC20.sol\":6852:6863  fromBalance */\n      dup2\n        /* \"@openzeppelin/contracts/token/ERC20/ERC20.sol\":6852:6871  fromBalance - value */\n      sub\n        /* \"@openzeppelin/contracts/token/ERC20/ERC20.sol\":6834:6843  _balances */\n      0x00\n        /* \"@openzeppelin/contracts/token/ERC20/ERC20.sol\":6834:6849  _balances[from] */\n      dup1\n        /* \"@openzeppelin/contracts/token/ERC20/ERC20.sol\":6844:6848  from */\n      dup7\n        /* \"@openzeppelin/contracts/token/ERC20/ERC20.sol\":6834:6849  _balances[from] */\n      0xffffffffffffffffffffffffffffffffffffffff\n      and\n      0xffffffffffffffffffffffffffffffffffffffff\n      and\n      dup2\n      mstore\n      0x20\n      add\n      swap1\n      dup2\n      mstore\n      0x20\n      add\n      0x00\n      keccak256\n        /* \"@openzeppelin/contracts/token/ERC20/ERC20.sol\":6834:6871  _balances[from] = fromBalance - value */\n      dup2\n      swap1\n      sstore\n      pop\n        /* \"@openzeppelin/contracts/token/ERC20/ERC20.sol\":6534:6896  {... */\n      pop\n        /* \"@openzeppelin/contracts/token/ERC20/ERC20.sol\":6356:6896  if (from == address(0)) {... */\n    tag_333:\n        /* \"@openzeppelin/contracts/token/ERC20/ERC20.sol\":6924:6925  0 */\n      0x00\n        /* \"@openzeppelin/contracts/token/ERC20/ERC20.sol\":6910:6926  to == address(0) */\n      0xffffffffffffffffffffffffffffffffffffffff\n      and\n        /* \"@openzeppelin/contracts/token/ERC20/ERC20.sol\":6910:6912  to */\n      dup3\n        /* \"@openzeppelin/contracts/token/ERC20/ERC20.sol\":6910:6926  to == address(0) */\n      0xffffffffffffffffffffffffffffffffffffffff\n      and\n      sub\n        /* \"@openzeppelin/contracts/token/ERC20/ERC20.sol\":6906:7331  if (to == address(0)) {... */\n      tag_336\n      jumpi\n        /* \"@openzeppelin/contracts/token/ERC20/ERC20.sol\":7089:7094  value */\n      dup1\n        /* \"@openzeppelin/contracts/token/ERC20/ERC20.sol\":7073:7085  _totalSupply */\n      0x02\n      0x00\n        /* \"@openzeppelin/contracts/token/ERC20/ERC20.sol\":7073:7094  _totalSupply -= value */\n      dup3\n      dup3\n      sload\n      sub\n      swap3\n      pop\n      pop\n      dup2\n      swap1\n      sstore\n      pop\n        /* \"@openzeppelin/contracts/token/ERC20/ERC20.sol\":6906:7331  if (to == address(0)) {... */\n      jump(tag_337)\n    tag_336:\n        /* \"@openzeppelin/contracts/token/ERC20/ERC20.sol\":7301:7306  value */\n      dup1\n        /* \"@openzeppelin/contracts/token/ERC20/ERC20.sol\":7284:7293  _balances */\n      0x00\n        /* \"@openzeppelin/contracts/token/ERC20/ERC20.sol\":7284:7297  _balances[to] */\n      dup1\n        /* \"@openzeppelin/contracts/token/ERC20/ERC20.sol\":7294:7296  to */\n      dup5\n        /* \"@openzeppelin/contracts/token/ERC20/ERC20.sol\":7284:7297  _balances[to] */\n      0xffffffffffffffffffffffffffffffffffffffff\n      and\n      0xffffffffffffffffffffffffffffffffffffffff\n      and\n      dup2\n      mstore\n      0x20\n      add\n      swap1\n      dup2\n      mstore\n      0x20\n      add\n      0x00\n      keccak256\n      0x00\n        /* \"@openzeppelin/contracts/token/ERC20/ERC20.sol\":7284:7306  _balances[to] += value */\n      dup3\n      dup3\n      sload\n      add\n      swap3\n      pop\n      pop\n      dup2\n      swap1\n      sstore\n      pop\n        /* \"@openzeppelin/contracts/token/ERC20/ERC20.sol\":6906:7331  if (to == address(0)) {... */\n    tag_337:\n        /* \"@openzeppelin/contracts/token/ERC20/ERC20.sol\":7361:7363  to */\n      dup2\n        /* \"@openzeppelin/contracts/token/ERC20/ERC20.sol\":7346:7371  Transfer(from, to, value) */\n      0xffffffffffffffffffffffffffffffffffffffff\n      and\n        /* \"@openzeppelin/contracts/token/ERC20/ERC20.sol\":7355:7359  from */\n      dup4\n        /* \"@openzeppelin/contracts/token/ERC20/ERC20.sol\":7346:7371  Transfer(from, to, value) */\n      0xffffffffffffffffffffffffffffffffffffffff\n      and\n      0xddf252ad1be2c89b69c2b068fc378daa952ba7f163c4a11628f55a4df523b3ef\n        /* \"@openzeppelin/contracts/token/ERC20/ERC20.sol\":7365:7370  value */\n      dup4\n        /* \"@openzeppelin/contracts/token/ERC20/ERC20.sol\":7346:7371  Transfer(from, to, value) */\n      mload(0x40)\n      tag_338\n      swap2\n      swap1\n      tag_39\n      jump\t// in\n    tag_338:\n      mload(0x40)\n      dup1\n      swap2\n      sub\n      swap1\n      log3\n        /* \"@openzeppelin/contracts/token/ERC20/ERC20.sol\":6271:7378  function _update(address from, address to, uint256 value) internal virtual {... */\n      pop\n      pop\n      pop\n      jump\t// out\n        /* \"@openzeppelin/contracts/utils/ShortStrings.sol\":2555:2800  function byteLength(ShortString sstr) internal pure returns (uint256) {... */\n    tag_325:\n        /* \"@openzeppelin/contracts/utils/ShortStrings.sol\":2616:2623  uint256 */\n      0x00\n        /* \"@openzeppelin/contracts/utils/ShortStrings.sol\":2635:2649  uint256 result */\n      dup1\n        /* \"@openzeppelin/contracts/utils/ShortStrings.sol\":2688:2692  0xFF */\n      0xff\n        /* \"@openzeppelin/contracts/utils/ShortStrings.sol\":2679:2683  sstr */\n      dup4\n        /* \"@openzeppelin/contracts/utils/ShortStrings.sol\":2652:2685  uint256(ShortString.unwrap(sstr)) */\n      0x00\n      shr\n        /* \"@openzeppelin/contracts/utils/ShortStrings.sol\":2652:2692  uint256(ShortString.unwrap(sstr)) & 0xFF */\n      and\n        /* \"@openzeppelin/contracts/utils/ShortStrings.sol\":2635:2692  uint256 result = uint256(ShortString.unwrap(sstr)) & 0xFF */\n      swap1\n      pop\n        /* \"@openzeppelin/contracts/utils/ShortStrings.sol\":2715:2717  31 */\n      0x1f\n        /* \"@openzeppelin/contracts/utils/ShortStrings.sol\":2706:2712  result */\n      dup2\n        /* \"@openzeppelin/contracts/utils/ShortStrings.sol\":2706:2717  result > 31 */\n      gt\n        /* \"@openzeppelin/contracts/utils/ShortStrings.sol\":2702:2771  if (result > 31) {... */\n      iszero\n      tag_340\n      jumpi\n        /* \"@openzeppelin/contracts/utils/ShortStrings.sol\":2740:2760  InvalidShortString() */\n      mload(0x40)\n      0xb3512b0c00000000000000000000000000000000000000000000000000000000\n      dup2\n      mstore\n      0x04\n      add\n      mload(0x40)\n      dup1\n      swap2\n      sub\n      swap1\n      revert\n        /* \"@openzeppelin/contracts/utils/ShortStrings.sol\":2702:2771  if (result > 31) {... */\n    tag_340:\n        /* \"@openzeppelin/contracts/utils/ShortStrings.sol\":2787:2793  result */\n      dup1\n        /* \"@openzeppelin/contracts/utils/ShortStrings.sol\":2780:2793  return result */\n      swap2\n      pop\n      pop\n        /* \"@openzeppelin/contracts/utils/ShortStrings.sol\":2555:2800  function byteLength(ShortString sstr) internal pure returns (uint256) {... */\n      swap2\n      swap1\n      pop\n      jump\t// out\n        /* \"#utility.yul\":7:106   */\n    tag_341:\n        /* \"#utility.yul\":59:65   */\n      0x00\n        /* \"#utility.yul\":93:98   */\n      dup2\n        /* \"#utility.yul\":87:99   */\n      mload\n        /* \"#utility.yul\":77:99   */\n      swap1\n      pop\n        /* \"#utility.yul\":7:106   */\n      swap2\n      swap1\n      pop\n      jump\t// out\n        /* \"#utility.yul\":112:281   */\n    tag_342:\n        /* \"#utility.yul\":196:207   */\n      0x00\n        /* \"#utility.yul\":230:236   */\n      dup3\n        /* \"#utility.yul\":225:228   */\n      dup3\n        /* \"#utility.yul\":218:237   */\n      mstore\n        /* \"#utility.yul\":270:274   */\n      0x20\n        /* \"#utility.yul\":265:268   */\n      dup3\n        /* \"#utility.yul\":261:275   */\n      add\n        /* \"#utility.yul\":246:275   */\n      swap1\n      pop\n        /* \"#utility.yul\":112:281   */\n      swap3\n      swap2\n      pop\n      pop\n      jump\t// out\n        /* \"#utility.yul\":287:533   */\n    tag_343:\n        /* \"#utility.yul\":368:369   */\n      0x00\n        /* \"#utility.yul\":378:491   */\n    tag_383:\n        /* \"#utility.yul\":392:398   */\n      dup4\n        /* \"#utility.yul\":389:390   */\n      dup2\n        /* \"#utility.yul\":386:399   */\n      lt\n        /* \"#utility.yul\":378:491   */\n      iszero\n      tag_385\n      jumpi\n        /* \"#utility.yul\":477:478   */\n      dup1\n        /* \"#utility.yul\":472:475   */\n      dup3\n        /* \"#utility.yul\":468:479   */\n      add\n        /* \"#utility.yul\":462:480   */\n      mload\n        /* \"#utility.yul\":458:459   */\n      dup2\n        /* \"#utility.yul\":453:456   */\n      dup5\n        /* \"#utility.yul\":449:460   */\n      add\n        /* \"#utility.yul\":442:481   */\n      mstore\n        /* \"#utility.yul\":414:416   */\n      0x20\n        /* \"#utility.yul\":411:412   */\n      dup2\n        /* \"#utility.yul\":407:417   */\n      add\n        /* \"#utility.yul\":402:417   */\n      swap1\n      pop\n        /* \"#utility.yul\":378:491   */\n      jump(tag_383)\n    tag_385:\n        /* \"#utility.yul\":525:526   */\n      0x00\n        /* \"#utility.yul\":516:522   */\n      dup5\n        /* \"#utility.yul\":511:514   */\n      dup5\n        /* \"#utility.yul\":507:523   */\n      add\n        /* \"#utility.yul\":500:527   */\n      mstore\n        /* \"#utility.yul\":349:533   */\n      pop\n        /* \"#utility.yul\":287:533   */\n      pop\n      pop\n      pop\n      jump\t// out\n        /* \"#utility.yul\":539:641   */\n    tag_344:\n        /* \"#utility.yul\":580:586   */\n      0x00\n        /* \"#utility.yul\":631:633   */\n      0x1f\n        /* \"#utility.yul\":627:634   */\n      not\n        /* \"#utility.yul\":622:624   */\n      0x1f\n        /* \"#utility.yul\":615:620   */\n      dup4\n        /* \"#utility.yul\":611:625   */\n      add\n        /* \"#utility.yul\":607:635   */\n      and\n        /* \"#utility.yul\":597:635   */\n      swap1\n      pop\n        /* \"#utility.yul\":539:641   */\n      swap2\n      swap1\n      pop\n      jump\t// out\n        /* \"#utility.yul\":647:1024   */\n    tag_345:\n        /* \"#utility.yul\":735:738   */\n      0x00\n        /* \"#utility.yul\":763:802   */\n      tag_388\n        /* \"#utility.yul\":796:801   */\n      dup3\n        /* \"#utility.yul\":763:802   */\n      tag_341\n      jump\t// in\n    tag_388:\n        /* \"#utility.yul\":818:889   */\n      tag_389\n        /* \"#utility.yul\":882:888   */\n      dup2\n        /* \"#utility.yul\":877:880   */\n      dup6\n        /* \"#utility.yul\":818:889   */\n      tag_342\n      jump\t// in\n    tag_389:\n        /* \"#utility.yul\":811:889   */\n      swap4\n      pop\n        /* \"#utility.yul\":898:963   */\n      tag_390\n        /* \"#utility.yul\":956:962   */\n      dup2\n        /* \"#utility.yul\":951:954   */\n      dup6\n        /* \"#utility.yul\":944:948   */\n      0x20\n        /* \"#utility.yul\":937:942   */\n      dup7\n        /* \"#utility.yul\":933:949   */\n      add\n        /* \"#utility.yul\":898:963   */\n      tag_343\n      jump\t// in\n    tag_390:\n        /* \"#utility.yul\":988:1017   */\n      tag_391\n        /* \"#utility.yul\":1010:1016   */\n      dup2\n        /* \"#utility.yul\":988:1017   */\n      tag_344\n      jump\t// in\n    tag_391:\n        /* \"#utility.yul\":983:986   */\n      dup5\n        /* \"#utility.yul\":979:1018   */\n      add\n        /* \"#utility.yul\":972:1018   */\n      swap2\n      pop\n        /* \"#utility.yul\":739:1024   */\n      pop\n        /* \"#utility.yul\":647:1024   */\n      swap3\n      swap2\n      pop\n      pop\n      jump\t// out\n        /* \"#utility.yul\":1030:1343   */\n    tag_29:\n        /* \"#utility.yul\":1143:1147   */\n      0x00\n        /* \"#utility.yul\":1181:1183   */\n      0x20\n        /* \"#utility.yul\":1170:1179   */\n      dup3\n        /* \"#utility.yul\":1166:1184   */\n      add\n        /* \"#utility.yul\":1158:1184   */\n      swap1\n      pop\n        /* \"#utility.yul\":1230:1239   */\n      dup2\n        /* \"#utility.yul\":1224:1228   */\n      dup2\n        /* \"#utility.yul\":1220:1240   */\n      sub\n        /* \"#utility.yul\":1216:1217   */\n      0x00\n        /* \"#utility.yul\":1205:1214   */\n      dup4\n        /* \"#utility.yul\":1201:1218   */\n      add\n        /* \"#utility.yul\":1194:1241   */\n      mstore\n        /* \"#utility.yul\":1258:1336   */\n      tag_393\n        /* \"#utility.yul\":1331:1335   */\n      dup2\n        /* \"#utility.yul\":1322:1328   */\n      dup5\n        /* \"#utility.yul\":1258:1336   */\n      tag_345\n      jump\t// in\n    tag_393:\n        /* \"#utility.yul\":1250:1336   */\n      swap1\n      pop\n        /* \"#utility.yul\":1030:1343   */\n      swap3\n      swap2\n      pop\n      pop\n      jump\t// out\n        /* \"#utility.yul\":1430:1547   */\n    tag_347:\n        /* \"#utility.yul\":1539:1540   */\n      0x00\n        /* \"#utility.yul\":1536:1537   */\n      dup1\n        /* \"#utility.yul\":1529:1541   */\n      revert\n        /* \"#utility.yul\":1676:1802   */\n    tag_349:\n        /* \"#utility.yul\":1713:1720   */\n      0x00\n        /* \"#utility.yul\":1753:1795   */\n      0xffffffffffffffffffffffffffffffffffffffff\n        /* \"#utility.yul\":1746:1751   */\n      dup3\n        /* \"#utility.yul\":1742:1796   */\n      and\n        /* \"#utility.yul\":1731:1796   */\n      swap1\n      pop\n        /* \"#utility.yul\":1676:1802   */\n      swap2\n      swap1\n      pop\n      jump\t// out\n        /* \"#utility.yul\":1808:1904   */\n    tag_350:\n        /* \"#utility.yul\":1845:1852   */\n      0x00\n        /* \"#utility.yul\":1874:1898   */\n      tag_399\n        /* \"#utility.yul\":1892:1897   */\n      dup3\n        /* \"#utility.yul\":1874:1898   */\n      tag_349\n      jump\t// in\n    tag_399:\n        /* \"#utility.yul\":1863:1898   */\n      swap1\n      pop\n        /* \"#utility.yul\":1808:1904   */\n      swap2\n      swap1\n      pop\n      jump\t// out\n        /* \"#utility.yul\":1910:2032   */\n    tag_351:\n        /* \"#utility.yul\":1983:2007   */\n      tag_401\n        /* \"#utility.yul\":2001:2006   */\n      dup2\n        /* \"#utility.yul\":1983:2007   */\n      tag_350\n      jump\t// in\n    tag_401:\n        /* \"#utility.yul\":1976:1981   */\n      dup2\n        /* \"#utility.yul\":1973:2008   */\n      eq\n        /* \"#utility.yul\":1963:2026   */\n      tag_402\n      jumpi\n        /* \"#utility.yul\":2022:2023   */\n      0x00\n        /* \"#utility.yul\":2019:2020   */\n      dup1\n        /* \"#utility.yul\":2012:2024   */\n      revert\n        /* \"#utility.yul\":1963:2026   */\n    tag_402:\n        /* \"#utility.yul\":1910:2032   */\n      pop\n      jump\t// out\n        /* \"#utility.yul\":2038:2177   */\n    tag_352:\n        /* \"#utility.yul\":2084:2089   */\n      0x00\n        /* \"#utility.yul\":2122:2128   */\n      dup2\n        /* \"#utility.yul\":2109:2129   */\n      calldataload\n        /* \"#utility.yul\":2100:2129   */\n      swap1\n      pop\n        /* \"#utility.yul\":2138:2171   */\n      tag_404\n        /* \"#utility.yul\":2165:2170   */\n      dup2\n        /* \"#utility.yul\":2138:2171   */\n      tag_351\n      jump\t// in\n    tag_404:\n        /* \"#utility.yul\":2038:2177   */\n      swap3\n      swap2\n      pop\n      pop\n      jump\t// out\n        /* \"#utility.yul\":2183:2260   */\n    tag_353:\n        /* \"#utility.yul\":2220:2227   */\n      0x00\n        /* \"#utility.yul\":2249:2254   */\n      dup2\n        /* \"#utility.yul\":2238:2254   */\n      swap1\n      pop\n        /* \"#utility.yul\":2183:2260   */\n      swap2\n      swap1\n      pop\n      jump\t// out\n        /* \"#utility.yul\":2266:2388   */\n    tag_354:\n        /* \"#utility.yul\":2339:2363   */\n      tag_407\n        /* \"#utility.yul\":2357:2362   */\n      dup2\n        /* \"#utility.yul\":2339:2363   */\n      tag_353\n      jump\t// in\n    tag_407:\n        /* \"#utility.yul\":2332:2337   */\n      dup2\n        /* \"#utility.yul\":2329:2364   */\n      eq\n        /* \"#utility.yul\":2319:2382   */\n      tag_408\n      jumpi\n        /* \"#utility.yul\":2378:2379   */\n      0x00\n        /* \"#utility.yul\":2375:2376   */\n      dup1\n        /* \"#utility.yul\":2368:2380   */\n      revert\n        /* \"#utility.yul\":2319:2382   */\n    tag_408:\n        /* \"#utility.yul\":2266:2388   */\n      pop\n      jump\t// out\n        /* \"#utility.yul\":2394:2533   */\n    tag_355:\n        /* \"#utility.yul\":2440:2445   */\n      0x00\n        /* \"#utility.yul\":2478:2484   */\n      dup2\n        /* \"#utility.yul\":2465:2485   */\n      calldataload\n        /* \"#utility.yul\":2456:2485   */\n      swap1\n      pop\n        /* \"#utility.yul\":2494:2527   */\n      tag_410\n        /* \"#utility.yul\":2521:2526   */\n      dup2\n        /* \"#utility.yul\":2494:2527   */\n      tag_354\n      jump\t// in\n    tag_410:\n        /* \"#utility.yul\":2394:2533   */\n      swap3\n      swap2\n      pop\n      pop\n      jump\t// out\n        /* \"#utility.yul\":2539:3013   */\n    tag_32:\n        /* \"#utility.yul\":2607:2613   */\n      0x00\n        /* \"#utility.yul\":2615:2621   */\n      dup1\n        /* \"#utility.yul\":2664:2666   */\n      0x40\n        /* \"#utility.yul\":2652:2661   */\n      dup4\n        /* \"#utility.yul\":2643:2650   */\n      dup6\n        /* \"#utility.yul\":2639:2662   */\n      sub\n        /* \"#utility.yul\":2635:2667   */\n      slt\n        /* \"#utility.yul\":2632:2751   */\n      iszero\n      tag_412\n      jumpi\n        /* \"#utility.yul\":2670:2749   */\n      tag_413\n      tag_347\n      jump\t// in\n    tag_413:\n        /* \"#utility.yul\":2632:2751   */\n    tag_412:\n        /* \"#utility.yul\":2790:2791   */\n      0x00\n        /* \"#utility.yul\":2815:2868   */\n      tag_414\n        /* \"#utility.yul\":2860:2867   */\n      dup6\n        /* \"#utility.yul\":2851:2857   */\n      dup3\n        /* \"#utility.yul\":2840:2849   */\n      dup7\n        /* \"#utility.yul\":2836:2858   */\n      add\n        /* \"#utility.yul\":2815:2868   */\n      tag_352\n      jump\t// in\n    tag_414:\n        /* \"#utility.yul\":2805:2868   */\n      swap3\n      pop\n        /* \"#utility.yul\":2761:2878   */\n      pop\n        /* \"#utility.yul\":2917:2919   */\n      0x20\n        /* \"#utility.yul\":2943:2996   */\n      tag_415\n        /* \"#utility.yul\":2988:2995   */\n      dup6\n        /* \"#utility.yul\":2979:2985   */\n      dup3\n        /* \"#utility.yul\":2968:2977   */\n      dup7\n        /* \"#utility.yul\":2964:2986   */\n      add\n        /* \"#utility.yul\":2943:2996   */\n      tag_355\n      jump\t// in\n    tag_415:\n        /* \"#utility.yul\":2933:2996   */\n      swap2\n      pop\n        /* \"#utility.yul\":2888:3006   */\n      pop\n        /* \"#utility.yul\":2539:3013   */\n      swap3\n      pop\n      swap3\n      swap1\n      pop\n      jump\t// out\n        /* \"#utility.yul\":3019:3109   */\n    tag_356:\n        /* \"#utility.yul\":3053:3060   */\n      0x00\n        /* \"#utility.yul\":3096:3101   */\n      dup2\n        /* \"#utility.yul\":3089:3102   */\n      iszero\n        /* \"#utility.yul\":3082:3103   */\n      iszero\n        /* \"#utility.yul\":3071:3103   */\n      swap1\n      pop\n        /* \"#utility.yul\":3019:3109   */\n      swap2\n      swap1\n      pop\n      jump\t// out\n        /* \"#utility.yul\":3115:3224   */\n    tag_357:\n        /* \"#utility.yul\":3196:3217   */\n      tag_418\n        /* \"#utility.yul\":3211:3216   */\n      dup2\n        /* \"#utility.yul\":3196:3217   */\n      tag_356\n      jump\t// in\n    tag_418:\n        /* \"#utility.yul\":3191:3194   */\n      dup3\n        /* \"#utility.yul\":3184:3218   */\n      mstore\n        /* \"#utility.yul\":3115:3224   */\n      pop\n      pop\n      jump\t// out\n        /* \"#utility.yul\":3230:3440   */\n    tag_35:\n        /* \"#utility.yul\":3317:3321   */\n      0x00\n        /* \"#utility.yul\":3355:3357   */\n      0x20\n        /* \"#utility.yul\":3344:3353   */\n      dup3\n        /* \"#utility.yul\":3340:3358   */\n      add\n        /* \"#utility.yul\":3332:3358   */\n      swap1\n      pop\n        /* \"#utility.yul\":3368:3433   */\n      tag_420\n        /* \"#utility.yul\":3430:3431   */\n      0x00\n        /* \"#utility.yul\":3419:3428   */\n      dup4\n        /* \"#utility.yul\":3415:3432   */\n      add\n        /* \"#utility.yul\":3406:3412   */\n      dup5\n        /* \"#utility.yul\":3368:3433   */\n      tag_357\n      jump\t// in\n    tag_420:\n        /* \"#utility.yul\":3230:3440   */\n      swap3\n      swap2\n      pop\n      pop\n      jump\t// out\n        /* \"#utility.yul\":3446:3564   */\n    tag_358:\n        /* \"#utility.yul\":3533:3557   */\n      tag_422\n        /* \"#utility.yul\":3551:3556   */\n      dup2\n        /* \"#utility.yul\":3533:3557   */\n      tag_353\n      jump\t// in\n    tag_422:\n        /* \"#utility.yul\":3528:3531   */\n      dup3\n        /* \"#utility.yul\":3521:3558   */\n      mstore\n        /* \"#utility.yul\":3446:3564   */\n      pop\n      pop\n      jump\t// out\n        /* \"#utility.yul\":3570:3792   */\n    tag_39:\n        /* \"#utility.yul\":3663:3667   */\n      0x00\n        /* \"#utility.yul\":3701:3703   */\n      0x20\n        /* \"#utility.yul\":3690:3699   */\n      dup3\n        /* \"#utility.yul\":3686:3704   */\n      add\n        /* \"#utility.yul\":3678:3704   */\n      swap1\n      pop\n        /* \"#utility.yul\":3714:3785   */\n      tag_424\n        /* \"#utility.yul\":3782:3783   */\n      0x00\n        /* \"#utility.yul\":3771:3780   */\n      dup4\n        /* \"#utility.yul\":3767:3784   */\n      add\n        /* \"#utility.yul\":3758:3764   */\n      dup5\n        /* \"#utility.yul\":3714:3785   */\n      tag_358\n      jump\t// in\n    tag_424:\n        /* \"#utility.yul\":3570:3792   */\n      swap3\n      swap2\n      pop\n      pop\n      jump\t// out\n        /* \"#utility.yul\":3798:4417   */\n    tag_42:\n        /* \"#utility.yul\":3875:3881   */\n      0x00\n        /* \"#utility.yul\":3883:3889   */\n      dup1\n        /* \"#utility.yul\":3891:3897   */\n      0x00\n        /* \"#utility.yul\":3940:3942   */\n      0x60\n        /* \"#utility.yul\":3928:3937   */\n      dup5\n        /* \"#utility.yul\":3919:3926   */\n      dup7\n        /* \"#utility.yul\":3915:3938   */\n      sub\n        /* \"#utility.yul\":3911:3943   */\n      slt\n        /* \"#utility.yul\":3908:4027   */\n      iszero\n      tag_426\n      jumpi\n        /* \"#utility.yul\":3946:4025   */\n      tag_427\n      tag_347\n      jump\t// in\n    tag_427:\n        /* \"#utility.yul\":3908:4027   */\n    tag_426:\n        /* \"#utility.yul\":4066:4067   */\n      0x00\n        /* \"#utility.yul\":4091:4144   */\n      tag_428\n        /* \"#utility.yul\":4136:4143   */\n      dup7\n        /* \"#utility.yul\":4127:4133   */\n      dup3\n        /* \"#utility.yul\":4116:4125   */\n      dup8\n        /* \"#utility.yul\":4112:4134   */\n      add\n        /* \"#utility.yul\":4091:4144   */\n      tag_352\n      jump\t// in\n    tag_428:\n        /* \"#utility.yul\":4081:4144   */\n      swap4\n      pop\n        /* \"#utility.yul\":4037:4154   */\n      pop\n        /* \"#utility.yul\":4193:4195   */\n      0x20\n        /* \"#utility.yul\":4219:4272   */\n      tag_429\n        /* \"#utility.yul\":4264:4271   */\n      dup7\n        /* \"#utility.yul\":4255:4261   */\n      dup3\n        /* \"#utility.yul\":4244:4253   */\n      dup8\n        /* \"#utility.yul\":4240:4262   */\n      add\n        /* \"#utility.yul\":4219:4272   */\n      tag_352\n      jump\t// in\n    tag_429:\n        /* \"#utility.yul\":4209:4272   */\n      swap3\n      pop\n        /* \"#utility.yul\":4164:4282   */\n      pop\n        /* \"#utility.yul\":4321:4323   */\n      0x40\n        /* \"#utility.yul\":4347:4400   */\n      tag_430\n        /* \"#utility.yul\":4392:4399   */\n      dup7\n        /* \"#utility.yul\":4383:4389   */\n      dup3\n        /* \"#utility.yul\":4372:4381   */\n      dup8\n        /* \"#utility.yul\":4368:4390   */\n      add\n        /* \"#utility.yul\":4347:4400   */\n      tag_355\n      jump\t// in\n    tag_430:\n        /* \"#utility.yul\":4337:4400   */\n      swap2\n      pop\n        /* \"#utility.yul\":4292:4410   */\n      pop\n        /* \"#utility.yul\":3798:4417   */\n      swap3\n      pop\n      swap3\n      pop\n      swap3\n      jump\t// out\n        /* \"#utility.yul\":4423:4509   */\n    tag_359:\n        /* \"#utility.yul\":4458:4465   */\n      0x00\n        /* \"#utility.yul\":4498:4502   */\n      0xff\n        /* \"#utility.yul\":4491:4496   */\n      dup3\n        /* \"#utility.yul\":4487:4503   */\n      and\n        /* \"#utility.yul\":4476:4503   */\n      swap1\n      pop\n        /* \"#utility.yul\":4423:4509   */\n      swap2\n      swap1\n      pop\n      jump\t// out\n        /* \"#utility.yul\":4515:4627   */\n    tag_360:\n        /* \"#utility.yul\":4598:4620   */\n      tag_433\n        /* \"#utility.yul\":4614:4619   */\n      dup2\n        /* \"#utility.yul\":4598:4620   */\n      tag_359\n      jump\t// in\n    tag_433:\n        /* \"#utility.yul\":4593:4596   */\n      dup3\n        /* \"#utility.yul\":4586:4621   */\n      mstore\n        /* \"#utility.yul\":4515:4627   */\n      pop\n      pop\n      jump\t// out\n        /* \"#utility.yul\":4633:4847   */\n    tag_48:\n        /* \"#utility.yul\":4722:4726   */\n      0x00\n        /* \"#utility.yul\":4760:4762   */\n      0x20\n        /* \"#utility.yul\":4749:4758   */\n      dup3\n        /* \"#utility.yul\":4745:4763   */\n      add\n        /* \"#utility.yul\":4737:4763   */\n      swap1\n      pop\n        /* \"#utility.yul\":4773:4840   */\n      tag_435\n        /* \"#utility.yul\":4837:4838   */\n      0x00\n        /* \"#utility.yul\":4826:4835   */\n      dup4\n        /* \"#utility.yul\":4822:4839   */\n      add\n        /* \"#utility.yul\":4813:4819   */\n      dup5\n        /* \"#utility.yul\":4773:4840   */\n      tag_360\n      jump\t// in\n    tag_435:\n        /* \"#utility.yul\":4633:4847   */\n      swap3\n      swap2\n      pop\n      pop\n      jump\t// out\n        /* \"#utility.yul\":4853:4930   */\n    tag_361:\n        /* \"#utility.yul\":4890:4897   */\n      0x00\n        /* \"#utility.yul\":4919:4924   */\n      dup2\n        /* \"#utility.yul\":4908:4924   */\n      swap1\n      pop\n        /* \"#utility.yul\":4853:4930   */\n      swap2\n      swap1\n      pop\n      jump\t// out\n        /* \"#utility.yul\":4936:5054   */\n    tag_362:\n        /* \"#utility.yul\":5023:5047   */\n      tag_438\n        /* \"#utility.yul\":5041:5046   */\n      dup2\n        /* \"#utility.yul\":5023:5047   */\n      tag_361\n      jump\t// in\n    tag_438:\n        /* \"#utility.yul\":5018:5021   */\n      dup3\n        /* \"#utility.yul\":5011:5048   */\n      mstore\n        /* \"#utility.yul\":4936:5054   */\n      pop\n      pop\n      jump\t// out\n        /* \"#utility.yul\":5060:5282   */\n    tag_52:\n        /* \"#utility.yul\":5153:5157   */\n      0x00\n        /* \"#utility.yul\":5191:5193   */\n      0x20\n        /* \"#utility.yul\":5180:5189   */\n      dup3\n        /* \"#utility.yul\":5176:5194   */\n      add\n        /* \"#utility.yul\":5168:5194   */\n      swap1\n      pop\n        /* \"#utility.yul\":5204:5275   */\n      tag_440\n        /* \"#utility.yul\":5272:5273   */\n      0x00\n        /* \"#utility.yul\":5261:5270   */\n      dup4\n        /* \"#utility.yul\":5257:5274   */\n      add\n        /* \"#utility.yul\":5248:5254   */\n      dup5\n        /* \"#utility.yul\":5204:5275   */\n      tag_362\n      jump\t// in\n    tag_440:\n        /* \"#utility.yul\":5060:5282   */\n      swap3\n      swap2\n      pop\n      pop\n      jump\t// out\n        /* \"#utility.yul\":5288:5617   */\n    tag_63:\n        /* \"#utility.yul\":5347:5353   */\n      0x00\n        /* \"#utility.yul\":5396:5398   */\n      0x20\n        /* \"#utility.yul\":5384:5393   */\n      dup3\n        /* \"#utility.yul\":5375:5382   */\n      dup5\n        /* \"#utility.yul\":5371:5394   */\n      sub\n        /* \"#utility.yul\":5367:5399   */\n      slt\n        /* \"#utility.yul\":5364:5483   */\n      iszero\n      tag_442\n      jumpi\n        /* \"#utility.yul\":5402:5481   */\n      tag_443\n      tag_347\n      jump\t// in\n    tag_443:\n        /* \"#utility.yul\":5364:5483   */\n    tag_442:\n        /* \"#utility.yul\":5522:5523   */\n      0x00\n        /* \"#utility.yul\":5547:5600   */\n      tag_444\n        /* \"#utility.yul\":5592:5599   */\n      dup5\n        /* \"#utility.yul\":5583:5589   */\n      dup3\n        /* \"#utility.yul\":5572:5581   */\n      dup6\n        /* \"#utility.yul\":5568:5590   */\n      add\n        /* \"#utility.yul\":5547:5600   */\n      tag_352\n      jump\t// in\n    tag_444:\n        /* \"#utility.yul\":5537:5600   */\n      swap2\n      pop\n        /* \"#utility.yul\":5493:5610   */\n      pop\n        /* \"#utility.yul\":5288:5617   */\n      swap3\n      swap2\n      pop\n      pop\n      jump\t// out\n        /* \"#utility.yul\":5623:5772   */\n    tag_363:\n        /* \"#utility.yul\":5659:5666   */\n      0x00\n        /* \"#utility.yul\":5699:5765   */\n      0xff00000000000000000000000000000000000000000000000000000000000000\n        /* \"#utility.yul\":5692:5697   */\n      dup3\n        /* \"#utility.yul\":5688:5766   */\n      and\n        /* \"#utility.yul\":5677:5766   */\n      swap1\n      pop\n        /* \"#utility.yul\":5623:5772   */\n      swap2\n      swap1\n      pop\n      jump\t// out\n        /* \"#utility.yul\":5778:5893   */\n    tag_364:\n        /* \"#utility.yul\":5863:5886   */\n      tag_447\n        /* \"#utility.yul\":5880:5885   */\n      dup2\n        /* \"#utility.yul\":5863:5886   */\n      tag_363\n      jump\t// in\n    tag_447:\n        /* \"#utility.yul\":5858:5861   */\n      dup3\n        /* \"#utility.yul\":5851:5887   */\n      mstore\n        /* \"#utility.yul\":5778:5893   */\n      pop\n      pop\n      jump\t// out\n        /* \"#utility.yul\":5899:6017   */\n    tag_365:\n        /* \"#utility.yul\":5986:6010   */\n      tag_449\n        /* \"#utility.yul\":6004:6009   */\n      dup2\n        /* \"#utility.yul\":5986:6010   */\n      tag_350\n      jump\t// in\n    tag_449:\n        /* \"#utility.yul\":5981:5984   */\n      dup3\n        /* \"#utility.yul\":5974:6011   */\n      mstore\n        /* \"#utility.yul\":5899:6017   */\n      pop\n      pop\n      jump\t// out\n        /* \"#utility.yul\":6023:6137   */\n    tag_366:\n        /* \"#utility.yul\":6090:6096   */\n      0x00\n        /* \"#utility.yul\":6124:6129   */\n      dup2\n        /* \"#utility.yul\":6118:6130   */\n      mload\n        /* \"#utility.yul\":6108:6130   */\n      swap1\n      pop\n        /* \"#utility.yul\":6023:6137   */\n      swap2\n      swap1\n      pop\n      jump\t// out\n        /* \"#utility.yul\":6143:6327   */\n    tag_367:\n        /* \"#utility.yul\":6242:6253   */\n      0x00\n        /* \"#utility.yul\":6276:6282   */\n      dup3\n        /* \"#utility.yul\":6271:6274   */\n      dup3\n        /* \"#utility.yul\":6264:6283   */\n      mstore\n        /* \"#utility.yul\":6316:6320   */\n      0x20\n        /* \"#utility.yul\":6311:6314   */\n      dup3\n        /* \"#utility.yul\":6307:6321   */\n      add\n        /* \"#utility.yul\":6292:6321   */\n      swap1\n      pop\n        /* \"#utility.yul\":6143:6327   */\n      swap3\n      swap2\n      pop\n      pop\n      jump\t// out\n        /* \"#utility.yul\":6333:6465   */\n    tag_368:\n        /* \"#utility.yul\":6400:6404   */\n      0x00\n        /* \"#utility.yul\":6423:6426   */\n      dup2\n        /* \"#utility.yul\":6415:6426   */\n      swap1\n      pop\n        /* \"#utility.yul\":6453:6457   */\n      0x20\n        /* \"#utility.yul\":6448:6451   */\n      dup3\n        /* \"#utility.yul\":6444:6458   */\n      add\n        /* \"#utility.yul\":6436:6458   */\n      swap1\n      pop\n        /* \"#utility.yul\":6333:6465   */\n      swap2\n      swap1\n      pop\n      jump\t// out\n        /* \"#utility.yul\":6471:6579   */\n    tag_369:\n        /* \"#utility.yul\":6548:6572   */\n      tag_454\n        /* \"#utility.yul\":6566:6571   */\n      dup2\n        /* \"#utility.yul\":6548:6572   */\n      tag_353\n      jump\t// in\n    tag_454:\n        /* \"#utility.yul\":6543:6546   */\n      dup3\n        /* \"#utility.yul\":6536:6573   */\n      mstore\n        /* \"#utility.yul\":6471:6579   */\n      pop\n      pop\n      jump\t// out\n        /* \"#utility.yul\":6585:6764   */\n    tag_370:\n        /* \"#utility.yul\":6654:6664   */\n      0x00\n        /* \"#utility.yul\":6675:6721   */\n      tag_456\n        /* \"#utility.yul\":6717:6720   */\n      dup4\n        /* \"#utility.yul\":6709:6715   */\n      dup4\n        /* \"#utility.yul\":6675:6721   */\n      tag_369\n      jump\t// in\n    tag_456:\n        /* \"#utility.yul\":6753:6757   */\n      0x20\n        /* \"#utility.yul\":6748:6751   */\n      dup4\n        /* \"#utility.yul\":6744:6758   */\n      add\n        /* \"#utility.yul\":6730:6758   */\n      swap1\n      pop\n        /* \"#utility.yul\":6585:6764   */\n      swap3\n      swap2\n      pop\n      pop\n      jump\t// out\n        /* \"#utility.yul\":6770:6883   */\n    tag_371:\n        /* \"#utility.yul\":6840:6844   */\n      0x00\n        /* \"#utility.yul\":6872:6876   */\n      0x20\n        /* \"#utility.yul\":6867:6870   */\n      dup3\n        /* \"#utility.yul\":6863:6877   */\n      add\n        /* \"#utility.yul\":6855:6877   */\n      swap1\n      pop\n        /* \"#utility.yul\":6770:6883   */\n      swap2\n      swap1\n      pop\n      jump\t// out\n        /* \"#utility.yul\":6919:7651   */\n    tag_372:\n        /* \"#utility.yul\":7038:7041   */\n      0x00\n        /* \"#utility.yul\":7067:7121   */\n      tag_459\n        /* \"#utility.yul\":7115:7120   */\n      dup3\n        /* \"#utility.yul\":7067:7121   */\n      tag_366\n      jump\t// in\n    tag_459:\n        /* \"#utility.yul\":7137:7223   */\n      tag_460\n        /* \"#utility.yul\":7216:7222   */\n      dup2\n        /* \"#utility.yul\":7211:7214   */\n      dup6\n        /* \"#utility.yul\":7137:7223   */\n      tag_367\n      jump\t// in\n    tag_460:\n        /* \"#utility.yul\":7130:7223   */\n      swap4\n      pop\n        /* \"#utility.yul\":7247:7303   */\n      tag_461\n        /* \"#utility.yul\":7297:7302   */\n      dup4\n        /* \"#utility.yul\":7247:7303   */\n      tag_368\n      jump\t// in\n    tag_461:\n        /* \"#utility.yul\":7326:7333   */\n      dup1\n        /* \"#utility.yul\":7357:7358   */\n      0x00\n        /* \"#utility.yul\":7342:7626   */\n    tag_462:\n        /* \"#utility.yul\":7367:7373   */\n      dup4\n        /* \"#utility.yul\":7364:7365   */\n      dup2\n        /* \"#utility.yul\":7361:7374   */\n      lt\n        /* \"#utility.yul\":7342:7626   */\n      iszero\n      tag_464\n      jumpi\n        /* \"#utility.yul\":7443:7449   */\n      dup2\n        /* \"#utility.yul\":7437:7450   */\n      mload\n        /* \"#utility.yul\":7470:7533   */\n      tag_465\n        /* \"#utility.yul\":7529:7532   */\n      dup9\n        /* \"#utility.yul\":7514:7527   */\n      dup3\n        /* \"#utility.yul\":7470:7533   */\n      tag_370\n      jump\t// in\n    tag_465:\n        /* \"#utility.yul\":7463:7533   */\n      swap8\n      pop\n        /* \"#utility.yul\":7556:7616   */\n      tag_466\n        /* \"#utility.yul\":7609:7615   */\n      dup4\n        /* \"#utility.yul\":7556:7616   */\n      tag_371\n      jump\t// in\n    tag_466:\n        /* \"#utility.yul\":7546:7616   */\n      swap3\n      pop\n        /* \"#utility.yul\":7402:7626   */\n      pop\n        /* \"#utility.yul\":7389:7390   */\n      0x01\n        /* \"#utility.yul\":7386:7387   */\n      dup2\n        /* \"#utility.yul\":7382:7391   */\n      add\n        /* \"#utility.yul\":7377:7391   */\n      swap1\n      pop\n        /* \"#utility.yul\":7342:7626   */\n      jump(tag_462)\n    tag_464:\n        /* \"#utility.yul\":7346:7360   */\n      pop\n        /* \"#utility.yul\":7642:7645   */\n      dup6\n        /* \"#utility.yul\":7635:7645   */\n      swap4\n      pop\n        /* \"#utility.yul\":7043:7651   */\n      pop\n      pop\n      pop\n        /* \"#utility.yul\":6919:7651   */\n      swap3\n      swap2\n      pop\n      pop\n      jump\t// out\n        /* \"#utility.yul\":7657:8872   */\n    tag_77:\n        /* \"#utility.yul\":8006:8010   */\n      0x00\n        /* \"#utility.yul\":8044:8047   */\n      0xe0\n        /* \"#utility.yul\":8033:8042   */\n      dup3\n        /* \"#utility.yul\":8029:8048   */\n      add\n        /* \"#utility.yul\":8021:8048   */\n      swap1\n      pop\n        /* \"#utility.yul\":8058:8127   */\n      tag_468\n        /* \"#utility.yul\":8124:8125   */\n      0x00\n        /* \"#utility.yul\":8113:8122   */\n      dup4\n        /* \"#utility.yul\":8109:8126   */\n      add\n        /* \"#utility.yul\":8100:8106   */\n      dup11\n        /* \"#utility.yul\":8058:8127   */\n      tag_364\n      jump\t// in\n    tag_468:\n        /* \"#utility.yul\":8174:8183   */\n      dup2\n        /* \"#utility.yul\":8168:8172   */\n      dup2\n        /* \"#utility.yul\":8164:8184   */\n      sub\n        /* \"#utility.yul\":8159:8161   */\n      0x20\n        /* \"#utility.yul\":8148:8157   */\n      dup4\n        /* \"#utility.yul\":8144:8162   */\n      add\n        /* \"#utility.yul\":8137:8185   */\n      mstore\n        /* \"#utility.yul\":8202:8280   */\n      tag_469\n        /* \"#utility.yul\":8275:8279   */\n      dup2\n        /* \"#utility.yul\":8266:8272   */\n      dup10\n        /* \"#utility.yul\":8202:8280   */\n      tag_345\n      jump\t// in\n    tag_469:\n        /* \"#utility.yul\":8194:8280   */\n      swap1\n      pop\n        /* \"#utility.yul\":8327:8336   */\n      dup2\n        /* \"#utility.yul\":8321:8325   */\n      dup2\n        /* \"#utility.yul\":8317:8337   */\n      sub\n        /* \"#utility.yul\":8312:8314   */\n      0x40\n        /* \"#utility.yul\":8301:8310   */\n      dup4\n        /* \"#utility.yul\":8297:8315   */\n      add\n        /* \"#utility.yul\":8290:8338   */\n      mstore\n        /* \"#utility.yul\":8355:8433   */\n      tag_470\n        /* \"#utility.yul\":8428:8432   */\n      dup2\n        /* \"#utility.yul\":8419:8425   */\n      dup9\n        /* \"#utility.yul\":8355:8433   */\n      tag_345\n      jump\t// in\n    tag_470:\n        /* \"#utility.yul\":8347:8433   */\n      swap1\n      pop\n        /* \"#utility.yul\":8443:8515   */\n      tag_471\n        /* \"#utility.yul\":8511:8513   */\n      0x60\n        /* \"#utility.yul\":8500:8509   */\n      dup4\n        /* \"#utility.yul\":8496:8514   */\n      add\n        /* \"#utility.yul\":8487:8493   */\n      dup8\n        /* \"#utility.yul\":8443:8515   */\n      tag_358\n      jump\t// in\n    tag_471:\n        /* \"#utility.yul\":8525:8598   */\n      tag_472\n        /* \"#utility.yul\":8593:8596   */\n      0x80\n        /* \"#utility.yul\":8582:8591   */\n      dup4\n        /* \"#utility.yul\":8578:8597   */\n      add\n        /* \"#utility.yul\":8569:8575   */\n      dup7\n        /* \"#utility.yul\":8525:8598   */\n      tag_365\n      jump\t// in\n    tag_472:\n        /* \"#utility.yul\":8608:8681   */\n      tag_473\n        /* \"#utility.yul\":8676:8679   */\n      0xa0\n        /* \"#utility.yul\":8665:8674   */\n      dup4\n        /* \"#utility.yul\":8661:8680   */\n      add\n        /* \"#utility.yul\":8652:8658   */\n      dup6\n        /* \"#utility.yul\":8608:8681   */\n      tag_362\n      jump\t// in\n    tag_473:\n        /* \"#utility.yul\":8729:8738   */\n      dup2\n        /* \"#utility.yul\":8723:8727   */\n      dup2\n        /* \"#utility.yul\":8719:8739   */\n      sub\n        /* \"#utility.yul\":8713:8716   */\n      0xc0\n        /* \"#utility.yul\":8702:8711   */\n      dup4\n        /* \"#utility.yul\":8698:8717   */\n      add\n        /* \"#utility.yul\":8691:8740   */\n      mstore\n        /* \"#utility.yul\":8757:8865   */\n      tag_474\n        /* \"#utility.yul\":8860:8864   */\n      dup2\n        /* \"#utility.yul\":8851:8857   */\n      dup5\n        /* \"#utility.yul\":8757:8865   */\n      tag_372\n      jump\t// in\n    tag_474:\n        /* \"#utility.yul\":8749:8865   */\n      swap1\n      pop\n        /* \"#utility.yul\":7657:8872   */\n      swap9\n      swap8\n      pop\n      pop\n      pop\n      pop\n      pop\n      pop\n      pop\n      pop\n      jump\t// out\n        /* \"#utility.yul\":8878:9100   */\n    tag_81:\n        /* \"#utility.yul\":8971:8975   */\n      0x00\n        /* \"#utility.yul\":9009:9011   */\n      0x20\n        /* \"#utility.yul\":8998:9007   */\n      dup3\n        /* \"#utility.yul\":8994:9012   */\n      add\n        /* \"#utility.yul\":8986:9012   */\n      swap1\n      pop\n        /* \"#utility.yul\":9022:9093   */\n      tag_476\n        /* \"#utility.yul\":9090:9091   */\n      0x00\n        /* \"#utility.yul\":9079:9088   */\n      dup4\n        /* \"#utility.yul\":9075:9092   */\n      add\n        /* \"#utility.yul\":9066:9072   */\n      dup5\n        /* \"#utility.yul\":9022:9093   */\n      tag_365\n      jump\t// in\n    tag_476:\n        /* \"#utility.yul\":8878:9100   */\n      swap3\n      swap2\n      pop\n      pop\n      jump\t// out\n        /* \"#utility.yul\":9106:9224   */\n    tag_373:\n        /* \"#utility.yul\":9177:9199   */\n      tag_478\n        /* \"#utility.yul\":9193:9198   */\n      dup2\n        /* \"#utility.yul\":9177:9199   */\n      tag_359\n      jump\t// in\n    tag_478:\n        /* \"#utility.yul\":9170:9175   */\n      dup2\n        /* \"#utility.yul\":9167:9200   */\n      eq\n        /* \"#utility.yul\":9157:9218   */\n      tag_479\n      jumpi\n        /* \"#utility.yul\":9214:9215   */\n      0x00\n        /* \"#utility.yul\":9211:9212   */\n      dup1\n        /* \"#utility.yul\":9204:9216   */\n      revert\n        /* \"#utility.yul\":9157:9218   */\n    tag_479:\n        /* \"#utility.yul\":9106:9224   */\n      pop\n      jump\t// out\n        /* \"#utility.yul\":9230:9365   */\n    tag_374:\n        /* \"#utility.yul\":9274:9279   */\n      0x00\n        /* \"#utility.yul\":9312:9318   */\n      dup2\n        /* \"#utility.yul\":9299:9319   */\n      calldataload\n        /* \"#utility.yul\":9290:9319   */\n      swap1\n      pop\n        /* \"#utility.yul\":9328:9359   */\n      tag_481\n        /* \"#utility.yul\":9353:9358   */\n      dup2\n        /* \"#utility.yul\":9328:9359   */\n      tag_373\n      jump\t// in\n    tag_481:\n        /* \"#utility.yul\":9230:9365   */\n      swap3\n      swap2\n      pop\n      pop\n      jump\t// out\n        /* \"#utility.yul\":9371:9493   */\n    tag_375:\n        /* \"#utility.yul\":9444:9468   */\n      tag_483\n        /* \"#utility.yul\":9462:9467   */\n      dup2\n        /* \"#utility.yul\":9444:9468   */\n      tag_361\n      jump\t// in\n    tag_483:\n        /* \"#utility.yul\":9437:9442   */\n      dup2\n        /* \"#utility.yul\":9434:9469   */\n      eq\n        /* \"#utility.yul\":9424:9487   */\n      tag_484\n      jumpi\n        /* \"#utility.yul\":9483:9484   */\n      0x00\n        /* \"#utility.yul\":9480:9481   */\n      dup1\n        /* \"#utility.yul\":9473:9485   */\n      revert\n        /* \"#utility.yul\":9424:9487   */\n    tag_484:\n        /* \"#utility.yul\":9371:9493   */\n      pop\n      jump\t// out\n        /* \"#utility.yul\":9499:9638   */\n    tag_376:\n        /* \"#utility.yul\":9545:9550   */\n      0x00\n        /* \"#utility.yul\":9583:9589   */\n      dup2\n        /* \"#utility.yul\":9570:9590   */\n      calldataload\n        /* \"#utility.yul\":9561:9590   */\n      swap1\n      pop\n        /* \"#utility.yul\":9599:9632   */\n      tag_486\n        /* \"#utility.yul\":9626:9631   */\n      dup2\n        /* \"#utility.yul\":9599:9632   */\n      tag_375\n      jump\t// in\n    tag_486:\n        /* \"#utility.yul\":9499:9638   */\n      swap3\n      swap2\n      pop\n      pop\n      jump\t// out\n        /* \"#utility.yul\":9644:10843   */\n    tag_91:\n        /* \"#utility.yul\":9755:9761   */\n      0x00\n        /* \"#utility.yul\":9763:9769   */\n      dup1\n        /* \"#utility.yul\":9771:9777   */\n      0x00\n        /* \"#utility.yul\":9779:9785   */\n      dup1\n        /* \"#utility.yul\":9787:9793   */\n      0x00\n        /* \"#utility.yul\":9795:9801   */\n      dup1\n        /* \"#utility.yul\":9803:9809   */\n      0x00\n        /* \"#utility.yul\":9852:9855   */\n      0xe0\n        /* \"#utility.yul\":9840:9849   */\n      dup9\n        /* \"#utility.yul\":9831:9838   */\n      dup11\n        /* \"#utility.yul\":9827:9850   */\n      sub\n        /* \"#utility.yul\":9823:9856   */\n      slt\n        /* \"#utility.yul\":9820:9940   */\n      iszero\n      tag_488\n      jumpi\n        /* \"#utility.yul\":9859:9938   */\n      tag_489\n      tag_347\n      jump\t// in\n    tag_489:\n        /* \"#utility.yul\":9820:9940   */\n    tag_488:\n        /* \"#utility.yul\":9979:9980   */\n      0x00\n        /* \"#utility.yul\":10004:10057   */\n      tag_490\n        /* \"#utility.yul\":10049:10056   */\n      dup11\n        /* \"#utility.yul\":10040:10046   */\n      dup3\n        /* \"#utility.yul\":10029:10038   */\n      dup12\n        /* \"#utility.yul\":10025:10047   */\n      add\n        /* \"#utility.yul\":10004:10057   */\n      tag_352\n      jump\t// in\n    tag_490:\n        /* \"#utility.yul\":9994:10057   */\n      swap8\n      pop\n        /* \"#utility.yul\":9950:10067   */\n      pop\n        /* \"#utility.yul\":10106:10108   */\n      0x20\n        /* \"#utility.yul\":10132:10185   */\n      tag_491\n        /* \"#utility.yul\":10177:10184   */\n      dup11\n        /* \"#utility.yul\":10168:10174   */\n      dup3\n        /* \"#utility.yul\":10157:10166   */\n      dup12\n        /* \"#utility.yul\":10153:10175   */\n      add\n        /* \"#utility.yul\":10132:10185   */\n      tag_352\n      jump\t// in\n    tag_491:\n        /* \"#utility.yul\":10122:10185   */\n      swap7\n      pop\n        /* \"#utility.yul\":10077:10195   */\n      pop\n        /* \"#utility.yul\":10234:10236   */\n      0x40\n        /* \"#utility.yul\":10260:10313   */\n      tag_492\n        /* \"#utility.yul\":10305:10312   */\n      dup11\n        /* \"#utility.yul\":10296:10302   */\n      dup3\n        /* \"#utility.yul\":10285:10294   */\n      dup12\n        /* \"#utility.yul\":10281:10303   */\n      add\n        /* \"#utility.yul\":10260:10313   */\n      tag_355\n      jump\t// in\n    tag_492:\n        /* \"#utility.yul\":10250:10313   */\n      swap6\n      pop\n        /* \"#utility.yul\":10205:10323   */\n      pop\n        /* \"#utility.yul\":10362:10364   */\n      0x60\n        /* \"#utility.yul\":10388:10441   */\n      tag_493\n        /* \"#utility.yul\":10433:10440   */\n      dup11\n        /* \"#utility.yul\":10424:10430   */\n      dup3\n        /* \"#utility.yul\":10413:10422   */\n      dup12\n        /* \"#utility.yul\":10409:10431   */\n      add\n        /* \"#utility.yul\":10388:10441   */\n      tag_355\n      jump\t// in\n    tag_493:\n        /* \"#utility.yul\":10378:10441   */\n      swap5\n      pop\n        /* \"#utility.yul\":10333:10451   */\n      pop\n        /* \"#utility.yul\":10490:10493   */\n      0x80\n        /* \"#utility.yul\":10517:10568   */\n      tag_494\n        /* \"#utility.yul\":10560:10567   */\n      dup11\n        /* \"#utility.yul\":10551:10557   */\n      dup3\n        /* \"#utility.yul\":10540:10549   */\n      dup12\n        /* \"#utility.yul\":10536:10558   */\n      add\n        /* \"#utility.yul\":10517:10568   */\n      tag_374\n      jump\t// in\n    tag_494:\n        /* \"#utility.yul\":10507:10568   */\n      swap4\n      pop\n        /* \"#utility.yul\":10461:10578   */\n      pop\n        /* \"#utility.yul\":10617:10620   */\n      0xa0\n        /* \"#utility.yul\":10644:10697   */\n      tag_495\n        /* \"#utility.yul\":10689:10696   */\n      dup11\n        /* \"#utility.yul\":10680:10686   */\n      dup3\n        /* \"#utility.yul\":10669:10678   */\n      dup12\n        /* \"#utility.yul\":10665:10687   */\n      add\n        /* \"#utility.yul\":10644:10697   */\n      tag_376\n      jump\t// in\n    tag_495:\n        /* \"#utility.yul\":10634:10697   */\n      swap3\n      pop\n        /* \"#utility.yul\":10588:10707   */\n      pop\n        /* \"#utility.yul\":10746:10749   */\n      0xc0\n        /* \"#utility.yul\":10773:10826   */\n      tag_496\n        /* \"#utility.yul\":10818:10825   */\n      dup11\n        /* \"#utility.yul\":10809:10815   */\n      dup3\n        /* \"#utility.yul\":10798:10807   */\n      dup12\n        /* \"#utility.yul\":10794:10816   */\n      add\n        /* \"#utility.yul\":10773:10826   */\n      tag_376\n      jump\t// in\n    tag_496:\n        /* \"#utility.yul\":10763:10826   */\n      swap2\n      pop\n        /* \"#utility.yul\":10717:10836   */\n      pop\n        /* \"#utility.yul\":9644:10843   */\n      swap3\n      swap6\n      swap9\n      swap2\n      swap5\n      swap8\n      pop\n      swap3\n      swap6\n      pop\n      jump\t// out\n        /* \"#utility.yul\":10849:11323   */\n    tag_95:\n        /* \"#utility.yul\":10917:10923   */\n      0x00\n        /* \"#utility.yul\":10925:10931   */\n      dup1\n        /* \"#utility.yul\":10974:10976   */\n      0x40\n        /* \"#utility.yul\":10962:10971   */\n      dup4\n        /* \"#utility.yul\":10953:10960   */\n      dup6\n        /* \"#utility.yul\":10949:10972   */\n      sub\n        /* \"#utility.yul\":10945:10977   */\n      slt\n        /* \"#utility.yul\":10942:11061   */\n      iszero\n      tag_498\n      jumpi\n        /* \"#utility.yul\":10980:11059   */\n      tag_499\n      tag_347\n      jump\t// in\n    tag_499:\n        /* \"#utility.yul\":10942:11061   */\n    tag_498:\n        /* \"#utility.yul\":11100:11101   */\n      0x00\n        /* \"#utility.yul\":11125:11178   */\n      tag_500\n        /* \"#utility.yul\":11170:11177   */\n      dup6\n        /* \"#utility.yul\":11161:11167   */\n      dup3\n        /* \"#utility.yul\":11150:11159   */\n      dup7\n        /* \"#utility.yul\":11146:11168   */\n      add\n        /* \"#utility.yul\":11125:11178   */\n      tag_352\n      jump\t// in\n    tag_500:\n        /* \"#utility.yul\":11115:11178   */\n      swap3\n      pop\n        /* \"#utility.yul\":11071:11188   */\n      pop\n        /* \"#utility.yul\":11227:11229   */\n      0x20\n        /* \"#utility.yul\":11253:11306   */\n      tag_501\n        /* \"#utility.yul\":11298:11305   */\n      dup6\n        /* \"#utility.yul\":11289:11295   */\n      dup3\n        /* \"#utility.yul\":11278:11287   */\n      dup7\n        /* \"#utility.yul\":11274:11296   */\n      add\n        /* \"#utility.yul\":11253:11306   */\n      tag_352\n      jump\t// in\n    tag_501:\n        /* \"#utility.yul\":11243:11306   */\n      swap2\n      pop\n        /* \"#utility.yul\":11198:11316   */\n      pop\n        /* \"#utility.yul\":10849:11323   */\n      swap3\n      pop\n      swap3\n      swap1\n      pop\n      jump\t// out\n        /* \"#utility.yul\":11329:11509   */\n    tag_377:\n        /* \"#utility.yul\":11377:11454   */\n      0x4e487b7100000000000000000000000000000000000000000000000000000000\n        /* \"#utility.yul\":11374:11375   */\n      0x00\n        /* \"#utility.yul\":11367:11455   */\n      mstore\n        /* \"#utility.yul\":11474:11478   */\n      0x22\n        /* \"#utility.yul\":11471:11472   */\n      0x04\n        /* \"#utility.yul\":11464:11479   */\n      mstore\n        /* \"#utility.yul\":11498:11502   */\n      0x24\n        /* \"#utility.yul\":11495:11496   */\n      0x00\n        /* \"#utility.yul\":11488:11503   */\n      revert\n        /* \"#utility.yul\":11515:11835   */\n    tag_103:\n        /* \"#utility.yul\":11559:11565   */\n      0x00\n        /* \"#utility.yul\":11596:11597   */\n      0x02\n        /* \"#utility.yul\":11590:11594   */\n      dup3\n        /* \"#utility.yul\":11586:11598   */\n      div\n        /* \"#utility.yul\":11576:11598   */\n      swap1\n      pop\n        /* \"#utility.yul\":11643:11644   */\n      0x01\n        /* \"#utility.yul\":11637:11641   */\n      dup3\n        /* \"#utility.yul\":11633:11645   */\n      and\n        /* \"#utility.yul\":11664:11682   */\n      dup1\n        /* \"#utility.yul\":11654:11735   */\n      tag_504\n      jumpi\n        /* \"#utility.yul\":11720:11724   */\n      0x7f\n        /* \"#utility.yul\":11712:11718   */\n      dup3\n        /* \"#utility.yul\":11708:11725   */\n      and\n        /* \"#utility.yul\":11698:11725   */\n      swap2\n      pop\n        /* \"#utility.yul\":11654:11735   */\n    tag_504:\n        /* \"#utility.yul\":11782:11784   */\n      0x20\n        /* \"#utility.yul\":11774:11780   */\n      dup3\n        /* \"#utility.yul\":11771:11785   */\n      lt\n        /* \"#utility.yul\":11751:11769   */\n      dup2\n        /* \"#utility.yul\":11748:11786   */\n      sub\n        /* \"#utility.yul\":11745:11829   */\n      tag_505\n      jumpi\n        /* \"#utility.yul\":11801:11819   */\n      tag_506\n      tag_377\n      jump\t// in\n    tag_506:\n        /* \"#utility.yul\":11745:11829   */\n    tag_505:\n        /* \"#utility.yul\":11566:11835   */\n      pop\n        /* \"#utility.yul\":11515:11835   */\n      swap2\n      swap1\n      pop\n      jump\t// out\n        /* \"#utility.yul\":11841:12021   */\n    tag_157:\n        /* \"#utility.yul\":11889:11966   */\n      0x4e487b7100000000000000000000000000000000000000000000000000000000\n        /* \"#utility.yul\":11886:11887   */\n      0x00\n        /* \"#utility.yul\":11879:11967   */\n      mstore\n        /* \"#utility.yul\":11986:11990   */\n      0x41\n        /* \"#utility.yul\":11983:11984   */\n      0x04\n        /* \"#utility.yul\":11976:11991   */\n      mstore\n        /* \"#utility.yul\":12010:12014   */\n      0x24\n        /* \"#utility.yul\":12007:12008   */\n      0x00\n        /* \"#utility.yul\":12000:12015   */\n      revert\n        /* \"#utility.yul\":12027:12802   */\n    tag_175:\n        /* \"#utility.yul\":12260:12264   */\n      0x00\n        /* \"#utility.yul\":12298:12301   */\n      0xc0\n        /* \"#utility.yul\":12287:12296   */\n      dup3\n        /* \"#utility.yul\":12283:12302   */\n      add\n        /* \"#utility.yul\":12275:12302   */\n      swap1\n      pop\n        /* \"#utility.yul\":12312:12383   */\n      tag_509\n        /* \"#utility.yul\":12380:12381   */\n      0x00\n        /* \"#utility.yul\":12369:12378   */\n      dup4\n        /* \"#utility.yul\":12365:12382   */\n      add\n        /* \"#utility.yul\":12356:12362   */\n      dup10\n        /* \"#utility.yul\":12312:12383   */\n      tag_362\n      jump\t// in\n    tag_509:\n        /* \"#utility.yul\":12393:12465   */\n      tag_510\n        /* \"#utility.yul\":12461:12463   */\n      0x20\n        /* \"#utility.yul\":12450:12459   */\n      dup4\n        /* \"#utility.yul\":12446:12464   */\n      add\n        /* \"#utility.yul\":12437:12443   */\n      dup9\n        /* \"#utility.yul\":12393:12465   */\n      tag_365\n      jump\t// in\n    tag_510:\n        /* \"#utility.yul\":12475:12547   */\n      tag_511\n        /* \"#utility.yul\":12543:12545   */\n      0x40\n        /* \"#utility.yul\":12532:12541   */\n      dup4\n        /* \"#utility.yul\":12528:12546   */\n      add\n        /* \"#utility.yul\":12519:12525   */\n      dup8\n        /* \"#utility.yul\":12475:12547   */\n      tag_365\n      jump\t// in\n    tag_511:\n        /* \"#utility.yul\":12557:12629   */\n      tag_512\n        /* \"#utility.yul\":12625:12627   */\n      0x60\n        /* \"#utility.yul\":12614:12623   */\n      dup4\n        /* \"#utility.yul\":12610:12628   */\n      add\n        /* \"#utility.yul\":12601:12607   */\n      dup7\n        /* \"#utility.yul\":12557:12629   */\n      tag_358\n      jump\t// in\n    tag_512:\n        /* \"#utility.yul\":12639:12712   */\n      tag_513\n        /* \"#utility.yul\":12707:12710   */\n      0x80\n        /* \"#utility.yul\":12696:12705   */\n      dup4\n        /* \"#utility.yul\":12692:12711   */\n      add\n        /* \"#utility.yul\":12683:12689   */\n      dup6\n        /* \"#utility.yul\":12639:12712   */\n      tag_358\n      jump\t// in\n    tag_513:\n        /* \"#utility.yul\":12722:12795   */\n      tag_514\n        /* \"#utility.yul\":12790:12793   */\n      0xa0\n        /* \"#utility.yul\":12779:12788   */\n      dup4\n        /* \"#utility.yul\":12775:12794   */\n      add\n        /* \"#utility.yul\":12766:12772   */\n      dup5\n        /* \"#utility.yul\":12722:12795   */\n      tag_358\n      jump\t// in\n    tag_514:\n        /* \"#utility.yul\":12027:12802   */\n      swap8\n      swap7\n      pop\n      pop\n      pop\n      pop\n      pop\n      pop\n      pop\n      jump\t// out\n        /* \"#utility.yul\":12808:13140   */\n    tag_182:\n        /* \"#utility.yul\":12929:12933   */\n      0x00\n        /* \"#utility.yul\":12967:12969   */\n      0x40\n        /* \"#utility.yul\":12956:12965   */\n      dup3\n        /* \"#utility.yul\":12952:12970   */\n      add\n        /* \"#utility.yul\":12944:12970   */\n      swap1\n      pop\n        /* \"#utility.yul\":12980:13051   */\n      tag_516\n        /* \"#utility.yul\":13048:13049   */\n      0x00\n        /* \"#utility.yul\":13037:13046   */\n      dup4\n        /* \"#utility.yul\":13033:13050   */\n      add\n        /* \"#utility.yul\":13024:13030   */\n      dup6\n        /* \"#utility.yul\":12980:13051   */\n      tag_365\n      jump\t// in\n    tag_516:\n        /* \"#utility.yul\":13061:13133   */\n      tag_517\n        /* \"#utility.yul\":13129:13131   */\n      0x20\n        /* \"#utility.yul\":13118:13127   */\n      dup4\n        /* \"#utility.yul\":13114:13132   */\n      add\n        /* \"#utility.yul\":13105:13111   */\n      dup5\n        /* \"#utility.yul\":13061:13133   */\n      tag_365\n      jump\t// in\n    tag_517:\n        /* \"#utility.yul\":12808:13140   */\n      swap4\n      swap3\n      pop\n      pop\n      pop\n      jump\t// out\n        /* \"#utility.yul\":13146:13588   */\n    tag_200:\n        /* \"#utility.yul\":13295:13299   */\n      0x00\n        /* \"#utility.yul\":13333:13335   */\n      0x60\n        /* \"#utility.yul\":13322:13331   */\n      dup3\n        /* \"#utility.yul\":13318:13336   */\n      add\n        /* \"#utility.yul\":13310:13336   */\n      swap1\n      pop\n        /* \"#utility.yul\":13346:13417   */\n      tag_519\n        /* \"#utility.yul\":13414:13415   */\n      0x00\n        /* \"#utility.yul\":13403:13412   */\n      dup4\n        /* \"#utility.yul\":13399:13416   */\n      add\n        /* \"#utility.yul\":13390:13396   */\n      dup7\n        /* \"#utility.yul\":13346:13417   */\n      tag_365\n      jump\t// in\n    tag_519:\n        /* \"#utility.yul\":13427:13499   */\n      tag_520\n        /* \"#utility.yul\":13495:13497   */\n      0x20\n        /* \"#utility.yul\":13484:13493   */\n      dup4\n        /* \"#utility.yul\":13480:13498   */\n      add\n        /* \"#utility.yul\":13471:13477   */\n      dup6\n        /* \"#utility.yul\":13427:13499   */\n      tag_358\n      jump\t// in\n    tag_520:\n        /* \"#utility.yul\":13509:13581   */\n      tag_521\n        /* \"#utility.yul\":13577:13579   */\n      0x40\n        /* \"#utility.yul\":13566:13575   */\n      dup4\n        /* \"#utility.yul\":13562:13580   */\n      add\n        /* \"#utility.yul\":13553:13559   */\n      dup5\n        /* \"#utility.yul\":13509:13581   */\n      tag_358\n      jump\t// in\n    tag_521:\n        /* \"#utility.yul\":13146:13588   */\n      swap5\n      swap4\n      pop\n      pop\n      pop\n      pop\n      jump\t// out\n        /* \"#utility.yul\":13594:14258   */\n    tag_266:\n        /* \"#utility.yul\":13799:13803   */\n      0x00\n        /* \"#utility.yul\":13837:13840   */\n      0xa0\n        /* \"#utility.yul\":13826:13835   */\n      dup3\n        /* \"#utility.yul\":13822:13841   */\n      add\n        /* \"#utility.yul\":13814:13841   */\n      swap1\n      pop\n        /* \"#utility.yul\":13851:13922   */\n      tag_523\n        /* \"#utility.yul\":13919:13920   */\n      0x00\n        /* \"#utility.yul\":13908:13917   */\n      dup4\n        /* \"#utility.yul\":13904:13921   */\n      add\n        /* \"#utility.yul\":13895:13901   */\n      dup9\n        /* \"#utility.yul\":13851:13922   */\n      tag_362\n      jump\t// in\n    tag_523:\n        /* \"#utility.yul\":13932:14004   */\n      tag_524\n        /* \"#utility.yul\":14000:14002   */\n      0x20\n        /* \"#utility.yul\":13989:13998   */\n      dup4\n        /* \"#utility.yul\":13985:14003   */\n      add\n        /* \"#utility.yul\":13976:13982   */\n      dup8\n        /* \"#utility.yul\":13932:14004   */\n      tag_362\n      jump\t// in\n    tag_524:\n        /* \"#utility.yul\":14014:14086   */\n      tag_525\n        /* \"#utility.yul\":14082:14084   */\n      0x40\n        /* \"#utility.yul\":14071:14080   */\n      dup4\n        /* \"#utility.yul\":14067:14085   */\n      add\n        /* \"#utility.yul\":14058:14064   */\n      dup7\n        /* \"#utility.yul\":14014:14086   */\n      tag_362\n      jump\t// in\n    tag_525:\n        /* \"#utility.yul\":14096:14168   */\n      tag_526\n        /* \"#utility.yul\":14164:14166   */\n      0x60\n        /* \"#utility.yul\":14153:14162   */\n      dup4\n        /* \"#utility.yul\":14149:14167   */\n      add\n        /* \"#utility.yul\":14140:14146   */\n      dup6\n        /* \"#utility.yul\":14096:14168   */\n      tag_358\n      jump\t// in\n    tag_526:\n        /* \"#utility.yul\":14178:14251   */\n      tag_527\n        /* \"#utility.yul\":14246:14249   */\n      0x80\n        /* \"#utility.yul\":14235:14244   */\n      dup4\n        /* \"#utility.yul\":14231:14250   */\n      add\n        /* \"#utility.yul\":14222:14228   */\n      dup5\n        /* \"#utility.yul\":14178:14251   */\n      tag_365\n      jump\t// in\n    tag_527:\n        /* \"#utility.yul\":13594:14258   */\n      swap7\n      swap6\n      pop\n      pop\n      pop\n      pop\n      pop\n      pop\n      jump\t// out\n        /* \"#utility.yul\":14264:14809   */\n    tag_287:\n        /* \"#utility.yul\":14437:14441   */\n      0x00\n        /* \"#utility.yul\":14475:14478   */\n      0x80\n        /* \"#utility.yul\":14464:14473   */\n      dup3\n        /* \"#utility.yul\":14460:14479   */\n      add\n        /* \"#utility.yul\":14452:14479   */\n      swap1\n      pop\n        /* \"#utility.yul\":14489:14560   */\n      tag_529\n        /* \"#utility.yul\":14557:14558   */\n      0x00\n        /* \"#utility.yul\":14546:14555   */\n      dup4\n        /* \"#utility.yul\":14542:14559   */\n      add\n        /* \"#utility.yul\":14533:14539   */\n      dup8\n        /* \"#utility.yul\":14489:14560   */\n      tag_362\n      jump\t// in\n    tag_529:\n        /* \"#utility.yul\":14570:14638   */\n      tag_530\n        /* \"#utility.yul\":14634:14636   */\n      0x20\n        /* \"#utility.yul\":14623:14632   */\n      dup4\n        /* \"#utility.yul\":14619:14637   */\n      add\n        /* \"#utility.yul\":14610:14616   */\n      dup7\n        /* \"#utility.yul\":14570:14638   */\n      tag_360\n      jump\t// in\n    tag_530:\n        /* \"#utility.yul\":14648:14720   */\n      tag_531\n        /* \"#utility.yul\":14716:14718   */\n      0x40\n        /* \"#utility.yul\":14705:14714   */\n      dup4\n        /* \"#utility.yul\":14701:14719   */\n      add\n        /* \"#utility.yul\":14692:14698   */\n      dup6\n        /* \"#utility.yul\":14648:14720   */\n      tag_362\n      jump\t// in\n    tag_531:\n        /* \"#utility.yul\":14730:14802   */\n      tag_532\n        /* \"#utility.yul\":14798:14800   */\n      0x60\n        /* \"#utility.yul\":14787:14796   */\n      dup4\n        /* \"#utility.yul\":14783:14801   */\n      add\n        /* \"#utility.yul\":14774:14780   */\n      dup5\n        /* \"#utility.yul\":14730:14802   */\n      tag_362\n      jump\t// in\n    tag_532:\n        /* \"#utility.yul\":14264:14809   */\n      swap6\n      swap5\n      pop\n      pop\n      pop\n      pop\n      pop\n      jump\t// out\n        /* \"#utility.yul\":14815:14995   */\n    tag_294:\n        /* \"#utility.yul\":14863:14940   */\n      0x4e487b7100000000000000000000000000000000000000000000000000000000\n        /* \"#utility.yul\":14860:14861   */\n      0x00\n        /* \"#utility.yul\":14853:14941   */\n      mstore\n        /* \"#utility.yul\":14960:14964   */\n      0x21\n        /* \"#utility.yul\":14957:14958   */\n      0x04\n        /* \"#utility.yul\":14950:14965   */\n      mstore\n        /* \"#utility.yul\":14984:14988   */\n      0x24\n        /* \"#utility.yul\":14981:14982   */\n      0x00\n        /* \"#utility.yul\":14974:14989   */\n      revert\n        /* \"#utility.yul\":15001:15181   */\n    tag_378:\n        /* \"#utility.yul\":15049:15126   */\n      0x4e487b7100000000000000000000000000000000000000000000000000000000\n        /* \"#utility.yul\":15046:15047   */\n      0x00\n        /* \"#utility.yul\":15039:15127   */\n      mstore\n        /* \"#utility.yul\":15146:15150   */\n      0x11\n        /* \"#utility.yul\":15143:15144   */\n      0x04\n        /* \"#utility.yul\":15136:15151   */\n      mstore\n        /* \"#utility.yul\":15170:15174   */\n      0x24\n        /* \"#utility.yul\":15167:15168   */\n      0x00\n        /* \"#utility.yul\":15160:15175   */\n      revert\n        /* \"#utility.yul\":15187:15378   */\n    tag_332:\n        /* \"#utility.yul\":15227:15230   */\n      0x00\n        /* \"#utility.yul\":15246:15266   */\n      tag_536\n        /* \"#utility.yul\":15264:15265   */\n      dup3\n        /* \"#utility.yul\":15246:15266   */\n      tag_353\n      jump\t// in\n    tag_536:\n        /* \"#utility.yul\":15241:15266   */\n      swap2\n      pop\n        /* \"#utility.yul\":15280:15300   */\n      tag_537\n        /* \"#utility.yul\":15298:15299   */\n      dup4\n        /* \"#utility.yul\":15280:15300   */\n      tag_353\n      jump\t// in\n    tag_537:\n        /* \"#utility.yul\":15275:15300   */\n      swap3\n      pop\n        /* \"#utility.yul\":15323:15324   */\n      dup3\n        /* \"#utility.yul\":15320:15321   */\n      dup3\n        /* \"#utility.yul\":15316:15325   */\n      add\n        /* \"#utility.yul\":15309:15325   */\n      swap1\n      pop\n        /* \"#utility.yul\":15344:15347   */\n      dup1\n        /* \"#utility.yul\":15341:15342   */\n      dup3\n        /* \"#utility.yul\":15338:15348   */\n      gt\n        /* \"#utility.yul\":15335:15371   */\n      iszero\n      tag_538\n      jumpi\n        /* \"#utility.yul\":15351:15369   */\n      tag_539\n      tag_378\n      jump\t// in\n    tag_539:\n        /* \"#utility.yul\":15335:15371   */\n    tag_538:\n        /* \"#utility.yul\":15187:15378   */\n      swap3\n      swap2\n      pop\n      pop\n      jump\t// out\n\n    auxdata: 0xa26469706673582212200d0881f8f0e45b8688ed1c1212c41471fd5a1b897221fda5c658af5036ec3b0764736f6c63430008160033\n}\n",
				"bytecode": {
					"linkReferences": {},
					"object": "61016060405234801562000011575f80fd5b506040516200318a3803806200318a83398181016040528101906200003791906200086e565b6040518060400160405280600881526020017f50616c546f6b656e000000000000000000000000000000000000000000000000815250806040518060400160405280600181526020017f3100000000000000000000000000000000000000000000000000000000000000815250836040518060400160405280600881526020017f50616c546f6b656e0000000000000000000000000000000000000000000000008152506040518060400160405280600381526020017f50544b0000000000000000000000000000000000000000000000000000000000815250816003908162000122919062000b02565b50806004908162000134919062000b02565b5050505f60055f6101000a81548160ff0219169083151502179055505f73ffffffffffffffffffffffffffffffffffffffff168173ffffffffffffffffffffffffffffffffffffffff1603620001c3575f6040517f1e4fbdf7000000000000000000000000000000000000000000000000000000008152600401620001ba919062000bf7565b60405180910390fd5b620001d481620002cb60201b60201c565b50620001eb6006836200039060201b90919060201c565b6101208181525050620002096007826200039060201b90919060201c565b6101408181525050818051906020012060e08181525050808051906020012061010081815250504660a0818152505062000248620003e560201b60201c565b608081815250503073ffffffffffffffffffffffffffffffffffffffff1660c08173ffffffffffffffffffffffffffffffffffffffff1681525050505050620002c4336200029b6200044160201b60201c565b600a620002a9919062000d9b565b6103e8620002b8919062000deb565b6200044960201b60201c565b5062001095565b5f600560019054906101000a900473ffffffffffffffffffffffffffffffffffffffff16905081600560016101000a81548173ffffffffffffffffffffffffffffffffffffffff021916908373ffffffffffffffffffffffffffffffffffffffff1602179055508173ffffffffffffffffffffffffffffffffffffffff168173ffffffffffffffffffffffffffffffffffffffff167f8be0079c531659141344cd1fd0a4f28419497f9722a3daafe3b4186f6b6457e060405160405180910390a35050565b5f602083511015620003b557620003ad83620004d360201b60201c565b9050620003df565b82620003c7836200053d60201b60201c565b5f019081620003d7919062000b02565b5060ff5f1b90505b92915050565b5f7f8b73c3c69bb8fe3d512ecc4cf759cc79239f7b179b0ffacaa9a75d522b39400f60e0516101005146306040516020016200042695949392919062000e60565b60405160208183030381529060405280519060200120905090565b5f6012905090565b5f73ffffffffffffffffffffffffffffffffffffffff168273ffffffffffffffffffffffffffffffffffffffff1603620004bc575f6040517fec442f05000000000000000000000000000000000000000000000000000000008152600401620004b3919062000bf7565b60405180910390fd5b620004cf5f83836200054660201b60201c565b5050565b5f80829050601f815111156200052257826040517f305a27a900000000000000000000000000000000000000000000000000000000815260040162000519919062000f45565b60405180910390fd5b805181620005309062000f96565b5f1c175f1b915050919050565b5f819050919050565b620005598383836200055e60201b60201c565b505050565b6200056e6200058660201b60201c565b62000581838383620005d060201b60201c565b505050565b62000596620007f460201b60201c565b15620005ce576040517fd93c066500000000000000000000000000000000000000000000000000000000815260040160405180910390fd5b565b5f73ffffffffffffffffffffffffffffffffffffffff168373ffffffffffffffffffffffffffffffffffffffff160362000624578060025f82825462000617919062001005565b92505081905550620006f5565b5f805f8573ffffffffffffffffffffffffffffffffffffffff1673ffffffffffffffffffffffffffffffffffffffff1681526020019081526020015f2054905081811015620006b0578381836040517fe450d38c000000000000000000000000000000000000000000000000000000008152600401620006a7939291906200103f565b60405180910390fd5b8181035f808673ffffffffffffffffffffffffffffffffffffffff1673ffffffffffffffffffffffffffffffffffffffff1681526020019081526020015f2081905550505b5f73ffffffffffffffffffffffffffffffffffffffff168273ffffffffffffffffffffffffffffffffffffffff16036200073e578060025f828254039250508190555062000788565b805f808473ffffffffffffffffffffffffffffffffffffffff1673ffffffffffffffffffffffffffffffffffffffff1681526020019081526020015f205f82825401925050819055505b8173ffffffffffffffffffffffffffffffffffffffff168373ffffffffffffffffffffffffffffffffffffffff167fddf252ad1be2c89b69c2b068fc378daa952ba7f163c4a11628f55a4df523b3ef83604051620007e791906200107a565b60405180910390a3505050565b5f60055f9054906101000a900460ff16905090565b5f80fd5b5f73ffffffffffffffffffffffffffffffffffffffff82169050919050565b5f62000838826200080d565b9050919050565b6200084a816200082c565b811462000855575f80fd5b50565b5f8151905062000868816200083f565b92915050565b5f6020828403121562000886576200088562000809565b5b5f620008958482850162000858565b91505092915050565b5f81519050919050565b7f4e487b71000000000000000000000000000000000000000000000000000000005f52604160045260245ffd5b7f4e487b71000000000000000000000000000000000000000000000000000000005f52602260045260245ffd5b5f60028204905060018216806200091a57607f821691505b60208210810362000930576200092f620008d5565b5b50919050565b5f819050815f5260205f209050919050565b5f6020601f8301049050919050565b5f82821b905092915050565b5f60088302620009947fffffffffffffffffffffffffffffffffffffffffffffffffffffffffffffffff8262000957565b620009a0868362000957565b95508019841693508086168417925050509392505050565b5f819050919050565b5f819050919050565b5f620009ea620009e4620009de84620009b8565b620009c1565b620009b8565b9050919050565b5f819050919050565b62000a0583620009ca565b62000a1d62000a1482620009f1565b84845462000963565b825550505050565b5f90565b62000a3362000a25565b62000a40818484620009fa565b505050565b5b8181101562000a675762000a5b5f8262000a29565b60018101905062000a46565b5050565b601f82111562000ab65762000a808162000936565b62000a8b8462000948565b8101602085101562000a9b578190505b62000ab362000aaa8562000948565b83018262000a45565b50505b505050565b5f82821c905092915050565b5f62000ad85f198460080262000abb565b1980831691505092915050565b5f62000af2838362000ac7565b9150826002028217905092915050565b62000b0d826200089e565b67ffffffffffffffff81111562000b295762000b28620008a8565b5b62000b35825462000902565b62000b4282828562000a6b565b5f60209050601f83116001811462000b78575f841562000b63578287015190505b62000b6f858262000ae5565b86555062000bde565b601f19841662000b888662000936565b5f5b8281101562000bb15784890151825560018201915060208501945060208101905062000b8a565b8683101562000bd1578489015162000bcd601f89168262000ac7565b8355505b6001600288020188555050505b505050505050565b62000bf1816200082c565b82525050565b5f60208201905062000c0c5f83018462000be6565b92915050565b7f4e487b71000000000000000000000000000000000000000000000000000000005f52601160045260245ffd5b5f8160011c9050919050565b5f808291508390505b600185111562000c9c5780860481111562000c745762000c7362000c12565b5b600185161562000c845780820291505b808102905062000c948562000c3f565b945062000c54565b94509492505050565b5f8262000cb6576001905062000d88565b8162000cc5575f905062000d88565b816001811462000cde576002811462000ce95762000d1f565b600191505062000d88565b60ff84111562000cfe5762000cfd62000c12565b5b8360020a91508482111562000d185762000d1762000c12565b5b5062000d88565b5060208310610133831016604e8410600b841016171562000d595782820a90508381111562000d535762000d5262000c12565b5b62000d88565b62000d68848484600162000c4b565b9250905081840481111562000d825762000d8162000c12565b5b81810290505b9392505050565b5f60ff82169050919050565b5f62000da782620009b8565b915062000db48362000d8f565b925062000de37fffffffffffffffffffffffffffffffffffffffffffffffffffffffffffffffff848462000ca5565b905092915050565b5f62000df782620009b8565b915062000e0483620009b8565b925082820262000e1481620009b8565b9150828204841483151762000e2e5762000e2d62000c12565b5b5092915050565b5f819050919050565b62000e498162000e35565b82525050565b62000e5a81620009b8565b82525050565b5f60a08201905062000e755f83018862000e3e565b62000e84602083018762000e3e565b62000e93604083018662000e3e565b62000ea2606083018562000e4f565b62000eb1608083018462000be6565b9695505050505050565b5f82825260208201905092915050565b5f5b8381101562000eea57808201518184015260208101905062000ecd565b5f8484015250505050565b5f601f19601f8301169050919050565b5f62000f11826200089e565b62000f1d818562000ebb565b935062000f2f81856020860162000ecb565b62000f3a8162000ef5565b840191505092915050565b5f6020820190508181035f83015262000f5f818462000f05565b905092915050565b5f81519050919050565b5f819050602082019050919050565b5f62000f8d825162000e35565b80915050919050565b5f62000fa28262000f67565b8262000fae8462000f71565b905062000fbb8162000f80565b9250602082101562000ffe5762000ff97fffffffffffffffffffffffffffffffffffffffffffffffffffffffffffffffff8360200360080262000957565b831692505b5050919050565b5f6200101182620009b8565b91506200101e83620009b8565b925082820190508082111562001039576200103862000c12565b5b92915050565b5f606082019050620010545f83018662000be6565b62001063602083018562000e4f565b62001072604083018462000e4f565b949350505050565b5f6020820190506200108f5f83018462000e4f565b92915050565b60805160a05160c05160e0516101005161012051610140516120a3620010e75f395f610ea101525f610e6601525f61119101525f61117001525f610ad601525f610b2c01525f610b5501526120a35ff3fe608060405234801561000f575f80fd5b506004361061012a575f3560e01c8063715018a6116100ab57806395d89b411161006f57806395d89b4114610300578063a9059cbb1461031e578063d505accf1461034e578063dd62ed3e1461036a578063f2fde38b1461039a5761012a565b8063715018a61461027a5780637ecebe00146102845780638456cb59146102b457806384b0196e146102be5780638da5cb5b146102e25761012a565b80633644e515116100f25780633644e515146101e85780633f4ba83a1461020657806340c10f19146102105780635c975abb1461022c57806370a082311461024a5761012a565b806306fdde031461012e578063095ea7b31461014c57806318160ddd1461017c57806323b872dd1461019a578063313ce567146101ca575b5f80fd5b6101366103b6565b6040516101439190611913565b60405180910390f35b610166600480360381019061016191906119c4565b610446565b6040516101739190611a1c565b60405180910390f35b610184610468565b6040516101919190611a44565b60405180910390f35b6101b460048036038101906101af9190611a5d565b610471565b6040516101c19190611a1c565b60405180910390f35b6101d261049f565b6040516101df9190611ac8565b60405180910390f35b6101f06104a7565b6040516101fd9190611af9565b60405180910390f35b61020e6104b5565b005b61022a600480360381019061022591906119c4565b6104c7565b005b6102346104dd565b6040516102419190611a1c565b60405180910390f35b610264600480360381019061025f9190611b12565b6104f2565b6040516102719190611a44565b60405180910390f35b610282610537565b005b61029e60048036038101906102999190611b12565b61054a565b6040516102ab9190611a44565b60405180910390f35b6102bc61055b565b005b6102c661056d565b6040516102d99796959493929190611c3d565b60405180910390f35b6102ea610612565b6040516102f79190611cbf565b60405180910390f35b61030861063b565b6040516103159190611913565b60405180910390f35b610338600480360381019061033391906119c4565b6106cb565b6040516103459190611a1c565b60405180910390f35b61036860048036038101906103639190611d2c565b6106ed565b005b610384600480360381019061037f9190611dc9565b610832565b6040516103919190611a44565b60405180910390f35b6103b460048036038101906103af9190611b12565b6108b4565b005b6060600380546103c590611e34565b80601f01602080910402602001604051908101604052809291908181526020018280546103f190611e34565b801561043c5780601f106104135761010080835404028352916020019161043c565b820191905f5260205f20905b81548152906001019060200180831161041f57829003601f168201915b5050505050905090565b5f80610450610938565b905061045d81858561093f565b600191505092915050565b5f600254905090565b5f8061047b610938565b9050610488858285610951565b6104938585856109e3565b60019150509392505050565b5f6012905090565b5f6104b0610ad3565b905090565b6104bd610b89565b6104c5610c10565b565b6104cf610b89565b6104d98282610c71565b5050565b5f60055f9054906101000a900460ff16905090565b5f805f8373ffffffffffffffffffffffffffffffffffffffff1673ffffffffffffffffffffffffffffffffffffffff1681526020019081526020015f20549050919050565b61053f610b89565b6105485f610cf0565b565b5f61055482610db5565b9050919050565b610563610b89565b61056b610dfb565b565b5f6060805f805f606061057e610e5d565b610586610e98565b46305f801b5f67ffffffffffffffff8111156105a5576105a4611e64565b5b6040519080825280602002602001820160405280156105d35781602001602082028036833780820191505090505b507f0f00000000000000000000000000000000000000000000000000000000000000959493929190965096509650965096509650965090919293949596565b5f600560019054906101000a900473ffffffffffffffffffffffffffffffffffffffff16905090565b60606004805461064a90611e34565b80601f016020809104026020016040519081016040528092919081815260200182805461067690611e34565b80156106c15780601f10610698576101008083540402835291602001916106c1565b820191905f5260205f20905b8154815290600101906020018083116106a457829003601f168201915b5050505050905090565b5f806106d5610938565b90506106e28185856109e3565b600191505092915050565b8342111561073257836040517f627913020000000000000000000000000000000000000000000000000000000081526004016107299190611a44565b60405180910390fd5b5f7f6e71edae12b1b97f4d1f60370fef10105fa2faae0126114a169c64845d6126c98888886107608c610ed3565b8960405160200161077696959493929190611e91565b6040516020818303038152906040528051906020012090505f61079882610f26565b90505f6107a782878787610f3f565b90508973ffffffffffffffffffffffffffffffffffffffff168173ffffffffffffffffffffffffffffffffffffffff161461081b57808a6040517f4b800e46000000000000000000000000000000000000000000000000000000008152600401610812929190611ef0565b60405180910390fd5b6108268a8a8a61093f565b50505050505050505050565b5f60015f8473ffffffffffffffffffffffffffffffffffffffff1673ffffffffffffffffffffffffffffffffffffffff1681526020019081526020015f205f8373ffffffffffffffffffffffffffffffffffffffff1673ffffffffffffffffffffffffffffffffffffffff1681526020019081526020015f2054905092915050565b6108bc610b89565b5f73ffffffffffffffffffffffffffffffffffffffff168173ffffffffffffffffffffffffffffffffffffffff160361092c575f6040517f1e4fbdf70000000000000000000000000000000000000000000000000000000081526004016109239190611cbf565b60405180910390fd5b61093581610cf0565b50565b5f33905090565b61094c8383836001610f6d565b505050565b5f61095c8484610832565b90507fffffffffffffffffffffffffffffffffffffffffffffffffffffffffffffffff81146109dd57818110156109ce578281836040517ffb8f41b20000000000000000000000000000000000000000000000000000000081526004016109c593929190611f17565b60405180910390fd5b6109dc84848484035f610f6d565b5b50505050565b5f73ffffffffffffffffffffffffffffffffffffffff168373ffffffffffffffffffffffffffffffffffffffff1603610a53575f6040517f96c6fd1e000000000000000000000000000000000000000000000000000000008152600401610a4a9190611cbf565b60405180910390fd5b5f73ffffffffffffffffffffffffffffffffffffffff168273ffffffffffffffffffffffffffffffffffffffff1603610ac3575f6040517fec442f05000000000000000000000000000000000000000000000000000000008152600401610aba9190611cbf565b60405180910390fd5b610ace83838361113c565b505050565b5f7f000000000000000000000000000000000000000000000000000000000000000073ffffffffffffffffffffffffffffffffffffffff163073ffffffffffffffffffffffffffffffffffffffff16148015610b4e57507f000000000000000000000000000000000000000000000000000000000000000046145b15610b7b577f00000000000000000000000000000000000000000000000000000000000000009050610b86565b610b8361114c565b90505b90565b610b91610938565b73ffffffffffffffffffffffffffffffffffffffff16610baf610612565b73ffffffffffffffffffffffffffffffffffffffff1614610c0e57610bd2610938565b6040517f118cdaa7000000000000000000000000000000000000000000000000000000008152600401610c059190611cbf565b60405180910390fd5b565b610c186111e1565b5f60055f6101000a81548160ff0219169083151502179055507f5db9ee0a495bf2e6ff9c91a7834c1ba4fdd244a5e8aa4e537bd38aeae4b073aa610c5a610938565b604051610c679190611cbf565b60405180910390a1565b5f73ffffffffffffffffffffffffffffffffffffffff168273ffffffffffffffffffffffffffffffffffffffff1603610ce1575f6040517fec442f05000000000000000000000000000000000000000000000000000000008152600401610cd89190611cbf565b60405180910390fd5b610cec5f838361113c565b5050565b5f600560019054906101000a900473ffffffffffffffffffffffffffffffffffffffff16905081600560016101000a81548173ffffffffffffffffffffffffffffffffffffffff021916908373ffffffffffffffffffffffffffffffffffffffff1602179055508173ffffffffffffffffffffffffffffffffffffffff168173ffffffffffffffffffffffffffffffffffffffff167f8be0079c531659141344cd1fd0a4f28419497f9722a3daafe3b4186f6b6457e060405160405180910390a35050565b5f60085f8373ffffffffffffffffffffffffffffffffffffffff1673ffffffffffffffffffffffffffffffffffffffff1681526020019081526020015f20549050919050565b610e03611221565b600160055f6101000a81548160ff0219169083151502179055507f62e78cea01bee320cd4e420270b5ea74000d11b0c9f74754ebdbfc544b05a258610e46610938565b604051610e539190611cbf565b60405180910390a1565b6060610e9360067f000000000000000000000000000000000000000000000000000000000000000061126290919063ffffffff16565b905090565b6060610ece60077f000000000000000000000000000000000000000000000000000000000000000061126290919063ffffffff16565b905090565b5f60085f8373ffffffffffffffffffffffffffffffffffffffff1673ffffffffffffffffffffffffffffffffffffffff1681526020019081526020015f205f815480929190600101919050559050919050565b5f610f38610f32610ad3565b8361130f565b9050919050565b5f805f80610f4f8888888861134f565b925092509250610f5f8282611436565b829350505050949350505050565b5f73ffffffffffffffffffffffffffffffffffffffff168473ffffffffffffffffffffffffffffffffffffffff1603610fdd575f6040517fe602df05000000000000000000000000000000000000000000000000000000008152600401610fd49190611cbf565b60405180910390fd5b5f73ffffffffffffffffffffffffffffffffffffffff168373ffffffffffffffffffffffffffffffffffffffff160361104d575f6040517f94280d620000000000000000000000000000000000000000000000000000000081526004016110449190611cbf565b60405180910390fd5b8160015f8673ffffffffffffffffffffffffffffffffffffffff1673ffffffffffffffffffffffffffffffffffffffff1681526020019081526020015f205f8573ffffffffffffffffffffffffffffffffffffffff1673ffffffffffffffffffffffffffffffffffffffff1681526020019081526020015f20819055508015611136578273ffffffffffffffffffffffffffffffffffffffff168473ffffffffffffffffffffffffffffffffffffffff167f8c5be1e5ebec7d5bd14f71427d1e84f3dd0314c0f7b2291e5b200ac8c7c3b9258460405161112d9190611a44565b60405180910390a35b50505050565b611147838383611598565b505050565b5f7f8b73c3c69bb8fe3d512ecc4cf759cc79239f7b179b0ffacaa9a75d522b39400f7f00000000000000000000000000000000000000000000000000000000000000007f000000000000000000000000000000000000000000000000000000000000000046306040516020016111c6959493929190611f4c565b60405160208183030381529060405280519060200120905090565b6111e96104dd565b61121f576040517f8dfc202b00000000000000000000000000000000000000000000000000000000815260040160405180910390fd5b565b6112296104dd565b15611260576040517fd93c066500000000000000000000000000000000000000000000000000000000815260040160405180910390fd5b565b606060ff5f1b831461127e57611277836115b0565b9050611309565b81805461128a90611e34565b80601f01602080910402602001604051908101604052809291908181526020018280546112b690611e34565b80156113015780601f106112d857610100808354040283529160200191611301565b820191905f5260205f20905b8154815290600101906020018083116112e457829003601f168201915b505050505090505b92915050565b5f6040517f190100000000000000000000000000000000000000000000000000000000000081528360028201528260228201526042812091505092915050565b5f805f7f7fffffffffffffffffffffffffffffff5d576e7357a4501ddfe92f46681b20a0845f1c111561138b575f60038592509250925061142c565b5f6001888888886040515f81526020016040526040516113ae9493929190611f9d565b6020604051602081039080840390855afa1580156113ce573d5f803e3d5ffd5b5050506020604051035190505f73ffffffffffffffffffffffffffffffffffffffff168173ffffffffffffffffffffffffffffffffffffffff160361141f575f60015f801b9350935093505061142c565b805f805f1b935093509350505b9450945094915050565b5f600381111561144957611448611fe0565b5b82600381111561145c5761145b611fe0565b5b0315611594576001600381111561147657611475611fe0565b5b82600381111561148957611488611fe0565b5b036114c0576040517ff645eedf00000000000000000000000000000000000000000000000000000000815260040160405180910390fd5b600260038111156114d4576114d3611fe0565b5b8260038111156114e7576114e6611fe0565b5b0361152b57805f1c6040517ffce698f70000000000000000000000000000000000000000000000000000000081526004016115229190611a44565b60405180910390fd5b60038081111561153e5761153d611fe0565b5b82600381111561155157611550611fe0565b5b0361159357806040517fd78bce0c00000000000000000000000000000000000000000000000000000000815260040161158a9190611af9565b60405180910390fd5b5b5050565b6115a0611221565b6115ab838383611622565b505050565b60605f6115bc8361183b565b90505f602067ffffffffffffffff8111156115da576115d9611e64565b5b6040519080825280601f01601f19166020018201604052801561160c5781602001600182028036833780820191505090505b5090508181528360208201528092505050919050565b5f73ffffffffffffffffffffffffffffffffffffffff168373ffffffffffffffffffffffffffffffffffffffff1603611672578060025f828254611666919061203a565b92505081905550611740565b5f805f8573ffffffffffffffffffffffffffffffffffffffff1673ffffffffffffffffffffffffffffffffffffffff1681526020019081526020015f20549050818110156116fb578381836040517fe450d38c0000000000000000000000000000000000000000000000000000000081526004016116f293929190611f17565b60405180910390fd5b8181035f808673ffffffffffffffffffffffffffffffffffffffff1673ffffffffffffffffffffffffffffffffffffffff1681526020019081526020015f2081905550505b5f73ffffffffffffffffffffffffffffffffffffffff168273ffffffffffffffffffffffffffffffffffffffff1603611787578060025f82825403925050819055506117d1565b805f808473ffffffffffffffffffffffffffffffffffffffff1673ffffffffffffffffffffffffffffffffffffffff1681526020019081526020015f205f82825401925050819055505b8173ffffffffffffffffffffffffffffffffffffffff168373ffffffffffffffffffffffffffffffffffffffff167fddf252ad1be2c89b69c2b068fc378daa952ba7f163c4a11628f55a4df523b3ef8360405161182e9190611a44565b60405180910390a3505050565b5f8060ff835f1c169050601f811115611880576040517fb3512b0c00000000000000000000000000000000000000000000000000000000815260040160405180910390fd5b80915050919050565b5f81519050919050565b5f82825260208201905092915050565b5f5b838110156118c05780820151818401526020810190506118a5565b5f8484015250505050565b5f601f19601f8301169050919050565b5f6118e582611889565b6118ef8185611893565b93506118ff8185602086016118a3565b611908816118cb565b840191505092915050565b5f6020820190508181035f83015261192b81846118db565b905092915050565b5f80fd5b5f73ffffffffffffffffffffffffffffffffffffffff82169050919050565b5f61196082611937565b9050919050565b61197081611956565b811461197a575f80fd5b50565b5f8135905061198b81611967565b92915050565b5f819050919050565b6119a381611991565b81146119ad575f80fd5b50565b5f813590506119be8161199a565b92915050565b5f80604083850312156119da576119d9611933565b5b5f6119e78582860161197d565b92505060206119f8858286016119b0565b9150509250929050565b5f8115159050919050565b611a1681611a02565b82525050565b5f602082019050611a2f5f830184611a0d565b92915050565b611a3e81611991565b82525050565b5f602082019050611a575f830184611a35565b92915050565b5f805f60608486031215611a7457611a73611933565b5b5f611a818682870161197d565b9350506020611a928682870161197d565b9250506040611aa3868287016119b0565b9150509250925092565b5f60ff82169050919050565b611ac281611aad565b82525050565b5f602082019050611adb5f830184611ab9565b92915050565b5f819050919050565b611af381611ae1565b82525050565b5f602082019050611b0c5f830184611aea565b92915050565b5f60208284031215611b2757611b26611933565b5b5f611b348482850161197d565b91505092915050565b5f7fff0000000000000000000000000000000000000000000000000000000000000082169050919050565b611b7181611b3d565b82525050565b611b8081611956565b82525050565b5f81519050919050565b5f82825260208201905092915050565b5f819050602082019050919050565b611bb881611991565b82525050565b5f611bc98383611baf565b60208301905092915050565b5f602082019050919050565b5f611beb82611b86565b611bf58185611b90565b9350611c0083611ba0565b805f5b83811015611c30578151611c178882611bbe565b9750611c2283611bd5565b925050600181019050611c03565b5085935050505092915050565b5f60e082019050611c505f83018a611b68565b8181036020830152611c6281896118db565b90508181036040830152611c7681886118db565b9050611c856060830187611a35565b611c926080830186611b77565b611c9f60a0830185611aea565b81810360c0830152611cb18184611be1565b905098975050505050505050565b5f602082019050611cd25f830184611b77565b92915050565b611ce181611aad565b8114611ceb575f80fd5b50565b5f81359050611cfc81611cd8565b92915050565b611d0b81611ae1565b8114611d15575f80fd5b50565b5f81359050611d2681611d02565b92915050565b5f805f805f805f60e0888a031215611d4757611d46611933565b5b5f611d548a828b0161197d565b9750506020611d658a828b0161197d565b9650506040611d768a828b016119b0565b9550506060611d878a828b016119b0565b9450506080611d988a828b01611cee565b93505060a0611da98a828b01611d18565b92505060c0611dba8a828b01611d18565b91505092959891949750929550565b5f8060408385031215611ddf57611dde611933565b5b5f611dec8582860161197d565b9250506020611dfd8582860161197d565b9150509250929050565b7f4e487b71000000000000000000000000000000000000000000000000000000005f52602260045260245ffd5b5f6002820490506001821680611e4b57607f821691505b602082108103611e5e57611e5d611e07565b5b50919050565b7f4e487b71000000000000000000000000000000000000000000000000000000005f52604160045260245ffd5b5f60c082019050611ea45f830189611aea565b611eb16020830188611b77565b611ebe6040830187611b77565b611ecb6060830186611a35565b611ed86080830185611a35565b611ee560a0830184611a35565b979650505050505050565b5f604082019050611f035f830185611b77565b611f106020830184611b77565b9392505050565b5f606082019050611f2a5f830186611b77565b611f376020830185611a35565b611f446040830184611a35565b949350505050565b5f60a082019050611f5f5f830188611aea565b611f6c6020830187611aea565b611f796040830186611aea565b611f866060830185611a35565b611f936080830184611b77565b9695505050505050565b5f608082019050611fb05f830187611aea565b611fbd6020830186611ab9565b611fca6040830185611aea565b611fd76060830184611aea565b95945050505050565b7f4e487b71000000000000000000000000000000000000000000000000000000005f52602160045260245ffd5b7f4e487b71000000000000000000000000000000000000000000000000000000005f52601160045260245ffd5b5f61204482611991565b915061204f83611991565b92508282019050808211156120675761206661200d565b5b9291505056fea26469706673582212200d0881f8f0e45b8688ed1c1212c41471fd5a1b897221fda5c658af5036ec3b0764736f6c63430008160033",
					"opcodes": "PUSH2 0x160 PUSH1 0x40 MSTORE CALLVALUE DUP1 ISZERO PUSH3 0x11 JUMPI PUSH0 DUP1 REVERT JUMPDEST POP PUSH1 0x40 MLOAD PUSH3 0x318A CODESIZE SUB DUP1 PUSH3 0x318A DUP4 CODECOPY DUP2 DUP2 ADD PUSH1 0x40 MSTORE DUP2 ADD SWAP1 PUSH3 0x37 SWAP2 SWAP1 PUSH3 0x86E JUMP JUMPDEST PUSH1 0x40 MLOAD DUP1 PUSH1 0x40 ADD PUSH1 0x40 MSTORE DUP1 PUSH1 0x8 DUP2 MSTORE PUSH1 0x20 ADD PUSH32 0x50616C546F6B656E000000000000000000000000000000000000000000000000 DUP2 MSTORE POP DUP1 PUSH1 0x40 MLOAD DUP1 PUSH1 0x40 ADD PUSH1 0x40 MSTORE DUP1 PUSH1 0x1 DUP2 MSTORE PUSH1 0x20 ADD PUSH32 0x3100000000000000000000000000000000000000000000000000000000000000 DUP2 MSTORE POP DUP4 PUSH1 0x40 MLOAD DUP1 PUSH1 0x40 ADD PUSH1 0x40 MSTORE DUP1 PUSH1 0x8 DUP2 MSTORE PUSH1 0x20 ADD PUSH32 0x50616C546F6B656E000000000000000000000000000000000000000000000000 DUP2 MSTORE POP PUSH1 0x40 MLOAD DUP1 PUSH1 0x40 ADD PUSH1 0x40 MSTORE DUP1 PUSH1 0x3 DUP2 MSTORE PUSH1 0x20 ADD PUSH32 0x50544B0000000000000000000000000000000000000000000000000000000000 DUP2 MSTORE POP DUP2 PUSH1 0x3 SWAP1 DUP2 PUSH3 0x122 SWAP2 SWAP1 PUSH3 0xB02 JUMP JUMPDEST POP DUP1 PUSH1 0x4 SWAP1 DUP2 PUSH3 0x134 SWAP2 SWAP1 PUSH3 0xB02 JUMP JUMPDEST POP POP POP PUSH0 PUSH1 0x5 PUSH0 PUSH2 0x100 EXP DUP2 SLOAD DUP2 PUSH1 0xFF MUL NOT AND SWAP1 DUP4 ISZERO ISZERO MUL OR SWAP1 SSTORE POP PUSH0 PUSH20 0xFFFFFFFFFFFFFFFFFFFFFFFFFFFFFFFFFFFFFFFF AND DUP2 PUSH20 0xFFFFFFFFFFFFFFFFFFFFFFFFFFFFFFFFFFFFFFFF AND SUB PUSH3 0x1C3 JUMPI PUSH0 PUSH1 0x40 MLOAD PUSH32 0x1E4FBDF700000000000000000000000000000000000000000000000000000000 DUP2 MSTORE PUSH1 0x4 ADD PUSH3 0x1BA SWAP2 SWAP1 PUSH3 0xBF7 JUMP JUMPDEST PUSH1 0x40 MLOAD DUP1 SWAP2 SUB SWAP1 REVERT JUMPDEST PUSH3 0x1D4 DUP2 PUSH3 0x2CB PUSH1 0x20 SHL PUSH1 0x20 SHR JUMP JUMPDEST POP PUSH3 0x1EB PUSH1 0x6 DUP4 PUSH3 0x390 PUSH1 0x20 SHL SWAP1 SWAP2 SWAP1 PUSH1 0x20 SHR JUMP JUMPDEST PUSH2 0x120 DUP2 DUP2 MSTORE POP POP PUSH3 0x209 PUSH1 0x7 DUP3 PUSH3 0x390 PUSH1 0x20 SHL SWAP1 SWAP2 SWAP1 PUSH1 0x20 SHR JUMP JUMPDEST PUSH2 0x140 DUP2 DUP2 MSTORE POP POP DUP2 DUP1 MLOAD SWAP1 PUSH1 0x20 ADD KECCAK256 PUSH1 0xE0 DUP2 DUP2 MSTORE POP POP DUP1 DUP1 MLOAD SWAP1 PUSH1 0x20 ADD KECCAK256 PUSH2 0x100 DUP2 DUP2 MSTORE POP POP CHAINID PUSH1 0xA0 DUP2 DUP2 MSTORE POP POP PUSH3 0x248 PUSH3 0x3E5 PUSH1 0x20 SHL PUSH1 0x20 SHR JUMP JUMPDEST PUSH1 0x80 DUP2 DUP2 MSTORE POP POP ADDRESS PUSH20 0xFFFFFFFFFFFFFFFFFFFFFFFFFFFFFFFFFFFFFFFF AND PUSH1 0xC0 DUP2 PUSH20 0xFFFFFFFFFFFFFFFFFFFFFFFFFFFFFFFFFFFFFFFF AND DUP2 MSTORE POP POP POP POP POP PUSH3 0x2C4 CALLER PUSH3 0x29B PUSH3 0x441 PUSH1 0x20 SHL PUSH1 0x20 SHR JUMP JUMPDEST PUSH1 0xA PUSH3 0x2A9 SWAP2 SWAP1 PUSH3 0xD9B JUMP JUMPDEST PUSH2 0x3E8 PUSH3 0x2B8 SWAP2 SWAP1 PUSH3 0xDEB JUMP JUMPDEST PUSH3 0x449 PUSH1 0x20 SHL PUSH1 0x20 SHR JUMP JUMPDEST POP PUSH3 0x1095 JUMP JUMPDEST PUSH0 PUSH1 0x5 PUSH1 0x1 SWAP1 SLOAD SWAP1 PUSH2 0x100 EXP SWAP1 DIV PUSH20 0xFFFFFFFFFFFFFFFFFFFFFFFFFFFFFFFFFFFFFFFF AND SWAP1 POP DUP2 PUSH1 0x5 PUSH1 0x1 PUSH2 0x100 EXP DUP2 SLOAD DUP2 PUSH20 0xFFFFFFFFFFFFFFFFFFFFFFFFFFFFFFFFFFFFFFFF MUL NOT AND SWAP1 DUP4 PUSH20 0xFFFFFFFFFFFFFFFFFFFFFFFFFFFFFFFFFFFFFFFF AND MUL OR SWAP1 SSTORE POP DUP2 PUSH20 0xFFFFFFFFFFFFFFFFFFFFFFFFFFFFFFFFFFFFFFFF AND DUP2 PUSH20 0xFFFFFFFFFFFFFFFFFFFFFFFFFFFFFFFFFFFFFFFF AND PUSH32 0x8BE0079C531659141344CD1FD0A4F28419497F9722A3DAAFE3B4186F6B6457E0 PUSH1 0x40 MLOAD PUSH1 0x40 MLOAD DUP1 SWAP2 SUB SWAP1 LOG3 POP POP JUMP JUMPDEST PUSH0 PUSH1 0x20 DUP4 MLOAD LT ISZERO PUSH3 0x3B5 JUMPI PUSH3 0x3AD DUP4 PUSH3 0x4D3 PUSH1 0x20 SHL PUSH1 0x20 SHR JUMP JUMPDEST SWAP1 POP PUSH3 0x3DF JUMP JUMPDEST DUP3 PUSH3 0x3C7 DUP4 PUSH3 0x53D PUSH1 0x20 SHL PUSH1 0x20 SHR JUMP JUMPDEST PUSH0 ADD SWAP1 DUP2 PUSH3 0x3D7 SWAP2 SWAP1 PUSH3 0xB02 JUMP JUMPDEST POP PUSH1 0xFF PUSH0 SHL SWAP1 POP JUMPDEST SWAP3 SWAP2 POP POP JUMP JUMPDEST PUSH0 PUSH32 0x8B73C3C69BB8FE3D512ECC4CF759CC79239F7B179B0FFACAA9A75D522B39400F PUSH1 0xE0 MLOAD PUSH2 0x100 MLOAD CHAINID ADDRESS PUSH1 0x40 MLOAD PUSH1 0x20 ADD PUSH3 0x426 SWAP6 SWAP5 SWAP4 SWAP3 SWAP2 SWAP1 PUSH3 0xE60 JUMP JUMPDEST PUSH1 0x40 MLOAD PUSH1 0x20 DUP2 DUP4 SUB SUB DUP2 MSTORE SWAP1 PUSH1 0x40 MSTORE DUP1 MLOAD SWAP1 PUSH1 0x20 ADD KECCAK256 SWAP1 POP SWAP1 JUMP JUMPDEST PUSH0 PUSH1 0x12 SWAP1 POP SWAP1 JUMP JUMPDEST PUSH0 PUSH20 0xFFFFFFFFFFFFFFFFFFFFFFFFFFFFFFFFFFFFFFFF AND DUP3 PUSH20 0xFFFFFFFFFFFFFFFFFFFFFFFFFFFFFFFFFFFFFFFF AND SUB PUSH3 0x4BC JUMPI PUSH0 PUSH1 0x40 MLOAD PUSH32 0xEC442F0500000000000000000000000000000000000000000000000000000000 DUP2 MSTORE PUSH1 0x4 ADD PUSH3 0x4B3 SWAP2 SWAP1 PUSH3 0xBF7 JUMP JUMPDEST PUSH1 0x40 MLOAD DUP1 SWAP2 SUB SWAP1 REVERT JUMPDEST PUSH3 0x4CF PUSH0 DUP4 DUP4 PUSH3 0x546 PUSH1 0x20 SHL PUSH1 0x20 SHR JUMP JUMPDEST POP POP JUMP JUMPDEST PUSH0 DUP1 DUP3 SWAP1 POP PUSH1 0x1F DUP2 MLOAD GT ISZERO PUSH3 0x522 JUMPI DUP3 PUSH1 0x40 MLOAD PUSH32 0x305A27A900000000000000000000000000000000000000000000000000000000 DUP2 MSTORE PUSH1 0x4 ADD PUSH3 0x519 SWAP2 SWAP1 PUSH3 0xF45 JUMP JUMPDEST PUSH1 0x40 MLOAD DUP1 SWAP2 SUB SWAP1 REVERT JUMPDEST DUP1 MLOAD DUP2 PUSH3 0x530 SWAP1 PUSH3 0xF96 JUMP JUMPDEST PUSH0 SHR OR PUSH0 SHL SWAP2 POP POP SWAP2 SWAP1 POP JUMP JUMPDEST PUSH0 DUP2 SWAP1 POP SWAP2 SWAP1 POP JUMP JUMPDEST PUSH3 0x559 DUP4 DUP4 DUP4 PUSH3 0x55E PUSH1 0x20 SHL PUSH1 0x20 SHR JUMP JUMPDEST POP POP POP JUMP JUMPDEST PUSH3 0x56E PUSH3 0x586 PUSH1 0x20 SHL PUSH1 0x20 SHR JUMP JUMPDEST PUSH3 0x581 DUP4 DUP4 DUP4 PUSH3 0x5D0 PUSH1 0x20 SHL PUSH1 0x20 SHR JUMP JUMPDEST POP POP POP JUMP JUMPDEST PUSH3 0x596 PUSH3 0x7F4 PUSH1 0x20 SHL PUSH1 0x20 SHR JUMP JUMPDEST ISZERO PUSH3 0x5CE JUMPI PUSH1 0x40 MLOAD PUSH32 0xD93C066500000000000000000000000000000000000000000000000000000000 DUP2 MSTORE PUSH1 0x4 ADD PUSH1 0x40 MLOAD DUP1 SWAP2 SUB SWAP1 REVERT JUMPDEST JUMP JUMPDEST PUSH0 PUSH20 0xFFFFFFFFFFFFFFFFFFFFFFFFFFFFFFFFFFFFFFFF AND DUP4 PUSH20 0xFFFFFFFFFFFFFFFFFFFFFFFFFFFFFFFFFFFFFFFF AND SUB PUSH3 0x624 JUMPI DUP1 PUSH1 0x2 PUSH0 DUP3 DUP3 SLOAD PUSH3 0x617 SWAP2 SWAP1 PUSH3 0x1005 JUMP JUMPDEST SWAP3 POP POP DUP2 SWAP1 SSTORE POP PUSH3 0x6F5 JUMP JUMPDEST PUSH0 DUP1 PUSH0 DUP6 PUSH20 0xFFFFFFFFFFFFFFFFFFFFFFFFFFFFFFFFFFFFFFFF AND PUSH20 0xFFFFFFFFFFFFFFFFFFFFFFFFFFFFFFFFFFFFFFFF AND DUP2 MSTORE PUSH1 0x20 ADD SWAP1 DUP2 MSTORE PUSH1 0x20 ADD PUSH0 KECCAK256 SLOAD SWAP1 POP DUP2 DUP2 LT ISZERO PUSH3 0x6B0 JUMPI DUP4 DUP2 DUP4 PUSH1 0x40 MLOAD PUSH32 0xE450D38C00000000000000000000000000000000000000000000000000000000 DUP2 MSTORE PUSH1 0x4 ADD PUSH3 0x6A7 SWAP4 SWAP3 SWAP2 SWAP1 PUSH3 0x103F JUMP JUMPDEST PUSH1 0x40 MLOAD DUP1 SWAP2 SUB SWAP1 REVERT JUMPDEST DUP2 DUP2 SUB PUSH0 DUP1 DUP7 PUSH20 0xFFFFFFFFFFFFFFFFFFFFFFFFFFFFFFFFFFFFFFFF AND PUSH20 0xFFFFFFFFFFFFFFFFFFFFFFFFFFFFFFFFFFFFFFFF AND DUP2 MSTORE PUSH1 0x20 ADD SWAP1 DUP2 MSTORE PUSH1 0x20 ADD PUSH0 KECCAK256 DUP2 SWAP1 SSTORE POP POP JUMPDEST PUSH0 PUSH20 0xFFFFFFFFFFFFFFFFFFFFFFFFFFFFFFFFFFFFFFFF AND DUP3 PUSH20 0xFFFFFFFFFFFFFFFFFFFFFFFFFFFFFFFFFFFFFFFF AND SUB PUSH3 0x73E JUMPI DUP1 PUSH1 0x2 PUSH0 DUP3 DUP3 SLOAD SUB SWAP3 POP POP DUP2 SWAP1 SSTORE POP PUSH3 0x788 JUMP JUMPDEST DUP1 PUSH0 DUP1 DUP5 PUSH20 0xFFFFFFFFFFFFFFFFFFFFFFFFFFFFFFFFFFFFFFFF AND PUSH20 0xFFFFFFFFFFFFFFFFFFFFFFFFFFFFFFFFFFFFFFFF AND DUP2 MSTORE PUSH1 0x20 ADD SWAP1 DUP2 MSTORE PUSH1 0x20 ADD PUSH0 KECCAK256 PUSH0 DUP3 DUP3 SLOAD ADD SWAP3 POP POP DUP2 SWAP1 SSTORE POP JUMPDEST DUP2 PUSH20 0xFFFFFFFFFFFFFFFFFFFFFFFFFFFFFFFFFFFFFFFF AND DUP4 PUSH20 0xFFFFFFFFFFFFFFFFFFFFFFFFFFFFFFFFFFFFFFFF AND PUSH32 0xDDF252AD1BE2C89B69C2B068FC378DAA952BA7F163C4A11628F55A4DF523B3EF DUP4 PUSH1 0x40 MLOAD PUSH3 0x7E7 SWAP2 SWAP1 PUSH3 0x107A JUMP JUMPDEST PUSH1 0x40 MLOAD DUP1 SWAP2 SUB SWAP1 LOG3 POP POP POP JUMP JUMPDEST PUSH0 PUSH1 0x5 PUSH0 SWAP1 SLOAD SWAP1 PUSH2 0x100 EXP SWAP1 DIV PUSH1 0xFF AND SWAP1 POP SWAP1 JUMP JUMPDEST PUSH0 DUP1 REVERT JUMPDEST PUSH0 PUSH20 0xFFFFFFFFFFFFFFFFFFFFFFFFFFFFFFFFFFFFFFFF DUP3 AND SWAP1 POP SWAP2 SWAP1 POP JUMP JUMPDEST PUSH0 PUSH3 0x838 DUP3 PUSH3 0x80D JUMP JUMPDEST SWAP1 POP SWAP2 SWAP1 POP JUMP JUMPDEST PUSH3 0x84A DUP2 PUSH3 0x82C JUMP JUMPDEST DUP2 EQ PUSH3 0x855 JUMPI PUSH0 DUP1 REVERT JUMPDEST POP JUMP JUMPDEST PUSH0 DUP2 MLOAD SWAP1 POP PUSH3 0x868 DUP2 PUSH3 0x83F JUMP JUMPDEST SWAP3 SWAP2 POP POP JUMP JUMPDEST PUSH0 PUSH1 0x20 DUP3 DUP5 SUB SLT ISZERO PUSH3 0x886 JUMPI PUSH3 0x885 PUSH3 0x809 JUMP JUMPDEST JUMPDEST PUSH0 PUSH3 0x895 DUP5 DUP3 DUP6 ADD PUSH3 0x858 JUMP JUMPDEST SWAP2 POP POP SWAP3 SWAP2 POP POP JUMP JUMPDEST PUSH0 DUP2 MLOAD SWAP1 POP SWAP2 SWAP1 POP JUMP JUMPDEST PUSH32 0x4E487B7100000000000000000000000000000000000000000000000000000000 PUSH0 MSTORE PUSH1 0x41 PUSH1 0x4 MSTORE PUSH1 0x24 PUSH0 REVERT JUMPDEST PUSH32 0x4E487B7100000000000000000000000000000000000000000000000000000000 PUSH0 MSTORE PUSH1 0x22 PUSH1 0x4 MSTORE PUSH1 0x24 PUSH0 REVERT JUMPDEST PUSH0 PUSH1 0x2 DUP3 DIV SWAP1 POP PUSH1 0x1 DUP3 AND DUP1 PUSH3 0x91A JUMPI PUSH1 0x7F DUP3 AND SWAP2 POP JUMPDEST PUSH1 0x20 DUP3 LT DUP2 SUB PUSH3 0x930 JUMPI PUSH3 0x92F PUSH3 0x8D5 JUMP JUMPDEST JUMPDEST POP SWAP2 SWAP1 POP JUMP JUMPDEST PUSH0 DUP2 SWAP1 POP DUP2 PUSH0 MSTORE PUSH1 0x20 PUSH0 KECCAK256 SWAP1 POP SWAP2 SWAP1 POP JUMP JUMPDEST PUSH0 PUSH1 0x20 PUSH1 0x1F DUP4 ADD DIV SWAP1 POP SWAP2 SWAP1 POP JUMP JUMPDEST PUSH0 DUP3 DUP3 SHL SWAP1 POP SWAP3 SWAP2 POP POP JUMP JUMPDEST PUSH0 PUSH1 0x8 DUP4 MUL PUSH3 0x994 PUSH32 0xFFFFFFFFFFFFFFFFFFFFFFFFFFFFFFFFFFFFFFFFFFFFFFFFFFFFFFFFFFFFFFFF DUP3 PUSH3 0x957 JUMP JUMPDEST PUSH3 0x9A0 DUP7 DUP4 PUSH3 0x957 JUMP JUMPDEST SWAP6 POP DUP1 NOT DUP5 AND SWAP4 POP DUP1 DUP7 AND DUP5 OR SWAP3 POP POP POP SWAP4 SWAP3 POP POP POP JUMP JUMPDEST PUSH0 DUP2 SWAP1 POP SWAP2 SWAP1 POP JUMP JUMPDEST PUSH0 DUP2 SWAP1 POP SWAP2 SWAP1 POP JUMP JUMPDEST PUSH0 PUSH3 0x9EA PUSH3 0x9E4 PUSH3 0x9DE DUP5 PUSH3 0x9B8 JUMP JUMPDEST PUSH3 0x9C1 JUMP JUMPDEST PUSH3 0x9B8 JUMP JUMPDEST SWAP1 POP SWAP2 SWAP1 POP JUMP JUMPDEST PUSH0 DUP2 SWAP1 POP SWAP2 SWAP1 POP JUMP JUMPDEST PUSH3 0xA05 DUP4 PUSH3 0x9CA JUMP JUMPDEST PUSH3 0xA1D PUSH3 0xA14 DUP3 PUSH3 0x9F1 JUMP JUMPDEST DUP5 DUP5 SLOAD PUSH3 0x963 JUMP JUMPDEST DUP3 SSTORE POP POP POP POP JUMP JUMPDEST PUSH0 SWAP1 JUMP JUMPDEST PUSH3 0xA33 PUSH3 0xA25 JUMP JUMPDEST PUSH3 0xA40 DUP2 DUP5 DUP5 PUSH3 0x9FA JUMP JUMPDEST POP POP POP JUMP JUMPDEST JUMPDEST DUP2 DUP2 LT ISZERO PUSH3 0xA67 JUMPI PUSH3 0xA5B PUSH0 DUP3 PUSH3 0xA29 JUMP JUMPDEST PUSH1 0x1 DUP2 ADD SWAP1 POP PUSH3 0xA46 JUMP JUMPDEST POP POP JUMP JUMPDEST PUSH1 0x1F DUP3 GT ISZERO PUSH3 0xAB6 JUMPI PUSH3 0xA80 DUP2 PUSH3 0x936 JUMP JUMPDEST PUSH3 0xA8B DUP5 PUSH3 0x948 JUMP JUMPDEST DUP2 ADD PUSH1 0x20 DUP6 LT ISZERO PUSH3 0xA9B JUMPI DUP2 SWAP1 POP JUMPDEST PUSH3 0xAB3 PUSH3 0xAAA DUP6 PUSH3 0x948 JUMP JUMPDEST DUP4 ADD DUP3 PUSH3 0xA45 JUMP JUMPDEST POP POP JUMPDEST POP POP POP JUMP JUMPDEST PUSH0 DUP3 DUP3 SHR SWAP1 POP SWAP3 SWAP2 POP POP JUMP JUMPDEST PUSH0 PUSH3 0xAD8 PUSH0 NOT DUP5 PUSH1 0x8 MUL PUSH3 0xABB JUMP JUMPDEST NOT DUP1 DUP4 AND SWAP2 POP POP SWAP3 SWAP2 POP POP JUMP JUMPDEST PUSH0 PUSH3 0xAF2 DUP4 DUP4 PUSH3 0xAC7 JUMP JUMPDEST SWAP2 POP DUP3 PUSH1 0x2 MUL DUP3 OR SWAP1 POP SWAP3 SWAP2 POP POP JUMP JUMPDEST PUSH3 0xB0D DUP3 PUSH3 0x89E JUMP JUMPDEST PUSH8 0xFFFFFFFFFFFFFFFF DUP2 GT ISZERO PUSH3 0xB29 JUMPI PUSH3 0xB28 PUSH3 0x8A8 JUMP JUMPDEST JUMPDEST PUSH3 0xB35 DUP3 SLOAD PUSH3 0x902 JUMP JUMPDEST PUSH3 0xB42 DUP3 DUP3 DUP6 PUSH3 0xA6B JUMP JUMPDEST PUSH0 PUSH1 0x20 SWAP1 POP PUSH1 0x1F DUP4 GT PUSH1 0x1 DUP2 EQ PUSH3 0xB78 JUMPI PUSH0 DUP5 ISZERO PUSH3 0xB63 JUMPI DUP3 DUP8 ADD MLOAD SWAP1 POP JUMPDEST PUSH3 0xB6F DUP6 DUP3 PUSH3 0xAE5 JUMP JUMPDEST DUP7 SSTORE POP PUSH3 0xBDE JUMP JUMPDEST PUSH1 0x1F NOT DUP5 AND PUSH3 0xB88 DUP7 PUSH3 0x936 JUMP JUMPDEST PUSH0 JUMPDEST DUP3 DUP2 LT ISZERO PUSH3 0xBB1 JUMPI DUP5 DUP10 ADD MLOAD DUP3 SSTORE PUSH1 0x1 DUP3 ADD SWAP2 POP PUSH1 0x20 DUP6 ADD SWAP5 POP PUSH1 0x20 DUP2 ADD SWAP1 POP PUSH3 0xB8A JUMP JUMPDEST DUP7 DUP4 LT ISZERO PUSH3 0xBD1 JUMPI DUP5 DUP10 ADD MLOAD PUSH3 0xBCD PUSH1 0x1F DUP10 AND DUP3 PUSH3 0xAC7 JUMP JUMPDEST DUP4 SSTORE POP JUMPDEST PUSH1 0x1 PUSH1 0x2 DUP9 MUL ADD DUP9 SSTORE POP POP POP JUMPDEST POP POP POP POP POP POP JUMP JUMPDEST PUSH3 0xBF1 DUP2 PUSH3 0x82C JUMP JUMPDEST DUP3 MSTORE POP POP JUMP JUMPDEST PUSH0 PUSH1 0x20 DUP3 ADD SWAP1 POP PUSH3 0xC0C PUSH0 DUP4 ADD DUP5 PUSH3 0xBE6 JUMP JUMPDEST SWAP3 SWAP2 POP POP JUMP JUMPDEST PUSH32 0x4E487B7100000000000000000000000000000000000000000000000000000000 PUSH0 MSTORE PUSH1 0x11 PUSH1 0x4 MSTORE PUSH1 0x24 PUSH0 REVERT JUMPDEST PUSH0 DUP2 PUSH1 0x1 SHR SWAP1 POP SWAP2 SWAP1 POP JUMP JUMPDEST PUSH0 DUP1 DUP3 SWAP2 POP DUP4 SWAP1 POP JUMPDEST PUSH1 0x1 DUP6 GT ISZERO PUSH3 0xC9C JUMPI DUP1 DUP7 DIV DUP2 GT ISZERO PUSH3 0xC74 JUMPI PUSH3 0xC73 PUSH3 0xC12 JUMP JUMPDEST JUMPDEST PUSH1 0x1 DUP6 AND ISZERO PUSH3 0xC84 JUMPI DUP1 DUP3 MUL SWAP2 POP JUMPDEST DUP1 DUP2 MUL SWAP1 POP PUSH3 0xC94 DUP6 PUSH3 0xC3F JUMP JUMPDEST SWAP5 POP PUSH3 0xC54 JUMP JUMPDEST SWAP5 POP SWAP5 SWAP3 POP POP POP JUMP JUMPDEST PUSH0 DUP3 PUSH3 0xCB6 JUMPI PUSH1 0x1 SWAP1 POP PUSH3 0xD88 JUMP JUMPDEST DUP2 PUSH3 0xCC5 JUMPI PUSH0 SWAP1 POP PUSH3 0xD88 JUMP JUMPDEST DUP2 PUSH1 0x1 DUP2 EQ PUSH3 0xCDE JUMPI PUSH1 0x2 DUP2 EQ PUSH3 0xCE9 JUMPI PUSH3 0xD1F JUMP JUMPDEST PUSH1 0x1 SWAP2 POP POP PUSH3 0xD88 JUMP JUMPDEST PUSH1 0xFF DUP5 GT ISZERO PUSH3 0xCFE JUMPI PUSH3 0xCFD PUSH3 0xC12 JUMP JUMPDEST JUMPDEST DUP4 PUSH1 0x2 EXP SWAP2 POP DUP5 DUP3 GT ISZERO PUSH3 0xD18 JUMPI PUSH3 0xD17 PUSH3 0xC12 JUMP JUMPDEST JUMPDEST POP PUSH3 0xD88 JUMP JUMPDEST POP PUSH1 0x20 DUP4 LT PUSH2 0x133 DUP4 LT AND PUSH1 0x4E DUP5 LT PUSH1 0xB DUP5 LT AND OR ISZERO PUSH3 0xD59 JUMPI DUP3 DUP3 EXP SWAP1 POP DUP4 DUP2 GT ISZERO PUSH3 0xD53 JUMPI PUSH3 0xD52 PUSH3 0xC12 JUMP JUMPDEST JUMPDEST PUSH3 0xD88 JUMP JUMPDEST PUSH3 0xD68 DUP5 DUP5 DUP5 PUSH1 0x1 PUSH3 0xC4B JUMP JUMPDEST SWAP3 POP SWAP1 POP DUP2 DUP5 DIV DUP2 GT ISZERO PUSH3 0xD82 JUMPI PUSH3 0xD81 PUSH3 0xC12 JUMP JUMPDEST JUMPDEST DUP2 DUP2 MUL SWAP1 POP JUMPDEST SWAP4 SWAP3 POP POP POP JUMP JUMPDEST PUSH0 PUSH1 0xFF DUP3 AND SWAP1 POP SWAP2 SWAP1 POP JUMP JUMPDEST PUSH0 PUSH3 0xDA7 DUP3 PUSH3 0x9B8 JUMP JUMPDEST SWAP2 POP PUSH3 0xDB4 DUP4 PUSH3 0xD8F JUMP JUMPDEST SWAP3 POP PUSH3 0xDE3 PUSH32 0xFFFFFFFFFFFFFFFFFFFFFFFFFFFFFFFFFFFFFFFFFFFFFFFFFFFFFFFFFFFFFFFF DUP5 DUP5 PUSH3 0xCA5 JUMP JUMPDEST SWAP1 POP SWAP3 SWAP2 POP POP JUMP JUMPDEST PUSH0 PUSH3 0xDF7 DUP3 PUSH3 0x9B8 JUMP JUMPDEST SWAP2 POP PUSH3 0xE04 DUP4 PUSH3 0x9B8 JUMP JUMPDEST SWAP3 POP DUP3 DUP3 MUL PUSH3 0xE14 DUP2 PUSH3 0x9B8 JUMP JUMPDEST SWAP2 POP DUP3 DUP3 DIV DUP5 EQ DUP4 ISZERO OR PUSH3 0xE2E JUMPI PUSH3 0xE2D PUSH3 0xC12 JUMP JUMPDEST JUMPDEST POP SWAP3 SWAP2 POP POP JUMP JUMPDEST PUSH0 DUP2 SWAP1 POP SWAP2 SWAP1 POP JUMP JUMPDEST PUSH3 0xE49 DUP2 PUSH3 0xE35 JUMP JUMPDEST DUP3 MSTORE POP POP JUMP JUMPDEST PUSH3 0xE5A DUP2 PUSH3 0x9B8 JUMP JUMPDEST DUP3 MSTORE POP POP JUMP JUMPDEST PUSH0 PUSH1 0xA0 DUP3 ADD SWAP1 POP PUSH3 0xE75 PUSH0 DUP4 ADD DUP9 PUSH3 0xE3E JUMP JUMPDEST PUSH3 0xE84 PUSH1 0x20 DUP4 ADD DUP8 PUSH3 0xE3E JUMP JUMPDEST PUSH3 0xE93 PUSH1 0x40 DUP4 ADD DUP7 PUSH3 0xE3E JUMP JUMPDEST PUSH3 0xEA2 PUSH1 0x60 DUP4 ADD DUP6 PUSH3 0xE4F JUMP JUMPDEST PUSH3 0xEB1 PUSH1 0x80 DUP4 ADD DUP5 PUSH3 0xBE6 JUMP JUMPDEST SWAP7 SWAP6 POP POP POP POP POP POP JUMP JUMPDEST PUSH0 DUP3 DUP3 MSTORE PUSH1 0x20 DUP3 ADD SWAP1 POP SWAP3 SWAP2 POP POP JUMP JUMPDEST PUSH0 JUMPDEST DUP4 DUP2 LT ISZERO PUSH3 0xEEA JUMPI DUP1 DUP3 ADD MLOAD DUP2 DUP5 ADD MSTORE PUSH1 0x20 DUP2 ADD SWAP1 POP PUSH3 0xECD JUMP JUMPDEST PUSH0 DUP5 DUP5 ADD MSTORE POP POP POP POP JUMP JUMPDEST PUSH0 PUSH1 0x1F NOT PUSH1 0x1F DUP4 ADD AND SWAP1 POP SWAP2 SWAP1 POP JUMP JUMPDEST PUSH0 PUSH3 0xF11 DUP3 PUSH3 0x89E JUMP JUMPDEST PUSH3 0xF1D DUP2 DUP6 PUSH3 0xEBB JUMP JUMPDEST SWAP4 POP PUSH3 0xF2F DUP2 DUP6 PUSH1 0x20 DUP7 ADD PUSH3 0xECB JUMP JUMPDEST PUSH3 0xF3A DUP2 PUSH3 0xEF5 JUMP JUMPDEST DUP5 ADD SWAP2 POP POP SWAP3 SWAP2 POP POP JUMP JUMPDEST PUSH0 PUSH1 0x20 DUP3 ADD SWAP1 POP DUP2 DUP2 SUB PUSH0 DUP4 ADD MSTORE PUSH3 0xF5F DUP2 DUP5 PUSH3 0xF05 JUMP JUMPDEST SWAP1 POP SWAP3 SWAP2 POP POP JUMP JUMPDEST PUSH0 DUP2 MLOAD SWAP1 POP SWAP2 SWAP1 POP JUMP JUMPDEST PUSH0 DUP2 SWAP1 POP PUSH1 0x20 DUP3 ADD SWAP1 POP SWAP2 SWAP1 POP JUMP JUMPDEST PUSH0 PUSH3 0xF8D DUP3 MLOAD PUSH3 0xE35 JUMP JUMPDEST DUP1 SWAP2 POP POP SWAP2 SWAP1 POP JUMP JUMPDEST PUSH0 PUSH3 0xFA2 DUP3 PUSH3 0xF67 JUMP JUMPDEST DUP3 PUSH3 0xFAE DUP5 PUSH3 0xF71 JUMP JUMPDEST SWAP1 POP PUSH3 0xFBB DUP2 PUSH3 0xF80 JUMP JUMPDEST SWAP3 POP PUSH1 0x20 DUP3 LT ISZERO PUSH3 0xFFE JUMPI PUSH3 0xFF9 PUSH32 0xFFFFFFFFFFFFFFFFFFFFFFFFFFFFFFFFFFFFFFFFFFFFFFFFFFFFFFFFFFFFFFFF DUP4 PUSH1 0x20 SUB PUSH1 0x8 MUL PUSH3 0x957 JUMP JUMPDEST DUP4 AND SWAP3 POP JUMPDEST POP POP SWAP2 SWAP1 POP JUMP JUMPDEST PUSH0 PUSH3 0x1011 DUP3 PUSH3 0x9B8 JUMP JUMPDEST SWAP2 POP PUSH3 0x101E DUP4 PUSH3 0x9B8 JUMP JUMPDEST SWAP3 POP DUP3 DUP3 ADD SWAP1 POP DUP1 DUP3 GT ISZERO PUSH3 0x1039 JUMPI PUSH3 0x1038 PUSH3 0xC12 JUMP JUMPDEST JUMPDEST SWAP3 SWAP2 POP POP JUMP JUMPDEST PUSH0 PUSH1 0x60 DUP3 ADD SWAP1 POP PUSH3 0x1054 PUSH0 DUP4 ADD DUP7 PUSH3 0xBE6 JUMP JUMPDEST PUSH3 0x1063 PUSH1 0x20 DUP4 ADD DUP6 PUSH3 0xE4F JUMP JUMPDEST PUSH3 0x1072 PUSH1 0x40 DUP4 ADD DUP5 PUSH3 0xE4F JUMP JUMPDEST SWAP5 SWAP4 POP POP POP POP JUMP JUMPDEST PUSH0 PUSH1 0x20 DUP3 ADD SWAP1 POP PUSH3 0x108F PUSH0 DUP4 ADD DUP5 PUSH3 0xE4F JUMP JUMPDEST SWAP3 SWAP2 POP POP JUMP JUMPDEST PUSH1 0x80 MLOAD PUSH1 0xA0 MLOAD PUSH1 0xC0 MLOAD PUSH1 0xE0 MLOAD PUSH2 0x100 MLOAD PUSH2 0x120 MLOAD PUSH2 0x140 MLOAD PUSH2 0x20A3 PUSH3 0x10E7 PUSH0 CODECOPY PUSH0 PUSH2 0xEA1 ADD MSTORE PUSH0 PUSH2 0xE66 ADD MSTORE PUSH0 PUSH2 0x1191 ADD MSTORE PUSH0 PUSH2 0x1170 ADD MSTORE PUSH0 PUSH2 0xAD6 ADD MSTORE PUSH0 PUSH2 0xB2C ADD MSTORE PUSH0 PUSH2 0xB55 ADD MSTORE PUSH2 0x20A3 PUSH0 RETURN INVALID PUSH1 0x80 PUSH1 0x40 MSTORE CALLVALUE DUP1 ISZERO PUSH2 0xF JUMPI PUSH0 DUP1 REVERT JUMPDEST POP PUSH1 0x4 CALLDATASIZE LT PUSH2 0x12A JUMPI PUSH0 CALLDATALOAD PUSH1 0xE0 SHR DUP1 PUSH4 0x715018A6 GT PUSH2 0xAB JUMPI DUP1 PUSH4 0x95D89B41 GT PUSH2 0x6F JUMPI DUP1 PUSH4 0x95D89B41 EQ PUSH2 0x300 JUMPI DUP1 PUSH4 0xA9059CBB EQ PUSH2 0x31E JUMPI DUP1 PUSH4 0xD505ACCF EQ PUSH2 0x34E JUMPI DUP1 PUSH4 0xDD62ED3E EQ PUSH2 0x36A JUMPI DUP1 PUSH4 0xF2FDE38B EQ PUSH2 0x39A JUMPI PUSH2 0x12A JUMP JUMPDEST DUP1 PUSH4 0x715018A6 EQ PUSH2 0x27A JUMPI DUP1 PUSH4 0x7ECEBE00 EQ PUSH2 0x284 JUMPI DUP1 PUSH4 0x8456CB59 EQ PUSH2 0x2B4 JUMPI DUP1 PUSH4 0x84B0196E EQ PUSH2 0x2BE JUMPI DUP1 PUSH4 0x8DA5CB5B EQ PUSH2 0x2E2 JUMPI PUSH2 0x12A JUMP JUMPDEST DUP1 PUSH4 0x3644E515 GT PUSH2 0xF2 JUMPI DUP1 PUSH4 0x3644E515 EQ PUSH2 0x1E8 JUMPI DUP1 PUSH4 0x3F4BA83A EQ PUSH2 0x206 JUMPI DUP1 PUSH4 0x40C10F19 EQ PUSH2 0x210 JUMPI DUP1 PUSH4 0x5C975ABB EQ PUSH2 0x22C JUMPI DUP1 PUSH4 0x70A08231 EQ PUSH2 0x24A JUMPI PUSH2 0x12A JUMP JUMPDEST DUP1 PUSH4 0x6FDDE03 EQ PUSH2 0x12E JUMPI DUP1 PUSH4 0x95EA7B3 EQ PUSH2 0x14C JUMPI DUP1 PUSH4 0x18160DDD EQ PUSH2 0x17C JUMPI DUP1 PUSH4 0x23B872DD EQ PUSH2 0x19A JUMPI DUP1 PUSH4 0x313CE567 EQ PUSH2 0x1CA JUMPI JUMPDEST PUSH0 DUP1 REVERT JUMPDEST PUSH2 0x136 PUSH2 0x3B6 JUMP JUMPDEST PUSH1 0x40 MLOAD PUSH2 0x143 SWAP2 SWAP1 PUSH2 0x1913 JUMP JUMPDEST PUSH1 0x40 MLOAD DUP1 SWAP2 SUB SWAP1 RETURN JUMPDEST PUSH2 0x166 PUSH1 0x4 DUP1 CALLDATASIZE SUB DUP2 ADD SWAP1 PUSH2 0x161 SWAP2 SWAP1 PUSH2 0x19C4 JUMP JUMPDEST PUSH2 0x446 JUMP JUMPDEST PUSH1 0x40 MLOAD PUSH2 0x173 SWAP2 SWAP1 PUSH2 0x1A1C JUMP JUMPDEST PUSH1 0x40 MLOAD DUP1 SWAP2 SUB SWAP1 RETURN JUMPDEST PUSH2 0x184 PUSH2 0x468 JUMP JUMPDEST PUSH1 0x40 MLOAD PUSH2 0x191 SWAP2 SWAP1 PUSH2 0x1A44 JUMP JUMPDEST PUSH1 0x40 MLOAD DUP1 SWAP2 SUB SWAP1 RETURN JUMPDEST PUSH2 0x1B4 PUSH1 0x4 DUP1 CALLDATASIZE SUB DUP2 ADD SWAP1 PUSH2 0x1AF SWAP2 SWAP1 PUSH2 0x1A5D JUMP JUMPDEST PUSH2 0x471 JUMP JUMPDEST PUSH1 0x40 MLOAD PUSH2 0x1C1 SWAP2 SWAP1 PUSH2 0x1A1C JUMP JUMPDEST PUSH1 0x40 MLOAD DUP1 SWAP2 SUB SWAP1 RETURN JUMPDEST PUSH2 0x1D2 PUSH2 0x49F JUMP JUMPDEST PUSH1 0x40 MLOAD PUSH2 0x1DF SWAP2 SWAP1 PUSH2 0x1AC8 JUMP JUMPDEST PUSH1 0x40 MLOAD DUP1 SWAP2 SUB SWAP1 RETURN JUMPDEST PUSH2 0x1F0 PUSH2 0x4A7 JUMP JUMPDEST PUSH1 0x40 MLOAD PUSH2 0x1FD SWAP2 SWAP1 PUSH2 0x1AF9 JUMP JUMPDEST PUSH1 0x40 MLOAD DUP1 SWAP2 SUB SWAP1 RETURN JUMPDEST PUSH2 0x20E PUSH2 0x4B5 JUMP JUMPDEST STOP JUMPDEST PUSH2 0x22A PUSH1 0x4 DUP1 CALLDATASIZE SUB DUP2 ADD SWAP1 PUSH2 0x225 SWAP2 SWAP1 PUSH2 0x19C4 JUMP JUMPDEST PUSH2 0x4C7 JUMP JUMPDEST STOP JUMPDEST PUSH2 0x234 PUSH2 0x4DD JUMP JUMPDEST PUSH1 0x40 MLOAD PUSH2 0x241 SWAP2 SWAP1 PUSH2 0x1A1C JUMP JUMPDEST PUSH1 0x40 MLOAD DUP1 SWAP2 SUB SWAP1 RETURN JUMPDEST PUSH2 0x264 PUSH1 0x4 DUP1 CALLDATASIZE SUB DUP2 ADD SWAP1 PUSH2 0x25F SWAP2 SWAP1 PUSH2 0x1B12 JUMP JUMPDEST PUSH2 0x4F2 JUMP JUMPDEST PUSH1 0x40 MLOAD PUSH2 0x271 SWAP2 SWAP1 PUSH2 0x1A44 JUMP JUMPDEST PUSH1 0x40 MLOAD DUP1 SWAP2 SUB SWAP1 RETURN JUMPDEST PUSH2 0x282 PUSH2 0x537 JUMP JUMPDEST STOP JUMPDEST PUSH2 0x29E PUSH1 0x4 DUP1 CALLDATASIZE SUB DUP2 ADD SWAP1 PUSH2 0x299 SWAP2 SWAP1 PUSH2 0x1B12 JUMP JUMPDEST PUSH2 0x54A JUMP JUMPDEST PUSH1 0x40 MLOAD PUSH2 0x2AB SWAP2 SWAP1 PUSH2 0x1A44 JUMP JUMPDEST PUSH1 0x40 MLOAD DUP1 SWAP2 SUB SWAP1 RETURN JUMPDEST PUSH2 0x2BC PUSH2 0x55B JUMP JUMPDEST STOP JUMPDEST PUSH2 0x2C6 PUSH2 0x56D JUMP JUMPDEST PUSH1 0x40 MLOAD PUSH2 0x2D9 SWAP8 SWAP7 SWAP6 SWAP5 SWAP4 SWAP3 SWAP2 SWAP1 PUSH2 0x1C3D JUMP JUMPDEST PUSH1 0x40 MLOAD DUP1 SWAP2 SUB SWAP1 RETURN JUMPDEST PUSH2 0x2EA PUSH2 0x612 JUMP JUMPDEST PUSH1 0x40 MLOAD PUSH2 0x2F7 SWAP2 SWAP1 PUSH2 0x1CBF JUMP JUMPDEST PUSH1 0x40 MLOAD DUP1 SWAP2 SUB SWAP1 RETURN JUMPDEST PUSH2 0x308 PUSH2 0x63B JUMP JUMPDEST PUSH1 0x40 MLOAD PUSH2 0x315 SWAP2 SWAP1 PUSH2 0x1913 JUMP JUMPDEST PUSH1 0x40 MLOAD DUP1 SWAP2 SUB SWAP1 RETURN JUMPDEST PUSH2 0x338 PUSH1 0x4 DUP1 CALLDATASIZE SUB DUP2 ADD SWAP1 PUSH2 0x333 SWAP2 SWAP1 PUSH2 0x19C4 JUMP JUMPDEST PUSH2 0x6CB JUMP JUMPDEST PUSH1 0x40 MLOAD PUSH2 0x345 SWAP2 SWAP1 PUSH2 0x1A1C JUMP JUMPDEST PUSH1 0x40 MLOAD DUP1 SWAP2 SUB SWAP1 RETURN JUMPDEST PUSH2 0x368 PUSH1 0x4 DUP1 CALLDATASIZE SUB DUP2 ADD SWAP1 PUSH2 0x363 SWAP2 SWAP1 PUSH2 0x1D2C JUMP JUMPDEST PUSH2 0x6ED JUMP JUMPDEST STOP JUMPDEST PUSH2 0x384 PUSH1 0x4 DUP1 CALLDATASIZE SUB DUP2 ADD SWAP1 PUSH2 0x37F SWAP2 SWAP1 PUSH2 0x1DC9 JUMP JUMPDEST PUSH2 0x832 JUMP JUMPDEST PUSH1 0x40 MLOAD PUSH2 0x391 SWAP2 SWAP1 PUSH2 0x1A44 JUMP JUMPDEST PUSH1 0x40 MLOAD DUP1 SWAP2 SUB SWAP1 RETURN JUMPDEST PUSH2 0x3B4 PUSH1 0x4 DUP1 CALLDATASIZE SUB DUP2 ADD SWAP1 PUSH2 0x3AF SWAP2 SWAP1 PUSH2 0x1B12 JUMP JUMPDEST PUSH2 0x8B4 JUMP JUMPDEST STOP JUMPDEST PUSH1 0x60 PUSH1 0x3 DUP1 SLOAD PUSH2 0x3C5 SWAP1 PUSH2 0x1E34 JUMP JUMPDEST DUP1 PUSH1 0x1F ADD PUSH1 0x20 DUP1 SWAP2 DIV MUL PUSH1 0x20 ADD PUSH1 0x40 MLOAD SWAP1 DUP2 ADD PUSH1 0x40 MSTORE DUP1 SWAP3 SWAP2 SWAP1 DUP2 DUP2 MSTORE PUSH1 0x20 ADD DUP3 DUP1 SLOAD PUSH2 0x3F1 SWAP1 PUSH2 0x1E34 JUMP JUMPDEST DUP1 ISZERO PUSH2 0x43C JUMPI DUP1 PUSH1 0x1F LT PUSH2 0x413 JUMPI PUSH2 0x100 DUP1 DUP4 SLOAD DIV MUL DUP4 MSTORE SWAP2 PUSH1 0x20 ADD SWAP2 PUSH2 0x43C JUMP JUMPDEST DUP3 ADD SWAP2 SWAP1 PUSH0 MSTORE PUSH1 0x20 PUSH0 KECCAK256 SWAP1 JUMPDEST DUP2 SLOAD DUP2 MSTORE SWAP1 PUSH1 0x1 ADD SWAP1 PUSH1 0x20 ADD DUP1 DUP4 GT PUSH2 0x41F JUMPI DUP3 SWAP1 SUB PUSH1 0x1F AND DUP3 ADD SWAP2 JUMPDEST POP POP POP POP POP SWAP1 POP SWAP1 JUMP JUMPDEST PUSH0 DUP1 PUSH2 0x450 PUSH2 0x938 JUMP JUMPDEST SWAP1 POP PUSH2 0x45D DUP2 DUP6 DUP6 PUSH2 0x93F JUMP JUMPDEST PUSH1 0x1 SWAP2 POP POP SWAP3 SWAP2 POP POP JUMP JUMPDEST PUSH0 PUSH1 0x2 SLOAD SWAP1 POP SWAP1 JUMP JUMPDEST PUSH0 DUP1 PUSH2 0x47B PUSH2 0x938 JUMP JUMPDEST SWAP1 POP PUSH2 0x488 DUP6 DUP3 DUP6 PUSH2 0x951 JUMP JUMPDEST PUSH2 0x493 DUP6 DUP6 DUP6 PUSH2 0x9E3 JUMP JUMPDEST PUSH1 0x1 SWAP2 POP POP SWAP4 SWAP3 POP POP POP JUMP JUMPDEST PUSH0 PUSH1 0x12 SWAP1 POP SWAP1 JUMP JUMPDEST PUSH0 PUSH2 0x4B0 PUSH2 0xAD3 JUMP JUMPDEST SWAP1 POP SWAP1 JUMP JUMPDEST PUSH2 0x4BD PUSH2 0xB89 JUMP JUMPDEST PUSH2 0x4C5 PUSH2 0xC10 JUMP JUMPDEST JUMP JUMPDEST PUSH2 0x4CF PUSH2 0xB89 JUMP JUMPDEST PUSH2 0x4D9 DUP3 DUP3 PUSH2 0xC71 JUMP JUMPDEST POP POP JUMP JUMPDEST PUSH0 PUSH1 0x5 PUSH0 SWAP1 SLOAD SWAP1 PUSH2 0x100 EXP SWAP1 DIV PUSH1 0xFF AND SWAP1 POP SWAP1 JUMP JUMPDEST PUSH0 DUP1 PUSH0 DUP4 PUSH20 0xFFFFFFFFFFFFFFFFFFFFFFFFFFFFFFFFFFFFFFFF AND PUSH20 0xFFFFFFFFFFFFFFFFFFFFFFFFFFFFFFFFFFFFFFFF AND DUP2 MSTORE PUSH1 0x20 ADD SWAP1 DUP2 MSTORE PUSH1 0x20 ADD PUSH0 KECCAK256 SLOAD SWAP1 POP SWAP2 SWAP1 POP JUMP JUMPDEST PUSH2 0x53F PUSH2 0xB89 JUMP JUMPDEST PUSH2 0x548 PUSH0 PUSH2 0xCF0 JUMP JUMPDEST JUMP JUMPDEST PUSH0 PUSH2 0x554 DUP3 PUSH2 0xDB5 JUMP JUMPDEST SWAP1 POP SWAP2 SWAP1 POP JUMP JUMPDEST PUSH2 0x563 PUSH2 0xB89 JUMP JUMPDEST PUSH2 0x56B PUSH2 0xDFB JUMP JUMPDEST JUMP JUMPDEST PUSH0 PUSH1 0x60 DUP1 PUSH0 DUP1 PUSH0 PUSH1 0x60 PUSH2 0x57E PUSH2 0xE5D JUMP JUMPDEST PUSH2 0x586 PUSH2 0xE98 JUMP JUMPDEST CHAINID ADDRESS PUSH0 DUP1 SHL PUSH0 PUSH8 0xFFFFFFFFFFFFFFFF DUP2 GT ISZERO PUSH2 0x5A5 JUMPI PUSH2 0x5A4 PUSH2 0x1E64 JUMP JUMPDEST JUMPDEST PUSH1 0x40 MLOAD SWAP1 DUP1 DUP3 MSTORE DUP1 PUSH1 0x20 MUL PUSH1 0x20 ADD DUP3 ADD PUSH1 0x40 MSTORE DUP1 ISZERO PUSH2 0x5D3 JUMPI DUP2 PUSH1 0x20 ADD PUSH1 0x20 DUP3 MUL DUP1 CALLDATASIZE DUP4 CALLDATACOPY DUP1 DUP3 ADD SWAP2 POP POP SWAP1 POP JUMPDEST POP PUSH32 0xF00000000000000000000000000000000000000000000000000000000000000 SWAP6 SWAP5 SWAP4 SWAP3 SWAP2 SWAP1 SWAP7 POP SWAP7 POP SWAP7 POP SWAP7 POP SWAP7 POP SWAP7 POP SWAP7 POP SWAP1 SWAP2 SWAP3 SWAP4 SWAP5 SWAP6 SWAP7 JUMP JUMPDEST PUSH0 PUSH1 0x5 PUSH1 0x1 SWAP1 SLOAD SWAP1 PUSH2 0x100 EXP SWAP1 DIV PUSH20 0xFFFFFFFFFFFFFFFFFFFFFFFFFFFFFFFFFFFFFFFF AND SWAP1 POP SWAP1 JUMP JUMPDEST PUSH1 0x60 PUSH1 0x4 DUP1 SLOAD PUSH2 0x64A SWAP1 PUSH2 0x1E34 JUMP JUMPDEST DUP1 PUSH1 0x1F ADD PUSH1 0x20 DUP1 SWAP2 DIV MUL PUSH1 0x20 ADD PUSH1 0x40 MLOAD SWAP1 DUP2 ADD PUSH1 0x40 MSTORE DUP1 SWAP3 SWAP2 SWAP1 DUP2 DUP2 MSTORE PUSH1 0x20 ADD DUP3 DUP1 SLOAD PUSH2 0x676 SWAP1 PUSH2 0x1E34 JUMP JUMPDEST DUP1 ISZERO PUSH2 0x6C1 JUMPI DUP1 PUSH1 0x1F LT PUSH2 0x698 JUMPI PUSH2 0x100 DUP1 DUP4 SLOAD DIV MUL DUP4 MSTORE SWAP2 PUSH1 0x20 ADD SWAP2 PUSH2 0x6C1 JUMP JUMPDEST DUP3 ADD SWAP2 SWAP1 PUSH0 MSTORE PUSH1 0x20 PUSH0 KECCAK256 SWAP1 JUMPDEST DUP2 SLOAD DUP2 MSTORE SWAP1 PUSH1 0x1 ADD SWAP1 PUSH1 0x20 ADD DUP1 DUP4 GT PUSH2 0x6A4 JUMPI DUP3 SWAP1 SUB PUSH1 0x1F AND DUP3 ADD SWAP2 JUMPDEST POP POP POP POP POP SWAP1 POP SWAP1 JUMP JUMPDEST PUSH0 DUP1 PUSH2 0x6D5 PUSH2 0x938 JUMP JUMPDEST SWAP1 POP PUSH2 0x6E2 DUP2 DUP6 DUP6 PUSH2 0x9E3 JUMP JUMPDEST PUSH1 0x1 SWAP2 POP POP SWAP3 SWAP2 POP POP JUMP JUMPDEST DUP4 TIMESTAMP GT ISZERO PUSH2 0x732 JUMPI DUP4 PUSH1 0x40 MLOAD PUSH32 0x6279130200000000000000000000000000000000000000000000000000000000 DUP2 MSTORE PUSH1 0x4 ADD PUSH2 0x729 SWAP2 SWAP1 PUSH2 0x1A44 JUMP JUMPDEST PUSH1 0x40 MLOAD DUP1 SWAP2 SUB SWAP1 REVERT JUMPDEST PUSH0 PUSH32 0x6E71EDAE12B1B97F4D1F60370FEF10105FA2FAAE0126114A169C64845D6126C9 DUP9 DUP9 DUP9 PUSH2 0x760 DUP13 PUSH2 0xED3 JUMP JUMPDEST DUP10 PUSH1 0x40 MLOAD PUSH1 0x20 ADD PUSH2 0x776 SWAP7 SWAP6 SWAP5 SWAP4 SWAP3 SWAP2 SWAP1 PUSH2 0x1E91 JUMP JUMPDEST PUSH1 0x40 MLOAD PUSH1 0x20 DUP2 DUP4 SUB SUB DUP2 MSTORE SWAP1 PUSH1 0x40 MSTORE DUP1 MLOAD SWAP1 PUSH1 0x20 ADD KECCAK256 SWAP1 POP PUSH0 PUSH2 0x798 DUP3 PUSH2 0xF26 JUMP JUMPDEST SWAP1 POP PUSH0 PUSH2 0x7A7 DUP3 DUP8 DUP8 DUP8 PUSH2 0xF3F JUMP JUMPDEST SWAP1 POP DUP10 PUSH20 0xFFFFFFFFFFFFFFFFFFFFFFFFFFFFFFFFFFFFFFFF AND DUP2 PUSH20 0xFFFFFFFFFFFFFFFFFFFFFFFFFFFFFFFFFFFFFFFF AND EQ PUSH2 0x81B JUMPI DUP1 DUP11 PUSH1 0x40 MLOAD PUSH32 0x4B800E4600000000000000000000000000000000000000000000000000000000 DUP2 MSTORE PUSH1 0x4 ADD PUSH2 0x812 SWAP3 SWAP2 SWAP1 PUSH2 0x1EF0 JUMP JUMPDEST PUSH1 0x40 MLOAD DUP1 SWAP2 SUB SWAP1 REVERT JUMPDEST PUSH2 0x826 DUP11 DUP11 DUP11 PUSH2 0x93F JUMP JUMPDEST POP POP POP POP POP POP POP POP POP POP JUMP JUMPDEST PUSH0 PUSH1 0x1 PUSH0 DUP5 PUSH20 0xFFFFFFFFFFFFFFFFFFFFFFFFFFFFFFFFFFFFFFFF AND PUSH20 0xFFFFFFFFFFFFFFFFFFFFFFFFFFFFFFFFFFFFFFFF AND DUP2 MSTORE PUSH1 0x20 ADD SWAP1 DUP2 MSTORE PUSH1 0x20 ADD PUSH0 KECCAK256 PUSH0 DUP4 PUSH20 0xFFFFFFFFFFFFFFFFFFFFFFFFFFFFFFFFFFFFFFFF AND PUSH20 0xFFFFFFFFFFFFFFFFFFFFFFFFFFFFFFFFFFFFFFFF AND DUP2 MSTORE PUSH1 0x20 ADD SWAP1 DUP2 MSTORE PUSH1 0x20 ADD PUSH0 KECCAK256 SLOAD SWAP1 POP SWAP3 SWAP2 POP POP JUMP JUMPDEST PUSH2 0x8BC PUSH2 0xB89 JUMP JUMPDEST PUSH0 PUSH20 0xFFFFFFFFFFFFFFFFFFFFFFFFFFFFFFFFFFFFFFFF AND DUP2 PUSH20 0xFFFFFFFFFFFFFFFFFFFFFFFFFFFFFFFFFFFFFFFF AND SUB PUSH2 0x92C JUMPI PUSH0 PUSH1 0x40 MLOAD PUSH32 0x1E4FBDF700000000000000000000000000000000000000000000000000000000 DUP2 MSTORE PUSH1 0x4 ADD PUSH2 0x923 SWAP2 SWAP1 PUSH2 0x1CBF JUMP JUMPDEST PUSH1 0x40 MLOAD DUP1 SWAP2 SUB SWAP1 REVERT JUMPDEST PUSH2 0x935 DUP2 PUSH2 0xCF0 JUMP JUMPDEST POP JUMP JUMPDEST PUSH0 CALLER SWAP1 POP SWAP1 JUMP JUMPDEST PUSH2 0x94C DUP4 DUP4 DUP4 PUSH1 0x1 PUSH2 0xF6D JUMP JUMPDEST POP POP POP JUMP JUMPDEST PUSH0 PUSH2 0x95C DUP5 DUP5 PUSH2 0x832 JUMP JUMPDEST SWAP1 POP PUSH32 0xFFFFFFFFFFFFFFFFFFFFFFFFFFFFFFFFFFFFFFFFFFFFFFFFFFFFFFFFFFFFFFFF DUP2 EQ PUSH2 0x9DD JUMPI DUP2 DUP2 LT ISZERO PUSH2 0x9CE JUMPI DUP3 DUP2 DUP4 PUSH1 0x40 MLOAD PUSH32 0xFB8F41B200000000000000000000000000000000000000000000000000000000 DUP2 MSTORE PUSH1 0x4 ADD PUSH2 0x9C5 SWAP4 SWAP3 SWAP2 SWAP1 PUSH2 0x1F17 JUMP JUMPDEST PUSH1 0x40 MLOAD DUP1 SWAP2 SUB SWAP1 REVERT JUMPDEST PUSH2 0x9DC DUP5 DUP5 DUP5 DUP5 SUB PUSH0 PUSH2 0xF6D JUMP JUMPDEST JUMPDEST POP POP POP POP JUMP JUMPDEST PUSH0 PUSH20 0xFFFFFFFFFFFFFFFFFFFFFFFFFFFFFFFFFFFFFFFF AND DUP4 PUSH20 0xFFFFFFFFFFFFFFFFFFFFFFFFFFFFFFFFFFFFFFFF AND SUB PUSH2 0xA53 JUMPI PUSH0 PUSH1 0x40 MLOAD PUSH32 0x96C6FD1E00000000000000000000000000000000000000000000000000000000 DUP2 MSTORE PUSH1 0x4 ADD PUSH2 0xA4A SWAP2 SWAP1 PUSH2 0x1CBF JUMP JUMPDEST PUSH1 0x40 MLOAD DUP1 SWAP2 SUB SWAP1 REVERT JUMPDEST PUSH0 PUSH20 0xFFFFFFFFFFFFFFFFFFFFFFFFFFFFFFFFFFFFFFFF AND DUP3 PUSH20 0xFFFFFFFFFFFFFFFFFFFFFFFFFFFFFFFFFFFFFFFF AND SUB PUSH2 0xAC3 JUMPI PUSH0 PUSH1 0x40 MLOAD PUSH32 0xEC442F0500000000000000000000000000000000000000000000000000000000 DUP2 MSTORE PUSH1 0x4 ADD PUSH2 0xABA SWAP2 SWAP1 PUSH2 0x1CBF JUMP JUMPDEST PUSH1 0x40 MLOAD DUP1 SWAP2 SUB SWAP1 REVERT JUMPDEST PUSH2 0xACE DUP4 DUP4 DUP4 PUSH2 0x113C JUMP JUMPDEST POP POP POP JUMP JUMPDEST PUSH0 PUSH32 0x0 PUSH20 0xFFFFFFFFFFFFFFFFFFFFFFFFFFFFFFFFFFFFFFFF AND ADDRESS PUSH20 0xFFFFFFFFFFFFFFFFFFFFFFFFFFFFFFFFFFFFFFFF AND EQ DUP1 ISZERO PUSH2 0xB4E JUMPI POP PUSH32 0x0 CHAINID EQ JUMPDEST ISZERO PUSH2 0xB7B JUMPI PUSH32 0x0 SWAP1 POP PUSH2 0xB86 JUMP JUMPDEST PUSH2 0xB83 PUSH2 0x114C JUMP JUMPDEST SWAP1 POP JUMPDEST SWAP1 JUMP JUMPDEST PUSH2 0xB91 PUSH2 0x938 JUMP JUMPDEST PUSH20 0xFFFFFFFFFFFFFFFFFFFFFFFFFFFFFFFFFFFFFFFF AND PUSH2 0xBAF PUSH2 0x612 JUMP JUMPDEST PUSH20 0xFFFFFFFFFFFFFFFFFFFFFFFFFFFFFFFFFFFFFFFF AND EQ PUSH2 0xC0E JUMPI PUSH2 0xBD2 PUSH2 0x938 JUMP JUMPDEST PUSH1 0x40 MLOAD PUSH32 0x118CDAA700000000000000000000000000000000000000000000000000000000 DUP2 MSTORE PUSH1 0x4 ADD PUSH2 0xC05 SWAP2 SWAP1 PUSH2 0x1CBF JUMP JUMPDEST PUSH1 0x40 MLOAD DUP1 SWAP2 SUB SWAP1 REVERT JUMPDEST JUMP JUMPDEST PUSH2 0xC18 PUSH2 0x11E1 JUMP JUMPDEST PUSH0 PUSH1 0x5 PUSH0 PUSH2 0x100 EXP DUP2 SLOAD DUP2 PUSH1 0xFF MUL NOT AND SWAP1 DUP4 ISZERO ISZERO MUL OR SWAP1 SSTORE POP PUSH32 0x5DB9EE0A495BF2E6FF9C91A7834C1BA4FDD244A5E8AA4E537BD38AEAE4B073AA PUSH2 0xC5A PUSH2 0x938 JUMP JUMPDEST PUSH1 0x40 MLOAD PUSH2 0xC67 SWAP2 SWAP1 PUSH2 0x1CBF JUMP JUMPDEST PUSH1 0x40 MLOAD DUP1 SWAP2 SUB SWAP1 LOG1 JUMP JUMPDEST PUSH0 PUSH20 0xFFFFFFFFFFFFFFFFFFFFFFFFFFFFFFFFFFFFFFFF AND DUP3 PUSH20 0xFFFFFFFFFFFFFFFFFFFFFFFFFFFFFFFFFFFFFFFF AND SUB PUSH2 0xCE1 JUMPI PUSH0 PUSH1 0x40 MLOAD PUSH32 0xEC442F0500000000000000000000000000000000000000000000000000000000 DUP2 MSTORE PUSH1 0x4 ADD PUSH2 0xCD8 SWAP2 SWAP1 PUSH2 0x1CBF JUMP JUMPDEST PUSH1 0x40 MLOAD DUP1 SWAP2 SUB SWAP1 REVERT JUMPDEST PUSH2 0xCEC PUSH0 DUP4 DUP4 PUSH2 0x113C JUMP JUMPDEST POP POP JUMP JUMPDEST PUSH0 PUSH1 0x5 PUSH1 0x1 SWAP1 SLOAD SWAP1 PUSH2 0x100 EXP SWAP1 DIV PUSH20 0xFFFFFFFFFFFFFFFFFFFFFFFFFFFFFFFFFFFFFFFF AND SWAP1 POP DUP2 PUSH1 0x5 PUSH1 0x1 PUSH2 0x100 EXP DUP2 SLOAD DUP2 PUSH20 0xFFFFFFFFFFFFFFFFFFFFFFFFFFFFFFFFFFFFFFFF MUL NOT AND SWAP1 DUP4 PUSH20 0xFFFFFFFFFFFFFFFFFFFFFFFFFFFFFFFFFFFFFFFF AND MUL OR SWAP1 SSTORE POP DUP2 PUSH20 0xFFFFFFFFFFFFFFFFFFFFFFFFFFFFFFFFFFFFFFFF AND DUP2 PUSH20 0xFFFFFFFFFFFFFFFFFFFFFFFFFFFFFFFFFFFFFFFF AND PUSH32 0x8BE0079C531659141344CD1FD0A4F28419497F9722A3DAAFE3B4186F6B6457E0 PUSH1 0x40 MLOAD PUSH1 0x40 MLOAD DUP1 SWAP2 SUB SWAP1 LOG3 POP POP JUMP JUMPDEST PUSH0 PUSH1 0x8 PUSH0 DUP4 PUSH20 0xFFFFFFFFFFFFFFFFFFFFFFFFFFFFFFFFFFFFFFFF AND PUSH20 0xFFFFFFFFFFFFFFFFFFFFFFFFFFFFFFFFFFFFFFFF AND DUP2 MSTORE PUSH1 0x20 ADD SWAP1 DUP2 MSTORE PUSH1 0x20 ADD PUSH0 KECCAK256 SLOAD SWAP1 POP SWAP2 SWAP1 POP JUMP JUMPDEST PUSH2 0xE03 PUSH2 0x1221 JUMP JUMPDEST PUSH1 0x1 PUSH1 0x5 PUSH0 PUSH2 0x100 EXP DUP2 SLOAD DUP2 PUSH1 0xFF MUL NOT AND SWAP1 DUP4 ISZERO ISZERO MUL OR SWAP1 SSTORE POP PUSH32 0x62E78CEA01BEE320CD4E420270B5EA74000D11B0C9F74754EBDBFC544B05A258 PUSH2 0xE46 PUSH2 0x938 JUMP JUMPDEST PUSH1 0x40 MLOAD PUSH2 0xE53 SWAP2 SWAP1 PUSH2 0x1CBF JUMP JUMPDEST PUSH1 0x40 MLOAD DUP1 SWAP2 SUB SWAP1 LOG1 JUMP JUMPDEST PUSH1 0x60 PUSH2 0xE93 PUSH1 0x6 PUSH32 0x0 PUSH2 0x1262 SWAP1 SWAP2 SWAP1 PUSH4 0xFFFFFFFF AND JUMP JUMPDEST SWAP1 POP SWAP1 JUMP JUMPDEST PUSH1 0x60 PUSH2 0xECE PUSH1 0x7 PUSH32 0x0 PUSH2 0x1262 SWAP1 SWAP2 SWAP1 PUSH4 0xFFFFFFFF AND JUMP JUMPDEST SWAP1 POP SWAP1 JUMP JUMPDEST PUSH0 PUSH1 0x8 PUSH0 DUP4 PUSH20 0xFFFFFFFFFFFFFFFFFFFFFFFFFFFFFFFFFFFFFFFF AND PUSH20 0xFFFFFFFFFFFFFFFFFFFFFFFFFFFFFFFFFFFFFFFF AND DUP2 MSTORE PUSH1 0x20 ADD SWAP1 DUP2 MSTORE PUSH1 0x20 ADD PUSH0 KECCAK256 PUSH0 DUP2 SLOAD DUP1 SWAP3 SWAP2 SWAP1 PUSH1 0x1 ADD SWAP2 SWAP1 POP SSTORE SWAP1 POP SWAP2 SWAP1 POP JUMP JUMPDEST PUSH0 PUSH2 0xF38 PUSH2 0xF32 PUSH2 0xAD3 JUMP JUMPDEST DUP4 PUSH2 0x130F JUMP JUMPDEST SWAP1 POP SWAP2 SWAP1 POP JUMP JUMPDEST PUSH0 DUP1 PUSH0 DUP1 PUSH2 0xF4F DUP9 DUP9 DUP9 DUP9 PUSH2 0x134F JUMP JUMPDEST SWAP3 POP SWAP3 POP SWAP3 POP PUSH2 0xF5F DUP3 DUP3 PUSH2 0x1436 JUMP JUMPDEST DUP3 SWAP4 POP POP POP POP SWAP5 SWAP4 POP POP POP POP JUMP JUMPDEST PUSH0 PUSH20 0xFFFFFFFFFFFFFFFFFFFFFFFFFFFFFFFFFFFFFFFF AND DUP5 PUSH20 0xFFFFFFFFFFFFFFFFFFFFFFFFFFFFFFFFFFFFFFFF AND SUB PUSH2 0xFDD JUMPI PUSH0 PUSH1 0x40 MLOAD PUSH32 0xE602DF0500000000000000000000000000000000000000000000000000000000 DUP2 MSTORE PUSH1 0x4 ADD PUSH2 0xFD4 SWAP2 SWAP1 PUSH2 0x1CBF JUMP JUMPDEST PUSH1 0x40 MLOAD DUP1 SWAP2 SUB SWAP1 REVERT JUMPDEST PUSH0 PUSH20 0xFFFFFFFFFFFFFFFFFFFFFFFFFFFFFFFFFFFFFFFF AND DUP4 PUSH20 0xFFFFFFFFFFFFFFFFFFFFFFFFFFFFFFFFFFFFFFFF AND SUB PUSH2 0x104D JUMPI PUSH0 PUSH1 0x40 MLOAD PUSH32 0x94280D6200000000000000000000000000000000000000000000000000000000 DUP2 MSTORE PUSH1 0x4 ADD PUSH2 0x1044 SWAP2 SWAP1 PUSH2 0x1CBF JUMP JUMPDEST PUSH1 0x40 MLOAD DUP1 SWAP2 SUB SWAP1 REVERT JUMPDEST DUP2 PUSH1 0x1 PUSH0 DUP7 PUSH20 0xFFFFFFFFFFFFFFFFFFFFFFFFFFFFFFFFFFFFFFFF AND PUSH20 0xFFFFFFFFFFFFFFFFFFFFFFFFFFFFFFFFFFFFFFFF AND DUP2 MSTORE PUSH1 0x20 ADD SWAP1 DUP2 MSTORE PUSH1 0x20 ADD PUSH0 KECCAK256 PUSH0 DUP6 PUSH20 0xFFFFFFFFFFFFFFFFFFFFFFFFFFFFFFFFFFFFFFFF AND PUSH20 0xFFFFFFFFFFFFFFFFFFFFFFFFFFFFFFFFFFFFFFFF AND DUP2 MSTORE PUSH1 0x20 ADD SWAP1 DUP2 MSTORE PUSH1 0x20 ADD PUSH0 KECCAK256 DUP2 SWAP1 SSTORE POP DUP1 ISZERO PUSH2 0x1136 JUMPI DUP3 PUSH20 0xFFFFFFFFFFFFFFFFFFFFFFFFFFFFFFFFFFFFFFFF AND DUP5 PUSH20 0xFFFFFFFFFFFFFFFFFFFFFFFFFFFFFFFFFFFFFFFF AND PUSH32 0x8C5BE1E5EBEC7D5BD14F71427D1E84F3DD0314C0F7B2291E5B200AC8C7C3B925 DUP5 PUSH1 0x40 MLOAD PUSH2 0x112D SWAP2 SWAP1 PUSH2 0x1A44 JUMP JUMPDEST PUSH1 0x40 MLOAD DUP1 SWAP2 SUB SWAP1 LOG3 JUMPDEST POP POP POP POP JUMP JUMPDEST PUSH2 0x1147 DUP4 DUP4 DUP4 PUSH2 0x1598 JUMP JUMPDEST POP POP POP JUMP JUMPDEST PUSH0 PUSH32 0x8B73C3C69BB8FE3D512ECC4CF759CC79239F7B179B0FFACAA9A75D522B39400F PUSH32 0x0 PUSH32 0x0 CHAINID ADDRESS PUSH1 0x40 MLOAD PUSH1 0x20 ADD PUSH2 0x11C6 SWAP6 SWAP5 SWAP4 SWAP3 SWAP2 SWAP1 PUSH2 0x1F4C JUMP JUMPDEST PUSH1 0x40 MLOAD PUSH1 0x20 DUP2 DUP4 SUB SUB DUP2 MSTORE SWAP1 PUSH1 0x40 MSTORE DUP1 MLOAD SWAP1 PUSH1 0x20 ADD KECCAK256 SWAP1 POP SWAP1 JUMP JUMPDEST PUSH2 0x11E9 PUSH2 0x4DD JUMP JUMPDEST PUSH2 0x121F JUMPI PUSH1 0x40 MLOAD PUSH32 0x8DFC202B00000000000000000000000000000000000000000000000000000000 DUP2 MSTORE PUSH1 0x4 ADD PUSH1 0x40 MLOAD DUP1 SWAP2 SUB SWAP1 REVERT JUMPDEST JUMP JUMPDEST PUSH2 0x1229 PUSH2 0x4DD JUMP JUMPDEST ISZERO PUSH2 0x1260 JUMPI PUSH1 0x40 MLOAD PUSH32 0xD93C066500000000000000000000000000000000000000000000000000000000 DUP2 MSTORE PUSH1 0x4 ADD PUSH1 0x40 MLOAD DUP1 SWAP2 SUB SWAP1 REVERT JUMPDEST JUMP JUMPDEST PUSH1 0x60 PUSH1 0xFF PUSH0 SHL DUP4 EQ PUSH2 0x127E JUMPI PUSH2 0x1277 DUP4 PUSH2 0x15B0 JUMP JUMPDEST SWAP1 POP PUSH2 0x1309 JUMP JUMPDEST DUP2 DUP1 SLOAD PUSH2 0x128A SWAP1 PUSH2 0x1E34 JUMP JUMPDEST DUP1 PUSH1 0x1F ADD PUSH1 0x20 DUP1 SWAP2 DIV MUL PUSH1 0x20 ADD PUSH1 0x40 MLOAD SWAP1 DUP2 ADD PUSH1 0x40 MSTORE DUP1 SWAP3 SWAP2 SWAP1 DUP2 DUP2 MSTORE PUSH1 0x20 ADD DUP3 DUP1 SLOAD PUSH2 0x12B6 SWAP1 PUSH2 0x1E34 JUMP JUMPDEST DUP1 ISZERO PUSH2 0x1301 JUMPI DUP1 PUSH1 0x1F LT PUSH2 0x12D8 JUMPI PUSH2 0x100 DUP1 DUP4 SLOAD DIV MUL DUP4 MSTORE SWAP2 PUSH1 0x20 ADD SWAP2 PUSH2 0x1301 JUMP JUMPDEST DUP3 ADD SWAP2 SWAP1 PUSH0 MSTORE PUSH1 0x20 PUSH0 KECCAK256 SWAP1 JUMPDEST DUP2 SLOAD DUP2 MSTORE SWAP1 PUSH1 0x1 ADD SWAP1 PUSH1 0x20 ADD DUP1 DUP4 GT PUSH2 0x12E4 JUMPI DUP3 SWAP1 SUB PUSH1 0x1F AND DUP3 ADD SWAP2 JUMPDEST POP POP POP POP POP SWAP1 POP JUMPDEST SWAP3 SWAP2 POP POP JUMP JUMPDEST PUSH0 PUSH1 0x40 MLOAD PUSH32 0x1901000000000000000000000000000000000000000000000000000000000000 DUP2 MSTORE DUP4 PUSH1 0x2 DUP3 ADD MSTORE DUP3 PUSH1 0x22 DUP3 ADD MSTORE PUSH1 0x42 DUP2 KECCAK256 SWAP2 POP POP SWAP3 SWAP2 POP POP JUMP JUMPDEST PUSH0 DUP1 PUSH0 PUSH32 0x7FFFFFFFFFFFFFFFFFFFFFFFFFFFFFFF5D576E7357A4501DDFE92F46681B20A0 DUP5 PUSH0 SHR GT ISZERO PUSH2 0x138B JUMPI PUSH0 PUSH1 0x3 DUP6 SWAP3 POP SWAP3 POP SWAP3 POP PUSH2 0x142C JUMP JUMPDEST PUSH0 PUSH1 0x1 DUP9 DUP9 DUP9 DUP9 PUSH1 0x40 MLOAD PUSH0 DUP2 MSTORE PUSH1 0x20 ADD PUSH1 0x40 MSTORE PUSH1 0x40 MLOAD PUSH2 0x13AE SWAP5 SWAP4 SWAP3 SWAP2 SWAP1 PUSH2 0x1F9D JUMP JUMPDEST PUSH1 0x20 PUSH1 0x40 MLOAD PUSH1 0x20 DUP2 SUB SWAP1 DUP1 DUP5 SUB SWAP1 DUP6 GAS STATICCALL ISZERO DUP1 ISZERO PUSH2 0x13CE JUMPI RETURNDATASIZE PUSH0 DUP1 RETURNDATACOPY RETURNDATASIZE PUSH0 REVERT JUMPDEST POP POP POP PUSH1 0x20 PUSH1 0x40 MLOAD SUB MLOAD SWAP1 POP PUSH0 PUSH20 0xFFFFFFFFFFFFFFFFFFFFFFFFFFFFFFFFFFFFFFFF AND DUP2 PUSH20 0xFFFFFFFFFFFFFFFFFFFFFFFFFFFFFFFFFFFFFFFF AND SUB PUSH2 0x141F JUMPI PUSH0 PUSH1 0x1 PUSH0 DUP1 SHL SWAP4 POP SWAP4 POP SWAP4 POP POP PUSH2 0x142C JUMP JUMPDEST DUP1 PUSH0 DUP1 PUSH0 SHL SWAP4 POP SWAP4 POP SWAP4 POP POP JUMPDEST SWAP5 POP SWAP5 POP SWAP5 SWAP2 POP POP JUMP JUMPDEST PUSH0 PUSH1 0x3 DUP2 GT ISZERO PUSH2 0x1449 JUMPI PUSH2 0x1448 PUSH2 0x1FE0 JUMP JUMPDEST JUMPDEST DUP3 PUSH1 0x3 DUP2 GT ISZERO PUSH2 0x145C JUMPI PUSH2 0x145B PUSH2 0x1FE0 JUMP JUMPDEST JUMPDEST SUB ISZERO PUSH2 0x1594 JUMPI PUSH1 0x1 PUSH1 0x3 DUP2 GT ISZERO PUSH2 0x1476 JUMPI PUSH2 0x1475 PUSH2 0x1FE0 JUMP JUMPDEST JUMPDEST DUP3 PUSH1 0x3 DUP2 GT ISZERO PUSH2 0x1489 JUMPI PUSH2 0x1488 PUSH2 0x1FE0 JUMP JUMPDEST JUMPDEST SUB PUSH2 0x14C0 JUMPI PUSH1 0x40 MLOAD PUSH32 0xF645EEDF00000000000000000000000000000000000000000000000000000000 DUP2 MSTORE PUSH1 0x4 ADD PUSH1 0x40 MLOAD DUP1 SWAP2 SUB SWAP1 REVERT JUMPDEST PUSH1 0x2 PUSH1 0x3 DUP2 GT ISZERO PUSH2 0x14D4 JUMPI PUSH2 0x14D3 PUSH2 0x1FE0 JUMP JUMPDEST JUMPDEST DUP3 PUSH1 0x3 DUP2 GT ISZERO PUSH2 0x14E7 JUMPI PUSH2 0x14E6 PUSH2 0x1FE0 JUMP JUMPDEST JUMPDEST SUB PUSH2 0x152B JUMPI DUP1 PUSH0 SHR PUSH1 0x40 MLOAD PUSH32 0xFCE698F700000000000000000000000000000000000000000000000000000000 DUP2 MSTORE PUSH1 0x4 ADD PUSH2 0x1522 SWAP2 SWAP1 PUSH2 0x1A44 JUMP JUMPDEST PUSH1 0x40 MLOAD DUP1 SWAP2 SUB SWAP1 REVERT JUMPDEST PUSH1 0x3 DUP1 DUP2 GT ISZERO PUSH2 0x153E JUMPI PUSH2 0x153D PUSH2 0x1FE0 JUMP JUMPDEST JUMPDEST DUP3 PUSH1 0x3 DUP2 GT ISZERO PUSH2 0x1551 JUMPI PUSH2 0x1550 PUSH2 0x1FE0 JUMP JUMPDEST JUMPDEST SUB PUSH2 0x1593 JUMPI DUP1 PUSH1 0x40 MLOAD PUSH32 0xD78BCE0C00000000000000000000000000000000000000000000000000000000 DUP2 MSTORE PUSH1 0x4 ADD PUSH2 0x158A SWAP2 SWAP1 PUSH2 0x1AF9 JUMP JUMPDEST PUSH1 0x40 MLOAD DUP1 SWAP2 SUB SWAP1 REVERT JUMPDEST JUMPDEST POP POP JUMP JUMPDEST PUSH2 0x15A0 PUSH2 0x1221 JUMP JUMPDEST PUSH2 0x15AB DUP4 DUP4 DUP4 PUSH2 0x1622 JUMP JUMPDEST POP POP POP JUMP JUMPDEST PUSH1 0x60 PUSH0 PUSH2 0x15BC DUP4 PUSH2 0x183B JUMP JUMPDEST SWAP1 POP PUSH0 PUSH1 0x20 PUSH8 0xFFFFFFFFFFFFFFFF DUP2 GT ISZERO PUSH2 0x15DA JUMPI PUSH2 0x15D9 PUSH2 0x1E64 JUMP JUMPDEST JUMPDEST PUSH1 0x40 MLOAD SWAP1 DUP1 DUP3 MSTORE DUP1 PUSH1 0x1F ADD PUSH1 0x1F NOT AND PUSH1 0x20 ADD DUP3 ADD PUSH1 0x40 MSTORE DUP1 ISZERO PUSH2 0x160C JUMPI DUP2 PUSH1 0x20 ADD PUSH1 0x1 DUP3 MUL DUP1 CALLDATASIZE DUP4 CALLDATACOPY DUP1 DUP3 ADD SWAP2 POP POP SWAP1 POP JUMPDEST POP SWAP1 POP DUP2 DUP2 MSTORE DUP4 PUSH1 0x20 DUP3 ADD MSTORE DUP1 SWAP3 POP POP POP SWAP2 SWAP1 POP JUMP JUMPDEST PUSH0 PUSH20 0xFFFFFFFFFFFFFFFFFFFFFFFFFFFFFFFFFFFFFFFF AND DUP4 PUSH20 0xFFFFFFFFFFFFFFFFFFFFFFFFFFFFFFFFFFFFFFFF AND SUB PUSH2 0x1672 JUMPI DUP1 PUSH1 0x2 PUSH0 DUP3 DUP3 SLOAD PUSH2 0x1666 SWAP2 SWAP1 PUSH2 0x203A JUMP JUMPDEST SWAP3 POP POP DUP2 SWAP1 SSTORE POP PUSH2 0x1740 JUMP JUMPDEST PUSH0 DUP1 PUSH0 DUP6 PUSH20 0xFFFFFFFFFFFFFFFFFFFFFFFFFFFFFFFFFFFFFFFF AND PUSH20 0xFFFFFFFFFFFFFFFFFFFFFFFFFFFFFFFFFFFFFFFF AND DUP2 MSTORE PUSH1 0x20 ADD SWAP1 DUP2 MSTORE PUSH1 0x20 ADD PUSH0 KECCAK256 SLOAD SWAP1 POP DUP2 DUP2 LT ISZERO PUSH2 0x16FB JUMPI DUP4 DUP2 DUP4 PUSH1 0x40 MLOAD PUSH32 0xE450D38C00000000000000000000000000000000000000000000000000000000 DUP2 MSTORE PUSH1 0x4 ADD PUSH2 0x16F2 SWAP4 SWAP3 SWAP2 SWAP1 PUSH2 0x1F17 JUMP JUMPDEST PUSH1 0x40 MLOAD DUP1 SWAP2 SUB SWAP1 REVERT JUMPDEST DUP2 DUP2 SUB PUSH0 DUP1 DUP7 PUSH20 0xFFFFFFFFFFFFFFFFFFFFFFFFFFFFFFFFFFFFFFFF AND PUSH20 0xFFFFFFFFFFFFFFFFFFFFFFFFFFFFFFFFFFFFFFFF AND DUP2 MSTORE PUSH1 0x20 ADD SWAP1 DUP2 MSTORE PUSH1 0x20 ADD PUSH0 KECCAK256 DUP2 SWAP1 SSTORE POP POP JUMPDEST PUSH0 PUSH20 0xFFFFFFFFFFFFFFFFFFFFFFFFFFFFFFFFFFFFFFFF AND DUP3 PUSH20 0xFFFFFFFFFFFFFFFFFFFFFFFFFFFFFFFFFFFFFFFF AND SUB PUSH2 0x1787 JUMPI DUP1 PUSH1 0x2 PUSH0 DUP3 DUP3 SLOAD SUB SWAP3 POP POP DUP2 SWAP1 SSTORE POP PUSH2 0x17D1 JUMP JUMPDEST DUP1 PUSH0 DUP1 DUP5 PUSH20 0xFFFFFFFFFFFFFFFFFFFFFFFFFFFFFFFFFFFFFFFF AND PUSH20 0xFFFFFFFFFFFFFFFFFFFFFFFFFFFFFFFFFFFFFFFF AND DUP2 MSTORE PUSH1 0x20 ADD SWAP1 DUP2 MSTORE PUSH1 0x20 ADD PUSH0 KECCAK256 PUSH0 DUP3 DUP3 SLOAD ADD SWAP3 POP POP DUP2 SWAP1 SSTORE POP JUMPDEST DUP2 PUSH20 0xFFFFFFFFFFFFFFFFFFFFFFFFFFFFFFFFFFFFFFFF AND DUP4 PUSH20 0xFFFFFFFFFFFFFFFFFFFFFFFFFFFFFFFFFFFFFFFF AND PUSH32 0xDDF252AD1BE2C89B69C2B068FC378DAA952BA7F163C4A11628F55A4DF523B3EF DUP4 PUSH1 0x40 MLOAD PUSH2 0x182E SWAP2 SWAP1 PUSH2 0x1A44 JUMP JUMPDEST PUSH1 0x40 MLOAD DUP1 SWAP2 SUB SWAP1 LOG3 POP POP POP JUMP JUMPDEST PUSH0 DUP1 PUSH1 0xFF DUP4 PUSH0 SHR AND SWAP1 POP PUSH1 0x1F DUP2 GT ISZERO PUSH2 0x1880 JUMPI PUSH1 0x40 MLOAD PUSH32 0xB3512B0C00000000000000000000000000000000000000000000000000000000 DUP2 MSTORE PUSH1 0x4 ADD PUSH1 0x40 MLOAD DUP1 SWAP2 SUB SWAP1 REVERT JUMPDEST DUP1 SWAP2 POP POP SWAP2 SWAP1 POP JUMP JUMPDEST PUSH0 DUP2 MLOAD SWAP1 POP SWAP2 SWAP1 POP JUMP JUMPDEST PUSH0 DUP3 DUP3 MSTORE PUSH1 0x20 DUP3 ADD SWAP1 POP SWAP3 SWAP2 POP POP JUMP JUMPDEST PUSH0 JUMPDEST DUP4 DUP2 LT ISZERO PUSH2 0x18C0 JUMPI DUP1 DUP3 ADD MLOAD DUP2 DUP5 ADD MSTORE PUSH1 0x20 DUP2 ADD SWAP1 POP PUSH2 0x18A5 JUMP JUMPDEST PUSH0 DUP5 DUP5 ADD MSTORE POP POP POP POP JUMP JUMPDEST PUSH0 PUSH1 0x1F NOT PUSH1 0x1F DUP4 ADD AND SWAP1 POP SWAP2 SWAP1 POP JUMP JUMPDEST PUSH0 PUSH2 0x18E5 DUP3 PUSH2 0x1889 JUMP JUMPDEST PUSH2 0x18EF DUP2 DUP6 PUSH2 0x1893 JUMP JUMPDEST SWAP4 POP PUSH2 0x18FF DUP2 DUP6 PUSH1 0x20 DUP7 ADD PUSH2 0x18A3 JUMP JUMPDEST PUSH2 0x1908 DUP2 PUSH2 0x18CB JUMP JUMPDEST DUP5 ADD SWAP2 POP POP SWAP3 SWAP2 POP POP JUMP JUMPDEST PUSH0 PUSH1 0x20 DUP3 ADD SWAP1 POP DUP2 DUP2 SUB PUSH0 DUP4 ADD MSTORE PUSH2 0x192B DUP2 DUP5 PUSH2 0x18DB JUMP JUMPDEST SWAP1 POP SWAP3 SWAP2 POP POP JUMP JUMPDEST PUSH0 DUP1 REVERT JUMPDEST PUSH0 PUSH20 0xFFFFFFFFFFFFFFFFFFFFFFFFFFFFFFFFFFFFFFFF DUP3 AND SWAP1 POP SWAP2 SWAP1 POP JUMP JUMPDEST PUSH0 PUSH2 0x1960 DUP3 PUSH2 0x1937 JUMP JUMPDEST SWAP1 POP SWAP2 SWAP1 POP JUMP JUMPDEST PUSH2 0x1970 DUP2 PUSH2 0x1956 JUMP JUMPDEST DUP2 EQ PUSH2 0x197A JUMPI PUSH0 DUP1 REVERT JUMPDEST POP JUMP JUMPDEST PUSH0 DUP2 CALLDATALOAD SWAP1 POP PUSH2 0x198B DUP2 PUSH2 0x1967 JUMP JUMPDEST SWAP3 SWAP2 POP POP JUMP JUMPDEST PUSH0 DUP2 SWAP1 POP SWAP2 SWAP1 POP JUMP JUMPDEST PUSH2 0x19A3 DUP2 PUSH2 0x1991 JUMP JUMPDEST DUP2 EQ PUSH2 0x19AD JUMPI PUSH0 DUP1 REVERT JUMPDEST POP JUMP JUMPDEST PUSH0 DUP2 CALLDATALOAD SWAP1 POP PUSH2 0x19BE DUP2 PUSH2 0x199A JUMP JUMPDEST SWAP3 SWAP2 POP POP JUMP JUMPDEST PUSH0 DUP1 PUSH1 0x40 DUP4 DUP6 SUB SLT ISZERO PUSH2 0x19DA JUMPI PUSH2 0x19D9 PUSH2 0x1933 JUMP JUMPDEST JUMPDEST PUSH0 PUSH2 0x19E7 DUP6 DUP3 DUP7 ADD PUSH2 0x197D JUMP JUMPDEST SWAP3 POP POP PUSH1 0x20 PUSH2 0x19F8 DUP6 DUP3 DUP7 ADD PUSH2 0x19B0 JUMP JUMPDEST SWAP2 POP POP SWAP3 POP SWAP3 SWAP1 POP JUMP JUMPDEST PUSH0 DUP2 ISZERO ISZERO SWAP1 POP SWAP2 SWAP1 POP JUMP JUMPDEST PUSH2 0x1A16 DUP2 PUSH2 0x1A02 JUMP JUMPDEST DUP3 MSTORE POP POP JUMP JUMPDEST PUSH0 PUSH1 0x20 DUP3 ADD SWAP1 POP PUSH2 0x1A2F PUSH0 DUP4 ADD DUP5 PUSH2 0x1A0D JUMP JUMPDEST SWAP3 SWAP2 POP POP JUMP JUMPDEST PUSH2 0x1A3E DUP2 PUSH2 0x1991 JUMP JUMPDEST DUP3 MSTORE POP POP JUMP JUMPDEST PUSH0 PUSH1 0x20 DUP3 ADD SWAP1 POP PUSH2 0x1A57 PUSH0 DUP4 ADD DUP5 PUSH2 0x1A35 JUMP JUMPDEST SWAP3 SWAP2 POP POP JUMP JUMPDEST PUSH0 DUP1 PUSH0 PUSH1 0x60 DUP5 DUP7 SUB SLT ISZERO PUSH2 0x1A74 JUMPI PUSH2 0x1A73 PUSH2 0x1933 JUMP JUMPDEST JUMPDEST PUSH0 PUSH2 0x1A81 DUP7 DUP3 DUP8 ADD PUSH2 0x197D JUMP JUMPDEST SWAP4 POP POP PUSH1 0x20 PUSH2 0x1A92 DUP7 DUP3 DUP8 ADD PUSH2 0x197D JUMP JUMPDEST SWAP3 POP POP PUSH1 0x40 PUSH2 0x1AA3 DUP7 DUP3 DUP8 ADD PUSH2 0x19B0 JUMP JUMPDEST SWAP2 POP POP SWAP3 POP SWAP3 POP SWAP3 JUMP JUMPDEST PUSH0 PUSH1 0xFF DUP3 AND SWAP1 POP SWAP2 SWAP1 POP JUMP JUMPDEST PUSH2 0x1AC2 DUP2 PUSH2 0x1AAD JUMP JUMPDEST DUP3 MSTORE POP POP JUMP JUMPDEST PUSH0 PUSH1 0x20 DUP3 ADD SWAP1 POP PUSH2 0x1ADB PUSH0 DUP4 ADD DUP5 PUSH2 0x1AB9 JUMP JUMPDEST SWAP3 SWAP2 POP POP JUMP JUMPDEST PUSH0 DUP2 SWAP1 POP SWAP2 SWAP1 POP JUMP JUMPDEST PUSH2 0x1AF3 DUP2 PUSH2 0x1AE1 JUMP JUMPDEST DUP3 MSTORE POP POP JUMP JUMPDEST PUSH0 PUSH1 0x20 DUP3 ADD SWAP1 POP PUSH2 0x1B0C PUSH0 DUP4 ADD DUP5 PUSH2 0x1AEA JUMP JUMPDEST SWAP3 SWAP2 POP POP JUMP JUMPDEST PUSH0 PUSH1 0x20 DUP3 DUP5 SUB SLT ISZERO PUSH2 0x1B27 JUMPI PUSH2 0x1B26 PUSH2 0x1933 JUMP JUMPDEST JUMPDEST PUSH0 PUSH2 0x1B34 DUP5 DUP3 DUP6 ADD PUSH2 0x197D JUMP JUMPDEST SWAP2 POP POP SWAP3 SWAP2 POP POP JUMP JUMPDEST PUSH0 PUSH32 0xFF00000000000000000000000000000000000000000000000000000000000000 DUP3 AND SWAP1 POP SWAP2 SWAP1 POP JUMP JUMPDEST PUSH2 0x1B71 DUP2 PUSH2 0x1B3D JUMP JUMPDEST DUP3 MSTORE POP POP JUMP JUMPDEST PUSH2 0x1B80 DUP2 PUSH2 0x1956 JUMP JUMPDEST DUP3 MSTORE POP POP JUMP JUMPDEST PUSH0 DUP2 MLOAD SWAP1 POP SWAP2 SWAP1 POP JUMP JUMPDEST PUSH0 DUP3 DUP3 MSTORE PUSH1 0x20 DUP3 ADD SWAP1 POP SWAP3 SWAP2 POP POP JUMP JUMPDEST PUSH0 DUP2 SWAP1 POP PUSH1 0x20 DUP3 ADD SWAP1 POP SWAP2 SWAP1 POP JUMP JUMPDEST PUSH2 0x1BB8 DUP2 PUSH2 0x1991 JUMP JUMPDEST DUP3 MSTORE POP POP JUMP JUMPDEST PUSH0 PUSH2 0x1BC9 DUP4 DUP4 PUSH2 0x1BAF JUMP JUMPDEST PUSH1 0x20 DUP4 ADD SWAP1 POP SWAP3 SWAP2 POP POP JUMP JUMPDEST PUSH0 PUSH1 0x20 DUP3 ADD SWAP1 POP SWAP2 SWAP1 POP JUMP JUMPDEST PUSH0 PUSH2 0x1BEB DUP3 PUSH2 0x1B86 JUMP JUMPDEST PUSH2 0x1BF5 DUP2 DUP6 PUSH2 0x1B90 JUMP JUMPDEST SWAP4 POP PUSH2 0x1C00 DUP4 PUSH2 0x1BA0 JUMP JUMPDEST DUP1 PUSH0 JUMPDEST DUP4 DUP2 LT ISZERO PUSH2 0x1C30 JUMPI DUP2 MLOAD PUSH2 0x1C17 DUP9 DUP3 PUSH2 0x1BBE JUMP JUMPDEST SWAP8 POP PUSH2 0x1C22 DUP4 PUSH2 0x1BD5 JUMP JUMPDEST SWAP3 POP POP PUSH1 0x1 DUP2 ADD SWAP1 POP PUSH2 0x1C03 JUMP JUMPDEST POP DUP6 SWAP4 POP POP POP POP SWAP3 SWAP2 POP POP JUMP JUMPDEST PUSH0 PUSH1 0xE0 DUP3 ADD SWAP1 POP PUSH2 0x1C50 PUSH0 DUP4 ADD DUP11 PUSH2 0x1B68 JUMP JUMPDEST DUP2 DUP2 SUB PUSH1 0x20 DUP4 ADD MSTORE PUSH2 0x1C62 DUP2 DUP10 PUSH2 0x18DB JUMP JUMPDEST SWAP1 POP DUP2 DUP2 SUB PUSH1 0x40 DUP4 ADD MSTORE PUSH2 0x1C76 DUP2 DUP9 PUSH2 0x18DB JUMP JUMPDEST SWAP1 POP PUSH2 0x1C85 PUSH1 0x60 DUP4 ADD DUP8 PUSH2 0x1A35 JUMP JUMPDEST PUSH2 0x1C92 PUSH1 0x80 DUP4 ADD DUP7 PUSH2 0x1B77 JUMP JUMPDEST PUSH2 0x1C9F PUSH1 0xA0 DUP4 ADD DUP6 PUSH2 0x1AEA JUMP JUMPDEST DUP2 DUP2 SUB PUSH1 0xC0 DUP4 ADD MSTORE PUSH2 0x1CB1 DUP2 DUP5 PUSH2 0x1BE1 JUMP JUMPDEST SWAP1 POP SWAP9 SWAP8 POP POP POP POP POP POP POP POP JUMP JUMPDEST PUSH0 PUSH1 0x20 DUP3 ADD SWAP1 POP PUSH2 0x1CD2 PUSH0 DUP4 ADD DUP5 PUSH2 0x1B77 JUMP JUMPDEST SWAP3 SWAP2 POP POP JUMP JUMPDEST PUSH2 0x1CE1 DUP2 PUSH2 0x1AAD JUMP JUMPDEST DUP2 EQ PUSH2 0x1CEB JUMPI PUSH0 DUP1 REVERT JUMPDEST POP JUMP JUMPDEST PUSH0 DUP2 CALLDATALOAD SWAP1 POP PUSH2 0x1CFC DUP2 PUSH2 0x1CD8 JUMP JUMPDEST SWAP3 SWAP2 POP POP JUMP JUMPDEST PUSH2 0x1D0B DUP2 PUSH2 0x1AE1 JUMP JUMPDEST DUP2 EQ PUSH2 0x1D15 JUMPI PUSH0 DUP1 REVERT JUMPDEST POP JUMP JUMPDEST PUSH0 DUP2 CALLDATALOAD SWAP1 POP PUSH2 0x1D26 DUP2 PUSH2 0x1D02 JUMP JUMPDEST SWAP3 SWAP2 POP POP JUMP JUMPDEST PUSH0 DUP1 PUSH0 DUP1 PUSH0 DUP1 PUSH0 PUSH1 0xE0 DUP9 DUP11 SUB SLT ISZERO PUSH2 0x1D47 JUMPI PUSH2 0x1D46 PUSH2 0x1933 JUMP JUMPDEST JUMPDEST PUSH0 PUSH2 0x1D54 DUP11 DUP3 DUP12 ADD PUSH2 0x197D JUMP JUMPDEST SWAP8 POP POP PUSH1 0x20 PUSH2 0x1D65 DUP11 DUP3 DUP12 ADD PUSH2 0x197D JUMP JUMPDEST SWAP7 POP POP PUSH1 0x40 PUSH2 0x1D76 DUP11 DUP3 DUP12 ADD PUSH2 0x19B0 JUMP JUMPDEST SWAP6 POP POP PUSH1 0x60 PUSH2 0x1D87 DUP11 DUP3 DUP12 ADD PUSH2 0x19B0 JUMP JUMPDEST SWAP5 POP POP PUSH1 0x80 PUSH2 0x1D98 DUP11 DUP3 DUP12 ADD PUSH2 0x1CEE JUMP JUMPDEST SWAP4 POP POP PUSH1 0xA0 PUSH2 0x1DA9 DUP11 DUP3 DUP12 ADD PUSH2 0x1D18 JUMP JUMPDEST SWAP3 POP POP PUSH1 0xC0 PUSH2 0x1DBA DUP11 DUP3 DUP12 ADD PUSH2 0x1D18 JUMP JUMPDEST SWAP2 POP POP SWAP3 SWAP6 SWAP9 SWAP2 SWAP5 SWAP8 POP SWAP3 SWAP6 POP JUMP JUMPDEST PUSH0 DUP1 PUSH1 0x40 DUP4 DUP6 SUB SLT ISZERO PUSH2 0x1DDF JUMPI PUSH2 0x1DDE PUSH2 0x1933 JUMP JUMPDEST JUMPDEST PUSH0 PUSH2 0x1DEC DUP6 DUP3 DUP7 ADD PUSH2 0x197D JUMP JUMPDEST SWAP3 POP POP PUSH1 0x20 PUSH2 0x1DFD DUP6 DUP3 DUP7 ADD PUSH2 0x197D JUMP JUMPDEST SWAP2 POP POP SWAP3 POP SWAP3 SWAP1 POP JUMP JUMPDEST PUSH32 0x4E487B7100000000000000000000000000000000000000000000000000000000 PUSH0 MSTORE PUSH1 0x22 PUSH1 0x4 MSTORE PUSH1 0x24 PUSH0 REVERT JUMPDEST PUSH0 PUSH1 0x2 DUP3 DIV SWAP1 POP PUSH1 0x1 DUP3 AND DUP1 PUSH2 0x1E4B JUMPI PUSH1 0x7F DUP3 AND SWAP2 POP JUMPDEST PUSH1 0x20 DUP3 LT DUP2 SUB PUSH2 0x1E5E JUMPI PUSH2 0x1E5D PUSH2 0x1E07 JUMP JUMPDEST JUMPDEST POP SWAP2 SWAP1 POP JUMP JUMPDEST PUSH32 0x4E487B7100000000000000000000000000000000000000000000000000000000 PUSH0 MSTORE PUSH1 0x41 PUSH1 0x4 MSTORE PUSH1 0x24 PUSH0 REVERT JUMPDEST PUSH0 PUSH1 0xC0 DUP3 ADD SWAP1 POP PUSH2 0x1EA4 PUSH0 DUP4 ADD DUP10 PUSH2 0x1AEA JUMP JUMPDEST PUSH2 0x1EB1 PUSH1 0x20 DUP4 ADD DUP9 PUSH2 0x1B77 JUMP JUMPDEST PUSH2 0x1EBE PUSH1 0x40 DUP4 ADD DUP8 PUSH2 0x1B77 JUMP JUMPDEST PUSH2 0x1ECB PUSH1 0x60 DUP4 ADD DUP7 PUSH2 0x1A35 JUMP JUMPDEST PUSH2 0x1ED8 PUSH1 0x80 DUP4 ADD DUP6 PUSH2 0x1A35 JUMP JUMPDEST PUSH2 0x1EE5 PUSH1 0xA0 DUP4 ADD DUP5 PUSH2 0x1A35 JUMP JUMPDEST SWAP8 SWAP7 POP POP POP POP POP POP POP JUMP JUMPDEST PUSH0 PUSH1 0x40 DUP3 ADD SWAP1 POP PUSH2 0x1F03 PUSH0 DUP4 ADD DUP6 PUSH2 0x1B77 JUMP JUMPDEST PUSH2 0x1F10 PUSH1 0x20 DUP4 ADD DUP5 PUSH2 0x1B77 JUMP JUMPDEST SWAP4 SWAP3 POP POP POP JUMP JUMPDEST PUSH0 PUSH1 0x60 DUP3 ADD SWAP1 POP PUSH2 0x1F2A PUSH0 DUP4 ADD DUP7 PUSH2 0x1B77 JUMP JUMPDEST PUSH2 0x1F37 PUSH1 0x20 DUP4 ADD DUP6 PUSH2 0x1A35 JUMP JUMPDEST PUSH2 0x1F44 PUSH1 0x40 DUP4 ADD DUP5 PUSH2 0x1A35 JUMP JUMPDEST SWAP5 SWAP4 POP POP POP POP JUMP JUMPDEST PUSH0 PUSH1 0xA0 DUP3 ADD SWAP1 POP PUSH2 0x1F5F PUSH0 DUP4 ADD DUP9 PUSH2 0x1AEA JUMP JUMPDEST PUSH2 0x1F6C PUSH1 0x20 DUP4 ADD DUP8 PUSH2 0x1AEA JUMP JUMPDEST PUSH2 0x1F79 PUSH1 0x40 DUP4 ADD DUP7 PUSH2 0x1AEA JUMP JUMPDEST PUSH2 0x1F86 PUSH1 0x60 DUP4 ADD DUP6 PUSH2 0x1A35 JUMP JUMPDEST PUSH2 0x1F93 PUSH1 0x80 DUP4 ADD DUP5 PUSH2 0x1B77 JUMP JUMPDEST SWAP7 SWAP6 POP POP POP POP POP POP JUMP JUMPDEST PUSH0 PUSH1 0x80 DUP3 ADD SWAP1 POP PUSH2 0x1FB0 PUSH0 DUP4 ADD DUP8 PUSH2 0x1AEA JUMP JUMPDEST PUSH2 0x1FBD PUSH1 0x20 DUP4 ADD DUP7 PUSH2 0x1AB9 JUMP JUMPDEST PUSH2 0x1FCA PUSH1 0x40 DUP4 ADD DUP6 PUSH2 0x1AEA JUMP JUMPDEST PUSH2 0x1FD7 PUSH1 0x60 DUP4 ADD DUP5 PUSH2 0x1AEA JUMP JUMPDEST SWAP6 SWAP5 POP POP POP POP POP JUMP JUMPDEST PUSH32 0x4E487B7100000000000000000000000000000000000000000000000000000000 PUSH0 MSTORE PUSH1 0x21 PUSH1 0x4 MSTORE PUSH1 0x24 PUSH0 REVERT JUMPDEST PUSH32 0x4E487B7100000000000000000000000000000000000000000000000000000000 PUSH0 MSTORE PUSH1 0x11 PUSH1 0x4 MSTORE PUSH1 0x24 PUSH0 REVERT JUMPDEST PUSH0 PUSH2 0x2044 DUP3 PUSH2 0x1991 JUMP JUMPDEST SWAP2 POP PUSH2 0x204F DUP4 PUSH2 0x1991 JUMP JUMPDEST SWAP3 POP DUP3 DUP3 ADD SWAP1 POP DUP1 DUP3 GT ISZERO PUSH2 0x2067 JUMPI PUSH2 0x2066 PUSH2 0x200D JUMP JUMPDEST JUMPDEST SWAP3 SWAP2 POP POP JUMP INVALID LOG2 PUSH5 0x6970667358 0x22 SLT KECCAK256 0xD ADDMOD DUP2 0xF8 CREATE 0xE4 JUMPDEST DUP7 DUP9 0xED SHR SLT SLT 0xC4 EQ PUSH18 0xFD5A1B897221FDA5C658AF5036EC3B076473 PUSH16 0x6C634300081600330000000000000000 "
				},
				"gasEstimates": {
					"creation": {
						"codeDepositCost": "1671000",
						"executionCost": "infinite",
						"totalCost": "infinite"
					},
					"external": {
						"DOMAIN_SEPARATOR()": "infinite",
						"allowance(address,address)": "infinite",
						"approve(address,uint256)": "infinite",
						"balanceOf(address)": "2940",
						"decimals()": "450",
						"eip712Domain()": "infinite",
						"mint(address,uint256)": "infinite",
						"name()": "infinite",
						"nonces(address)": "2916",
						"owner()": "2677",
						"pause()": "infinite",
						"paused()": "2562",
						"permit(address,address,uint256,uint256,uint8,bytes32,bytes32)": "infinite",
						"renounceOwnership()": "infinite",
						"symbol()": "infinite",
						"totalSupply()": "2500",
						"transfer(address,uint256)": "infinite",
						"transferFrom(address,address,uint256)": "infinite",
						"transferOwnership(address)": "infinite",
						"unpause()": "infinite"
					},
					"internal": {
						"_update(address,address,uint256)": "infinite"
					}
				},
				"methodIdentifiers": {
					"DOMAIN_SEPARATOR()": "3644e515",
					"allowance(address,address)": "dd62ed3e",
					"approve(address,uint256)": "095ea7b3",
					"balanceOf(address)": "70a08231",
					"decimals()": "313ce567",
					"eip712Domain()": "84b0196e",
					"mint(address,uint256)": "40c10f19",
					"name()": "06fdde03",
					"nonces(address)": "7ecebe00",
					"owner()": "8da5cb5b",
					"pause()": "8456cb59",
					"paused()": "5c975abb",
					"permit(address,address,uint256,uint256,uint8,bytes32,bytes32)": "d505accf",
					"renounceOwnership()": "715018a6",
					"symbol()": "95d89b41",
					"totalSupply()": "18160ddd",
					"transfer(address,uint256)": "a9059cbb",
					"transferFrom(address,address,uint256)": "23b872dd",
					"transferOwnership(address)": "f2fde38b",
					"unpause()": "3f4ba83a"
				}
			},
			"storageLayout": {
				"storage": [
					{
						"astId": 332,
						"contract": "contracts/PalToken.sol:PalToken",
						"label": "_balances",
						"offset": 0,
						"slot": "0",
						"type": "t_mapping(t_address,t_uint256)"
					},
					{
						"astId": 338,
						"contract": "contracts/PalToken.sol:PalToken",
						"label": "_allowances",
						"offset": 0,
						"slot": "1",
						"type": "t_mapping(t_address,t_mapping(t_address,t_uint256))"
					},
					{
						"astId": 340,
						"contract": "contracts/PalToken.sol:PalToken",
						"label": "_totalSupply",
						"offset": 0,
						"slot": "2",
						"type": "t_uint256"
					},
					{
						"astId": 342,
						"contract": "contracts/PalToken.sol:PalToken",
						"label": "_name",
						"offset": 0,
						"slot": "3",
						"type": "t_string_storage"
					},
					{
						"astId": 344,
						"contract": "contracts/PalToken.sol:PalToken",
						"label": "_symbol",
						"offset": 0,
						"slot": "4",
						"type": "t_string_storage"
					},
					{
						"astId": 1259,
						"contract": "contracts/PalToken.sol:PalToken",
						"label": "_paused",
						"offset": 0,
						"slot": "5",
						"type": "t_bool"
					},
					{
						"astId": 8,
						"contract": "contracts/PalToken.sol:PalToken",
						"label": "_owner",
						"offset": 1,
						"slot": "5",
						"type": "t_address"
					},
					{
						"astId": 2334,
						"contract": "contracts/PalToken.sol:PalToken",
						"label": "_nameFallback",
						"offset": 0,
						"slot": "6",
						"type": "t_string_storage"
					},
					{
						"astId": 2336,
						"contract": "contracts/PalToken.sol:PalToken",
						"label": "_versionFallback",
						"offset": 0,
						"slot": "7",
						"type": "t_string_storage"
					},
					{
						"astId": 1196,
						"contract": "contracts/PalToken.sol:PalToken",
						"label": "_nonces",
						"offset": 0,
						"slot": "8",
						"type": "t_mapping(t_address,t_uint256)"
					}
				],
				"types": {
					"t_address": {
						"encoding": "inplace",
						"label": "address",
						"numberOfBytes": "20"
					},
					"t_bool": {
						"encoding": "inplace",
						"label": "bool",
						"numberOfBytes": "1"
					},
					"t_mapping(t_address,t_mapping(t_address,t_uint256))": {
						"encoding": "mapping",
						"key": "t_address",
						"label": "mapping(address => mapping(address => uint256))",
						"numberOfBytes": "32",
						"value": "t_mapping(t_address,t_uint256)"
					},
					"t_mapping(t_address,t_uint256)": {
						"encoding": "mapping",
						"key": "t_address",
						"label": "mapping(address => uint256)",
						"numberOfBytes": "32",
						"value": "t_uint256"
					},
					"t_string_storage": {
						"encoding": "bytes",
						"label": "string",
						"numberOfBytes": "32"
					},
					"t_uint256": {
						"encoding": "inplace",
						"label": "uint256",
						"numberOfBytes": "32"
					}
				}
			},
			"userdoc": {
				"kind": "user",
				"methods": {},
				"version": 1
			}
		}
	}
}