{
	"data": {
		"bytecode": {
			"linkReferences": {},
			"object": "608060405234801561000f575f80fd5b506102168061001d5f395ff3fe608060405234801561000f575f80fd5b5060043610610029575f3560e01c80636e721bfa1461002d575b5f80fd5b61004760048036038101906100429190610199565b610049565b005b50565b5f604051905090565b5f80fd5b5f80fd5b5f80fd5b5f80fd5b5f601f19601f8301169050919050565b7f4e487b71000000000000000000000000000000000000000000000000000000005f52604160045260245ffd5b6100ab82610065565b810181811067ffffffffffffffff821117156100ca576100c9610075565b5b80604052505050565b5f6100dc61004c565b90506100e882826100a2565b919050565b5f67ffffffffffffffff82111561010757610106610075565b5b61011082610065565b9050602081019050919050565b828183375f83830152505050565b5f61013d610138846100ed565b6100d3565b90508281526020810184848401111561015957610158610061565b5b61016484828561011d565b509392505050565b5f82601f8301126101805761017f61005d565b5b813561019084826020860161012b565b91505092915050565b5f602082840312156101ae576101ad610055565b5b5f82013567ffffffffffffffff8111156101cb576101ca610059565b5b6101d78482850161016c565b9150509291505056fea2646970667358221220afc5cfbdc467dbe1ba2b68980e558340f122dd521ae8c629cdc5a379e23c4c1f64736f6c63430008160033",
			"opcodes": "PUSH1 0x80 PUSH1 0x40 MSTORE CALLVALUE DUP1 ISZERO PUSH2 0xF JUMPI PUSH0 DUP1 REVERT JUMPDEST POP PUSH2 0x216 DUP1 PUSH2 0x1D PUSH0 CODECOPY PUSH0 RETURN INVALID PUSH1 0x80 PUSH1 0x40 MSTORE CALLVALUE DUP1 ISZERO PUSH2 0xF JUMPI PUSH0 DUP1 REVERT JUMPDEST POP PUSH1 0x4 CALLDATASIZE LT PUSH2 0x29 JUMPI PUSH0 CALLDATALOAD PUSH1 0xE0 SHR DUP1 PUSH4 0x6E721BFA EQ PUSH2 0x2D JUMPI JUMPDEST PUSH0 DUP1 REVERT JUMPDEST PUSH2 0x47 PUSH1 0x4 DUP1 CALLDATASIZE SUB DUP2 ADD SWAP1 PUSH2 0x42 SWAP2 SWAP1 PUSH2 0x199 JUMP JUMPDEST PUSH2 0x49 JUMP JUMPDEST STOP JUMPDEST POP JUMP JUMPDEST PUSH0 PUSH1 0x40 MLOAD SWAP1 POP SWAP1 JUMP JUMPDEST PUSH0 DUP1 REVERT JUMPDEST PUSH0 DUP1 REVERT JUMPDEST PUSH0 DUP1 REVERT JUMPDEST PUSH0 DUP1 REVERT JUMPDEST PUSH0 PUSH1 0x1F NOT PUSH1 0x1F DUP4 ADD AND SWAP1 POP SWAP2 SWAP1 POP JUMP JUMPDEST PUSH32 0x4E487B7100000000000000000000000000000000000000000000000000000000 PUSH0 MSTORE PUSH1 0x41 PUSH1 0x4 MSTORE PUSH1 0x24 PUSH0 REVERT JUMPDEST PUSH2 0xAB DUP3 PUSH2 0x65 JUMP JUMPDEST DUP2 ADD DUP2 DUP2 LT PUSH8 0xFFFFFFFFFFFFFFFF DUP3 GT OR ISZERO PUSH2 0xCA JUMPI PUSH2 0xC9 PUSH2 0x75 JUMP JUMPDEST JUMPDEST DUP1 PUSH1 0x40 MSTORE POP POP POP JUMP JUMPDEST PUSH0 PUSH2 0xDC PUSH2 0x4C JUMP JUMPDEST SWAP1 POP PUSH2 0xE8 DUP3 DUP3 PUSH2 0xA2 JUMP JUMPDEST SWAP2 SWAP1 POP JUMP JUMPDEST PUSH0 PUSH8 0xFFFFFFFFFFFFFFFF DUP3 GT ISZERO PUSH2 0x107 JUMPI PUSH2 0x106 PUSH2 0x75 JUMP JUMPDEST JUMPDEST PUSH2 0x110 DUP3 PUSH2 0x65 JUMP JUMPDEST SWAP1 POP PUSH1 0x20 DUP2 ADD SWAP1 POP SWAP2 SWAP1 POP JUMP JUMPDEST DUP3 DUP2 DUP4 CALLDATACOPY PUSH0 DUP4 DUP4 ADD MSTORE POP POP POP JUMP JUMPDEST PUSH0 PUSH2 0x13D PUSH2 0x138 DUP5 PUSH2 0xED JUMP JUMPDEST PUSH2 0xD3 JUMP JUMPDEST SWAP1 POP DUP3 DUP2 MSTORE PUSH1 0x20 DUP2 ADD DUP5 DUP5 DUP5 ADD GT ISZERO PUSH2 0x159 JUMPI PUSH2 0x158 PUSH2 0x61 JUMP JUMPDEST JUMPDEST PUSH2 0x164 DUP5 DUP3 DUP6 PUSH2 0x11D JUMP JUMPDEST POP SWAP4 SWAP3 POP POP POP JUMP JUMPDEST PUSH0 DUP3 PUSH1 0x1F DUP4 ADD SLT PUSH2 0x180 JUMPI PUSH2 0x17F PUSH2 0x5D JUMP JUMPDEST JUMPDEST DUP2 CALLDATALOAD PUSH2 0x190 DUP5 DUP3 PUSH1 0x20 DUP7 ADD PUSH2 0x12B JUMP JUMPDEST SWAP2 POP POP SWAP3 SWAP2 POP POP JUMP JUMPDEST PUSH0 PUSH1 0x20 DUP3 DUP5 SUB SLT ISZERO PUSH2 0x1AE JUMPI PUSH2 0x1AD PUSH2 0x55 JUMP JUMPDEST JUMPDEST PUSH0 DUP3 ADD CALLDATALOAD PUSH8 0xFFFFFFFFFFFFFFFF DUP2 GT ISZERO PUSH2 0x1CB JUMPI PUSH2 0x1CA PUSH2 0x59 JUMP JUMPDEST JUMPDEST PUSH2 0x1D7 DUP5 DUP3 DUP6 ADD PUSH2 0x16C JUMP JUMPDEST SWAP2 POP POP SWAP3 SWAP2 POP POP JUMP INVALID LOG2 PUSH5 0x6970667358 0x22 SLT KECCAK256 0xAF 0xC5 0xCF 0xBD 0xC4 PUSH8 0xDBE1BA2B68980E55 DUP4 BLOCKHASH CALL 0x22 0xDD MSTORE BYTE 0xE8 0xC6 0x29 0xCD 0xC5 LOG3 PUSH26 0xE23C4C1F64736F6C634300081600330000000000000000000000 "
		},
		"gasEstimates": {
			"creation": {
				"codeDepositCost": "106800",
				"executionCost": "151",
				"totalCost": "106951"
			},
			"external": {
				"createKnowlegde(string)": "infinite"
			}
		},
		"methodIdentifiers": {
			"createKnowlegde(string)": "6e721bfa"
		}
	},
	"abi": [
		{
			"inputs": [
				{
					"internalType": "string",
					"name": "knowledge",
					"type": "string"
				}
			],
			"name": "createKnowlegde",
			"outputs": [],
			"stateMutability": "nonpayable",
			"type": "function"
		}
	]
}