{
	"data": {
		"bytecode": {
			"linkReferences": {},
			"object": "608060405260015f9054906101000a900473ffffffffffffffffffffffffffffffffffffffff1673ffffffffffffffffffffffffffffffffffffffff1663313ce5676040518163ffffffff1660e01b8152600401602060405180830381865afa1580156200006f573d5f803e3d5ffd5b505050506040513d601f19601f82011682018060405250810190620000959190620001a9565b600a620000a3919062000356565b6014620000b19190620003a6565b600255348015620000c0575f80fd5b50604051620008e2380380620008e28339818101604052810190620000e6919062000451565b815f806101000a81548173ffffffffffffffffffffffffffffffffffffffff021916908373ffffffffffffffffffffffffffffffffffffffff1602179055508060015f6101000a81548173ffffffffffffffffffffffffffffffffffffffff021916908373ffffffffffffffffffffffffffffffffffffffff160217905550505062000496565b5f80fd5b5f819050919050565b620001858162000171565b811462000190575f80fd5b50565b5f81519050620001a3816200017a565b92915050565b5f60208284031215620001c157620001c06200016d565b5b5f620001d08482850162000193565b91505092915050565b7f4e487b71000000000000000000000000000000000000000000000000000000005f52601160045260245ffd5b5f8160011c9050919050565b5f808291508390505b600185111562000263578086048111156200023b576200023a620001d9565b5b60018516156200024b5780820291505b80810290506200025b8562000206565b94506200021b565b94509492505050565b5f826200027d57600190506200034f565b816200028c575f90506200034f565b8160018114620002a55760028114620002b057620002e6565b60019150506200034f565b60ff841115620002c557620002c4620001d9565b5b8360020a915084821115620002df57620002de620001d9565b5b506200034f565b5060208310610133831016604e8410600b8410161715620003205782820a9050838111156200031a5762000319620001d9565b5b6200034f565b6200032f848484600162000212565b92509050818404811115620003495762000348620001d9565b5b81810290505b9392505050565b5f620003628262000171565b91506200036f8362000171565b92506200039e7fffffffffffffffffffffffffffffffffffffffffffffffffffffffffffffffff84846200026c565b905092915050565b5f620003b28262000171565b9150620003bf8362000171565b9250828202620003cf8162000171565b91508282048414831517620003e957620003e8620001d9565b5b5092915050565b5f73ffffffffffffffffffffffffffffffffffffffff82169050919050565b5f6200041b82620003f0565b9050919050565b6200042d816200040f565b811462000438575f80fd5b50565b5f815190506200044b8162000422565b92915050565b5f80604083850312156200046a57620004696200016d565b5b5f62000479858286016200043b565b92505060206200048c858286016200043b565b9150509250929050565b61043e80620004a45f395ff3fe608060405234801561000f575f80fd5b5060043610610029575f3560e01c80636dc32bba1461002d575b5f80fd5b610047600480360381019061004291906102a9565b610049565b005b5f8054906101000a900473ffffffffffffffffffffffffffffffffffffffff1673ffffffffffffffffffffffffffffffffffffffff16636e721bfa826040518263ffffffff1660e01b81526004016100a1919061036a565b5f604051808303815f87803b1580156100b8575f80fd5b505af11580156100ca573d5f803e3d5ffd5b5050505060015f9054906101000a900473ffffffffffffffffffffffffffffffffffffffff1673ffffffffffffffffffffffffffffffffffffffff166321670f22336002546040518363ffffffff1660e01b815260040161012c9291906103e1565b5f604051808303815f87803b158015610143575f80fd5b505af1158015610155573d5f803e3d5ffd5b5050505050565b5f604051905090565b5f80fd5b5f80fd5b5f80fd5b5f80fd5b5f601f19601f8301169050919050565b7f4e487b71000000000000000000000000000000000000000000000000000000005f52604160045260245ffd5b6101bb82610175565b810181811067ffffffffffffffff821117156101da576101d9610185565b5b80604052505050565b5f6101ec61015c565b90506101f882826101b2565b919050565b5f67ffffffffffffffff82111561021757610216610185565b5b61022082610175565b9050602081019050919050565b828183375f83830152505050565b5f61024d610248846101fd565b6101e3565b90508281526020810184848401111561026957610268610171565b5b61027484828561022d565b509392505050565b5f82601f8301126102905761028f61016d565b5b81356102a084826020860161023b565b91505092915050565b5f602082840312156102be576102bd610165565b5b5f82013567ffffffffffffffff8111156102db576102da610169565b5b6102e78482850161027c565b91505092915050565b5f81519050919050565b5f82825260208201905092915050565b5f5b8381101561032757808201518184015260208101905061030c565b5f8484015250505050565b5f61033c826102f0565b61034681856102fa565b935061035681856020860161030a565b61035f81610175565b840191505092915050565b5f6020820190508181035f8301526103828184610332565b905092915050565b5f73ffffffffffffffffffffffffffffffffffffffff82169050919050565b5f6103b38261038a565b9050919050565b6103c3816103a9565b82525050565b5f819050919050565b6103db816103c9565b82525050565b5f6040820190506103f45f8301856103ba565b61040160208301846103d2565b939250505056fea2646970667358221220f167734da45e1cc8d56eaee2314aaf738276559a16b34c84300925d2bf260fac64736f6c63430008160033",
			"opcodes": "PUSH1 0x80 PUSH1 0x40 MSTORE PUSH1 0x1 PUSH0 SWAP1 SLOAD SWAP1 PUSH2 0x100 EXP SWAP1 DIV PUSH20 0xFFFFFFFFFFFFFFFFFFFFFFFFFFFFFFFFFFFFFFFF AND PUSH20 0xFFFFFFFFFFFFFFFFFFFFFFFFFFFFFFFFFFFFFFFF AND PUSH4 0x313CE567 PUSH1 0x40 MLOAD DUP2 PUSH4 0xFFFFFFFF AND PUSH1 0xE0 SHL DUP2 MSTORE PUSH1 0x4 ADD PUSH1 0x20 PUSH1 0x40 MLOAD DUP1 DUP4 SUB DUP2 DUP7 GAS STATICCALL ISZERO DUP1 ISZERO PUSH3 0x6F JUMPI RETURNDATASIZE PUSH0 DUP1 RETURNDATACOPY RETURNDATASIZE PUSH0 REVERT JUMPDEST POP POP POP POP PUSH1 0x40 MLOAD RETURNDATASIZE PUSH1 0x1F NOT PUSH1 0x1F DUP3 ADD AND DUP3 ADD DUP1 PUSH1 0x40 MSTORE POP DUP2 ADD SWAP1 PUSH3 0x95 SWAP2 SWAP1 PUSH3 0x1A9 JUMP JUMPDEST PUSH1 0xA PUSH3 0xA3 SWAP2 SWAP1 PUSH3 0x356 JUMP JUMPDEST PUSH1 0x14 PUSH3 0xB1 SWAP2 SWAP1 PUSH3 0x3A6 JUMP JUMPDEST PUSH1 0x2 SSTORE CALLVALUE DUP1 ISZERO PUSH3 0xC0 JUMPI PUSH0 DUP1 REVERT JUMPDEST POP PUSH1 0x40 MLOAD PUSH3 0x8E2 CODESIZE SUB DUP1 PUSH3 0x8E2 DUP4 CODECOPY DUP2 DUP2 ADD PUSH1 0x40 MSTORE DUP2 ADD SWAP1 PUSH3 0xE6 SWAP2 SWAP1 PUSH3 0x451 JUMP JUMPDEST DUP2 PUSH0 DUP1 PUSH2 0x100 EXP DUP2 SLOAD DUP2 PUSH20 0xFFFFFFFFFFFFFFFFFFFFFFFFFFFFFFFFFFFFFFFF MUL NOT AND SWAP1 DUP4 PUSH20 0xFFFFFFFFFFFFFFFFFFFFFFFFFFFFFFFFFFFFFFFF AND MUL OR SWAP1 SSTORE POP DUP1 PUSH1 0x1 PUSH0 PUSH2 0x100 EXP DUP2 SLOAD DUP2 PUSH20 0xFFFFFFFFFFFFFFFFFFFFFFFFFFFFFFFFFFFFFFFF MUL NOT AND SWAP1 DUP4 PUSH20 0xFFFFFFFFFFFFFFFFFFFFFFFFFFFFFFFFFFFFFFFF AND MUL OR SWAP1 SSTORE POP POP POP PUSH3 0x496 JUMP JUMPDEST PUSH0 DUP1 REVERT JUMPDEST PUSH0 DUP2 SWAP1 POP SWAP2 SWAP1 POP JUMP JUMPDEST PUSH3 0x185 DUP2 PUSH3 0x171 JUMP JUMPDEST DUP2 EQ PUSH3 0x190 JUMPI PUSH0 DUP1 REVERT JUMPDEST POP JUMP JUMPDEST PUSH0 DUP2 MLOAD SWAP1 POP PUSH3 0x1A3 DUP2 PUSH3 0x17A JUMP JUMPDEST SWAP3 SWAP2 POP POP JUMP JUMPDEST PUSH0 PUSH1 0x20 DUP3 DUP5 SUB SLT ISZERO PUSH3 0x1C1 JUMPI PUSH3 0x1C0 PUSH3 0x16D JUMP JUMPDEST JUMPDEST PUSH0 PUSH3 0x1D0 DUP5 DUP3 DUP6 ADD PUSH3 0x193 JUMP JUMPDEST SWAP2 POP POP SWAP3 SWAP2 POP POP JUMP JUMPDEST PUSH32 0x4E487B7100000000000000000000000000000000000000000000000000000000 PUSH0 MSTORE PUSH1 0x11 PUSH1 0x4 MSTORE PUSH1 0x24 PUSH0 REVERT JUMPDEST PUSH0 DUP2 PUSH1 0x1 SHR SWAP1 POP SWAP2 SWAP1 POP JUMP JUMPDEST PUSH0 DUP1 DUP3 SWAP2 POP DUP4 SWAP1 POP JUMPDEST PUSH1 0x1 DUP6 GT ISZERO PUSH3 0x263 JUMPI DUP1 DUP7 DIV DUP2 GT ISZERO PUSH3 0x23B JUMPI PUSH3 0x23A PUSH3 0x1D9 JUMP JUMPDEST JUMPDEST PUSH1 0x1 DUP6 AND ISZERO PUSH3 0x24B JUMPI DUP1 DUP3 MUL SWAP2 POP JUMPDEST DUP1 DUP2 MUL SWAP1 POP PUSH3 0x25B DUP6 PUSH3 0x206 JUMP JUMPDEST SWAP5 POP PUSH3 0x21B JUMP JUMPDEST SWAP5 POP SWAP5 SWAP3 POP POP POP JUMP JUMPDEST PUSH0 DUP3 PUSH3 0x27D JUMPI PUSH1 0x1 SWAP1 POP PUSH3 0x34F JUMP JUMPDEST DUP2 PUSH3 0x28C JUMPI PUSH0 SWAP1 POP PUSH3 0x34F JUMP JUMPDEST DUP2 PUSH1 0x1 DUP2 EQ PUSH3 0x2A5 JUMPI PUSH1 0x2 DUP2 EQ PUSH3 0x2B0 JUMPI PUSH3 0x2E6 JUMP JUMPDEST PUSH1 0x1 SWAP2 POP POP PUSH3 0x34F JUMP JUMPDEST PUSH1 0xFF DUP5 GT ISZERO PUSH3 0x2C5 JUMPI PUSH3 0x2C4 PUSH3 0x1D9 JUMP JUMPDEST JUMPDEST DUP4 PUSH1 0x2 EXP SWAP2 POP DUP5 DUP3 GT ISZERO PUSH3 0x2DF JUMPI PUSH3 0x2DE PUSH3 0x1D9 JUMP JUMPDEST JUMPDEST POP PUSH3 0x34F JUMP JUMPDEST POP PUSH1 0x20 DUP4 LT PUSH2 0x133 DUP4 LT AND PUSH1 0x4E DUP5 LT PUSH1 0xB DUP5 LT AND OR ISZERO PUSH3 0x320 JUMPI DUP3 DUP3 EXP SWAP1 POP DUP4 DUP2 GT ISZERO PUSH3 0x31A JUMPI PUSH3 0x319 PUSH3 0x1D9 JUMP JUMPDEST JUMPDEST PUSH3 0x34F JUMP JUMPDEST PUSH3 0x32F DUP5 DUP5 DUP5 PUSH1 0x1 PUSH3 0x212 JUMP JUMPDEST SWAP3 POP SWAP1 POP DUP2 DUP5 DIV DUP2 GT ISZERO PUSH3 0x349 JUMPI PUSH3 0x348 PUSH3 0x1D9 JUMP JUMPDEST JUMPDEST DUP2 DUP2 MUL SWAP1 POP JUMPDEST SWAP4 SWAP3 POP POP POP JUMP JUMPDEST PUSH0 PUSH3 0x362 DUP3 PUSH3 0x171 JUMP JUMPDEST SWAP2 POP PUSH3 0x36F DUP4 PUSH3 0x171 JUMP JUMPDEST SWAP3 POP PUSH3 0x39E PUSH32 0xFFFFFFFFFFFFFFFFFFFFFFFFFFFFFFFFFFFFFFFFFFFFFFFFFFFFFFFFFFFFFFFF DUP5 DUP5 PUSH3 0x26C JUMP JUMPDEST SWAP1 POP SWAP3 SWAP2 POP POP JUMP JUMPDEST PUSH0 PUSH3 0x3B2 DUP3 PUSH3 0x171 JUMP JUMPDEST SWAP2 POP PUSH3 0x3BF DUP4 PUSH3 0x171 JUMP JUMPDEST SWAP3 POP DUP3 DUP3 MUL PUSH3 0x3CF DUP2 PUSH3 0x171 JUMP JUMPDEST SWAP2 POP DUP3 DUP3 DIV DUP5 EQ DUP4 ISZERO OR PUSH3 0x3E9 JUMPI PUSH3 0x3E8 PUSH3 0x1D9 JUMP JUMPDEST JUMPDEST POP SWAP3 SWAP2 POP POP JUMP JUMPDEST PUSH0 PUSH20 0xFFFFFFFFFFFFFFFFFFFFFFFFFFFFFFFFFFFFFFFF DUP3 AND SWAP1 POP SWAP2 SWAP1 POP JUMP JUMPDEST PUSH0 PUSH3 0x41B DUP3 PUSH3 0x3F0 JUMP JUMPDEST SWAP1 POP SWAP2 SWAP1 POP JUMP JUMPDEST PUSH3 0x42D DUP2 PUSH3 0x40F JUMP JUMPDEST DUP2 EQ PUSH3 0x438 JUMPI PUSH0 DUP1 REVERT JUMPDEST POP JUMP JUMPDEST PUSH0 DUP2 MLOAD SWAP1 POP PUSH3 0x44B DUP2 PUSH3 0x422 JUMP JUMPDEST SWAP3 SWAP2 POP POP JUMP JUMPDEST PUSH0 DUP1 PUSH1 0x40 DUP4 DUP6 SUB SLT ISZERO PUSH3 0x46A JUMPI PUSH3 0x469 PUSH3 0x16D JUMP JUMPDEST JUMPDEST PUSH0 PUSH3 0x479 DUP6 DUP3 DUP7 ADD PUSH3 0x43B JUMP JUMPDEST SWAP3 POP POP PUSH1 0x20 PUSH3 0x48C DUP6 DUP3 DUP7 ADD PUSH3 0x43B JUMP JUMPDEST SWAP2 POP POP SWAP3 POP SWAP3 SWAP1 POP JUMP JUMPDEST PUSH2 0x43E DUP1 PUSH3 0x4A4 PUSH0 CODECOPY PUSH0 RETURN INVALID PUSH1 0x80 PUSH1 0x40 MSTORE CALLVALUE DUP1 ISZERO PUSH2 0xF JUMPI PUSH0 DUP1 REVERT JUMPDEST POP PUSH1 0x4 CALLDATASIZE LT PUSH2 0x29 JUMPI PUSH0 CALLDATALOAD PUSH1 0xE0 SHR DUP1 PUSH4 0x6DC32BBA EQ PUSH2 0x2D JUMPI JUMPDEST PUSH0 DUP1 REVERT JUMPDEST PUSH2 0x47 PUSH1 0x4 DUP1 CALLDATASIZE SUB DUP2 ADD SWAP1 PUSH2 0x42 SWAP2 SWAP1 PUSH2 0x2A9 JUMP JUMPDEST PUSH2 0x49 JUMP JUMPDEST STOP JUMPDEST PUSH0 DUP1 SLOAD SWAP1 PUSH2 0x100 EXP SWAP1 DIV PUSH20 0xFFFFFFFFFFFFFFFFFFFFFFFFFFFFFFFFFFFFFFFF AND PUSH20 0xFFFFFFFFFFFFFFFFFFFFFFFFFFFFFFFFFFFFFFFF AND PUSH4 0x6E721BFA DUP3 PUSH1 0x40 MLOAD DUP3 PUSH4 0xFFFFFFFF AND PUSH1 0xE0 SHL DUP2 MSTORE PUSH1 0x4 ADD PUSH2 0xA1 SWAP2 SWAP1 PUSH2 0x36A JUMP JUMPDEST PUSH0 PUSH1 0x40 MLOAD DUP1 DUP4 SUB DUP2 PUSH0 DUP8 DUP1 EXTCODESIZE ISZERO DUP1 ISZERO PUSH2 0xB8 JUMPI PUSH0 DUP1 REVERT JUMPDEST POP GAS CALL ISZERO DUP1 ISZERO PUSH2 0xCA JUMPI RETURNDATASIZE PUSH0 DUP1 RETURNDATACOPY RETURNDATASIZE PUSH0 REVERT JUMPDEST POP POP POP POP PUSH1 0x1 PUSH0 SWAP1 SLOAD SWAP1 PUSH2 0x100 EXP SWAP1 DIV PUSH20 0xFFFFFFFFFFFFFFFFFFFFFFFFFFFFFFFFFFFFFFFF AND PUSH20 0xFFFFFFFFFFFFFFFFFFFFFFFFFFFFFFFFFFFFFFFF AND PUSH4 0x21670F22 CALLER PUSH1 0x2 SLOAD PUSH1 0x40 MLOAD DUP4 PUSH4 0xFFFFFFFF AND PUSH1 0xE0 SHL DUP2 MSTORE PUSH1 0x4 ADD PUSH2 0x12C SWAP3 SWAP2 SWAP1 PUSH2 0x3E1 JUMP JUMPDEST PUSH0 PUSH1 0x40 MLOAD DUP1 DUP4 SUB DUP2 PUSH0 DUP8 DUP1 EXTCODESIZE ISZERO DUP1 ISZERO PUSH2 0x143 JUMPI PUSH0 DUP1 REVERT JUMPDEST POP GAS CALL ISZERO DUP1 ISZERO PUSH2 0x155 JUMPI RETURNDATASIZE PUSH0 DUP1 RETURNDATACOPY RETURNDATASIZE PUSH0 REVERT JUMPDEST POP POP POP POP POP JUMP JUMPDEST PUSH0 PUSH1 0x40 MLOAD SWAP1 POP SWAP1 JUMP JUMPDEST PUSH0 DUP1 REVERT JUMPDEST PUSH0 DUP1 REVERT JUMPDEST PUSH0 DUP1 REVERT JUMPDEST PUSH0 DUP1 REVERT JUMPDEST PUSH0 PUSH1 0x1F NOT PUSH1 0x1F DUP4 ADD AND SWAP1 POP SWAP2 SWAP1 POP JUMP JUMPDEST PUSH32 0x4E487B7100000000000000000000000000000000000000000000000000000000 PUSH0 MSTORE PUSH1 0x41 PUSH1 0x4 MSTORE PUSH1 0x24 PUSH0 REVERT JUMPDEST PUSH2 0x1BB DUP3 PUSH2 0x175 JUMP JUMPDEST DUP2 ADD DUP2 DUP2 LT PUSH8 0xFFFFFFFFFFFFFFFF DUP3 GT OR ISZERO PUSH2 0x1DA JUMPI PUSH2 0x1D9 PUSH2 0x185 JUMP JUMPDEST JUMPDEST DUP1 PUSH1 0x40 MSTORE POP POP POP JUMP JUMPDEST PUSH0 PUSH2 0x1EC PUSH2 0x15C JUMP JUMPDEST SWAP1 POP PUSH2 0x1F8 DUP3 DUP3 PUSH2 0x1B2 JUMP JUMPDEST SWAP2 SWAP1 POP JUMP JUMPDEST PUSH0 PUSH8 0xFFFFFFFFFFFFFFFF DUP3 GT ISZERO PUSH2 0x217 JUMPI PUSH2 0x216 PUSH2 0x185 JUMP JUMPDEST JUMPDEST PUSH2 0x220 DUP3 PUSH2 0x175 JUMP JUMPDEST SWAP1 POP PUSH1 0x20 DUP2 ADD SWAP1 POP SWAP2 SWAP1 POP JUMP JUMPDEST DUP3 DUP2 DUP4 CALLDATACOPY PUSH0 DUP4 DUP4 ADD MSTORE POP POP POP JUMP JUMPDEST PUSH0 PUSH2 0x24D PUSH2 0x248 DUP5 PUSH2 0x1FD JUMP JUMPDEST PUSH2 0x1E3 JUMP JUMPDEST SWAP1 POP DUP3 DUP2 MSTORE PUSH1 0x20 DUP2 ADD DUP5 DUP5 DUP5 ADD GT ISZERO PUSH2 0x269 JUMPI PUSH2 0x268 PUSH2 0x171 JUMP JUMPDEST JUMPDEST PUSH2 0x274 DUP5 DUP3 DUP6 PUSH2 0x22D JUMP JUMPDEST POP SWAP4 SWAP3 POP POP POP JUMP JUMPDEST PUSH0 DUP3 PUSH1 0x1F DUP4 ADD SLT PUSH2 0x290 JUMPI PUSH2 0x28F PUSH2 0x16D JUMP JUMPDEST JUMPDEST DUP2 CALLDATALOAD PUSH2 0x2A0 DUP5 DUP3 PUSH1 0x20 DUP7 ADD PUSH2 0x23B JUMP JUMPDEST SWAP2 POP POP SWAP3 SWAP2 POP POP JUMP JUMPDEST PUSH0 PUSH1 0x20 DUP3 DUP5 SUB SLT ISZERO PUSH2 0x2BE JUMPI PUSH2 0x2BD PUSH2 0x165 JUMP JUMPDEST JUMPDEST PUSH0 DUP3 ADD CALLDATALOAD PUSH8 0xFFFFFFFFFFFFFFFF DUP2 GT ISZERO PUSH2 0x2DB JUMPI PUSH2 0x2DA PUSH2 0x169 JUMP JUMPDEST JUMPDEST PUSH2 0x2E7 DUP5 DUP3 DUP6 ADD PUSH2 0x27C JUMP JUMPDEST SWAP2 POP POP SWAP3 SWAP2 POP POP JUMP JUMPDEST PUSH0 DUP2 MLOAD SWAP1 POP SWAP2 SWAP1 POP JUMP JUMPDEST PUSH0 DUP3 DUP3 MSTORE PUSH1 0x20 DUP3 ADD SWAP1 POP SWAP3 SWAP2 POP POP JUMP JUMPDEST PUSH0 JUMPDEST DUP4 DUP2 LT ISZERO PUSH2 0x327 JUMPI DUP1 DUP3 ADD MLOAD DUP2 DUP5 ADD MSTORE PUSH1 0x20 DUP2 ADD SWAP1 POP PUSH2 0x30C JUMP JUMPDEST PUSH0 DUP5 DUP5 ADD MSTORE POP POP POP POP JUMP JUMPDEST PUSH0 PUSH2 0x33C DUP3 PUSH2 0x2F0 JUMP JUMPDEST PUSH2 0x346 DUP2 DUP6 PUSH2 0x2FA JUMP JUMPDEST SWAP4 POP PUSH2 0x356 DUP2 DUP6 PUSH1 0x20 DUP7 ADD PUSH2 0x30A JUMP JUMPDEST PUSH2 0x35F DUP2 PUSH2 0x175 JUMP JUMPDEST DUP5 ADD SWAP2 POP POP SWAP3 SWAP2 POP POP JUMP JUMPDEST PUSH0 PUSH1 0x20 DUP3 ADD SWAP1 POP DUP2 DUP2 SUB PUSH0 DUP4 ADD MSTORE PUSH2 0x382 DUP2 DUP5 PUSH2 0x332 JUMP JUMPDEST SWAP1 POP SWAP3 SWAP2 POP POP JUMP JUMPDEST PUSH0 PUSH20 0xFFFFFFFFFFFFFFFFFFFFFFFFFFFFFFFFFFFFFFFF DUP3 AND SWAP1 POP SWAP2 SWAP1 POP JUMP JUMPDEST PUSH0 PUSH2 0x3B3 DUP3 PUSH2 0x38A JUMP JUMPDEST SWAP1 POP SWAP2 SWAP1 POP JUMP JUMPDEST PUSH2 0x3C3 DUP2 PUSH2 0x3A9 JUMP JUMPDEST DUP3 MSTORE POP POP JUMP JUMPDEST PUSH0 DUP2 SWAP1 POP SWAP2 SWAP1 POP JUMP JUMPDEST PUSH2 0x3DB DUP2 PUSH2 0x3C9 JUMP JUMPDEST DUP3 MSTORE POP POP JUMP JUMPDEST PUSH0 PUSH1 0x40 DUP3 ADD SWAP1 POP PUSH2 0x3F4 PUSH0 DUP4 ADD DUP6 PUSH2 0x3BA JUMP JUMPDEST PUSH2 0x401 PUSH1 0x20 DUP4 ADD DUP5 PUSH2 0x3D2 JUMP JUMPDEST SWAP4 SWAP3 POP POP POP JUMP INVALID LOG2 PUSH5 0x6970667358 0x22 SLT KECCAK256 CALL PUSH8 0x734DA45E1CC8D56E 0xAE 0xE2 BALANCE 0x4A 0xAF PUSH20 0x8276559A16B34C84300925D2BF260FAC64736F6C PUSH4 0x43000816 STOP CALLER "
		},
		"gasEstimates": {
			"creation": {
				"codeDepositCost": "217200",
				"executionCost": "infinite",
				"totalCost": "infinite"
			},
			"external": {
				"createKnowledge(string)": "infinite"
			}
		},
		"methodIdentifiers": {
			"createKnowledge(string)": "6dc32bba"
		}
	},
	"abi": [
		{
			"inputs": [
				{
					"internalType": "address",
					"name": "nftContractAddress",
					"type": "address"
				},
				{
					"internalType": "address",
					"name": "tokenContractAddress",
					"type": "address"
				}
			],
			"stateMutability": "nonpayable",
			"type": "constructor"
		},
		{
			"inputs": [
				{
					"internalType": "string",
					"name": "knowledge",
					"type": "string"
				}
			],
			"name": "createKnowledge",
			"outputs": [],
			"stateMutability": "nonpayable",
			"type": "function"
		}
	]
}