{
	"contract-0c61f2e207.sol": {
		"KnowLedgeToken": {
			"abi": [
				{
					"inputs": [],
					"stateMutability": "nonpayable",
					"type": "constructor"
				},
				{
					"inputs": [],
					"name": "ECDSAInvalidSignature",
					"type": "error"
				},
				{
					"inputs": [
						{
							"internalType": "uint256",
							"name": "length",
							"type": "uint256"
						}
					],
					"name": "ECDSAInvalidSignatureLength",
					"type": "error"
				},
				{
					"inputs": [
						{
							"internalType": "bytes32",
							"name": "s",
							"type": "bytes32"
						}
					],
					"name": "ECDSAInvalidSignatureS",
					"type": "error"
				},
				{
					"inputs": [
						{
							"internalType": "address",
							"name": "spender",
							"type": "address"
						},
						{
							"internalType": "uint256",
							"name": "allowance",
							"type": "uint256"
						},
						{
							"internalType": "uint256",
							"name": "needed",
							"type": "uint256"
						}
					],
					"name": "ERC20InsufficientAllowance",
					"type": "error"
				},
				{
					"inputs": [
						{
							"internalType": "address",
							"name": "sender",
							"type": "address"
						},
						{
							"internalType": "uint256",
							"name": "balance",
							"type": "uint256"
						},
						{
							"internalType": "uint256",
							"name": "needed",
							"type": "uint256"
						}
					],
					"name": "ERC20InsufficientBalance",
					"type": "error"
				},
				{
					"inputs": [
						{
							"internalType": "address",
							"name": "approver",
							"type": "address"
						}
					],
					"name": "ERC20InvalidApprover",
					"type": "error"
				},
				{
					"inputs": [
						{
							"internalType": "address",
							"name": "receiver",
							"type": "address"
						}
					],
					"name": "ERC20InvalidReceiver",
					"type": "error"
				},
				{
					"inputs": [
						{
							"internalType": "address",
							"name": "sender",
							"type": "address"
						}
					],
					"name": "ERC20InvalidSender",
					"type": "error"
				},
				{
					"inputs": [
						{
							"internalType": "address",
							"name": "spender",
							"type": "address"
						}
					],
					"name": "ERC20InvalidSpender",
					"type": "error"
				},
				{
					"inputs": [
						{
							"internalType": "uint256",
							"name": "deadline",
							"type": "uint256"
						}
					],
					"name": "ERC2612ExpiredSignature",
					"type": "error"
				},
				{
					"inputs": [
						{
							"internalType": "address",
							"name": "signer",
							"type": "address"
						},
						{
							"internalType": "address",
							"name": "owner",
							"type": "address"
						}
					],
					"name": "ERC2612InvalidSigner",
					"type": "error"
				},
				{
					"inputs": [
						{
							"internalType": "address",
							"name": "account",
							"type": "address"
						},
						{
							"internalType": "uint256",
							"name": "currentNonce",
							"type": "uint256"
						}
					],
					"name": "InvalidAccountNonce",
					"type": "error"
				},
				{
					"inputs": [],
					"name": "InvalidShortString",
					"type": "error"
				},
				{
					"inputs": [
						{
							"internalType": "string",
							"name": "str",
							"type": "string"
						}
					],
					"name": "StringTooLong",
					"type": "error"
				},
				{
					"anonymous": false,
					"inputs": [
						{
							"indexed": true,
							"internalType": "address",
							"name": "owner",
							"type": "address"
						},
						{
							"indexed": true,
							"internalType": "address",
							"name": "spender",
							"type": "address"
						},
						{
							"indexed": false,
							"internalType": "uint256",
							"name": "value",
							"type": "uint256"
						}
					],
					"name": "Approval",
					"type": "event"
				},
				{
					"anonymous": false,
					"inputs": [],
					"name": "EIP712DomainChanged",
					"type": "event"
				},
				{
					"anonymous": false,
					"inputs": [
						{
							"indexed": true,
							"internalType": "address",
							"name": "from",
							"type": "address"
						},
						{
							"indexed": true,
							"internalType": "address",
							"name": "to",
							"type": "address"
						},
						{
							"indexed": false,
							"internalType": "uint256",
							"name": "value",
							"type": "uint256"
						}
					],
					"name": "Transfer",
					"type": "event"
				},
				{
					"inputs": [],
					"name": "DOMAIN_SEPARATOR",
					"outputs": [
						{
							"internalType": "bytes32",
							"name": "",
							"type": "bytes32"
						}
					],
					"stateMutability": "view",
					"type": "function"
				},
				{
					"inputs": [
						{
							"internalType": "address",
							"name": "owner",
							"type": "address"
						},
						{
							"internalType": "address",
							"name": "spender",
							"type": "address"
						}
					],
					"name": "allowance",
					"outputs": [
						{
							"internalType": "uint256",
							"name": "",
							"type": "uint256"
						}
					],
					"stateMutability": "view",
					"type": "function"
				},
				{
					"inputs": [
						{
							"internalType": "address",
							"name": "spender",
							"type": "address"
						},
						{
							"internalType": "uint256",
							"name": "value",
							"type": "uint256"
						}
					],
					"name": "approve",
					"outputs": [
						{
							"internalType": "bool",
							"name": "",
							"type": "bool"
						}
					],
					"stateMutability": "nonpayable",
					"type": "function"
				},
				{
					"inputs": [
						{
							"internalType": "address",
							"name": "account",
							"type": "address"
						}
					],
					"name": "balanceOf",
					"outputs": [
						{
							"internalType": "uint256",
							"name": "",
							"type": "uint256"
						}
					],
					"stateMutability": "view",
					"type": "function"
				},
				{
					"inputs": [],
					"name": "decimals",
					"outputs": [
						{
							"internalType": "uint8",
							"name": "",
							"type": "uint8"
						}
					],
					"stateMutability": "view",
					"type": "function"
				},
				{
					"inputs": [],
					"name": "eip712Domain",
					"outputs": [
						{
							"internalType": "bytes1",
							"name": "fields",
							"type": "bytes1"
						},
						{
							"internalType": "string",
							"name": "name",
							"type": "string"
						},
						{
							"internalType": "string",
							"name": "version",
							"type": "string"
						},
						{
							"internalType": "uint256",
							"name": "chainId",
							"type": "uint256"
						},
						{
							"internalType": "address",
							"name": "verifyingContract",
							"type": "address"
						},
						{
							"internalType": "bytes32",
							"name": "salt",
							"type": "bytes32"
						},
						{
							"internalType": "uint256[]",
							"name": "extensions",
							"type": "uint256[]"
						}
					],
					"stateMutability": "view",
					"type": "function"
				},
				{
					"inputs": [],
					"name": "name",
					"outputs": [
						{
							"internalType": "string",
							"name": "",
							"type": "string"
						}
					],
					"stateMutability": "view",
					"type": "function"
				},
				{
					"inputs": [
						{
							"internalType": "address",
							"name": "owner",
							"type": "address"
						}
					],
					"name": "nonces",
					"outputs": [
						{
							"internalType": "uint256",
							"name": "",
							"type": "uint256"
						}
					],
					"stateMutability": "view",
					"type": "function"
				},
				{
					"inputs": [
						{
							"internalType": "address",
							"name": "owner",
							"type": "address"
						},
						{
							"internalType": "address",
							"name": "spender",
							"type": "address"
						},
						{
							"internalType": "uint256",
							"name": "value",
							"type": "uint256"
						},
						{
							"internalType": "uint256",
							"name": "deadline",
							"type": "uint256"
						},
						{
							"internalType": "uint8",
							"name": "v",
							"type": "uint8"
						},
						{
							"internalType": "bytes32",
							"name": "r",
							"type": "bytes32"
						},
						{
							"internalType": "bytes32",
							"name": "s",
							"type": "bytes32"
						}
					],
					"name": "permit",
					"outputs": [],
					"stateMutability": "nonpayable",
					"type": "function"
				},
				{
					"inputs": [],
					"name": "symbol",
					"outputs": [
						{
							"internalType": "string",
							"name": "",
							"type": "string"
						}
					],
					"stateMutability": "view",
					"type": "function"
				},
				{
					"inputs": [],
					"name": "totalSupply",
					"outputs": [
						{
							"internalType": "uint256",
							"name": "",
							"type": "uint256"
						}
					],
					"stateMutability": "view",
					"type": "function"
				},
				{
					"inputs": [
						{
							"internalType": "address",
							"name": "to",
							"type": "address"
						},
						{
							"internalType": "uint256",
							"name": "value",
							"type": "uint256"
						}
					],
					"name": "transfer",
					"outputs": [
						{
							"internalType": "bool",
							"name": "",
							"type": "bool"
						}
					],
					"stateMutability": "nonpayable",
					"type": "function"
				},
				{
					"inputs": [
						{
							"internalType": "address",
							"name": "from",
							"type": "address"
						},
						{
							"internalType": "address",
							"name": "to",
							"type": "address"
						},
						{
							"internalType": "uint256",
							"name": "value",
							"type": "uint256"
						}
					],
					"name": "transferFrom",
					"outputs": [
						{
							"internalType": "bool",
							"name": "",
							"type": "bool"
						}
					],
					"stateMutability": "nonpayable",
					"type": "function"
				}
			],
			"devdoc": {
				"errors": {
					"ECDSAInvalidSignature()": [
						{
							"details": "The signature derives the `address(0)`."
						}
					],
					"ECDSAInvalidSignatureLength(uint256)": [
						{
							"details": "The signature has an invalid length."
						}
					],
					"ECDSAInvalidSignatureS(bytes32)": [
						{
							"details": "The signature has an S value that is in the upper half order."
						}
					],
					"ERC20InsufficientAllowance(address,uint256,uint256)": [
						{
							"details": "Indicates a failure with the `spender`’s `allowance`. Used in transfers.",
							"params": {
								"allowance": "Amount of tokens a `spender` is allowed to operate with.",
								"needed": "Minimum amount required to perform a transfer.",
								"spender": "Address that may be allowed to operate on tokens without being their owner."
							}
						}
					],
					"ERC20InsufficientBalance(address,uint256,uint256)": [
						{
							"details": "Indicates an error related to the current `balance` of a `sender`. Used in transfers.",
							"params": {
								"balance": "Current balance for the interacting account.",
								"needed": "Minimum amount required to perform a transfer.",
								"sender": "Address whose tokens are being transferred."
							}
						}
					],
					"ERC20InvalidApprover(address)": [
						{
							"details": "Indicates a failure with the `approver` of a token to be approved. Used in approvals.",
							"params": {
								"approver": "Address initiating an approval operation."
							}
						}
					],
					"ERC20InvalidReceiver(address)": [
						{
							"details": "Indicates a failure with the token `receiver`. Used in transfers.",
							"params": {
								"receiver": "Address to which tokens are being transferred."
							}
						}
					],
					"ERC20InvalidSender(address)": [
						{
							"details": "Indicates a failure with the token `sender`. Used in transfers.",
							"params": {
								"sender": "Address whose tokens are being transferred."
							}
						}
					],
					"ERC20InvalidSpender(address)": [
						{
							"details": "Indicates a failure with the `spender` to be approved. Used in approvals.",
							"params": {
								"spender": "Address that may be allowed to operate on tokens without being their owner."
							}
						}
					],
					"ERC2612ExpiredSignature(uint256)": [
						{
							"details": "Permit deadline has expired."
						}
					],
					"ERC2612InvalidSigner(address,address)": [
						{
							"details": "Mismatched signature."
						}
					],
					"InvalidAccountNonce(address,uint256)": [
						{
							"details": "The nonce used for an `account` is not the expected current nonce."
						}
					]
				},
				"events": {
					"Approval(address,address,uint256)": {
						"details": "Emitted when the allowance of a `spender` for an `owner` is set by a call to {approve}. `value` is the new allowance."
					},
					"EIP712DomainChanged()": {
						"details": "MAY be emitted to signal that the domain could have changed."
					},
					"Transfer(address,address,uint256)": {
						"details": "Emitted when `value` tokens are moved from one account (`from`) to another (`to`). Note that `value` may be zero."
					}
				},
				"kind": "dev",
				"methods": {
					"DOMAIN_SEPARATOR()": {
						"details": "Returns the domain separator used in the encoding of the signature for {permit}, as defined by {EIP712}."
					},
					"allowance(address,address)": {
						"details": "See {IERC20-allowance}."
					},
					"approve(address,uint256)": {
						"details": "See {IERC20-approve}. NOTE: If `value` is the maximum `uint256`, the allowance is not updated on `transferFrom`. This is semantically equivalent to an infinite approval. Requirements: - `spender` cannot be the zero address."
					},
					"balanceOf(address)": {
						"details": "See {IERC20-balanceOf}."
					},
					"decimals()": {
						"details": "Returns the number of decimals used to get its user representation. For example, if `decimals` equals `2`, a balance of `505` tokens should be displayed to a user as `5.05` (`505 / 10 ** 2`). Tokens usually opt for a value of 18, imitating the relationship between Ether and Wei. This is the default value returned by this function, unless it's overridden. NOTE: This information is only used for _display_ purposes: it in no way affects any of the arithmetic of the contract, including {IERC20-balanceOf} and {IERC20-transfer}."
					},
					"eip712Domain()": {
						"details": "See {IERC-5267}."
					},
					"name()": {
						"details": "Returns the name of the token."
					},
					"nonces(address)": {
						"details": "Returns the current nonce for `owner`. This value must be included whenever a signature is generated for {permit}. Every successful call to {permit} increases ``owner``'s nonce by one. This prevents a signature from being used multiple times."
					},
					"permit(address,address,uint256,uint256,uint8,bytes32,bytes32)": {
						"details": "Sets `value` as the allowance of `spender` over ``owner``'s tokens, given ``owner``'s signed approval. IMPORTANT: The same issues {IERC20-approve} has related to transaction ordering also apply here. Emits an {Approval} event. Requirements: - `spender` cannot be the zero address. - `deadline` must be a timestamp in the future. - `v`, `r` and `s` must be a valid `secp256k1` signature from `owner` over the EIP712-formatted function arguments. - the signature must use ``owner``'s current nonce (see {nonces}). For more information on the signature format, see the https://eips.ethereum.org/EIPS/eip-2612#specification[relevant EIP section]. CAUTION: See Security Considerations above."
					},
					"symbol()": {
						"details": "Returns the symbol of the token, usually a shorter version of the name."
					},
					"totalSupply()": {
						"details": "See {IERC20-totalSupply}."
					},
					"transfer(address,uint256)": {
						"details": "See {IERC20-transfer}. Requirements: - `to` cannot be the zero address. - the caller must have a balance of at least `value`."
					},
					"transferFrom(address,address,uint256)": {
						"details": "See {IERC20-transferFrom}. Emits an {Approval} event indicating the updated allowance. This is not required by the EIP. See the note at the beginning of {ERC20}. NOTE: Does not update the allowance if the current allowance is the maximum `uint256`. Requirements: - `from` and `to` cannot be the zero address. - `from` must have a balance of at least `value`. - the caller must have allowance for ``from``'s tokens of at least `value`."
					}
				},
				"version": 1
			},
			"evm": {
				"assembly": "    /* \"contract-0c61f2e207.sol\":200:389  contract KnowLedgeToken is ERC20, ERC20Permit {... */\n  mstore(0x40, 0x0160)\n    /* \"contract-0c61f2e207.sol\":252:387  constructor() ERC20(\"KnowLedgeToken\", \"KTK\") ERC20Permit(\"KnowLedgeToken\") {... */\n  callvalue\n  dup1\n  iszero\n  tag_1\n  jumpi\n  0x00\n  dup1\n  revert\ntag_1:\n  pop\n    /* \"@openzeppelin/contracts@5.0.1/token/ERC20/extensions/ERC20Permit.sol\":1574:1626  constructor(string memory name) EIP712(name, \"1\") {} */\n  mload(0x40)\n  dup1\n  0x40\n  add\n  0x40\n  mstore\n  dup1\n  0x0e\n  dup2\n  mstore\n  0x20\n  add\n  0x4b6e6f774c65646765546f6b656e000000000000000000000000000000000000\n  dup2\n  mstore\n  pop\n    /* \"@openzeppelin/contracts@5.0.1/token/ERC20/extensions/ERC20Permit.sol\":1613:1617  name */\n  dup1\n    /* \"@openzeppelin/contracts@5.0.1/utils/cryptography/EIP712.sol\":3328:3759  constructor(string memory name, string memory version) {... */\n  mload(0x40)\n  dup1\n  0x40\n  add\n  0x40\n  mstore\n  dup1\n  0x01\n  dup2\n  mstore\n  0x20\n  add\n  0x3100000000000000000000000000000000000000000000000000000000000000\n  dup2\n  mstore\n  pop\n    /* \"@openzeppelin/contracts@5.0.1/token/ERC20/ERC20.sol\":1896:2009  constructor(string memory name_, string memory symbol_) {... */\n  mload(0x40)\n  dup1\n  0x40\n  add\n  0x40\n  mstore\n  dup1\n  0x0e\n  dup2\n  mstore\n  0x20\n  add\n  0x4b6e6f774c65646765546f6b656e000000000000000000000000000000000000\n  dup2\n  mstore\n  pop\n  mload(0x40)\n  dup1\n  0x40\n  add\n  0x40\n  mstore\n  dup1\n  0x03\n  dup2\n  mstore\n  0x20\n  add\n  0x4b544b0000000000000000000000000000000000000000000000000000000000\n  dup2\n  mstore\n  pop\n    /* \"@openzeppelin/contracts@5.0.1/token/ERC20/ERC20.sol\":1970:1975  name_ */\n  dup2\n    /* \"@openzeppelin/contracts@5.0.1/token/ERC20/ERC20.sol\":1962:1967  _name */\n  0x03\n    /* \"@openzeppelin/contracts@5.0.1/token/ERC20/ERC20.sol\":1962:1975  _name = name_ */\n  swap1\n  dup2\n  tag_7\n  swap2\n  swap1\n  tag_8\n  jump\t// in\ntag_7:\n  pop\n    /* \"@openzeppelin/contracts@5.0.1/token/ERC20/ERC20.sol\":1995:2002  symbol_ */\n  dup1\n    /* \"@openzeppelin/contracts@5.0.1/token/ERC20/ERC20.sol\":1985:1992  _symbol */\n  0x04\n    /* \"@openzeppelin/contracts@5.0.1/token/ERC20/ERC20.sol\":1985:2002  _symbol = symbol_ */\n  swap1\n  dup2\n  tag_9\n  swap2\n  swap1\n  tag_8\n  jump\t// in\ntag_9:\n  pop\n    /* \"@openzeppelin/contracts@5.0.1/token/ERC20/ERC20.sol\":1896:2009  constructor(string memory name_, string memory symbol_) {... */\n  pop\n  pop\n    /* \"@openzeppelin/contracts@5.0.1/utils/cryptography/EIP712.sol\":3401:3446  name.toShortStringWithFallback(_nameFallback) */\n  tag_11\n    /* \"@openzeppelin/contracts@5.0.1/utils/cryptography/EIP712.sol\":3432:3445  _nameFallback */\n  0x05\n    /* \"@openzeppelin/contracts@5.0.1/utils/cryptography/EIP712.sol\":3401:3405  name */\n  dup4\n    /* \"@openzeppelin/contracts@5.0.1/utils/cryptography/EIP712.sol\":3401:3431  name.toShortStringWithFallback */\n  shl(0x20, tag_12)\n  swap1\n    /* \"@openzeppelin/contracts@5.0.1/utils/cryptography/EIP712.sol\":3401:3446  name.toShortStringWithFallback(_nameFallback) */\n  swap2\n  swap1\n  0x20\n  shr\n  jump\t// in\ntag_11:\n    /* \"@openzeppelin/contracts@5.0.1/utils/cryptography/EIP712.sol\":3393:3446  _name = name.toShortStringWithFallback(_nameFallback) */\n  0x0120\n  dup2\n  dup2\n  mstore\n  pop\n  pop\n    /* \"@openzeppelin/contracts@5.0.1/utils/cryptography/EIP712.sol\":3467:3518  version.toShortStringWithFallback(_versionFallback) */\n  tag_13\n    /* \"@openzeppelin/contracts@5.0.1/utils/cryptography/EIP712.sol\":3501:3517  _versionFallback */\n  0x06\n    /* \"@openzeppelin/contracts@5.0.1/utils/cryptography/EIP712.sol\":3467:3474  version */\n  dup3\n    /* \"@openzeppelin/contracts@5.0.1/utils/cryptography/EIP712.sol\":3467:3500  version.toShortStringWithFallback */\n  shl(0x20, tag_12)\n  swap1\n    /* \"@openzeppelin/contracts@5.0.1/utils/cryptography/EIP712.sol\":3467:3518  version.toShortStringWithFallback(_versionFallback) */\n  swap2\n  swap1\n  0x20\n  shr\n  jump\t// in\ntag_13:\n    /* \"@openzeppelin/contracts@5.0.1/utils/cryptography/EIP712.sol\":3456:3518  _version = version.toShortStringWithFallback(_versionFallback) */\n  0x0140\n  dup2\n  dup2\n  mstore\n  pop\n  pop\n    /* \"@openzeppelin/contracts@5.0.1/utils/cryptography/EIP712.sol\":3558:3562  name */\n  dup2\n    /* \"@openzeppelin/contracts@5.0.1/utils/cryptography/EIP712.sol\":3542:3564  keccak256(bytes(name)) */\n  dup1\n  mload\n  swap1\n  0x20\n  add\n  keccak256\n    /* \"@openzeppelin/contracts@5.0.1/utils/cryptography/EIP712.sol\":3528:3564  _hashedName = keccak256(bytes(name)) */\n  0xe0\n  dup2\n  dup2\n  mstore\n  pop\n  pop\n    /* \"@openzeppelin/contracts@5.0.1/utils/cryptography/EIP712.sol\":3607:3614  version */\n  dup1\n    /* \"@openzeppelin/contracts@5.0.1/utils/cryptography/EIP712.sol\":3591:3616  keccak256(bytes(version)) */\n  dup1\n  mload\n  swap1\n  0x20\n  add\n  keccak256\n    /* \"@openzeppelin/contracts@5.0.1/utils/cryptography/EIP712.sol\":3574:3616  _hashedVersion = keccak256(bytes(version)) */\n  0x0100\n  dup2\n  dup2\n  mstore\n  pop\n  pop\n    /* \"@openzeppelin/contracts@5.0.1/utils/cryptography/EIP712.sol\":3644:3657  block.chainid */\n  chainid\n    /* \"@openzeppelin/contracts@5.0.1/utils/cryptography/EIP712.sol\":3627:3657  _cachedChainId = block.chainid */\n  0xa0\n  dup2\n  dup2\n  mstore\n  pop\n  pop\n    /* \"@openzeppelin/contracts@5.0.1/utils/cryptography/EIP712.sol\":3692:3715  _buildDomainSeparator() */\n  tag_14\n    /* \"@openzeppelin/contracts@5.0.1/utils/cryptography/EIP712.sol\":3692:3713  _buildDomainSeparator */\n  shl(0x20, tag_15)\n    /* \"@openzeppelin/contracts@5.0.1/utils/cryptography/EIP712.sol\":3692:3715  _buildDomainSeparator() */\n  0x20\n  shr\n  jump\t// in\ntag_14:\n    /* \"@openzeppelin/contracts@5.0.1/utils/cryptography/EIP712.sol\":3667:3715  _cachedDomainSeparator = _buildDomainSeparator() */\n  0x80\n  dup2\n  dup2\n  mstore\n  pop\n  pop\n    /* \"@openzeppelin/contracts@5.0.1/utils/cryptography/EIP712.sol\":3747:3751  this */\n  address\n    /* \"@openzeppelin/contracts@5.0.1/utils/cryptography/EIP712.sol\":3725:3752  _cachedThis = address(this) */\n  0xffffffffffffffffffffffffffffffffffffffff\n  and\n  0xc0\n  dup2\n  0xffffffffffffffffffffffffffffffffffffffff\n  and\n  dup2\n  mstore\n  pop\n  pop\n    /* \"@openzeppelin/contracts@5.0.1/utils/cryptography/EIP712.sol\":3328:3759  constructor(string memory name, string memory version) {... */\n  pop\n  pop\n    /* \"@openzeppelin/contracts@5.0.1/token/ERC20/extensions/ERC20Permit.sol\":1574:1626  constructor(string memory name) EIP712(name, \"1\") {} */\n  pop\n    /* \"contract-0c61f2e207.sol\":337:380  _mint(msg.sender, 10000 * 10 ** decimals()) */\n  tag_18\n    /* \"contract-0c61f2e207.sol\":343:353  msg.sender */\n  caller\n    /* \"contract-0c61f2e207.sol\":369:379  decimals() */\n  tag_19\n    /* \"contract-0c61f2e207.sol\":369:377  decimals */\n  shl(0x20, tag_20)\n    /* \"contract-0c61f2e207.sol\":369:379  decimals() */\n  0x20\n  shr\n  jump\t// in\ntag_19:\n    /* \"contract-0c61f2e207.sol\":363:365  10 */\n  0x0a\n    /* \"contract-0c61f2e207.sol\":363:379  10 ** decimals() */\n  tag_21\n  swap2\n  swap1\n  tag_22\n  jump\t// in\ntag_21:\n    /* \"contract-0c61f2e207.sol\":355:360  10000 */\n  0x2710\n    /* \"contract-0c61f2e207.sol\":355:379  10000 * 10 ** decimals() */\n  tag_23\n  swap2\n  swap1\n  tag_24\n  jump\t// in\ntag_23:\n    /* \"contract-0c61f2e207.sol\":337:342  _mint */\n  shl(0x20, tag_25)\n    /* \"contract-0c61f2e207.sol\":337:380  _mint(msg.sender, 10000 * 10 ** decimals()) */\n  0x20\n  shr\n  jump\t// in\ntag_18:\n    /* \"contract-0c61f2e207.sol\":200:389  contract KnowLedgeToken is ERC20, ERC20Permit {... */\n  jump(tag_26)\n    /* \"@openzeppelin/contracts@5.0.1/utils/ShortStrings.sol\":2914:3254  function toShortStringWithFallback(string memory value, string storage store) internal returns (ShortString) {... */\ntag_12:\n    /* \"@openzeppelin/contracts@5.0.1/utils/ShortStrings.sol\":3010:3021  ShortString */\n  0x00\n    /* \"@openzeppelin/contracts@5.0.1/utils/ShortStrings.sol\":3059:3061  32 */\n  0x20\n    /* \"@openzeppelin/contracts@5.0.1/utils/ShortStrings.sol\":3043:3048  value */\n  dup4\n    /* \"@openzeppelin/contracts@5.0.1/utils/ShortStrings.sol\":3037:3056  bytes(value).length */\n  mload\n    /* \"@openzeppelin/contracts@5.0.1/utils/ShortStrings.sol\":3037:3061  bytes(value).length < 32 */\n  lt\n    /* \"@openzeppelin/contracts@5.0.1/utils/ShortStrings.sol\":3033:3248  if (bytes(value).length < 32) {... */\n  iszero\n  tag_28\n  jumpi\n    /* \"@openzeppelin/contracts@5.0.1/utils/ShortStrings.sol\":3084:3104  toShortString(value) */\n  tag_29\n    /* \"@openzeppelin/contracts@5.0.1/utils/ShortStrings.sol\":3098:3103  value */\n  dup4\n    /* \"@openzeppelin/contracts@5.0.1/utils/ShortStrings.sol\":3084:3097  toShortString */\n  shl(0x20, tag_30)\n    /* \"@openzeppelin/contracts@5.0.1/utils/ShortStrings.sol\":3084:3104  toShortString(value) */\n  0x20\n  shr\n  jump\t// in\ntag_29:\n    /* \"@openzeppelin/contracts@5.0.1/utils/ShortStrings.sol\":3077:3104  return toShortString(value) */\n  swap1\n  pop\n  jump(tag_27)\n    /* \"@openzeppelin/contracts@5.0.1/utils/ShortStrings.sol\":3033:3248  if (bytes(value).length < 32) {... */\ntag_28:\n    /* \"@openzeppelin/contracts@5.0.1/utils/ShortStrings.sol\":3176:3181  value */\n  dup3\n    /* \"@openzeppelin/contracts@5.0.1/utils/ShortStrings.sol\":3135:3167  StorageSlot.getStringSlot(store) */\n  tag_32\n    /* \"@openzeppelin/contracts@5.0.1/utils/ShortStrings.sol\":3161:3166  store */\n  dup4\n    /* \"@openzeppelin/contracts@5.0.1/utils/ShortStrings.sol\":3135:3160  StorageSlot.getStringSlot */\n  shl(0x20, tag_33)\n    /* \"@openzeppelin/contracts@5.0.1/utils/ShortStrings.sol\":3135:3167  StorageSlot.getStringSlot(store) */\n  0x20\n  shr\n  jump\t// in\ntag_32:\n    /* \"@openzeppelin/contracts@5.0.1/utils/ShortStrings.sol\":3135:3173  StorageSlot.getStringSlot(store).value */\n  0x00\n  add\n    /* \"@openzeppelin/contracts@5.0.1/utils/ShortStrings.sol\":3135:3181  StorageSlot.getStringSlot(store).value = value */\n  swap1\n  dup2\n  tag_34\n  swap2\n  swap1\n  tag_8\n  jump\t// in\ntag_34:\n  pop\n    /* \"@openzeppelin/contracts@5.0.1/utils/ShortStrings.sol\":1390:1456  0x00000000000000000000000000000000000000000000000000000000000000FF */\n  0xff\n    /* \"@openzeppelin/contracts@5.0.1/utils/ShortStrings.sol\":3219:3236  FALLBACK_SENTINEL */\n  0x00\n  shl\n    /* \"@openzeppelin/contracts@5.0.1/utils/ShortStrings.sol\":3195:3237  return ShortString.wrap(FALLBACK_SENTINEL) */\n  swap1\n  pop\n    /* \"@openzeppelin/contracts@5.0.1/utils/ShortStrings.sol\":2914:3254  function toShortStringWithFallback(string memory value, string storage store) internal returns (ShortString) {... */\ntag_27:\n  swap3\n  swap2\n  pop\n  pop\n  jump\t// out\n    /* \"@openzeppelin/contracts@5.0.1/utils/cryptography/EIP712.sol\":4113:4292  function _buildDomainSeparator() private view returns (bytes32) {... */\ntag_15:\n    /* \"@openzeppelin/contracts@5.0.1/utils/cryptography/EIP712.sol\":4168:4175  bytes32 */\n  0x00\n    /* \"@openzeppelin/contracts@5.0.1/utils/cryptography/EIP712.sol\":2079:2174  keccak256(\"EIP712Domain(string name,string version,uint256 chainId,address verifyingContract)\") */\n  0x8b73c3c69bb8fe3d512ecc4cf759cc79239f7b179b0ffacaa9a75d522b39400f\n    /* \"@openzeppelin/contracts@5.0.1/utils/cryptography/EIP712.sol\":4226:4237  _hashedName */\n  mload(0xe0)\n    /* \"@openzeppelin/contracts@5.0.1/utils/cryptography/EIP712.sol\":4239:4253  _hashedVersion */\n  mload(0x0100)\n    /* \"@openzeppelin/contracts@5.0.1/utils/cryptography/EIP712.sol\":4255:4268  block.chainid */\n  chainid\n    /* \"@openzeppelin/contracts@5.0.1/utils/cryptography/EIP712.sol\":4278:4282  this */\n  address\n    /* \"@openzeppelin/contracts@5.0.1/utils/cryptography/EIP712.sol\":4204:4284  abi.encode(TYPE_HASH, _hashedName, _hashedVersion, block.chainid, address(this)) */\n  add(0x20, mload(0x40))\n  tag_36\n  swap6\n  swap5\n  swap4\n  swap3\n  swap2\n  swap1\n  tag_37\n  jump\t// in\ntag_36:\n  mload(0x40)\n  0x20\n  dup2\n  dup4\n  sub\n  sub\n  dup2\n  mstore\n  swap1\n  0x40\n  mstore\n    /* \"@openzeppelin/contracts@5.0.1/utils/cryptography/EIP712.sol\":4194:4285  keccak256(abi.encode(TYPE_HASH, _hashedName, _hashedVersion, block.chainid, address(this))) */\n  dup1\n  mload\n  swap1\n  0x20\n  add\n  keccak256\n    /* \"@openzeppelin/contracts@5.0.1/utils/cryptography/EIP712.sol\":4187:4285  return keccak256(abi.encode(TYPE_HASH, _hashedName, _hashedVersion, block.chainid, address(this))) */\n  swap1\n  pop\n    /* \"@openzeppelin/contracts@5.0.1/utils/cryptography/EIP712.sol\":4113:4292  function _buildDomainSeparator() private view returns (bytes32) {... */\n  swap1\n  jump\t// out\n    /* \"@openzeppelin/contracts@5.0.1/token/ERC20/ERC20.sol\":3002:3084  function decimals() public view virtual returns (uint8) {... */\ntag_20:\n    /* \"@openzeppelin/contracts@5.0.1/token/ERC20/ERC20.sol\":3051:3056  uint8 */\n  0x00\n    /* \"@openzeppelin/contracts@5.0.1/token/ERC20/ERC20.sol\":3075:3077  18 */\n  0x12\n    /* \"@openzeppelin/contracts@5.0.1/token/ERC20/ERC20.sol\":3068:3077  return 18 */\n  swap1\n  pop\n    /* \"@openzeppelin/contracts@5.0.1/token/ERC20/ERC20.sol\":3002:3084  function decimals() public view virtual returns (uint8) {... */\n  swap1\n  jump\t// out\n    /* \"@openzeppelin/contracts@5.0.1/token/ERC20/ERC20.sol\":7721:7929  function _mint(address account, uint256 value) internal {... */\ntag_25:\n    /* \"@openzeppelin/contracts@5.0.1/token/ERC20/ERC20.sol\":7810:7811  0 */\n  0x00\n    /* \"@openzeppelin/contracts@5.0.1/token/ERC20/ERC20.sol\":7791:7812  account == address(0) */\n  0xffffffffffffffffffffffffffffffffffffffff\n  and\n    /* \"@openzeppelin/contracts@5.0.1/token/ERC20/ERC20.sol\":7791:7798  account */\n  dup3\n    /* \"@openzeppelin/contracts@5.0.1/token/ERC20/ERC20.sol\":7791:7812  account == address(0) */\n  0xffffffffffffffffffffffffffffffffffffffff\n  and\n  sub\n    /* \"@openzeppelin/contracts@5.0.1/token/ERC20/ERC20.sol\":7787:7878  if (account == address(0)) {... */\n  tag_40\n  jumpi\n    /* \"@openzeppelin/contracts@5.0.1/token/ERC20/ERC20.sol\":7864:7865  0 */\n  0x00\n    /* \"@openzeppelin/contracts@5.0.1/token/ERC20/ERC20.sol\":7835:7867  ERC20InvalidReceiver(address(0)) */\n  mload(0x40)\n  0xec442f0500000000000000000000000000000000000000000000000000000000\n  dup2\n  mstore\n  0x04\n  add\n  tag_41\n  swap2\n  swap1\n  tag_42\n  jump\t// in\ntag_41:\n  mload(0x40)\n  dup1\n  swap2\n  sub\n  swap1\n  revert\n    /* \"@openzeppelin/contracts@5.0.1/token/ERC20/ERC20.sol\":7787:7878  if (account == address(0)) {... */\ntag_40:\n    /* \"@openzeppelin/contracts@5.0.1/token/ERC20/ERC20.sol\":7887:7922  _update(address(0), account, value) */\n  tag_43\n    /* \"@openzeppelin/contracts@5.0.1/token/ERC20/ERC20.sol\":7903:7904  0 */\n  0x00\n    /* \"@openzeppelin/contracts@5.0.1/token/ERC20/ERC20.sol\":7907:7914  account */\n  dup4\n    /* \"@openzeppelin/contracts@5.0.1/token/ERC20/ERC20.sol\":7916:7921  value */\n  dup4\n    /* \"@openzeppelin/contracts@5.0.1/token/ERC20/ERC20.sol\":7887:7894  _update */\n  shl(0x20, tag_44)\n    /* \"@openzeppelin/contracts@5.0.1/token/ERC20/ERC20.sol\":7887:7922  _update(address(0), account, value) */\n  0x20\n  shr\n  jump\t// in\ntag_43:\n    /* \"@openzeppelin/contracts@5.0.1/token/ERC20/ERC20.sol\":7721:7929  function _mint(address account, uint256 value) internal {... */\n  pop\n  pop\n  jump\t// out\n    /* \"@openzeppelin/contracts@5.0.1/utils/ShortStrings.sol\":1708:1994  function toShortString(string memory str) internal pure returns (ShortString) {... */\ntag_30:\n    /* \"@openzeppelin/contracts@5.0.1/utils/ShortStrings.sol\":1773:1784  ShortString */\n  0x00\n    /* \"@openzeppelin/contracts@5.0.1/utils/ShortStrings.sol\":1796:1813  bytes memory bstr */\n  dup1\n    /* \"@openzeppelin/contracts@5.0.1/utils/ShortStrings.sol\":1822:1825  str */\n  dup3\n    /* \"@openzeppelin/contracts@5.0.1/utils/ShortStrings.sol\":1796:1826  bytes memory bstr = bytes(str) */\n  swap1\n  pop\n    /* \"@openzeppelin/contracts@5.0.1/utils/ShortStrings.sol\":1854:1856  31 */\n  0x1f\n    /* \"@openzeppelin/contracts@5.0.1/utils/ShortStrings.sol\":1840:1844  bstr */\n  dup2\n    /* \"@openzeppelin/contracts@5.0.1/utils/ShortStrings.sol\":1840:1851  bstr.length */\n  mload\n    /* \"@openzeppelin/contracts@5.0.1/utils/ShortStrings.sol\":1840:1856  bstr.length > 31 */\n  gt\n    /* \"@openzeppelin/contracts@5.0.1/utils/ShortStrings.sol\":1836:1908  if (bstr.length > 31) {... */\n  iszero\n  tag_46\n  jumpi\n    /* \"@openzeppelin/contracts@5.0.1/utils/ShortStrings.sol\":1893:1896  str */\n  dup3\n    /* \"@openzeppelin/contracts@5.0.1/utils/ShortStrings.sol\":1879:1897  StringTooLong(str) */\n  mload(0x40)\n  0x305a27a900000000000000000000000000000000000000000000000000000000\n  dup2\n  mstore\n  0x04\n  add\n  tag_47\n  swap2\n  swap1\n  tag_48\n  jump\t// in\ntag_47:\n  mload(0x40)\n  dup1\n  swap2\n  sub\n  swap1\n  revert\n    /* \"@openzeppelin/contracts@5.0.1/utils/ShortStrings.sol\":1836:1908  if (bstr.length > 31) {... */\ntag_46:\n    /* \"@openzeppelin/contracts@5.0.1/utils/ShortStrings.sol\":1974:1978  bstr */\n  dup1\n    /* \"@openzeppelin/contracts@5.0.1/utils/ShortStrings.sol\":1974:1985  bstr.length */\n  mload\n    /* \"@openzeppelin/contracts@5.0.1/utils/ShortStrings.sol\":1965:1969  bstr */\n  dup2\n    /* \"@openzeppelin/contracts@5.0.1/utils/ShortStrings.sol\":1957:1970  bytes32(bstr) */\n  tag_49\n  swap1\n  tag_50\n  jump\t// in\ntag_49:\n    /* \"@openzeppelin/contracts@5.0.1/utils/ShortStrings.sol\":1949:1971  uint256(bytes32(bstr)) */\n  0x00\n  shr\n    /* \"@openzeppelin/contracts@5.0.1/utils/ShortStrings.sol\":1949:1985  uint256(bytes32(bstr)) | bstr.length */\n  or\n    /* \"@openzeppelin/contracts@5.0.1/utils/ShortStrings.sol\":1941:1986  bytes32(uint256(bytes32(bstr)) | bstr.length) */\n  0x00\n  shl\n    /* \"@openzeppelin/contracts@5.0.1/utils/ShortStrings.sol\":1917:1987  return ShortString.wrap(bytes32(uint256(bytes32(bstr)) | bstr.length)) */\n  swap2\n  pop\n  pop\n    /* \"@openzeppelin/contracts@5.0.1/utils/ShortStrings.sol\":1708:1994  function toShortString(string memory str) internal pure returns (ShortString) {... */\n  swap2\n  swap1\n  pop\n  jump\t// out\n    /* \"@openzeppelin/contracts@5.0.1/utils/StorageSlot.sol\":3135:3337  function getStringSlot(string storage store) internal pure returns (StringSlot storage r) {... */\ntag_33:\n    /* \"@openzeppelin/contracts@5.0.1/utils/StorageSlot.sol\":3203:3223  StringSlot storage r */\n  0x00\n    /* \"@openzeppelin/contracts@5.0.1/utils/StorageSlot.sol\":3311:3321  store.slot */\n  dup2\n    /* \"@openzeppelin/contracts@5.0.1/utils/StorageSlot.sol\":3301:3321  r.slot := store.slot */\n  swap1\n  pop\n    /* \"@openzeppelin/contracts@5.0.1/utils/StorageSlot.sol\":3135:3337  function getStringSlot(string storage store) internal pure returns (StringSlot storage r) {... */\n  swap2\n  swap1\n  pop\n  jump\t// out\n    /* \"@openzeppelin/contracts@5.0.1/token/ERC20/ERC20.sol\":6271:7378  function _update(address from, address to, uint256 value) internal virtual {... */\ntag_44:\n    /* \"@openzeppelin/contracts@5.0.1/token/ERC20/ERC20.sol\":6376:6377  0 */\n  0x00\n    /* \"@openzeppelin/contracts@5.0.1/token/ERC20/ERC20.sol\":6360:6378  from == address(0) */\n  0xffffffffffffffffffffffffffffffffffffffff\n  and\n    /* \"@openzeppelin/contracts@5.0.1/token/ERC20/ERC20.sol\":6360:6364  from */\n  dup4\n    /* \"@openzeppelin/contracts@5.0.1/token/ERC20/ERC20.sol\":6360:6378  from == address(0) */\n  0xffffffffffffffffffffffffffffffffffffffff\n  and\n  sub\n    /* \"@openzeppelin/contracts@5.0.1/token/ERC20/ERC20.sol\":6356:6896  if (from == address(0)) {... */\n  tag_53\n  jumpi\n    /* \"@openzeppelin/contracts@5.0.1/token/ERC20/ERC20.sol\":6512:6517  value */\n  dup1\n    /* \"@openzeppelin/contracts@5.0.1/token/ERC20/ERC20.sol\":6496:6508  _totalSupply */\n  0x02\n  0x00\n    /* \"@openzeppelin/contracts@5.0.1/token/ERC20/ERC20.sol\":6496:6517  _totalSupply += value */\n  dup3\n  dup3\n  sload\n  tag_54\n  swap2\n  swap1\n  tag_55\n  jump\t// in\ntag_54:\n  swap3\n  pop\n  pop\n  dup2\n  swap1\n  sstore\n  pop\n    /* \"@openzeppelin/contracts@5.0.1/token/ERC20/ERC20.sol\":6356:6896  if (from == address(0)) {... */\n  jump(tag_56)\ntag_53:\n    /* \"@openzeppelin/contracts@5.0.1/token/ERC20/ERC20.sol\":6548:6567  uint256 fromBalance */\n  0x00\n    /* \"@openzeppelin/contracts@5.0.1/token/ERC20/ERC20.sol\":6570:6579  _balances */\n  dup1\n    /* \"@openzeppelin/contracts@5.0.1/token/ERC20/ERC20.sol\":6570:6585  _balances[from] */\n  0x00\n    /* \"@openzeppelin/contracts@5.0.1/token/ERC20/ERC20.sol\":6580:6584  from */\n  dup6\n    /* \"@openzeppelin/contracts@5.0.1/token/ERC20/ERC20.sol\":6570:6585  _balances[from] */\n  0xffffffffffffffffffffffffffffffffffffffff\n  and\n  0xffffffffffffffffffffffffffffffffffffffff\n  and\n  dup2\n  mstore\n  0x20\n  add\n  swap1\n  dup2\n  mstore\n  0x20\n  add\n  0x00\n  keccak256\n  sload\n    /* \"@openzeppelin/contracts@5.0.1/token/ERC20/ERC20.sol\":6548:6585  uint256 fromBalance = _balances[from] */\n  swap1\n  pop\n    /* \"@openzeppelin/contracts@5.0.1/token/ERC20/ERC20.sol\":6617:6622  value */\n  dup2\n    /* \"@openzeppelin/contracts@5.0.1/token/ERC20/ERC20.sol\":6603:6614  fromBalance */\n  dup2\n    /* \"@openzeppelin/contracts@5.0.1/token/ERC20/ERC20.sol\":6603:6622  fromBalance < value */\n  lt\n    /* \"@openzeppelin/contracts@5.0.1/token/ERC20/ERC20.sol\":6599:6714  if (fromBalance < value) {... */\n  iszero\n  tag_57\n  jumpi\n    /* \"@openzeppelin/contracts@5.0.1/token/ERC20/ERC20.sol\":6674:6678  from */\n  dup4\n    /* \"@openzeppelin/contracts@5.0.1/token/ERC20/ERC20.sol\":6680:6691  fromBalance */\n  dup2\n    /* \"@openzeppelin/contracts@5.0.1/token/ERC20/ERC20.sol\":6693:6698  value */\n  dup4\n    /* \"@openzeppelin/contracts@5.0.1/token/ERC20/ERC20.sol\":6649:6699  ERC20InsufficientBalance(from, fromBalance, value) */\n  mload(0x40)\n  0xe450d38c00000000000000000000000000000000000000000000000000000000\n  dup2\n  mstore\n  0x04\n  add\n  tag_58\n  swap4\n  swap3\n  swap2\n  swap1\n  tag_59\n  jump\t// in\ntag_58:\n  mload(0x40)\n  dup1\n  swap2\n  sub\n  swap1\n  revert\n    /* \"@openzeppelin/contracts@5.0.1/token/ERC20/ERC20.sol\":6599:6714  if (fromBalance < value) {... */\ntag_57:\n    /* \"@openzeppelin/contracts@5.0.1/token/ERC20/ERC20.sol\":6866:6871  value */\n  dup2\n    /* \"@openzeppelin/contracts@5.0.1/token/ERC20/ERC20.sol\":6852:6863  fromBalance */\n  dup2\n    /* \"@openzeppelin/contracts@5.0.1/token/ERC20/ERC20.sol\":6852:6871  fromBalance - value */\n  sub\n    /* \"@openzeppelin/contracts@5.0.1/token/ERC20/ERC20.sol\":6834:6843  _balances */\n  0x00\n    /* \"@openzeppelin/contracts@5.0.1/token/ERC20/ERC20.sol\":6834:6849  _balances[from] */\n  dup1\n    /* \"@openzeppelin/contracts@5.0.1/token/ERC20/ERC20.sol\":6844:6848  from */\n  dup7\n    /* \"@openzeppelin/contracts@5.0.1/token/ERC20/ERC20.sol\":6834:6849  _balances[from] */\n  0xffffffffffffffffffffffffffffffffffffffff\n  and\n  0xffffffffffffffffffffffffffffffffffffffff\n  and\n  dup2\n  mstore\n  0x20\n  add\n  swap1\n  dup2\n  mstore\n  0x20\n  add\n  0x00\n  keccak256\n    /* \"@openzeppelin/contracts@5.0.1/token/ERC20/ERC20.sol\":6834:6871  _balances[from] = fromBalance - value */\n  dup2\n  swap1\n  sstore\n  pop\n    /* \"@openzeppelin/contracts@5.0.1/token/ERC20/ERC20.sol\":6534:6896  {... */\n  pop\n    /* \"@openzeppelin/contracts@5.0.1/token/ERC20/ERC20.sol\":6356:6896  if (from == address(0)) {... */\ntag_56:\n    /* \"@openzeppelin/contracts@5.0.1/token/ERC20/ERC20.sol\":6924:6925  0 */\n  0x00\n    /* \"@openzeppelin/contracts@5.0.1/token/ERC20/ERC20.sol\":6910:6926  to == address(0) */\n  0xffffffffffffffffffffffffffffffffffffffff\n  and\n    /* \"@openzeppelin/contracts@5.0.1/token/ERC20/ERC20.sol\":6910:6912  to */\n  dup3\n    /* \"@openzeppelin/contracts@5.0.1/token/ERC20/ERC20.sol\":6910:6926  to == address(0) */\n  0xffffffffffffffffffffffffffffffffffffffff\n  and\n  sub\n    /* \"@openzeppelin/contracts@5.0.1/token/ERC20/ERC20.sol\":6906:7331  if (to == address(0)) {... */\n  tag_60\n  jumpi\n    /* \"@openzeppelin/contracts@5.0.1/token/ERC20/ERC20.sol\":7089:7094  value */\n  dup1\n    /* \"@openzeppelin/contracts@5.0.1/token/ERC20/ERC20.sol\":7073:7085  _totalSupply */\n  0x02\n  0x00\n    /* \"@openzeppelin/contracts@5.0.1/token/ERC20/ERC20.sol\":7073:7094  _totalSupply -= value */\n  dup3\n  dup3\n  sload\n  sub\n  swap3\n  pop\n  pop\n  dup2\n  swap1\n  sstore\n  pop\n    /* \"@openzeppelin/contracts@5.0.1/token/ERC20/ERC20.sol\":6906:7331  if (to == address(0)) {... */\n  jump(tag_61)\ntag_60:\n    /* \"@openzeppelin/contracts@5.0.1/token/ERC20/ERC20.sol\":7301:7306  value */\n  dup1\n    /* \"@openzeppelin/contracts@5.0.1/token/ERC20/ERC20.sol\":7284:7293  _balances */\n  0x00\n    /* \"@openzeppelin/contracts@5.0.1/token/ERC20/ERC20.sol\":7284:7297  _balances[to] */\n  dup1\n    /* \"@openzeppelin/contracts@5.0.1/token/ERC20/ERC20.sol\":7294:7296  to */\n  dup5\n    /* \"@openzeppelin/contracts@5.0.1/token/ERC20/ERC20.sol\":7284:7297  _balances[to] */\n  0xffffffffffffffffffffffffffffffffffffffff\n  and\n  0xffffffffffffffffffffffffffffffffffffffff\n  and\n  dup2\n  mstore\n  0x20\n  add\n  swap1\n  dup2\n  mstore\n  0x20\n  add\n  0x00\n  keccak256\n  0x00\n    /* \"@openzeppelin/contracts@5.0.1/token/ERC20/ERC20.sol\":7284:7306  _balances[to] += value */\n  dup3\n  dup3\n  sload\n  add\n  swap3\n  pop\n  pop\n  dup2\n  swap1\n  sstore\n  pop\n    /* \"@openzeppelin/contracts@5.0.1/token/ERC20/ERC20.sol\":6906:7331  if (to == address(0)) {... */\ntag_61:\n    /* \"@openzeppelin/contracts@5.0.1/token/ERC20/ERC20.sol\":7361:7363  to */\n  dup2\n    /* \"@openzeppelin/contracts@5.0.1/token/ERC20/ERC20.sol\":7346:7371  Transfer(from, to, value) */\n  0xffffffffffffffffffffffffffffffffffffffff\n  and\n    /* \"@openzeppelin/contracts@5.0.1/token/ERC20/ERC20.sol\":7355:7359  from */\n  dup4\n    /* \"@openzeppelin/contracts@5.0.1/token/ERC20/ERC20.sol\":7346:7371  Transfer(from, to, value) */\n  0xffffffffffffffffffffffffffffffffffffffff\n  and\n  0xddf252ad1be2c89b69c2b068fc378daa952ba7f163c4a11628f55a4df523b3ef\n    /* \"@openzeppelin/contracts@5.0.1/token/ERC20/ERC20.sol\":7365:7370  value */\n  dup4\n    /* \"@openzeppelin/contracts@5.0.1/token/ERC20/ERC20.sol\":7346:7371  Transfer(from, to, value) */\n  mload(0x40)\n  tag_62\n  swap2\n  swap1\n  tag_63\n  jump\t// in\ntag_62:\n  mload(0x40)\n  dup1\n  swap2\n  sub\n  swap1\n  log3\n    /* \"@openzeppelin/contracts@5.0.1/token/ERC20/ERC20.sol\":6271:7378  function _update(address from, address to, uint256 value) internal virtual {... */\n  pop\n  pop\n  pop\n  jump\t// out\n    /* \"#utility.yul\":7:106   */\ntag_64:\n    /* \"#utility.yul\":59:65   */\n  0x00\n    /* \"#utility.yul\":93:98   */\n  dup2\n    /* \"#utility.yul\":87:99   */\n  mload\n    /* \"#utility.yul\":77:99   */\n  swap1\n  pop\n    /* \"#utility.yul\":7:106   */\n  swap2\n  swap1\n  pop\n  jump\t// out\n    /* \"#utility.yul\":112:292   */\ntag_65:\n    /* \"#utility.yul\":160:237   */\n  0x4e487b7100000000000000000000000000000000000000000000000000000000\n    /* \"#utility.yul\":157:158   */\n  0x00\n    /* \"#utility.yul\":150:238   */\n  mstore\n    /* \"#utility.yul\":257:261   */\n  0x41\n    /* \"#utility.yul\":254:255   */\n  0x04\n    /* \"#utility.yul\":247:262   */\n  mstore\n    /* \"#utility.yul\":281:285   */\n  0x24\n    /* \"#utility.yul\":278:279   */\n  0x00\n    /* \"#utility.yul\":271:286   */\n  revert\n    /* \"#utility.yul\":298:478   */\ntag_66:\n    /* \"#utility.yul\":346:423   */\n  0x4e487b7100000000000000000000000000000000000000000000000000000000\n    /* \"#utility.yul\":343:344   */\n  0x00\n    /* \"#utility.yul\":336:424   */\n  mstore\n    /* \"#utility.yul\":443:447   */\n  0x22\n    /* \"#utility.yul\":440:441   */\n  0x04\n    /* \"#utility.yul\":433:448   */\n  mstore\n    /* \"#utility.yul\":467:471   */\n  0x24\n    /* \"#utility.yul\":464:465   */\n  0x00\n    /* \"#utility.yul\":457:472   */\n  revert\n    /* \"#utility.yul\":484:804   */\ntag_67:\n    /* \"#utility.yul\":528:534   */\n  0x00\n    /* \"#utility.yul\":565:566   */\n  0x02\n    /* \"#utility.yul\":559:563   */\n  dup3\n    /* \"#utility.yul\":555:567   */\n  div\n    /* \"#utility.yul\":545:567   */\n  swap1\n  pop\n    /* \"#utility.yul\":612:613   */\n  0x01\n    /* \"#utility.yul\":606:610   */\n  dup3\n    /* \"#utility.yul\":602:614   */\n  and\n    /* \"#utility.yul\":633:651   */\n  dup1\n    /* \"#utility.yul\":623:704   */\n  tag_107\n  jumpi\n    /* \"#utility.yul\":689:693   */\n  0x7f\n    /* \"#utility.yul\":681:687   */\n  dup3\n    /* \"#utility.yul\":677:694   */\n  and\n    /* \"#utility.yul\":667:694   */\n  swap2\n  pop\n    /* \"#utility.yul\":623:704   */\ntag_107:\n    /* \"#utility.yul\":751:753   */\n  0x20\n    /* \"#utility.yul\":743:749   */\n  dup3\n    /* \"#utility.yul\":740:754   */\n  lt\n    /* \"#utility.yul\":720:738   */\n  dup2\n    /* \"#utility.yul\":717:755   */\n  sub\n    /* \"#utility.yul\":714:798   */\n  tag_108\n  jumpi\n    /* \"#utility.yul\":770:788   */\n  tag_109\n  tag_66\n  jump\t// in\ntag_109:\n    /* \"#utility.yul\":714:798   */\ntag_108:\n    /* \"#utility.yul\":535:804   */\n  pop\n    /* \"#utility.yul\":484:804   */\n  swap2\n  swap1\n  pop\n  jump\t// out\n    /* \"#utility.yul\":810:951   */\ntag_68:\n    /* \"#utility.yul\":859:863   */\n  0x00\n    /* \"#utility.yul\":882:885   */\n  dup2\n    /* \"#utility.yul\":874:885   */\n  swap1\n  pop\n    /* \"#utility.yul\":905:908   */\n  dup2\n    /* \"#utility.yul\":902:903   */\n  0x00\n    /* \"#utility.yul\":895:909   */\n  mstore\n    /* \"#utility.yul\":939:943   */\n  0x20\n    /* \"#utility.yul\":936:937   */\n  0x00\n    /* \"#utility.yul\":926:944   */\n  keccak256\n    /* \"#utility.yul\":918:944   */\n  swap1\n  pop\n    /* \"#utility.yul\":810:951   */\n  swap2\n  swap1\n  pop\n  jump\t// out\n    /* \"#utility.yul\":957:1050   */\ntag_69:\n    /* \"#utility.yul\":994:1000   */\n  0x00\n    /* \"#utility.yul\":1041:1043   */\n  0x20\n    /* \"#utility.yul\":1036:1038   */\n  0x1f\n    /* \"#utility.yul\":1029:1034   */\n  dup4\n    /* \"#utility.yul\":1025:1039   */\n  add\n    /* \"#utility.yul\":1021:1044   */\n  div\n    /* \"#utility.yul\":1011:1044   */\n  swap1\n  pop\n    /* \"#utility.yul\":957:1050   */\n  swap2\n  swap1\n  pop\n  jump\t// out\n    /* \"#utility.yul\":1056:1163   */\ntag_70:\n    /* \"#utility.yul\":1100:1108   */\n  0x00\n    /* \"#utility.yul\":1150:1155   */\n  dup3\n    /* \"#utility.yul\":1144:1148   */\n  dup3\n    /* \"#utility.yul\":1140:1156   */\n  shl\n    /* \"#utility.yul\":1119:1156   */\n  swap1\n  pop\n    /* \"#utility.yul\":1056:1163   */\n  swap3\n  swap2\n  pop\n  pop\n  jump\t// out\n    /* \"#utility.yul\":1169:1562   */\ntag_71:\n    /* \"#utility.yul\":1238:1244   */\n  0x00\n    /* \"#utility.yul\":1288:1289   */\n  0x08\n    /* \"#utility.yul\":1276:1286   */\n  dup4\n    /* \"#utility.yul\":1272:1290   */\n  mul\n    /* \"#utility.yul\":1311:1408   */\n  tag_114\n    /* \"#utility.yul\":1341:1407   */\n  0xffffffffffffffffffffffffffffffffffffffffffffffffffffffffffffffff\n    /* \"#utility.yul\":1330:1339   */\n  dup3\n    /* \"#utility.yul\":1311:1408   */\n  tag_70\n  jump\t// in\ntag_114:\n    /* \"#utility.yul\":1429:1468   */\n  tag_115\n    /* \"#utility.yul\":1459:1467   */\n  dup7\n    /* \"#utility.yul\":1448:1457   */\n  dup4\n    /* \"#utility.yul\":1429:1468   */\n  tag_70\n  jump\t// in\ntag_115:\n    /* \"#utility.yul\":1417:1468   */\n  swap6\n  pop\n    /* \"#utility.yul\":1501:1505   */\n  dup1\n    /* \"#utility.yul\":1497:1506   */\n  not\n    /* \"#utility.yul\":1490:1495   */\n  dup5\n    /* \"#utility.yul\":1486:1507   */\n  and\n    /* \"#utility.yul\":1477:1507   */\n  swap4\n  pop\n    /* \"#utility.yul\":1550:1554   */\n  dup1\n    /* \"#utility.yul\":1540:1548   */\n  dup7\n    /* \"#utility.yul\":1536:1555   */\n  and\n    /* \"#utility.yul\":1529:1534   */\n  dup5\n    /* \"#utility.yul\":1526:1556   */\n  or\n    /* \"#utility.yul\":1516:1556   */\n  swap3\n  pop\n    /* \"#utility.yul\":1245:1562   */\n  pop\n  pop\n    /* \"#utility.yul\":1169:1562   */\n  swap4\n  swap3\n  pop\n  pop\n  pop\n  jump\t// out\n    /* \"#utility.yul\":1568:1645   */\ntag_72:\n    /* \"#utility.yul\":1605:1612   */\n  0x00\n    /* \"#utility.yul\":1634:1639   */\n  dup2\n    /* \"#utility.yul\":1623:1639   */\n  swap1\n  pop\n    /* \"#utility.yul\":1568:1645   */\n  swap2\n  swap1\n  pop\n  jump\t// out\n    /* \"#utility.yul\":1651:1711   */\ntag_73:\n    /* \"#utility.yul\":1679:1682   */\n  0x00\n    /* \"#utility.yul\":1700:1705   */\n  dup2\n    /* \"#utility.yul\":1693:1705   */\n  swap1\n  pop\n    /* \"#utility.yul\":1651:1711   */\n  swap2\n  swap1\n  pop\n  jump\t// out\n    /* \"#utility.yul\":1717:1859   */\ntag_74:\n    /* \"#utility.yul\":1767:1776   */\n  0x00\n    /* \"#utility.yul\":1800:1853   */\n  tag_119\n    /* \"#utility.yul\":1818:1852   */\n  tag_120\n    /* \"#utility.yul\":1827:1851   */\n  tag_121\n    /* \"#utility.yul\":1845:1850   */\n  dup5\n    /* \"#utility.yul\":1827:1851   */\n  tag_72\n  jump\t// in\ntag_121:\n    /* \"#utility.yul\":1818:1852   */\n  tag_73\n  jump\t// in\ntag_120:\n    /* \"#utility.yul\":1800:1853   */\n  tag_72\n  jump\t// in\ntag_119:\n    /* \"#utility.yul\":1787:1853   */\n  swap1\n  pop\n    /* \"#utility.yul\":1717:1859   */\n  swap2\n  swap1\n  pop\n  jump\t// out\n    /* \"#utility.yul\":1865:1940   */\ntag_75:\n    /* \"#utility.yul\":1908:1911   */\n  0x00\n    /* \"#utility.yul\":1929:1934   */\n  dup2\n    /* \"#utility.yul\":1922:1934   */\n  swap1\n  pop\n    /* \"#utility.yul\":1865:1940   */\n  swap2\n  swap1\n  pop\n  jump\t// out\n    /* \"#utility.yul\":1946:2215   */\ntag_76:\n    /* \"#utility.yul\":2056:2095   */\n  tag_124\n    /* \"#utility.yul\":2087:2094   */\n  dup4\n    /* \"#utility.yul\":2056:2095   */\n  tag_74\n  jump\t// in\ntag_124:\n    /* \"#utility.yul\":2117:2208   */\n  tag_125\n    /* \"#utility.yul\":2166:2207   */\n  tag_126\n    /* \"#utility.yul\":2190:2206   */\n  dup3\n    /* \"#utility.yul\":2166:2207   */\n  tag_75\n  jump\t// in\ntag_126:\n    /* \"#utility.yul\":2158:2164   */\n  dup5\n    /* \"#utility.yul\":2151:2155   */\n  dup5\n    /* \"#utility.yul\":2145:2156   */\n  sload\n    /* \"#utility.yul\":2117:2208   */\n  tag_71\n  jump\t// in\ntag_125:\n    /* \"#utility.yul\":2111:2115   */\n  dup3\n    /* \"#utility.yul\":2104:2209   */\n  sstore\n    /* \"#utility.yul\":2022:2215   */\n  pop\n    /* \"#utility.yul\":1946:2215   */\n  pop\n  pop\n  pop\n  jump\t// out\n    /* \"#utility.yul\":2221:2294   */\ntag_77:\n    /* \"#utility.yul\":2266:2269   */\n  0x00\n    /* \"#utility.yul\":2221:2294   */\n  swap1\n  jump\t// out\n    /* \"#utility.yul\":2300:2489   */\ntag_78:\n    /* \"#utility.yul\":2377:2409   */\n  tag_129\n  tag_77\n  jump\t// in\ntag_129:\n    /* \"#utility.yul\":2418:2483   */\n  tag_130\n    /* \"#utility.yul\":2476:2482   */\n  dup2\n    /* \"#utility.yul\":2468:2474   */\n  dup5\n    /* \"#utility.yul\":2462:2466   */\n  dup5\n    /* \"#utility.yul\":2418:2483   */\n  tag_76\n  jump\t// in\ntag_130:\n    /* \"#utility.yul\":2353:2489   */\n  pop\n    /* \"#utility.yul\":2300:2489   */\n  pop\n  pop\n  jump\t// out\n    /* \"#utility.yul\":2495:2681   */\ntag_79:\n    /* \"#utility.yul\":2555:2675   */\ntag_132:\n    /* \"#utility.yul\":2572:2575   */\n  dup2\n    /* \"#utility.yul\":2565:2570   */\n  dup2\n    /* \"#utility.yul\":2562:2576   */\n  lt\n    /* \"#utility.yul\":2555:2675   */\n  iszero\n  tag_134\n  jumpi\n    /* \"#utility.yul\":2626:2665   */\n  tag_135\n    /* \"#utility.yul\":2663:2664   */\n  0x00\n    /* \"#utility.yul\":2656:2661   */\n  dup3\n    /* \"#utility.yul\":2626:2665   */\n  tag_78\n  jump\t// in\ntag_135:\n    /* \"#utility.yul\":2599:2600   */\n  0x01\n    /* \"#utility.yul\":2592:2597   */\n  dup2\n    /* \"#utility.yul\":2588:2601   */\n  add\n    /* \"#utility.yul\":2579:2601   */\n  swap1\n  pop\n    /* \"#utility.yul\":2555:2675   */\n  jump(tag_132)\ntag_134:\n    /* \"#utility.yul\":2495:2681   */\n  pop\n  pop\n  jump\t// out\n    /* \"#utility.yul\":2687:3230   */\ntag_80:\n    /* \"#utility.yul\":2788:2790   */\n  0x1f\n    /* \"#utility.yul\":2783:2786   */\n  dup3\n    /* \"#utility.yul\":2780:2791   */\n  gt\n    /* \"#utility.yul\":2777:3223   */\n  iszero\n  tag_137\n  jumpi\n    /* \"#utility.yul\":2822:2860   */\n  tag_138\n    /* \"#utility.yul\":2854:2859   */\n  dup2\n    /* \"#utility.yul\":2822:2860   */\n  tag_68\n  jump\t// in\ntag_138:\n    /* \"#utility.yul\":2906:2935   */\n  tag_139\n    /* \"#utility.yul\":2924:2934   */\n  dup5\n    /* \"#utility.yul\":2906:2935   */\n  tag_69\n  jump\t// in\ntag_139:\n    /* \"#utility.yul\":2896:2904   */\n  dup2\n    /* \"#utility.yul\":2892:2936   */\n  add\n    /* \"#utility.yul\":3089:3091   */\n  0x20\n    /* \"#utility.yul\":3077:3087   */\n  dup6\n    /* \"#utility.yul\":3074:3092   */\n  lt\n    /* \"#utility.yul\":3071:3120   */\n  iszero\n  tag_140\n  jumpi\n    /* \"#utility.yul\":3110:3118   */\n  dup2\n    /* \"#utility.yul\":3095:3118   */\n  swap1\n  pop\n    /* \"#utility.yul\":3071:3120   */\ntag_140:\n    /* \"#utility.yul\":3133:3213   */\n  tag_141\n    /* \"#utility.yul\":3189:3211   */\n  tag_142\n    /* \"#utility.yul\":3207:3210   */\n  dup6\n    /* \"#utility.yul\":3189:3211   */\n  tag_69\n  jump\t// in\ntag_142:\n    /* \"#utility.yul\":3179:3187   */\n  dup4\n    /* \"#utility.yul\":3175:3212   */\n  add\n    /* \"#utility.yul\":3162:3173   */\n  dup3\n    /* \"#utility.yul\":3133:3213   */\n  tag_79\n  jump\t// in\ntag_141:\n    /* \"#utility.yul\":2792:3223   */\n  pop\n  pop\n    /* \"#utility.yul\":2777:3223   */\ntag_137:\n    /* \"#utility.yul\":2687:3230   */\n  pop\n  pop\n  pop\n  jump\t// out\n    /* \"#utility.yul\":3236:3353   */\ntag_81:\n    /* \"#utility.yul\":3290:3298   */\n  0x00\n    /* \"#utility.yul\":3340:3345   */\n  dup3\n    /* \"#utility.yul\":3334:3338   */\n  dup3\n    /* \"#utility.yul\":3330:3346   */\n  shr\n    /* \"#utility.yul\":3309:3346   */\n  swap1\n  pop\n    /* \"#utility.yul\":3236:3353   */\n  swap3\n  swap2\n  pop\n  pop\n  jump\t// out\n    /* \"#utility.yul\":3359:3528   */\ntag_82:\n    /* \"#utility.yul\":3403:3409   */\n  0x00\n    /* \"#utility.yul\":3436:3487   */\n  tag_145\n    /* \"#utility.yul\":3484:3485   */\n  0x00\n    /* \"#utility.yul\":3480:3486   */\n  not\n    /* \"#utility.yul\":3472:3477   */\n  dup5\n    /* \"#utility.yul\":3469:3470   */\n  0x08\n    /* \"#utility.yul\":3465:3478   */\n  mul\n    /* \"#utility.yul\":3436:3487   */\n  tag_81\n  jump\t// in\ntag_145:\n    /* \"#utility.yul\":3432:3488   */\n  not\n    /* \"#utility.yul\":3517:3521   */\n  dup1\n    /* \"#utility.yul\":3511:3515   */\n  dup4\n    /* \"#utility.yul\":3507:3522   */\n  and\n    /* \"#utility.yul\":3497:3522   */\n  swap2\n  pop\n    /* \"#utility.yul\":3410:3528   */\n  pop\n    /* \"#utility.yul\":3359:3528   */\n  swap3\n  swap2\n  pop\n  pop\n  jump\t// out\n    /* \"#utility.yul\":3533:3828   */\ntag_83:\n    /* \"#utility.yul\":3609:3613   */\n  0x00\n    /* \"#utility.yul\":3755:3784   */\n  tag_147\n    /* \"#utility.yul\":3780:3783   */\n  dup4\n    /* \"#utility.yul\":3774:3778   */\n  dup4\n    /* \"#utility.yul\":3755:3784   */\n  tag_82\n  jump\t// in\ntag_147:\n    /* \"#utility.yul\":3747:3784   */\n  swap2\n  pop\n    /* \"#utility.yul\":3817:3820   */\n  dup3\n    /* \"#utility.yul\":3814:3815   */\n  0x02\n    /* \"#utility.yul\":3810:3821   */\n  mul\n    /* \"#utility.yul\":3804:3808   */\n  dup3\n    /* \"#utility.yul\":3801:3822   */\n  or\n    /* \"#utility.yul\":3793:3822   */\n  swap1\n  pop\n    /* \"#utility.yul\":3533:3828   */\n  swap3\n  swap2\n  pop\n  pop\n  jump\t// out\n    /* \"#utility.yul\":3833:5228   */\ntag_8:\n    /* \"#utility.yul\":3950:3987   */\n  tag_149\n    /* \"#utility.yul\":3983:3986   */\n  dup3\n    /* \"#utility.yul\":3950:3987   */\n  tag_64\n  jump\t// in\ntag_149:\n    /* \"#utility.yul\":4052:4070   */\n  0xffffffffffffffff\n    /* \"#utility.yul\":4044:4050   */\n  dup2\n    /* \"#utility.yul\":4041:4071   */\n  gt\n    /* \"#utility.yul\":4038:4094   */\n  iszero\n  tag_150\n  jumpi\n    /* \"#utility.yul\":4074:4092   */\n  tag_151\n  tag_65\n  jump\t// in\ntag_151:\n    /* \"#utility.yul\":4038:4094   */\ntag_150:\n    /* \"#utility.yul\":4118:4156   */\n  tag_152\n    /* \"#utility.yul\":4150:4154   */\n  dup3\n    /* \"#utility.yul\":4144:4155   */\n  sload\n    /* \"#utility.yul\":4118:4156   */\n  tag_67\n  jump\t// in\ntag_152:\n    /* \"#utility.yul\":4203:4270   */\n  tag_153\n    /* \"#utility.yul\":4263:4269   */\n  dup3\n    /* \"#utility.yul\":4255:4261   */\n  dup3\n    /* \"#utility.yul\":4249:4253   */\n  dup6\n    /* \"#utility.yul\":4203:4270   */\n  tag_80\n  jump\t// in\ntag_153:\n    /* \"#utility.yul\":4297:4298   */\n  0x00\n    /* \"#utility.yul\":4321:4325   */\n  0x20\n    /* \"#utility.yul\":4308:4325   */\n  swap1\n  pop\n    /* \"#utility.yul\":4353:4355   */\n  0x1f\n    /* \"#utility.yul\":4345:4351   */\n  dup4\n    /* \"#utility.yul\":4342:4356   */\n  gt\n    /* \"#utility.yul\":4370:4371   */\n  0x01\n    /* \"#utility.yul\":4365:4983   */\n  dup2\n  eq\n  tag_155\n  jumpi\n    /* \"#utility.yul\":5027:5028   */\n  0x00\n    /* \"#utility.yul\":5044:5050   */\n  dup5\n    /* \"#utility.yul\":5041:5118   */\n  iszero\n  tag_156\n  jumpi\n    /* \"#utility.yul\":5093:5102   */\n  dup3\n    /* \"#utility.yul\":5088:5091   */\n  dup8\n    /* \"#utility.yul\":5084:5103   */\n  add\n    /* \"#utility.yul\":5078:5104   */\n  mload\n    /* \"#utility.yul\":5069:5104   */\n  swap1\n  pop\n    /* \"#utility.yul\":5041:5118   */\ntag_156:\n    /* \"#utility.yul\":5144:5211   */\n  tag_157\n    /* \"#utility.yul\":5204:5210   */\n  dup6\n    /* \"#utility.yul\":5197:5202   */\n  dup3\n    /* \"#utility.yul\":5144:5211   */\n  tag_83\n  jump\t// in\ntag_157:\n    /* \"#utility.yul\":5138:5142   */\n  dup7\n    /* \"#utility.yul\":5131:5212   */\n  sstore\n    /* \"#utility.yul\":5000:5222   */\n  pop\n    /* \"#utility.yul\":4335:5222   */\n  jump(tag_154)\n    /* \"#utility.yul\":4365:4983   */\ntag_155:\n    /* \"#utility.yul\":4417:4421   */\n  0x1f\n    /* \"#utility.yul\":4413:4422   */\n  not\n    /* \"#utility.yul\":4405:4411   */\n  dup5\n    /* \"#utility.yul\":4401:4423   */\n  and\n    /* \"#utility.yul\":4451:4488   */\n  tag_158\n    /* \"#utility.yul\":4483:4487   */\n  dup7\n    /* \"#utility.yul\":4451:4488   */\n  tag_68\n  jump\t// in\ntag_158:\n    /* \"#utility.yul\":4510:4511   */\n  0x00\n    /* \"#utility.yul\":4524:4732   */\ntag_159:\n    /* \"#utility.yul\":4538:4545   */\n  dup3\n    /* \"#utility.yul\":4535:4536   */\n  dup2\n    /* \"#utility.yul\":4532:4546   */\n  lt\n    /* \"#utility.yul\":4524:4732   */\n  iszero\n  tag_161\n  jumpi\n    /* \"#utility.yul\":4617:4626   */\n  dup5\n    /* \"#utility.yul\":4612:4615   */\n  dup10\n    /* \"#utility.yul\":4608:4627   */\n  add\n    /* \"#utility.yul\":4602:4628   */\n  mload\n    /* \"#utility.yul\":4594:4600   */\n  dup3\n    /* \"#utility.yul\":4587:4629   */\n  sstore\n    /* \"#utility.yul\":4668:4669   */\n  0x01\n    /* \"#utility.yul\":4660:4666   */\n  dup3\n    /* \"#utility.yul\":4656:4670   */\n  add\n    /* \"#utility.yul\":4646:4670   */\n  swap2\n  pop\n    /* \"#utility.yul\":4715:4717   */\n  0x20\n    /* \"#utility.yul\":4704:4713   */\n  dup6\n    /* \"#utility.yul\":4700:4718   */\n  add\n    /* \"#utility.yul\":4687:4718   */\n  swap5\n  pop\n    /* \"#utility.yul\":4561:4565   */\n  0x20\n    /* \"#utility.yul\":4558:4559   */\n  dup2\n    /* \"#utility.yul\":4554:4566   */\n  add\n    /* \"#utility.yul\":4549:4566   */\n  swap1\n  pop\n    /* \"#utility.yul\":4524:4732   */\n  jump(tag_159)\ntag_161:\n    /* \"#utility.yul\":4760:4766   */\n  dup7\n    /* \"#utility.yul\":4751:4758   */\n  dup4\n    /* \"#utility.yul\":4748:4767   */\n  lt\n    /* \"#utility.yul\":4745:4924   */\n  iszero\n  tag_162\n  jumpi\n    /* \"#utility.yul\":4818:4827   */\n  dup5\n    /* \"#utility.yul\":4813:4816   */\n  dup10\n    /* \"#utility.yul\":4809:4828   */\n  add\n    /* \"#utility.yul\":4803:4829   */\n  mload\n    /* \"#utility.yul\":4861:4909   */\n  tag_163\n    /* \"#utility.yul\":4903:4907   */\n  0x1f\n    /* \"#utility.yul\":4895:4901   */\n  dup10\n    /* \"#utility.yul\":4891:4908   */\n  and\n    /* \"#utility.yul\":4880:4889   */\n  dup3\n    /* \"#utility.yul\":4861:4909   */\n  tag_82\n  jump\t// in\ntag_163:\n    /* \"#utility.yul\":4853:4859   */\n  dup4\n    /* \"#utility.yul\":4846:4910   */\n  sstore\n    /* \"#utility.yul\":4768:4924   */\n  pop\n    /* \"#utility.yul\":4745:4924   */\ntag_162:\n    /* \"#utility.yul\":4970:4971   */\n  0x01\n    /* \"#utility.yul\":4966:4967   */\n  0x02\n    /* \"#utility.yul\":4958:4964   */\n  dup9\n    /* \"#utility.yul\":4954:4968   */\n  mul\n    /* \"#utility.yul\":4950:4972   */\n  add\n    /* \"#utility.yul\":4944:4948   */\n  dup9\n    /* \"#utility.yul\":4937:4973   */\n  sstore\n    /* \"#utility.yul\":4372:4983   */\n  pop\n  pop\n  pop\n    /* \"#utility.yul\":4335:5222   */\ntag_154:\n  pop\n    /* \"#utility.yul\":3925:5228   */\n  pop\n  pop\n  pop\n    /* \"#utility.yul\":3833:5228   */\n  pop\n  pop\n  jump\t// out\n    /* \"#utility.yul\":5234:5414   */\ntag_84:\n    /* \"#utility.yul\":5282:5359   */\n  0x4e487b7100000000000000000000000000000000000000000000000000000000\n    /* \"#utility.yul\":5279:5280   */\n  0x00\n    /* \"#utility.yul\":5272:5360   */\n  mstore\n    /* \"#utility.yul\":5379:5383   */\n  0x11\n    /* \"#utility.yul\":5376:5377   */\n  0x04\n    /* \"#utility.yul\":5369:5384   */\n  mstore\n    /* \"#utility.yul\":5403:5407   */\n  0x24\n    /* \"#utility.yul\":5400:5401   */\n  0x00\n    /* \"#utility.yul\":5393:5408   */\n  revert\n    /* \"#utility.yul\":5420:5522   */\ntag_85:\n    /* \"#utility.yul\":5462:5470   */\n  0x00\n    /* \"#utility.yul\":5509:5514   */\n  dup2\n    /* \"#utility.yul\":5506:5507   */\n  0x01\n    /* \"#utility.yul\":5502:5515   */\n  shr\n    /* \"#utility.yul\":5481:5515   */\n  swap1\n  pop\n    /* \"#utility.yul\":5420:5522   */\n  swap2\n  swap1\n  pop\n  jump\t// out\n    /* \"#utility.yul\":5528:6376   */\ntag_86:\n    /* \"#utility.yul\":5589:5594   */\n  0x00\n    /* \"#utility.yul\":5596:5600   */\n  dup1\n    /* \"#utility.yul\":5620:5626   */\n  dup3\n    /* \"#utility.yul\":5611:5626   */\n  swap2\n  pop\n    /* \"#utility.yul\":5644:5649   */\n  dup4\n    /* \"#utility.yul\":5635:5649   */\n  swap1\n  pop\n    /* \"#utility.yul\":5658:6370   */\ntag_167:\n    /* \"#utility.yul\":5679:5680   */\n  0x01\n    /* \"#utility.yul\":5669:5677   */\n  dup6\n    /* \"#utility.yul\":5666:5681   */\n  gt\n    /* \"#utility.yul\":5658:6370   */\n  iszero\n  tag_169\n  jumpi\n    /* \"#utility.yul\":5774:5778   */\n  dup1\n    /* \"#utility.yul\":5769:5772   */\n  dup7\n    /* \"#utility.yul\":5765:5779   */\n  div\n    /* \"#utility.yul\":5759:5763   */\n  dup2\n    /* \"#utility.yul\":5756:5780   */\n  gt\n    /* \"#utility.yul\":5753:5803   */\n  iszero\n  tag_170\n  jumpi\n    /* \"#utility.yul\":5783:5801   */\n  tag_171\n  tag_84\n  jump\t// in\ntag_171:\n    /* \"#utility.yul\":5753:5803   */\ntag_170:\n    /* \"#utility.yul\":5833:5834   */\n  0x01\n    /* \"#utility.yul\":5823:5831   */\n  dup6\n    /* \"#utility.yul\":5819:5835   */\n  and\n    /* \"#utility.yul\":5816:6267   */\n  iszero\n  tag_172\n  jumpi\n    /* \"#utility.yul\":6248:6252   */\n  dup1\n    /* \"#utility.yul\":6241:6246   */\n  dup3\n    /* \"#utility.yul\":6237:6253   */\n  mul\n    /* \"#utility.yul\":6228:6253   */\n  swap2\n  pop\n    /* \"#utility.yul\":5816:6267   */\ntag_172:\n    /* \"#utility.yul\":6298:6302   */\n  dup1\n    /* \"#utility.yul\":6292:6296   */\n  dup2\n    /* \"#utility.yul\":6288:6303   */\n  mul\n    /* \"#utility.yul\":6280:6303   */\n  swap1\n  pop\n    /* \"#utility.yul\":6328:6360   */\n  tag_173\n    /* \"#utility.yul\":6351:6359   */\n  dup6\n    /* \"#utility.yul\":6328:6360   */\n  tag_85\n  jump\t// in\ntag_173:\n    /* \"#utility.yul\":6316:6360   */\n  swap5\n  pop\n    /* \"#utility.yul\":5658:6370   */\n  jump(tag_167)\ntag_169:\n    /* \"#utility.yul\":5528:6376   */\n  swap5\n  pop\n  swap5\n  swap3\n  pop\n  pop\n  pop\n  jump\t// out\n    /* \"#utility.yul\":6382:7455   */\ntag_87:\n    /* \"#utility.yul\":6436:6441   */\n  0x00\n    /* \"#utility.yul\":6627:6635   */\n  dup3\n    /* \"#utility.yul\":6617:6657   */\n  tag_175\n  jumpi\n    /* \"#utility.yul\":6648:6649   */\n  0x01\n    /* \"#utility.yul\":6639:6649   */\n  swap1\n  pop\n    /* \"#utility.yul\":6650:6655   */\n  jump(tag_174)\n    /* \"#utility.yul\":6617:6657   */\ntag_175:\n    /* \"#utility.yul\":6676:6680   */\n  dup2\n    /* \"#utility.yul\":6666:6702   */\n  tag_176\n  jumpi\n    /* \"#utility.yul\":6693:6694   */\n  0x00\n    /* \"#utility.yul\":6684:6694   */\n  swap1\n  pop\n    /* \"#utility.yul\":6695:6700   */\n  jump(tag_174)\n    /* \"#utility.yul\":6666:6702   */\ntag_176:\n    /* \"#utility.yul\":6762:6766   */\n  dup2\n    /* \"#utility.yul\":6810:6811   */\n  0x01\n    /* \"#utility.yul\":6805:6832   */\n  dup2\n  eq\n  tag_178\n  jumpi\n    /* \"#utility.yul\":6846:6847   */\n  0x02\n    /* \"#utility.yul\":6841:7032   */\n  dup2\n  eq\n  tag_179\n  jumpi\n    /* \"#utility.yul\":6755:7032   */\n  jump(tag_177)\n    /* \"#utility.yul\":6805:6832   */\ntag_178:\n    /* \"#utility.yul\":6823:6824   */\n  0x01\n    /* \"#utility.yul\":6814:6824   */\n  swap2\n  pop\n    /* \"#utility.yul\":6825:6830   */\n  pop\n  jump(tag_174)\n    /* \"#utility.yul\":6841:7032   */\ntag_179:\n    /* \"#utility.yul\":6886:6889   */\n  0xff\n    /* \"#utility.yul\":6876:6884   */\n  dup5\n    /* \"#utility.yul\":6873:6890   */\n  gt\n    /* \"#utility.yul\":6870:6913   */\n  iszero\n  tag_180\n  jumpi\n    /* \"#utility.yul\":6893:6911   */\n  tag_181\n  tag_84\n  jump\t// in\ntag_181:\n    /* \"#utility.yul\":6870:6913   */\ntag_180:\n    /* \"#utility.yul\":6942:6950   */\n  dup4\n    /* \"#utility.yul\":6939:6940   */\n  0x02\n    /* \"#utility.yul\":6935:6951   */\n  exp\n    /* \"#utility.yul\":6926:6951   */\n  swap2\n  pop\n    /* \"#utility.yul\":6977:6980   */\n  dup5\n    /* \"#utility.yul\":6970:6975   */\n  dup3\n    /* \"#utility.yul\":6967:6981   */\n  gt\n    /* \"#utility.yul\":6964:7004   */\n  iszero\n  tag_182\n  jumpi\n    /* \"#utility.yul\":6984:7002   */\n  tag_183\n  tag_84\n  jump\t// in\ntag_183:\n    /* \"#utility.yul\":6964:7004   */\ntag_182:\n    /* \"#utility.yul\":7017:7022   */\n  pop\n  jump(tag_174)\n    /* \"#utility.yul\":6755:7032   */\ntag_177:\n  pop\n    /* \"#utility.yul\":7141:7143   */\n  0x20\n    /* \"#utility.yul\":7131:7139   */\n  dup4\n    /* \"#utility.yul\":7128:7144   */\n  lt\n    /* \"#utility.yul\":7122:7125   */\n  0x0133\n    /* \"#utility.yul\":7116:7120   */\n  dup4\n    /* \"#utility.yul\":7113:7126   */\n  lt\n    /* \"#utility.yul\":7109:7145   */\n  and\n    /* \"#utility.yul\":7091:7093   */\n  0x4e\n    /* \"#utility.yul\":7081:7089   */\n  dup5\n    /* \"#utility.yul\":7078:7094   */\n  lt\n    /* \"#utility.yul\":7073:7075   */\n  0x0b\n    /* \"#utility.yul\":7067:7071   */\n  dup5\n    /* \"#utility.yul\":7064:7076   */\n  lt\n    /* \"#utility.yul\":7060:7095   */\n  and\n    /* \"#utility.yul\":7044:7155   */\n  or\n    /* \"#utility.yul\":7041:7287   */\n  iszero\n  tag_184\n  jumpi\n    /* \"#utility.yul\":7197:7205   */\n  dup3\n    /* \"#utility.yul\":7191:7195   */\n  dup3\n    /* \"#utility.yul\":7187:7206   */\n  exp\n    /* \"#utility.yul\":7178:7206   */\n  swap1\n  pop\n    /* \"#utility.yul\":7232:7235   */\n  dup4\n    /* \"#utility.yul\":7225:7230   */\n  dup2\n    /* \"#utility.yul\":7222:7236   */\n  gt\n    /* \"#utility.yul\":7219:7259   */\n  iszero\n  tag_185\n  jumpi\n    /* \"#utility.yul\":7239:7257   */\n  tag_186\n  tag_84\n  jump\t// in\ntag_186:\n    /* \"#utility.yul\":7219:7259   */\ntag_185:\n    /* \"#utility.yul\":7272:7277   */\n  jump(tag_174)\n    /* \"#utility.yul\":7041:7287   */\ntag_184:\n    /* \"#utility.yul\":7312:7354   */\n  tag_187\n    /* \"#utility.yul\":7350:7353   */\n  dup5\n    /* \"#utility.yul\":7340:7348   */\n  dup5\n    /* \"#utility.yul\":7334:7338   */\n  dup5\n    /* \"#utility.yul\":7331:7332   */\n  0x01\n    /* \"#utility.yul\":7312:7354   */\n  tag_86\n  jump\t// in\ntag_187:\n    /* \"#utility.yul\":7297:7354   */\n  swap3\n  pop\n  swap1\n  pop\n    /* \"#utility.yul\":7386:7390   */\n  dup2\n    /* \"#utility.yul\":7381:7384   */\n  dup5\n    /* \"#utility.yul\":7377:7391   */\n  div\n    /* \"#utility.yul\":7370:7375   */\n  dup2\n    /* \"#utility.yul\":7367:7392   */\n  gt\n    /* \"#utility.yul\":7364:7415   */\n  iszero\n  tag_188\n  jumpi\n    /* \"#utility.yul\":7395:7413   */\n  tag_189\n  tag_84\n  jump\t// in\ntag_189:\n    /* \"#utility.yul\":7364:7415   */\ntag_188:\n    /* \"#utility.yul\":7444:7448   */\n  dup2\n    /* \"#utility.yul\":7437:7442   */\n  dup2\n    /* \"#utility.yul\":7433:7449   */\n  mul\n    /* \"#utility.yul\":7424:7449   */\n  swap1\n  pop\n    /* \"#utility.yul\":6382:7455   */\ntag_174:\n  swap4\n  swap3\n  pop\n  pop\n  pop\n  jump\t// out\n    /* \"#utility.yul\":7461:7547   */\ntag_88:\n    /* \"#utility.yul\":7496:7503   */\n  0x00\n    /* \"#utility.yul\":7536:7540   */\n  0xff\n    /* \"#utility.yul\":7529:7534   */\n  dup3\n    /* \"#utility.yul\":7525:7541   */\n  and\n    /* \"#utility.yul\":7514:7541   */\n  swap1\n  pop\n    /* \"#utility.yul\":7461:7547   */\n  swap2\n  swap1\n  pop\n  jump\t// out\n    /* \"#utility.yul\":7553:7834   */\ntag_22:\n    /* \"#utility.yul\":7611:7616   */\n  0x00\n    /* \"#utility.yul\":7635:7658   */\n  tag_192\n    /* \"#utility.yul\":7653:7657   */\n  dup3\n    /* \"#utility.yul\":7635:7658   */\n  tag_72\n  jump\t// in\ntag_192:\n    /* \"#utility.yul\":7627:7658   */\n  swap2\n  pop\n    /* \"#utility.yul\":7679:7704   */\n  tag_193\n    /* \"#utility.yul\":7695:7703   */\n  dup4\n    /* \"#utility.yul\":7679:7704   */\n  tag_88\n  jump\t// in\ntag_193:\n    /* \"#utility.yul\":7667:7704   */\n  swap3\n  pop\n    /* \"#utility.yul\":7723:7827   */\n  tag_194\n    /* \"#utility.yul\":7760:7826   */\n  0xffffffffffffffffffffffffffffffffffffffffffffffffffffffffffffffff\n    /* \"#utility.yul\":7750:7758   */\n  dup5\n    /* \"#utility.yul\":7744:7748   */\n  dup5\n    /* \"#utility.yul\":7723:7827   */\n  tag_87\n  jump\t// in\ntag_194:\n    /* \"#utility.yul\":7714:7827   */\n  swap1\n  pop\n    /* \"#utility.yul\":7553:7834   */\n  swap3\n  swap2\n  pop\n  pop\n  jump\t// out\n    /* \"#utility.yul\":7840:8250   */\ntag_24:\n    /* \"#utility.yul\":7880:7887   */\n  0x00\n    /* \"#utility.yul\":7903:7923   */\n  tag_196\n    /* \"#utility.yul\":7921:7922   */\n  dup3\n    /* \"#utility.yul\":7903:7923   */\n  tag_72\n  jump\t// in\ntag_196:\n    /* \"#utility.yul\":7898:7923   */\n  swap2\n  pop\n    /* \"#utility.yul\":7937:7957   */\n  tag_197\n    /* \"#utility.yul\":7955:7956   */\n  dup4\n    /* \"#utility.yul\":7937:7957   */\n  tag_72\n  jump\t// in\ntag_197:\n    /* \"#utility.yul\":7932:7957   */\n  swap3\n  pop\n    /* \"#utility.yul\":7992:7993   */\n  dup3\n    /* \"#utility.yul\":7989:7990   */\n  dup3\n    /* \"#utility.yul\":7985:7994   */\n  mul\n    /* \"#utility.yul\":8014:8044   */\n  tag_198\n    /* \"#utility.yul\":8032:8043   */\n  dup2\n    /* \"#utility.yul\":8014:8044   */\n  tag_72\n  jump\t// in\ntag_198:\n    /* \"#utility.yul\":8003:8044   */\n  swap2\n  pop\n    /* \"#utility.yul\":8193:8194   */\n  dup3\n    /* \"#utility.yul\":8184:8191   */\n  dup3\n    /* \"#utility.yul\":8180:8195   */\n  div\n    /* \"#utility.yul\":8177:8178   */\n  dup5\n    /* \"#utility.yul\":8174:8196   */\n  eq\n    /* \"#utility.yul\":8154:8155   */\n  dup4\n    /* \"#utility.yul\":8147:8156   */\n  iszero\n    /* \"#utility.yul\":8127:8210   */\n  or\n    /* \"#utility.yul\":8104:8243   */\n  tag_199\n  jumpi\n    /* \"#utility.yul\":8223:8241   */\n  tag_200\n  tag_84\n  jump\t// in\ntag_200:\n    /* \"#utility.yul\":8104:8243   */\ntag_199:\n    /* \"#utility.yul\":7888:8250   */\n  pop\n    /* \"#utility.yul\":7840:8250   */\n  swap3\n  swap2\n  pop\n  pop\n  jump\t// out\n    /* \"#utility.yul\":8256:8333   */\ntag_89:\n    /* \"#utility.yul\":8293:8300   */\n  0x00\n    /* \"#utility.yul\":8322:8327   */\n  dup2\n    /* \"#utility.yul\":8311:8327   */\n  swap1\n  pop\n    /* \"#utility.yul\":8256:8333   */\n  swap2\n  swap1\n  pop\n  jump\t// out\n    /* \"#utility.yul\":8339:8457   */\ntag_90:\n    /* \"#utility.yul\":8426:8450   */\n  tag_203\n    /* \"#utility.yul\":8444:8449   */\n  dup2\n    /* \"#utility.yul\":8426:8450   */\n  tag_89\n  jump\t// in\ntag_203:\n    /* \"#utility.yul\":8421:8424   */\n  dup3\n    /* \"#utility.yul\":8414:8451   */\n  mstore\n    /* \"#utility.yul\":8339:8457   */\n  pop\n  pop\n  jump\t// out\n    /* \"#utility.yul\":8463:8581   */\ntag_91:\n    /* \"#utility.yul\":8550:8574   */\n  tag_205\n    /* \"#utility.yul\":8568:8573   */\n  dup2\n    /* \"#utility.yul\":8550:8574   */\n  tag_72\n  jump\t// in\ntag_205:\n    /* \"#utility.yul\":8545:8548   */\n  dup3\n    /* \"#utility.yul\":8538:8575   */\n  mstore\n    /* \"#utility.yul\":8463:8581   */\n  pop\n  pop\n  jump\t// out\n    /* \"#utility.yul\":8587:8713   */\ntag_92:\n    /* \"#utility.yul\":8624:8631   */\n  0x00\n    /* \"#utility.yul\":8664:8706   */\n  0xffffffffffffffffffffffffffffffffffffffff\n    /* \"#utility.yul\":8657:8662   */\n  dup3\n    /* \"#utility.yul\":8653:8707   */\n  and\n    /* \"#utility.yul\":8642:8707   */\n  swap1\n  pop\n    /* \"#utility.yul\":8587:8713   */\n  swap2\n  swap1\n  pop\n  jump\t// out\n    /* \"#utility.yul\":8719:8815   */\ntag_93:\n    /* \"#utility.yul\":8756:8763   */\n  0x00\n    /* \"#utility.yul\":8785:8809   */\n  tag_208\n    /* \"#utility.yul\":8803:8808   */\n  dup3\n    /* \"#utility.yul\":8785:8809   */\n  tag_92\n  jump\t// in\ntag_208:\n    /* \"#utility.yul\":8774:8809   */\n  swap1\n  pop\n    /* \"#utility.yul\":8719:8815   */\n  swap2\n  swap1\n  pop\n  jump\t// out\n    /* \"#utility.yul\":8821:8939   */\ntag_94:\n    /* \"#utility.yul\":8908:8932   */\n  tag_210\n    /* \"#utility.yul\":8926:8931   */\n  dup2\n    /* \"#utility.yul\":8908:8932   */\n  tag_93\n  jump\t// in\ntag_210:\n    /* \"#utility.yul\":8903:8906   */\n  dup3\n    /* \"#utility.yul\":8896:8933   */\n  mstore\n    /* \"#utility.yul\":8821:8939   */\n  pop\n  pop\n  jump\t// out\n    /* \"#utility.yul\":8945:9609   */\ntag_37:\n    /* \"#utility.yul\":9150:9154   */\n  0x00\n    /* \"#utility.yul\":9188:9191   */\n  0xa0\n    /* \"#utility.yul\":9177:9186   */\n  dup3\n    /* \"#utility.yul\":9173:9192   */\n  add\n    /* \"#utility.yul\":9165:9192   */\n  swap1\n  pop\n    /* \"#utility.yul\":9202:9273   */\n  tag_212\n    /* \"#utility.yul\":9270:9271   */\n  0x00\n    /* \"#utility.yul\":9259:9268   */\n  dup4\n    /* \"#utility.yul\":9255:9272   */\n  add\n    /* \"#utility.yul\":9246:9252   */\n  dup9\n    /* \"#utility.yul\":9202:9273   */\n  tag_90\n  jump\t// in\ntag_212:\n    /* \"#utility.yul\":9283:9355   */\n  tag_213\n    /* \"#utility.yul\":9351:9353   */\n  0x20\n    /* \"#utility.yul\":9340:9349   */\n  dup4\n    /* \"#utility.yul\":9336:9354   */\n  add\n    /* \"#utility.yul\":9327:9333   */\n  dup8\n    /* \"#utility.yul\":9283:9355   */\n  tag_90\n  jump\t// in\ntag_213:\n    /* \"#utility.yul\":9365:9437   */\n  tag_214\n    /* \"#utility.yul\":9433:9435   */\n  0x40\n    /* \"#utility.yul\":9422:9431   */\n  dup4\n    /* \"#utility.yul\":9418:9436   */\n  add\n    /* \"#utility.yul\":9409:9415   */\n  dup7\n    /* \"#utility.yul\":9365:9437   */\n  tag_90\n  jump\t// in\ntag_214:\n    /* \"#utility.yul\":9447:9519   */\n  tag_215\n    /* \"#utility.yul\":9515:9517   */\n  0x60\n    /* \"#utility.yul\":9504:9513   */\n  dup4\n    /* \"#utility.yul\":9500:9518   */\n  add\n    /* \"#utility.yul\":9491:9497   */\n  dup6\n    /* \"#utility.yul\":9447:9519   */\n  tag_91\n  jump\t// in\ntag_215:\n    /* \"#utility.yul\":9529:9602   */\n  tag_216\n    /* \"#utility.yul\":9597:9600   */\n  0x80\n    /* \"#utility.yul\":9586:9595   */\n  dup4\n    /* \"#utility.yul\":9582:9601   */\n  add\n    /* \"#utility.yul\":9573:9579   */\n  dup5\n    /* \"#utility.yul\":9529:9602   */\n  tag_94\n  jump\t// in\ntag_216:\n    /* \"#utility.yul\":8945:9609   */\n  swap7\n  swap6\n  pop\n  pop\n  pop\n  pop\n  pop\n  pop\n  jump\t// out\n    /* \"#utility.yul\":9615:9837   */\ntag_42:\n    /* \"#utility.yul\":9708:9712   */\n  0x00\n    /* \"#utility.yul\":9746:9748   */\n  0x20\n    /* \"#utility.yul\":9735:9744   */\n  dup3\n    /* \"#utility.yul\":9731:9749   */\n  add\n    /* \"#utility.yul\":9723:9749   */\n  swap1\n  pop\n    /* \"#utility.yul\":9759:9830   */\n  tag_218\n    /* \"#utility.yul\":9827:9828   */\n  0x00\n    /* \"#utility.yul\":9816:9825   */\n  dup4\n    /* \"#utility.yul\":9812:9829   */\n  add\n    /* \"#utility.yul\":9803:9809   */\n  dup5\n    /* \"#utility.yul\":9759:9830   */\n  tag_94\n  jump\t// in\ntag_218:\n    /* \"#utility.yul\":9615:9837   */\n  swap3\n  swap2\n  pop\n  pop\n  jump\t// out\n    /* \"#utility.yul\":9843:10012   */\ntag_95:\n    /* \"#utility.yul\":9927:9938   */\n  0x00\n    /* \"#utility.yul\":9961:9967   */\n  dup3\n    /* \"#utility.yul\":9956:9959   */\n  dup3\n    /* \"#utility.yul\":9949:9968   */\n  mstore\n    /* \"#utility.yul\":10001:10005   */\n  0x20\n    /* \"#utility.yul\":9996:9999   */\n  dup3\n    /* \"#utility.yul\":9992:10006   */\n  add\n    /* \"#utility.yul\":9977:10006   */\n  swap1\n  pop\n    /* \"#utility.yul\":9843:10012   */\n  swap3\n  swap2\n  pop\n  pop\n  jump\t// out\n    /* \"#utility.yul\":10018:10264   */\ntag_96:\n    /* \"#utility.yul\":10099:10100   */\n  0x00\n    /* \"#utility.yul\":10109:10222   */\ntag_221:\n    /* \"#utility.yul\":10123:10129   */\n  dup4\n    /* \"#utility.yul\":10120:10121   */\n  dup2\n    /* \"#utility.yul\":10117:10130   */\n  lt\n    /* \"#utility.yul\":10109:10222   */\n  iszero\n  tag_223\n  jumpi\n    /* \"#utility.yul\":10208:10209   */\n  dup1\n    /* \"#utility.yul\":10203:10206   */\n  dup3\n    /* \"#utility.yul\":10199:10210   */\n  add\n    /* \"#utility.yul\":10193:10211   */\n  mload\n    /* \"#utility.yul\":10189:10190   */\n  dup2\n    /* \"#utility.yul\":10184:10187   */\n  dup5\n    /* \"#utility.yul\":10180:10191   */\n  add\n    /* \"#utility.yul\":10173:10212   */\n  mstore\n    /* \"#utility.yul\":10145:10147   */\n  0x20\n    /* \"#utility.yul\":10142:10143   */\n  dup2\n    /* \"#utility.yul\":10138:10148   */\n  add\n    /* \"#utility.yul\":10133:10148   */\n  swap1\n  pop\n    /* \"#utility.yul\":10109:10222   */\n  jump(tag_221)\ntag_223:\n    /* \"#utility.yul\":10256:10257   */\n  0x00\n    /* \"#utility.yul\":10247:10253   */\n  dup5\n    /* \"#utility.yul\":10242:10245   */\n  dup5\n    /* \"#utility.yul\":10238:10254   */\n  add\n    /* \"#utility.yul\":10231:10258   */\n  mstore\n    /* \"#utility.yul\":10080:10264   */\n  pop\n    /* \"#utility.yul\":10018:10264   */\n  pop\n  pop\n  pop\n  jump\t// out\n    /* \"#utility.yul\":10270:10372   */\ntag_97:\n    /* \"#utility.yul\":10311:10317   */\n  0x00\n    /* \"#utility.yul\":10362:10364   */\n  0x1f\n    /* \"#utility.yul\":10358:10365   */\n  not\n    /* \"#utility.yul\":10353:10355   */\n  0x1f\n    /* \"#utility.yul\":10346:10351   */\n  dup4\n    /* \"#utility.yul\":10342:10356   */\n  add\n    /* \"#utility.yul\":10338:10366   */\n  and\n    /* \"#utility.yul\":10328:10366   */\n  swap1\n  pop\n    /* \"#utility.yul\":10270:10372   */\n  swap2\n  swap1\n  pop\n  jump\t// out\n    /* \"#utility.yul\":10378:10755   */\ntag_98:\n    /* \"#utility.yul\":10466:10469   */\n  0x00\n    /* \"#utility.yul\":10494:10533   */\n  tag_226\n    /* \"#utility.yul\":10527:10532   */\n  dup3\n    /* \"#utility.yul\":10494:10533   */\n  tag_64\n  jump\t// in\ntag_226:\n    /* \"#utility.yul\":10549:10620   */\n  tag_227\n    /* \"#utility.yul\":10613:10619   */\n  dup2\n    /* \"#utility.yul\":10608:10611   */\n  dup6\n    /* \"#utility.yul\":10549:10620   */\n  tag_95\n  jump\t// in\ntag_227:\n    /* \"#utility.yul\":10542:10620   */\n  swap4\n  pop\n    /* \"#utility.yul\":10629:10694   */\n  tag_228\n    /* \"#utility.yul\":10687:10693   */\n  dup2\n    /* \"#utility.yul\":10682:10685   */\n  dup6\n    /* \"#utility.yul\":10675:10679   */\n  0x20\n    /* \"#utility.yul\":10668:10673   */\n  dup7\n    /* \"#utility.yul\":10664:10680   */\n  add\n    /* \"#utility.yul\":10629:10694   */\n  tag_96\n  jump\t// in\ntag_228:\n    /* \"#utility.yul\":10719:10748   */\n  tag_229\n    /* \"#utility.yul\":10741:10747   */\n  dup2\n    /* \"#utility.yul\":10719:10748   */\n  tag_97\n  jump\t// in\ntag_229:\n    /* \"#utility.yul\":10714:10717   */\n  dup5\n    /* \"#utility.yul\":10710:10749   */\n  add\n    /* \"#utility.yul\":10703:10749   */\n  swap2\n  pop\n    /* \"#utility.yul\":10470:10755   */\n  pop\n    /* \"#utility.yul\":10378:10755   */\n  swap3\n  swap2\n  pop\n  pop\n  jump\t// out\n    /* \"#utility.yul\":10761:11074   */\ntag_48:\n    /* \"#utility.yul\":10874:10878   */\n  0x00\n    /* \"#utility.yul\":10912:10914   */\n  0x20\n    /* \"#utility.yul\":10901:10910   */\n  dup3\n    /* \"#utility.yul\":10897:10915   */\n  add\n    /* \"#utility.yul\":10889:10915   */\n  swap1\n  pop\n    /* \"#utility.yul\":10961:10970   */\n  dup2\n    /* \"#utility.yul\":10955:10959   */\n  dup2\n    /* \"#utility.yul\":10951:10971   */\n  sub\n    /* \"#utility.yul\":10947:10948   */\n  0x00\n    /* \"#utility.yul\":10936:10945   */\n  dup4\n    /* \"#utility.yul\":10932:10949   */\n  add\n    /* \"#utility.yul\":10925:10972   */\n  mstore\n    /* \"#utility.yul\":10989:11067   */\n  tag_231\n    /* \"#utility.yul\":11062:11066   */\n  dup2\n    /* \"#utility.yul\":11053:11059   */\n  dup5\n    /* \"#utility.yul\":10989:11067   */\n  tag_98\n  jump\t// in\ntag_231:\n    /* \"#utility.yul\":10981:11067   */\n  swap1\n  pop\n    /* \"#utility.yul\":10761:11074   */\n  swap3\n  swap2\n  pop\n  pop\n  jump\t// out\n    /* \"#utility.yul\":11080:11178   */\ntag_99:\n    /* \"#utility.yul\":11131:11137   */\n  0x00\n    /* \"#utility.yul\":11165:11170   */\n  dup2\n    /* \"#utility.yul\":11159:11171   */\n  mload\n    /* \"#utility.yul\":11149:11171   */\n  swap1\n  pop\n    /* \"#utility.yul\":11080:11178   */\n  swap2\n  swap1\n  pop\n  jump\t// out\n    /* \"#utility.yul\":11184:11300   */\ntag_100:\n    /* \"#utility.yul\":11235:11239   */\n  0x00\n    /* \"#utility.yul\":11258:11261   */\n  dup2\n    /* \"#utility.yul\":11250:11261   */\n  swap1\n  pop\n    /* \"#utility.yul\":11288:11292   */\n  0x20\n    /* \"#utility.yul\":11283:11286   */\n  dup3\n    /* \"#utility.yul\":11279:11293   */\n  add\n    /* \"#utility.yul\":11271:11293   */\n  swap1\n  pop\n    /* \"#utility.yul\":11184:11300   */\n  swap2\n  swap1\n  pop\n  jump\t// out\n    /* \"#utility.yul\":11306:11460   */\ntag_101:\n    /* \"#utility.yul\":11349:11360   */\n  0x00\n    /* \"#utility.yul\":11385:11414   */\n  tag_235\n    /* \"#utility.yul\":11409:11412   */\n  dup3\n    /* \"#utility.yul\":11403:11413   */\n  mload\n    /* \"#utility.yul\":11385:11414   */\n  tag_89\n  jump\t// in\ntag_235:\n    /* \"#utility.yul\":11448:11453   */\n  dup1\n    /* \"#utility.yul\":11424:11453   */\n  swap2\n  pop\n    /* \"#utility.yul\":11361:11460   */\n  pop\n    /* \"#utility.yul\":11306:11460   */\n  swap2\n  swap1\n  pop\n  jump\t// out\n    /* \"#utility.yul\":11466:12060   */\ntag_50:\n    /* \"#utility.yul\":11550:11555   */\n  0x00\n    /* \"#utility.yul\":11581:11619   */\n  tag_237\n    /* \"#utility.yul\":11613:11618   */\n  dup3\n    /* \"#utility.yul\":11581:11619   */\n  tag_99\n  jump\t// in\ntag_237:\n    /* \"#utility.yul\":11644:11649   */\n  dup3\n    /* \"#utility.yul\":11671:11711   */\n  tag_238\n    /* \"#utility.yul\":11705:11710   */\n  dup5\n    /* \"#utility.yul\":11671:11711   */\n  tag_100\n  jump\t// in\ntag_238:\n    /* \"#utility.yul\":11659:11711   */\n  swap1\n  pop\n    /* \"#utility.yul\":11730:11765   */\n  tag_239\n    /* \"#utility.yul\":11756:11764   */\n  dup2\n    /* \"#utility.yul\":11730:11765   */\n  tag_101\n  jump\t// in\ntag_239:\n    /* \"#utility.yul\":11721:11765   */\n  swap3\n  pop\n    /* \"#utility.yul\":11789:11791   */\n  0x20\n    /* \"#utility.yul\":11781:11787   */\n  dup3\n    /* \"#utility.yul\":11778:11792   */\n  lt\n    /* \"#utility.yul\":11775:12053   */\n  iszero\n  tag_240\n  jumpi\n    /* \"#utility.yul\":11860:12029   */\n  tag_241\n    /* \"#utility.yul\":11945:12011   */\n  0xffffffffffffffffffffffffffffffffffffffffffffffffffffffffffffffff\n    /* \"#utility.yul\":11915:11921   */\n  dup4\n    /* \"#utility.yul\":11911:11913   */\n  0x20\n    /* \"#utility.yul\":11907:11922   */\n  sub\n    /* \"#utility.yul\":11904:11905   */\n  0x08\n    /* \"#utility.yul\":11900:11923   */\n  mul\n    /* \"#utility.yul\":11860:12029   */\n  tag_70\n  jump\t// in\ntag_241:\n    /* \"#utility.yul\":11837:11842   */\n  dup4\n    /* \"#utility.yul\":11816:12043   */\n  and\n    /* \"#utility.yul\":11807:12043   */\n  swap3\n  pop\n    /* \"#utility.yul\":11775:12053   */\ntag_240:\n    /* \"#utility.yul\":11556:12060   */\n  pop\n  pop\n    /* \"#utility.yul\":11466:12060   */\n  swap2\n  swap1\n  pop\n  jump\t// out\n    /* \"#utility.yul\":12066:12257   */\ntag_55:\n    /* \"#utility.yul\":12106:12109   */\n  0x00\n    /* \"#utility.yul\":12125:12145   */\n  tag_243\n    /* \"#utility.yul\":12143:12144   */\n  dup3\n    /* \"#utility.yul\":12125:12145   */\n  tag_72\n  jump\t// in\ntag_243:\n    /* \"#utility.yul\":12120:12145   */\n  swap2\n  pop\n    /* \"#utility.yul\":12159:12179   */\n  tag_244\n    /* \"#utility.yul\":12177:12178   */\n  dup4\n    /* \"#utility.yul\":12159:12179   */\n  tag_72\n  jump\t// in\ntag_244:\n    /* \"#utility.yul\":12154:12179   */\n  swap3\n  pop\n    /* \"#utility.yul\":12202:12203   */\n  dup3\n    /* \"#utility.yul\":12199:12200   */\n  dup3\n    /* \"#utility.yul\":12195:12204   */\n  add\n    /* \"#utility.yul\":12188:12204   */\n  swap1\n  pop\n    /* \"#utility.yul\":12223:12226   */\n  dup1\n    /* \"#utility.yul\":12220:12221   */\n  dup3\n    /* \"#utility.yul\":12217:12227   */\n  gt\n    /* \"#utility.yul\":12214:12250   */\n  iszero\n  tag_245\n  jumpi\n    /* \"#utility.yul\":12230:12248   */\n  tag_246\n  tag_84\n  jump\t// in\ntag_246:\n    /* \"#utility.yul\":12214:12250   */\ntag_245:\n    /* \"#utility.yul\":12066:12257   */\n  swap3\n  swap2\n  pop\n  pop\n  jump\t// out\n    /* \"#utility.yul\":12263:12705   */\ntag_59:\n    /* \"#utility.yul\":12412:12416   */\n  0x00\n    /* \"#utility.yul\":12450:12452   */\n  0x60\n    /* \"#utility.yul\":12439:12448   */\n  dup3\n    /* \"#utility.yul\":12435:12453   */\n  add\n    /* \"#utility.yul\":12427:12453   */\n  swap1\n  pop\n    /* \"#utility.yul\":12463:12534   */\n  tag_248\n    /* \"#utility.yul\":12531:12532   */\n  0x00\n    /* \"#utility.yul\":12520:12529   */\n  dup4\n    /* \"#utility.yul\":12516:12533   */\n  add\n    /* \"#utility.yul\":12507:12513   */\n  dup7\n    /* \"#utility.yul\":12463:12534   */\n  tag_94\n  jump\t// in\ntag_248:\n    /* \"#utility.yul\":12544:12616   */\n  tag_249\n    /* \"#utility.yul\":12612:12614   */\n  0x20\n    /* \"#utility.yul\":12601:12610   */\n  dup4\n    /* \"#utility.yul\":12597:12615   */\n  add\n    /* \"#utility.yul\":12588:12594   */\n  dup6\n    /* \"#utility.yul\":12544:12616   */\n  tag_91\n  jump\t// in\ntag_249:\n    /* \"#utility.yul\":12626:12698   */\n  tag_250\n    /* \"#utility.yul\":12694:12696   */\n  0x40\n    /* \"#utility.yul\":12683:12692   */\n  dup4\n    /* \"#utility.yul\":12679:12697   */\n  add\n    /* \"#utility.yul\":12670:12676   */\n  dup5\n    /* \"#utility.yul\":12626:12698   */\n  tag_91\n  jump\t// in\ntag_250:\n    /* \"#utility.yul\":12263:12705   */\n  swap5\n  swap4\n  pop\n  pop\n  pop\n  pop\n  jump\t// out\n    /* \"#utility.yul\":12711:12933   */\ntag_63:\n    /* \"#utility.yul\":12804:12808   */\n  0x00\n    /* \"#utility.yul\":12842:12844   */\n  0x20\n    /* \"#utility.yul\":12831:12840   */\n  dup3\n    /* \"#utility.yul\":12827:12845   */\n  add\n    /* \"#utility.yul\":12819:12845   */\n  swap1\n  pop\n    /* \"#utility.yul\":12855:12926   */\n  tag_252\n    /* \"#utility.yul\":12923:12924   */\n  0x00\n    /* \"#utility.yul\":12912:12921   */\n  dup4\n    /* \"#utility.yul\":12908:12925   */\n  add\n    /* \"#utility.yul\":12899:12905   */\n  dup5\n    /* \"#utility.yul\":12855:12926   */\n  tag_91\n  jump\t// in\ntag_252:\n    /* \"#utility.yul\":12711:12933   */\n  swap3\n  swap2\n  pop\n  pop\n  jump\t// out\n    /* \"contract-0c61f2e207.sol\":200:389  contract KnowLedgeToken is ERC20, ERC20Permit {... */\ntag_26:\n  mload(0x80)\n  mload(0xa0)\n  mload(0xc0)\n  mload(0xe0)\n  mload(0x0100)\n  mload(0x0120)\n  mload(0x0140)\n  codecopy(0x00, dataOffset(sub_0), dataSize(sub_0))\n  0x00\n  assignImmutable(\"0xe156ff544111f0d61300ce79ff347b01537432ccb5ab72ff35b2177c2ed3fa4b\")\n  0x00\n  assignImmutable(\"0x57650568a02a7887f4f4e1ae3b5071ca25e4fb181c1b7adfd0d312e8c663feb3\")\n  0x00\n  assignImmutable(\"0xf22c5b16043446a68d62f47815793cbbc874be5b2e65e9e313507336d6583f6d\")\n  0x00\n  assignImmutable(\"0x7046b97b103039cb97ea5110f1f4832d5d00e701e21d67c9f93f60c215815d45\")\n  0x00\n  assignImmutable(\"0x45583c716935567ea164771749ab630fc2584e89eead72531f29ea474918321a\")\n  0x00\n  assignImmutable(\"0x2eb9a99718a5ddb41634aa3a127c1821b30a0e7db3d87b6203b71d7595223311\")\n  0x00\n  assignImmutable(\"0xb775854bb325b699ccfc2a72dec93b06810d465e2ba7b7ffc485571437231d1a\")\n  return(0x00, dataSize(sub_0))\nstop\n\nsub_0: assembly {\n        /* \"contract-0c61f2e207.sol\":200:389  contract KnowLedgeToken is ERC20, ERC20Permit {... */\n      mstore(0x40, 0x80)\n      callvalue\n      dup1\n      iszero\n      tag_1\n      jumpi\n      0x00\n      dup1\n      revert\n    tag_1:\n      pop\n      jumpi(tag_2, lt(calldatasize, 0x04))\n      shr(0xe0, calldataload(0x00))\n      dup1\n      0x70a08231\n      gt\n      tag_16\n      jumpi\n      dup1\n      0x95d89b41\n      gt\n      tag_17\n      jumpi\n      dup1\n      0x95d89b41\n      eq\n      tag_12\n      jumpi\n      dup1\n      0xa9059cbb\n      eq\n      tag_13\n      jumpi\n      dup1\n      0xd505accf\n      eq\n      tag_14\n      jumpi\n      dup1\n      0xdd62ed3e\n      eq\n      tag_15\n      jumpi\n      jump(tag_2)\n    tag_17:\n      dup1\n      0x70a08231\n      eq\n      tag_9\n      jumpi\n      dup1\n      0x7ecebe00\n      eq\n      tag_10\n      jumpi\n      dup1\n      0x84b0196e\n      eq\n      tag_11\n      jumpi\n      jump(tag_2)\n    tag_16:\n      dup1\n      0x06fdde03\n      eq\n      tag_3\n      jumpi\n      dup1\n      0x095ea7b3\n      eq\n      tag_4\n      jumpi\n      dup1\n      0x18160ddd\n      eq\n      tag_5\n      jumpi\n      dup1\n      0x23b872dd\n      eq\n      tag_6\n      jumpi\n      dup1\n      0x313ce567\n      eq\n      tag_7\n      jumpi\n      dup1\n      0x3644e515\n      eq\n      tag_8\n      jumpi\n    tag_2:\n      0x00\n      dup1\n      revert\n        /* \"@openzeppelin/contracts@5.0.1/token/ERC20/ERC20.sol\":2074:2163  function name() public view virtual returns (string memory) {... */\n    tag_3:\n      tag_18\n      tag_19\n      jump\t// in\n    tag_18:\n      mload(0x40)\n      tag_20\n      swap2\n      swap1\n      tag_21\n      jump\t// in\n    tag_20:\n      mload(0x40)\n      dup1\n      swap2\n      sub\n      swap1\n      return\n        /* \"@openzeppelin/contracts@5.0.1/token/ERC20/ERC20.sol\":4293:4479  function approve(address spender, uint256 value) public virtual returns (bool) {... */\n    tag_4:\n      tag_22\n      0x04\n      dup1\n      calldatasize\n      sub\n      dup2\n      add\n      swap1\n      tag_23\n      swap2\n      swap1\n      tag_24\n      jump\t// in\n    tag_23:\n      tag_25\n      jump\t// in\n    tag_22:\n      mload(0x40)\n      tag_26\n      swap2\n      swap1\n      tag_27\n      jump\t// in\n    tag_26:\n      mload(0x40)\n      dup1\n      swap2\n      sub\n      swap1\n      return\n        /* \"@openzeppelin/contracts@5.0.1/token/ERC20/ERC20.sol\":3144:3241  function totalSupply() public view virtual returns (uint256) {... */\n    tag_5:\n      tag_28\n      tag_29\n      jump\t// in\n    tag_28:\n      mload(0x40)\n      tag_30\n      swap2\n      swap1\n      tag_31\n      jump\t// in\n    tag_30:\n      mload(0x40)\n      dup1\n      swap2\n      sub\n      swap1\n      return\n        /* \"@openzeppelin/contracts@5.0.1/token/ERC20/ERC20.sol\":5039:5283  function transferFrom(address from, address to, uint256 value) public virtual returns (bool) {... */\n    tag_6:\n      tag_32\n      0x04\n      dup1\n      calldatasize\n      sub\n      dup2\n      add\n      swap1\n      tag_33\n      swap2\n      swap1\n      tag_34\n      jump\t// in\n    tag_33:\n      tag_35\n      jump\t// in\n    tag_32:\n      mload(0x40)\n      tag_36\n      swap2\n      swap1\n      tag_27\n      jump\t// in\n    tag_36:\n      mload(0x40)\n      dup1\n      swap2\n      sub\n      swap1\n      return\n        /* \"@openzeppelin/contracts@5.0.1/token/ERC20/ERC20.sol\":3002:3084  function decimals() public view virtual returns (uint8) {... */\n    tag_7:\n      tag_37\n      tag_38\n      jump\t// in\n    tag_37:\n      mload(0x40)\n      tag_39\n      swap2\n      swap1\n      tag_40\n      jump\t// in\n    tag_39:\n      mload(0x40)\n      dup1\n      swap2\n      sub\n      swap1\n      return\n        /* \"@openzeppelin/contracts@5.0.1/token/ERC20/extensions/ERC20Permit.sol\":2656:2768  function DOMAIN_SEPARATOR() external view virtual returns (bytes32) {... */\n    tag_8:\n      tag_41\n      tag_42\n      jump\t// in\n    tag_41:\n      mload(0x40)\n      tag_43\n      swap2\n      swap1\n      tag_44\n      jump\t// in\n    tag_43:\n      mload(0x40)\n      dup1\n      swap2\n      sub\n      swap1\n      return\n        /* \"@openzeppelin/contracts@5.0.1/token/ERC20/ERC20.sol\":3299:3415  function balanceOf(address account) public view virtual returns (uint256) {... */\n    tag_9:\n      tag_45\n      0x04\n      dup1\n      calldatasize\n      sub\n      dup2\n      add\n      swap1\n      tag_46\n      swap2\n      swap1\n      tag_47\n      jump\t// in\n    tag_46:\n      tag_48\n      jump\t// in\n    tag_45:\n      mload(0x40)\n      tag_49\n      swap2\n      swap1\n      tag_31\n      jump\t// in\n    tag_49:\n      mload(0x40)\n      dup1\n      swap2\n      sub\n      swap1\n      return\n        /* \"@openzeppelin/contracts@5.0.1/token/ERC20/extensions/ERC20Permit.sol\":2406:2549  function nonces(address owner) public view virtual override(IERC20Permit, Nonces) returns (uint256) {... */\n    tag_10:\n      tag_50\n      0x04\n      dup1\n      calldatasize\n      sub\n      dup2\n      add\n      swap1\n      tag_51\n      swap2\n      swap1\n      tag_47\n      jump\t// in\n    tag_51:\n      tag_52\n      jump\t// in\n    tag_50:\n      mload(0x40)\n      tag_53\n      swap2\n      swap1\n      tag_31\n      jump\t// in\n    tag_53:\n      mload(0x40)\n      dup1\n      swap2\n      sub\n      swap1\n      return\n        /* \"@openzeppelin/contracts@5.0.1/utils/cryptography/EIP712.sol\":5144:5701  function eip712Domain()... */\n    tag_11:\n      tag_54\n      tag_55\n      jump\t// in\n    tag_54:\n      mload(0x40)\n      tag_56\n      swap8\n      swap7\n      swap6\n      swap5\n      swap4\n      swap3\n      swap2\n      swap1\n      tag_57\n      jump\t// in\n    tag_56:\n      mload(0x40)\n      dup1\n      swap2\n      sub\n      swap1\n      return\n        /* \"@openzeppelin/contracts@5.0.1/token/ERC20/ERC20.sol\":2276:2369  function symbol() public view virtual returns (string memory) {... */\n    tag_12:\n      tag_58\n      tag_59\n      jump\t// in\n    tag_58:\n      mload(0x40)\n      tag_60\n      swap2\n      swap1\n      tag_21\n      jump\t// in\n    tag_60:\n      mload(0x40)\n      dup1\n      swap2\n      sub\n      swap1\n      return\n        /* \"@openzeppelin/contracts@5.0.1/token/ERC20/ERC20.sol\":3610:3788  function transfer(address to, uint256 value) public virtual returns (bool) {... */\n    tag_13:\n      tag_61\n      0x04\n      dup1\n      calldatasize\n      sub\n      dup2\n      add\n      swap1\n      tag_62\n      swap2\n      swap1\n      tag_24\n      jump\t// in\n    tag_62:\n      tag_63\n      jump\t// in\n    tag_61:\n      mload(0x40)\n      tag_64\n      swap2\n      swap1\n      tag_27\n      jump\t// in\n    tag_64:\n      mload(0x40)\n      dup1\n      swap2\n      sub\n      swap1\n      return\n        /* \"@openzeppelin/contracts@5.0.1/token/ERC20/extensions/ERC20Permit.sol\":1680:2352  function permit(... */\n    tag_14:\n      tag_65\n      0x04\n      dup1\n      calldatasize\n      sub\n      dup2\n      add\n      swap1\n      tag_66\n      swap2\n      swap1\n      tag_67\n      jump\t// in\n    tag_66:\n      tag_68\n      jump\t// in\n    tag_65:\n      stop\n        /* \"@openzeppelin/contracts@5.0.1/token/ERC20/ERC20.sol\":3846:3986  function allowance(address owner, address spender) public view virtual returns (uint256) {... */\n    tag_15:\n      tag_69\n      0x04\n      dup1\n      calldatasize\n      sub\n      dup2\n      add\n      swap1\n      tag_70\n      swap2\n      swap1\n      tag_71\n      jump\t// in\n    tag_70:\n      tag_72\n      jump\t// in\n    tag_69:\n      mload(0x40)\n      tag_73\n      swap2\n      swap1\n      tag_31\n      jump\t// in\n    tag_73:\n      mload(0x40)\n      dup1\n      swap2\n      sub\n      swap1\n      return\n        /* \"@openzeppelin/contracts@5.0.1/token/ERC20/ERC20.sol\":2074:2163  function name() public view virtual returns (string memory) {... */\n    tag_19:\n        /* \"@openzeppelin/contracts@5.0.1/token/ERC20/ERC20.sol\":2119:2132  string memory */\n      0x60\n        /* \"@openzeppelin/contracts@5.0.1/token/ERC20/ERC20.sol\":2151:2156  _name */\n      0x03\n        /* \"@openzeppelin/contracts@5.0.1/token/ERC20/ERC20.sol\":2144:2156  return _name */\n      dup1\n      sload\n      tag_75\n      swap1\n      tag_76\n      jump\t// in\n    tag_75:\n      dup1\n      0x1f\n      add\n      0x20\n      dup1\n      swap2\n      div\n      mul\n      0x20\n      add\n      mload(0x40)\n      swap1\n      dup2\n      add\n      0x40\n      mstore\n      dup1\n      swap3\n      swap2\n      swap1\n      dup2\n      dup2\n      mstore\n      0x20\n      add\n      dup3\n      dup1\n      sload\n      tag_77\n      swap1\n      tag_76\n      jump\t// in\n    tag_77:\n      dup1\n      iszero\n      tag_78\n      jumpi\n      dup1\n      0x1f\n      lt\n      tag_79\n      jumpi\n      0x0100\n      dup1\n      dup4\n      sload\n      div\n      mul\n      dup4\n      mstore\n      swap2\n      0x20\n      add\n      swap2\n      jump(tag_78)\n    tag_79:\n      dup3\n      add\n      swap2\n      swap1\n      0x00\n      mstore\n      keccak256(0x00, 0x20)\n      swap1\n    tag_80:\n      dup2\n      sload\n      dup2\n      mstore\n      swap1\n      0x01\n      add\n      swap1\n      0x20\n      add\n      dup1\n      dup4\n      gt\n      tag_80\n      jumpi\n      dup3\n      swap1\n      sub\n      0x1f\n      and\n      dup3\n      add\n      swap2\n    tag_78:\n      pop\n      pop\n      pop\n      pop\n      pop\n      swap1\n      pop\n        /* \"@openzeppelin/contracts@5.0.1/token/ERC20/ERC20.sol\":2074:2163  function name() public view virtual returns (string memory) {... */\n      swap1\n      jump\t// out\n        /* \"@openzeppelin/contracts@5.0.1/token/ERC20/ERC20.sol\":4293:4479  function approve(address spender, uint256 value) public virtual returns (bool) {... */\n    tag_25:\n        /* \"@openzeppelin/contracts@5.0.1/token/ERC20/ERC20.sol\":4366:4370  bool */\n      0x00\n        /* \"@openzeppelin/contracts@5.0.1/token/ERC20/ERC20.sol\":4382:4395  address owner */\n      dup1\n        /* \"@openzeppelin/contracts@5.0.1/token/ERC20/ERC20.sol\":4398:4410  _msgSender() */\n      tag_82\n        /* \"@openzeppelin/contracts@5.0.1/token/ERC20/ERC20.sol\":4398:4408  _msgSender */\n      tag_83\n        /* \"@openzeppelin/contracts@5.0.1/token/ERC20/ERC20.sol\":4398:4410  _msgSender() */\n      jump\t// in\n    tag_82:\n        /* \"@openzeppelin/contracts@5.0.1/token/ERC20/ERC20.sol\":4382:4410  address owner = _msgSender() */\n      swap1\n      pop\n        /* \"@openzeppelin/contracts@5.0.1/token/ERC20/ERC20.sol\":4420:4451  _approve(owner, spender, value) */\n      tag_84\n        /* \"@openzeppelin/contracts@5.0.1/token/ERC20/ERC20.sol\":4429:4434  owner */\n      dup2\n        /* \"@openzeppelin/contracts@5.0.1/token/ERC20/ERC20.sol\":4436:4443  spender */\n      dup6\n        /* \"@openzeppelin/contracts@5.0.1/token/ERC20/ERC20.sol\":4445:4450  value */\n      dup6\n        /* \"@openzeppelin/contracts@5.0.1/token/ERC20/ERC20.sol\":4420:4428  _approve */\n      tag_85\n        /* \"@openzeppelin/contracts@5.0.1/token/ERC20/ERC20.sol\":4420:4451  _approve(owner, spender, value) */\n      jump\t// in\n    tag_84:\n        /* \"@openzeppelin/contracts@5.0.1/token/ERC20/ERC20.sol\":4468:4472  true */\n      0x01\n        /* \"@openzeppelin/contracts@5.0.1/token/ERC20/ERC20.sol\":4461:4472  return true */\n      swap2\n      pop\n      pop\n        /* \"@openzeppelin/contracts@5.0.1/token/ERC20/ERC20.sol\":4293:4479  function approve(address spender, uint256 value) public virtual returns (bool) {... */\n      swap3\n      swap2\n      pop\n      pop\n      jump\t// out\n        /* \"@openzeppelin/contracts@5.0.1/token/ERC20/ERC20.sol\":3144:3241  function totalSupply() public view virtual returns (uint256) {... */\n    tag_29:\n        /* \"@openzeppelin/contracts@5.0.1/token/ERC20/ERC20.sol\":3196:3203  uint256 */\n      0x00\n        /* \"@openzeppelin/contracts@5.0.1/token/ERC20/ERC20.sol\":3222:3234  _totalSupply */\n      sload(0x02)\n        /* \"@openzeppelin/contracts@5.0.1/token/ERC20/ERC20.sol\":3215:3234  return _totalSupply */\n      swap1\n      pop\n        /* \"@openzeppelin/contracts@5.0.1/token/ERC20/ERC20.sol\":3144:3241  function totalSupply() public view virtual returns (uint256) {... */\n      swap1\n      jump\t// out\n        /* \"@openzeppelin/contracts@5.0.1/token/ERC20/ERC20.sol\":5039:5283  function transferFrom(address from, address to, uint256 value) public virtual returns (bool) {... */\n    tag_35:\n        /* \"@openzeppelin/contracts@5.0.1/token/ERC20/ERC20.sol\":5126:5130  bool */\n      0x00\n        /* \"@openzeppelin/contracts@5.0.1/token/ERC20/ERC20.sol\":5142:5157  address spender */\n      dup1\n        /* \"@openzeppelin/contracts@5.0.1/token/ERC20/ERC20.sol\":5160:5172  _msgSender() */\n      tag_88\n        /* \"@openzeppelin/contracts@5.0.1/token/ERC20/ERC20.sol\":5160:5170  _msgSender */\n      tag_83\n        /* \"@openzeppelin/contracts@5.0.1/token/ERC20/ERC20.sol\":5160:5172  _msgSender() */\n      jump\t// in\n    tag_88:\n        /* \"@openzeppelin/contracts@5.0.1/token/ERC20/ERC20.sol\":5142:5172  address spender = _msgSender() */\n      swap1\n      pop\n        /* \"@openzeppelin/contracts@5.0.1/token/ERC20/ERC20.sol\":5182:5219  _spendAllowance(from, spender, value) */\n      tag_89\n        /* \"@openzeppelin/contracts@5.0.1/token/ERC20/ERC20.sol\":5198:5202  from */\n      dup6\n        /* \"@openzeppelin/contracts@5.0.1/token/ERC20/ERC20.sol\":5204:5211  spender */\n      dup3\n        /* \"@openzeppelin/contracts@5.0.1/token/ERC20/ERC20.sol\":5213:5218  value */\n      dup6\n        /* \"@openzeppelin/contracts@5.0.1/token/ERC20/ERC20.sol\":5182:5197  _spendAllowance */\n      tag_90\n        /* \"@openzeppelin/contracts@5.0.1/token/ERC20/ERC20.sol\":5182:5219  _spendAllowance(from, spender, value) */\n      jump\t// in\n    tag_89:\n        /* \"@openzeppelin/contracts@5.0.1/token/ERC20/ERC20.sol\":5229:5255  _transfer(from, to, value) */\n      tag_91\n        /* \"@openzeppelin/contracts@5.0.1/token/ERC20/ERC20.sol\":5239:5243  from */\n      dup6\n        /* \"@openzeppelin/contracts@5.0.1/token/ERC20/ERC20.sol\":5245:5247  to */\n      dup6\n        /* \"@openzeppelin/contracts@5.0.1/token/ERC20/ERC20.sol\":5249:5254  value */\n      dup6\n        /* \"@openzeppelin/contracts@5.0.1/token/ERC20/ERC20.sol\":5229:5238  _transfer */\n      tag_92\n        /* \"@openzeppelin/contracts@5.0.1/token/ERC20/ERC20.sol\":5229:5255  _transfer(from, to, value) */\n      jump\t// in\n    tag_91:\n        /* \"@openzeppelin/contracts@5.0.1/token/ERC20/ERC20.sol\":5272:5276  true */\n      0x01\n        /* \"@openzeppelin/contracts@5.0.1/token/ERC20/ERC20.sol\":5265:5276  return true */\n      swap2\n      pop\n      pop\n        /* \"@openzeppelin/contracts@5.0.1/token/ERC20/ERC20.sol\":5039:5283  function transferFrom(address from, address to, uint256 value) public virtual returns (bool) {... */\n      swap4\n      swap3\n      pop\n      pop\n      pop\n      jump\t// out\n        /* \"@openzeppelin/contracts@5.0.1/token/ERC20/ERC20.sol\":3002:3084  function decimals() public view virtual returns (uint8) {... */\n    tag_38:\n        /* \"@openzeppelin/contracts@5.0.1/token/ERC20/ERC20.sol\":3051:3056  uint8 */\n      0x00\n        /* \"@openzeppelin/contracts@5.0.1/token/ERC20/ERC20.sol\":3075:3077  18 */\n      0x12\n        /* \"@openzeppelin/contracts@5.0.1/token/ERC20/ERC20.sol\":3068:3077  return 18 */\n      swap1\n      pop\n        /* \"@openzeppelin/contracts@5.0.1/token/ERC20/ERC20.sol\":3002:3084  function decimals() public view virtual returns (uint8) {... */\n      swap1\n      jump\t// out\n        /* \"@openzeppelin/contracts@5.0.1/token/ERC20/extensions/ERC20Permit.sol\":2656:2768  function DOMAIN_SEPARATOR() external view virtual returns (bytes32) {... */\n    tag_42:\n        /* \"@openzeppelin/contracts@5.0.1/token/ERC20/extensions/ERC20Permit.sol\":2715:2722  bytes32 */\n      0x00\n        /* \"@openzeppelin/contracts@5.0.1/token/ERC20/extensions/ERC20Permit.sol\":2741:2761  _domainSeparatorV4() */\n      tag_95\n        /* \"@openzeppelin/contracts@5.0.1/token/ERC20/extensions/ERC20Permit.sol\":2741:2759  _domainSeparatorV4 */\n      tag_96\n        /* \"@openzeppelin/contracts@5.0.1/token/ERC20/extensions/ERC20Permit.sol\":2741:2761  _domainSeparatorV4() */\n      jump\t// in\n    tag_95:\n        /* \"@openzeppelin/contracts@5.0.1/token/ERC20/extensions/ERC20Permit.sol\":2734:2761  return _domainSeparatorV4() */\n      swap1\n      pop\n        /* \"@openzeppelin/contracts@5.0.1/token/ERC20/extensions/ERC20Permit.sol\":2656:2768  function DOMAIN_SEPARATOR() external view virtual returns (bytes32) {... */\n      swap1\n      jump\t// out\n        /* \"@openzeppelin/contracts@5.0.1/token/ERC20/ERC20.sol\":3299:3415  function balanceOf(address account) public view virtual returns (uint256) {... */\n    tag_48:\n        /* \"@openzeppelin/contracts@5.0.1/token/ERC20/ERC20.sol\":3364:3371  uint256 */\n      0x00\n        /* \"@openzeppelin/contracts@5.0.1/token/ERC20/ERC20.sol\":3390:3399  _balances */\n      dup1\n        /* \"@openzeppelin/contracts@5.0.1/token/ERC20/ERC20.sol\":3390:3408  _balances[account] */\n      0x00\n        /* \"@openzeppelin/contracts@5.0.1/token/ERC20/ERC20.sol\":3400:3407  account */\n      dup4\n        /* \"@openzeppelin/contracts@5.0.1/token/ERC20/ERC20.sol\":3390:3408  _balances[account] */\n      0xffffffffffffffffffffffffffffffffffffffff\n      and\n      0xffffffffffffffffffffffffffffffffffffffff\n      and\n      dup2\n      mstore\n      0x20\n      add\n      swap1\n      dup2\n      mstore\n      0x20\n      add\n      0x00\n      keccak256\n      sload\n        /* \"@openzeppelin/contracts@5.0.1/token/ERC20/ERC20.sol\":3383:3408  return _balances[account] */\n      swap1\n      pop\n        /* \"@openzeppelin/contracts@5.0.1/token/ERC20/ERC20.sol\":3299:3415  function balanceOf(address account) public view virtual returns (uint256) {... */\n      swap2\n      swap1\n      pop\n      jump\t// out\n        /* \"@openzeppelin/contracts@5.0.1/token/ERC20/extensions/ERC20Permit.sol\":2406:2549  function nonces(address owner) public view virtual override(IERC20Permit, Nonces) returns (uint256) {... */\n    tag_52:\n        /* \"@openzeppelin/contracts@5.0.1/token/ERC20/extensions/ERC20Permit.sol\":2497:2504  uint256 */\n      0x00\n        /* \"@openzeppelin/contracts@5.0.1/token/ERC20/extensions/ERC20Permit.sol\":2523:2542  super.nonces(owner) */\n      tag_99\n        /* \"@openzeppelin/contracts@5.0.1/token/ERC20/extensions/ERC20Permit.sol\":2536:2541  owner */\n      dup3\n        /* \"@openzeppelin/contracts@5.0.1/token/ERC20/extensions/ERC20Permit.sol\":2523:2535  super.nonces */\n      tag_100\n        /* \"@openzeppelin/contracts@5.0.1/token/ERC20/extensions/ERC20Permit.sol\":2523:2542  super.nonces(owner) */\n      jump\t// in\n    tag_99:\n        /* \"@openzeppelin/contracts@5.0.1/token/ERC20/extensions/ERC20Permit.sol\":2516:2542  return super.nonces(owner) */\n      swap1\n      pop\n        /* \"@openzeppelin/contracts@5.0.1/token/ERC20/extensions/ERC20Permit.sol\":2406:2549  function nonces(address owner) public view virtual override(IERC20Permit, Nonces) returns (uint256) {... */\n      swap2\n      swap1\n      pop\n      jump\t// out\n        /* \"@openzeppelin/contracts@5.0.1/utils/cryptography/EIP712.sol\":5144:5701  function eip712Domain()... */\n    tag_55:\n        /* \"@openzeppelin/contracts@5.0.1/utils/cryptography/EIP712.sol\":5242:5255  bytes1 fields */\n      0x00\n        /* \"@openzeppelin/contracts@5.0.1/utils/cryptography/EIP712.sol\":5269:5287  string memory name */\n      0x60\n        /* \"@openzeppelin/contracts@5.0.1/utils/cryptography/EIP712.sol\":5301:5322  string memory version */\n      dup1\n        /* \"@openzeppelin/contracts@5.0.1/utils/cryptography/EIP712.sol\":5336:5351  uint256 chainId */\n      0x00\n        /* \"@openzeppelin/contracts@5.0.1/utils/cryptography/EIP712.sol\":5365:5390  address verifyingContract */\n      dup1\n        /* \"@openzeppelin/contracts@5.0.1/utils/cryptography/EIP712.sol\":5404:5416  bytes32 salt */\n      0x00\n        /* \"@openzeppelin/contracts@5.0.1/utils/cryptography/EIP712.sol\":5430:5457  uint256[] memory extensions */\n      0x60\n        /* \"@openzeppelin/contracts@5.0.1/utils/cryptography/EIP712.sol\":5533:5546  _EIP712Name() */\n      tag_102\n        /* \"@openzeppelin/contracts@5.0.1/utils/cryptography/EIP712.sol\":5533:5544  _EIP712Name */\n      tag_103\n        /* \"@openzeppelin/contracts@5.0.1/utils/cryptography/EIP712.sol\":5533:5546  _EIP712Name() */\n      jump\t// in\n    tag_102:\n        /* \"@openzeppelin/contracts@5.0.1/utils/cryptography/EIP712.sol\":5560:5576  _EIP712Version() */\n      tag_104\n        /* \"@openzeppelin/contracts@5.0.1/utils/cryptography/EIP712.sol\":5560:5574  _EIP712Version */\n      tag_105\n        /* \"@openzeppelin/contracts@5.0.1/utils/cryptography/EIP712.sol\":5560:5576  _EIP712Version() */\n      jump\t// in\n    tag_104:\n        /* \"@openzeppelin/contracts@5.0.1/utils/cryptography/EIP712.sol\":5590:5603  block.chainid */\n      chainid\n        /* \"@openzeppelin/contracts@5.0.1/utils/cryptography/EIP712.sol\":5625:5629  this */\n      address\n        /* \"@openzeppelin/contracts@5.0.1/utils/cryptography/EIP712.sol\":5652:5653  0 */\n      0x00\n        /* \"@openzeppelin/contracts@5.0.1/utils/cryptography/EIP712.sol\":5644:5654  bytes32(0) */\n      dup1\n      shl\n        /* \"@openzeppelin/contracts@5.0.1/utils/cryptography/EIP712.sol\":5682:5683  0 */\n      0x00\n        /* \"@openzeppelin/contracts@5.0.1/utils/cryptography/EIP712.sol\":5668:5684  new uint256[](0) */\n      0xffffffffffffffff\n      dup2\n      gt\n      iszero\n      tag_106\n      jumpi\n      tag_107\n      tag_108\n      jump\t// in\n    tag_107:\n    tag_106:\n      mload(0x40)\n      swap1\n      dup1\n      dup3\n      mstore\n      dup1\n      0x20\n      mul\n      0x20\n      add\n      dup3\n      add\n      0x40\n      mstore\n      dup1\n      iszero\n      tag_109\n      jumpi\n      dup2\n      0x20\n      add\n      0x20\n      dup3\n      mul\n      dup1\n      calldatasize\n      dup4\n      calldatacopy\n      dup1\n      dup3\n      add\n      swap2\n      pop\n      pop\n      swap1\n      pop\n    tag_109:\n      pop\n        /* \"@openzeppelin/contracts@5.0.1/utils/cryptography/EIP712.sol\":5482:5694  return (... */\n      0x0f00000000000000000000000000000000000000000000000000000000000000\n      swap6\n      swap5\n      swap4\n      swap3\n      swap2\n      swap1\n      swap7\n      pop\n      swap7\n      pop\n      swap7\n      pop\n      swap7\n      pop\n      swap7\n      pop\n      swap7\n      pop\n      swap7\n      pop\n        /* \"@openzeppelin/contracts@5.0.1/utils/cryptography/EIP712.sol\":5144:5701  function eip712Domain()... */\n      swap1\n      swap2\n      swap3\n      swap4\n      swap5\n      swap6\n      swap7\n      jump\t// out\n        /* \"@openzeppelin/contracts@5.0.1/token/ERC20/ERC20.sol\":2276:2369  function symbol() public view virtual returns (string memory) {... */\n    tag_59:\n        /* \"@openzeppelin/contracts@5.0.1/token/ERC20/ERC20.sol\":2323:2336  string memory */\n      0x60\n        /* \"@openzeppelin/contracts@5.0.1/token/ERC20/ERC20.sol\":2355:2362  _symbol */\n      0x04\n        /* \"@openzeppelin/contracts@5.0.1/token/ERC20/ERC20.sol\":2348:2362  return _symbol */\n      dup1\n      sload\n      tag_111\n      swap1\n      tag_76\n      jump\t// in\n    tag_111:\n      dup1\n      0x1f\n      add\n      0x20\n      dup1\n      swap2\n      div\n      mul\n      0x20\n      add\n      mload(0x40)\n      swap1\n      dup2\n      add\n      0x40\n      mstore\n      dup1\n      swap3\n      swap2\n      swap1\n      dup2\n      dup2\n      mstore\n      0x20\n      add\n      dup3\n      dup1\n      sload\n      tag_112\n      swap1\n      tag_76\n      jump\t// in\n    tag_112:\n      dup1\n      iszero\n      tag_113\n      jumpi\n      dup1\n      0x1f\n      lt\n      tag_114\n      jumpi\n      0x0100\n      dup1\n      dup4\n      sload\n      div\n      mul\n      dup4\n      mstore\n      swap2\n      0x20\n      add\n      swap2\n      jump(tag_113)\n    tag_114:\n      dup3\n      add\n      swap2\n      swap1\n      0x00\n      mstore\n      keccak256(0x00, 0x20)\n      swap1\n    tag_115:\n      dup2\n      sload\n      dup2\n      mstore\n      swap1\n      0x01\n      add\n      swap1\n      0x20\n      add\n      dup1\n      dup4\n      gt\n      tag_115\n      jumpi\n      dup3\n      swap1\n      sub\n      0x1f\n      and\n      dup3\n      add\n      swap2\n    tag_113:\n      pop\n      pop\n      pop\n      pop\n      pop\n      swap1\n      pop\n        /* \"@openzeppelin/contracts@5.0.1/token/ERC20/ERC20.sol\":2276:2369  function symbol() public view virtual returns (string memory) {... */\n      swap1\n      jump\t// out\n        /* \"@openzeppelin/contracts@5.0.1/token/ERC20/ERC20.sol\":3610:3788  function transfer(address to, uint256 value) public virtual returns (bool) {... */\n    tag_63:\n        /* \"@openzeppelin/contracts@5.0.1/token/ERC20/ERC20.sol\":3679:3683  bool */\n      0x00\n        /* \"@openzeppelin/contracts@5.0.1/token/ERC20/ERC20.sol\":3695:3708  address owner */\n      dup1\n        /* \"@openzeppelin/contracts@5.0.1/token/ERC20/ERC20.sol\":3711:3723  _msgSender() */\n      tag_117\n        /* \"@openzeppelin/contracts@5.0.1/token/ERC20/ERC20.sol\":3711:3721  _msgSender */\n      tag_83\n        /* \"@openzeppelin/contracts@5.0.1/token/ERC20/ERC20.sol\":3711:3723  _msgSender() */\n      jump\t// in\n    tag_117:\n        /* \"@openzeppelin/contracts@5.0.1/token/ERC20/ERC20.sol\":3695:3723  address owner = _msgSender() */\n      swap1\n      pop\n        /* \"@openzeppelin/contracts@5.0.1/token/ERC20/ERC20.sol\":3733:3760  _transfer(owner, to, value) */\n      tag_118\n        /* \"@openzeppelin/contracts@5.0.1/token/ERC20/ERC20.sol\":3743:3748  owner */\n      dup2\n        /* \"@openzeppelin/contracts@5.0.1/token/ERC20/ERC20.sol\":3750:3752  to */\n      dup6\n        /* \"@openzeppelin/contracts@5.0.1/token/ERC20/ERC20.sol\":3754:3759  value */\n      dup6\n        /* \"@openzeppelin/contracts@5.0.1/token/ERC20/ERC20.sol\":3733:3742  _transfer */\n      tag_92\n        /* \"@openzeppelin/contracts@5.0.1/token/ERC20/ERC20.sol\":3733:3760  _transfer(owner, to, value) */\n      jump\t// in\n    tag_118:\n        /* \"@openzeppelin/contracts@5.0.1/token/ERC20/ERC20.sol\":3777:3781  true */\n      0x01\n        /* \"@openzeppelin/contracts@5.0.1/token/ERC20/ERC20.sol\":3770:3781  return true */\n      swap2\n      pop\n      pop\n        /* \"@openzeppelin/contracts@5.0.1/token/ERC20/ERC20.sol\":3610:3788  function transfer(address to, uint256 value) public virtual returns (bool) {... */\n      swap3\n      swap2\n      pop\n      pop\n      jump\t// out\n        /* \"@openzeppelin/contracts@5.0.1/token/ERC20/extensions/ERC20Permit.sol\":1680:2352  function permit(... */\n    tag_68:\n        /* \"@openzeppelin/contracts@5.0.1/token/ERC20/extensions/ERC20Permit.sol\":1901:1909  deadline */\n      dup4\n        /* \"@openzeppelin/contracts@5.0.1/token/ERC20/extensions/ERC20Permit.sol\":1883:1898  block.timestamp */\n      timestamp\n        /* \"@openzeppelin/contracts@5.0.1/token/ERC20/extensions/ERC20Permit.sol\":1883:1909  block.timestamp > deadline */\n      gt\n        /* \"@openzeppelin/contracts@5.0.1/token/ERC20/extensions/ERC20Permit.sol\":1879:1976  if (block.timestamp > deadline) {... */\n      iszero\n      tag_120\n      jumpi\n        /* \"@openzeppelin/contracts@5.0.1/token/ERC20/extensions/ERC20Permit.sol\":1956:1964  deadline */\n      dup4\n        /* \"@openzeppelin/contracts@5.0.1/token/ERC20/extensions/ERC20Permit.sol\":1932:1965  ERC2612ExpiredSignature(deadline) */\n      mload(0x40)\n      0x6279130200000000000000000000000000000000000000000000000000000000\n      dup2\n      mstore\n      0x04\n      add\n      tag_121\n      swap2\n      swap1\n      tag_31\n      jump\t// in\n    tag_121:\n      mload(0x40)\n      dup1\n      swap2\n      sub\n      swap1\n      revert\n        /* \"@openzeppelin/contracts@5.0.1/token/ERC20/extensions/ERC20Permit.sol\":1879:1976  if (block.timestamp > deadline) {... */\n    tag_120:\n        /* \"@openzeppelin/contracts@5.0.1/token/ERC20/extensions/ERC20Permit.sol\":1986:2004  bytes32 structHash */\n      0x00\n        /* \"@openzeppelin/contracts@5.0.1/token/ERC20/extensions/ERC20Permit.sol\":1022:1117  keccak256(\"Permit(address owner,address spender,uint256 value,uint256 nonce,uint256 deadline)\") */\n      0x6e71edae12b1b97f4d1f60370fef10105fa2faae0126114a169c64845d6126c9\n        /* \"@openzeppelin/contracts@5.0.1/token/ERC20/extensions/ERC20Permit.sol\":2045:2050  owner */\n      dup9\n        /* \"@openzeppelin/contracts@5.0.1/token/ERC20/extensions/ERC20Permit.sol\":2052:2059  spender */\n      dup9\n        /* \"@openzeppelin/contracts@5.0.1/token/ERC20/extensions/ERC20Permit.sol\":2061:2066  value */\n      dup9\n        /* \"@openzeppelin/contracts@5.0.1/token/ERC20/extensions/ERC20Permit.sol\":2068:2084  _useNonce(owner) */\n      tag_122\n        /* \"@openzeppelin/contracts@5.0.1/token/ERC20/extensions/ERC20Permit.sol\":2078:2083  owner */\n      dup13\n        /* \"@openzeppelin/contracts@5.0.1/token/ERC20/extensions/ERC20Permit.sol\":2068:2077  _useNonce */\n      tag_123\n        /* \"@openzeppelin/contracts@5.0.1/token/ERC20/extensions/ERC20Permit.sol\":2068:2084  _useNonce(owner) */\n      jump\t// in\n    tag_122:\n        /* \"@openzeppelin/contracts@5.0.1/token/ERC20/extensions/ERC20Permit.sol\":2086:2094  deadline */\n      dup10\n        /* \"@openzeppelin/contracts@5.0.1/token/ERC20/extensions/ERC20Permit.sol\":2017:2095  abi.encode(PERMIT_TYPEHASH, owner, spender, value, _useNonce(owner), deadline) */\n      add(0x20, mload(0x40))\n      tag_124\n      swap7\n      swap6\n      swap5\n      swap4\n      swap3\n      swap2\n      swap1\n      tag_125\n      jump\t// in\n    tag_124:\n      mload(0x40)\n      0x20\n      dup2\n      dup4\n      sub\n      sub\n      dup2\n      mstore\n      swap1\n      0x40\n      mstore\n        /* \"@openzeppelin/contracts@5.0.1/token/ERC20/extensions/ERC20Permit.sol\":2007:2096  keccak256(abi.encode(PERMIT_TYPEHASH, owner, spender, value, _useNonce(owner), deadline)) */\n      dup1\n      mload\n      swap1\n      0x20\n      add\n      keccak256\n        /* \"@openzeppelin/contracts@5.0.1/token/ERC20/extensions/ERC20Permit.sol\":1986:2096  bytes32 structHash = keccak256(abi.encode(PERMIT_TYPEHASH, owner, spender, value, _useNonce(owner), deadline)) */\n      swap1\n      pop\n        /* \"@openzeppelin/contracts@5.0.1/token/ERC20/extensions/ERC20Permit.sol\":2107:2119  bytes32 hash */\n      0x00\n        /* \"@openzeppelin/contracts@5.0.1/token/ERC20/extensions/ERC20Permit.sol\":2122:2150  _hashTypedDataV4(structHash) */\n      tag_126\n        /* \"@openzeppelin/contracts@5.0.1/token/ERC20/extensions/ERC20Permit.sol\":2139:2149  structHash */\n      dup3\n        /* \"@openzeppelin/contracts@5.0.1/token/ERC20/extensions/ERC20Permit.sol\":2122:2138  _hashTypedDataV4 */\n      tag_127\n        /* \"@openzeppelin/contracts@5.0.1/token/ERC20/extensions/ERC20Permit.sol\":2122:2150  _hashTypedDataV4(structHash) */\n      jump\t// in\n    tag_126:\n        /* \"@openzeppelin/contracts@5.0.1/token/ERC20/extensions/ERC20Permit.sol\":2107:2150  bytes32 hash = _hashTypedDataV4(structHash) */\n      swap1\n      pop\n        /* \"@openzeppelin/contracts@5.0.1/token/ERC20/extensions/ERC20Permit.sol\":2161:2175  address signer */\n      0x00\n        /* \"@openzeppelin/contracts@5.0.1/token/ERC20/extensions/ERC20Permit.sol\":2178:2206  ECDSA.recover(hash, v, r, s) */\n      tag_128\n        /* \"@openzeppelin/contracts@5.0.1/token/ERC20/extensions/ERC20Permit.sol\":2192:2196  hash */\n      dup3\n        /* \"@openzeppelin/contracts@5.0.1/token/ERC20/extensions/ERC20Permit.sol\":2198:2199  v */\n      dup8\n        /* \"@openzeppelin/contracts@5.0.1/token/ERC20/extensions/ERC20Permit.sol\":2201:2202  r */\n      dup8\n        /* \"@openzeppelin/contracts@5.0.1/token/ERC20/extensions/ERC20Permit.sol\":2204:2205  s */\n      dup8\n        /* \"@openzeppelin/contracts@5.0.1/token/ERC20/extensions/ERC20Permit.sol\":2178:2191  ECDSA.recover */\n      tag_129\n        /* \"@openzeppelin/contracts@5.0.1/token/ERC20/extensions/ERC20Permit.sol\":2178:2206  ECDSA.recover(hash, v, r, s) */\n      jump\t// in\n    tag_128:\n        /* \"@openzeppelin/contracts@5.0.1/token/ERC20/extensions/ERC20Permit.sol\":2161:2206  address signer = ECDSA.recover(hash, v, r, s) */\n      swap1\n      pop\n        /* \"@openzeppelin/contracts@5.0.1/token/ERC20/extensions/ERC20Permit.sol\":2230:2235  owner */\n      dup10\n        /* \"@openzeppelin/contracts@5.0.1/token/ERC20/extensions/ERC20Permit.sol\":2220:2235  signer != owner */\n      0xffffffffffffffffffffffffffffffffffffffff\n      and\n        /* \"@openzeppelin/contracts@5.0.1/token/ERC20/extensions/ERC20Permit.sol\":2220:2226  signer */\n      dup2\n        /* \"@openzeppelin/contracts@5.0.1/token/ERC20/extensions/ERC20Permit.sol\":2220:2235  signer != owner */\n      0xffffffffffffffffffffffffffffffffffffffff\n      and\n      eq\n        /* \"@openzeppelin/contracts@5.0.1/token/ERC20/extensions/ERC20Permit.sol\":2216:2304  if (signer != owner) {... */\n      tag_130\n      jumpi\n        /* \"@openzeppelin/contracts@5.0.1/token/ERC20/extensions/ERC20Permit.sol\":2279:2285  signer */\n      dup1\n        /* \"@openzeppelin/contracts@5.0.1/token/ERC20/extensions/ERC20Permit.sol\":2287:2292  owner */\n      dup11\n        /* \"@openzeppelin/contracts@5.0.1/token/ERC20/extensions/ERC20Permit.sol\":2258:2293  ERC2612InvalidSigner(signer, owner) */\n      mload(0x40)\n      0x4b800e4600000000000000000000000000000000000000000000000000000000\n      dup2\n      mstore\n      0x04\n      add\n      tag_131\n      swap3\n      swap2\n      swap1\n      tag_132\n      jump\t// in\n    tag_131:\n      mload(0x40)\n      dup1\n      swap2\n      sub\n      swap1\n      revert\n        /* \"@openzeppelin/contracts@5.0.1/token/ERC20/extensions/ERC20Permit.sol\":2216:2304  if (signer != owner) {... */\n    tag_130:\n        /* \"@openzeppelin/contracts@5.0.1/token/ERC20/extensions/ERC20Permit.sol\":2314:2345  _approve(owner, spender, value) */\n      tag_133\n        /* \"@openzeppelin/contracts@5.0.1/token/ERC20/extensions/ERC20Permit.sol\":2323:2328  owner */\n      dup11\n        /* \"@openzeppelin/contracts@5.0.1/token/ERC20/extensions/ERC20Permit.sol\":2330:2337  spender */\n      dup11\n        /* \"@openzeppelin/contracts@5.0.1/token/ERC20/extensions/ERC20Permit.sol\":2339:2344  value */\n      dup11\n        /* \"@openzeppelin/contracts@5.0.1/token/ERC20/extensions/ERC20Permit.sol\":2314:2322  _approve */\n      tag_85\n        /* \"@openzeppelin/contracts@5.0.1/token/ERC20/extensions/ERC20Permit.sol\":2314:2345  _approve(owner, spender, value) */\n      jump\t// in\n    tag_133:\n        /* \"@openzeppelin/contracts@5.0.1/token/ERC20/extensions/ERC20Permit.sol\":1869:2352  {... */\n      pop\n      pop\n      pop\n        /* \"@openzeppelin/contracts@5.0.1/token/ERC20/extensions/ERC20Permit.sol\":1680:2352  function permit(... */\n      pop\n      pop\n      pop\n      pop\n      pop\n      pop\n      pop\n      jump\t// out\n        /* \"@openzeppelin/contracts@5.0.1/token/ERC20/ERC20.sol\":3846:3986  function allowance(address owner, address spender) public view virtual returns (uint256) {... */\n    tag_72:\n        /* \"@openzeppelin/contracts@5.0.1/token/ERC20/ERC20.sol\":3926:3933  uint256 */\n      0x00\n        /* \"@openzeppelin/contracts@5.0.1/token/ERC20/ERC20.sol\":3952:3963  _allowances */\n      0x01\n        /* \"@openzeppelin/contracts@5.0.1/token/ERC20/ERC20.sol\":3952:3970  _allowances[owner] */\n      0x00\n        /* \"@openzeppelin/contracts@5.0.1/token/ERC20/ERC20.sol\":3964:3969  owner */\n      dup5\n        /* \"@openzeppelin/contracts@5.0.1/token/ERC20/ERC20.sol\":3952:3970  _allowances[owner] */\n      0xffffffffffffffffffffffffffffffffffffffff\n      and\n      0xffffffffffffffffffffffffffffffffffffffff\n      and\n      dup2\n      mstore\n      0x20\n      add\n      swap1\n      dup2\n      mstore\n      0x20\n      add\n      0x00\n      keccak256\n        /* \"@openzeppelin/contracts@5.0.1/token/ERC20/ERC20.sol\":3952:3979  _allowances[owner][spender] */\n      0x00\n        /* \"@openzeppelin/contracts@5.0.1/token/ERC20/ERC20.sol\":3971:3978  spender */\n      dup4\n        /* \"@openzeppelin/contracts@5.0.1/token/ERC20/ERC20.sol\":3952:3979  _allowances[owner][spender] */\n      0xffffffffffffffffffffffffffffffffffffffff\n      and\n      0xffffffffffffffffffffffffffffffffffffffff\n      and\n      dup2\n      mstore\n      0x20\n      add\n      swap1\n      dup2\n      mstore\n      0x20\n      add\n      0x00\n      keccak256\n      sload\n        /* \"@openzeppelin/contracts@5.0.1/token/ERC20/ERC20.sol\":3945:3979  return _allowances[owner][spender] */\n      swap1\n      pop\n        /* \"@openzeppelin/contracts@5.0.1/token/ERC20/ERC20.sol\":3846:3986  function allowance(address owner, address spender) public view virtual returns (uint256) {... */\n      swap3\n      swap2\n      pop\n      pop\n      jump\t// out\n        /* \"@openzeppelin/contracts@5.0.1/utils/Context.sol\":656:752  function _msgSender() internal view virtual returns (address) {... */\n    tag_83:\n        /* \"@openzeppelin/contracts@5.0.1/utils/Context.sol\":709:716  address */\n      0x00\n        /* \"@openzeppelin/contracts@5.0.1/utils/Context.sol\":735:745  msg.sender */\n      caller\n        /* \"@openzeppelin/contracts@5.0.1/utils/Context.sol\":728:745  return msg.sender */\n      swap1\n      pop\n        /* \"@openzeppelin/contracts@5.0.1/utils/Context.sol\":656:752  function _msgSender() internal view virtual returns (address) {... */\n      swap1\n      jump\t// out\n        /* \"@openzeppelin/contracts@5.0.1/token/ERC20/ERC20.sol\":8989:9117  function _approve(address owner, address spender, uint256 value) internal {... */\n    tag_85:\n        /* \"@openzeppelin/contracts@5.0.1/token/ERC20/ERC20.sol\":9073:9110  _approve(owner, spender, value, true) */\n      tag_137\n        /* \"@openzeppelin/contracts@5.0.1/token/ERC20/ERC20.sol\":9082:9087  owner */\n      dup4\n        /* \"@openzeppelin/contracts@5.0.1/token/ERC20/ERC20.sol\":9089:9096  spender */\n      dup4\n        /* \"@openzeppelin/contracts@5.0.1/token/ERC20/ERC20.sol\":9098:9103  value */\n      dup4\n        /* \"@openzeppelin/contracts@5.0.1/token/ERC20/ERC20.sol\":9105:9109  true */\n      0x01\n        /* \"@openzeppelin/contracts@5.0.1/token/ERC20/ERC20.sol\":9073:9081  _approve */\n      tag_138\n        /* \"@openzeppelin/contracts@5.0.1/token/ERC20/ERC20.sol\":9073:9110  _approve(owner, spender, value, true) */\n      jump\t// in\n    tag_137:\n        /* \"@openzeppelin/contracts@5.0.1/token/ERC20/ERC20.sol\":8989:9117  function _approve(address owner, address spender, uint256 value) internal {... */\n      pop\n      pop\n      pop\n      jump\t// out\n        /* \"@openzeppelin/contracts@5.0.1/token/ERC20/ERC20.sol\":10663:11140  function _spendAllowance(address owner, address spender, uint256 value) internal virtual {... */\n    tag_90:\n        /* \"@openzeppelin/contracts@5.0.1/token/ERC20/ERC20.sol\":10762:10786  uint256 currentAllowance */\n      0x00\n        /* \"@openzeppelin/contracts@5.0.1/token/ERC20/ERC20.sol\":10789:10814  allowance(owner, spender) */\n      tag_140\n        /* \"@openzeppelin/contracts@5.0.1/token/ERC20/ERC20.sol\":10799:10804  owner */\n      dup5\n        /* \"@openzeppelin/contracts@5.0.1/token/ERC20/ERC20.sol\":10806:10813  spender */\n      dup5\n        /* \"@openzeppelin/contracts@5.0.1/token/ERC20/ERC20.sol\":10789:10798  allowance */\n      tag_72\n        /* \"@openzeppelin/contracts@5.0.1/token/ERC20/ERC20.sol\":10789:10814  allowance(owner, spender) */\n      jump\t// in\n    tag_140:\n        /* \"@openzeppelin/contracts@5.0.1/token/ERC20/ERC20.sol\":10762:10814  uint256 currentAllowance = allowance(owner, spender) */\n      swap1\n      pop\n        /* \"@openzeppelin/contracts@5.0.1/token/ERC20/ERC20.sol\":10848:10865  type(uint256).max */\n      0xffffffffffffffffffffffffffffffffffffffffffffffffffffffffffffffff\n        /* \"@openzeppelin/contracts@5.0.1/token/ERC20/ERC20.sol\":10828:10844  currentAllowance */\n      dup2\n        /* \"@openzeppelin/contracts@5.0.1/token/ERC20/ERC20.sol\":10828:10865  currentAllowance != type(uint256).max */\n      eq\n        /* \"@openzeppelin/contracts@5.0.1/token/ERC20/ERC20.sol\":10824:11134  if (currentAllowance != type(uint256).max) {... */\n      tag_141\n      jumpi\n        /* \"@openzeppelin/contracts@5.0.1/token/ERC20/ERC20.sol\":10904:10909  value */\n      dup2\n        /* \"@openzeppelin/contracts@5.0.1/token/ERC20/ERC20.sol\":10885:10901  currentAllowance */\n      dup2\n        /* \"@openzeppelin/contracts@5.0.1/token/ERC20/ERC20.sol\":10885:10909  currentAllowance < value */\n      lt\n        /* \"@openzeppelin/contracts@5.0.1/token/ERC20/ERC20.sol\":10881:11011  if (currentAllowance < value) {... */\n      iszero\n      tag_142\n      jumpi\n        /* \"@openzeppelin/contracts@5.0.1/token/ERC20/ERC20.sol\":10963:10970  spender */\n      dup3\n        /* \"@openzeppelin/contracts@5.0.1/token/ERC20/ERC20.sol\":10972:10988  currentAllowance */\n      dup2\n        /* \"@openzeppelin/contracts@5.0.1/token/ERC20/ERC20.sol\":10990:10995  value */\n      dup4\n        /* \"@openzeppelin/contracts@5.0.1/token/ERC20/ERC20.sol\":10936:10996  ERC20InsufficientAllowance(spender, currentAllowance, value) */\n      mload(0x40)\n      0xfb8f41b200000000000000000000000000000000000000000000000000000000\n      dup2\n      mstore\n      0x04\n      add\n      tag_143\n      swap4\n      swap3\n      swap2\n      swap1\n      tag_144\n      jump\t// in\n    tag_143:\n      mload(0x40)\n      dup1\n      swap2\n      sub\n      swap1\n      revert\n        /* \"@openzeppelin/contracts@5.0.1/token/ERC20/ERC20.sol\":10881:11011  if (currentAllowance < value) {... */\n    tag_142:\n        /* \"@openzeppelin/contracts@5.0.1/token/ERC20/ERC20.sol\":11052:11109  _approve(owner, spender, currentAllowance - value, false) */\n      tag_145\n        /* \"@openzeppelin/contracts@5.0.1/token/ERC20/ERC20.sol\":11061:11066  owner */\n      dup5\n        /* \"@openzeppelin/contracts@5.0.1/token/ERC20/ERC20.sol\":11068:11075  spender */\n      dup5\n        /* \"@openzeppelin/contracts@5.0.1/token/ERC20/ERC20.sol\":11096:11101  value */\n      dup5\n        /* \"@openzeppelin/contracts@5.0.1/token/ERC20/ERC20.sol\":11077:11093  currentAllowance */\n      dup5\n        /* \"@openzeppelin/contracts@5.0.1/token/ERC20/ERC20.sol\":11077:11101  currentAllowance - value */\n      sub\n        /* \"@openzeppelin/contracts@5.0.1/token/ERC20/ERC20.sol\":11103:11108  false */\n      0x00\n        /* \"@openzeppelin/contracts@5.0.1/token/ERC20/ERC20.sol\":11052:11060  _approve */\n      tag_138\n        /* \"@openzeppelin/contracts@5.0.1/token/ERC20/ERC20.sol\":11052:11109  _approve(owner, spender, currentAllowance - value, false) */\n      jump\t// in\n    tag_145:\n        /* \"@openzeppelin/contracts@5.0.1/token/ERC20/ERC20.sol\":10824:11134  if (currentAllowance != type(uint256).max) {... */\n    tag_141:\n        /* \"@openzeppelin/contracts@5.0.1/token/ERC20/ERC20.sol\":10752:11140  {... */\n      pop\n        /* \"@openzeppelin/contracts@5.0.1/token/ERC20/ERC20.sol\":10663:11140  function _spendAllowance(address owner, address spender, uint256 value) internal virtual {... */\n      pop\n      pop\n      pop\n      jump\t// out\n        /* \"@openzeppelin/contracts@5.0.1/token/ERC20/ERC20.sol\":5656:5956  function _transfer(address from, address to, uint256 value) internal {... */\n    tag_92:\n        /* \"@openzeppelin/contracts@5.0.1/token/ERC20/ERC20.sol\":5755:5756  0 */\n      0x00\n        /* \"@openzeppelin/contracts@5.0.1/token/ERC20/ERC20.sol\":5739:5757  from == address(0) */\n      0xffffffffffffffffffffffffffffffffffffffff\n      and\n        /* \"@openzeppelin/contracts@5.0.1/token/ERC20/ERC20.sol\":5739:5743  from */\n      dup4\n        /* \"@openzeppelin/contracts@5.0.1/token/ERC20/ERC20.sol\":5739:5757  from == address(0) */\n      0xffffffffffffffffffffffffffffffffffffffff\n      and\n      sub\n        /* \"@openzeppelin/contracts@5.0.1/token/ERC20/ERC20.sol\":5735:5821  if (from == address(0)) {... */\n      tag_147\n      jumpi\n        /* \"@openzeppelin/contracts@5.0.1/token/ERC20/ERC20.sol\":5807:5808  0 */\n      0x00\n        /* \"@openzeppelin/contracts@5.0.1/token/ERC20/ERC20.sol\":5780:5810  ERC20InvalidSender(address(0)) */\n      mload(0x40)\n      0x96c6fd1e00000000000000000000000000000000000000000000000000000000\n      dup2\n      mstore\n      0x04\n      add\n      tag_148\n      swap2\n      swap1\n      tag_149\n      jump\t// in\n    tag_148:\n      mload(0x40)\n      dup1\n      swap2\n      sub\n      swap1\n      revert\n        /* \"@openzeppelin/contracts@5.0.1/token/ERC20/ERC20.sol\":5735:5821  if (from == address(0)) {... */\n    tag_147:\n        /* \"@openzeppelin/contracts@5.0.1/token/ERC20/ERC20.sol\":5848:5849  0 */\n      0x00\n        /* \"@openzeppelin/contracts@5.0.1/token/ERC20/ERC20.sol\":5834:5850  to == address(0) */\n      0xffffffffffffffffffffffffffffffffffffffff\n      and\n        /* \"@openzeppelin/contracts@5.0.1/token/ERC20/ERC20.sol\":5834:5836  to */\n      dup3\n        /* \"@openzeppelin/contracts@5.0.1/token/ERC20/ERC20.sol\":5834:5850  to == address(0) */\n      0xffffffffffffffffffffffffffffffffffffffff\n      and\n      sub\n        /* \"@openzeppelin/contracts@5.0.1/token/ERC20/ERC20.sol\":5830:5916  if (to == address(0)) {... */\n      tag_150\n      jumpi\n        /* \"@openzeppelin/contracts@5.0.1/token/ERC20/ERC20.sol\":5902:5903  0 */\n      0x00\n        /* \"@openzeppelin/contracts@5.0.1/token/ERC20/ERC20.sol\":5873:5905  ERC20InvalidReceiver(address(0)) */\n      mload(0x40)\n      0xec442f0500000000000000000000000000000000000000000000000000000000\n      dup2\n      mstore\n      0x04\n      add\n      tag_151\n      swap2\n      swap1\n      tag_149\n      jump\t// in\n    tag_151:\n      mload(0x40)\n      dup1\n      swap2\n      sub\n      swap1\n      revert\n        /* \"@openzeppelin/contracts@5.0.1/token/ERC20/ERC20.sol\":5830:5916  if (to == address(0)) {... */\n    tag_150:\n        /* \"@openzeppelin/contracts@5.0.1/token/ERC20/ERC20.sol\":5925:5949  _update(from, to, value) */\n      tag_152\n        /* \"@openzeppelin/contracts@5.0.1/token/ERC20/ERC20.sol\":5933:5937  from */\n      dup4\n        /* \"@openzeppelin/contracts@5.0.1/token/ERC20/ERC20.sol\":5939:5941  to */\n      dup4\n        /* \"@openzeppelin/contracts@5.0.1/token/ERC20/ERC20.sol\":5943:5948  value */\n      dup4\n        /* \"@openzeppelin/contracts@5.0.1/token/ERC20/ERC20.sol\":5925:5932  _update */\n      tag_153\n        /* \"@openzeppelin/contracts@5.0.1/token/ERC20/ERC20.sol\":5925:5949  _update(from, to, value) */\n      jump\t// in\n    tag_152:\n        /* \"@openzeppelin/contracts@5.0.1/token/ERC20/ERC20.sol\":5656:5956  function _transfer(address from, address to, uint256 value) internal {... */\n      pop\n      pop\n      pop\n      jump\t// out\n        /* \"@openzeppelin/contracts@5.0.1/utils/cryptography/EIP712.sol\":3845:4107  function _domainSeparatorV4() internal view returns (bytes32) {... */\n    tag_96:\n        /* \"@openzeppelin/contracts@5.0.1/utils/cryptography/EIP712.sol\":3898:3905  bytes32 */\n      0x00\n        /* \"@openzeppelin/contracts@5.0.1/utils/cryptography/EIP712.sol\":3938:3949  _cachedThis */\n      immutable(\"0x45583c716935567ea164771749ab630fc2584e89eead72531f29ea474918321a\")\n        /* \"@openzeppelin/contracts@5.0.1/utils/cryptography/EIP712.sol\":3921:3949  address(this) == _cachedThis */\n      0xffffffffffffffffffffffffffffffffffffffff\n      and\n        /* \"@openzeppelin/contracts@5.0.1/utils/cryptography/EIP712.sol\":3929:3933  this */\n      address\n        /* \"@openzeppelin/contracts@5.0.1/utils/cryptography/EIP712.sol\":3921:3949  address(this) == _cachedThis */\n      0xffffffffffffffffffffffffffffffffffffffff\n      and\n      eq\n        /* \"@openzeppelin/contracts@5.0.1/utils/cryptography/EIP712.sol\":3921:3984  address(this) == _cachedThis && block.chainid == _cachedChainId */\n      dup1\n      iszero\n      tag_155\n      jumpi\n      pop\n        /* \"@openzeppelin/contracts@5.0.1/utils/cryptography/EIP712.sol\":3970:3984  _cachedChainId */\n      immutable(\"0x2eb9a99718a5ddb41634aa3a127c1821b30a0e7db3d87b6203b71d7595223311\")\n        /* \"@openzeppelin/contracts@5.0.1/utils/cryptography/EIP712.sol\":3953:3966  block.chainid */\n      chainid\n        /* \"@openzeppelin/contracts@5.0.1/utils/cryptography/EIP712.sol\":3953:3984  block.chainid == _cachedChainId */\n      eq\n        /* \"@openzeppelin/contracts@5.0.1/utils/cryptography/EIP712.sol\":3921:3984  address(this) == _cachedThis && block.chainid == _cachedChainId */\n    tag_155:\n        /* \"@openzeppelin/contracts@5.0.1/utils/cryptography/EIP712.sol\":3917:4101  if (address(this) == _cachedThis && block.chainid == _cachedChainId) {... */\n      iszero\n      tag_156\n      jumpi\n        /* \"@openzeppelin/contracts@5.0.1/utils/cryptography/EIP712.sol\":4007:4029  _cachedDomainSeparator */\n      immutable(\"0xb775854bb325b699ccfc2a72dec93b06810d465e2ba7b7ffc485571437231d1a\")\n        /* \"@openzeppelin/contracts@5.0.1/utils/cryptography/EIP712.sol\":4000:4029  return _cachedDomainSeparator */\n      swap1\n      pop\n      jump(tag_154)\n        /* \"@openzeppelin/contracts@5.0.1/utils/cryptography/EIP712.sol\":3917:4101  if (address(this) == _cachedThis && block.chainid == _cachedChainId) {... */\n    tag_156:\n        /* \"@openzeppelin/contracts@5.0.1/utils/cryptography/EIP712.sol\":4067:4090  _buildDomainSeparator() */\n      tag_158\n        /* \"@openzeppelin/contracts@5.0.1/utils/cryptography/EIP712.sol\":4067:4088  _buildDomainSeparator */\n      tag_159\n        /* \"@openzeppelin/contracts@5.0.1/utils/cryptography/EIP712.sol\":4067:4090  _buildDomainSeparator() */\n      jump\t// in\n    tag_158:\n        /* \"@openzeppelin/contracts@5.0.1/utils/cryptography/EIP712.sol\":4060:4090  return _buildDomainSeparator() */\n      swap1\n      pop\n        /* \"@openzeppelin/contracts@5.0.1/utils/cryptography/EIP712.sol\":3845:4107  function _domainSeparatorV4() internal view returns (bytes32) {... */\n    tag_154:\n      swap1\n      jump\t// out\n        /* \"@openzeppelin/contracts@5.0.1/utils/Nonces.sol\":538:645  function nonces(address owner) public view virtual returns (uint256) {... */\n    tag_100:\n        /* \"@openzeppelin/contracts@5.0.1/utils/Nonces.sol\":598:605  uint256 */\n      0x00\n        /* \"@openzeppelin/contracts@5.0.1/utils/Nonces.sol\":624:631  _nonces */\n      0x07\n        /* \"@openzeppelin/contracts@5.0.1/utils/Nonces.sol\":624:638  _nonces[owner] */\n      0x00\n        /* \"@openzeppelin/contracts@5.0.1/utils/Nonces.sol\":632:637  owner */\n      dup4\n        /* \"@openzeppelin/contracts@5.0.1/utils/Nonces.sol\":624:638  _nonces[owner] */\n      0xffffffffffffffffffffffffffffffffffffffff\n      and\n      0xffffffffffffffffffffffffffffffffffffffff\n      and\n      dup2\n      mstore\n      0x20\n      add\n      swap1\n      dup2\n      mstore\n      0x20\n      add\n      0x00\n      keccak256\n      sload\n        /* \"@openzeppelin/contracts@5.0.1/utils/Nonces.sol\":617:638  return _nonces[owner] */\n      swap1\n      pop\n        /* \"@openzeppelin/contracts@5.0.1/utils/Nonces.sol\":538:645  function nonces(address owner) public view virtual returns (uint256) {... */\n      swap2\n      swap1\n      pop\n      jump\t// out\n        /* \"@openzeppelin/contracts@5.0.1/utils/cryptography/EIP712.sol\":6021:6147  function _EIP712Name() internal view returns (string memory) {... */\n    tag_103:\n        /* \"@openzeppelin/contracts@5.0.1/utils/cryptography/EIP712.sol\":6067:6080  string memory */\n      0x60\n        /* \"@openzeppelin/contracts@5.0.1/utils/cryptography/EIP712.sol\":6099:6140  _name.toStringWithFallback(_nameFallback) */\n      tag_162\n        /* \"@openzeppelin/contracts@5.0.1/utils/cryptography/EIP712.sol\":6126:6139  _nameFallback */\n      0x05\n        /* \"@openzeppelin/contracts@5.0.1/utils/cryptography/EIP712.sol\":6099:6104  _name */\n      immutable(\"0x57650568a02a7887f4f4e1ae3b5071ca25e4fb181c1b7adfd0d312e8c663feb3\")\n        /* \"@openzeppelin/contracts@5.0.1/utils/cryptography/EIP712.sol\":6099:6125  _name.toStringWithFallback */\n      tag_163\n      swap1\n        /* \"@openzeppelin/contracts@5.0.1/utils/cryptography/EIP712.sol\":6099:6140  _name.toStringWithFallback(_nameFallback) */\n      swap2\n      swap1\n      0xffffffff\n      and\n      jump\t// in\n    tag_162:\n        /* \"@openzeppelin/contracts@5.0.1/utils/cryptography/EIP712.sol\":6092:6140  return _name.toStringWithFallback(_nameFallback) */\n      swap1\n      pop\n        /* \"@openzeppelin/contracts@5.0.1/utils/cryptography/EIP712.sol\":6021:6147  function _EIP712Name() internal view returns (string memory) {... */\n      swap1\n      jump\t// out\n        /* \"@openzeppelin/contracts@5.0.1/utils/cryptography/EIP712.sol\":6473:6608  function _EIP712Version() internal view returns (string memory) {... */\n    tag_105:\n        /* \"@openzeppelin/contracts@5.0.1/utils/cryptography/EIP712.sol\":6522:6535  string memory */\n      0x60\n        /* \"@openzeppelin/contracts@5.0.1/utils/cryptography/EIP712.sol\":6554:6601  _version.toStringWithFallback(_versionFallback) */\n      tag_165\n        /* \"@openzeppelin/contracts@5.0.1/utils/cryptography/EIP712.sol\":6584:6600  _versionFallback */\n      0x06\n        /* \"@openzeppelin/contracts@5.0.1/utils/cryptography/EIP712.sol\":6554:6562  _version */\n      immutable(\"0xe156ff544111f0d61300ce79ff347b01537432ccb5ab72ff35b2177c2ed3fa4b\")\n        /* \"@openzeppelin/contracts@5.0.1/utils/cryptography/EIP712.sol\":6554:6583  _version.toStringWithFallback */\n      tag_163\n      swap1\n        /* \"@openzeppelin/contracts@5.0.1/utils/cryptography/EIP712.sol\":6554:6601  _version.toStringWithFallback(_versionFallback) */\n      swap2\n      swap1\n      0xffffffff\n      and\n      jump\t// in\n    tag_165:\n        /* \"@openzeppelin/contracts@5.0.1/utils/cryptography/EIP712.sol\":6547:6601  return _version.toStringWithFallback(_versionFallback) */\n      swap1\n      pop\n        /* \"@openzeppelin/contracts@5.0.1/utils/cryptography/EIP712.sol\":6473:6608  function _EIP712Version() internal view returns (string memory) {... */\n      swap1\n      jump\t// out\n        /* \"@openzeppelin/contracts@5.0.1/utils/Nonces.sol\":759:1154  function _useNonce(address owner) internal virtual returns (uint256) {... */\n    tag_123:\n        /* \"@openzeppelin/contracts@5.0.1/utils/Nonces.sol\":819:826  uint256 */\n      0x00\n        /* \"@openzeppelin/contracts@5.0.1/utils/Nonces.sol\":1121:1128  _nonces */\n      0x07\n        /* \"@openzeppelin/contracts@5.0.1/utils/Nonces.sol\":1121:1135  _nonces[owner] */\n      0x00\n        /* \"@openzeppelin/contracts@5.0.1/utils/Nonces.sol\":1129:1134  owner */\n      dup4\n        /* \"@openzeppelin/contracts@5.0.1/utils/Nonces.sol\":1121:1135  _nonces[owner] */\n      0xffffffffffffffffffffffffffffffffffffffff\n      and\n      0xffffffffffffffffffffffffffffffffffffffff\n      and\n      dup2\n      mstore\n      0x20\n      add\n      swap1\n      dup2\n      mstore\n      0x20\n      add\n      0x00\n      keccak256\n      0x00\n        /* \"@openzeppelin/contracts@5.0.1/utils/Nonces.sol\":1121:1137  _nonces[owner]++ */\n      dup2\n      sload\n      dup1\n      swap3\n      swap2\n      swap1\n      0x01\n      add\n      swap2\n      swap1\n      pop\n      sstore\n        /* \"@openzeppelin/contracts@5.0.1/utils/Nonces.sol\":1114:1137  return _nonces[owner]++ */\n      swap1\n      pop\n        /* \"@openzeppelin/contracts@5.0.1/utils/Nonces.sol\":759:1154  function _useNonce(address owner) internal virtual returns (uint256) {... */\n      swap2\n      swap1\n      pop\n      jump\t// out\n        /* \"@openzeppelin/contracts@5.0.1/utils/cryptography/EIP712.sol\":4917:5093  function _hashTypedDataV4(bytes32 structHash) internal view virtual returns (bytes32) {... */\n    tag_127:\n        /* \"@openzeppelin/contracts@5.0.1/utils/cryptography/EIP712.sol\":4994:5001  bytes32 */\n      0x00\n        /* \"@openzeppelin/contracts@5.0.1/utils/cryptography/EIP712.sol\":5020:5086  MessageHashUtils.toTypedDataHash(_domainSeparatorV4(), structHash) */\n      tag_168\n        /* \"@openzeppelin/contracts@5.0.1/utils/cryptography/EIP712.sol\":5053:5073  _domainSeparatorV4() */\n      tag_169\n        /* \"@openzeppelin/contracts@5.0.1/utils/cryptography/EIP712.sol\":5053:5071  _domainSeparatorV4 */\n      tag_96\n        /* \"@openzeppelin/contracts@5.0.1/utils/cryptography/EIP712.sol\":5053:5073  _domainSeparatorV4() */\n      jump\t// in\n    tag_169:\n        /* \"@openzeppelin/contracts@5.0.1/utils/cryptography/EIP712.sol\":5075:5085  structHash */\n      dup4\n        /* \"@openzeppelin/contracts@5.0.1/utils/cryptography/EIP712.sol\":5020:5052  MessageHashUtils.toTypedDataHash */\n      tag_170\n        /* \"@openzeppelin/contracts@5.0.1/utils/cryptography/EIP712.sol\":5020:5086  MessageHashUtils.toTypedDataHash(_domainSeparatorV4(), structHash) */\n      jump\t// in\n    tag_168:\n        /* \"@openzeppelin/contracts@5.0.1/utils/cryptography/EIP712.sol\":5013:5086  return MessageHashUtils.toTypedDataHash(_domainSeparatorV4(), structHash) */\n      swap1\n      pop\n        /* \"@openzeppelin/contracts@5.0.1/utils/cryptography/EIP712.sol\":4917:5093  function _hashTypedDataV4(bytes32 structHash) internal view virtual returns (bytes32) {... */\n      swap2\n      swap1\n      pop\n      jump\t// out\n        /* \"@openzeppelin/contracts@5.0.1/utils/cryptography/ECDSA.sol\":6803:7063  function recover(bytes32 hash, uint8 v, bytes32 r, bytes32 s) internal pure returns (address) {... */\n    tag_129:\n        /* \"@openzeppelin/contracts@5.0.1/utils/cryptography/ECDSA.sol\":6888:6895  address */\n      0x00\n        /* \"@openzeppelin/contracts@5.0.1/utils/cryptography/ECDSA.sol\":6908:6925  address recovered */\n      dup1\n        /* \"@openzeppelin/contracts@5.0.1/utils/cryptography/ECDSA.sol\":6927:6945  RecoverError error */\n      0x00\n        /* \"@openzeppelin/contracts@5.0.1/utils/cryptography/ECDSA.sol\":6947:6963  bytes32 errorArg */\n      dup1\n        /* \"@openzeppelin/contracts@5.0.1/utils/cryptography/ECDSA.sol\":6967:6992  tryRecover(hash, v, r, s) */\n      tag_172\n        /* \"@openzeppelin/contracts@5.0.1/utils/cryptography/ECDSA.sol\":6978:6982  hash */\n      dup9\n        /* \"@openzeppelin/contracts@5.0.1/utils/cryptography/ECDSA.sol\":6984:6985  v */\n      dup9\n        /* \"@openzeppelin/contracts@5.0.1/utils/cryptography/ECDSA.sol\":6987:6988  r */\n      dup9\n        /* \"@openzeppelin/contracts@5.0.1/utils/cryptography/ECDSA.sol\":6990:6991  s */\n      dup9\n        /* \"@openzeppelin/contracts@5.0.1/utils/cryptography/ECDSA.sol\":6967:6977  tryRecover */\n      tag_173\n        /* \"@openzeppelin/contracts@5.0.1/utils/cryptography/ECDSA.sol\":6967:6992  tryRecover(hash, v, r, s) */\n      jump\t// in\n    tag_172:\n        /* \"@openzeppelin/contracts@5.0.1/utils/cryptography/ECDSA.sol\":6907:6992  (address recovered, RecoverError error, bytes32 errorArg) = tryRecover(hash, v, r, s) */\n      swap3\n      pop\n      swap3\n      pop\n      swap3\n      pop\n        /* \"@openzeppelin/contracts@5.0.1/utils/cryptography/ECDSA.sol\":7002:7030  _throwError(error, errorArg) */\n      tag_174\n        /* \"@openzeppelin/contracts@5.0.1/utils/cryptography/ECDSA.sol\":7014:7019  error */\n      dup3\n        /* \"@openzeppelin/contracts@5.0.1/utils/cryptography/ECDSA.sol\":7021:7029  errorArg */\n      dup3\n        /* \"@openzeppelin/contracts@5.0.1/utils/cryptography/ECDSA.sol\":7002:7013  _throwError */\n      tag_175\n        /* \"@openzeppelin/contracts@5.0.1/utils/cryptography/ECDSA.sol\":7002:7030  _throwError(error, errorArg) */\n      jump\t// in\n    tag_174:\n        /* \"@openzeppelin/contracts@5.0.1/utils/cryptography/ECDSA.sol\":7047:7056  recovered */\n      dup3\n        /* \"@openzeppelin/contracts@5.0.1/utils/cryptography/ECDSA.sol\":7040:7056  return recovered */\n      swap4\n      pop\n      pop\n      pop\n      pop\n        /* \"@openzeppelin/contracts@5.0.1/utils/cryptography/ECDSA.sol\":6803:7063  function recover(bytes32 hash, uint8 v, bytes32 r, bytes32 s) internal pure returns (address) {... */\n      swap5\n      swap4\n      pop\n      pop\n      pop\n      pop\n      jump\t// out\n        /* \"@openzeppelin/contracts@5.0.1/token/ERC20/ERC20.sol\":9949:10381  function _approve(address owner, address spender, uint256 value, bool emitEvent) internal virtual {... */\n    tag_138:\n        /* \"@openzeppelin/contracts@5.0.1/token/ERC20/ERC20.sol\":10078:10079  0 */\n      0x00\n        /* \"@openzeppelin/contracts@5.0.1/token/ERC20/ERC20.sol\":10061:10080  owner == address(0) */\n      0xffffffffffffffffffffffffffffffffffffffff\n      and\n        /* \"@openzeppelin/contracts@5.0.1/token/ERC20/ERC20.sol\":10061:10066  owner */\n      dup5\n        /* \"@openzeppelin/contracts@5.0.1/token/ERC20/ERC20.sol\":10061:10080  owner == address(0) */\n      0xffffffffffffffffffffffffffffffffffffffff\n      and\n      sub\n        /* \"@openzeppelin/contracts@5.0.1/token/ERC20/ERC20.sol\":10057:10146  if (owner == address(0)) {... */\n      tag_177\n      jumpi\n        /* \"@openzeppelin/contracts@5.0.1/token/ERC20/ERC20.sol\":10132:10133  0 */\n      0x00\n        /* \"@openzeppelin/contracts@5.0.1/token/ERC20/ERC20.sol\":10103:10135  ERC20InvalidApprover(address(0)) */\n      mload(0x40)\n      0xe602df0500000000000000000000000000000000000000000000000000000000\n      dup2\n      mstore\n      0x04\n      add\n      tag_178\n      swap2\n      swap1\n      tag_149\n      jump\t// in\n    tag_178:\n      mload(0x40)\n      dup1\n      swap2\n      sub\n      swap1\n      revert\n        /* \"@openzeppelin/contracts@5.0.1/token/ERC20/ERC20.sol\":10057:10146  if (owner == address(0)) {... */\n    tag_177:\n        /* \"@openzeppelin/contracts@5.0.1/token/ERC20/ERC20.sol\":10178:10179  0 */\n      0x00\n        /* \"@openzeppelin/contracts@5.0.1/token/ERC20/ERC20.sol\":10159:10180  spender == address(0) */\n      0xffffffffffffffffffffffffffffffffffffffff\n      and\n        /* \"@openzeppelin/contracts@5.0.1/token/ERC20/ERC20.sol\":10159:10166  spender */\n      dup4\n        /* \"@openzeppelin/contracts@5.0.1/token/ERC20/ERC20.sol\":10159:10180  spender == address(0) */\n      0xffffffffffffffffffffffffffffffffffffffff\n      and\n      sub\n        /* \"@openzeppelin/contracts@5.0.1/token/ERC20/ERC20.sol\":10155:10245  if (spender == address(0)) {... */\n      tag_179\n      jumpi\n        /* \"@openzeppelin/contracts@5.0.1/token/ERC20/ERC20.sol\":10231:10232  0 */\n      0x00\n        /* \"@openzeppelin/contracts@5.0.1/token/ERC20/ERC20.sol\":10203:10234  ERC20InvalidSpender(address(0)) */\n      mload(0x40)\n      0x94280d6200000000000000000000000000000000000000000000000000000000\n      dup2\n      mstore\n      0x04\n      add\n      tag_180\n      swap2\n      swap1\n      tag_149\n      jump\t// in\n    tag_180:\n      mload(0x40)\n      dup1\n      swap2\n      sub\n      swap1\n      revert\n        /* \"@openzeppelin/contracts@5.0.1/token/ERC20/ERC20.sol\":10155:10245  if (spender == address(0)) {... */\n    tag_179:\n        /* \"@openzeppelin/contracts@5.0.1/token/ERC20/ERC20.sol\":10284:10289  value */\n      dup2\n        /* \"@openzeppelin/contracts@5.0.1/token/ERC20/ERC20.sol\":10254:10265  _allowances */\n      0x01\n        /* \"@openzeppelin/contracts@5.0.1/token/ERC20/ERC20.sol\":10254:10272  _allowances[owner] */\n      0x00\n        /* \"@openzeppelin/contracts@5.0.1/token/ERC20/ERC20.sol\":10266:10271  owner */\n      dup7\n        /* \"@openzeppelin/contracts@5.0.1/token/ERC20/ERC20.sol\":10254:10272  _allowances[owner] */\n      0xffffffffffffffffffffffffffffffffffffffff\n      and\n      0xffffffffffffffffffffffffffffffffffffffff\n      and\n      dup2\n      mstore\n      0x20\n      add\n      swap1\n      dup2\n      mstore\n      0x20\n      add\n      0x00\n      keccak256\n        /* \"@openzeppelin/contracts@5.0.1/token/ERC20/ERC20.sol\":10254:10281  _allowances[owner][spender] */\n      0x00\n        /* \"@openzeppelin/contracts@5.0.1/token/ERC20/ERC20.sol\":10273:10280  spender */\n      dup6\n        /* \"@openzeppelin/contracts@5.0.1/token/ERC20/ERC20.sol\":10254:10281  _allowances[owner][spender] */\n      0xffffffffffffffffffffffffffffffffffffffff\n      and\n      0xffffffffffffffffffffffffffffffffffffffff\n      and\n      dup2\n      mstore\n      0x20\n      add\n      swap1\n      dup2\n      mstore\n      0x20\n      add\n      0x00\n      keccak256\n        /* \"@openzeppelin/contracts@5.0.1/token/ERC20/ERC20.sol\":10254:10289  _allowances[owner][spender] = value */\n      dup2\n      swap1\n      sstore\n      pop\n        /* \"@openzeppelin/contracts@5.0.1/token/ERC20/ERC20.sol\":10303:10312  emitEvent */\n      dup1\n        /* \"@openzeppelin/contracts@5.0.1/token/ERC20/ERC20.sol\":10299:10375  if (emitEvent) {... */\n      iszero\n      tag_181\n      jumpi\n        /* \"@openzeppelin/contracts@5.0.1/token/ERC20/ERC20.sol\":10349:10356  spender */\n      dup3\n        /* \"@openzeppelin/contracts@5.0.1/token/ERC20/ERC20.sol\":10333:10364  Approval(owner, spender, value) */\n      0xffffffffffffffffffffffffffffffffffffffff\n      and\n        /* \"@openzeppelin/contracts@5.0.1/token/ERC20/ERC20.sol\":10342:10347  owner */\n      dup5\n        /* \"@openzeppelin/contracts@5.0.1/token/ERC20/ERC20.sol\":10333:10364  Approval(owner, spender, value) */\n      0xffffffffffffffffffffffffffffffffffffffff\n      and\n      0x8c5be1e5ebec7d5bd14f71427d1e84f3dd0314c0f7b2291e5b200ac8c7c3b925\n        /* \"@openzeppelin/contracts@5.0.1/token/ERC20/ERC20.sol\":10358:10363  value */\n      dup5\n        /* \"@openzeppelin/contracts@5.0.1/token/ERC20/ERC20.sol\":10333:10364  Approval(owner, spender, value) */\n      mload(0x40)\n      tag_182\n      swap2\n      swap1\n      tag_31\n      jump\t// in\n    tag_182:\n      mload(0x40)\n      dup1\n      swap2\n      sub\n      swap1\n      log3\n        /* \"@openzeppelin/contracts@5.0.1/token/ERC20/ERC20.sol\":10299:10375  if (emitEvent) {... */\n    tag_181:\n        /* \"@openzeppelin/contracts@5.0.1/token/ERC20/ERC20.sol\":9949:10381  function _approve(address owner, address spender, uint256 value, bool emitEvent) internal virtual {... */\n      pop\n      pop\n      pop\n      pop\n      jump\t// out\n        /* \"@openzeppelin/contracts@5.0.1/token/ERC20/ERC20.sol\":6271:7378  function _update(address from, address to, uint256 value) internal virtual {... */\n    tag_153:\n        /* \"@openzeppelin/contracts@5.0.1/token/ERC20/ERC20.sol\":6376:6377  0 */\n      0x00\n        /* \"@openzeppelin/contracts@5.0.1/token/ERC20/ERC20.sol\":6360:6378  from == address(0) */\n      0xffffffffffffffffffffffffffffffffffffffff\n      and\n        /* \"@openzeppelin/contracts@5.0.1/token/ERC20/ERC20.sol\":6360:6364  from */\n      dup4\n        /* \"@openzeppelin/contracts@5.0.1/token/ERC20/ERC20.sol\":6360:6378  from == address(0) */\n      0xffffffffffffffffffffffffffffffffffffffff\n      and\n      sub\n        /* \"@openzeppelin/contracts@5.0.1/token/ERC20/ERC20.sol\":6356:6896  if (from == address(0)) {... */\n      tag_184\n      jumpi\n        /* \"@openzeppelin/contracts@5.0.1/token/ERC20/ERC20.sol\":6512:6517  value */\n      dup1\n        /* \"@openzeppelin/contracts@5.0.1/token/ERC20/ERC20.sol\":6496:6508  _totalSupply */\n      0x02\n      0x00\n        /* \"@openzeppelin/contracts@5.0.1/token/ERC20/ERC20.sol\":6496:6517  _totalSupply += value */\n      dup3\n      dup3\n      sload\n      tag_185\n      swap2\n      swap1\n      tag_186\n      jump\t// in\n    tag_185:\n      swap3\n      pop\n      pop\n      dup2\n      swap1\n      sstore\n      pop\n        /* \"@openzeppelin/contracts@5.0.1/token/ERC20/ERC20.sol\":6356:6896  if (from == address(0)) {... */\n      jump(tag_187)\n    tag_184:\n        /* \"@openzeppelin/contracts@5.0.1/token/ERC20/ERC20.sol\":6548:6567  uint256 fromBalance */\n      0x00\n        /* \"@openzeppelin/contracts@5.0.1/token/ERC20/ERC20.sol\":6570:6579  _balances */\n      dup1\n        /* \"@openzeppelin/contracts@5.0.1/token/ERC20/ERC20.sol\":6570:6585  _balances[from] */\n      0x00\n        /* \"@openzeppelin/contracts@5.0.1/token/ERC20/ERC20.sol\":6580:6584  from */\n      dup6\n        /* \"@openzeppelin/contracts@5.0.1/token/ERC20/ERC20.sol\":6570:6585  _balances[from] */\n      0xffffffffffffffffffffffffffffffffffffffff\n      and\n      0xffffffffffffffffffffffffffffffffffffffff\n      and\n      dup2\n      mstore\n      0x20\n      add\n      swap1\n      dup2\n      mstore\n      0x20\n      add\n      0x00\n      keccak256\n      sload\n        /* \"@openzeppelin/contracts@5.0.1/token/ERC20/ERC20.sol\":6548:6585  uint256 fromBalance = _balances[from] */\n      swap1\n      pop\n        /* \"@openzeppelin/contracts@5.0.1/token/ERC20/ERC20.sol\":6617:6622  value */\n      dup2\n        /* \"@openzeppelin/contracts@5.0.1/token/ERC20/ERC20.sol\":6603:6614  fromBalance */\n      dup2\n        /* \"@openzeppelin/contracts@5.0.1/token/ERC20/ERC20.sol\":6603:6622  fromBalance < value */\n      lt\n        /* \"@openzeppelin/contracts@5.0.1/token/ERC20/ERC20.sol\":6599:6714  if (fromBalance < value) {... */\n      iszero\n      tag_188\n      jumpi\n        /* \"@openzeppelin/contracts@5.0.1/token/ERC20/ERC20.sol\":6674:6678  from */\n      dup4\n        /* \"@openzeppelin/contracts@5.0.1/token/ERC20/ERC20.sol\":6680:6691  fromBalance */\n      dup2\n        /* \"@openzeppelin/contracts@5.0.1/token/ERC20/ERC20.sol\":6693:6698  value */\n      dup4\n        /* \"@openzeppelin/contracts@5.0.1/token/ERC20/ERC20.sol\":6649:6699  ERC20InsufficientBalance(from, fromBalance, value) */\n      mload(0x40)\n      0xe450d38c00000000000000000000000000000000000000000000000000000000\n      dup2\n      mstore\n      0x04\n      add\n      tag_189\n      swap4\n      swap3\n      swap2\n      swap1\n      tag_144\n      jump\t// in\n    tag_189:\n      mload(0x40)\n      dup1\n      swap2\n      sub\n      swap1\n      revert\n        /* \"@openzeppelin/contracts@5.0.1/token/ERC20/ERC20.sol\":6599:6714  if (fromBalance < value) {... */\n    tag_188:\n        /* \"@openzeppelin/contracts@5.0.1/token/ERC20/ERC20.sol\":6866:6871  value */\n      dup2\n        /* \"@openzeppelin/contracts@5.0.1/token/ERC20/ERC20.sol\":6852:6863  fromBalance */\n      dup2\n        /* \"@openzeppelin/contracts@5.0.1/token/ERC20/ERC20.sol\":6852:6871  fromBalance - value */\n      sub\n        /* \"@openzeppelin/contracts@5.0.1/token/ERC20/ERC20.sol\":6834:6843  _balances */\n      0x00\n        /* \"@openzeppelin/contracts@5.0.1/token/ERC20/ERC20.sol\":6834:6849  _balances[from] */\n      dup1\n        /* \"@openzeppelin/contracts@5.0.1/token/ERC20/ERC20.sol\":6844:6848  from */\n      dup7\n        /* \"@openzeppelin/contracts@5.0.1/token/ERC20/ERC20.sol\":6834:6849  _balances[from] */\n      0xffffffffffffffffffffffffffffffffffffffff\n      and\n      0xffffffffffffffffffffffffffffffffffffffff\n      and\n      dup2\n      mstore\n      0x20\n      add\n      swap1\n      dup2\n      mstore\n      0x20\n      add\n      0x00\n      keccak256\n        /* \"@openzeppelin/contracts@5.0.1/token/ERC20/ERC20.sol\":6834:6871  _balances[from] = fromBalance - value */\n      dup2\n      swap1\n      sstore\n      pop\n        /* \"@openzeppelin/contracts@5.0.1/token/ERC20/ERC20.sol\":6534:6896  {... */\n      pop\n        /* \"@openzeppelin/contracts@5.0.1/token/ERC20/ERC20.sol\":6356:6896  if (from == address(0)) {... */\n    tag_187:\n        /* \"@openzeppelin/contracts@5.0.1/token/ERC20/ERC20.sol\":6924:6925  0 */\n      0x00\n        /* \"@openzeppelin/contracts@5.0.1/token/ERC20/ERC20.sol\":6910:6926  to == address(0) */\n      0xffffffffffffffffffffffffffffffffffffffff\n      and\n        /* \"@openzeppelin/contracts@5.0.1/token/ERC20/ERC20.sol\":6910:6912  to */\n      dup3\n        /* \"@openzeppelin/contracts@5.0.1/token/ERC20/ERC20.sol\":6910:6926  to == address(0) */\n      0xffffffffffffffffffffffffffffffffffffffff\n      and\n      sub\n        /* \"@openzeppelin/contracts@5.0.1/token/ERC20/ERC20.sol\":6906:7331  if (to == address(0)) {... */\n      tag_190\n      jumpi\n        /* \"@openzeppelin/contracts@5.0.1/token/ERC20/ERC20.sol\":7089:7094  value */\n      dup1\n        /* \"@openzeppelin/contracts@5.0.1/token/ERC20/ERC20.sol\":7073:7085  _totalSupply */\n      0x02\n      0x00\n        /* \"@openzeppelin/contracts@5.0.1/token/ERC20/ERC20.sol\":7073:7094  _totalSupply -= value */\n      dup3\n      dup3\n      sload\n      sub\n      swap3\n      pop\n      pop\n      dup2\n      swap1\n      sstore\n      pop\n        /* \"@openzeppelin/contracts@5.0.1/token/ERC20/ERC20.sol\":6906:7331  if (to == address(0)) {... */\n      jump(tag_191)\n    tag_190:\n        /* \"@openzeppelin/contracts@5.0.1/token/ERC20/ERC20.sol\":7301:7306  value */\n      dup1\n        /* \"@openzeppelin/contracts@5.0.1/token/ERC20/ERC20.sol\":7284:7293  _balances */\n      0x00\n        /* \"@openzeppelin/contracts@5.0.1/token/ERC20/ERC20.sol\":7284:7297  _balances[to] */\n      dup1\n        /* \"@openzeppelin/contracts@5.0.1/token/ERC20/ERC20.sol\":7294:7296  to */\n      dup5\n        /* \"@openzeppelin/contracts@5.0.1/token/ERC20/ERC20.sol\":7284:7297  _balances[to] */\n      0xffffffffffffffffffffffffffffffffffffffff\n      and\n      0xffffffffffffffffffffffffffffffffffffffff\n      and\n      dup2\n      mstore\n      0x20\n      add\n      swap1\n      dup2\n      mstore\n      0x20\n      add\n      0x00\n      keccak256\n      0x00\n        /* \"@openzeppelin/contracts@5.0.1/token/ERC20/ERC20.sol\":7284:7306  _balances[to] += value */\n      dup3\n      dup3\n      sload\n      add\n      swap3\n      pop\n      pop\n      dup2\n      swap1\n      sstore\n      pop\n        /* \"@openzeppelin/contracts@5.0.1/token/ERC20/ERC20.sol\":6906:7331  if (to == address(0)) {... */\n    tag_191:\n        /* \"@openzeppelin/contracts@5.0.1/token/ERC20/ERC20.sol\":7361:7363  to */\n      dup2\n        /* \"@openzeppelin/contracts@5.0.1/token/ERC20/ERC20.sol\":7346:7371  Transfer(from, to, value) */\n      0xffffffffffffffffffffffffffffffffffffffff\n      and\n        /* \"@openzeppelin/contracts@5.0.1/token/ERC20/ERC20.sol\":7355:7359  from */\n      dup4\n        /* \"@openzeppelin/contracts@5.0.1/token/ERC20/ERC20.sol\":7346:7371  Transfer(from, to, value) */\n      0xffffffffffffffffffffffffffffffffffffffff\n      and\n      0xddf252ad1be2c89b69c2b068fc378daa952ba7f163c4a11628f55a4df523b3ef\n        /* \"@openzeppelin/contracts@5.0.1/token/ERC20/ERC20.sol\":7365:7370  value */\n      dup4\n        /* \"@openzeppelin/contracts@5.0.1/token/ERC20/ERC20.sol\":7346:7371  Transfer(from, to, value) */\n      mload(0x40)\n      tag_192\n      swap2\n      swap1\n      tag_31\n      jump\t// in\n    tag_192:\n      mload(0x40)\n      dup1\n      swap2\n      sub\n      swap1\n      log3\n        /* \"@openzeppelin/contracts@5.0.1/token/ERC20/ERC20.sol\":6271:7378  function _update(address from, address to, uint256 value) internal virtual {... */\n      pop\n      pop\n      pop\n      jump\t// out\n        /* \"@openzeppelin/contracts@5.0.1/utils/cryptography/EIP712.sol\":4113:4292  function _buildDomainSeparator() private view returns (bytes32) {... */\n    tag_159:\n        /* \"@openzeppelin/contracts@5.0.1/utils/cryptography/EIP712.sol\":4168:4175  bytes32 */\n      0x00\n        /* \"@openzeppelin/contracts@5.0.1/utils/cryptography/EIP712.sol\":2079:2174  keccak256(\"EIP712Domain(string name,string version,uint256 chainId,address verifyingContract)\") */\n      0x8b73c3c69bb8fe3d512ecc4cf759cc79239f7b179b0ffacaa9a75d522b39400f\n        /* \"@openzeppelin/contracts@5.0.1/utils/cryptography/EIP712.sol\":4226:4237  _hashedName */\n      immutable(\"0x7046b97b103039cb97ea5110f1f4832d5d00e701e21d67c9f93f60c215815d45\")\n        /* \"@openzeppelin/contracts@5.0.1/utils/cryptography/EIP712.sol\":4239:4253  _hashedVersion */\n      immutable(\"0xf22c5b16043446a68d62f47815793cbbc874be5b2e65e9e313507336d6583f6d\")\n        /* \"@openzeppelin/contracts@5.0.1/utils/cryptography/EIP712.sol\":4255:4268  block.chainid */\n      chainid\n        /* \"@openzeppelin/contracts@5.0.1/utils/cryptography/EIP712.sol\":4278:4282  this */\n      address\n        /* \"@openzeppelin/contracts@5.0.1/utils/cryptography/EIP712.sol\":4204:4284  abi.encode(TYPE_HASH, _hashedName, _hashedVersion, block.chainid, address(this)) */\n      add(0x20, mload(0x40))\n      tag_194\n      swap6\n      swap5\n      swap4\n      swap3\n      swap2\n      swap1\n      tag_195\n      jump\t// in\n    tag_194:\n      mload(0x40)\n      0x20\n      dup2\n      dup4\n      sub\n      sub\n      dup2\n      mstore\n      swap1\n      0x40\n      mstore\n        /* \"@openzeppelin/contracts@5.0.1/utils/cryptography/EIP712.sol\":4194:4285  keccak256(abi.encode(TYPE_HASH, _hashedName, _hashedVersion, block.chainid, address(this))) */\n      dup1\n      mload\n      swap1\n      0x20\n      add\n      keccak256\n        /* \"@openzeppelin/contracts@5.0.1/utils/cryptography/EIP712.sol\":4187:4285  return keccak256(abi.encode(TYPE_HASH, _hashedName, _hashedVersion, block.chainid, address(this))) */\n      swap1\n      pop\n        /* \"@openzeppelin/contracts@5.0.1/utils/cryptography/EIP712.sol\":4113:4292  function _buildDomainSeparator() private view returns (bytes32) {... */\n      swap1\n      jump\t// out\n        /* \"@openzeppelin/contracts@5.0.1/utils/ShortStrings.sol\":3385:3652  function toStringWithFallback(ShortString value, string storage store) internal pure returns (string memory) {... */\n    tag_163:\n        /* \"@openzeppelin/contracts@5.0.1/utils/ShortStrings.sol\":3479:3492  string memory */\n      0x60\n        /* \"@openzeppelin/contracts@5.0.1/utils/ShortStrings.sol\":1390:1456  0x00000000000000000000000000000000000000000000000000000000000000FF */\n      0xff\n        /* \"@openzeppelin/contracts@5.0.1/utils/ShortStrings.sol\":3537:3554  FALLBACK_SENTINEL */\n      0x00\n      shl\n        /* \"@openzeppelin/contracts@5.0.1/utils/ShortStrings.sol\":3527:3532  value */\n      dup4\n        /* \"@openzeppelin/contracts@5.0.1/utils/ShortStrings.sol\":3508:3554  ShortString.unwrap(value) != FALLBACK_SENTINEL */\n      eq\n        /* \"@openzeppelin/contracts@5.0.1/utils/ShortStrings.sol\":3504:3646  if (ShortString.unwrap(value) != FALLBACK_SENTINEL) {... */\n      tag_197\n      jumpi\n        /* \"@openzeppelin/contracts@5.0.1/utils/ShortStrings.sol\":3577:3592  toString(value) */\n      tag_198\n        /* \"@openzeppelin/contracts@5.0.1/utils/ShortStrings.sol\":3586:3591  value */\n      dup4\n        /* \"@openzeppelin/contracts@5.0.1/utils/ShortStrings.sol\":3577:3585  toString */\n      tag_199\n        /* \"@openzeppelin/contracts@5.0.1/utils/ShortStrings.sol\":3577:3592  toString(value) */\n      jump\t// in\n    tag_198:\n        /* \"@openzeppelin/contracts@5.0.1/utils/ShortStrings.sol\":3570:3592  return toString(value) */\n      swap1\n      pop\n      jump(tag_196)\n        /* \"@openzeppelin/contracts@5.0.1/utils/ShortStrings.sol\":3504:3646  if (ShortString.unwrap(value) != FALLBACK_SENTINEL) {... */\n    tag_197:\n        /* \"@openzeppelin/contracts@5.0.1/utils/ShortStrings.sol\":3630:3635  store */\n      dup2\n        /* \"@openzeppelin/contracts@5.0.1/utils/ShortStrings.sol\":3623:3635  return store */\n      dup1\n      sload\n      tag_201\n      swap1\n      tag_76\n      jump\t// in\n    tag_201:\n      dup1\n      0x1f\n      add\n      0x20\n      dup1\n      swap2\n      div\n      mul\n      0x20\n      add\n      mload(0x40)\n      swap1\n      dup2\n      add\n      0x40\n      mstore\n      dup1\n      swap3\n      swap2\n      swap1\n      dup2\n      dup2\n      mstore\n      0x20\n      add\n      dup3\n      dup1\n      sload\n      tag_202\n      swap1\n      tag_76\n      jump\t// in\n    tag_202:\n      dup1\n      iszero\n      tag_203\n      jumpi\n      dup1\n      0x1f\n      lt\n      tag_204\n      jumpi\n      0x0100\n      dup1\n      dup4\n      sload\n      div\n      mul\n      dup4\n      mstore\n      swap2\n      0x20\n      add\n      swap2\n      jump(tag_203)\n    tag_204:\n      dup3\n      add\n      swap2\n      swap1\n      0x00\n      mstore\n      keccak256(0x00, 0x20)\n      swap1\n    tag_205:\n      dup2\n      sload\n      dup2\n      mstore\n      swap1\n      0x01\n      add\n      swap1\n      0x20\n      add\n      dup1\n      dup4\n      gt\n      tag_205\n      jumpi\n      dup3\n      swap1\n      sub\n      0x1f\n      and\n      dup3\n      add\n      swap2\n    tag_203:\n      pop\n      pop\n      pop\n      pop\n      pop\n      swap1\n      pop\n        /* \"@openzeppelin/contracts@5.0.1/utils/ShortStrings.sol\":3385:3652  function toStringWithFallback(ShortString value, string storage store) internal pure returns (string memory) {... */\n    tag_196:\n      swap3\n      swap2\n      pop\n      pop\n      jump\t// out\n        /* \"@openzeppelin/contracts@5.0.1/utils/cryptography/MessageHashUtils.sol\":3353:3754  function toTypedDataHash(bytes32 domainSeparator, bytes32 structHash) internal pure returns (bytes32 digest) {... */\n    tag_170:\n        /* \"@openzeppelin/contracts@5.0.1/utils/cryptography/MessageHashUtils.sol\":3446:3460  bytes32 digest */\n      0x00\n        /* \"@openzeppelin/contracts@5.0.1/utils/cryptography/MessageHashUtils.sol\":3555:3559  0x40 */\n      0x40\n        /* \"@openzeppelin/contracts@5.0.1/utils/cryptography/MessageHashUtils.sol\":3549:3560  mload(0x40) */\n      mload\n        /* \"@openzeppelin/contracts@5.0.1/utils/cryptography/MessageHashUtils.sol\":3585:3595  hex\"19_01\" */\n      0x1901000000000000000000000000000000000000000000000000000000000000\n        /* \"@openzeppelin/contracts@5.0.1/utils/cryptography/MessageHashUtils.sol\":3580:3583  ptr */\n      dup2\n        /* \"@openzeppelin/contracts@5.0.1/utils/cryptography/MessageHashUtils.sol\":3573:3596  mstore(ptr, hex\"19_01\") */\n      mstore\n        /* \"@openzeppelin/contracts@5.0.1/utils/cryptography/MessageHashUtils.sol\":3632:3647  domainSeparator */\n      dup4\n        /* \"@openzeppelin/contracts@5.0.1/utils/cryptography/MessageHashUtils.sol\":3625:3629  0x02 */\n      0x02\n        /* \"@openzeppelin/contracts@5.0.1/utils/cryptography/MessageHashUtils.sol\":3620:3623  ptr */\n      dup3\n        /* \"@openzeppelin/contracts@5.0.1/utils/cryptography/MessageHashUtils.sol\":3616:3630  add(ptr, 0x02) */\n      add\n        /* \"@openzeppelin/contracts@5.0.1/utils/cryptography/MessageHashUtils.sol\":3609:3648  mstore(add(ptr, 0x02), domainSeparator) */\n      mstore\n        /* \"@openzeppelin/contracts@5.0.1/utils/cryptography/MessageHashUtils.sol\":3684:3694  structHash */\n      dup3\n        /* \"@openzeppelin/contracts@5.0.1/utils/cryptography/MessageHashUtils.sol\":3677:3681  0x22 */\n      0x22\n        /* \"@openzeppelin/contracts@5.0.1/utils/cryptography/MessageHashUtils.sol\":3672:3675  ptr */\n      dup3\n        /* \"@openzeppelin/contracts@5.0.1/utils/cryptography/MessageHashUtils.sol\":3668:3682  add(ptr, 0x22) */\n      add\n        /* \"@openzeppelin/contracts@5.0.1/utils/cryptography/MessageHashUtils.sol\":3661:3695  mstore(add(ptr, 0x22), structHash) */\n      mstore\n        /* \"@openzeppelin/contracts@5.0.1/utils/cryptography/MessageHashUtils.sol\":3733:3737  0x42 */\n      0x42\n        /* \"@openzeppelin/contracts@5.0.1/utils/cryptography/MessageHashUtils.sol\":3728:3731  ptr */\n      dup2\n        /* \"@openzeppelin/contracts@5.0.1/utils/cryptography/MessageHashUtils.sol\":3718:3738  keccak256(ptr, 0x42) */\n      keccak256\n        /* \"@openzeppelin/contracts@5.0.1/utils/cryptography/MessageHashUtils.sol\":3708:3738  digest := keccak256(ptr, 0x42) */\n      swap2\n      pop\n        /* \"@openzeppelin/contracts@5.0.1/utils/cryptography/MessageHashUtils.sol\":3524:3748  {... */\n      pop\n        /* \"@openzeppelin/contracts@5.0.1/utils/cryptography/MessageHashUtils.sol\":3353:3754  function toTypedDataHash(bytes32 domainSeparator, bytes32 structHash) internal pure returns (bytes32 digest) {... */\n      swap3\n      swap2\n      pop\n      pop\n      jump\t// out\n        /* \"@openzeppelin/contracts@5.0.1/utils/cryptography/ECDSA.sol\":5140:6670  function tryRecover(... */\n    tag_173:\n        /* \"@openzeppelin/contracts@5.0.1/utils/cryptography/ECDSA.sol\":5266:5273  address */\n      0x00\n        /* \"@openzeppelin/contracts@5.0.1/utils/cryptography/ECDSA.sol\":5275:5287  RecoverError */\n      dup1\n        /* \"@openzeppelin/contracts@5.0.1/utils/cryptography/ECDSA.sol\":5289:5296  bytes32 */\n      0x00\n        /* \"@openzeppelin/contracts@5.0.1/utils/cryptography/ECDSA.sol\":6199:6265  0x7FFFFFFFFFFFFFFFFFFFFFFFFFFFFFFF5D576E7357A4501DDFE92F46681B20A0 */\n      0x7fffffffffffffffffffffffffffffff5d576e7357a4501ddfe92f46681b20a0\n        /* \"@openzeppelin/contracts@5.0.1/utils/cryptography/ECDSA.sol\":6194:6195  s */\n      dup5\n        /* \"@openzeppelin/contracts@5.0.1/utils/cryptography/ECDSA.sol\":6186:6196  uint256(s) */\n      0x00\n      shr\n        /* \"@openzeppelin/contracts@5.0.1/utils/cryptography/ECDSA.sol\":6186:6265  uint256(s) > 0x7FFFFFFFFFFFFFFFFFFFFFFFFFFFFFFF5D576E7357A4501DDFE92F46681B20A0 */\n      gt\n        /* \"@openzeppelin/contracts@5.0.1/utils/cryptography/ECDSA.sol\":6182:6346  if (uint256(s) > 0x7FFFFFFFFFFFFFFFFFFFFFFFFFFFFFFF5D576E7357A4501DDFE92F46681B20A0) {... */\n      iszero\n      tag_208\n      jumpi\n        /* \"@openzeppelin/contracts@5.0.1/utils/cryptography/ECDSA.sol\":6297:6298  0 */\n      0x00\n        /* \"@openzeppelin/contracts@5.0.1/utils/cryptography/ECDSA.sol\":6301:6331  RecoverError.InvalidSignatureS */\n      0x03\n        /* \"@openzeppelin/contracts@5.0.1/utils/cryptography/ECDSA.sol\":6333:6334  s */\n      dup6\n        /* \"@openzeppelin/contracts@5.0.1/utils/cryptography/ECDSA.sol\":6281:6335  return (address(0), RecoverError.InvalidSignatureS, s) */\n      swap3\n      pop\n      swap3\n      pop\n      swap3\n      pop\n      jump(tag_207)\n        /* \"@openzeppelin/contracts@5.0.1/utils/cryptography/ECDSA.sol\":6182:6346  if (uint256(s) > 0x7FFFFFFFFFFFFFFFFFFFFFFFFFFFFFFF5D576E7357A4501DDFE92F46681B20A0) {... */\n    tag_208:\n        /* \"@openzeppelin/contracts@5.0.1/utils/cryptography/ECDSA.sol\":6440:6454  address signer */\n      0x00\n        /* \"@openzeppelin/contracts@5.0.1/utils/cryptography/ECDSA.sol\":6457:6481  ecrecover(hash, v, r, s) */\n      0x01\n        /* \"@openzeppelin/contracts@5.0.1/utils/cryptography/ECDSA.sol\":6467:6471  hash */\n      dup9\n        /* \"@openzeppelin/contracts@5.0.1/utils/cryptography/ECDSA.sol\":6473:6474  v */\n      dup9\n        /* \"@openzeppelin/contracts@5.0.1/utils/cryptography/ECDSA.sol\":6476:6477  r */\n      dup9\n        /* \"@openzeppelin/contracts@5.0.1/utils/cryptography/ECDSA.sol\":6479:6480  s */\n      dup9\n        /* \"@openzeppelin/contracts@5.0.1/utils/cryptography/ECDSA.sol\":6457:6481  ecrecover(hash, v, r, s) */\n      mload(0x40)\n      0x00\n      dup2\n      mstore\n      0x20\n      add\n      0x40\n      mstore\n      mload(0x40)\n      tag_209\n      swap5\n      swap4\n      swap3\n      swap2\n      swap1\n      tag_210\n      jump\t// in\n    tag_209:\n      0x20\n      mload(0x40)\n      0x20\n      dup2\n      sub\n      swap1\n      dup1\n      dup5\n      sub\n      swap1\n      dup6\n      gas\n      staticcall\n      iszero\n      dup1\n      iszero\n      tag_212\n      jumpi\n      returndatasize\n      0x00\n      dup1\n      returndatacopy\n      revert(0x00, returndatasize)\n    tag_212:\n      pop\n      pop\n      pop\n      mload(sub(mload(0x40), 0x20))\n        /* \"@openzeppelin/contracts@5.0.1/utils/cryptography/ECDSA.sol\":6440:6481  address signer = ecrecover(hash, v, r, s) */\n      swap1\n      pop\n        /* \"@openzeppelin/contracts@5.0.1/utils/cryptography/ECDSA.sol\":6513:6514  0 */\n      0x00\n        /* \"@openzeppelin/contracts@5.0.1/utils/cryptography/ECDSA.sol\":6495:6515  signer == address(0) */\n      0xffffffffffffffffffffffffffffffffffffffff\n      and\n        /* \"@openzeppelin/contracts@5.0.1/utils/cryptography/ECDSA.sol\":6495:6501  signer */\n      dup2\n        /* \"@openzeppelin/contracts@5.0.1/utils/cryptography/ECDSA.sol\":6495:6515  signer == address(0) */\n      0xffffffffffffffffffffffffffffffffffffffff\n      and\n      sub\n        /* \"@openzeppelin/contracts@5.0.1/utils/cryptography/ECDSA.sol\":6491:6604  if (signer == address(0)) {... */\n      tag_213\n      jumpi\n        /* \"@openzeppelin/contracts@5.0.1/utils/cryptography/ECDSA.sol\":6547:6548  0 */\n      0x00\n        /* \"@openzeppelin/contracts@5.0.1/utils/cryptography/ECDSA.sol\":6551:6580  RecoverError.InvalidSignature */\n      0x01\n        /* \"@openzeppelin/contracts@5.0.1/utils/cryptography/ECDSA.sol\":6590:6591  0 */\n      0x00\n        /* \"@openzeppelin/contracts@5.0.1/utils/cryptography/ECDSA.sol\":6582:6592  bytes32(0) */\n      dup1\n      shl\n        /* \"@openzeppelin/contracts@5.0.1/utils/cryptography/ECDSA.sol\":6531:6593  return (address(0), RecoverError.InvalidSignature, bytes32(0)) */\n      swap4\n      pop\n      swap4\n      pop\n      swap4\n      pop\n      pop\n      jump(tag_207)\n        /* \"@openzeppelin/contracts@5.0.1/utils/cryptography/ECDSA.sol\":6491:6604  if (signer == address(0)) {... */\n    tag_213:\n        /* \"@openzeppelin/contracts@5.0.1/utils/cryptography/ECDSA.sol\":6622:6628  signer */\n      dup1\n        /* \"@openzeppelin/contracts@5.0.1/utils/cryptography/ECDSA.sol\":6630:6650  RecoverError.NoError */\n      0x00\n        /* \"@openzeppelin/contracts@5.0.1/utils/cryptography/ECDSA.sol\":6660:6661  0 */\n      dup1\n        /* \"@openzeppelin/contracts@5.0.1/utils/cryptography/ECDSA.sol\":6652:6662  bytes32(0) */\n      0x00\n      shl\n        /* \"@openzeppelin/contracts@5.0.1/utils/cryptography/ECDSA.sol\":6614:6663  return (signer, RecoverError.NoError, bytes32(0)) */\n      swap4\n      pop\n      swap4\n      pop\n      swap4\n      pop\n      pop\n        /* \"@openzeppelin/contracts@5.0.1/utils/cryptography/ECDSA.sol\":5140:6670  function tryRecover(... */\n    tag_207:\n      swap5\n      pop\n      swap5\n      pop\n      swap5\n      swap2\n      pop\n      pop\n      jump\t// out\n        /* \"@openzeppelin/contracts@5.0.1/utils/cryptography/ECDSA.sol\":7196:7728  function _throwError(RecoverError error, bytes32 errorArg) private pure {... */\n    tag_175:\n        /* \"@openzeppelin/contracts@5.0.1/utils/cryptography/ECDSA.sol\":7291:7311  RecoverError.NoError */\n      0x00\n        /* \"@openzeppelin/contracts@5.0.1/utils/cryptography/ECDSA.sol\":7282:7311  error == RecoverError.NoError */\n      0x03\n      dup2\n      gt\n      iszero\n      tag_215\n      jumpi\n      tag_216\n      tag_217\n      jump\t// in\n    tag_216:\n    tag_215:\n        /* \"@openzeppelin/contracts@5.0.1/utils/cryptography/ECDSA.sol\":7282:7287  error */\n      dup3\n        /* \"@openzeppelin/contracts@5.0.1/utils/cryptography/ECDSA.sol\":7282:7311  error == RecoverError.NoError */\n      0x03\n      dup2\n      gt\n      iszero\n      tag_218\n      jumpi\n      tag_219\n      tag_217\n      jump\t// in\n    tag_219:\n    tag_218:\n      sub\n        /* \"@openzeppelin/contracts@5.0.1/utils/cryptography/ECDSA.sol\":7278:7722  if (error == RecoverError.NoError) {... */\n      iszero\n        /* \"@openzeppelin/contracts@5.0.1/utils/cryptography/ECDSA.sol\":7327:7334  return; */\n      tag_214\n        /* \"@openzeppelin/contracts@5.0.1/utils/cryptography/ECDSA.sol\":7278:7722  if (error == RecoverError.NoError) {... */\n      jumpi\n        /* \"@openzeppelin/contracts@5.0.1/utils/cryptography/ECDSA.sol\":7387:7416  RecoverError.InvalidSignature */\n      0x01\n        /* \"@openzeppelin/contracts@5.0.1/utils/cryptography/ECDSA.sol\":7378:7416  error == RecoverError.InvalidSignature */\n      0x03\n      dup2\n      gt\n      iszero\n      tag_222\n      jumpi\n      tag_223\n      tag_217\n      jump\t// in\n    tag_223:\n    tag_222:\n        /* \"@openzeppelin/contracts@5.0.1/utils/cryptography/ECDSA.sol\":7378:7383  error */\n      dup3\n        /* \"@openzeppelin/contracts@5.0.1/utils/cryptography/ECDSA.sol\":7378:7416  error == RecoverError.InvalidSignature */\n      0x03\n      dup2\n      gt\n      iszero\n      tag_224\n      jumpi\n      tag_225\n      tag_217\n      jump\t// in\n    tag_225:\n    tag_224:\n      sub\n        /* \"@openzeppelin/contracts@5.0.1/utils/cryptography/ECDSA.sol\":7374:7722  if (error == RecoverError.InvalidSignature) {... */\n      tag_226\n      jumpi\n        /* \"@openzeppelin/contracts@5.0.1/utils/cryptography/ECDSA.sol\":7439:7462  ECDSAInvalidSignature() */\n      mload(0x40)\n      0xf645eedf00000000000000000000000000000000000000000000000000000000\n      dup2\n      mstore\n      0x04\n      add\n      mload(0x40)\n      dup1\n      swap2\n      sub\n      swap1\n      revert\n        /* \"@openzeppelin/contracts@5.0.1/utils/cryptography/ECDSA.sol\":7374:7722  if (error == RecoverError.InvalidSignature) {... */\n    tag_226:\n        /* \"@openzeppelin/contracts@5.0.1/utils/cryptography/ECDSA.sol\":7492:7527  RecoverError.InvalidSignatureLength */\n      0x02\n        /* \"@openzeppelin/contracts@5.0.1/utils/cryptography/ECDSA.sol\":7483:7527  error == RecoverError.InvalidSignatureLength */\n      0x03\n      dup2\n      gt\n      iszero\n      tag_228\n      jumpi\n      tag_229\n      tag_217\n      jump\t// in\n    tag_229:\n    tag_228:\n        /* \"@openzeppelin/contracts@5.0.1/utils/cryptography/ECDSA.sol\":7483:7488  error */\n      dup3\n        /* \"@openzeppelin/contracts@5.0.1/utils/cryptography/ECDSA.sol\":7483:7527  error == RecoverError.InvalidSignatureLength */\n      0x03\n      dup2\n      gt\n      iszero\n      tag_230\n      jumpi\n      tag_231\n      tag_217\n      jump\t// in\n    tag_231:\n    tag_230:\n      sub\n        /* \"@openzeppelin/contracts@5.0.1/utils/cryptography/ECDSA.sol\":7479:7722  if (error == RecoverError.InvalidSignatureLength) {... */\n      tag_232\n      jumpi\n        /* \"@openzeppelin/contracts@5.0.1/utils/cryptography/ECDSA.sol\":7586:7594  errorArg */\n      dup1\n        /* \"@openzeppelin/contracts@5.0.1/utils/cryptography/ECDSA.sol\":7578:7595  uint256(errorArg) */\n      0x00\n      shr\n        /* \"@openzeppelin/contracts@5.0.1/utils/cryptography/ECDSA.sol\":7550:7596  ECDSAInvalidSignatureLength(uint256(errorArg)) */\n      mload(0x40)\n      0xfce698f700000000000000000000000000000000000000000000000000000000\n      dup2\n      mstore\n      0x04\n      add\n      tag_233\n      swap2\n      swap1\n      tag_31\n      jump\t// in\n    tag_233:\n      mload(0x40)\n      dup1\n      swap2\n      sub\n      swap1\n      revert\n        /* \"@openzeppelin/contracts@5.0.1/utils/cryptography/ECDSA.sol\":7479:7722  if (error == RecoverError.InvalidSignatureLength) {... */\n    tag_232:\n        /* \"@openzeppelin/contracts@5.0.1/utils/cryptography/ECDSA.sol\":7626:7656  RecoverError.InvalidSignatureS */\n      0x03\n        /* \"@openzeppelin/contracts@5.0.1/utils/cryptography/ECDSA.sol\":7617:7656  error == RecoverError.InvalidSignatureS */\n      dup1\n      dup2\n      gt\n      iszero\n      tag_235\n      jumpi\n      tag_236\n      tag_217\n      jump\t// in\n    tag_236:\n    tag_235:\n        /* \"@openzeppelin/contracts@5.0.1/utils/cryptography/ECDSA.sol\":7617:7622  error */\n      dup3\n        /* \"@openzeppelin/contracts@5.0.1/utils/cryptography/ECDSA.sol\":7617:7656  error == RecoverError.InvalidSignatureS */\n      0x03\n      dup2\n      gt\n      iszero\n      tag_237\n      jumpi\n      tag_238\n      tag_217\n      jump\t// in\n    tag_238:\n    tag_237:\n      sub\n        /* \"@openzeppelin/contracts@5.0.1/utils/cryptography/ECDSA.sol\":7613:7722  if (error == RecoverError.InvalidSignatureS) {... */\n      tag_239\n      jumpi\n        /* \"@openzeppelin/contracts@5.0.1/utils/cryptography/ECDSA.sol\":7702:7710  errorArg */\n      dup1\n        /* \"@openzeppelin/contracts@5.0.1/utils/cryptography/ECDSA.sol\":7679:7711  ECDSAInvalidSignatureS(errorArg) */\n      mload(0x40)\n      0xd78bce0c00000000000000000000000000000000000000000000000000000000\n      dup2\n      mstore\n      0x04\n      add\n      tag_240\n      swap2\n      swap1\n      tag_44\n      jump\t// in\n    tag_240:\n      mload(0x40)\n      dup1\n      swap2\n      sub\n      swap1\n      revert\n        /* \"@openzeppelin/contracts@5.0.1/utils/cryptography/ECDSA.sol\":7613:7722  if (error == RecoverError.InvalidSignatureS) {... */\n    tag_239:\n        /* \"@openzeppelin/contracts@5.0.1/utils/cryptography/ECDSA.sol\":7196:7728  function _throwError(RecoverError error, bytes32 errorArg) private pure {... */\n    tag_214:\n      pop\n      pop\n      jump\t// out\n        /* \"@openzeppelin/contracts@5.0.1/utils/ShortStrings.sol\":2078:2483  function toString(ShortString sstr) internal pure returns (string memory) {... */\n    tag_199:\n        /* \"@openzeppelin/contracts@5.0.1/utils/ShortStrings.sol\":2137:2150  string memory */\n      0x60\n        /* \"@openzeppelin/contracts@5.0.1/utils/ShortStrings.sol\":2162:2173  uint256 len */\n      0x00\n        /* \"@openzeppelin/contracts@5.0.1/utils/ShortStrings.sol\":2176:2192  byteLength(sstr) */\n      tag_242\n        /* \"@openzeppelin/contracts@5.0.1/utils/ShortStrings.sol\":2187:2191  sstr */\n      dup4\n        /* \"@openzeppelin/contracts@5.0.1/utils/ShortStrings.sol\":2176:2186  byteLength */\n      tag_243\n        /* \"@openzeppelin/contracts@5.0.1/utils/ShortStrings.sol\":2176:2192  byteLength(sstr) */\n      jump\t// in\n    tag_242:\n        /* \"@openzeppelin/contracts@5.0.1/utils/ShortStrings.sol\":2162:2192  uint256 len = byteLength(sstr) */\n      swap1\n      pop\n        /* \"@openzeppelin/contracts@5.0.1/utils/ShortStrings.sol\":2280:2297  string memory str */\n      0x00\n        /* \"@openzeppelin/contracts@5.0.1/utils/ShortStrings.sol\":2311:2313  32 */\n      0x20\n        /* \"@openzeppelin/contracts@5.0.1/utils/ShortStrings.sol\":2300:2314  new string(32) */\n      0xffffffffffffffff\n      dup2\n      gt\n      iszero\n      tag_244\n      jumpi\n      tag_245\n      tag_108\n      jump\t// in\n    tag_245:\n    tag_244:\n      mload(0x40)\n      swap1\n      dup1\n      dup3\n      mstore\n      dup1\n      0x1f\n      add\n      not(0x1f)\n      and\n      0x20\n      add\n      dup3\n      add\n      0x40\n      mstore\n      dup1\n      iszero\n      tag_246\n      jumpi\n      dup2\n      0x20\n      add\n      0x01\n      dup3\n      mul\n      dup1\n      calldatasize\n      dup4\n      calldatacopy\n      dup1\n      dup3\n      add\n      swap2\n      pop\n      pop\n      swap1\n      pop\n    tag_246:\n      pop\n        /* \"@openzeppelin/contracts@5.0.1/utils/ShortStrings.sol\":2280:2314  string memory str = new string(32) */\n      swap1\n      pop\n        /* \"@openzeppelin/contracts@5.0.1/utils/ShortStrings.sol\":2402:2405  len */\n      dup2\n        /* \"@openzeppelin/contracts@5.0.1/utils/ShortStrings.sol\":2397:2400  str */\n      dup2\n        /* \"@openzeppelin/contracts@5.0.1/utils/ShortStrings.sol\":2390:2406  mstore(str, len) */\n      mstore\n        /* \"@openzeppelin/contracts@5.0.1/utils/ShortStrings.sol\":2442:2446  sstr */\n      dup4\n        /* \"@openzeppelin/contracts@5.0.1/utils/ShortStrings.sol\":2435:2439  0x20 */\n      0x20\n        /* \"@openzeppelin/contracts@5.0.1/utils/ShortStrings.sol\":2430:2433  str */\n      dup3\n        /* \"@openzeppelin/contracts@5.0.1/utils/ShortStrings.sol\":2426:2440  add(str, 0x20) */\n      add\n        /* \"@openzeppelin/contracts@5.0.1/utils/ShortStrings.sol\":2419:2447  mstore(add(str, 0x20), sstr) */\n      mstore\n        /* \"@openzeppelin/contracts@5.0.1/utils/ShortStrings.sol\":2473:2476  str */\n      dup1\n        /* \"@openzeppelin/contracts@5.0.1/utils/ShortStrings.sol\":2466:2476  return str */\n      swap3\n      pop\n      pop\n      pop\n        /* \"@openzeppelin/contracts@5.0.1/utils/ShortStrings.sol\":2078:2483  function toString(ShortString sstr) internal pure returns (string memory) {... */\n      swap2\n      swap1\n      pop\n      jump\t// out\n        /* \"@openzeppelin/contracts@5.0.1/utils/ShortStrings.sol\":2555:2800  function byteLength(ShortString sstr) internal pure returns (uint256) {... */\n    tag_243:\n        /* \"@openzeppelin/contracts@5.0.1/utils/ShortStrings.sol\":2616:2623  uint256 */\n      0x00\n        /* \"@openzeppelin/contracts@5.0.1/utils/ShortStrings.sol\":2635:2649  uint256 result */\n      dup1\n        /* \"@openzeppelin/contracts@5.0.1/utils/ShortStrings.sol\":2688:2692  0xFF */\n      0xff\n        /* \"@openzeppelin/contracts@5.0.1/utils/ShortStrings.sol\":2679:2683  sstr */\n      dup4\n        /* \"@openzeppelin/contracts@5.0.1/utils/ShortStrings.sol\":2652:2685  uint256(ShortString.unwrap(sstr)) */\n      0x00\n      shr\n        /* \"@openzeppelin/contracts@5.0.1/utils/ShortStrings.sol\":2652:2692  uint256(ShortString.unwrap(sstr)) & 0xFF */\n      and\n        /* \"@openzeppelin/contracts@5.0.1/utils/ShortStrings.sol\":2635:2692  uint256 result = uint256(ShortString.unwrap(sstr)) & 0xFF */\n      swap1\n      pop\n        /* \"@openzeppelin/contracts@5.0.1/utils/ShortStrings.sol\":2715:2717  31 */\n      0x1f\n        /* \"@openzeppelin/contracts@5.0.1/utils/ShortStrings.sol\":2706:2712  result */\n      dup2\n        /* \"@openzeppelin/contracts@5.0.1/utils/ShortStrings.sol\":2706:2717  result > 31 */\n      gt\n        /* \"@openzeppelin/contracts@5.0.1/utils/ShortStrings.sol\":2702:2771  if (result > 31) {... */\n      iszero\n      tag_248\n      jumpi\n        /* \"@openzeppelin/contracts@5.0.1/utils/ShortStrings.sol\":2740:2760  InvalidShortString() */\n      mload(0x40)\n      0xb3512b0c00000000000000000000000000000000000000000000000000000000\n      dup2\n      mstore\n      0x04\n      add\n      mload(0x40)\n      dup1\n      swap2\n      sub\n      swap1\n      revert\n        /* \"@openzeppelin/contracts@5.0.1/utils/ShortStrings.sol\":2702:2771  if (result > 31) {... */\n    tag_248:\n        /* \"@openzeppelin/contracts@5.0.1/utils/ShortStrings.sol\":2787:2793  result */\n      dup1\n        /* \"@openzeppelin/contracts@5.0.1/utils/ShortStrings.sol\":2780:2793  return result */\n      swap2\n      pop\n      pop\n        /* \"@openzeppelin/contracts@5.0.1/utils/ShortStrings.sol\":2555:2800  function byteLength(ShortString sstr) internal pure returns (uint256) {... */\n      swap2\n      swap1\n      pop\n      jump\t// out\n        /* \"#utility.yul\":7:106   */\n    tag_249:\n        /* \"#utility.yul\":59:65   */\n      0x00\n        /* \"#utility.yul\":93:98   */\n      dup2\n        /* \"#utility.yul\":87:99   */\n      mload\n        /* \"#utility.yul\":77:99   */\n      swap1\n      pop\n        /* \"#utility.yul\":7:106   */\n      swap2\n      swap1\n      pop\n      jump\t// out\n        /* \"#utility.yul\":112:281   */\n    tag_250:\n        /* \"#utility.yul\":196:207   */\n      0x00\n        /* \"#utility.yul\":230:236   */\n      dup3\n        /* \"#utility.yul\":225:228   */\n      dup3\n        /* \"#utility.yul\":218:237   */\n      mstore\n        /* \"#utility.yul\":270:274   */\n      0x20\n        /* \"#utility.yul\":265:268   */\n      dup3\n        /* \"#utility.yul\":261:275   */\n      add\n        /* \"#utility.yul\":246:275   */\n      swap1\n      pop\n        /* \"#utility.yul\":112:281   */\n      swap3\n      swap2\n      pop\n      pop\n      jump\t// out\n        /* \"#utility.yul\":287:533   */\n    tag_251:\n        /* \"#utility.yul\":368:369   */\n      0x00\n        /* \"#utility.yul\":378:491   */\n    tag_291:\n        /* \"#utility.yul\":392:398   */\n      dup4\n        /* \"#utility.yul\":389:390   */\n      dup2\n        /* \"#utility.yul\":386:399   */\n      lt\n        /* \"#utility.yul\":378:491   */\n      iszero\n      tag_293\n      jumpi\n        /* \"#utility.yul\":477:478   */\n      dup1\n        /* \"#utility.yul\":472:475   */\n      dup3\n        /* \"#utility.yul\":468:479   */\n      add\n        /* \"#utility.yul\":462:480   */\n      mload\n        /* \"#utility.yul\":458:459   */\n      dup2\n        /* \"#utility.yul\":453:456   */\n      dup5\n        /* \"#utility.yul\":449:460   */\n      add\n        /* \"#utility.yul\":442:481   */\n      mstore\n        /* \"#utility.yul\":414:416   */\n      0x20\n        /* \"#utility.yul\":411:412   */\n      dup2\n        /* \"#utility.yul\":407:417   */\n      add\n        /* \"#utility.yul\":402:417   */\n      swap1\n      pop\n        /* \"#utility.yul\":378:491   */\n      jump(tag_291)\n    tag_293:\n        /* \"#utility.yul\":525:526   */\n      0x00\n        /* \"#utility.yul\":516:522   */\n      dup5\n        /* \"#utility.yul\":511:514   */\n      dup5\n        /* \"#utility.yul\":507:523   */\n      add\n        /* \"#utility.yul\":500:527   */\n      mstore\n        /* \"#utility.yul\":349:533   */\n      pop\n        /* \"#utility.yul\":287:533   */\n      pop\n      pop\n      pop\n      jump\t// out\n        /* \"#utility.yul\":539:641   */\n    tag_252:\n        /* \"#utility.yul\":580:586   */\n      0x00\n        /* \"#utility.yul\":631:633   */\n      0x1f\n        /* \"#utility.yul\":627:634   */\n      not\n        /* \"#utility.yul\":622:624   */\n      0x1f\n        /* \"#utility.yul\":615:620   */\n      dup4\n        /* \"#utility.yul\":611:625   */\n      add\n        /* \"#utility.yul\":607:635   */\n      and\n        /* \"#utility.yul\":597:635   */\n      swap1\n      pop\n        /* \"#utility.yul\":539:641   */\n      swap2\n      swap1\n      pop\n      jump\t// out\n        /* \"#utility.yul\":647:1024   */\n    tag_253:\n        /* \"#utility.yul\":735:738   */\n      0x00\n        /* \"#utility.yul\":763:802   */\n      tag_296\n        /* \"#utility.yul\":796:801   */\n      dup3\n        /* \"#utility.yul\":763:802   */\n      tag_249\n      jump\t// in\n    tag_296:\n        /* \"#utility.yul\":818:889   */\n      tag_297\n        /* \"#utility.yul\":882:888   */\n      dup2\n        /* \"#utility.yul\":877:880   */\n      dup6\n        /* \"#utility.yul\":818:889   */\n      tag_250\n      jump\t// in\n    tag_297:\n        /* \"#utility.yul\":811:889   */\n      swap4\n      pop\n        /* \"#utility.yul\":898:963   */\n      tag_298\n        /* \"#utility.yul\":956:962   */\n      dup2\n        /* \"#utility.yul\":951:954   */\n      dup6\n        /* \"#utility.yul\":944:948   */\n      0x20\n        /* \"#utility.yul\":937:942   */\n      dup7\n        /* \"#utility.yul\":933:949   */\n      add\n        /* \"#utility.yul\":898:963   */\n      tag_251\n      jump\t// in\n    tag_298:\n        /* \"#utility.yul\":988:1017   */\n      tag_299\n        /* \"#utility.yul\":1010:1016   */\n      dup2\n        /* \"#utility.yul\":988:1017   */\n      tag_252\n      jump\t// in\n    tag_299:\n        /* \"#utility.yul\":983:986   */\n      dup5\n        /* \"#utility.yul\":979:1018   */\n      add\n        /* \"#utility.yul\":972:1018   */\n      swap2\n      pop\n        /* \"#utility.yul\":739:1024   */\n      pop\n        /* \"#utility.yul\":647:1024   */\n      swap3\n      swap2\n      pop\n      pop\n      jump\t// out\n        /* \"#utility.yul\":1030:1343   */\n    tag_21:\n        /* \"#utility.yul\":1143:1147   */\n      0x00\n        /* \"#utility.yul\":1181:1183   */\n      0x20\n        /* \"#utility.yul\":1170:1179   */\n      dup3\n        /* \"#utility.yul\":1166:1184   */\n      add\n        /* \"#utility.yul\":1158:1184   */\n      swap1\n      pop\n        /* \"#utility.yul\":1230:1239   */\n      dup2\n        /* \"#utility.yul\":1224:1228   */\n      dup2\n        /* \"#utility.yul\":1220:1240   */\n      sub\n        /* \"#utility.yul\":1216:1217   */\n      0x00\n        /* \"#utility.yul\":1205:1214   */\n      dup4\n        /* \"#utility.yul\":1201:1218   */\n      add\n        /* \"#utility.yul\":1194:1241   */\n      mstore\n        /* \"#utility.yul\":1258:1336   */\n      tag_301\n        /* \"#utility.yul\":1331:1335   */\n      dup2\n        /* \"#utility.yul\":1322:1328   */\n      dup5\n        /* \"#utility.yul\":1258:1336   */\n      tag_253\n      jump\t// in\n    tag_301:\n        /* \"#utility.yul\":1250:1336   */\n      swap1\n      pop\n        /* \"#utility.yul\":1030:1343   */\n      swap3\n      swap2\n      pop\n      pop\n      jump\t// out\n        /* \"#utility.yul\":1430:1547   */\n    tag_255:\n        /* \"#utility.yul\":1539:1540   */\n      0x00\n        /* \"#utility.yul\":1536:1537   */\n      dup1\n        /* \"#utility.yul\":1529:1541   */\n      revert\n        /* \"#utility.yul\":1676:1802   */\n    tag_257:\n        /* \"#utility.yul\":1713:1720   */\n      0x00\n        /* \"#utility.yul\":1753:1795   */\n      0xffffffffffffffffffffffffffffffffffffffff\n        /* \"#utility.yul\":1746:1751   */\n      dup3\n        /* \"#utility.yul\":1742:1796   */\n      and\n        /* \"#utility.yul\":1731:1796   */\n      swap1\n      pop\n        /* \"#utility.yul\":1676:1802   */\n      swap2\n      swap1\n      pop\n      jump\t// out\n        /* \"#utility.yul\":1808:1904   */\n    tag_258:\n        /* \"#utility.yul\":1845:1852   */\n      0x00\n        /* \"#utility.yul\":1874:1898   */\n      tag_307\n        /* \"#utility.yul\":1892:1897   */\n      dup3\n        /* \"#utility.yul\":1874:1898   */\n      tag_257\n      jump\t// in\n    tag_307:\n        /* \"#utility.yul\":1863:1898   */\n      swap1\n      pop\n        /* \"#utility.yul\":1808:1904   */\n      swap2\n      swap1\n      pop\n      jump\t// out\n        /* \"#utility.yul\":1910:2032   */\n    tag_259:\n        /* \"#utility.yul\":1983:2007   */\n      tag_309\n        /* \"#utility.yul\":2001:2006   */\n      dup2\n        /* \"#utility.yul\":1983:2007   */\n      tag_258\n      jump\t// in\n    tag_309:\n        /* \"#utility.yul\":1976:1981   */\n      dup2\n        /* \"#utility.yul\":1973:2008   */\n      eq\n        /* \"#utility.yul\":1963:2026   */\n      tag_310\n      jumpi\n        /* \"#utility.yul\":2022:2023   */\n      0x00\n        /* \"#utility.yul\":2019:2020   */\n      dup1\n        /* \"#utility.yul\":2012:2024   */\n      revert\n        /* \"#utility.yul\":1963:2026   */\n    tag_310:\n        /* \"#utility.yul\":1910:2032   */\n      pop\n      jump\t// out\n        /* \"#utility.yul\":2038:2177   */\n    tag_260:\n        /* \"#utility.yul\":2084:2089   */\n      0x00\n        /* \"#utility.yul\":2122:2128   */\n      dup2\n        /* \"#utility.yul\":2109:2129   */\n      calldataload\n        /* \"#utility.yul\":2100:2129   */\n      swap1\n      pop\n        /* \"#utility.yul\":2138:2171   */\n      tag_312\n        /* \"#utility.yul\":2165:2170   */\n      dup2\n        /* \"#utility.yul\":2138:2171   */\n      tag_259\n      jump\t// in\n    tag_312:\n        /* \"#utility.yul\":2038:2177   */\n      swap3\n      swap2\n      pop\n      pop\n      jump\t// out\n        /* \"#utility.yul\":2183:2260   */\n    tag_261:\n        /* \"#utility.yul\":2220:2227   */\n      0x00\n        /* \"#utility.yul\":2249:2254   */\n      dup2\n        /* \"#utility.yul\":2238:2254   */\n      swap1\n      pop\n        /* \"#utility.yul\":2183:2260   */\n      swap2\n      swap1\n      pop\n      jump\t// out\n        /* \"#utility.yul\":2266:2388   */\n    tag_262:\n        /* \"#utility.yul\":2339:2363   */\n      tag_315\n        /* \"#utility.yul\":2357:2362   */\n      dup2\n        /* \"#utility.yul\":2339:2363   */\n      tag_261\n      jump\t// in\n    tag_315:\n        /* \"#utility.yul\":2332:2337   */\n      dup2\n        /* \"#utility.yul\":2329:2364   */\n      eq\n        /* \"#utility.yul\":2319:2382   */\n      tag_316\n      jumpi\n        /* \"#utility.yul\":2378:2379   */\n      0x00\n        /* \"#utility.yul\":2375:2376   */\n      dup1\n        /* \"#utility.yul\":2368:2380   */\n      revert\n        /* \"#utility.yul\":2319:2382   */\n    tag_316:\n        /* \"#utility.yul\":2266:2388   */\n      pop\n      jump\t// out\n        /* \"#utility.yul\":2394:2533   */\n    tag_263:\n        /* \"#utility.yul\":2440:2445   */\n      0x00\n        /* \"#utility.yul\":2478:2484   */\n      dup2\n        /* \"#utility.yul\":2465:2485   */\n      calldataload\n        /* \"#utility.yul\":2456:2485   */\n      swap1\n      pop\n        /* \"#utility.yul\":2494:2527   */\n      tag_318\n        /* \"#utility.yul\":2521:2526   */\n      dup2\n        /* \"#utility.yul\":2494:2527   */\n      tag_262\n      jump\t// in\n    tag_318:\n        /* \"#utility.yul\":2394:2533   */\n      swap3\n      swap2\n      pop\n      pop\n      jump\t// out\n        /* \"#utility.yul\":2539:3013   */\n    tag_24:\n        /* \"#utility.yul\":2607:2613   */\n      0x00\n        /* \"#utility.yul\":2615:2621   */\n      dup1\n        /* \"#utility.yul\":2664:2666   */\n      0x40\n        /* \"#utility.yul\":2652:2661   */\n      dup4\n        /* \"#utility.yul\":2643:2650   */\n      dup6\n        /* \"#utility.yul\":2639:2662   */\n      sub\n        /* \"#utility.yul\":2635:2667   */\n      slt\n        /* \"#utility.yul\":2632:2751   */\n      iszero\n      tag_320\n      jumpi\n        /* \"#utility.yul\":2670:2749   */\n      tag_321\n      tag_255\n      jump\t// in\n    tag_321:\n        /* \"#utility.yul\":2632:2751   */\n    tag_320:\n        /* \"#utility.yul\":2790:2791   */\n      0x00\n        /* \"#utility.yul\":2815:2868   */\n      tag_322\n        /* \"#utility.yul\":2860:2867   */\n      dup6\n        /* \"#utility.yul\":2851:2857   */\n      dup3\n        /* \"#utility.yul\":2840:2849   */\n      dup7\n        /* \"#utility.yul\":2836:2858   */\n      add\n        /* \"#utility.yul\":2815:2868   */\n      tag_260\n      jump\t// in\n    tag_322:\n        /* \"#utility.yul\":2805:2868   */\n      swap3\n      pop\n        /* \"#utility.yul\":2761:2878   */\n      pop\n        /* \"#utility.yul\":2917:2919   */\n      0x20\n        /* \"#utility.yul\":2943:2996   */\n      tag_323\n        /* \"#utility.yul\":2988:2995   */\n      dup6\n        /* \"#utility.yul\":2979:2985   */\n      dup3\n        /* \"#utility.yul\":2968:2977   */\n      dup7\n        /* \"#utility.yul\":2964:2986   */\n      add\n        /* \"#utility.yul\":2943:2996   */\n      tag_263\n      jump\t// in\n    tag_323:\n        /* \"#utility.yul\":2933:2996   */\n      swap2\n      pop\n        /* \"#utility.yul\":2888:3006   */\n      pop\n        /* \"#utility.yul\":2539:3013   */\n      swap3\n      pop\n      swap3\n      swap1\n      pop\n      jump\t// out\n        /* \"#utility.yul\":3019:3109   */\n    tag_264:\n        /* \"#utility.yul\":3053:3060   */\n      0x00\n        /* \"#utility.yul\":3096:3101   */\n      dup2\n        /* \"#utility.yul\":3089:3102   */\n      iszero\n        /* \"#utility.yul\":3082:3103   */\n      iszero\n        /* \"#utility.yul\":3071:3103   */\n      swap1\n      pop\n        /* \"#utility.yul\":3019:3109   */\n      swap2\n      swap1\n      pop\n      jump\t// out\n        /* \"#utility.yul\":3115:3224   */\n    tag_265:\n        /* \"#utility.yul\":3196:3217   */\n      tag_326\n        /* \"#utility.yul\":3211:3216   */\n      dup2\n        /* \"#utility.yul\":3196:3217   */\n      tag_264\n      jump\t// in\n    tag_326:\n        /* \"#utility.yul\":3191:3194   */\n      dup3\n        /* \"#utility.yul\":3184:3218   */\n      mstore\n        /* \"#utility.yul\":3115:3224   */\n      pop\n      pop\n      jump\t// out\n        /* \"#utility.yul\":3230:3440   */\n    tag_27:\n        /* \"#utility.yul\":3317:3321   */\n      0x00\n        /* \"#utility.yul\":3355:3357   */\n      0x20\n        /* \"#utility.yul\":3344:3353   */\n      dup3\n        /* \"#utility.yul\":3340:3358   */\n      add\n        /* \"#utility.yul\":3332:3358   */\n      swap1\n      pop\n        /* \"#utility.yul\":3368:3433   */\n      tag_328\n        /* \"#utility.yul\":3430:3431   */\n      0x00\n        /* \"#utility.yul\":3419:3428   */\n      dup4\n        /* \"#utility.yul\":3415:3432   */\n      add\n        /* \"#utility.yul\":3406:3412   */\n      dup5\n        /* \"#utility.yul\":3368:3433   */\n      tag_265\n      jump\t// in\n    tag_328:\n        /* \"#utility.yul\":3230:3440   */\n      swap3\n      swap2\n      pop\n      pop\n      jump\t// out\n        /* \"#utility.yul\":3446:3564   */\n    tag_266:\n        /* \"#utility.yul\":3533:3557   */\n      tag_330\n        /* \"#utility.yul\":3551:3556   */\n      dup2\n        /* \"#utility.yul\":3533:3557   */\n      tag_261\n      jump\t// in\n    tag_330:\n        /* \"#utility.yul\":3528:3531   */\n      dup3\n        /* \"#utility.yul\":3521:3558   */\n      mstore\n        /* \"#utility.yul\":3446:3564   */\n      pop\n      pop\n      jump\t// out\n        /* \"#utility.yul\":3570:3792   */\n    tag_31:\n        /* \"#utility.yul\":3663:3667   */\n      0x00\n        /* \"#utility.yul\":3701:3703   */\n      0x20\n        /* \"#utility.yul\":3690:3699   */\n      dup3\n        /* \"#utility.yul\":3686:3704   */\n      add\n        /* \"#utility.yul\":3678:3704   */\n      swap1\n      pop\n        /* \"#utility.yul\":3714:3785   */\n      tag_332\n        /* \"#utility.yul\":3782:3783   */\n      0x00\n        /* \"#utility.yul\":3771:3780   */\n      dup4\n        /* \"#utility.yul\":3767:3784   */\n      add\n        /* \"#utility.yul\":3758:3764   */\n      dup5\n        /* \"#utility.yul\":3714:3785   */\n      tag_266\n      jump\t// in\n    tag_332:\n        /* \"#utility.yul\":3570:3792   */\n      swap3\n      swap2\n      pop\n      pop\n      jump\t// out\n        /* \"#utility.yul\":3798:4417   */\n    tag_34:\n        /* \"#utility.yul\":3875:3881   */\n      0x00\n        /* \"#utility.yul\":3883:3889   */\n      dup1\n        /* \"#utility.yul\":3891:3897   */\n      0x00\n        /* \"#utility.yul\":3940:3942   */\n      0x60\n        /* \"#utility.yul\":3928:3937   */\n      dup5\n        /* \"#utility.yul\":3919:3926   */\n      dup7\n        /* \"#utility.yul\":3915:3938   */\n      sub\n        /* \"#utility.yul\":3911:3943   */\n      slt\n        /* \"#utility.yul\":3908:4027   */\n      iszero\n      tag_334\n      jumpi\n        /* \"#utility.yul\":3946:4025   */\n      tag_335\n      tag_255\n      jump\t// in\n    tag_335:\n        /* \"#utility.yul\":3908:4027   */\n    tag_334:\n        /* \"#utility.yul\":4066:4067   */\n      0x00\n        /* \"#utility.yul\":4091:4144   */\n      tag_336\n        /* \"#utility.yul\":4136:4143   */\n      dup7\n        /* \"#utility.yul\":4127:4133   */\n      dup3\n        /* \"#utility.yul\":4116:4125   */\n      dup8\n        /* \"#utility.yul\":4112:4134   */\n      add\n        /* \"#utility.yul\":4091:4144   */\n      tag_260\n      jump\t// in\n    tag_336:\n        /* \"#utility.yul\":4081:4144   */\n      swap4\n      pop\n        /* \"#utility.yul\":4037:4154   */\n      pop\n        /* \"#utility.yul\":4193:4195   */\n      0x20\n        /* \"#utility.yul\":4219:4272   */\n      tag_337\n        /* \"#utility.yul\":4264:4271   */\n      dup7\n        /* \"#utility.yul\":4255:4261   */\n      dup3\n        /* \"#utility.yul\":4244:4253   */\n      dup8\n        /* \"#utility.yul\":4240:4262   */\n      add\n        /* \"#utility.yul\":4219:4272   */\n      tag_260\n      jump\t// in\n    tag_337:\n        /* \"#utility.yul\":4209:4272   */\n      swap3\n      pop\n        /* \"#utility.yul\":4164:4282   */\n      pop\n        /* \"#utility.yul\":4321:4323   */\n      0x40\n        /* \"#utility.yul\":4347:4400   */\n      tag_338\n        /* \"#utility.yul\":4392:4399   */\n      dup7\n        /* \"#utility.yul\":4383:4389   */\n      dup3\n        /* \"#utility.yul\":4372:4381   */\n      dup8\n        /* \"#utility.yul\":4368:4390   */\n      add\n        /* \"#utility.yul\":4347:4400   */\n      tag_263\n      jump\t// in\n    tag_338:\n        /* \"#utility.yul\":4337:4400   */\n      swap2\n      pop\n        /* \"#utility.yul\":4292:4410   */\n      pop\n        /* \"#utility.yul\":3798:4417   */\n      swap3\n      pop\n      swap3\n      pop\n      swap3\n      jump\t// out\n        /* \"#utility.yul\":4423:4509   */\n    tag_267:\n        /* \"#utility.yul\":4458:4465   */\n      0x00\n        /* \"#utility.yul\":4498:4502   */\n      0xff\n        /* \"#utility.yul\":4491:4496   */\n      dup3\n        /* \"#utility.yul\":4487:4503   */\n      and\n        /* \"#utility.yul\":4476:4503   */\n      swap1\n      pop\n        /* \"#utility.yul\":4423:4509   */\n      swap2\n      swap1\n      pop\n      jump\t// out\n        /* \"#utility.yul\":4515:4627   */\n    tag_268:\n        /* \"#utility.yul\":4598:4620   */\n      tag_341\n        /* \"#utility.yul\":4614:4619   */\n      dup2\n        /* \"#utility.yul\":4598:4620   */\n      tag_267\n      jump\t// in\n    tag_341:\n        /* \"#utility.yul\":4593:4596   */\n      dup3\n        /* \"#utility.yul\":4586:4621   */\n      mstore\n        /* \"#utility.yul\":4515:4627   */\n      pop\n      pop\n      jump\t// out\n        /* \"#utility.yul\":4633:4847   */\n    tag_40:\n        /* \"#utility.yul\":4722:4726   */\n      0x00\n        /* \"#utility.yul\":4760:4762   */\n      0x20\n        /* \"#utility.yul\":4749:4758   */\n      dup3\n        /* \"#utility.yul\":4745:4763   */\n      add\n        /* \"#utility.yul\":4737:4763   */\n      swap1\n      pop\n        /* \"#utility.yul\":4773:4840   */\n      tag_343\n        /* \"#utility.yul\":4837:4838   */\n      0x00\n        /* \"#utility.yul\":4826:4835   */\n      dup4\n        /* \"#utility.yul\":4822:4839   */\n      add\n        /* \"#utility.yul\":4813:4819   */\n      dup5\n        /* \"#utility.yul\":4773:4840   */\n      tag_268\n      jump\t// in\n    tag_343:\n        /* \"#utility.yul\":4633:4847   */\n      swap3\n      swap2\n      pop\n      pop\n      jump\t// out\n        /* \"#utility.yul\":4853:4930   */\n    tag_269:\n        /* \"#utility.yul\":4890:4897   */\n      0x00\n        /* \"#utility.yul\":4919:4924   */\n      dup2\n        /* \"#utility.yul\":4908:4924   */\n      swap1\n      pop\n        /* \"#utility.yul\":4853:4930   */\n      swap2\n      swap1\n      pop\n      jump\t// out\n        /* \"#utility.yul\":4936:5054   */\n    tag_270:\n        /* \"#utility.yul\":5023:5047   */\n      tag_346\n        /* \"#utility.yul\":5041:5046   */\n      dup2\n        /* \"#utility.yul\":5023:5047   */\n      tag_269\n      jump\t// in\n    tag_346:\n        /* \"#utility.yul\":5018:5021   */\n      dup3\n        /* \"#utility.yul\":5011:5048   */\n      mstore\n        /* \"#utility.yul\":4936:5054   */\n      pop\n      pop\n      jump\t// out\n        /* \"#utility.yul\":5060:5282   */\n    tag_44:\n        /* \"#utility.yul\":5153:5157   */\n      0x00\n        /* \"#utility.yul\":5191:5193   */\n      0x20\n        /* \"#utility.yul\":5180:5189   */\n      dup3\n        /* \"#utility.yul\":5176:5194   */\n      add\n        /* \"#utility.yul\":5168:5194   */\n      swap1\n      pop\n        /* \"#utility.yul\":5204:5275   */\n      tag_348\n        /* \"#utility.yul\":5272:5273   */\n      0x00\n        /* \"#utility.yul\":5261:5270   */\n      dup4\n        /* \"#utility.yul\":5257:5274   */\n      add\n        /* \"#utility.yul\":5248:5254   */\n      dup5\n        /* \"#utility.yul\":5204:5275   */\n      tag_270\n      jump\t// in\n    tag_348:\n        /* \"#utility.yul\":5060:5282   */\n      swap3\n      swap2\n      pop\n      pop\n      jump\t// out\n        /* \"#utility.yul\":5288:5617   */\n    tag_47:\n        /* \"#utility.yul\":5347:5353   */\n      0x00\n        /* \"#utility.yul\":5396:5398   */\n      0x20\n        /* \"#utility.yul\":5384:5393   */\n      dup3\n        /* \"#utility.yul\":5375:5382   */\n      dup5\n        /* \"#utility.yul\":5371:5394   */\n      sub\n        /* \"#utility.yul\":5367:5399   */\n      slt\n        /* \"#utility.yul\":5364:5483   */\n      iszero\n      tag_350\n      jumpi\n        /* \"#utility.yul\":5402:5481   */\n      tag_351\n      tag_255\n      jump\t// in\n    tag_351:\n        /* \"#utility.yul\":5364:5483   */\n    tag_350:\n        /* \"#utility.yul\":5522:5523   */\n      0x00\n        /* \"#utility.yul\":5547:5600   */\n      tag_352\n        /* \"#utility.yul\":5592:5599   */\n      dup5\n        /* \"#utility.yul\":5583:5589   */\n      dup3\n        /* \"#utility.yul\":5572:5581   */\n      dup6\n        /* \"#utility.yul\":5568:5590   */\n      add\n        /* \"#utility.yul\":5547:5600   */\n      tag_260\n      jump\t// in\n    tag_352:\n        /* \"#utility.yul\":5537:5600   */\n      swap2\n      pop\n        /* \"#utility.yul\":5493:5610   */\n      pop\n        /* \"#utility.yul\":5288:5617   */\n      swap3\n      swap2\n      pop\n      pop\n      jump\t// out\n        /* \"#utility.yul\":5623:5772   */\n    tag_271:\n        /* \"#utility.yul\":5659:5666   */\n      0x00\n        /* \"#utility.yul\":5699:5765   */\n      0xff00000000000000000000000000000000000000000000000000000000000000\n        /* \"#utility.yul\":5692:5697   */\n      dup3\n        /* \"#utility.yul\":5688:5766   */\n      and\n        /* \"#utility.yul\":5677:5766   */\n      swap1\n      pop\n        /* \"#utility.yul\":5623:5772   */\n      swap2\n      swap1\n      pop\n      jump\t// out\n        /* \"#utility.yul\":5778:5893   */\n    tag_272:\n        /* \"#utility.yul\":5863:5886   */\n      tag_355\n        /* \"#utility.yul\":5880:5885   */\n      dup2\n        /* \"#utility.yul\":5863:5886   */\n      tag_271\n      jump\t// in\n    tag_355:\n        /* \"#utility.yul\":5858:5861   */\n      dup3\n        /* \"#utility.yul\":5851:5887   */\n      mstore\n        /* \"#utility.yul\":5778:5893   */\n      pop\n      pop\n      jump\t// out\n        /* \"#utility.yul\":5899:6017   */\n    tag_273:\n        /* \"#utility.yul\":5986:6010   */\n      tag_357\n        /* \"#utility.yul\":6004:6009   */\n      dup2\n        /* \"#utility.yul\":5986:6010   */\n      tag_258\n      jump\t// in\n    tag_357:\n        /* \"#utility.yul\":5981:5984   */\n      dup3\n        /* \"#utility.yul\":5974:6011   */\n      mstore\n        /* \"#utility.yul\":5899:6017   */\n      pop\n      pop\n      jump\t// out\n        /* \"#utility.yul\":6023:6137   */\n    tag_274:\n        /* \"#utility.yul\":6090:6096   */\n      0x00\n        /* \"#utility.yul\":6124:6129   */\n      dup2\n        /* \"#utility.yul\":6118:6130   */\n      mload\n        /* \"#utility.yul\":6108:6130   */\n      swap1\n      pop\n        /* \"#utility.yul\":6023:6137   */\n      swap2\n      swap1\n      pop\n      jump\t// out\n        /* \"#utility.yul\":6143:6327   */\n    tag_275:\n        /* \"#utility.yul\":6242:6253   */\n      0x00\n        /* \"#utility.yul\":6276:6282   */\n      dup3\n        /* \"#utility.yul\":6271:6274   */\n      dup3\n        /* \"#utility.yul\":6264:6283   */\n      mstore\n        /* \"#utility.yul\":6316:6320   */\n      0x20\n        /* \"#utility.yul\":6311:6314   */\n      dup3\n        /* \"#utility.yul\":6307:6321   */\n      add\n        /* \"#utility.yul\":6292:6321   */\n      swap1\n      pop\n        /* \"#utility.yul\":6143:6327   */\n      swap3\n      swap2\n      pop\n      pop\n      jump\t// out\n        /* \"#utility.yul\":6333:6465   */\n    tag_276:\n        /* \"#utility.yul\":6400:6404   */\n      0x00\n        /* \"#utility.yul\":6423:6426   */\n      dup2\n        /* \"#utility.yul\":6415:6426   */\n      swap1\n      pop\n        /* \"#utility.yul\":6453:6457   */\n      0x20\n        /* \"#utility.yul\":6448:6451   */\n      dup3\n        /* \"#utility.yul\":6444:6458   */\n      add\n        /* \"#utility.yul\":6436:6458   */\n      swap1\n      pop\n        /* \"#utility.yul\":6333:6465   */\n      swap2\n      swap1\n      pop\n      jump\t// out\n        /* \"#utility.yul\":6471:6579   */\n    tag_277:\n        /* \"#utility.yul\":6548:6572   */\n      tag_362\n        /* \"#utility.yul\":6566:6571   */\n      dup2\n        /* \"#utility.yul\":6548:6572   */\n      tag_261\n      jump\t// in\n    tag_362:\n        /* \"#utility.yul\":6543:6546   */\n      dup3\n        /* \"#utility.yul\":6536:6573   */\n      mstore\n        /* \"#utility.yul\":6471:6579   */\n      pop\n      pop\n      jump\t// out\n        /* \"#utility.yul\":6585:6764   */\n    tag_278:\n        /* \"#utility.yul\":6654:6664   */\n      0x00\n        /* \"#utility.yul\":6675:6721   */\n      tag_364\n        /* \"#utility.yul\":6717:6720   */\n      dup4\n        /* \"#utility.yul\":6709:6715   */\n      dup4\n        /* \"#utility.yul\":6675:6721   */\n      tag_277\n      jump\t// in\n    tag_364:\n        /* \"#utility.yul\":6753:6757   */\n      0x20\n        /* \"#utility.yul\":6748:6751   */\n      dup4\n        /* \"#utility.yul\":6744:6758   */\n      add\n        /* \"#utility.yul\":6730:6758   */\n      swap1\n      pop\n        /* \"#utility.yul\":6585:6764   */\n      swap3\n      swap2\n      pop\n      pop\n      jump\t// out\n        /* \"#utility.yul\":6770:6883   */\n    tag_279:\n        /* \"#utility.yul\":6840:6844   */\n      0x00\n        /* \"#utility.yul\":6872:6876   */\n      0x20\n        /* \"#utility.yul\":6867:6870   */\n      dup3\n        /* \"#utility.yul\":6863:6877   */\n      add\n        /* \"#utility.yul\":6855:6877   */\n      swap1\n      pop\n        /* \"#utility.yul\":6770:6883   */\n      swap2\n      swap1\n      pop\n      jump\t// out\n        /* \"#utility.yul\":6919:7651   */\n    tag_280:\n        /* \"#utility.yul\":7038:7041   */\n      0x00\n        /* \"#utility.yul\":7067:7121   */\n      tag_367\n        /* \"#utility.yul\":7115:7120   */\n      dup3\n        /* \"#utility.yul\":7067:7121   */\n      tag_274\n      jump\t// in\n    tag_367:\n        /* \"#utility.yul\":7137:7223   */\n      tag_368\n        /* \"#utility.yul\":7216:7222   */\n      dup2\n        /* \"#utility.yul\":7211:7214   */\n      dup6\n        /* \"#utility.yul\":7137:7223   */\n      tag_275\n      jump\t// in\n    tag_368:\n        /* \"#utility.yul\":7130:7223   */\n      swap4\n      pop\n        /* \"#utility.yul\":7247:7303   */\n      tag_369\n        /* \"#utility.yul\":7297:7302   */\n      dup4\n        /* \"#utility.yul\":7247:7303   */\n      tag_276\n      jump\t// in\n    tag_369:\n        /* \"#utility.yul\":7326:7333   */\n      dup1\n        /* \"#utility.yul\":7357:7358   */\n      0x00\n        /* \"#utility.yul\":7342:7626   */\n    tag_370:\n        /* \"#utility.yul\":7367:7373   */\n      dup4\n        /* \"#utility.yul\":7364:7365   */\n      dup2\n        /* \"#utility.yul\":7361:7374   */\n      lt\n        /* \"#utility.yul\":7342:7626   */\n      iszero\n      tag_372\n      jumpi\n        /* \"#utility.yul\":7443:7449   */\n      dup2\n        /* \"#utility.yul\":7437:7450   */\n      mload\n        /* \"#utility.yul\":7470:7533   */\n      tag_373\n        /* \"#utility.yul\":7529:7532   */\n      dup9\n        /* \"#utility.yul\":7514:7527   */\n      dup3\n        /* \"#utility.yul\":7470:7533   */\n      tag_278\n      jump\t// in\n    tag_373:\n        /* \"#utility.yul\":7463:7533   */\n      swap8\n      pop\n        /* \"#utility.yul\":7556:7616   */\n      tag_374\n        /* \"#utility.yul\":7609:7615   */\n      dup4\n        /* \"#utility.yul\":7556:7616   */\n      tag_279\n      jump\t// in\n    tag_374:\n        /* \"#utility.yul\":7546:7616   */\n      swap3\n      pop\n        /* \"#utility.yul\":7402:7626   */\n      pop\n        /* \"#utility.yul\":7389:7390   */\n      0x01\n        /* \"#utility.yul\":7386:7387   */\n      dup2\n        /* \"#utility.yul\":7382:7391   */\n      add\n        /* \"#utility.yul\":7377:7391   */\n      swap1\n      pop\n        /* \"#utility.yul\":7342:7626   */\n      jump(tag_370)\n    tag_372:\n        /* \"#utility.yul\":7346:7360   */\n      pop\n        /* \"#utility.yul\":7642:7645   */\n      dup6\n        /* \"#utility.yul\":7635:7645   */\n      swap4\n      pop\n        /* \"#utility.yul\":7043:7651   */\n      pop\n      pop\n      pop\n        /* \"#utility.yul\":6919:7651   */\n      swap3\n      swap2\n      pop\n      pop\n      jump\t// out\n        /* \"#utility.yul\":7657:8872   */\n    tag_57:\n        /* \"#utility.yul\":8006:8010   */\n      0x00\n        /* \"#utility.yul\":8044:8047   */\n      0xe0\n        /* \"#utility.yul\":8033:8042   */\n      dup3\n        /* \"#utility.yul\":8029:8048   */\n      add\n        /* \"#utility.yul\":8021:8048   */\n      swap1\n      pop\n        /* \"#utility.yul\":8058:8127   */\n      tag_376\n        /* \"#utility.yul\":8124:8125   */\n      0x00\n        /* \"#utility.yul\":8113:8122   */\n      dup4\n        /* \"#utility.yul\":8109:8126   */\n      add\n        /* \"#utility.yul\":8100:8106   */\n      dup11\n        /* \"#utility.yul\":8058:8127   */\n      tag_272\n      jump\t// in\n    tag_376:\n        /* \"#utility.yul\":8174:8183   */\n      dup2\n        /* \"#utility.yul\":8168:8172   */\n      dup2\n        /* \"#utility.yul\":8164:8184   */\n      sub\n        /* \"#utility.yul\":8159:8161   */\n      0x20\n        /* \"#utility.yul\":8148:8157   */\n      dup4\n        /* \"#utility.yul\":8144:8162   */\n      add\n        /* \"#utility.yul\":8137:8185   */\n      mstore\n        /* \"#utility.yul\":8202:8280   */\n      tag_377\n        /* \"#utility.yul\":8275:8279   */\n      dup2\n        /* \"#utility.yul\":8266:8272   */\n      dup10\n        /* \"#utility.yul\":8202:8280   */\n      tag_253\n      jump\t// in\n    tag_377:\n        /* \"#utility.yul\":8194:8280   */\n      swap1\n      pop\n        /* \"#utility.yul\":8327:8336   */\n      dup2\n        /* \"#utility.yul\":8321:8325   */\n      dup2\n        /* \"#utility.yul\":8317:8337   */\n      sub\n        /* \"#utility.yul\":8312:8314   */\n      0x40\n        /* \"#utility.yul\":8301:8310   */\n      dup4\n        /* \"#utility.yul\":8297:8315   */\n      add\n        /* \"#utility.yul\":8290:8338   */\n      mstore\n        /* \"#utility.yul\":8355:8433   */\n      tag_378\n        /* \"#utility.yul\":8428:8432   */\n      dup2\n        /* \"#utility.yul\":8419:8425   */\n      dup9\n        /* \"#utility.yul\":8355:8433   */\n      tag_253\n      jump\t// in\n    tag_378:\n        /* \"#utility.yul\":8347:8433   */\n      swap1\n      pop\n        /* \"#utility.yul\":8443:8515   */\n      tag_379\n        /* \"#utility.yul\":8511:8513   */\n      0x60\n        /* \"#utility.yul\":8500:8509   */\n      dup4\n        /* \"#utility.yul\":8496:8514   */\n      add\n        /* \"#utility.yul\":8487:8493   */\n      dup8\n        /* \"#utility.yul\":8443:8515   */\n      tag_266\n      jump\t// in\n    tag_379:\n        /* \"#utility.yul\":8525:8598   */\n      tag_380\n        /* \"#utility.yul\":8593:8596   */\n      0x80\n        /* \"#utility.yul\":8582:8591   */\n      dup4\n        /* \"#utility.yul\":8578:8597   */\n      add\n        /* \"#utility.yul\":8569:8575   */\n      dup7\n        /* \"#utility.yul\":8525:8598   */\n      tag_273\n      jump\t// in\n    tag_380:\n        /* \"#utility.yul\":8608:8681   */\n      tag_381\n        /* \"#utility.yul\":8676:8679   */\n      0xa0\n        /* \"#utility.yul\":8665:8674   */\n      dup4\n        /* \"#utility.yul\":8661:8680   */\n      add\n        /* \"#utility.yul\":8652:8658   */\n      dup6\n        /* \"#utility.yul\":8608:8681   */\n      tag_270\n      jump\t// in\n    tag_381:\n        /* \"#utility.yul\":8729:8738   */\n      dup2\n        /* \"#utility.yul\":8723:8727   */\n      dup2\n        /* \"#utility.yul\":8719:8739   */\n      sub\n        /* \"#utility.yul\":8713:8716   */\n      0xc0\n        /* \"#utility.yul\":8702:8711   */\n      dup4\n        /* \"#utility.yul\":8698:8717   */\n      add\n        /* \"#utility.yul\":8691:8740   */\n      mstore\n        /* \"#utility.yul\":8757:8865   */\n      tag_382\n        /* \"#utility.yul\":8860:8864   */\n      dup2\n        /* \"#utility.yul\":8851:8857   */\n      dup5\n        /* \"#utility.yul\":8757:8865   */\n      tag_280\n      jump\t// in\n    tag_382:\n        /* \"#utility.yul\":8749:8865   */\n      swap1\n      pop\n        /* \"#utility.yul\":7657:8872   */\n      swap9\n      swap8\n      pop\n      pop\n      pop\n      pop\n      pop\n      pop\n      pop\n      pop\n      jump\t// out\n        /* \"#utility.yul\":8878:8996   */\n    tag_281:\n        /* \"#utility.yul\":8949:8971   */\n      tag_384\n        /* \"#utility.yul\":8965:8970   */\n      dup2\n        /* \"#utility.yul\":8949:8971   */\n      tag_267\n      jump\t// in\n    tag_384:\n        /* \"#utility.yul\":8942:8947   */\n      dup2\n        /* \"#utility.yul\":8939:8972   */\n      eq\n        /* \"#utility.yul\":8929:8990   */\n      tag_385\n      jumpi\n        /* \"#utility.yul\":8986:8987   */\n      0x00\n        /* \"#utility.yul\":8983:8984   */\n      dup1\n        /* \"#utility.yul\":8976:8988   */\n      revert\n        /* \"#utility.yul\":8929:8990   */\n    tag_385:\n        /* \"#utility.yul\":8878:8996   */\n      pop\n      jump\t// out\n        /* \"#utility.yul\":9002:9137   */\n    tag_282:\n        /* \"#utility.yul\":9046:9051   */\n      0x00\n        /* \"#utility.yul\":9084:9090   */\n      dup2\n        /* \"#utility.yul\":9071:9091   */\n      calldataload\n        /* \"#utility.yul\":9062:9091   */\n      swap1\n      pop\n        /* \"#utility.yul\":9100:9131   */\n      tag_387\n        /* \"#utility.yul\":9125:9130   */\n      dup2\n        /* \"#utility.yul\":9100:9131   */\n      tag_281\n      jump\t// in\n    tag_387:\n        /* \"#utility.yul\":9002:9137   */\n      swap3\n      swap2\n      pop\n      pop\n      jump\t// out\n        /* \"#utility.yul\":9143:9265   */\n    tag_283:\n        /* \"#utility.yul\":9216:9240   */\n      tag_389\n        /* \"#utility.yul\":9234:9239   */\n      dup2\n        /* \"#utility.yul\":9216:9240   */\n      tag_269\n      jump\t// in\n    tag_389:\n        /* \"#utility.yul\":9209:9214   */\n      dup2\n        /* \"#utility.yul\":9206:9241   */\n      eq\n        /* \"#utility.yul\":9196:9259   */\n      tag_390\n      jumpi\n        /* \"#utility.yul\":9255:9256   */\n      0x00\n        /* \"#utility.yul\":9252:9253   */\n      dup1\n        /* \"#utility.yul\":9245:9257   */\n      revert\n        /* \"#utility.yul\":9196:9259   */\n    tag_390:\n        /* \"#utility.yul\":9143:9265   */\n      pop\n      jump\t// out\n        /* \"#utility.yul\":9271:9410   */\n    tag_284:\n        /* \"#utility.yul\":9317:9322   */\n      0x00\n        /* \"#utility.yul\":9355:9361   */\n      dup2\n        /* \"#utility.yul\":9342:9362   */\n      calldataload\n        /* \"#utility.yul\":9333:9362   */\n      swap1\n      pop\n        /* \"#utility.yul\":9371:9404   */\n      tag_392\n        /* \"#utility.yul\":9398:9403   */\n      dup2\n        /* \"#utility.yul\":9371:9404   */\n      tag_283\n      jump\t// in\n    tag_392:\n        /* \"#utility.yul\":9271:9410   */\n      swap3\n      swap2\n      pop\n      pop\n      jump\t// out\n        /* \"#utility.yul\":9416:10615   */\n    tag_67:\n        /* \"#utility.yul\":9527:9533   */\n      0x00\n        /* \"#utility.yul\":9535:9541   */\n      dup1\n        /* \"#utility.yul\":9543:9549   */\n      0x00\n        /* \"#utility.yul\":9551:9557   */\n      dup1\n        /* \"#utility.yul\":9559:9565   */\n      0x00\n        /* \"#utility.yul\":9567:9573   */\n      dup1\n        /* \"#utility.yul\":9575:9581   */\n      0x00\n        /* \"#utility.yul\":9624:9627   */\n      0xe0\n        /* \"#utility.yul\":9612:9621   */\n      dup9\n        /* \"#utility.yul\":9603:9610   */\n      dup11\n        /* \"#utility.yul\":9599:9622   */\n      sub\n        /* \"#utility.yul\":9595:9628   */\n      slt\n        /* \"#utility.yul\":9592:9712   */\n      iszero\n      tag_394\n      jumpi\n        /* \"#utility.yul\":9631:9710   */\n      tag_395\n      tag_255\n      jump\t// in\n    tag_395:\n        /* \"#utility.yul\":9592:9712   */\n    tag_394:\n        /* \"#utility.yul\":9751:9752   */\n      0x00\n        /* \"#utility.yul\":9776:9829   */\n      tag_396\n        /* \"#utility.yul\":9821:9828   */\n      dup11\n        /* \"#utility.yul\":9812:9818   */\n      dup3\n        /* \"#utility.yul\":9801:9810   */\n      dup12\n        /* \"#utility.yul\":9797:9819   */\n      add\n        /* \"#utility.yul\":9776:9829   */\n      tag_260\n      jump\t// in\n    tag_396:\n        /* \"#utility.yul\":9766:9829   */\n      swap8\n      pop\n        /* \"#utility.yul\":9722:9839   */\n      pop\n        /* \"#utility.yul\":9878:9880   */\n      0x20\n        /* \"#utility.yul\":9904:9957   */\n      tag_397\n        /* \"#utility.yul\":9949:9956   */\n      dup11\n        /* \"#utility.yul\":9940:9946   */\n      dup3\n        /* \"#utility.yul\":9929:9938   */\n      dup12\n        /* \"#utility.yul\":9925:9947   */\n      add\n        /* \"#utility.yul\":9904:9957   */\n      tag_260\n      jump\t// in\n    tag_397:\n        /* \"#utility.yul\":9894:9957   */\n      swap7\n      pop\n        /* \"#utility.yul\":9849:9967   */\n      pop\n        /* \"#utility.yul\":10006:10008   */\n      0x40\n        /* \"#utility.yul\":10032:10085   */\n      tag_398\n        /* \"#utility.yul\":10077:10084   */\n      dup11\n        /* \"#utility.yul\":10068:10074   */\n      dup3\n        /* \"#utility.yul\":10057:10066   */\n      dup12\n        /* \"#utility.yul\":10053:10075   */\n      add\n        /* \"#utility.yul\":10032:10085   */\n      tag_263\n      jump\t// in\n    tag_398:\n        /* \"#utility.yul\":10022:10085   */\n      swap6\n      pop\n        /* \"#utility.yul\":9977:10095   */\n      pop\n        /* \"#utility.yul\":10134:10136   */\n      0x60\n        /* \"#utility.yul\":10160:10213   */\n      tag_399\n        /* \"#utility.yul\":10205:10212   */\n      dup11\n        /* \"#utility.yul\":10196:10202   */\n      dup3\n        /* \"#utility.yul\":10185:10194   */\n      dup12\n        /* \"#utility.yul\":10181:10203   */\n      add\n        /* \"#utility.yul\":10160:10213   */\n      tag_263\n      jump\t// in\n    tag_399:\n        /* \"#utility.yul\":10150:10213   */\n      swap5\n      pop\n        /* \"#utility.yul\":10105:10223   */\n      pop\n        /* \"#utility.yul\":10262:10265   */\n      0x80\n        /* \"#utility.yul\":10289:10340   */\n      tag_400\n        /* \"#utility.yul\":10332:10339   */\n      dup11\n        /* \"#utility.yul\":10323:10329   */\n      dup3\n        /* \"#utility.yul\":10312:10321   */\n      dup12\n        /* \"#utility.yul\":10308:10330   */\n      add\n        /* \"#utility.yul\":10289:10340   */\n      tag_282\n      jump\t// in\n    tag_400:\n        /* \"#utility.yul\":10279:10340   */\n      swap4\n      pop\n        /* \"#utility.yul\":10233:10350   */\n      pop\n        /* \"#utility.yul\":10389:10392   */\n      0xa0\n        /* \"#utility.yul\":10416:10469   */\n      tag_401\n        /* \"#utility.yul\":10461:10468   */\n      dup11\n        /* \"#utility.yul\":10452:10458   */\n      dup3\n        /* \"#utility.yul\":10441:10450   */\n      dup12\n        /* \"#utility.yul\":10437:10459   */\n      add\n        /* \"#utility.yul\":10416:10469   */\n      tag_284\n      jump\t// in\n    tag_401:\n        /* \"#utility.yul\":10406:10469   */\n      swap3\n      pop\n        /* \"#utility.yul\":10360:10479   */\n      pop\n        /* \"#utility.yul\":10518:10521   */\n      0xc0\n        /* \"#utility.yul\":10545:10598   */\n      tag_402\n        /* \"#utility.yul\":10590:10597   */\n      dup11\n        /* \"#utility.yul\":10581:10587   */\n      dup3\n        /* \"#utility.yul\":10570:10579   */\n      dup12\n        /* \"#utility.yul\":10566:10588   */\n      add\n        /* \"#utility.yul\":10545:10598   */\n      tag_284\n      jump\t// in\n    tag_402:\n        /* \"#utility.yul\":10535:10598   */\n      swap2\n      pop\n        /* \"#utility.yul\":10489:10608   */\n      pop\n        /* \"#utility.yul\":9416:10615   */\n      swap3\n      swap6\n      swap9\n      swap2\n      swap5\n      swap8\n      pop\n      swap3\n      swap6\n      pop\n      jump\t// out\n        /* \"#utility.yul\":10621:11095   */\n    tag_71:\n        /* \"#utility.yul\":10689:10695   */\n      0x00\n        /* \"#utility.yul\":10697:10703   */\n      dup1\n        /* \"#utility.yul\":10746:10748   */\n      0x40\n        /* \"#utility.yul\":10734:10743   */\n      dup4\n        /* \"#utility.yul\":10725:10732   */\n      dup6\n        /* \"#utility.yul\":10721:10744   */\n      sub\n        /* \"#utility.yul\":10717:10749   */\n      slt\n        /* \"#utility.yul\":10714:10833   */\n      iszero\n      tag_404\n      jumpi\n        /* \"#utility.yul\":10752:10831   */\n      tag_405\n      tag_255\n      jump\t// in\n    tag_405:\n        /* \"#utility.yul\":10714:10833   */\n    tag_404:\n        /* \"#utility.yul\":10872:10873   */\n      0x00\n        /* \"#utility.yul\":10897:10950   */\n      tag_406\n        /* \"#utility.yul\":10942:10949   */\n      dup6\n        /* \"#utility.yul\":10933:10939   */\n      dup3\n        /* \"#utility.yul\":10922:10931   */\n      dup7\n        /* \"#utility.yul\":10918:10940   */\n      add\n        /* \"#utility.yul\":10897:10950   */\n      tag_260\n      jump\t// in\n    tag_406:\n        /* \"#utility.yul\":10887:10950   */\n      swap3\n      pop\n        /* \"#utility.yul\":10843:10960   */\n      pop\n        /* \"#utility.yul\":10999:11001   */\n      0x20\n        /* \"#utility.yul\":11025:11078   */\n      tag_407\n        /* \"#utility.yul\":11070:11077   */\n      dup6\n        /* \"#utility.yul\":11061:11067   */\n      dup3\n        /* \"#utility.yul\":11050:11059   */\n      dup7\n        /* \"#utility.yul\":11046:11068   */\n      add\n        /* \"#utility.yul\":11025:11078   */\n      tag_260\n      jump\t// in\n    tag_407:\n        /* \"#utility.yul\":11015:11078   */\n      swap2\n      pop\n        /* \"#utility.yul\":10970:11088   */\n      pop\n        /* \"#utility.yul\":10621:11095   */\n      swap3\n      pop\n      swap3\n      swap1\n      pop\n      jump\t// out\n        /* \"#utility.yul\":11101:11281   */\n    tag_285:\n        /* \"#utility.yul\":11149:11226   */\n      0x4e487b7100000000000000000000000000000000000000000000000000000000\n        /* \"#utility.yul\":11146:11147   */\n      0x00\n        /* \"#utility.yul\":11139:11227   */\n      mstore\n        /* \"#utility.yul\":11246:11250   */\n      0x22\n        /* \"#utility.yul\":11243:11244   */\n      0x04\n        /* \"#utility.yul\":11236:11251   */\n      mstore\n        /* \"#utility.yul\":11270:11274   */\n      0x24\n        /* \"#utility.yul\":11267:11268   */\n      0x00\n        /* \"#utility.yul\":11260:11275   */\n      revert\n        /* \"#utility.yul\":11287:11607   */\n    tag_76:\n        /* \"#utility.yul\":11331:11337   */\n      0x00\n        /* \"#utility.yul\":11368:11369   */\n      0x02\n        /* \"#utility.yul\":11362:11366   */\n      dup3\n        /* \"#utility.yul\":11358:11370   */\n      div\n        /* \"#utility.yul\":11348:11370   */\n      swap1\n      pop\n        /* \"#utility.yul\":11415:11416   */\n      0x01\n        /* \"#utility.yul\":11409:11413   */\n      dup3\n        /* \"#utility.yul\":11405:11417   */\n      and\n        /* \"#utility.yul\":11436:11454   */\n      dup1\n        /* \"#utility.yul\":11426:11507   */\n      tag_410\n      jumpi\n        /* \"#utility.yul\":11492:11496   */\n      0x7f\n        /* \"#utility.yul\":11484:11490   */\n      dup3\n        /* \"#utility.yul\":11480:11497   */\n      and\n        /* \"#utility.yul\":11470:11497   */\n      swap2\n      pop\n        /* \"#utility.yul\":11426:11507   */\n    tag_410:\n        /* \"#utility.yul\":11554:11556   */\n      0x20\n        /* \"#utility.yul\":11546:11552   */\n      dup3\n        /* \"#utility.yul\":11543:11557   */\n      lt\n        /* \"#utility.yul\":11523:11541   */\n      dup2\n        /* \"#utility.yul\":11520:11558   */\n      sub\n        /* \"#utility.yul\":11517:11601   */\n      tag_411\n      jumpi\n        /* \"#utility.yul\":11573:11591   */\n      tag_412\n      tag_285\n      jump\t// in\n    tag_412:\n        /* \"#utility.yul\":11517:11601   */\n    tag_411:\n        /* \"#utility.yul\":11338:11607   */\n      pop\n        /* \"#utility.yul\":11287:11607   */\n      swap2\n      swap1\n      pop\n      jump\t// out\n        /* \"#utility.yul\":11613:11793   */\n    tag_108:\n        /* \"#utility.yul\":11661:11738   */\n      0x4e487b7100000000000000000000000000000000000000000000000000000000\n        /* \"#utility.yul\":11658:11659   */\n      0x00\n        /* \"#utility.yul\":11651:11739   */\n      mstore\n        /* \"#utility.yul\":11758:11762   */\n      0x41\n        /* \"#utility.yul\":11755:11756   */\n      0x04\n        /* \"#utility.yul\":11748:11763   */\n      mstore\n        /* \"#utility.yul\":11782:11786   */\n      0x24\n        /* \"#utility.yul\":11779:11780   */\n      0x00\n        /* \"#utility.yul\":11772:11787   */\n      revert\n        /* \"#utility.yul\":11799:12574   */\n    tag_125:\n        /* \"#utility.yul\":12032:12036   */\n      0x00\n        /* \"#utility.yul\":12070:12073   */\n      0xc0\n        /* \"#utility.yul\":12059:12068   */\n      dup3\n        /* \"#utility.yul\":12055:12074   */\n      add\n        /* \"#utility.yul\":12047:12074   */\n      swap1\n      pop\n        /* \"#utility.yul\":12084:12155   */\n      tag_415\n        /* \"#utility.yul\":12152:12153   */\n      0x00\n        /* \"#utility.yul\":12141:12150   */\n      dup4\n        /* \"#utility.yul\":12137:12154   */\n      add\n        /* \"#utility.yul\":12128:12134   */\n      dup10\n        /* \"#utility.yul\":12084:12155   */\n      tag_270\n      jump\t// in\n    tag_415:\n        /* \"#utility.yul\":12165:12237   */\n      tag_416\n        /* \"#utility.yul\":12233:12235   */\n      0x20\n        /* \"#utility.yul\":12222:12231   */\n      dup4\n        /* \"#utility.yul\":12218:12236   */\n      add\n        /* \"#utility.yul\":12209:12215   */\n      dup9\n        /* \"#utility.yul\":12165:12237   */\n      tag_273\n      jump\t// in\n    tag_416:\n        /* \"#utility.yul\":12247:12319   */\n      tag_417\n        /* \"#utility.yul\":12315:12317   */\n      0x40\n        /* \"#utility.yul\":12304:12313   */\n      dup4\n        /* \"#utility.yul\":12300:12318   */\n      add\n        /* \"#utility.yul\":12291:12297   */\n      dup8\n        /* \"#utility.yul\":12247:12319   */\n      tag_273\n      jump\t// in\n    tag_417:\n        /* \"#utility.yul\":12329:12401   */\n      tag_418\n        /* \"#utility.yul\":12397:12399   */\n      0x60\n        /* \"#utility.yul\":12386:12395   */\n      dup4\n        /* \"#utility.yul\":12382:12400   */\n      add\n        /* \"#utility.yul\":12373:12379   */\n      dup7\n        /* \"#utility.yul\":12329:12401   */\n      tag_266\n      jump\t// in\n    tag_418:\n        /* \"#utility.yul\":12411:12484   */\n      tag_419\n        /* \"#utility.yul\":12479:12482   */\n      0x80\n        /* \"#utility.yul\":12468:12477   */\n      dup4\n        /* \"#utility.yul\":12464:12483   */\n      add\n        /* \"#utility.yul\":12455:12461   */\n      dup6\n        /* \"#utility.yul\":12411:12484   */\n      tag_266\n      jump\t// in\n    tag_419:\n        /* \"#utility.yul\":12494:12567   */\n      tag_420\n        /* \"#utility.yul\":12562:12565   */\n      0xa0\n        /* \"#utility.yul\":12551:12560   */\n      dup4\n        /* \"#utility.yul\":12547:12566   */\n      add\n        /* \"#utility.yul\":12538:12544   */\n      dup5\n        /* \"#utility.yul\":12494:12567   */\n      tag_266\n      jump\t// in\n    tag_420:\n        /* \"#utility.yul\":11799:12574   */\n      swap8\n      swap7\n      pop\n      pop\n      pop\n      pop\n      pop\n      pop\n      pop\n      jump\t// out\n        /* \"#utility.yul\":12580:12912   */\n    tag_132:\n        /* \"#utility.yul\":12701:12705   */\n      0x00\n        /* \"#utility.yul\":12739:12741   */\n      0x40\n        /* \"#utility.yul\":12728:12737   */\n      dup3\n        /* \"#utility.yul\":12724:12742   */\n      add\n        /* \"#utility.yul\":12716:12742   */\n      swap1\n      pop\n        /* \"#utility.yul\":12752:12823   */\n      tag_422\n        /* \"#utility.yul\":12820:12821   */\n      0x00\n        /* \"#utility.yul\":12809:12818   */\n      dup4\n        /* \"#utility.yul\":12805:12822   */\n      add\n        /* \"#utility.yul\":12796:12802   */\n      dup6\n        /* \"#utility.yul\":12752:12823   */\n      tag_273\n      jump\t// in\n    tag_422:\n        /* \"#utility.yul\":12833:12905   */\n      tag_423\n        /* \"#utility.yul\":12901:12903   */\n      0x20\n        /* \"#utility.yul\":12890:12899   */\n      dup4\n        /* \"#utility.yul\":12886:12904   */\n      add\n        /* \"#utility.yul\":12877:12883   */\n      dup5\n        /* \"#utility.yul\":12833:12905   */\n      tag_273\n      jump\t// in\n    tag_423:\n        /* \"#utility.yul\":12580:12912   */\n      swap4\n      swap3\n      pop\n      pop\n      pop\n      jump\t// out\n        /* \"#utility.yul\":12918:13360   */\n    tag_144:\n        /* \"#utility.yul\":13067:13071   */\n      0x00\n        /* \"#utility.yul\":13105:13107   */\n      0x60\n        /* \"#utility.yul\":13094:13103   */\n      dup3\n        /* \"#utility.yul\":13090:13108   */\n      add\n        /* \"#utility.yul\":13082:13108   */\n      swap1\n      pop\n        /* \"#utility.yul\":13118:13189   */\n      tag_425\n        /* \"#utility.yul\":13186:13187   */\n      0x00\n        /* \"#utility.yul\":13175:13184   */\n      dup4\n        /* \"#utility.yul\":13171:13188   */\n      add\n        /* \"#utility.yul\":13162:13168   */\n      dup7\n        /* \"#utility.yul\":13118:13189   */\n      tag_273\n      jump\t// in\n    tag_425:\n        /* \"#utility.yul\":13199:13271   */\n      tag_426\n        /* \"#utility.yul\":13267:13269   */\n      0x20\n        /* \"#utility.yul\":13256:13265   */\n      dup4\n        /* \"#utility.yul\":13252:13270   */\n      add\n        /* \"#utility.yul\":13243:13249   */\n      dup6\n        /* \"#utility.yul\":13199:13271   */\n      tag_266\n      jump\t// in\n    tag_426:\n        /* \"#utility.yul\":13281:13353   */\n      tag_427\n        /* \"#utility.yul\":13349:13351   */\n      0x40\n        /* \"#utility.yul\":13338:13347   */\n      dup4\n        /* \"#utility.yul\":13334:13352   */\n      add\n        /* \"#utility.yul\":13325:13331   */\n      dup5\n        /* \"#utility.yul\":13281:13353   */\n      tag_266\n      jump\t// in\n    tag_427:\n        /* \"#utility.yul\":12918:13360   */\n      swap5\n      swap4\n      pop\n      pop\n      pop\n      pop\n      jump\t// out\n        /* \"#utility.yul\":13366:13588   */\n    tag_149:\n        /* \"#utility.yul\":13459:13463   */\n      0x00\n        /* \"#utility.yul\":13497:13499   */\n      0x20\n        /* \"#utility.yul\":13486:13495   */\n      dup3\n        /* \"#utility.yul\":13482:13500   */\n      add\n        /* \"#utility.yul\":13474:13500   */\n      swap1\n      pop\n        /* \"#utility.yul\":13510:13581   */\n      tag_429\n        /* \"#utility.yul\":13578:13579   */\n      0x00\n        /* \"#utility.yul\":13567:13576   */\n      dup4\n        /* \"#utility.yul\":13563:13580   */\n      add\n        /* \"#utility.yul\":13554:13560   */\n      dup5\n        /* \"#utility.yul\":13510:13581   */\n      tag_273\n      jump\t// in\n    tag_429:\n        /* \"#utility.yul\":13366:13588   */\n      swap3\n      swap2\n      pop\n      pop\n      jump\t// out\n        /* \"#utility.yul\":13594:13774   */\n    tag_286:\n        /* \"#utility.yul\":13642:13719   */\n      0x4e487b7100000000000000000000000000000000000000000000000000000000\n        /* \"#utility.yul\":13639:13640   */\n      0x00\n        /* \"#utility.yul\":13632:13720   */\n      mstore\n        /* \"#utility.yul\":13739:13743   */\n      0x11\n        /* \"#utility.yul\":13736:13737   */\n      0x04\n        /* \"#utility.yul\":13729:13744   */\n      mstore\n        /* \"#utility.yul\":13763:13767   */\n      0x24\n        /* \"#utility.yul\":13760:13761   */\n      0x00\n        /* \"#utility.yul\":13753:13768   */\n      revert\n        /* \"#utility.yul\":13780:13971   */\n    tag_186:\n        /* \"#utility.yul\":13820:13823   */\n      0x00\n        /* \"#utility.yul\":13839:13859   */\n      tag_432\n        /* \"#utility.yul\":13857:13858   */\n      dup3\n        /* \"#utility.yul\":13839:13859   */\n      tag_261\n      jump\t// in\n    tag_432:\n        /* \"#utility.yul\":13834:13859   */\n      swap2\n      pop\n        /* \"#utility.yul\":13873:13893   */\n      tag_433\n        /* \"#utility.yul\":13891:13892   */\n      dup4\n        /* \"#utility.yul\":13873:13893   */\n      tag_261\n      jump\t// in\n    tag_433:\n        /* \"#utility.yul\":13868:13893   */\n      swap3\n      pop\n        /* \"#utility.yul\":13916:13917   */\n      dup3\n        /* \"#utility.yul\":13913:13914   */\n      dup3\n        /* \"#utility.yul\":13909:13918   */\n      add\n        /* \"#utility.yul\":13902:13918   */\n      swap1\n      pop\n        /* \"#utility.yul\":13937:13940   */\n      dup1\n        /* \"#utility.yul\":13934:13935   */\n      dup3\n        /* \"#utility.yul\":13931:13941   */\n      gt\n        /* \"#utility.yul\":13928:13964   */\n      iszero\n      tag_434\n      jumpi\n        /* \"#utility.yul\":13944:13962   */\n      tag_435\n      tag_286\n      jump\t// in\n    tag_435:\n        /* \"#utility.yul\":13928:13964   */\n    tag_434:\n        /* \"#utility.yul\":13780:13971   */\n      swap3\n      swap2\n      pop\n      pop\n      jump\t// out\n        /* \"#utility.yul\":13977:14641   */\n    tag_195:\n        /* \"#utility.yul\":14182:14186   */\n      0x00\n        /* \"#utility.yul\":14220:14223   */\n      0xa0\n        /* \"#utility.yul\":14209:14218   */\n      dup3\n        /* \"#utility.yul\":14205:14224   */\n      add\n        /* \"#utility.yul\":14197:14224   */\n      swap1\n      pop\n        /* \"#utility.yul\":14234:14305   */\n      tag_437\n        /* \"#utility.yul\":14302:14303   */\n      0x00\n        /* \"#utility.yul\":14291:14300   */\n      dup4\n        /* \"#utility.yul\":14287:14304   */\n      add\n        /* \"#utility.yul\":14278:14284   */\n      dup9\n        /* \"#utility.yul\":14234:14305   */\n      tag_270\n      jump\t// in\n    tag_437:\n        /* \"#utility.yul\":14315:14387   */\n      tag_438\n        /* \"#utility.yul\":14383:14385   */\n      0x20\n        /* \"#utility.yul\":14372:14381   */\n      dup4\n        /* \"#utility.yul\":14368:14386   */\n      add\n        /* \"#utility.yul\":14359:14365   */\n      dup8\n        /* \"#utility.yul\":14315:14387   */\n      tag_270\n      jump\t// in\n    tag_438:\n        /* \"#utility.yul\":14397:14469   */\n      tag_439\n        /* \"#utility.yul\":14465:14467   */\n      0x40\n        /* \"#utility.yul\":14454:14463   */\n      dup4\n        /* \"#utility.yul\":14450:14468   */\n      add\n        /* \"#utility.yul\":14441:14447   */\n      dup7\n        /* \"#utility.yul\":14397:14469   */\n      tag_270\n      jump\t// in\n    tag_439:\n        /* \"#utility.yul\":14479:14551   */\n      tag_440\n        /* \"#utility.yul\":14547:14549   */\n      0x60\n        /* \"#utility.yul\":14536:14545   */\n      dup4\n        /* \"#utility.yul\":14532:14550   */\n      add\n        /* \"#utility.yul\":14523:14529   */\n      dup6\n        /* \"#utility.yul\":14479:14551   */\n      tag_266\n      jump\t// in\n    tag_440:\n        /* \"#utility.yul\":14561:14634   */\n      tag_441\n        /* \"#utility.yul\":14629:14632   */\n      0x80\n        /* \"#utility.yul\":14618:14627   */\n      dup4\n        /* \"#utility.yul\":14614:14633   */\n      add\n        /* \"#utility.yul\":14605:14611   */\n      dup5\n        /* \"#utility.yul\":14561:14634   */\n      tag_273\n      jump\t// in\n    tag_441:\n        /* \"#utility.yul\":13977:14641   */\n      swap7\n      swap6\n      pop\n      pop\n      pop\n      pop\n      pop\n      pop\n      jump\t// out\n        /* \"#utility.yul\":14647:15192   */\n    tag_210:\n        /* \"#utility.yul\":14820:14824   */\n      0x00\n        /* \"#utility.yul\":14858:14861   */\n      0x80\n        /* \"#utility.yul\":14847:14856   */\n      dup3\n        /* \"#utility.yul\":14843:14862   */\n      add\n        /* \"#utility.yul\":14835:14862   */\n      swap1\n      pop\n        /* \"#utility.yul\":14872:14943   */\n      tag_443\n        /* \"#utility.yul\":14940:14941   */\n      0x00\n        /* \"#utility.yul\":14929:14938   */\n      dup4\n        /* \"#utility.yul\":14925:14942   */\n      add\n        /* \"#utility.yul\":14916:14922   */\n      dup8\n        /* \"#utility.yul\":14872:14943   */\n      tag_270\n      jump\t// in\n    tag_443:\n        /* \"#utility.yul\":14953:15021   */\n      tag_444\n        /* \"#utility.yul\":15017:15019   */\n      0x20\n        /* \"#utility.yul\":15006:15015   */\n      dup4\n        /* \"#utility.yul\":15002:15020   */\n      add\n        /* \"#utility.yul\":14993:14999   */\n      dup7\n        /* \"#utility.yul\":14953:15021   */\n      tag_268\n      jump\t// in\n    tag_444:\n        /* \"#utility.yul\":15031:15103   */\n      tag_445\n        /* \"#utility.yul\":15099:15101   */\n      0x40\n        /* \"#utility.yul\":15088:15097   */\n      dup4\n        /* \"#utility.yul\":15084:15102   */\n      add\n        /* \"#utility.yul\":15075:15081   */\n      dup6\n        /* \"#utility.yul\":15031:15103   */\n      tag_270\n      jump\t// in\n    tag_445:\n        /* \"#utility.yul\":15113:15185   */\n      tag_446\n        /* \"#utility.yul\":15181:15183   */\n      0x60\n        /* \"#utility.yul\":15170:15179   */\n      dup4\n        /* \"#utility.yul\":15166:15184   */\n      add\n        /* \"#utility.yul\":15157:15163   */\n      dup5\n        /* \"#utility.yul\":15113:15185   */\n      tag_270\n      jump\t// in\n    tag_446:\n        /* \"#utility.yul\":14647:15192   */\n      swap6\n      swap5\n      pop\n      pop\n      pop\n      pop\n      pop\n      jump\t// out\n        /* \"#utility.yul\":15198:15378   */\n    tag_217:\n        /* \"#utility.yul\":15246:15323   */\n      0x4e487b7100000000000000000000000000000000000000000000000000000000\n        /* \"#utility.yul\":15243:15244   */\n      0x00\n        /* \"#utility.yul\":15236:15324   */\n      mstore\n        /* \"#utility.yul\":15343:15347   */\n      0x21\n        /* \"#utility.yul\":15340:15341   */\n      0x04\n        /* \"#utility.yul\":15333:15348   */\n      mstore\n        /* \"#utility.yul\":15367:15371   */\n      0x24\n        /* \"#utility.yul\":15364:15365   */\n      0x00\n        /* \"#utility.yul\":15357:15372   */\n      revert\n\n    auxdata: 0xa2646970667358221220a3b651deeede408756b2dd895a28adcb1cc2b656366aae713ce89fd739b1b30764736f6c63430008160033\n}\n",
				"bytecode": {
					"linkReferences": {},
					"object": "61016060405234801562000011575f80fd5b506040518060400160405280600e81526020017f4b6e6f774c65646765546f6b656e000000000000000000000000000000000000815250806040518060400160405280600181526020017f31000000000000000000000000000000000000000000000000000000000000008152506040518060400160405280600e81526020017f4b6e6f774c65646765546f6b656e0000000000000000000000000000000000008152506040518060400160405280600381526020017f4b544b00000000000000000000000000000000000000000000000000000000008152508160039081620000fc919062000844565b5080600490816200010e919062000844565b505050620001276005836200020660201b90919060201c565b6101208181525050620001456006826200020660201b90919060201c565b6101408181525050818051906020012060e08181525050808051906020012061010081815250504660a08181525050620001846200025b60201b60201c565b608081815250503073ffffffffffffffffffffffffffffffffffffffff1660c08173ffffffffffffffffffffffffffffffffffffffff16815250505050506200020033620001d7620002b760201b60201c565b600a620001e5919062000ab1565b612710620001f4919062000b01565b620002bf60201b60201c565b62000e09565b5f6020835110156200022b5762000223836200034960201b60201c565b905062000255565b826200023d83620003b360201b60201c565b5f0190816200024d919062000844565b5060ff5f1b90505b92915050565b5f7f8b73c3c69bb8fe3d512ecc4cf759cc79239f7b179b0ffacaa9a75d522b39400f60e0516101005146306040516020016200029c95949392919062000bb9565b60405160208183030381529060405280519060200120905090565b5f6012905090565b5f73ffffffffffffffffffffffffffffffffffffffff168273ffffffffffffffffffffffffffffffffffffffff160362000332575f6040517fec442f0500000000000000000000000000000000000000000000000000000000815260040162000329919062000c14565b60405180910390fd5b620003455f8383620003bc60201b60201c565b5050565b5f80829050601f815111156200039857826040517f305a27a90000000000000000000000000000000000000000000000000000000081526004016200038f919062000cb9565b60405180910390fd5b805181620003a69062000d0a565b5f1c175f1b915050919050565b5f819050919050565b5f73ffffffffffffffffffffffffffffffffffffffff168373ffffffffffffffffffffffffffffffffffffffff160362000410578060025f82825462000403919062000d79565b92505081905550620004e1565b5f805f8573ffffffffffffffffffffffffffffffffffffffff1673ffffffffffffffffffffffffffffffffffffffff1681526020019081526020015f20549050818110156200049c578381836040517fe450d38c000000000000000000000000000000000000000000000000000000008152600401620004939392919062000db3565b60405180910390fd5b8181035f808673ffffffffffffffffffffffffffffffffffffffff1673ffffffffffffffffffffffffffffffffffffffff1681526020019081526020015f2081905550505b5f73ffffffffffffffffffffffffffffffffffffffff168273ffffffffffffffffffffffffffffffffffffffff16036200052a578060025f828254039250508190555062000574565b805f808473ffffffffffffffffffffffffffffffffffffffff1673ffffffffffffffffffffffffffffffffffffffff1681526020019081526020015f205f82825401925050819055505b8173ffffffffffffffffffffffffffffffffffffffff168373ffffffffffffffffffffffffffffffffffffffff167fddf252ad1be2c89b69c2b068fc378daa952ba7f163c4a11628f55a4df523b3ef83604051620005d3919062000dee565b60405180910390a3505050565b5f81519050919050565b7f4e487b71000000000000000000000000000000000000000000000000000000005f52604160045260245ffd5b7f4e487b71000000000000000000000000000000000000000000000000000000005f52602260045260245ffd5b5f60028204905060018216806200065c57607f821691505b60208210810362000672576200067162000617565b5b50919050565b5f819050815f5260205f209050919050565b5f6020601f8301049050919050565b5f82821b905092915050565b5f60088302620006d67fffffffffffffffffffffffffffffffffffffffffffffffffffffffffffffffff8262000699565b620006e2868362000699565b95508019841693508086168417925050509392505050565b5f819050919050565b5f819050919050565b5f6200072c620007266200072084620006fa565b62000703565b620006fa565b9050919050565b5f819050919050565b62000747836200070c565b6200075f620007568262000733565b848454620006a5565b825550505050565b5f90565b6200077562000767565b620007828184846200073c565b505050565b5b81811015620007a9576200079d5f826200076b565b60018101905062000788565b5050565b601f821115620007f857620007c28162000678565b620007cd846200068a565b81016020851015620007dd578190505b620007f5620007ec856200068a565b83018262000787565b50505b505050565b5f82821c905092915050565b5f6200081a5f1984600802620007fd565b1980831691505092915050565b5f62000834838362000809565b9150826002028217905092915050565b6200084f82620005e0565b67ffffffffffffffff8111156200086b576200086a620005ea565b5b62000877825462000644565b62000884828285620007ad565b5f60209050601f831160018114620008ba575f8415620008a5578287015190505b620008b1858262000827565b86555062000920565b601f198416620008ca8662000678565b5f5b82811015620008f357848901518255600182019150602085019450602081019050620008cc565b868310156200091357848901516200090f601f89168262000809565b8355505b6001600288020188555050505b505050505050565b7f4e487b71000000000000000000000000000000000000000000000000000000005f52601160045260245ffd5b5f8160011c9050919050565b5f808291508390505b6001851115620009b2578086048111156200098a576200098962000928565b5b60018516156200099a5780820291505b8081029050620009aa8562000955565b94506200096a565b94509492505050565b5f82620009cc576001905062000a9e565b81620009db575f905062000a9e565b8160018114620009f45760028114620009ff5762000a35565b600191505062000a9e565b60ff84111562000a145762000a1362000928565b5b8360020a91508482111562000a2e5762000a2d62000928565b5b5062000a9e565b5060208310610133831016604e8410600b841016171562000a6f5782820a90508381111562000a695762000a6862000928565b5b62000a9e565b62000a7e848484600162000961565b9250905081840481111562000a985762000a9762000928565b5b81810290505b9392505050565b5f60ff82169050919050565b5f62000abd82620006fa565b915062000aca8362000aa5565b925062000af97fffffffffffffffffffffffffffffffffffffffffffffffffffffffffffffffff8484620009bb565b905092915050565b5f62000b0d82620006fa565b915062000b1a83620006fa565b925082820262000b2a81620006fa565b9150828204841483151762000b445762000b4362000928565b5b5092915050565b5f819050919050565b62000b5f8162000b4b565b82525050565b62000b7081620006fa565b82525050565b5f73ffffffffffffffffffffffffffffffffffffffff82169050919050565b5f62000ba18262000b76565b9050919050565b62000bb38162000b95565b82525050565b5f60a08201905062000bce5f83018862000b54565b62000bdd602083018762000b54565b62000bec604083018662000b54565b62000bfb606083018562000b65565b62000c0a608083018462000ba8565b9695505050505050565b5f60208201905062000c295f83018462000ba8565b92915050565b5f82825260208201905092915050565b5f5b8381101562000c5e57808201518184015260208101905062000c41565b5f8484015250505050565b5f601f19601f8301169050919050565b5f62000c8582620005e0565b62000c91818562000c2f565b935062000ca381856020860162000c3f565b62000cae8162000c69565b840191505092915050565b5f6020820190508181035f83015262000cd3818462000c79565b905092915050565b5f81519050919050565b5f819050602082019050919050565b5f62000d01825162000b4b565b80915050919050565b5f62000d168262000cdb565b8262000d228462000ce5565b905062000d2f8162000cf4565b9250602082101562000d725762000d6d7fffffffffffffffffffffffffffffffffffffffffffffffffffffffffffffffff8360200360080262000699565b831692505b5050919050565b5f62000d8582620006fa565b915062000d9283620006fa565b925082820190508082111562000dad5762000dac62000928565b5b92915050565b5f60608201905062000dc85f83018662000ba8565b62000dd7602083018562000b65565b62000de6604083018462000b65565b949350505050565b5f60208201905062000e035f83018462000b65565b92915050565b60805160a05160c05160e051610100516101205161014051611b6e62000e5b5f395f610a1501525f6109da01525f610f0e01525f610eed01525f6108d801525f61092e01525f6109570152611b6e5ff3fe608060405234801561000f575f80fd5b50600436106100cd575f3560e01c806370a082311161008a57806395d89b411161006457806395d89b411461022d578063a9059cbb1461024b578063d505accf1461027b578063dd62ed3e14610297576100cd565b806370a08231146101a95780637ecebe00146101d957806384b0196e14610209576100cd565b806306fdde03146100d1578063095ea7b3146100ef57806318160ddd1461011f57806323b872dd1461013d578063313ce5671461016d5780633644e5151461018b575b5f80fd5b6100d96102c7565b6040516100e691906113de565b60405180910390f35b6101096004803603810190610104919061148f565b610357565b60405161011691906114e7565b60405180910390f35b610127610379565b604051610134919061150f565b60405180910390f35b61015760048036038101906101529190611528565b610382565b60405161016491906114e7565b60405180910390f35b6101756103b0565b6040516101829190611593565b60405180910390f35b6101936103b8565b6040516101a091906115c4565b60405180910390f35b6101c360048036038101906101be91906115dd565b6103c6565b6040516101d0919061150f565b60405180910390f35b6101f360048036038101906101ee91906115dd565b61040b565b604051610200919061150f565b60405180910390f35b61021161041c565b6040516102249796959493929190611708565b60405180910390f35b6102356104c1565b60405161024291906113de565b60405180910390f35b6102656004803603810190610260919061148f565b610551565b60405161027291906114e7565b60405180910390f35b610295600480360381019061029091906117de565b610573565b005b6102b160048036038101906102ac919061187b565b6106b8565b6040516102be919061150f565b60405180910390f35b6060600380546102d6906118e6565b80601f0160208091040260200160405190810160405280929190818152602001828054610302906118e6565b801561034d5780601f106103245761010080835404028352916020019161034d565b820191905f5260205f20905b81548152906001019060200180831161033057829003601f168201915b5050505050905090565b5f8061036161073a565b905061036e818585610741565b600191505092915050565b5f600254905090565b5f8061038c61073a565b9050610399858285610753565b6103a48585856107e5565b60019150509392505050565b5f6012905090565b5f6103c16108d5565b905090565b5f805f8373ffffffffffffffffffffffffffffffffffffffff1673ffffffffffffffffffffffffffffffffffffffff1681526020019081526020015f20549050919050565b5f6104158261098b565b9050919050565b5f6060805f805f606061042d6109d1565b610435610a0c565b46305f801b5f67ffffffffffffffff81111561045457610453611916565b5b6040519080825280602002602001820160405280156104825781602001602082028036833780820191505090505b507f0f00000000000000000000000000000000000000000000000000000000000000959493929190965096509650965096509650965090919293949596565b6060600480546104d0906118e6565b80601f01602080910402602001604051908101604052809291908181526020018280546104fc906118e6565b80156105475780601f1061051e57610100808354040283529160200191610547565b820191905f5260205f20905b81548152906001019060200180831161052a57829003601f168201915b5050505050905090565b5f8061055b61073a565b90506105688185856107e5565b600191505092915050565b834211156105b857836040517f627913020000000000000000000000000000000000000000000000000000000081526004016105af919061150f565b60405180910390fd5b5f7f6e71edae12b1b97f4d1f60370fef10105fa2faae0126114a169c64845d6126c98888886105e68c610a47565b896040516020016105fc96959493929190611943565b6040516020818303038152906040528051906020012090505f61061e82610a9a565b90505f61062d82878787610ab3565b90508973ffffffffffffffffffffffffffffffffffffffff168173ffffffffffffffffffffffffffffffffffffffff16146106a157808a6040517f4b800e460000000000000000000000000000000000000000000000000000000081526004016106989291906119a2565b60405180910390fd5b6106ac8a8a8a610741565b50505050505050505050565b5f60015f8473ffffffffffffffffffffffffffffffffffffffff1673ffffffffffffffffffffffffffffffffffffffff1681526020019081526020015f205f8373ffffffffffffffffffffffffffffffffffffffff1673ffffffffffffffffffffffffffffffffffffffff1681526020019081526020015f2054905092915050565b5f33905090565b61074e8383836001610ae1565b505050565b5f61075e84846106b8565b90507fffffffffffffffffffffffffffffffffffffffffffffffffffffffffffffffff81146107df57818110156107d0578281836040517ffb8f41b20000000000000000000000000000000000000000000000000000000081526004016107c7939291906119c9565b60405180910390fd5b6107de84848484035f610ae1565b5b50505050565b5f73ffffffffffffffffffffffffffffffffffffffff168373ffffffffffffffffffffffffffffffffffffffff1603610855575f6040517f96c6fd1e00000000000000000000000000000000000000000000000000000000815260040161084c91906119fe565b60405180910390fd5b5f73ffffffffffffffffffffffffffffffffffffffff168273ffffffffffffffffffffffffffffffffffffffff16036108c5575f6040517fec442f050000000000000000000000000000000000000000000000000000000081526004016108bc91906119fe565b60405180910390fd5b6108d0838383610cb0565b505050565b5f7f000000000000000000000000000000000000000000000000000000000000000073ffffffffffffffffffffffffffffffffffffffff163073ffffffffffffffffffffffffffffffffffffffff1614801561095057507f000000000000000000000000000000000000000000000000000000000000000046145b1561097d577f00000000000000000000000000000000000000000000000000000000000000009050610988565b610985610ec9565b90505b90565b5f60075f8373ffffffffffffffffffffffffffffffffffffffff1673ffffffffffffffffffffffffffffffffffffffff1681526020019081526020015f20549050919050565b6060610a0760057f0000000000000000000000000000000000000000000000000000000000000000610f5e90919063ffffffff16565b905090565b6060610a4260067f0000000000000000000000000000000000000000000000000000000000000000610f5e90919063ffffffff16565b905090565b5f60075f8373ffffffffffffffffffffffffffffffffffffffff1673ffffffffffffffffffffffffffffffffffffffff1681526020019081526020015f205f815480929190600101919050559050919050565b5f610aac610aa66108d5565b8361100b565b9050919050565b5f805f80610ac38888888861104b565b925092509250610ad38282611132565b829350505050949350505050565b5f73ffffffffffffffffffffffffffffffffffffffff168473ffffffffffffffffffffffffffffffffffffffff1603610b51575f6040517fe602df05000000000000000000000000000000000000000000000000000000008152600401610b4891906119fe565b60405180910390fd5b5f73ffffffffffffffffffffffffffffffffffffffff168373ffffffffffffffffffffffffffffffffffffffff1603610bc1575f6040517f94280d62000000000000000000000000000000000000000000000000000000008152600401610bb891906119fe565b60405180910390fd5b8160015f8673ffffffffffffffffffffffffffffffffffffffff1673ffffffffffffffffffffffffffffffffffffffff1681526020019081526020015f205f8573ffffffffffffffffffffffffffffffffffffffff1673ffffffffffffffffffffffffffffffffffffffff1681526020019081526020015f20819055508015610caa578273ffffffffffffffffffffffffffffffffffffffff168473ffffffffffffffffffffffffffffffffffffffff167f8c5be1e5ebec7d5bd14f71427d1e84f3dd0314c0f7b2291e5b200ac8c7c3b92584604051610ca1919061150f565b60405180910390a35b50505050565b5f73ffffffffffffffffffffffffffffffffffffffff168373ffffffffffffffffffffffffffffffffffffffff1603610d00578060025f828254610cf49190611a44565b92505081905550610dce565b5f805f8573ffffffffffffffffffffffffffffffffffffffff1673ffffffffffffffffffffffffffffffffffffffff1681526020019081526020015f2054905081811015610d89578381836040517fe450d38c000000000000000000000000000000000000000000000000000000008152600401610d80939291906119c9565b60405180910390fd5b8181035f808673ffffffffffffffffffffffffffffffffffffffff1673ffffffffffffffffffffffffffffffffffffffff1681526020019081526020015f2081905550505b5f73ffffffffffffffffffffffffffffffffffffffff168273ffffffffffffffffffffffffffffffffffffffff1603610e15578060025f8282540392505081905550610e5f565b805f808473ffffffffffffffffffffffffffffffffffffffff1673ffffffffffffffffffffffffffffffffffffffff1681526020019081526020015f205f82825401925050819055505b8173ffffffffffffffffffffffffffffffffffffffff168373ffffffffffffffffffffffffffffffffffffffff167fddf252ad1be2c89b69c2b068fc378daa952ba7f163c4a11628f55a4df523b3ef83604051610ebc919061150f565b60405180910390a3505050565b5f7f8b73c3c69bb8fe3d512ecc4cf759cc79239f7b179b0ffacaa9a75d522b39400f7f00000000000000000000000000000000000000000000000000000000000000007f00000000000000000000000000000000000000000000000000000000000000004630604051602001610f43959493929190611a77565b60405160208183030381529060405280519060200120905090565b606060ff5f1b8314610f7a57610f7383611294565b9050611005565b818054610f86906118e6565b80601f0160208091040260200160405190810160405280929190818152602001828054610fb2906118e6565b8015610ffd5780601f10610fd457610100808354040283529160200191610ffd565b820191905f5260205f20905b815481529060010190602001808311610fe057829003601f168201915b505050505090505b92915050565b5f6040517f190100000000000000000000000000000000000000000000000000000000000081528360028201528260228201526042812091505092915050565b5f805f7f7fffffffffffffffffffffffffffffff5d576e7357a4501ddfe92f46681b20a0845f1c1115611087575f600385925092509250611128565b5f6001888888886040515f81526020016040526040516110aa9493929190611ac8565b6020604051602081039080840390855afa1580156110ca573d5f803e3d5ffd5b5050506020604051035190505f73ffffffffffffffffffffffffffffffffffffffff168173ffffffffffffffffffffffffffffffffffffffff160361111b575f60015f801b93509350935050611128565b805f805f1b935093509350505b9450945094915050565b5f600381111561114557611144611b0b565b5b82600381111561115857611157611b0b565b5b0315611290576001600381111561117257611171611b0b565b5b82600381111561118557611184611b0b565b5b036111bc576040517ff645eedf00000000000000000000000000000000000000000000000000000000815260040160405180910390fd5b600260038111156111d0576111cf611b0b565b5b8260038111156111e3576111e2611b0b565b5b0361122757805f1c6040517ffce698f700000000000000000000000000000000000000000000000000000000815260040161121e919061150f565b60405180910390fd5b60038081111561123a57611239611b0b565b5b82600381111561124d5761124c611b0b565b5b0361128f57806040517fd78bce0c00000000000000000000000000000000000000000000000000000000815260040161128691906115c4565b60405180910390fd5b5b5050565b60605f6112a083611306565b90505f602067ffffffffffffffff8111156112be576112bd611916565b5b6040519080825280601f01601f1916602001820160405280156112f05781602001600182028036833780820191505090505b5090508181528360208201528092505050919050565b5f8060ff835f1c169050601f81111561134b576040517fb3512b0c00000000000000000000000000000000000000000000000000000000815260040160405180910390fd5b80915050919050565b5f81519050919050565b5f82825260208201905092915050565b5f5b8381101561138b578082015181840152602081019050611370565b5f8484015250505050565b5f601f19601f8301169050919050565b5f6113b082611354565b6113ba818561135e565b93506113ca81856020860161136e565b6113d381611396565b840191505092915050565b5f6020820190508181035f8301526113f681846113a6565b905092915050565b5f80fd5b5f73ffffffffffffffffffffffffffffffffffffffff82169050919050565b5f61142b82611402565b9050919050565b61143b81611421565b8114611445575f80fd5b50565b5f8135905061145681611432565b92915050565b5f819050919050565b61146e8161145c565b8114611478575f80fd5b50565b5f8135905061148981611465565b92915050565b5f80604083850312156114a5576114a46113fe565b5b5f6114b285828601611448565b92505060206114c38582860161147b565b9150509250929050565b5f8115159050919050565b6114e1816114cd565b82525050565b5f6020820190506114fa5f8301846114d8565b92915050565b6115098161145c565b82525050565b5f6020820190506115225f830184611500565b92915050565b5f805f6060848603121561153f5761153e6113fe565b5b5f61154c86828701611448565b935050602061155d86828701611448565b925050604061156e8682870161147b565b9150509250925092565b5f60ff82169050919050565b61158d81611578565b82525050565b5f6020820190506115a65f830184611584565b92915050565b5f819050919050565b6115be816115ac565b82525050565b5f6020820190506115d75f8301846115b5565b92915050565b5f602082840312156115f2576115f16113fe565b5b5f6115ff84828501611448565b91505092915050565b5f7fff0000000000000000000000000000000000000000000000000000000000000082169050919050565b61163c81611608565b82525050565b61164b81611421565b82525050565b5f81519050919050565b5f82825260208201905092915050565b5f819050602082019050919050565b6116838161145c565b82525050565b5f611694838361167a565b60208301905092915050565b5f602082019050919050565b5f6116b682611651565b6116c0818561165b565b93506116cb8361166b565b805f5b838110156116fb5781516116e28882611689565b97506116ed836116a0565b9250506001810190506116ce565b5085935050505092915050565b5f60e08201905061171b5f83018a611633565b818103602083015261172d81896113a6565b9050818103604083015261174181886113a6565b90506117506060830187611500565b61175d6080830186611642565b61176a60a08301856115b5565b81810360c083015261177c81846116ac565b905098975050505050505050565b61179381611578565b811461179d575f80fd5b50565b5f813590506117ae8161178a565b92915050565b6117bd816115ac565b81146117c7575f80fd5b50565b5f813590506117d8816117b4565b92915050565b5f805f805f805f60e0888a0312156117f9576117f86113fe565b5b5f6118068a828b01611448565b97505060206118178a828b01611448565b96505060406118288a828b0161147b565b95505060606118398a828b0161147b565b945050608061184a8a828b016117a0565b93505060a061185b8a828b016117ca565b92505060c061186c8a828b016117ca565b91505092959891949750929550565b5f8060408385031215611891576118906113fe565b5b5f61189e85828601611448565b92505060206118af85828601611448565b9150509250929050565b7f4e487b71000000000000000000000000000000000000000000000000000000005f52602260045260245ffd5b5f60028204905060018216806118fd57607f821691505b6020821081036119105761190f6118b9565b5b50919050565b7f4e487b71000000000000000000000000000000000000000000000000000000005f52604160045260245ffd5b5f60c0820190506119565f8301896115b5565b6119636020830188611642565b6119706040830187611642565b61197d6060830186611500565b61198a6080830185611500565b61199760a0830184611500565b979650505050505050565b5f6040820190506119b55f830185611642565b6119c26020830184611642565b9392505050565b5f6060820190506119dc5f830186611642565b6119e96020830185611500565b6119f66040830184611500565b949350505050565b5f602082019050611a115f830184611642565b92915050565b7f4e487b71000000000000000000000000000000000000000000000000000000005f52601160045260245ffd5b5f611a4e8261145c565b9150611a598361145c565b9250828201905080821115611a7157611a70611a17565b5b92915050565b5f60a082019050611a8a5f8301886115b5565b611a9760208301876115b5565b611aa460408301866115b5565b611ab16060830185611500565b611abe6080830184611642565b9695505050505050565b5f608082019050611adb5f8301876115b5565b611ae86020830186611584565b611af560408301856115b5565b611b0260608301846115b5565b95945050505050565b7f4e487b71000000000000000000000000000000000000000000000000000000005f52602160045260245ffdfea2646970667358221220a3b651deeede408756b2dd895a28adcb1cc2b656366aae713ce89fd739b1b30764736f6c63430008160033",
					"opcodes": "PUSH2 0x160 PUSH1 0x40 MSTORE CALLVALUE DUP1 ISZERO PUSH3 0x11 JUMPI PUSH0 DUP1 REVERT JUMPDEST POP PUSH1 0x40 MLOAD DUP1 PUSH1 0x40 ADD PUSH1 0x40 MSTORE DUP1 PUSH1 0xE DUP2 MSTORE PUSH1 0x20 ADD PUSH32 0x4B6E6F774C65646765546F6B656E000000000000000000000000000000000000 DUP2 MSTORE POP DUP1 PUSH1 0x40 MLOAD DUP1 PUSH1 0x40 ADD PUSH1 0x40 MSTORE DUP1 PUSH1 0x1 DUP2 MSTORE PUSH1 0x20 ADD PUSH32 0x3100000000000000000000000000000000000000000000000000000000000000 DUP2 MSTORE POP PUSH1 0x40 MLOAD DUP1 PUSH1 0x40 ADD PUSH1 0x40 MSTORE DUP1 PUSH1 0xE DUP2 MSTORE PUSH1 0x20 ADD PUSH32 0x4B6E6F774C65646765546F6B656E000000000000000000000000000000000000 DUP2 MSTORE POP PUSH1 0x40 MLOAD DUP1 PUSH1 0x40 ADD PUSH1 0x40 MSTORE DUP1 PUSH1 0x3 DUP2 MSTORE PUSH1 0x20 ADD PUSH32 0x4B544B0000000000000000000000000000000000000000000000000000000000 DUP2 MSTORE POP DUP2 PUSH1 0x3 SWAP1 DUP2 PUSH3 0xFC SWAP2 SWAP1 PUSH3 0x844 JUMP JUMPDEST POP DUP1 PUSH1 0x4 SWAP1 DUP2 PUSH3 0x10E SWAP2 SWAP1 PUSH3 0x844 JUMP JUMPDEST POP POP POP PUSH3 0x127 PUSH1 0x5 DUP4 PUSH3 0x206 PUSH1 0x20 SHL SWAP1 SWAP2 SWAP1 PUSH1 0x20 SHR JUMP JUMPDEST PUSH2 0x120 DUP2 DUP2 MSTORE POP POP PUSH3 0x145 PUSH1 0x6 DUP3 PUSH3 0x206 PUSH1 0x20 SHL SWAP1 SWAP2 SWAP1 PUSH1 0x20 SHR JUMP JUMPDEST PUSH2 0x140 DUP2 DUP2 MSTORE POP POP DUP2 DUP1 MLOAD SWAP1 PUSH1 0x20 ADD KECCAK256 PUSH1 0xE0 DUP2 DUP2 MSTORE POP POP DUP1 DUP1 MLOAD SWAP1 PUSH1 0x20 ADD KECCAK256 PUSH2 0x100 DUP2 DUP2 MSTORE POP POP CHAINID PUSH1 0xA0 DUP2 DUP2 MSTORE POP POP PUSH3 0x184 PUSH3 0x25B PUSH1 0x20 SHL PUSH1 0x20 SHR JUMP JUMPDEST PUSH1 0x80 DUP2 DUP2 MSTORE POP POP ADDRESS PUSH20 0xFFFFFFFFFFFFFFFFFFFFFFFFFFFFFFFFFFFFFFFF AND PUSH1 0xC0 DUP2 PUSH20 0xFFFFFFFFFFFFFFFFFFFFFFFFFFFFFFFFFFFFFFFF AND DUP2 MSTORE POP POP POP POP POP PUSH3 0x200 CALLER PUSH3 0x1D7 PUSH3 0x2B7 PUSH1 0x20 SHL PUSH1 0x20 SHR JUMP JUMPDEST PUSH1 0xA PUSH3 0x1E5 SWAP2 SWAP1 PUSH3 0xAB1 JUMP JUMPDEST PUSH2 0x2710 PUSH3 0x1F4 SWAP2 SWAP1 PUSH3 0xB01 JUMP JUMPDEST PUSH3 0x2BF PUSH1 0x20 SHL PUSH1 0x20 SHR JUMP JUMPDEST PUSH3 0xE09 JUMP JUMPDEST PUSH0 PUSH1 0x20 DUP4 MLOAD LT ISZERO PUSH3 0x22B JUMPI PUSH3 0x223 DUP4 PUSH3 0x349 PUSH1 0x20 SHL PUSH1 0x20 SHR JUMP JUMPDEST SWAP1 POP PUSH3 0x255 JUMP JUMPDEST DUP3 PUSH3 0x23D DUP4 PUSH3 0x3B3 PUSH1 0x20 SHL PUSH1 0x20 SHR JUMP JUMPDEST PUSH0 ADD SWAP1 DUP2 PUSH3 0x24D SWAP2 SWAP1 PUSH3 0x844 JUMP JUMPDEST POP PUSH1 0xFF PUSH0 SHL SWAP1 POP JUMPDEST SWAP3 SWAP2 POP POP JUMP JUMPDEST PUSH0 PUSH32 0x8B73C3C69BB8FE3D512ECC4CF759CC79239F7B179B0FFACAA9A75D522B39400F PUSH1 0xE0 MLOAD PUSH2 0x100 MLOAD CHAINID ADDRESS PUSH1 0x40 MLOAD PUSH1 0x20 ADD PUSH3 0x29C SWAP6 SWAP5 SWAP4 SWAP3 SWAP2 SWAP1 PUSH3 0xBB9 JUMP JUMPDEST PUSH1 0x40 MLOAD PUSH1 0x20 DUP2 DUP4 SUB SUB DUP2 MSTORE SWAP1 PUSH1 0x40 MSTORE DUP1 MLOAD SWAP1 PUSH1 0x20 ADD KECCAK256 SWAP1 POP SWAP1 JUMP JUMPDEST PUSH0 PUSH1 0x12 SWAP1 POP SWAP1 JUMP JUMPDEST PUSH0 PUSH20 0xFFFFFFFFFFFFFFFFFFFFFFFFFFFFFFFFFFFFFFFF AND DUP3 PUSH20 0xFFFFFFFFFFFFFFFFFFFFFFFFFFFFFFFFFFFFFFFF AND SUB PUSH3 0x332 JUMPI PUSH0 PUSH1 0x40 MLOAD PUSH32 0xEC442F0500000000000000000000000000000000000000000000000000000000 DUP2 MSTORE PUSH1 0x4 ADD PUSH3 0x329 SWAP2 SWAP1 PUSH3 0xC14 JUMP JUMPDEST PUSH1 0x40 MLOAD DUP1 SWAP2 SUB SWAP1 REVERT JUMPDEST PUSH3 0x345 PUSH0 DUP4 DUP4 PUSH3 0x3BC PUSH1 0x20 SHL PUSH1 0x20 SHR JUMP JUMPDEST POP POP JUMP JUMPDEST PUSH0 DUP1 DUP3 SWAP1 POP PUSH1 0x1F DUP2 MLOAD GT ISZERO PUSH3 0x398 JUMPI DUP3 PUSH1 0x40 MLOAD PUSH32 0x305A27A900000000000000000000000000000000000000000000000000000000 DUP2 MSTORE PUSH1 0x4 ADD PUSH3 0x38F SWAP2 SWAP1 PUSH3 0xCB9 JUMP JUMPDEST PUSH1 0x40 MLOAD DUP1 SWAP2 SUB SWAP1 REVERT JUMPDEST DUP1 MLOAD DUP2 PUSH3 0x3A6 SWAP1 PUSH3 0xD0A JUMP JUMPDEST PUSH0 SHR OR PUSH0 SHL SWAP2 POP POP SWAP2 SWAP1 POP JUMP JUMPDEST PUSH0 DUP2 SWAP1 POP SWAP2 SWAP1 POP JUMP JUMPDEST PUSH0 PUSH20 0xFFFFFFFFFFFFFFFFFFFFFFFFFFFFFFFFFFFFFFFF AND DUP4 PUSH20 0xFFFFFFFFFFFFFFFFFFFFFFFFFFFFFFFFFFFFFFFF AND SUB PUSH3 0x410 JUMPI DUP1 PUSH1 0x2 PUSH0 DUP3 DUP3 SLOAD PUSH3 0x403 SWAP2 SWAP1 PUSH3 0xD79 JUMP JUMPDEST SWAP3 POP POP DUP2 SWAP1 SSTORE POP PUSH3 0x4E1 JUMP JUMPDEST PUSH0 DUP1 PUSH0 DUP6 PUSH20 0xFFFFFFFFFFFFFFFFFFFFFFFFFFFFFFFFFFFFFFFF AND PUSH20 0xFFFFFFFFFFFFFFFFFFFFFFFFFFFFFFFFFFFFFFFF AND DUP2 MSTORE PUSH1 0x20 ADD SWAP1 DUP2 MSTORE PUSH1 0x20 ADD PUSH0 KECCAK256 SLOAD SWAP1 POP DUP2 DUP2 LT ISZERO PUSH3 0x49C JUMPI DUP4 DUP2 DUP4 PUSH1 0x40 MLOAD PUSH32 0xE450D38C00000000000000000000000000000000000000000000000000000000 DUP2 MSTORE PUSH1 0x4 ADD PUSH3 0x493 SWAP4 SWAP3 SWAP2 SWAP1 PUSH3 0xDB3 JUMP JUMPDEST PUSH1 0x40 MLOAD DUP1 SWAP2 SUB SWAP1 REVERT JUMPDEST DUP2 DUP2 SUB PUSH0 DUP1 DUP7 PUSH20 0xFFFFFFFFFFFFFFFFFFFFFFFFFFFFFFFFFFFFFFFF AND PUSH20 0xFFFFFFFFFFFFFFFFFFFFFFFFFFFFFFFFFFFFFFFF AND DUP2 MSTORE PUSH1 0x20 ADD SWAP1 DUP2 MSTORE PUSH1 0x20 ADD PUSH0 KECCAK256 DUP2 SWAP1 SSTORE POP POP JUMPDEST PUSH0 PUSH20 0xFFFFFFFFFFFFFFFFFFFFFFFFFFFFFFFFFFFFFFFF AND DUP3 PUSH20 0xFFFFFFFFFFFFFFFFFFFFFFFFFFFFFFFFFFFFFFFF AND SUB PUSH3 0x52A JUMPI DUP1 PUSH1 0x2 PUSH0 DUP3 DUP3 SLOAD SUB SWAP3 POP POP DUP2 SWAP1 SSTORE POP PUSH3 0x574 JUMP JUMPDEST DUP1 PUSH0 DUP1 DUP5 PUSH20 0xFFFFFFFFFFFFFFFFFFFFFFFFFFFFFFFFFFFFFFFF AND PUSH20 0xFFFFFFFFFFFFFFFFFFFFFFFFFFFFFFFFFFFFFFFF AND DUP2 MSTORE PUSH1 0x20 ADD SWAP1 DUP2 MSTORE PUSH1 0x20 ADD PUSH0 KECCAK256 PUSH0 DUP3 DUP3 SLOAD ADD SWAP3 POP POP DUP2 SWAP1 SSTORE POP JUMPDEST DUP2 PUSH20 0xFFFFFFFFFFFFFFFFFFFFFFFFFFFFFFFFFFFFFFFF AND DUP4 PUSH20 0xFFFFFFFFFFFFFFFFFFFFFFFFFFFFFFFFFFFFFFFF AND PUSH32 0xDDF252AD1BE2C89B69C2B068FC378DAA952BA7F163C4A11628F55A4DF523B3EF DUP4 PUSH1 0x40 MLOAD PUSH3 0x5D3 SWAP2 SWAP1 PUSH3 0xDEE JUMP JUMPDEST PUSH1 0x40 MLOAD DUP1 SWAP2 SUB SWAP1 LOG3 POP POP POP JUMP JUMPDEST PUSH0 DUP2 MLOAD SWAP1 POP SWAP2 SWAP1 POP JUMP JUMPDEST PUSH32 0x4E487B7100000000000000000000000000000000000000000000000000000000 PUSH0 MSTORE PUSH1 0x41 PUSH1 0x4 MSTORE PUSH1 0x24 PUSH0 REVERT JUMPDEST PUSH32 0x4E487B7100000000000000000000000000000000000000000000000000000000 PUSH0 MSTORE PUSH1 0x22 PUSH1 0x4 MSTORE PUSH1 0x24 PUSH0 REVERT JUMPDEST PUSH0 PUSH1 0x2 DUP3 DIV SWAP1 POP PUSH1 0x1 DUP3 AND DUP1 PUSH3 0x65C JUMPI PUSH1 0x7F DUP3 AND SWAP2 POP JUMPDEST PUSH1 0x20 DUP3 LT DUP2 SUB PUSH3 0x672 JUMPI PUSH3 0x671 PUSH3 0x617 JUMP JUMPDEST JUMPDEST POP SWAP2 SWAP1 POP JUMP JUMPDEST PUSH0 DUP2 SWAP1 POP DUP2 PUSH0 MSTORE PUSH1 0x20 PUSH0 KECCAK256 SWAP1 POP SWAP2 SWAP1 POP JUMP JUMPDEST PUSH0 PUSH1 0x20 PUSH1 0x1F DUP4 ADD DIV SWAP1 POP SWAP2 SWAP1 POP JUMP JUMPDEST PUSH0 DUP3 DUP3 SHL SWAP1 POP SWAP3 SWAP2 POP POP JUMP JUMPDEST PUSH0 PUSH1 0x8 DUP4 MUL PUSH3 0x6D6 PUSH32 0xFFFFFFFFFFFFFFFFFFFFFFFFFFFFFFFFFFFFFFFFFFFFFFFFFFFFFFFFFFFFFFFF DUP3 PUSH3 0x699 JUMP JUMPDEST PUSH3 0x6E2 DUP7 DUP4 PUSH3 0x699 JUMP JUMPDEST SWAP6 POP DUP1 NOT DUP5 AND SWAP4 POP DUP1 DUP7 AND DUP5 OR SWAP3 POP POP POP SWAP4 SWAP3 POP POP POP JUMP JUMPDEST PUSH0 DUP2 SWAP1 POP SWAP2 SWAP1 POP JUMP JUMPDEST PUSH0 DUP2 SWAP1 POP SWAP2 SWAP1 POP JUMP JUMPDEST PUSH0 PUSH3 0x72C PUSH3 0x726 PUSH3 0x720 DUP5 PUSH3 0x6FA JUMP JUMPDEST PUSH3 0x703 JUMP JUMPDEST PUSH3 0x6FA JUMP JUMPDEST SWAP1 POP SWAP2 SWAP1 POP JUMP JUMPDEST PUSH0 DUP2 SWAP1 POP SWAP2 SWAP1 POP JUMP JUMPDEST PUSH3 0x747 DUP4 PUSH3 0x70C JUMP JUMPDEST PUSH3 0x75F PUSH3 0x756 DUP3 PUSH3 0x733 JUMP JUMPDEST DUP5 DUP5 SLOAD PUSH3 0x6A5 JUMP JUMPDEST DUP3 SSTORE POP POP POP POP JUMP JUMPDEST PUSH0 SWAP1 JUMP JUMPDEST PUSH3 0x775 PUSH3 0x767 JUMP JUMPDEST PUSH3 0x782 DUP2 DUP5 DUP5 PUSH3 0x73C JUMP JUMPDEST POP POP POP JUMP JUMPDEST JUMPDEST DUP2 DUP2 LT ISZERO PUSH3 0x7A9 JUMPI PUSH3 0x79D PUSH0 DUP3 PUSH3 0x76B JUMP JUMPDEST PUSH1 0x1 DUP2 ADD SWAP1 POP PUSH3 0x788 JUMP JUMPDEST POP POP JUMP JUMPDEST PUSH1 0x1F DUP3 GT ISZERO PUSH3 0x7F8 JUMPI PUSH3 0x7C2 DUP2 PUSH3 0x678 JUMP JUMPDEST PUSH3 0x7CD DUP5 PUSH3 0x68A JUMP JUMPDEST DUP2 ADD PUSH1 0x20 DUP6 LT ISZERO PUSH3 0x7DD JUMPI DUP2 SWAP1 POP JUMPDEST PUSH3 0x7F5 PUSH3 0x7EC DUP6 PUSH3 0x68A JUMP JUMPDEST DUP4 ADD DUP3 PUSH3 0x787 JUMP JUMPDEST POP POP JUMPDEST POP POP POP JUMP JUMPDEST PUSH0 DUP3 DUP3 SHR SWAP1 POP SWAP3 SWAP2 POP POP JUMP JUMPDEST PUSH0 PUSH3 0x81A PUSH0 NOT DUP5 PUSH1 0x8 MUL PUSH3 0x7FD JUMP JUMPDEST NOT DUP1 DUP4 AND SWAP2 POP POP SWAP3 SWAP2 POP POP JUMP JUMPDEST PUSH0 PUSH3 0x834 DUP4 DUP4 PUSH3 0x809 JUMP JUMPDEST SWAP2 POP DUP3 PUSH1 0x2 MUL DUP3 OR SWAP1 POP SWAP3 SWAP2 POP POP JUMP JUMPDEST PUSH3 0x84F DUP3 PUSH3 0x5E0 JUMP JUMPDEST PUSH8 0xFFFFFFFFFFFFFFFF DUP2 GT ISZERO PUSH3 0x86B JUMPI PUSH3 0x86A PUSH3 0x5EA JUMP JUMPDEST JUMPDEST PUSH3 0x877 DUP3 SLOAD PUSH3 0x644 JUMP JUMPDEST PUSH3 0x884 DUP3 DUP3 DUP6 PUSH3 0x7AD JUMP JUMPDEST PUSH0 PUSH1 0x20 SWAP1 POP PUSH1 0x1F DUP4 GT PUSH1 0x1 DUP2 EQ PUSH3 0x8BA JUMPI PUSH0 DUP5 ISZERO PUSH3 0x8A5 JUMPI DUP3 DUP8 ADD MLOAD SWAP1 POP JUMPDEST PUSH3 0x8B1 DUP6 DUP3 PUSH3 0x827 JUMP JUMPDEST DUP7 SSTORE POP PUSH3 0x920 JUMP JUMPDEST PUSH1 0x1F NOT DUP5 AND PUSH3 0x8CA DUP7 PUSH3 0x678 JUMP JUMPDEST PUSH0 JUMPDEST DUP3 DUP2 LT ISZERO PUSH3 0x8F3 JUMPI DUP5 DUP10 ADD MLOAD DUP3 SSTORE PUSH1 0x1 DUP3 ADD SWAP2 POP PUSH1 0x20 DUP6 ADD SWAP5 POP PUSH1 0x20 DUP2 ADD SWAP1 POP PUSH3 0x8CC JUMP JUMPDEST DUP7 DUP4 LT ISZERO PUSH3 0x913 JUMPI DUP5 DUP10 ADD MLOAD PUSH3 0x90F PUSH1 0x1F DUP10 AND DUP3 PUSH3 0x809 JUMP JUMPDEST DUP4 SSTORE POP JUMPDEST PUSH1 0x1 PUSH1 0x2 DUP9 MUL ADD DUP9 SSTORE POP POP POP JUMPDEST POP POP POP POP POP POP JUMP JUMPDEST PUSH32 0x4E487B7100000000000000000000000000000000000000000000000000000000 PUSH0 MSTORE PUSH1 0x11 PUSH1 0x4 MSTORE PUSH1 0x24 PUSH0 REVERT JUMPDEST PUSH0 DUP2 PUSH1 0x1 SHR SWAP1 POP SWAP2 SWAP1 POP JUMP JUMPDEST PUSH0 DUP1 DUP3 SWAP2 POP DUP4 SWAP1 POP JUMPDEST PUSH1 0x1 DUP6 GT ISZERO PUSH3 0x9B2 JUMPI DUP1 DUP7 DIV DUP2 GT ISZERO PUSH3 0x98A JUMPI PUSH3 0x989 PUSH3 0x928 JUMP JUMPDEST JUMPDEST PUSH1 0x1 DUP6 AND ISZERO PUSH3 0x99A JUMPI DUP1 DUP3 MUL SWAP2 POP JUMPDEST DUP1 DUP2 MUL SWAP1 POP PUSH3 0x9AA DUP6 PUSH3 0x955 JUMP JUMPDEST SWAP5 POP PUSH3 0x96A JUMP JUMPDEST SWAP5 POP SWAP5 SWAP3 POP POP POP JUMP JUMPDEST PUSH0 DUP3 PUSH3 0x9CC JUMPI PUSH1 0x1 SWAP1 POP PUSH3 0xA9E JUMP JUMPDEST DUP2 PUSH3 0x9DB JUMPI PUSH0 SWAP1 POP PUSH3 0xA9E JUMP JUMPDEST DUP2 PUSH1 0x1 DUP2 EQ PUSH3 0x9F4 JUMPI PUSH1 0x2 DUP2 EQ PUSH3 0x9FF JUMPI PUSH3 0xA35 JUMP JUMPDEST PUSH1 0x1 SWAP2 POP POP PUSH3 0xA9E JUMP JUMPDEST PUSH1 0xFF DUP5 GT ISZERO PUSH3 0xA14 JUMPI PUSH3 0xA13 PUSH3 0x928 JUMP JUMPDEST JUMPDEST DUP4 PUSH1 0x2 EXP SWAP2 POP DUP5 DUP3 GT ISZERO PUSH3 0xA2E JUMPI PUSH3 0xA2D PUSH3 0x928 JUMP JUMPDEST JUMPDEST POP PUSH3 0xA9E JUMP JUMPDEST POP PUSH1 0x20 DUP4 LT PUSH2 0x133 DUP4 LT AND PUSH1 0x4E DUP5 LT PUSH1 0xB DUP5 LT AND OR ISZERO PUSH3 0xA6F JUMPI DUP3 DUP3 EXP SWAP1 POP DUP4 DUP2 GT ISZERO PUSH3 0xA69 JUMPI PUSH3 0xA68 PUSH3 0x928 JUMP JUMPDEST JUMPDEST PUSH3 0xA9E JUMP JUMPDEST PUSH3 0xA7E DUP5 DUP5 DUP5 PUSH1 0x1 PUSH3 0x961 JUMP JUMPDEST SWAP3 POP SWAP1 POP DUP2 DUP5 DIV DUP2 GT ISZERO PUSH3 0xA98 JUMPI PUSH3 0xA97 PUSH3 0x928 JUMP JUMPDEST JUMPDEST DUP2 DUP2 MUL SWAP1 POP JUMPDEST SWAP4 SWAP3 POP POP POP JUMP JUMPDEST PUSH0 PUSH1 0xFF DUP3 AND SWAP1 POP SWAP2 SWAP1 POP JUMP JUMPDEST PUSH0 PUSH3 0xABD DUP3 PUSH3 0x6FA JUMP JUMPDEST SWAP2 POP PUSH3 0xACA DUP4 PUSH3 0xAA5 JUMP JUMPDEST SWAP3 POP PUSH3 0xAF9 PUSH32 0xFFFFFFFFFFFFFFFFFFFFFFFFFFFFFFFFFFFFFFFFFFFFFFFFFFFFFFFFFFFFFFFF DUP5 DUP5 PUSH3 0x9BB JUMP JUMPDEST SWAP1 POP SWAP3 SWAP2 POP POP JUMP JUMPDEST PUSH0 PUSH3 0xB0D DUP3 PUSH3 0x6FA JUMP JUMPDEST SWAP2 POP PUSH3 0xB1A DUP4 PUSH3 0x6FA JUMP JUMPDEST SWAP3 POP DUP3 DUP3 MUL PUSH3 0xB2A DUP2 PUSH3 0x6FA JUMP JUMPDEST SWAP2 POP DUP3 DUP3 DIV DUP5 EQ DUP4 ISZERO OR PUSH3 0xB44 JUMPI PUSH3 0xB43 PUSH3 0x928 JUMP JUMPDEST JUMPDEST POP SWAP3 SWAP2 POP POP JUMP JUMPDEST PUSH0 DUP2 SWAP1 POP SWAP2 SWAP1 POP JUMP JUMPDEST PUSH3 0xB5F DUP2 PUSH3 0xB4B JUMP JUMPDEST DUP3 MSTORE POP POP JUMP JUMPDEST PUSH3 0xB70 DUP2 PUSH3 0x6FA JUMP JUMPDEST DUP3 MSTORE POP POP JUMP JUMPDEST PUSH0 PUSH20 0xFFFFFFFFFFFFFFFFFFFFFFFFFFFFFFFFFFFFFFFF DUP3 AND SWAP1 POP SWAP2 SWAP1 POP JUMP JUMPDEST PUSH0 PUSH3 0xBA1 DUP3 PUSH3 0xB76 JUMP JUMPDEST SWAP1 POP SWAP2 SWAP1 POP JUMP JUMPDEST PUSH3 0xBB3 DUP2 PUSH3 0xB95 JUMP JUMPDEST DUP3 MSTORE POP POP JUMP JUMPDEST PUSH0 PUSH1 0xA0 DUP3 ADD SWAP1 POP PUSH3 0xBCE PUSH0 DUP4 ADD DUP9 PUSH3 0xB54 JUMP JUMPDEST PUSH3 0xBDD PUSH1 0x20 DUP4 ADD DUP8 PUSH3 0xB54 JUMP JUMPDEST PUSH3 0xBEC PUSH1 0x40 DUP4 ADD DUP7 PUSH3 0xB54 JUMP JUMPDEST PUSH3 0xBFB PUSH1 0x60 DUP4 ADD DUP6 PUSH3 0xB65 JUMP JUMPDEST PUSH3 0xC0A PUSH1 0x80 DUP4 ADD DUP5 PUSH3 0xBA8 JUMP JUMPDEST SWAP7 SWAP6 POP POP POP POP POP POP JUMP JUMPDEST PUSH0 PUSH1 0x20 DUP3 ADD SWAP1 POP PUSH3 0xC29 PUSH0 DUP4 ADD DUP5 PUSH3 0xBA8 JUMP JUMPDEST SWAP3 SWAP2 POP POP JUMP JUMPDEST PUSH0 DUP3 DUP3 MSTORE PUSH1 0x20 DUP3 ADD SWAP1 POP SWAP3 SWAP2 POP POP JUMP JUMPDEST PUSH0 JUMPDEST DUP4 DUP2 LT ISZERO PUSH3 0xC5E JUMPI DUP1 DUP3 ADD MLOAD DUP2 DUP5 ADD MSTORE PUSH1 0x20 DUP2 ADD SWAP1 POP PUSH3 0xC41 JUMP JUMPDEST PUSH0 DUP5 DUP5 ADD MSTORE POP POP POP POP JUMP JUMPDEST PUSH0 PUSH1 0x1F NOT PUSH1 0x1F DUP4 ADD AND SWAP1 POP SWAP2 SWAP1 POP JUMP JUMPDEST PUSH0 PUSH3 0xC85 DUP3 PUSH3 0x5E0 JUMP JUMPDEST PUSH3 0xC91 DUP2 DUP6 PUSH3 0xC2F JUMP JUMPDEST SWAP4 POP PUSH3 0xCA3 DUP2 DUP6 PUSH1 0x20 DUP7 ADD PUSH3 0xC3F JUMP JUMPDEST PUSH3 0xCAE DUP2 PUSH3 0xC69 JUMP JUMPDEST DUP5 ADD SWAP2 POP POP SWAP3 SWAP2 POP POP JUMP JUMPDEST PUSH0 PUSH1 0x20 DUP3 ADD SWAP1 POP DUP2 DUP2 SUB PUSH0 DUP4 ADD MSTORE PUSH3 0xCD3 DUP2 DUP5 PUSH3 0xC79 JUMP JUMPDEST SWAP1 POP SWAP3 SWAP2 POP POP JUMP JUMPDEST PUSH0 DUP2 MLOAD SWAP1 POP SWAP2 SWAP1 POP JUMP JUMPDEST PUSH0 DUP2 SWAP1 POP PUSH1 0x20 DUP3 ADD SWAP1 POP SWAP2 SWAP1 POP JUMP JUMPDEST PUSH0 PUSH3 0xD01 DUP3 MLOAD PUSH3 0xB4B JUMP JUMPDEST DUP1 SWAP2 POP POP SWAP2 SWAP1 POP JUMP JUMPDEST PUSH0 PUSH3 0xD16 DUP3 PUSH3 0xCDB JUMP JUMPDEST DUP3 PUSH3 0xD22 DUP5 PUSH3 0xCE5 JUMP JUMPDEST SWAP1 POP PUSH3 0xD2F DUP2 PUSH3 0xCF4 JUMP JUMPDEST SWAP3 POP PUSH1 0x20 DUP3 LT ISZERO PUSH3 0xD72 JUMPI PUSH3 0xD6D PUSH32 0xFFFFFFFFFFFFFFFFFFFFFFFFFFFFFFFFFFFFFFFFFFFFFFFFFFFFFFFFFFFFFFFF DUP4 PUSH1 0x20 SUB PUSH1 0x8 MUL PUSH3 0x699 JUMP JUMPDEST DUP4 AND SWAP3 POP JUMPDEST POP POP SWAP2 SWAP1 POP JUMP JUMPDEST PUSH0 PUSH3 0xD85 DUP3 PUSH3 0x6FA JUMP JUMPDEST SWAP2 POP PUSH3 0xD92 DUP4 PUSH3 0x6FA JUMP JUMPDEST SWAP3 POP DUP3 DUP3 ADD SWAP1 POP DUP1 DUP3 GT ISZERO PUSH3 0xDAD JUMPI PUSH3 0xDAC PUSH3 0x928 JUMP JUMPDEST JUMPDEST SWAP3 SWAP2 POP POP JUMP JUMPDEST PUSH0 PUSH1 0x60 DUP3 ADD SWAP1 POP PUSH3 0xDC8 PUSH0 DUP4 ADD DUP7 PUSH3 0xBA8 JUMP JUMPDEST PUSH3 0xDD7 PUSH1 0x20 DUP4 ADD DUP6 PUSH3 0xB65 JUMP JUMPDEST PUSH3 0xDE6 PUSH1 0x40 DUP4 ADD DUP5 PUSH3 0xB65 JUMP JUMPDEST SWAP5 SWAP4 POP POP POP POP JUMP JUMPDEST PUSH0 PUSH1 0x20 DUP3 ADD SWAP1 POP PUSH3 0xE03 PUSH0 DUP4 ADD DUP5 PUSH3 0xB65 JUMP JUMPDEST SWAP3 SWAP2 POP POP JUMP JUMPDEST PUSH1 0x80 MLOAD PUSH1 0xA0 MLOAD PUSH1 0xC0 MLOAD PUSH1 0xE0 MLOAD PUSH2 0x100 MLOAD PUSH2 0x120 MLOAD PUSH2 0x140 MLOAD PUSH2 0x1B6E PUSH3 0xE5B PUSH0 CODECOPY PUSH0 PUSH2 0xA15 ADD MSTORE PUSH0 PUSH2 0x9DA ADD MSTORE PUSH0 PUSH2 0xF0E ADD MSTORE PUSH0 PUSH2 0xEED ADD MSTORE PUSH0 PUSH2 0x8D8 ADD MSTORE PUSH0 PUSH2 0x92E ADD MSTORE PUSH0 PUSH2 0x957 ADD MSTORE PUSH2 0x1B6E PUSH0 RETURN INVALID PUSH1 0x80 PUSH1 0x40 MSTORE CALLVALUE DUP1 ISZERO PUSH2 0xF JUMPI PUSH0 DUP1 REVERT JUMPDEST POP PUSH1 0x4 CALLDATASIZE LT PUSH2 0xCD JUMPI PUSH0 CALLDATALOAD PUSH1 0xE0 SHR DUP1 PUSH4 0x70A08231 GT PUSH2 0x8A JUMPI DUP1 PUSH4 0x95D89B41 GT PUSH2 0x64 JUMPI DUP1 PUSH4 0x95D89B41 EQ PUSH2 0x22D JUMPI DUP1 PUSH4 0xA9059CBB EQ PUSH2 0x24B JUMPI DUP1 PUSH4 0xD505ACCF EQ PUSH2 0x27B JUMPI DUP1 PUSH4 0xDD62ED3E EQ PUSH2 0x297 JUMPI PUSH2 0xCD JUMP JUMPDEST DUP1 PUSH4 0x70A08231 EQ PUSH2 0x1A9 JUMPI DUP1 PUSH4 0x7ECEBE00 EQ PUSH2 0x1D9 JUMPI DUP1 PUSH4 0x84B0196E EQ PUSH2 0x209 JUMPI PUSH2 0xCD JUMP JUMPDEST DUP1 PUSH4 0x6FDDE03 EQ PUSH2 0xD1 JUMPI DUP1 PUSH4 0x95EA7B3 EQ PUSH2 0xEF JUMPI DUP1 PUSH4 0x18160DDD EQ PUSH2 0x11F JUMPI DUP1 PUSH4 0x23B872DD EQ PUSH2 0x13D JUMPI DUP1 PUSH4 0x313CE567 EQ PUSH2 0x16D JUMPI DUP1 PUSH4 0x3644E515 EQ PUSH2 0x18B JUMPI JUMPDEST PUSH0 DUP1 REVERT JUMPDEST PUSH2 0xD9 PUSH2 0x2C7 JUMP JUMPDEST PUSH1 0x40 MLOAD PUSH2 0xE6 SWAP2 SWAP1 PUSH2 0x13DE JUMP JUMPDEST PUSH1 0x40 MLOAD DUP1 SWAP2 SUB SWAP1 RETURN JUMPDEST PUSH2 0x109 PUSH1 0x4 DUP1 CALLDATASIZE SUB DUP2 ADD SWAP1 PUSH2 0x104 SWAP2 SWAP1 PUSH2 0x148F JUMP JUMPDEST PUSH2 0x357 JUMP JUMPDEST PUSH1 0x40 MLOAD PUSH2 0x116 SWAP2 SWAP1 PUSH2 0x14E7 JUMP JUMPDEST PUSH1 0x40 MLOAD DUP1 SWAP2 SUB SWAP1 RETURN JUMPDEST PUSH2 0x127 PUSH2 0x379 JUMP JUMPDEST PUSH1 0x40 MLOAD PUSH2 0x134 SWAP2 SWAP1 PUSH2 0x150F JUMP JUMPDEST PUSH1 0x40 MLOAD DUP1 SWAP2 SUB SWAP1 RETURN JUMPDEST PUSH2 0x157 PUSH1 0x4 DUP1 CALLDATASIZE SUB DUP2 ADD SWAP1 PUSH2 0x152 SWAP2 SWAP1 PUSH2 0x1528 JUMP JUMPDEST PUSH2 0x382 JUMP JUMPDEST PUSH1 0x40 MLOAD PUSH2 0x164 SWAP2 SWAP1 PUSH2 0x14E7 JUMP JUMPDEST PUSH1 0x40 MLOAD DUP1 SWAP2 SUB SWAP1 RETURN JUMPDEST PUSH2 0x175 PUSH2 0x3B0 JUMP JUMPDEST PUSH1 0x40 MLOAD PUSH2 0x182 SWAP2 SWAP1 PUSH2 0x1593 JUMP JUMPDEST PUSH1 0x40 MLOAD DUP1 SWAP2 SUB SWAP1 RETURN JUMPDEST PUSH2 0x193 PUSH2 0x3B8 JUMP JUMPDEST PUSH1 0x40 MLOAD PUSH2 0x1A0 SWAP2 SWAP1 PUSH2 0x15C4 JUMP JUMPDEST PUSH1 0x40 MLOAD DUP1 SWAP2 SUB SWAP1 RETURN JUMPDEST PUSH2 0x1C3 PUSH1 0x4 DUP1 CALLDATASIZE SUB DUP2 ADD SWAP1 PUSH2 0x1BE SWAP2 SWAP1 PUSH2 0x15DD JUMP JUMPDEST PUSH2 0x3C6 JUMP JUMPDEST PUSH1 0x40 MLOAD PUSH2 0x1D0 SWAP2 SWAP1 PUSH2 0x150F JUMP JUMPDEST PUSH1 0x40 MLOAD DUP1 SWAP2 SUB SWAP1 RETURN JUMPDEST PUSH2 0x1F3 PUSH1 0x4 DUP1 CALLDATASIZE SUB DUP2 ADD SWAP1 PUSH2 0x1EE SWAP2 SWAP1 PUSH2 0x15DD JUMP JUMPDEST PUSH2 0x40B JUMP JUMPDEST PUSH1 0x40 MLOAD PUSH2 0x200 SWAP2 SWAP1 PUSH2 0x150F JUMP JUMPDEST PUSH1 0x40 MLOAD DUP1 SWAP2 SUB SWAP1 RETURN JUMPDEST PUSH2 0x211 PUSH2 0x41C JUMP JUMPDEST PUSH1 0x40 MLOAD PUSH2 0x224 SWAP8 SWAP7 SWAP6 SWAP5 SWAP4 SWAP3 SWAP2 SWAP1 PUSH2 0x1708 JUMP JUMPDEST PUSH1 0x40 MLOAD DUP1 SWAP2 SUB SWAP1 RETURN JUMPDEST PUSH2 0x235 PUSH2 0x4C1 JUMP JUMPDEST PUSH1 0x40 MLOAD PUSH2 0x242 SWAP2 SWAP1 PUSH2 0x13DE JUMP JUMPDEST PUSH1 0x40 MLOAD DUP1 SWAP2 SUB SWAP1 RETURN JUMPDEST PUSH2 0x265 PUSH1 0x4 DUP1 CALLDATASIZE SUB DUP2 ADD SWAP1 PUSH2 0x260 SWAP2 SWAP1 PUSH2 0x148F JUMP JUMPDEST PUSH2 0x551 JUMP JUMPDEST PUSH1 0x40 MLOAD PUSH2 0x272 SWAP2 SWAP1 PUSH2 0x14E7 JUMP JUMPDEST PUSH1 0x40 MLOAD DUP1 SWAP2 SUB SWAP1 RETURN JUMPDEST PUSH2 0x295 PUSH1 0x4 DUP1 CALLDATASIZE SUB DUP2 ADD SWAP1 PUSH2 0x290 SWAP2 SWAP1 PUSH2 0x17DE JUMP JUMPDEST PUSH2 0x573 JUMP JUMPDEST STOP JUMPDEST PUSH2 0x2B1 PUSH1 0x4 DUP1 CALLDATASIZE SUB DUP2 ADD SWAP1 PUSH2 0x2AC SWAP2 SWAP1 PUSH2 0x187B JUMP JUMPDEST PUSH2 0x6B8 JUMP JUMPDEST PUSH1 0x40 MLOAD PUSH2 0x2BE SWAP2 SWAP1 PUSH2 0x150F JUMP JUMPDEST PUSH1 0x40 MLOAD DUP1 SWAP2 SUB SWAP1 RETURN JUMPDEST PUSH1 0x60 PUSH1 0x3 DUP1 SLOAD PUSH2 0x2D6 SWAP1 PUSH2 0x18E6 JUMP JUMPDEST DUP1 PUSH1 0x1F ADD PUSH1 0x20 DUP1 SWAP2 DIV MUL PUSH1 0x20 ADD PUSH1 0x40 MLOAD SWAP1 DUP2 ADD PUSH1 0x40 MSTORE DUP1 SWAP3 SWAP2 SWAP1 DUP2 DUP2 MSTORE PUSH1 0x20 ADD DUP3 DUP1 SLOAD PUSH2 0x302 SWAP1 PUSH2 0x18E6 JUMP JUMPDEST DUP1 ISZERO PUSH2 0x34D JUMPI DUP1 PUSH1 0x1F LT PUSH2 0x324 JUMPI PUSH2 0x100 DUP1 DUP4 SLOAD DIV MUL DUP4 MSTORE SWAP2 PUSH1 0x20 ADD SWAP2 PUSH2 0x34D JUMP JUMPDEST DUP3 ADD SWAP2 SWAP1 PUSH0 MSTORE PUSH1 0x20 PUSH0 KECCAK256 SWAP1 JUMPDEST DUP2 SLOAD DUP2 MSTORE SWAP1 PUSH1 0x1 ADD SWAP1 PUSH1 0x20 ADD DUP1 DUP4 GT PUSH2 0x330 JUMPI DUP3 SWAP1 SUB PUSH1 0x1F AND DUP3 ADD SWAP2 JUMPDEST POP POP POP POP POP SWAP1 POP SWAP1 JUMP JUMPDEST PUSH0 DUP1 PUSH2 0x361 PUSH2 0x73A JUMP JUMPDEST SWAP1 POP PUSH2 0x36E DUP2 DUP6 DUP6 PUSH2 0x741 JUMP JUMPDEST PUSH1 0x1 SWAP2 POP POP SWAP3 SWAP2 POP POP JUMP JUMPDEST PUSH0 PUSH1 0x2 SLOAD SWAP1 POP SWAP1 JUMP JUMPDEST PUSH0 DUP1 PUSH2 0x38C PUSH2 0x73A JUMP JUMPDEST SWAP1 POP PUSH2 0x399 DUP6 DUP3 DUP6 PUSH2 0x753 JUMP JUMPDEST PUSH2 0x3A4 DUP6 DUP6 DUP6 PUSH2 0x7E5 JUMP JUMPDEST PUSH1 0x1 SWAP2 POP POP SWAP4 SWAP3 POP POP POP JUMP JUMPDEST PUSH0 PUSH1 0x12 SWAP1 POP SWAP1 JUMP JUMPDEST PUSH0 PUSH2 0x3C1 PUSH2 0x8D5 JUMP JUMPDEST SWAP1 POP SWAP1 JUMP JUMPDEST PUSH0 DUP1 PUSH0 DUP4 PUSH20 0xFFFFFFFFFFFFFFFFFFFFFFFFFFFFFFFFFFFFFFFF AND PUSH20 0xFFFFFFFFFFFFFFFFFFFFFFFFFFFFFFFFFFFFFFFF AND DUP2 MSTORE PUSH1 0x20 ADD SWAP1 DUP2 MSTORE PUSH1 0x20 ADD PUSH0 KECCAK256 SLOAD SWAP1 POP SWAP2 SWAP1 POP JUMP JUMPDEST PUSH0 PUSH2 0x415 DUP3 PUSH2 0x98B JUMP JUMPDEST SWAP1 POP SWAP2 SWAP1 POP JUMP JUMPDEST PUSH0 PUSH1 0x60 DUP1 PUSH0 DUP1 PUSH0 PUSH1 0x60 PUSH2 0x42D PUSH2 0x9D1 JUMP JUMPDEST PUSH2 0x435 PUSH2 0xA0C JUMP JUMPDEST CHAINID ADDRESS PUSH0 DUP1 SHL PUSH0 PUSH8 0xFFFFFFFFFFFFFFFF DUP2 GT ISZERO PUSH2 0x454 JUMPI PUSH2 0x453 PUSH2 0x1916 JUMP JUMPDEST JUMPDEST PUSH1 0x40 MLOAD SWAP1 DUP1 DUP3 MSTORE DUP1 PUSH1 0x20 MUL PUSH1 0x20 ADD DUP3 ADD PUSH1 0x40 MSTORE DUP1 ISZERO PUSH2 0x482 JUMPI DUP2 PUSH1 0x20 ADD PUSH1 0x20 DUP3 MUL DUP1 CALLDATASIZE DUP4 CALLDATACOPY DUP1 DUP3 ADD SWAP2 POP POP SWAP1 POP JUMPDEST POP PUSH32 0xF00000000000000000000000000000000000000000000000000000000000000 SWAP6 SWAP5 SWAP4 SWAP3 SWAP2 SWAP1 SWAP7 POP SWAP7 POP SWAP7 POP SWAP7 POP SWAP7 POP SWAP7 POP SWAP7 POP SWAP1 SWAP2 SWAP3 SWAP4 SWAP5 SWAP6 SWAP7 JUMP JUMPDEST PUSH1 0x60 PUSH1 0x4 DUP1 SLOAD PUSH2 0x4D0 SWAP1 PUSH2 0x18E6 JUMP JUMPDEST DUP1 PUSH1 0x1F ADD PUSH1 0x20 DUP1 SWAP2 DIV MUL PUSH1 0x20 ADD PUSH1 0x40 MLOAD SWAP1 DUP2 ADD PUSH1 0x40 MSTORE DUP1 SWAP3 SWAP2 SWAP1 DUP2 DUP2 MSTORE PUSH1 0x20 ADD DUP3 DUP1 SLOAD PUSH2 0x4FC SWAP1 PUSH2 0x18E6 JUMP JUMPDEST DUP1 ISZERO PUSH2 0x547 JUMPI DUP1 PUSH1 0x1F LT PUSH2 0x51E JUMPI PUSH2 0x100 DUP1 DUP4 SLOAD DIV MUL DUP4 MSTORE SWAP2 PUSH1 0x20 ADD SWAP2 PUSH2 0x547 JUMP JUMPDEST DUP3 ADD SWAP2 SWAP1 PUSH0 MSTORE PUSH1 0x20 PUSH0 KECCAK256 SWAP1 JUMPDEST DUP2 SLOAD DUP2 MSTORE SWAP1 PUSH1 0x1 ADD SWAP1 PUSH1 0x20 ADD DUP1 DUP4 GT PUSH2 0x52A JUMPI DUP3 SWAP1 SUB PUSH1 0x1F AND DUP3 ADD SWAP2 JUMPDEST POP POP POP POP POP SWAP1 POP SWAP1 JUMP JUMPDEST PUSH0 DUP1 PUSH2 0x55B PUSH2 0x73A JUMP JUMPDEST SWAP1 POP PUSH2 0x568 DUP2 DUP6 DUP6 PUSH2 0x7E5 JUMP JUMPDEST PUSH1 0x1 SWAP2 POP POP SWAP3 SWAP2 POP POP JUMP JUMPDEST DUP4 TIMESTAMP GT ISZERO PUSH2 0x5B8 JUMPI DUP4 PUSH1 0x40 MLOAD PUSH32 0x6279130200000000000000000000000000000000000000000000000000000000 DUP2 MSTORE PUSH1 0x4 ADD PUSH2 0x5AF SWAP2 SWAP1 PUSH2 0x150F JUMP JUMPDEST PUSH1 0x40 MLOAD DUP1 SWAP2 SUB SWAP1 REVERT JUMPDEST PUSH0 PUSH32 0x6E71EDAE12B1B97F4D1F60370FEF10105FA2FAAE0126114A169C64845D6126C9 DUP9 DUP9 DUP9 PUSH2 0x5E6 DUP13 PUSH2 0xA47 JUMP JUMPDEST DUP10 PUSH1 0x40 MLOAD PUSH1 0x20 ADD PUSH2 0x5FC SWAP7 SWAP6 SWAP5 SWAP4 SWAP3 SWAP2 SWAP1 PUSH2 0x1943 JUMP JUMPDEST PUSH1 0x40 MLOAD PUSH1 0x20 DUP2 DUP4 SUB SUB DUP2 MSTORE SWAP1 PUSH1 0x40 MSTORE DUP1 MLOAD SWAP1 PUSH1 0x20 ADD KECCAK256 SWAP1 POP PUSH0 PUSH2 0x61E DUP3 PUSH2 0xA9A JUMP JUMPDEST SWAP1 POP PUSH0 PUSH2 0x62D DUP3 DUP8 DUP8 DUP8 PUSH2 0xAB3 JUMP JUMPDEST SWAP1 POP DUP10 PUSH20 0xFFFFFFFFFFFFFFFFFFFFFFFFFFFFFFFFFFFFFFFF AND DUP2 PUSH20 0xFFFFFFFFFFFFFFFFFFFFFFFFFFFFFFFFFFFFFFFF AND EQ PUSH2 0x6A1 JUMPI DUP1 DUP11 PUSH1 0x40 MLOAD PUSH32 0x4B800E4600000000000000000000000000000000000000000000000000000000 DUP2 MSTORE PUSH1 0x4 ADD PUSH2 0x698 SWAP3 SWAP2 SWAP1 PUSH2 0x19A2 JUMP JUMPDEST PUSH1 0x40 MLOAD DUP1 SWAP2 SUB SWAP1 REVERT JUMPDEST PUSH2 0x6AC DUP11 DUP11 DUP11 PUSH2 0x741 JUMP JUMPDEST POP POP POP POP POP POP POP POP POP POP JUMP JUMPDEST PUSH0 PUSH1 0x1 PUSH0 DUP5 PUSH20 0xFFFFFFFFFFFFFFFFFFFFFFFFFFFFFFFFFFFFFFFF AND PUSH20 0xFFFFFFFFFFFFFFFFFFFFFFFFFFFFFFFFFFFFFFFF AND DUP2 MSTORE PUSH1 0x20 ADD SWAP1 DUP2 MSTORE PUSH1 0x20 ADD PUSH0 KECCAK256 PUSH0 DUP4 PUSH20 0xFFFFFFFFFFFFFFFFFFFFFFFFFFFFFFFFFFFFFFFF AND PUSH20 0xFFFFFFFFFFFFFFFFFFFFFFFFFFFFFFFFFFFFFFFF AND DUP2 MSTORE PUSH1 0x20 ADD SWAP1 DUP2 MSTORE PUSH1 0x20 ADD PUSH0 KECCAK256 SLOAD SWAP1 POP SWAP3 SWAP2 POP POP JUMP JUMPDEST PUSH0 CALLER SWAP1 POP SWAP1 JUMP JUMPDEST PUSH2 0x74E DUP4 DUP4 DUP4 PUSH1 0x1 PUSH2 0xAE1 JUMP JUMPDEST POP POP POP JUMP JUMPDEST PUSH0 PUSH2 0x75E DUP5 DUP5 PUSH2 0x6B8 JUMP JUMPDEST SWAP1 POP PUSH32 0xFFFFFFFFFFFFFFFFFFFFFFFFFFFFFFFFFFFFFFFFFFFFFFFFFFFFFFFFFFFFFFFF DUP2 EQ PUSH2 0x7DF JUMPI DUP2 DUP2 LT ISZERO PUSH2 0x7D0 JUMPI DUP3 DUP2 DUP4 PUSH1 0x40 MLOAD PUSH32 0xFB8F41B200000000000000000000000000000000000000000000000000000000 DUP2 MSTORE PUSH1 0x4 ADD PUSH2 0x7C7 SWAP4 SWAP3 SWAP2 SWAP1 PUSH2 0x19C9 JUMP JUMPDEST PUSH1 0x40 MLOAD DUP1 SWAP2 SUB SWAP1 REVERT JUMPDEST PUSH2 0x7DE DUP5 DUP5 DUP5 DUP5 SUB PUSH0 PUSH2 0xAE1 JUMP JUMPDEST JUMPDEST POP POP POP POP JUMP JUMPDEST PUSH0 PUSH20 0xFFFFFFFFFFFFFFFFFFFFFFFFFFFFFFFFFFFFFFFF AND DUP4 PUSH20 0xFFFFFFFFFFFFFFFFFFFFFFFFFFFFFFFFFFFFFFFF AND SUB PUSH2 0x855 JUMPI PUSH0 PUSH1 0x40 MLOAD PUSH32 0x96C6FD1E00000000000000000000000000000000000000000000000000000000 DUP2 MSTORE PUSH1 0x4 ADD PUSH2 0x84C SWAP2 SWAP1 PUSH2 0x19FE JUMP JUMPDEST PUSH1 0x40 MLOAD DUP1 SWAP2 SUB SWAP1 REVERT JUMPDEST PUSH0 PUSH20 0xFFFFFFFFFFFFFFFFFFFFFFFFFFFFFFFFFFFFFFFF AND DUP3 PUSH20 0xFFFFFFFFFFFFFFFFFFFFFFFFFFFFFFFFFFFFFFFF AND SUB PUSH2 0x8C5 JUMPI PUSH0 PUSH1 0x40 MLOAD PUSH32 0xEC442F0500000000000000000000000000000000000000000000000000000000 DUP2 MSTORE PUSH1 0x4 ADD PUSH2 0x8BC SWAP2 SWAP1 PUSH2 0x19FE JUMP JUMPDEST PUSH1 0x40 MLOAD DUP1 SWAP2 SUB SWAP1 REVERT JUMPDEST PUSH2 0x8D0 DUP4 DUP4 DUP4 PUSH2 0xCB0 JUMP JUMPDEST POP POP POP JUMP JUMPDEST PUSH0 PUSH32 0x0 PUSH20 0xFFFFFFFFFFFFFFFFFFFFFFFFFFFFFFFFFFFFFFFF AND ADDRESS PUSH20 0xFFFFFFFFFFFFFFFFFFFFFFFFFFFFFFFFFFFFFFFF AND EQ DUP1 ISZERO PUSH2 0x950 JUMPI POP PUSH32 0x0 CHAINID EQ JUMPDEST ISZERO PUSH2 0x97D JUMPI PUSH32 0x0 SWAP1 POP PUSH2 0x988 JUMP JUMPDEST PUSH2 0x985 PUSH2 0xEC9 JUMP JUMPDEST SWAP1 POP JUMPDEST SWAP1 JUMP JUMPDEST PUSH0 PUSH1 0x7 PUSH0 DUP4 PUSH20 0xFFFFFFFFFFFFFFFFFFFFFFFFFFFFFFFFFFFFFFFF AND PUSH20 0xFFFFFFFFFFFFFFFFFFFFFFFFFFFFFFFFFFFFFFFF AND DUP2 MSTORE PUSH1 0x20 ADD SWAP1 DUP2 MSTORE PUSH1 0x20 ADD PUSH0 KECCAK256 SLOAD SWAP1 POP SWAP2 SWAP1 POP JUMP JUMPDEST PUSH1 0x60 PUSH2 0xA07 PUSH1 0x5 PUSH32 0x0 PUSH2 0xF5E SWAP1 SWAP2 SWAP1 PUSH4 0xFFFFFFFF AND JUMP JUMPDEST SWAP1 POP SWAP1 JUMP JUMPDEST PUSH1 0x60 PUSH2 0xA42 PUSH1 0x6 PUSH32 0x0 PUSH2 0xF5E SWAP1 SWAP2 SWAP1 PUSH4 0xFFFFFFFF AND JUMP JUMPDEST SWAP1 POP SWAP1 JUMP JUMPDEST PUSH0 PUSH1 0x7 PUSH0 DUP4 PUSH20 0xFFFFFFFFFFFFFFFFFFFFFFFFFFFFFFFFFFFFFFFF AND PUSH20 0xFFFFFFFFFFFFFFFFFFFFFFFFFFFFFFFFFFFFFFFF AND DUP2 MSTORE PUSH1 0x20 ADD SWAP1 DUP2 MSTORE PUSH1 0x20 ADD PUSH0 KECCAK256 PUSH0 DUP2 SLOAD DUP1 SWAP3 SWAP2 SWAP1 PUSH1 0x1 ADD SWAP2 SWAP1 POP SSTORE SWAP1 POP SWAP2 SWAP1 POP JUMP JUMPDEST PUSH0 PUSH2 0xAAC PUSH2 0xAA6 PUSH2 0x8D5 JUMP JUMPDEST DUP4 PUSH2 0x100B JUMP JUMPDEST SWAP1 POP SWAP2 SWAP1 POP JUMP JUMPDEST PUSH0 DUP1 PUSH0 DUP1 PUSH2 0xAC3 DUP9 DUP9 DUP9 DUP9 PUSH2 0x104B JUMP JUMPDEST SWAP3 POP SWAP3 POP SWAP3 POP PUSH2 0xAD3 DUP3 DUP3 PUSH2 0x1132 JUMP JUMPDEST DUP3 SWAP4 POP POP POP POP SWAP5 SWAP4 POP POP POP POP JUMP JUMPDEST PUSH0 PUSH20 0xFFFFFFFFFFFFFFFFFFFFFFFFFFFFFFFFFFFFFFFF AND DUP5 PUSH20 0xFFFFFFFFFFFFFFFFFFFFFFFFFFFFFFFFFFFFFFFF AND SUB PUSH2 0xB51 JUMPI PUSH0 PUSH1 0x40 MLOAD PUSH32 0xE602DF0500000000000000000000000000000000000000000000000000000000 DUP2 MSTORE PUSH1 0x4 ADD PUSH2 0xB48 SWAP2 SWAP1 PUSH2 0x19FE JUMP JUMPDEST PUSH1 0x40 MLOAD DUP1 SWAP2 SUB SWAP1 REVERT JUMPDEST PUSH0 PUSH20 0xFFFFFFFFFFFFFFFFFFFFFFFFFFFFFFFFFFFFFFFF AND DUP4 PUSH20 0xFFFFFFFFFFFFFFFFFFFFFFFFFFFFFFFFFFFFFFFF AND SUB PUSH2 0xBC1 JUMPI PUSH0 PUSH1 0x40 MLOAD PUSH32 0x94280D6200000000000000000000000000000000000000000000000000000000 DUP2 MSTORE PUSH1 0x4 ADD PUSH2 0xBB8 SWAP2 SWAP1 PUSH2 0x19FE JUMP JUMPDEST PUSH1 0x40 MLOAD DUP1 SWAP2 SUB SWAP1 REVERT JUMPDEST DUP2 PUSH1 0x1 PUSH0 DUP7 PUSH20 0xFFFFFFFFFFFFFFFFFFFFFFFFFFFFFFFFFFFFFFFF AND PUSH20 0xFFFFFFFFFFFFFFFFFFFFFFFFFFFFFFFFFFFFFFFF AND DUP2 MSTORE PUSH1 0x20 ADD SWAP1 DUP2 MSTORE PUSH1 0x20 ADD PUSH0 KECCAK256 PUSH0 DUP6 PUSH20 0xFFFFFFFFFFFFFFFFFFFFFFFFFFFFFFFFFFFFFFFF AND PUSH20 0xFFFFFFFFFFFFFFFFFFFFFFFFFFFFFFFFFFFFFFFF AND DUP2 MSTORE PUSH1 0x20 ADD SWAP1 DUP2 MSTORE PUSH1 0x20 ADD PUSH0 KECCAK256 DUP2 SWAP1 SSTORE POP DUP1 ISZERO PUSH2 0xCAA JUMPI DUP3 PUSH20 0xFFFFFFFFFFFFFFFFFFFFFFFFFFFFFFFFFFFFFFFF AND DUP5 PUSH20 0xFFFFFFFFFFFFFFFFFFFFFFFFFFFFFFFFFFFFFFFF AND PUSH32 0x8C5BE1E5EBEC7D5BD14F71427D1E84F3DD0314C0F7B2291E5B200AC8C7C3B925 DUP5 PUSH1 0x40 MLOAD PUSH2 0xCA1 SWAP2 SWAP1 PUSH2 0x150F JUMP JUMPDEST PUSH1 0x40 MLOAD DUP1 SWAP2 SUB SWAP1 LOG3 JUMPDEST POP POP POP POP JUMP JUMPDEST PUSH0 PUSH20 0xFFFFFFFFFFFFFFFFFFFFFFFFFFFFFFFFFFFFFFFF AND DUP4 PUSH20 0xFFFFFFFFFFFFFFFFFFFFFFFFFFFFFFFFFFFFFFFF AND SUB PUSH2 0xD00 JUMPI DUP1 PUSH1 0x2 PUSH0 DUP3 DUP3 SLOAD PUSH2 0xCF4 SWAP2 SWAP1 PUSH2 0x1A44 JUMP JUMPDEST SWAP3 POP POP DUP2 SWAP1 SSTORE POP PUSH2 0xDCE JUMP JUMPDEST PUSH0 DUP1 PUSH0 DUP6 PUSH20 0xFFFFFFFFFFFFFFFFFFFFFFFFFFFFFFFFFFFFFFFF AND PUSH20 0xFFFFFFFFFFFFFFFFFFFFFFFFFFFFFFFFFFFFFFFF AND DUP2 MSTORE PUSH1 0x20 ADD SWAP1 DUP2 MSTORE PUSH1 0x20 ADD PUSH0 KECCAK256 SLOAD SWAP1 POP DUP2 DUP2 LT ISZERO PUSH2 0xD89 JUMPI DUP4 DUP2 DUP4 PUSH1 0x40 MLOAD PUSH32 0xE450D38C00000000000000000000000000000000000000000000000000000000 DUP2 MSTORE PUSH1 0x4 ADD PUSH2 0xD80 SWAP4 SWAP3 SWAP2 SWAP1 PUSH2 0x19C9 JUMP JUMPDEST PUSH1 0x40 MLOAD DUP1 SWAP2 SUB SWAP1 REVERT JUMPDEST DUP2 DUP2 SUB PUSH0 DUP1 DUP7 PUSH20 0xFFFFFFFFFFFFFFFFFFFFFFFFFFFFFFFFFFFFFFFF AND PUSH20 0xFFFFFFFFFFFFFFFFFFFFFFFFFFFFFFFFFFFFFFFF AND DUP2 MSTORE PUSH1 0x20 ADD SWAP1 DUP2 MSTORE PUSH1 0x20 ADD PUSH0 KECCAK256 DUP2 SWAP1 SSTORE POP POP JUMPDEST PUSH0 PUSH20 0xFFFFFFFFFFFFFFFFFFFFFFFFFFFFFFFFFFFFFFFF AND DUP3 PUSH20 0xFFFFFFFFFFFFFFFFFFFFFFFFFFFFFFFFFFFFFFFF AND SUB PUSH2 0xE15 JUMPI DUP1 PUSH1 0x2 PUSH0 DUP3 DUP3 SLOAD SUB SWAP3 POP POP DUP2 SWAP1 SSTORE POP PUSH2 0xE5F JUMP JUMPDEST DUP1 PUSH0 DUP1 DUP5 PUSH20 0xFFFFFFFFFFFFFFFFFFFFFFFFFFFFFFFFFFFFFFFF AND PUSH20 0xFFFFFFFFFFFFFFFFFFFFFFFFFFFFFFFFFFFFFFFF AND DUP2 MSTORE PUSH1 0x20 ADD SWAP1 DUP2 MSTORE PUSH1 0x20 ADD PUSH0 KECCAK256 PUSH0 DUP3 DUP3 SLOAD ADD SWAP3 POP POP DUP2 SWAP1 SSTORE POP JUMPDEST DUP2 PUSH20 0xFFFFFFFFFFFFFFFFFFFFFFFFFFFFFFFFFFFFFFFF AND DUP4 PUSH20 0xFFFFFFFFFFFFFFFFFFFFFFFFFFFFFFFFFFFFFFFF AND PUSH32 0xDDF252AD1BE2C89B69C2B068FC378DAA952BA7F163C4A11628F55A4DF523B3EF DUP4 PUSH1 0x40 MLOAD PUSH2 0xEBC SWAP2 SWAP1 PUSH2 0x150F JUMP JUMPDEST PUSH1 0x40 MLOAD DUP1 SWAP2 SUB SWAP1 LOG3 POP POP POP JUMP JUMPDEST PUSH0 PUSH32 0x8B73C3C69BB8FE3D512ECC4CF759CC79239F7B179B0FFACAA9A75D522B39400F PUSH32 0x0 PUSH32 0x0 CHAINID ADDRESS PUSH1 0x40 MLOAD PUSH1 0x20 ADD PUSH2 0xF43 SWAP6 SWAP5 SWAP4 SWAP3 SWAP2 SWAP1 PUSH2 0x1A77 JUMP JUMPDEST PUSH1 0x40 MLOAD PUSH1 0x20 DUP2 DUP4 SUB SUB DUP2 MSTORE SWAP1 PUSH1 0x40 MSTORE DUP1 MLOAD SWAP1 PUSH1 0x20 ADD KECCAK256 SWAP1 POP SWAP1 JUMP JUMPDEST PUSH1 0x60 PUSH1 0xFF PUSH0 SHL DUP4 EQ PUSH2 0xF7A JUMPI PUSH2 0xF73 DUP4 PUSH2 0x1294 JUMP JUMPDEST SWAP1 POP PUSH2 0x1005 JUMP JUMPDEST DUP2 DUP1 SLOAD PUSH2 0xF86 SWAP1 PUSH2 0x18E6 JUMP JUMPDEST DUP1 PUSH1 0x1F ADD PUSH1 0x20 DUP1 SWAP2 DIV MUL PUSH1 0x20 ADD PUSH1 0x40 MLOAD SWAP1 DUP2 ADD PUSH1 0x40 MSTORE DUP1 SWAP3 SWAP2 SWAP1 DUP2 DUP2 MSTORE PUSH1 0x20 ADD DUP3 DUP1 SLOAD PUSH2 0xFB2 SWAP1 PUSH2 0x18E6 JUMP JUMPDEST DUP1 ISZERO PUSH2 0xFFD JUMPI DUP1 PUSH1 0x1F LT PUSH2 0xFD4 JUMPI PUSH2 0x100 DUP1 DUP4 SLOAD DIV MUL DUP4 MSTORE SWAP2 PUSH1 0x20 ADD SWAP2 PUSH2 0xFFD JUMP JUMPDEST DUP3 ADD SWAP2 SWAP1 PUSH0 MSTORE PUSH1 0x20 PUSH0 KECCAK256 SWAP1 JUMPDEST DUP2 SLOAD DUP2 MSTORE SWAP1 PUSH1 0x1 ADD SWAP1 PUSH1 0x20 ADD DUP1 DUP4 GT PUSH2 0xFE0 JUMPI DUP3 SWAP1 SUB PUSH1 0x1F AND DUP3 ADD SWAP2 JUMPDEST POP POP POP POP POP SWAP1 POP JUMPDEST SWAP3 SWAP2 POP POP JUMP JUMPDEST PUSH0 PUSH1 0x40 MLOAD PUSH32 0x1901000000000000000000000000000000000000000000000000000000000000 DUP2 MSTORE DUP4 PUSH1 0x2 DUP3 ADD MSTORE DUP3 PUSH1 0x22 DUP3 ADD MSTORE PUSH1 0x42 DUP2 KECCAK256 SWAP2 POP POP SWAP3 SWAP2 POP POP JUMP JUMPDEST PUSH0 DUP1 PUSH0 PUSH32 0x7FFFFFFFFFFFFFFFFFFFFFFFFFFFFFFF5D576E7357A4501DDFE92F46681B20A0 DUP5 PUSH0 SHR GT ISZERO PUSH2 0x1087 JUMPI PUSH0 PUSH1 0x3 DUP6 SWAP3 POP SWAP3 POP SWAP3 POP PUSH2 0x1128 JUMP JUMPDEST PUSH0 PUSH1 0x1 DUP9 DUP9 DUP9 DUP9 PUSH1 0x40 MLOAD PUSH0 DUP2 MSTORE PUSH1 0x20 ADD PUSH1 0x40 MSTORE PUSH1 0x40 MLOAD PUSH2 0x10AA SWAP5 SWAP4 SWAP3 SWAP2 SWAP1 PUSH2 0x1AC8 JUMP JUMPDEST PUSH1 0x20 PUSH1 0x40 MLOAD PUSH1 0x20 DUP2 SUB SWAP1 DUP1 DUP5 SUB SWAP1 DUP6 GAS STATICCALL ISZERO DUP1 ISZERO PUSH2 0x10CA JUMPI RETURNDATASIZE PUSH0 DUP1 RETURNDATACOPY RETURNDATASIZE PUSH0 REVERT JUMPDEST POP POP POP PUSH1 0x20 PUSH1 0x40 MLOAD SUB MLOAD SWAP1 POP PUSH0 PUSH20 0xFFFFFFFFFFFFFFFFFFFFFFFFFFFFFFFFFFFFFFFF AND DUP2 PUSH20 0xFFFFFFFFFFFFFFFFFFFFFFFFFFFFFFFFFFFFFFFF AND SUB PUSH2 0x111B JUMPI PUSH0 PUSH1 0x1 PUSH0 DUP1 SHL SWAP4 POP SWAP4 POP SWAP4 POP POP PUSH2 0x1128 JUMP JUMPDEST DUP1 PUSH0 DUP1 PUSH0 SHL SWAP4 POP SWAP4 POP SWAP4 POP POP JUMPDEST SWAP5 POP SWAP5 POP SWAP5 SWAP2 POP POP JUMP JUMPDEST PUSH0 PUSH1 0x3 DUP2 GT ISZERO PUSH2 0x1145 JUMPI PUSH2 0x1144 PUSH2 0x1B0B JUMP JUMPDEST JUMPDEST DUP3 PUSH1 0x3 DUP2 GT ISZERO PUSH2 0x1158 JUMPI PUSH2 0x1157 PUSH2 0x1B0B JUMP JUMPDEST JUMPDEST SUB ISZERO PUSH2 0x1290 JUMPI PUSH1 0x1 PUSH1 0x3 DUP2 GT ISZERO PUSH2 0x1172 JUMPI PUSH2 0x1171 PUSH2 0x1B0B JUMP JUMPDEST JUMPDEST DUP3 PUSH1 0x3 DUP2 GT ISZERO PUSH2 0x1185 JUMPI PUSH2 0x1184 PUSH2 0x1B0B JUMP JUMPDEST JUMPDEST SUB PUSH2 0x11BC JUMPI PUSH1 0x40 MLOAD PUSH32 0xF645EEDF00000000000000000000000000000000000000000000000000000000 DUP2 MSTORE PUSH1 0x4 ADD PUSH1 0x40 MLOAD DUP1 SWAP2 SUB SWAP1 REVERT JUMPDEST PUSH1 0x2 PUSH1 0x3 DUP2 GT ISZERO PUSH2 0x11D0 JUMPI PUSH2 0x11CF PUSH2 0x1B0B JUMP JUMPDEST JUMPDEST DUP3 PUSH1 0x3 DUP2 GT ISZERO PUSH2 0x11E3 JUMPI PUSH2 0x11E2 PUSH2 0x1B0B JUMP JUMPDEST JUMPDEST SUB PUSH2 0x1227 JUMPI DUP1 PUSH0 SHR PUSH1 0x40 MLOAD PUSH32 0xFCE698F700000000000000000000000000000000000000000000000000000000 DUP2 MSTORE PUSH1 0x4 ADD PUSH2 0x121E SWAP2 SWAP1 PUSH2 0x150F JUMP JUMPDEST PUSH1 0x40 MLOAD DUP1 SWAP2 SUB SWAP1 REVERT JUMPDEST PUSH1 0x3 DUP1 DUP2 GT ISZERO PUSH2 0x123A JUMPI PUSH2 0x1239 PUSH2 0x1B0B JUMP JUMPDEST JUMPDEST DUP3 PUSH1 0x3 DUP2 GT ISZERO PUSH2 0x124D JUMPI PUSH2 0x124C PUSH2 0x1B0B JUMP JUMPDEST JUMPDEST SUB PUSH2 0x128F JUMPI DUP1 PUSH1 0x40 MLOAD PUSH32 0xD78BCE0C00000000000000000000000000000000000000000000000000000000 DUP2 MSTORE PUSH1 0x4 ADD PUSH2 0x1286 SWAP2 SWAP1 PUSH2 0x15C4 JUMP JUMPDEST PUSH1 0x40 MLOAD DUP1 SWAP2 SUB SWAP1 REVERT JUMPDEST JUMPDEST POP POP JUMP JUMPDEST PUSH1 0x60 PUSH0 PUSH2 0x12A0 DUP4 PUSH2 0x1306 JUMP JUMPDEST SWAP1 POP PUSH0 PUSH1 0x20 PUSH8 0xFFFFFFFFFFFFFFFF DUP2 GT ISZERO PUSH2 0x12BE JUMPI PUSH2 0x12BD PUSH2 0x1916 JUMP JUMPDEST JUMPDEST PUSH1 0x40 MLOAD SWAP1 DUP1 DUP3 MSTORE DUP1 PUSH1 0x1F ADD PUSH1 0x1F NOT AND PUSH1 0x20 ADD DUP3 ADD PUSH1 0x40 MSTORE DUP1 ISZERO PUSH2 0x12F0 JUMPI DUP2 PUSH1 0x20 ADD PUSH1 0x1 DUP3 MUL DUP1 CALLDATASIZE DUP4 CALLDATACOPY DUP1 DUP3 ADD SWAP2 POP POP SWAP1 POP JUMPDEST POP SWAP1 POP DUP2 DUP2 MSTORE DUP4 PUSH1 0x20 DUP3 ADD MSTORE DUP1 SWAP3 POP POP POP SWAP2 SWAP1 POP JUMP JUMPDEST PUSH0 DUP1 PUSH1 0xFF DUP4 PUSH0 SHR AND SWAP1 POP PUSH1 0x1F DUP2 GT ISZERO PUSH2 0x134B JUMPI PUSH1 0x40 MLOAD PUSH32 0xB3512B0C00000000000000000000000000000000000000000000000000000000 DUP2 MSTORE PUSH1 0x4 ADD PUSH1 0x40 MLOAD DUP1 SWAP2 SUB SWAP1 REVERT JUMPDEST DUP1 SWAP2 POP POP SWAP2 SWAP1 POP JUMP JUMPDEST PUSH0 DUP2 MLOAD SWAP1 POP SWAP2 SWAP1 POP JUMP JUMPDEST PUSH0 DUP3 DUP3 MSTORE PUSH1 0x20 DUP3 ADD SWAP1 POP SWAP3 SWAP2 POP POP JUMP JUMPDEST PUSH0 JUMPDEST DUP4 DUP2 LT ISZERO PUSH2 0x138B JUMPI DUP1 DUP3 ADD MLOAD DUP2 DUP5 ADD MSTORE PUSH1 0x20 DUP2 ADD SWAP1 POP PUSH2 0x1370 JUMP JUMPDEST PUSH0 DUP5 DUP5 ADD MSTORE POP POP POP POP JUMP JUMPDEST PUSH0 PUSH1 0x1F NOT PUSH1 0x1F DUP4 ADD AND SWAP1 POP SWAP2 SWAP1 POP JUMP JUMPDEST PUSH0 PUSH2 0x13B0 DUP3 PUSH2 0x1354 JUMP JUMPDEST PUSH2 0x13BA DUP2 DUP6 PUSH2 0x135E JUMP JUMPDEST SWAP4 POP PUSH2 0x13CA DUP2 DUP6 PUSH1 0x20 DUP7 ADD PUSH2 0x136E JUMP JUMPDEST PUSH2 0x13D3 DUP2 PUSH2 0x1396 JUMP JUMPDEST DUP5 ADD SWAP2 POP POP SWAP3 SWAP2 POP POP JUMP JUMPDEST PUSH0 PUSH1 0x20 DUP3 ADD SWAP1 POP DUP2 DUP2 SUB PUSH0 DUP4 ADD MSTORE PUSH2 0x13F6 DUP2 DUP5 PUSH2 0x13A6 JUMP JUMPDEST SWAP1 POP SWAP3 SWAP2 POP POP JUMP JUMPDEST PUSH0 DUP1 REVERT JUMPDEST PUSH0 PUSH20 0xFFFFFFFFFFFFFFFFFFFFFFFFFFFFFFFFFFFFFFFF DUP3 AND SWAP1 POP SWAP2 SWAP1 POP JUMP JUMPDEST PUSH0 PUSH2 0x142B DUP3 PUSH2 0x1402 JUMP JUMPDEST SWAP1 POP SWAP2 SWAP1 POP JUMP JUMPDEST PUSH2 0x143B DUP2 PUSH2 0x1421 JUMP JUMPDEST DUP2 EQ PUSH2 0x1445 JUMPI PUSH0 DUP1 REVERT JUMPDEST POP JUMP JUMPDEST PUSH0 DUP2 CALLDATALOAD SWAP1 POP PUSH2 0x1456 DUP2 PUSH2 0x1432 JUMP JUMPDEST SWAP3 SWAP2 POP POP JUMP JUMPDEST PUSH0 DUP2 SWAP1 POP SWAP2 SWAP1 POP JUMP JUMPDEST PUSH2 0x146E DUP2 PUSH2 0x145C JUMP JUMPDEST DUP2 EQ PUSH2 0x1478 JUMPI PUSH0 DUP1 REVERT JUMPDEST POP JUMP JUMPDEST PUSH0 DUP2 CALLDATALOAD SWAP1 POP PUSH2 0x1489 DUP2 PUSH2 0x1465 JUMP JUMPDEST SWAP3 SWAP2 POP POP JUMP JUMPDEST PUSH0 DUP1 PUSH1 0x40 DUP4 DUP6 SUB SLT ISZERO PUSH2 0x14A5 JUMPI PUSH2 0x14A4 PUSH2 0x13FE JUMP JUMPDEST JUMPDEST PUSH0 PUSH2 0x14B2 DUP6 DUP3 DUP7 ADD PUSH2 0x1448 JUMP JUMPDEST SWAP3 POP POP PUSH1 0x20 PUSH2 0x14C3 DUP6 DUP3 DUP7 ADD PUSH2 0x147B JUMP JUMPDEST SWAP2 POP POP SWAP3 POP SWAP3 SWAP1 POP JUMP JUMPDEST PUSH0 DUP2 ISZERO ISZERO SWAP1 POP SWAP2 SWAP1 POP JUMP JUMPDEST PUSH2 0x14E1 DUP2 PUSH2 0x14CD JUMP JUMPDEST DUP3 MSTORE POP POP JUMP JUMPDEST PUSH0 PUSH1 0x20 DUP3 ADD SWAP1 POP PUSH2 0x14FA PUSH0 DUP4 ADD DUP5 PUSH2 0x14D8 JUMP JUMPDEST SWAP3 SWAP2 POP POP JUMP JUMPDEST PUSH2 0x1509 DUP2 PUSH2 0x145C JUMP JUMPDEST DUP3 MSTORE POP POP JUMP JUMPDEST PUSH0 PUSH1 0x20 DUP3 ADD SWAP1 POP PUSH2 0x1522 PUSH0 DUP4 ADD DUP5 PUSH2 0x1500 JUMP JUMPDEST SWAP3 SWAP2 POP POP JUMP JUMPDEST PUSH0 DUP1 PUSH0 PUSH1 0x60 DUP5 DUP7 SUB SLT ISZERO PUSH2 0x153F JUMPI PUSH2 0x153E PUSH2 0x13FE JUMP JUMPDEST JUMPDEST PUSH0 PUSH2 0x154C DUP7 DUP3 DUP8 ADD PUSH2 0x1448 JUMP JUMPDEST SWAP4 POP POP PUSH1 0x20 PUSH2 0x155D DUP7 DUP3 DUP8 ADD PUSH2 0x1448 JUMP JUMPDEST SWAP3 POP POP PUSH1 0x40 PUSH2 0x156E DUP7 DUP3 DUP8 ADD PUSH2 0x147B JUMP JUMPDEST SWAP2 POP POP SWAP3 POP SWAP3 POP SWAP3 JUMP JUMPDEST PUSH0 PUSH1 0xFF DUP3 AND SWAP1 POP SWAP2 SWAP1 POP JUMP JUMPDEST PUSH2 0x158D DUP2 PUSH2 0x1578 JUMP JUMPDEST DUP3 MSTORE POP POP JUMP JUMPDEST PUSH0 PUSH1 0x20 DUP3 ADD SWAP1 POP PUSH2 0x15A6 PUSH0 DUP4 ADD DUP5 PUSH2 0x1584 JUMP JUMPDEST SWAP3 SWAP2 POP POP JUMP JUMPDEST PUSH0 DUP2 SWAP1 POP SWAP2 SWAP1 POP JUMP JUMPDEST PUSH2 0x15BE DUP2 PUSH2 0x15AC JUMP JUMPDEST DUP3 MSTORE POP POP JUMP JUMPDEST PUSH0 PUSH1 0x20 DUP3 ADD SWAP1 POP PUSH2 0x15D7 PUSH0 DUP4 ADD DUP5 PUSH2 0x15B5 JUMP JUMPDEST SWAP3 SWAP2 POP POP JUMP JUMPDEST PUSH0 PUSH1 0x20 DUP3 DUP5 SUB SLT ISZERO PUSH2 0x15F2 JUMPI PUSH2 0x15F1 PUSH2 0x13FE JUMP JUMPDEST JUMPDEST PUSH0 PUSH2 0x15FF DUP5 DUP3 DUP6 ADD PUSH2 0x1448 JUMP JUMPDEST SWAP2 POP POP SWAP3 SWAP2 POP POP JUMP JUMPDEST PUSH0 PUSH32 0xFF00000000000000000000000000000000000000000000000000000000000000 DUP3 AND SWAP1 POP SWAP2 SWAP1 POP JUMP JUMPDEST PUSH2 0x163C DUP2 PUSH2 0x1608 JUMP JUMPDEST DUP3 MSTORE POP POP JUMP JUMPDEST PUSH2 0x164B DUP2 PUSH2 0x1421 JUMP JUMPDEST DUP3 MSTORE POP POP JUMP JUMPDEST PUSH0 DUP2 MLOAD SWAP1 POP SWAP2 SWAP1 POP JUMP JUMPDEST PUSH0 DUP3 DUP3 MSTORE PUSH1 0x20 DUP3 ADD SWAP1 POP SWAP3 SWAP2 POP POP JUMP JUMPDEST PUSH0 DUP2 SWAP1 POP PUSH1 0x20 DUP3 ADD SWAP1 POP SWAP2 SWAP1 POP JUMP JUMPDEST PUSH2 0x1683 DUP2 PUSH2 0x145C JUMP JUMPDEST DUP3 MSTORE POP POP JUMP JUMPDEST PUSH0 PUSH2 0x1694 DUP4 DUP4 PUSH2 0x167A JUMP JUMPDEST PUSH1 0x20 DUP4 ADD SWAP1 POP SWAP3 SWAP2 POP POP JUMP JUMPDEST PUSH0 PUSH1 0x20 DUP3 ADD SWAP1 POP SWAP2 SWAP1 POP JUMP JUMPDEST PUSH0 PUSH2 0x16B6 DUP3 PUSH2 0x1651 JUMP JUMPDEST PUSH2 0x16C0 DUP2 DUP6 PUSH2 0x165B JUMP JUMPDEST SWAP4 POP PUSH2 0x16CB DUP4 PUSH2 0x166B JUMP JUMPDEST DUP1 PUSH0 JUMPDEST DUP4 DUP2 LT ISZERO PUSH2 0x16FB JUMPI DUP2 MLOAD PUSH2 0x16E2 DUP9 DUP3 PUSH2 0x1689 JUMP JUMPDEST SWAP8 POP PUSH2 0x16ED DUP4 PUSH2 0x16A0 JUMP JUMPDEST SWAP3 POP POP PUSH1 0x1 DUP2 ADD SWAP1 POP PUSH2 0x16CE JUMP JUMPDEST POP DUP6 SWAP4 POP POP POP POP SWAP3 SWAP2 POP POP JUMP JUMPDEST PUSH0 PUSH1 0xE0 DUP3 ADD SWAP1 POP PUSH2 0x171B PUSH0 DUP4 ADD DUP11 PUSH2 0x1633 JUMP JUMPDEST DUP2 DUP2 SUB PUSH1 0x20 DUP4 ADD MSTORE PUSH2 0x172D DUP2 DUP10 PUSH2 0x13A6 JUMP JUMPDEST SWAP1 POP DUP2 DUP2 SUB PUSH1 0x40 DUP4 ADD MSTORE PUSH2 0x1741 DUP2 DUP9 PUSH2 0x13A6 JUMP JUMPDEST SWAP1 POP PUSH2 0x1750 PUSH1 0x60 DUP4 ADD DUP8 PUSH2 0x1500 JUMP JUMPDEST PUSH2 0x175D PUSH1 0x80 DUP4 ADD DUP7 PUSH2 0x1642 JUMP JUMPDEST PUSH2 0x176A PUSH1 0xA0 DUP4 ADD DUP6 PUSH2 0x15B5 JUMP JUMPDEST DUP2 DUP2 SUB PUSH1 0xC0 DUP4 ADD MSTORE PUSH2 0x177C DUP2 DUP5 PUSH2 0x16AC JUMP JUMPDEST SWAP1 POP SWAP9 SWAP8 POP POP POP POP POP POP POP POP JUMP JUMPDEST PUSH2 0x1793 DUP2 PUSH2 0x1578 JUMP JUMPDEST DUP2 EQ PUSH2 0x179D JUMPI PUSH0 DUP1 REVERT JUMPDEST POP JUMP JUMPDEST PUSH0 DUP2 CALLDATALOAD SWAP1 POP PUSH2 0x17AE DUP2 PUSH2 0x178A JUMP JUMPDEST SWAP3 SWAP2 POP POP JUMP JUMPDEST PUSH2 0x17BD DUP2 PUSH2 0x15AC JUMP JUMPDEST DUP2 EQ PUSH2 0x17C7 JUMPI PUSH0 DUP1 REVERT JUMPDEST POP JUMP JUMPDEST PUSH0 DUP2 CALLDATALOAD SWAP1 POP PUSH2 0x17D8 DUP2 PUSH2 0x17B4 JUMP JUMPDEST SWAP3 SWAP2 POP POP JUMP JUMPDEST PUSH0 DUP1 PUSH0 DUP1 PUSH0 DUP1 PUSH0 PUSH1 0xE0 DUP9 DUP11 SUB SLT ISZERO PUSH2 0x17F9 JUMPI PUSH2 0x17F8 PUSH2 0x13FE JUMP JUMPDEST JUMPDEST PUSH0 PUSH2 0x1806 DUP11 DUP3 DUP12 ADD PUSH2 0x1448 JUMP JUMPDEST SWAP8 POP POP PUSH1 0x20 PUSH2 0x1817 DUP11 DUP3 DUP12 ADD PUSH2 0x1448 JUMP JUMPDEST SWAP7 POP POP PUSH1 0x40 PUSH2 0x1828 DUP11 DUP3 DUP12 ADD PUSH2 0x147B JUMP JUMPDEST SWAP6 POP POP PUSH1 0x60 PUSH2 0x1839 DUP11 DUP3 DUP12 ADD PUSH2 0x147B JUMP JUMPDEST SWAP5 POP POP PUSH1 0x80 PUSH2 0x184A DUP11 DUP3 DUP12 ADD PUSH2 0x17A0 JUMP JUMPDEST SWAP4 POP POP PUSH1 0xA0 PUSH2 0x185B DUP11 DUP3 DUP12 ADD PUSH2 0x17CA JUMP JUMPDEST SWAP3 POP POP PUSH1 0xC0 PUSH2 0x186C DUP11 DUP3 DUP12 ADD PUSH2 0x17CA JUMP JUMPDEST SWAP2 POP POP SWAP3 SWAP6 SWAP9 SWAP2 SWAP5 SWAP8 POP SWAP3 SWAP6 POP JUMP JUMPDEST PUSH0 DUP1 PUSH1 0x40 DUP4 DUP6 SUB SLT ISZERO PUSH2 0x1891 JUMPI PUSH2 0x1890 PUSH2 0x13FE JUMP JUMPDEST JUMPDEST PUSH0 PUSH2 0x189E DUP6 DUP3 DUP7 ADD PUSH2 0x1448 JUMP JUMPDEST SWAP3 POP POP PUSH1 0x20 PUSH2 0x18AF DUP6 DUP3 DUP7 ADD PUSH2 0x1448 JUMP JUMPDEST SWAP2 POP POP SWAP3 POP SWAP3 SWAP1 POP JUMP JUMPDEST PUSH32 0x4E487B7100000000000000000000000000000000000000000000000000000000 PUSH0 MSTORE PUSH1 0x22 PUSH1 0x4 MSTORE PUSH1 0x24 PUSH0 REVERT JUMPDEST PUSH0 PUSH1 0x2 DUP3 DIV SWAP1 POP PUSH1 0x1 DUP3 AND DUP1 PUSH2 0x18FD JUMPI PUSH1 0x7F DUP3 AND SWAP2 POP JUMPDEST PUSH1 0x20 DUP3 LT DUP2 SUB PUSH2 0x1910 JUMPI PUSH2 0x190F PUSH2 0x18B9 JUMP JUMPDEST JUMPDEST POP SWAP2 SWAP1 POP JUMP JUMPDEST PUSH32 0x4E487B7100000000000000000000000000000000000000000000000000000000 PUSH0 MSTORE PUSH1 0x41 PUSH1 0x4 MSTORE PUSH1 0x24 PUSH0 REVERT JUMPDEST PUSH0 PUSH1 0xC0 DUP3 ADD SWAP1 POP PUSH2 0x1956 PUSH0 DUP4 ADD DUP10 PUSH2 0x15B5 JUMP JUMPDEST PUSH2 0x1963 PUSH1 0x20 DUP4 ADD DUP9 PUSH2 0x1642 JUMP JUMPDEST PUSH2 0x1970 PUSH1 0x40 DUP4 ADD DUP8 PUSH2 0x1642 JUMP JUMPDEST PUSH2 0x197D PUSH1 0x60 DUP4 ADD DUP7 PUSH2 0x1500 JUMP JUMPDEST PUSH2 0x198A PUSH1 0x80 DUP4 ADD DUP6 PUSH2 0x1500 JUMP JUMPDEST PUSH2 0x1997 PUSH1 0xA0 DUP4 ADD DUP5 PUSH2 0x1500 JUMP JUMPDEST SWAP8 SWAP7 POP POP POP POP POP POP POP JUMP JUMPDEST PUSH0 PUSH1 0x40 DUP3 ADD SWAP1 POP PUSH2 0x19B5 PUSH0 DUP4 ADD DUP6 PUSH2 0x1642 JUMP JUMPDEST PUSH2 0x19C2 PUSH1 0x20 DUP4 ADD DUP5 PUSH2 0x1642 JUMP JUMPDEST SWAP4 SWAP3 POP POP POP JUMP JUMPDEST PUSH0 PUSH1 0x60 DUP3 ADD SWAP1 POP PUSH2 0x19DC PUSH0 DUP4 ADD DUP7 PUSH2 0x1642 JUMP JUMPDEST PUSH2 0x19E9 PUSH1 0x20 DUP4 ADD DUP6 PUSH2 0x1500 JUMP JUMPDEST PUSH2 0x19F6 PUSH1 0x40 DUP4 ADD DUP5 PUSH2 0x1500 JUMP JUMPDEST SWAP5 SWAP4 POP POP POP POP JUMP JUMPDEST PUSH0 PUSH1 0x20 DUP3 ADD SWAP1 POP PUSH2 0x1A11 PUSH0 DUP4 ADD DUP5 PUSH2 0x1642 JUMP JUMPDEST SWAP3 SWAP2 POP POP JUMP JUMPDEST PUSH32 0x4E487B7100000000000000000000000000000000000000000000000000000000 PUSH0 MSTORE PUSH1 0x11 PUSH1 0x4 MSTORE PUSH1 0x24 PUSH0 REVERT JUMPDEST PUSH0 PUSH2 0x1A4E DUP3 PUSH2 0x145C JUMP JUMPDEST SWAP2 POP PUSH2 0x1A59 DUP4 PUSH2 0x145C JUMP JUMPDEST SWAP3 POP DUP3 DUP3 ADD SWAP1 POP DUP1 DUP3 GT ISZERO PUSH2 0x1A71 JUMPI PUSH2 0x1A70 PUSH2 0x1A17 JUMP JUMPDEST JUMPDEST SWAP3 SWAP2 POP POP JUMP JUMPDEST PUSH0 PUSH1 0xA0 DUP3 ADD SWAP1 POP PUSH2 0x1A8A PUSH0 DUP4 ADD DUP9 PUSH2 0x15B5 JUMP JUMPDEST PUSH2 0x1A97 PUSH1 0x20 DUP4 ADD DUP8 PUSH2 0x15B5 JUMP JUMPDEST PUSH2 0x1AA4 PUSH1 0x40 DUP4 ADD DUP7 PUSH2 0x15B5 JUMP JUMPDEST PUSH2 0x1AB1 PUSH1 0x60 DUP4 ADD DUP6 PUSH2 0x1500 JUMP JUMPDEST PUSH2 0x1ABE PUSH1 0x80 DUP4 ADD DUP5 PUSH2 0x1642 JUMP JUMPDEST SWAP7 SWAP6 POP POP POP POP POP POP JUMP JUMPDEST PUSH0 PUSH1 0x80 DUP3 ADD SWAP1 POP PUSH2 0x1ADB PUSH0 DUP4 ADD DUP8 PUSH2 0x15B5 JUMP JUMPDEST PUSH2 0x1AE8 PUSH1 0x20 DUP4 ADD DUP7 PUSH2 0x1584 JUMP JUMPDEST PUSH2 0x1AF5 PUSH1 0x40 DUP4 ADD DUP6 PUSH2 0x15B5 JUMP JUMPDEST PUSH2 0x1B02 PUSH1 0x60 DUP4 ADD DUP5 PUSH2 0x15B5 JUMP JUMPDEST SWAP6 SWAP5 POP POP POP POP POP JUMP JUMPDEST PUSH32 0x4E487B7100000000000000000000000000000000000000000000000000000000 PUSH0 MSTORE PUSH1 0x21 PUSH1 0x4 MSTORE PUSH1 0x24 PUSH0 REVERT INVALID LOG2 PUSH5 0x6970667358 0x22 SLT KECCAK256 LOG3 0xB6 MLOAD 0xDE 0xEE 0xDE BLOCKHASH DUP8 JUMP 0xB2 0xDD DUP10 GAS 0x28 0xAD 0xCB SHR 0xC2 0xB6 JUMP CALLDATASIZE PUSH11 0xAE713CE89FD739B1B30764 PUSH20 0x6F6C634300081600330000000000000000000000 "
				},
				"gasEstimates": {
					"creation": {
						"codeDepositCost": "1404400",
						"executionCost": "infinite",
						"totalCost": "infinite"
					},
					"external": {
						"DOMAIN_SEPARATOR()": "infinite",
						"allowance(address,address)": "infinite",
						"approve(address,uint256)": "infinite",
						"balanceOf(address)": "2852",
						"decimals()": "427",
						"eip712Domain()": "infinite",
						"name()": "infinite",
						"nonces(address)": "2916",
						"permit(address,address,uint256,uint256,uint8,bytes32,bytes32)": "infinite",
						"symbol()": "infinite",
						"totalSupply()": "2477",
						"transfer(address,uint256)": "infinite",
						"transferFrom(address,address,uint256)": "infinite"
					}
				},
				"methodIdentifiers": {
					"DOMAIN_SEPARATOR()": "3644e515",
					"allowance(address,address)": "dd62ed3e",
					"approve(address,uint256)": "095ea7b3",
					"balanceOf(address)": "70a08231",
					"decimals()": "313ce567",
					"eip712Domain()": "84b0196e",
					"name()": "06fdde03",
					"nonces(address)": "7ecebe00",
					"permit(address,address,uint256,uint256,uint8,bytes32,bytes32)": "d505accf",
					"symbol()": "95d89b41",
					"totalSupply()": "18160ddd",
					"transfer(address,uint256)": "a9059cbb",
					"transferFrom(address,address,uint256)": "23b872dd"
				}
			},
			"storageLayout": {
				"storage": [
					{
						"astId": 184,
						"contract": "contract-0c61f2e207.sol:KnowLedgeToken",
						"label": "_balances",
						"offset": 0,
						"slot": "0",
						"type": "t_mapping(t_address,t_uint256)"
					},
					{
						"astId": 190,
						"contract": "contract-0c61f2e207.sol:KnowLedgeToken",
						"label": "_allowances",
						"offset": 0,
						"slot": "1",
						"type": "t_mapping(t_address,t_mapping(t_address,t_uint256))"
					},
					{
						"astId": 192,
						"contract": "contract-0c61f2e207.sol:KnowLedgeToken",
						"label": "_totalSupply",
						"offset": 0,
						"slot": "2",
						"type": "t_uint256"
					},
					{
						"astId": 194,
						"contract": "contract-0c61f2e207.sol:KnowLedgeToken",
						"label": "_name",
						"offset": 0,
						"slot": "3",
						"type": "t_string_storage"
					},
					{
						"astId": 196,
						"contract": "contract-0c61f2e207.sol:KnowLedgeToken",
						"label": "_symbol",
						"offset": 0,
						"slot": "4",
						"type": "t_string_storage"
					},
					{
						"astId": 2035,
						"contract": "contract-0c61f2e207.sol:KnowLedgeToken",
						"label": "_nameFallback",
						"offset": 0,
						"slot": "5",
						"type": "t_string_storage"
					},
					{
						"astId": 2037,
						"contract": "contract-0c61f2e207.sol:KnowLedgeToken",
						"label": "_versionFallback",
						"offset": 0,
						"slot": "6",
						"type": "t_string_storage"
					},
					{
						"astId": 1014,
						"contract": "contract-0c61f2e207.sol:KnowLedgeToken",
						"label": "_nonces",
						"offset": 0,
						"slot": "7",
						"type": "t_mapping(t_address,t_uint256)"
					}
				],
				"types": {
					"t_address": {
						"encoding": "inplace",
						"label": "address",
						"numberOfBytes": "20"
					},
					"t_mapping(t_address,t_mapping(t_address,t_uint256))": {
						"encoding": "mapping",
						"key": "t_address",
						"label": "mapping(address => mapping(address => uint256))",
						"numberOfBytes": "32",
						"value": "t_mapping(t_address,t_uint256)"
					},
					"t_mapping(t_address,t_uint256)": {
						"encoding": "mapping",
						"key": "t_address",
						"label": "mapping(address => uint256)",
						"numberOfBytes": "32",
						"value": "t_uint256"
					},
					"t_string_storage": {
						"encoding": "bytes",
						"label": "string",
						"numberOfBytes": "32"
					},
					"t_uint256": {
						"encoding": "inplace",
						"label": "uint256",
						"numberOfBytes": "32"
					}
				}
			},
			"userdoc": {
				"kind": "user",
				"methods": {},
				"version": 1
			}
		}
	}
}